:020000041000EA
:1000000000B5324B212058609868022188439860DF
:10001000D860186158612E4B002199600221596106
:100020000121F02299502B49196001219960352056
:1000300000F044F80222904214D00621196600F024
:1000400034F8196E01211966002018661A6600F04E
:100050002CF8196E196E196E052000F02FF8012189
:100060000842F9D1002199601B49196000215960AB
:100070001A491B48016001219960EB211966A021F2
:10008000196600F012F800219960164914480160C1
:100090000121996001BC002800D000471248134993
:1000A000086003C880F30888084703B5996A0420EC
:1000B0000142FBD001200142F8D103BD02B5186610
:1000C0001866FFF7F2FF186E186E02BD00000240BE
:1000D000000000180000070000035F00212200005C
:1000E000F4000018222000A00001001008ED00E03C
:1000F00000000000000000000000000074B24E7A12
:1001000000200420F7010010C3010010C5010010F9
:10011000C1010010C1010010C1010010C101001097
:10012000C1010010C1010010C1010010C701001081
:10013000C1010010C1010010C9010010CB01001065
:10014000CD010010CD010010CD010010CD01001037
:10015000CD010010CD010010CD010010CD01001027
:10016000CD010010CD010010CD010010CD01001017
:10017000CD010010CD010010CD010010CD01001007
:10018000CD010010CD010010CD010010CD010010F7
:10019000CD010010CD010010CD010010CD010010E7
:1001A000CD010010CD010010CD010010CD010010D7
:1001B000CD010010CD010010CD010010CD010010C7
:1001C00000BE00BE00BE00BE00BE00BEEFF3058054
:1001D000103800BEF2EB88718C940610B4940610AF
:1001E0003402001090A31AE700201F49086006C8D7
:1001F00081F3088810471D48006800282FD10DA4FE
:100200000ECC002902D000F012F8F9E71849194A7B
:10021000002000E001C19142FCD1174988471749ED
:1002200088471749884700BEFDE701C901C29A42C5
:10023000FBD37047B4940610C0000020E83B0020B8
:10024000DCCF06100000042000000420DCCF0610E4
:10025000001004200010042000000000704709482E
:1002600008F094FB0047000008ED00E0000000D01B
:10027000083C0020402A0120C5700010412D0010CC
:10028000ED7100105756000006005250ABB360539A
:1002900080E4021006005250861C030290E4021013
:1002A000060052505422A29D98E4021005005250BC
:1002B000DE65F468DCCF0610F8B5C0460448054B8F
:1002C00010B5834203D0044B002B00D0984710BDDB
:1002D000E83B0020E83B00200000000006480749FA
:1002E000091A8B10C90FC91810B5491003D0044B57
:1002F000002B00D0984710BDE83B0020E83B0020D1
:100300000000000010B5074C2378002B09D1FFF73F
:10031000D5FF054B002B02D0044800E000BF0123AD
:10032000237010BD683D00200000000010B80210CE
:10033000054B10B5002B03D00449054800E000BF71
:10034000FFF7CCFF10BDC046000000006C3D002050
:1003500010B802107047C046D4239B00C258034B0C
:10036000C25401226A33C2507047C046560300008F
:10037000D422054B9200C35C82589B001A50F02394
:1003800001229B00C250704756030000044A835C60
:1003900001338354F02301229B00C2507047C046B2
:1003A00056030000044A835C013B8354F02301227E
:1003B0009B00C2507047C04656030000D4239B00E8
:1003C000C2580C33C25400220433C250603301328D
:1003D000C2507047D422920083580B391B01591820
:1003E0000B0F0A3B012B04D9A023090109091B06A5
:1003F0001943F023815001229B00C2507047C04630
:10040000F32320229B00C2540022583BC250243BBD
:10041000FF32C2500123D52230B501246442E517D2
:100420005B4292008352074A83544232821814601E
:100430005560E82292008350F02301229B00C250B5
:1004400030BDC04656030000F3232022FF219B004D
:10045000C2541F3A583BC250243BC1500123D521FE
:1004600030B501246442E5175B42890043520649D6
:100470004354423141180C604D60E82189004350DB
:10048000F0239B00C25030BD56030000ED23012233
:100490009B00C2507047C046EE2301229B00C25011
:1004A0007047C046F42300229B00C250103B9C467C
:1004B000012201236044026043607047F4229200ED
:1004C000835801338350F02301229B00C2507047B0
:1004D000F42292008358002B01DD013B8350F0236E
:1004E00001229B00C2507047F0239B009C460122D2
:1004F00000236044026043607047C046F22301223B
:100500009B00C250083B9C460122002360440260CD
:1005100043607047F0230121014A9B00D15070478E
:10052000D8520020084B0948094918605960094809
:1005300009499860D9600948094918615961094811
:1005400007499861D9617047D8520020630352036C
:1005500056005610500553055205510554055305D4
:100560005107510600240024054B06480649074A56
:1005700018605960064807499860D9601A61704749
:10058000D85200206103520300005610594131B582
:10059000012401245107510610B50E4809F052F804
:1005A0000D4B0E481A680E4B196809F0ABF90D4B4C
:1005B0000D48196809F0A6F90C4B0D481A680D4B47
:1005C000196809F09FF90C4B0C48196809F09AF961
:1005D00010BDC04610B80210144E002020B8021002
:1005E0001C4E0020184E002044B80210244E00205B
:1005F0005CB802100C4E0020204E002070B8021093
:1006000010B5054C0548216809F07CF920682538AB
:1006100003F00CF910BDC046284E00207CB8021033
:1006200010B5152003F002F910BDC04610B5162014
:1006300003F0FCF810BDC04610B5172003F0F6F823
:1006400010BDC04610B5072003F0F0F810BDC0463D
:1006500010B51A2003F0EAF810BDC04610B502200C
:1006600003F0E4F810BDC04610B5062003F0DEF834
:1006700010BDC04610B5052003F0D8F810BDC04627
:1006800010B5032003F0D2F810BDC04610B5042009
:1006900003F0CCF810BDC046F023002110B5034A8A
:1006A0009B001820D15003F0C1F810BDD852002093
:1006B000F023002110B5034A9B001920D15003F00C
:1006C000B5F810BDD852002010B5084904000848FC
:1006D00004F02CFAF22300229B00E250083B9C46D7
:1006E0000122012364442260636010BD1859002078
:1006F00080B8021070B500240F4D104E07E02100A5
:10070000300004CD013409F0FDF8C82C10D00521CB
:10071000200008F069F90029F1D10A2008F046FF0D
:100720002100300004CD013409F0ECF8C82CEED1E2
:100730000A2008F03BFF70BDD852002088B8021094
:1007400070B50A2008F032FF094C0A4E2500993591
:10075000FF35626813782A2B03D03000217809F026
:10076000D1F80C34AC42F4D1034809F0CBF870BD99
:1007700010170020A0B80210ACB8021070B52848BD
:1007800009F0C0F8274D284C3FE0D0230122022178
:100790001B069A6199610231996180000431996167
:1007A00041598A405A61D02301221B0659685B686F
:1007B00009095B0911401A4201D002231943D023D1
:1007C0001B065B685B0601D504231943D0231B0677
:1007D0005B681B0601D508231943D0231B065B6801
:1007E000DB0501D510231943D0231B065B689B054D
:1007F00001D520231943D0231B065B685B0501D577
:1008000040231943200009F07DF8FA20800009F008
:100810008DF8431CC7D030380328B6D970BDC04608
:10082000C8B80210E0C302107CB8021030B583B023
:1008300005000B49100001AA25F0F8FF040001286B
:1008400003D00024200003B030BDD722FF21019B3C
:100850009200AB541940034809F054F8F2E7C0463F
:10086000D4B80210E4B8021030B583B005000A49CC
:10087000100001AA25F0DAFF0400012803D00024AB
:10088000200003B030BDD823019A9B001100EA502C
:10089000024809F037F8F3E7FCB802100CB902106F
:1008A000002330B583B005000A49100001AA019366
:1008B00025F0BCFF0400012803D00024200003B071
:1008C00030BDD423019A9B001100EA50024809F080
:1008D00019F8F3E724B9021034B9021010B582B048
:1008E00001AB0400104910006A4625F09FFF002369
:1008F000022802D0180002B010BD0099019A012907
:100900000FD002290AD0002904D0084808F0FAFFC5
:100910000123EFE7D5239B00E254F6E7044BE254B2
:10092000F3E7044BE254F0E750B9021068B9021043
:10093000560300005503000030B583B005000A4996
:10094000100001AA25F072FF0400012803D0002442
:10095000200003B030BDD623019A9B001100EA505D
:10096000024808F0CFFFF3E788B90210A4B90210DB
:1009700030B583B005000B49100001AA25F056FFE1
:100980000400012803D00024200003B030BDDB2286
:10099000FF21019B9200AB541940034808F0B2FFBD
:1009A000F2E7C046C4B90210D8B9021070B5274D9D
:1009B0000600286814008EB0002801D10EB070BD6A
:1009C0000DAB05930CAB04930BAB03930AAB0293F3
:1009D00009AB019308AB009320001D4907AB06AAA1
:1009E00025F024FF082805D000231A4A00202B6098
:1009F0001360E3E7174A136898003018410713D1D2
:100A0000069C079D04604560089C099D8460C56044
:100A10000A9C0B9D046145610C9C0D9D8461C56120
:100A2000083301201360C9E7069901600799416006
:100A3000089981600999C1600A9901610B99416126
:100A40000C9981610D99C161EAE7C046984E00207A
:100A5000F0B902109C4E0020100010B50722084982
:100A600026F096F80023002801D0180010BD0122BE
:100A7000044B05481A6008F045FF0123F5E7C0461E
:100A80000CBA0210984E002014BA02107047C046EB
:100A900010B5034807F07AFF0021030000209847B3
:100AA00055420000F3229200835CF0B5202B48D021
:100AB000432B41D141238354D923D7229B00920059
:100AC000C318821812CA12C3D9239B00C35C9B00AF
:100AD0001C58D6239B00C4500833C358002B00D1A8
:100AE00076E00F21DE23220B0A409B00260AC2502B
:100AF0000E4004332509C6500D400433C550214033
:100B00000433C150EA27AB005B195B005B18BF00E0
:100B1000C351092A10D84D4F9200BA589746032E58
:100B200000DC8DE0063E012E06D8E6239B00C55072
:100B30000433C1500433C150F02301229B00C25042
:100B4000F0BD41238354D923D7229B009200C318C0
:100B5000821812CA12C3D9239B00C35C9B001C5885
:100B6000D6239B00C4500833C358002B1ED1DE236C
:100B70000F219B00220F260EC2500E400433250D7C
:100B8000C6500D400433C550230C1940E1239B008F
:100B9000C150EA27AB005B195B005B18BF00C35173
:100BA000092AC9D82A4F9200BA5897460F21DE2346
:100BB000220B0A409B00260AC2500E40043325092E
:100BC000C6500D400433C55021400433C150E0E706
:100BD000DE230F219B00220F260EC2500E4004334D
:100BE000250DC6500D400433C550230C1940E12398
:100BF0009B00C15086E7EB23220C9B00C254154B8F
:100C0000220AC254144BC45496E7CD229200825853
:100C1000C83292001258D318E922920083508BE711
:100C20009B001A58E9239B00C25085E7E6239B00EE
:100C3000C5500433C1507FE7CC22E7E7CB22E5E77C
:100C4000E6239B00C5500833C15075E728BA02104F
:100C500050BA0210AD030000AE03000010B5002032
:100C6000D02404F01BFA012324066362012004F05F
:100C700015FA02230220636204F010FA0423032011
:100C8000636204F00BFA08230420636204F006FA9E
:100C900010230122A3620021042004F077F905202B
:100CA00004F0FCF920230122A3620021042004F0B7
:100CB0006DF9062004F0F2F940230122A36200211D
:100CC000042004F063F9072004F0E8F980230122EE
:100CD000A3620021042004F059F9082004F0DEF991
:100CE00080235B00A36201220021042004F04EF95E
:100CF000092004F0D3F980239B00A3620122002184
:100D0000042004F043F90A2004F0C8F98023DB0032
:100D1000012200210420A36204F038F910BDC0466E
:100D2000354B70B51968002901D1344B1960D022B8
:100D300001201206536852681B09520903401042F1
:100D400001D002221343D02212065268520601D566
:100D500004221343D02212065268120601D508223B
:100D60001343D02212065268D20501D51022134334
:100D7000D022120650680124800513D52020526825
:100D80000343920A144234D0402213431C4A136096
:100D90001A481C4A04681460CA01134303600329FB
:100DA0000AD070BD5268920A1442EDD1144A136001
:100DB000002BEDD10329F4D1104B134C1968134DBE
:100DC00023682960994212D0002910D010480023CE
:100DD000020003E0013308321C2B08D01668B14230
:100DE000F8D1DB00C318586802F020FD29682160A3
:100DF000D7E7034A1360CBE70C4E00201C4E0020BF
:100E0000204E0020144E0020104E0020184E0020CE
:100E10003016002010B5114C0A212368581C07F029
:100E2000E3FD2160012904D0092901D1FFF778FFF2
:100E300010BDD022022312069161094C9361023346
:100E40009361043393612368581C032303400548CE
:100E500023609B001B5899405161E9E7244E002014
:100E60000C4E0020E0C30210004870477857002065
:100E700070B50C00020F240100011500090F0009D4
:100E80002409A04200D80D000B2A00D118E10A2A3B
:100E900000D1D3E00B2901D1B34A141B0F2324182E
:100EA00023400A3B052B00D8C0E023061B0F0A3B5A
:100EB000052B00D8B2E023051B0F0A3B052B00D8F9
:100EC000A1E023041B0F0A3B052B00D890E023036D
:100ED0001B0F0A3B052B00D87FE023021B0F0A3BA8
:100EE000052B00D86EE023011B0F0A3B052B60D9B0
:100EF000230F0A3B052B4FD8C023DB059C466444D7
:100F00009A4B1C400F23601C03400A3B052B00D862
:100F1000E01D03061B0F0A3B052B00D860300305BC
:100F20001B0F0A3B052B03D8C023DB009C46604403
:100F300003041B0F0A3B052B03D8C023DB019C468F
:100F4000604403031B0F0A3B052B03D8C023DB02BD
:100F50009C46604403021B0F0A3B052B03D8C023A9
:100F6000DB039C46604403011B0F0A3B052B03D89F
:100F7000C023DB049C466044030F0A3B052B03D8C7
:100F8000C023DB059C4660440B2D00D1A4E000018A
:100F900000092D07284370BD230EB1D1744E2200E5
:100FA0003000744907F074FC3100734808F0AAFC63
:100FB000A6E7C023DB049C466444230F0A3B052BB1
:100FC000EAD899E7C023DB039C46644423011B0F46
:100FD0000A3B052B00D98BE7EBE7C023DB029C46DD
:100FE000644423021B0F0A3B052B00D97BE7E9E78A
:100FF000C023DB019C46644423031B0F0A3B052BE3
:1010000000D96AE7E9E7C023DB009C466444230477
:101010001B0F0A3B052B00D959E7E9E7603423058C
:101020001B0F0A3B052B00D94BE7ECE706342306E0
:101030001B0F0A3B052B00D93DE7EFE70A2900D03B
:1010400028E70F23041923400A3B052B00D8063458
:1010500023061B0F0A3B052B00D8603423051B0F0A
:101060000A3B052B03D8C023DB009C4664442304C1
:101070001B0F0A3B052B03D8C023DB019C466444AD
:1010800023031B0F0A3B052B03D8C023DB029C461E
:10109000644423021B0F0A3B052B03D8C023DB0348
:1010A0009C46644423011B0F0A3B052B03D8C02335
:1010B000DB049C46644424012009120710436AE7BC
:1010C0000B29BED00F23284A101A241823400A3BAC
:1010D000052B00D9E9E6A9E70F23284A121A134085
:1010E0000A3B052B3ED8264B181A03061B0F0A3B5A
:1010F000052B00D8603003051B0F0A3B052B03D8D6
:10110000C023DB009C46604403041B0F0A3B052BF5
:1011100003D8C023DB019C46604403031B0F0A3B3A
:10112000052B03D8C023DB029C46604403021B0F3F
:101130000A3B052B03D8C023DB039C466044030114
:101140001B0F0A3B052B03D8C023DB049C466044DD
:10115000030F0A3B052B00D919E7C023DB059C468A
:10116000604414E71000C0E799999900FFFFFFF071
:10117000B0560020A0BA021078BA02109A999900CD
:10118000A09999009C23F0B5DE4657464E46454649
:1011900099461A4BE0B59846194B1A4C9B461A4B88
:1011A00083B09A46A14409E052463100009240467D
:1011B0003A000C3408F0A6FB4C4515D02668676849
:1011C00030003900A568FFF753FE01950300854202
:1011D000EAD15B463A00009331002B0040460C34C4
:1011E00008F090FB4C45E9D10A2008F0DFF903B084
:1011F0003CBC90469946A246AB46F0BDB0BA021040
:10120000DCBA0210A8180020D4BA0210D6239B0022
:10121000C35810B51B0F0400062B29D9073B022B1E
:101220001BD8D8239B00C358002B2BD1D7239B005E
:10123000E15C0F234A1C13400A3B052B00D8CA1D52
:1012400013061B0F0A3B052B00D86032D7239B00E7
:10125000E25400220433E25010BD0F4C1022200053
:101260000E4908F097F821000D4808F04BFBF3E712
:10127000D8239B00C258002A01D0043BD8E70122A2
:10128000C250E9E723220749074808F083F80249DA
:10129000064808F037FBC9E7B056002028BB02100B
:1012A00078BA021004BB02101850002088BA02104D
:1012B000F8B5CE464746F32280B59200835C040021
:1012C000202B4FD0412B2DD142238354DE239B0072
:1012D000C358062B2EDC012B00DD1AE1002B00D1B8
:1012E0008DE0012B1ED1DF239B00C358062B00D1BC
:1012F0008EE100DDD0E0002B00D162E1032B11D1A3
:10130000E6239B00C5580433C358072D00D843E299
:101310002A00083A012A05D8C8339B001B58C83553
:10132000AD002B50F02301229B00E2500CBC9046F4
:101330009946F8BD073B022BF4D8EB239B00C35C16
:101340009B001A58E04BC254E04BC35C9B001A58F8
:10135000EC239B00C254DE4BC35C9B001A58DD4B50
:10136000C254DFE741238354D923D7229B00920044
:10137000C318821803CA03C3D9239B00E35C9B00F4
:101380001859D6239B00E0500833E358002B22D194
:10139000DE230F229B00070F060EE7501640043392
:1013A000050DE65015400433E550030C1340E122CF
:1013B0009200A350AA009446521952009146EA2185
:1013C00099444A4689006250092F00D9FBE1C24A7C
:1013D000B90051588F460F22DE23070B17409B00A0
:1013E000060AE750164004330509E6501540043359
:1013F000E5501300E12203409200A350DAE7DF2317
:101400009B00C358072B00D98CE7B44A9B00D358E4
:101410009F46EB22AD49030C9200A354020A62548A
:10142000AB4A4225A054F320DBB2800025549B0038
:101430001859A54BE054635C9B001959EC239B00A1
:10144000E154A35C9B001A59A24BE2546AE7E622DE
:1014500001219200A5500432A3502432A1500C3235
:101460004131A154062E00D1CCE136DC002E00D152
:10147000BDE0032E00D055E7072D00D897E12A00E4
:10148000083A012A00D94DE7C8339B001A592B00AE
:10149000C8339B001A5145E7072B00D042E7E623EB
:1014A0009B00C058783B81006118CD587C33E258CE
:1014B000C8329200125992001300D540203BDB172E
:1014C0002B40072800D9EDE1A0221B0112061B09C1
:1014D0001343C82292008B5024E7072E00D021E747
:1014E0006246C821C833A0189A001259890046588C
:1014F0009200D64013003200203BDB171A40072D24
:1015000000D992E11301A0221B0912061343435094
:1015100008E7022B00D005E7DF239B00C358042B0C
:1015200000D0FFE612E04B469A00E92312599B00D7
:10153000E250F02301229B00E2500C334132E2548E
:10154000022F00D0EEE6042E00D0EBE62000FFF7DD
:101550005DFED723DB229B00E15C9200A154383270
:10156000A258E25400220433E250DBE6CD239B0074
:10157000E358C8339B001B594B441A00E9239B00D6
:10158000E250D6E7CC23F2E7CB23F0E7E9234A4643
:101590009B00E250CDE7032E00DD19E1E622920028
:1015A000A5500832A350F02301229B00E2500C33D7
:1015B0004132E254072E00D9B4E6494BB6009B599C
:1015C0009F46E7239B00C258043BC358072B00D912
:1015D00046E1072A00D8A0E1424D1D2228004249D9
:1015E00007F0D8FE2900414808F08CF99AE6072D4B
:1015F00000D920E1072BEFD86246C825C833A618CA
:101600009B00AD0019597059FFF732FC705189E603
:10161000E6239B00C15804338A008218C820E3588F
:101620008000C8339B001B5915589B009D4007291B
:1016300000D9E1E0A0212B011B0909060B4313503F
:1016400070E6E623C8259B00E0580833E258810085
:1016500092006118AD0013004E59203BD640DB17B5
:101660003340072800D911E1A0221B011B091206F3
:1016700013434B5156E6E623C8209B00E1588000F7
:101680008A00A2180833CEE7194D280008F03AF96D
:10169000E1239B00E358022B00D117E100DDA3E01A
:1016A000002B00D106E1012B00D03BE6E6239B0096
:1016B000E358C8339B001B59002B00D106E1DC2303
:1016C00001229B00E2502DE6AF030000AD030000B5
:1016D000AE030000B10300005CBB021084BB02102B
:1016E000A4BB0210B0560020E4BA021078BA02106F
:1016F00038BB0210E623E8229B00E3589200A25870
:10170000072B00D9C8E0A0211201C833120909062D
:101710009B000A431A5105E6E6239B00E55808336F
:10172000E058072D00D8E4E02B00083B012B00D93E
:10173000F8E5C823AD0065199B00EA58801AE85007
:10174000F0E5E8239B00E258083BE358072B00D85C
:10175000C1E019000839012900D9E3E5C8219B003F
:10176000E31889005858844662445A50DAE5E82361
:101770009B00E258083BE358072B00D8C4E019004F
:101780000839012900D9CDE5C8219B00E31889005B
:101790005858821A5A50C5E5A021C8339B001858E2
:1017A0000906FFF765FBC835AD006051BAE5A02119
:1017B000C8339B0018590906FFF75AFB2B00C833A2
:1017C0009B00E050AEE5F32342229B00E254A9E5E2
:1017D000B21F012A00D9E6E6E6229200A5500432A3
:1017E000A3500432A350DEE6032B00D09AE500217B
:1017F000504808F087F862E70839012900D991E5D7
:1018000015508FE56246C821C8339B001B59A018AC
:10181000890042589B009A40072D06D8A023120148
:1018200012091B061A4342507CE5083D012D00D9E0
:1018300078E5425076E5083D012D00D9CCE61A0046
:10184000083A012A00D9C7E66246A118C8229200C8
:101850008858C83384469B001B5963448B5061E50C
:1018600019000839012900D9B6E611000839012903
:1018700000D9B1E6C8219B00C832C3188900920084
:1018800012585858844662445A504BE5083801288B
:1018900000D947E54B5145E519000839012900D821
:1018A000F6E53FE50838012800D93BE5C82292005B
:1018B0008B5037E5280008F025F8E6239B00E35815
:1018C000C8339B001B59002B00D1F8E6DC23002213
:1018D0009B00E25026E5A02112019B001209090697
:1018E000E5181143C826B600A859FFF7C1FAA85158
:1018F00018E5B02103011B0909061943FFF7B8FADF
:10190000C835AD0060510DE59B00E518A02351429C
:10191000090109091B061943E4E7C8269B00C832E0
:10192000C5189200B6001158A859FFF7A1FAA8519E
:10193000F8E4C04644BB0210DE239B00C35870B5D8
:101940000400062B23DC012B61DC002B56D0012B7D
:101950001CD1DF239B00C358062B00D183E02EDC73
:10196000002B6AD0032B11D1E6239B00C55804330A
:10197000C358072D00D821E12A00083A012A05D8CA
:10198000C8339B001B58C835AD002B5070BD073BBA
:10199000022BFBD8EB239B00C35C9B001A58C94B5E
:1019A000C254C94BC35C9B001A58EC239B00C25421
:1019B000C64BC35C9B001A58C54BC254E6E7072BC5
:1019C000E4D1E6239B00C5580433A9004118C82080
:1019D000E3588000C8339B001A590C58920013003A
:1019E000D440203BDB172340072D00D919E1A0226A
:1019F0001B011B09120613430B50C7E7DF239B0093
:101A0000C358072BC2D8B34A9B00D3589F46022B1A
:101A1000BCD1DF239B00C358042BB7D1FFF7F6FBE3
:101A2000D723DB229B00E15C9200A1543832A258FC
:101A3000E25400220433E250A8E7E7239B00C25897
:101A4000043BC358072B00D9C9E0072A00D82CE172
:101A5000A14C1D222000A14907F09CFC2100A048B8
:101A600007F050FF92E7E6239B00C15804338A0039
:101A70008218C820E3588000C8339B001B591458B3
:101A80009B009C402300072900D9A2E0A02123014C
:101A90001B0909060B43135078E7E623C8259B0072
:101AA000C0580833E258810092006118AD0013005D
:101AB0004C59203BD440DB172340072800D9BFE016
:101AC000A0221B011B09120613434B515EE7E623BC
:101AD0009B00C15808338A008218C8208000CDE7D7
:101AE000804D280007F00EFFE1239B00E358022BF6
:101AF00010D000DD89E0002B00D1C9E0012B00D01F
:101B000044E7E6239B00E358C8339B001B59002B96
:101B100000D081E0DC2300229B00E25036E7E62380
:101B2000E8229B00C35892008258072B7FD8A0213F
:101B30001201C833120909069B000A431A5025E70F
:101B4000E6239B00C5580833C058072D7ED92B00CB
:101B5000083B012B00D919E7C823AD0064199B008D
:101B6000E258801AE05011E7E8239B00C258083B76
:101B7000C358072B00D883E019000839012900D980
:101B800004E79B00C418C8239B00E1588C466244BC
:101B9000E250FBE6E8239B00C258083BC358072BE2
:101BA0005FD919000839012900D9EFE69B00C41854
:101BB000C8239B00E1588A1AE250E7E6A021C83307
:101BC0009B0018580906FFF753F9C835AD0060515E
:101BD000DCE60839012900D9D8E61350D6E6190009
:101BE0000839012900D933E711000839012900D942
:101BF0002EE7C8219B00C832C318890092001258F2
:101C00005858844662445A50C0E6032B00D0BDE6C3
:101C10000021354807F076FEDC2301229B00E250CC
:101C2000B4E6083D012D00D9B0E60B50AEE6190030
:101C30000839012900D9A9E6C8339B001A50A5E646
:101C40000838012800D9A1E64B519FE6B0210301D5
:101C50001B0909061943FFF70BF9C835AD006051A0
:101C600094E69B00C418A0235142090109091B06F0
:101C70001943C825AD006059FFF7FAF8605185E6B1
:101C8000A02112019B0012090906C4181143F0E7B4
:101C9000280007F037FEE6239B00E358C8339B007B
:101CA0001B59002B00D035E7B6E7C8249B00C8328B
:101CB000C5189200A40011582859FFF7D9F82851E7
:101CC00064E6C046AF030000AD030000AE030000B1
:101CD000B1030000C4BB0210B0560020E4BA0210E9
:101CE00078BA021038BB021044BB0210D8239B0004
:101CF000C358F0B5002B27D0D6230F219B00C45822
:101D00002033220B0A40260AC2500E400433250914
:101D1000C6500D400433C55021400433C150EA275A
:101D2000AB005B195B005B18BF00C351092A0AD8DE
:101D3000284F9200BA589746032E3FDCE6239B00BB
:101D4000C5500833C150F0BDD6230F219B00C458A5
:101D50002033220F260EC2500E400433250DC650EC
:101D60000D400433C550230C1940E1239B00C150A2
:101D7000D5E7CB2292008258C83292001258D3186D
:101D8000E92292008350DEE7EB23220C9B00C25431
:101D9000114B220AC254114BC454D4E7E6239B00D2
:101DA000C5500433C150CEE79B001A58E9239B006D
:101DB000C250C8E7CC22DDE7CD22DBE7063E012E8C
:101DC000C1D8E6239B00C5500433C1500433C15031
:101DD000B9E7C046E4BB0210AD030000AE0300004B
:101DE000F0B5C646F32600B5B600855D0400422D69
:101DF0000CD019D8202D44D0412D0ED1422383552B
:101E0000FFF79AFDF02301229B00E2504323A355E4
:101E1000DE239B00E358012B2FD9F02301229B00E6
:101E2000E25004BC9046F0BD432DF6D14123D722A9
:101E30008355D92392009B00C318821803CA03C399
:101E4000D9239B00E35C20009B001A59D6239B00FA
:101E5000E250FFF74BFF0123F0279846BF00E35104
:101E60004133A3552000FFF767FD4346E351DE23CE
:101E7000A5559B00E358012BCFD82000FFF7C6F9EA
:101E8000CBE74123D7228355D92392009B00C31867
:101E9000821803CA03C3D9239B00E35C20009B0084
:101EA0001A59D6239B00E250F025FFF71FFF0127A8
:101EB0004223AD0067512000A355FFF73DFD4323AA
:101EC0006751A355DE239B00E358012BA5D8D4E727
:101ED000ED23F0B5C6469B00C258040000B5002AA9
:101EE00007D0EE2292008658002E05D00021C15066
:101EF000815004BC9046F0BDF327BF00C55D422D64
:101F00000BD016D8202D3FD0412D0DD14223C355E3
:101F1000FFF712FDF0239B00E6504323E355DE2339
:101F20009B00E358012B2BD9F02300229B00E250A9
:101F3000DFE7432DF8D14123D722C355D92392009F
:101F40009B00C318821803CA03C3D9239B00E35C18
:101F500020009B001A59D6239B00E250FFF7C6FED3
:101F6000F0239B00E650984642232000E355FFF7FC
:101F7000E3FC4346E650E555483BE358012BD3D8F4
:101F80002000FFF743F9CFE74123D722C355D923D8
:101F900092009B00C318821803CA03C3D9239B0075
:101FA000E35C20009B001A59D6239B00E250F025E9
:101FB000FFF79CFE4223AD0066512000E355FFF77A
:101FC000BBFC6651A9E7C04670B5074D074C06E05B
:101FD00001F04AFC29000200200001F017FC01F08A
:101FE0005BFC0028F4D070BDD8520020D012002035
:101FF000D723F0B5414C9B00C646E25C0433E3585E
:102000002126591E8B4100B53D4F5B423D4933406F
:1020100096B020333800884606F03AFC3A4D3A0034
:102020003A49280006F034FCD9239B00E25C0433D3
:10203000E3583800591E8B415B4233402033414600
:1020400006F026FC3A00324902A806F021FC02A95B
:10205000280024F08BFCD6239B00E2582D4902A8CF
:1020600006F016FC02A9280024F080FCEE21ED23E6
:10207000DC22890061589B009200E358A25802A814
:102080000091254906F004FC02A9280024F06EFC0A
:10209000D523224E224F9B00E25C3900300006F02F
:1020A000F7FB32001F4902A806F0F2FB02A9280044
:1020B00024F05CFC1C4B3900E25C300006F0E8FBCD
:1020C00032001A4902A806F0E3FB02A9280024F016
:1020D0004DFC174B3900E25C300006F0D9FB3200B2
:1020E000144902A806F0D4FB280002A924F03EFC03
:1020F000280016B004BC9046F0BDC046D85200205F
:10210000384F00200CBC0210E050002014BC02101C
:1021100028BC02103CBC021054BC0210284F002006
:102120007CBC021084BC02105503000098BC021055
:1021300056030000ACBC0210F8B5CE4647464848EE
:1021400080B507F0DFFB474807F0DCFBFFF750FFE7
:102150000100454807F0D6FB444B00249946444B08
:10216000444D9846444F454E15E00B3A51424A4182
:10217000112152428A433F321B0141461B09300064
:1021800006F086FB210032003800013407F0BAFB6C
:102190000435082C10D02B685A1C04D01A0F0A2AB8
:1021A000E3D12022E8E721004A463800013407F055
:1021B000A9FB0435082CEED1D023314C9B00E31849
:1021C0000CCB511C43D02F4D2F49280006F060FB4B
:1021D0002A000821380007F095FBD2239B00E31862
:1021E0000CCB511C37D0274D2749280006F050FB57
:1021F0002A000921380007F085FB0A2007F0D6F9EC
:10220000224807F07FFB224807F07CFBE6239B0077
:10221000E158204807F076FBE7239B00E1581E4871
:1022200007F070FBE8239B00E1581C4807F06AFBAD
:10223000EA239B00E258043BE158194807F062FB8F
:102240000A2007F0B3F90CBC90469946F8BD591C1A
:10225000B9D1064ABDE7591CC5D1044AC9E7C046F1
:10226000CCBC0210D4BC0210DCBC0210C0BC0210FA
:10227000E0BC0210F8550020E8BC0210E84E002037
:10228000D8520020F84E0020F8BC021000BD021009
:102290000CBD021018BD02102CBD021040BD021072
:1022A00054BD021030B5B3B0050002F0D7F918489C
:1022B00002F004FC041E1FD02900164806F0E8FABC
:1022C0002800154923F05EF8041E18D0134D03E0D2
:1022D0006946280007F016FB2200C721684623F054
:1022E000E3F80028F4D1200023F0C0F8012402F024
:1022F000D3F9200033B030BD02F0CEF9F9E7290060
:10230000074807F0FFFA002402F0C6F9F1E7C046DB
:1023100080B8021078BD0210240403101CC0021003
:1023200088BD0210F0B5B3B0050002F097F921485E
:1023300002F0C4FB041E32D029001F4806F0A8FAA0
:1023400028001E4923F01EF8061E2BD01C4F320019
:10235000C721684623F0A8F8002817D06B461B78E1
:102360002A2BF4D1174C250050356A46210038003D
:10237000636898470028EAD10834AC42F5D13200AE
:10238000C721684623F090F80028E7D1300023F0F9
:102390006DF8012402F080F9200033B0F0BD02F0A6
:1023A0007BF9F9E72900084807F0ACFA002402F0AD
:1023B00073F9F1E780B8021078BD0210240403100D
:1023C000D8520020E015002088BD021010B5010091
:1023D00004000748FFF7A6FFF22300229B00E2500B
:1023E000083B9C460122002364442260636010BDC8
:1023F0001859002010B502490248FFF793FF10BD9D
:10240000D85200209CBD0210F0B5C64600B55A4C0B
:102410000500A54401A824F07FFB01A9574807F057
:1024200071FA02F01BF9564802F048FB041E00D175
:1024300093E00A2201A906A81FF0ECF8002872D147
:10244000504906A821F08EFDD7239B00EA5C4E4937
:1024500006A821F087FDD8239B00EA584B4906A81F
:1024600021F080FDD4239B00EA58494906A821F0B9
:1024700079FDD5239B00EA5C464906A821F072FD50
:10248000454B4649EA5C06A821F06CFD444B4549A2
:10249000EA5C06A821F066FDD6239B00EA58424973
:1024A00006A821F05FFDDB239B00EA5C3F4906A8FC
:1024B00021F058FDC82300249B003D4FEE18220058
:1024C000390008CE06A8013421F04CFD082CF6D1C5
:1024D000C823384C9B0021000822EB5806A821F0A5
:1024E00041FDC9239B002100EB58092206A821F0D9
:1024F00039FD314906A821F035FD304B002407266F
:1025000098462F4F08E0A3003900EA5806A8013486
:1025100021F028FDC82C13D02642F4D1414606A84C
:1025200021F020FDEFE7274807F0ECF9002402F046
:10253000B3F820009E239B009D4404BC9046F0BD50
:10254000214906A821F00EFD06A820F0CBFC041EB0
:1025500006D102F0A1F80124EBE702F09DF8E8E7CC
:1025600022F004FF22000100184807F0CBF90024F4
:1025700002F092F8DDE7C04688FDFFFFA8BD02101B
:1025800080B80210C0BD0210ECBD021000BE0210E7
:1025900014BE021028BE02105503000044BE0210F3
:1025A0005603000060BE02107CBE021098BE0210EE
:1025B000B0BE0210BCBE0210CCBE0210D8BE0210CB
:1025C000DCBE0210B4BD02101CDB0210E4BE02101F
:1025D00030B504000C4D85B02A000C4B0C490D4859
:1025E00002F0E0FA0C4B29001A686846013206F046
:1025F0004FF969462000FFF707FF6946074807F0D3
:1026000081F905B030BDC04608BF0210FCBE021003
:1026100018BF021080B80210384E002024BF0210EC
:1026200010B5094802F042F8002808D0074C0848C5
:102630002100FFF7E9FE2000FFF734FE10BD054939
:10264000054807F05FF9F1E780B802109CBD021061
:10265000D8520020505800203CBF0210FA2030B55C
:10266000800085B007F062F9431C32D01C4C002377
:10267000220003E001330C32222B28D01178814252
:10268000F8D1184A10605A00D3189B00E418A368C8
:1026900098471549154807F035F9154B154C196839
:1026A000154B24681B68651EAC415A1E93412120BE
:1026B000124A5B426442126803402040203002907C
:1026C000019200920E480A00203307F01BF905B072
:1026D00030BD012001F0AAF807F094F8F7E7C046F2
:1026E00010170020284E0020944F002048BF0210F1
:1026F000704E00206C430020704300204C420020AC
:1027000060BF0210F0B5DE4657464E464546E0B57E
:1027100004009FB00A2006F049FFD7239B00E25C2B
:102720009B4604339A46E358D426591E8B41E84908
:1027300021258946E749B60088465B42A7592B40C8
:1027400020334946404606F0A3F839004246E248A5
:1027500007F0D8F80A2006F029FFE04FE0491322DD
:10276000380006F017FE5B46E25C5346E3584046ED
:10277000591E8B415B422B402033494606F088F8B6
:10278000A3595A1C00D149E21A0F0A2A00D1E3E1E9
:102790000B3A51424A41112152428A433F32D14DB4
:1027A0001B011B092800D04906F072F82B0005AD6B
:1027B0004246CE49280006F06BF82900380024F084
:1027C000D5F8CB4E300001F077FED7239B00E25CBA
:1027D0000433E3584046591E8B41594221230B4094
:1027E0002033494606F054F8D4239B00E3585A1C82
:1027F00000D115E21A0F0A2A00D1ABE10B3A51427F
:102800004A41112152428A433F32B6491B018A464E
:102810001B095046B44906F03BF853464246B549B9
:10282000280006F035F800220021300001F07AFD82
:102830002900300001F0CCFDDD239B00E358002B84
:1028400000D07FE1D9239B00E25C0433E35840468B
:10285000591E8B41594221230B402033494606F033
:1028600017F8D6239B00E258A34B9A46A34B514638
:1028700018009B4606F00CF8F3239B00E35C4246ED
:10288000009328005B469E4906F002F8DD239B007A
:10289000E358002B00D014E1D9239B00E25C043301
:1028A000E3584046591E8B41594221230B402033A7
:1028B000494605F0EDFFD6239B00E2588F4B514669
:1028C0001800994605F0E4FFF3239B00E35C4246C1
:1028D000009328004B468B4905F0DAFF08220021BF
:1028E000300001F01FFD2900300001F071FD2900CA
:1028F000380024F03BF8E6239B00E3589946013367
:1029000000D1D8E04B46072B00D8B2E07E4B98466A
:102910007E4B41461800994624F0FEF84A467C4911
:10292000280005F0B5FF2900380024F01FF8E62341
:102930009B00E3589B46013309D05B46072B00D828
:102940000CE1714B98464146484624F0E5F849466B
:10295000280024F0E1F810220021300001F0E2FC10
:102960002900300001F034FDE7239B00E35899462D
:10297000013300D1A2E04B46072B00D82EE1624B79
:102980009846644B41461800994624F0C5F84A46DB
:102990006149280005F07CFF2900380023F0E6FF9C
:1029A000E7239B00E3589B46013309D05B46072B86
:1029B00000D8F3E0544B98464146484624F0ACF822
:1029C0004946280024F0A8F818223000002101F020
:1029D000A9FC2900300001F0FBFC504B29001A68CB
:1029E000380005921B792B7123F0C0FF4C484D4BEA
:1029F0008346E25C4C48930019598046039159463E
:102A000005F046FF494851468146039A05F040FFCC
:102A10004B4642462800464905F03AFF2900380057
:102A200023F0A4FF3F4B5946E25C404693001C59FB
:102A300005F02EFF22005146484605F029FF4B467F
:102A4000424628003B4905F023FF202230000021A8
:102A500001F068FC2900300001F0BAFC390036486A
:102A600006F050FF1FB03CBC90469946A246AB46CC
:102A7000F0BDC8339B001B595A1C00D1DCE01A0F73
:102A80000A2A00D1D2E00B3A51424A411121524266
:102A90008A433F3213491B0188461B0940461249AD
:102AA00005F0F6FE4346184A244990464A464046F9
:102AB00005F0EEFE2CE7154B99462FE7154B99468E
:102AC00065E74B2228001E4905F0E2FE06E7C046F6
:102AD0000CBC0210384F0020B8BF021078570020FD
:102AE000DCBF0210E84E0020E0BC0210F0BF021074
:102AF00054300020F4BF0210A8BE0210A84E0020DF
:102B000008C002100CC00210084F0020B84E002070
:102B100018C00210C84E002020C0021028C00210A9
:102B20007CBC021056030000284F0020D84E002025
:102B300030C0021034C0021040C00210ACBF0210FE
:102B400004C002104B2228003E4905F0A1FE3E4B76
:102B50009A469BE6202258E6202220E6C8339B00B6
:102B60001B595A1C6AD01A0F0A2A5DD00B3A5142DF
:102B70004A41112152428A433F3234491B0188465F
:102B80001B094046324905F083FE4346314A32492B
:102B900090465A46404605F07BFED4E6C8339B007B
:102BA0001B595A1C4CD01A0F0A2A3BD00B3A5142DF
:102BB0004A41112152428A433F3224491B0188462F
:102BC0001B094046224905F063FE4346214A22493B
:102BD00090465A46404605F05BFEEDE6C8339B0042
:102BE0001B595A1C26D01A0F0A2A21D00B3A5142DF
:102BF0004A41112152428A433F3214491B018846FF
:102C00001B094046124905F043FE4346114A12494A
:102C100090464A46404605F03BFEB2E60F4BC6E5FD
:102C20000E4BFBE52022C8E72022A6E7202231E751
:102C30002022E2E7094BE9E7084B34E7074BA5E719
:102C4000064BC3E700C00210A8BE0210E84E0020E9
:102C5000E0BC0210084F0020ACBF0210C0BC021044
:102C6000F0B5C646F02300B52F4C9B00E25886B065
:102C7000002A20D00022E2500433E358002B22D156
:102C8000F2239B00E358002B19D0284C200001F0C0
:102C900013FC08220021200001F044FB20002449FD
:102CA00001F096FB00212000102201F03BFB2000E8
:102CB000204901F08DFB06B004BC9046F0BD200019
:102CC000FFF720FDF7E7194F0026380001F0F4FB6D
:102CD000F4239B00E1580622174801F0C9FD174B69
:102CE00001249846134D0CE04146202201A805F02E
:102CF000CFFD380001A901F06BFB082CDBD00134BB
:102D0000143532000021380001F00CFB08362B008E
:102D1000012CE9D141463E2201A805F0B9FD380059
:102D200001A901F055FBEAE7D852002054300020F9
:102D300050C002101859002080B8021048C002107C
:102D400010B584B0464803AB02AA01A902F04EF8C0
:102D5000002803D14249434804F066FA039A0299D5
:102D6000019802F007F806F0D9FDFA20C00003F040
:102D7000C5F90A2006F01AFC3B4C200006F0C2FD03
:102D80003A4806F0BFFD200006F0BCFD0A2006F020
:102D90000DFCFDF763FF364801F0BCFA354C20000E
:102DA00001F008FC344806F0ADFD22F0D7F901F03F
:102DB00055FC01F071FC15220021200001F0B2FA4F
:102DC0002E4B1B68002B3FD120002D4901F000FB4A
:102DD0002C4806F097FD01F041FC2B4801F06EFEF7
:102DE000002839D1294806F08DFD2949294806F0E7
:102DF00089FD01F051FC284803F080F9200001F022
:102E00005BFB00222000142101F08CFA20002349F2
:102E100001F0DEFA082220001E2101F083FA2000D2
:102E20001F4901F0D5FA102220001E2101F07AFA84
:102E30001C49200001F0CCFA1B4806F063FD00F0AD
:102E4000C3FB002004B010BD2000184901F0C0FAF7
:102E5000174806F057FDBEE7164806F053FDC8E7D1
:102E6000580F020020C1021060C00210B0C0021052
:102E7000503000205430002000C10210504F00207C
:102E80006CC102107CC1021080B802108CC102100B
:102E900050580020DCBC0210B80B0000C4C1021066
:102EA000D4C10210DCC10210E8C1021054C10210EA
:102EB00060C10210ACC1021010B50C00044806F04D
:102EC000C1FB14F0E3FD0122E3681A7110BDC04696
:102ED000F0C3021070B505000C00002A24D10029AF
:102EE00022D0174806F0AEFB1649012006F014FA6E
:102EF000011E1FD0144B08350460C55020000BF094
:102F0000A7FC200011490BF0B5FC200010490BF084
:102F1000A3FC0A2220000F490BF0D0FC20000E4930
:102F20000BF0B6FC002070BD0C4806F08BFB0620B1
:102F30004042F8E70A4806F085FB01204042F2E7EC
:102F400014C4021028280000242800006930001052
:102F500005310010892F0010FD2F001000C4021051
:102F600028C4021010B50400002006F0DFFC202366
:102F70009843442804D1E068024903685B6A984793
:102F800010BDC0464030002070B5060019480C0046
:102F9000002506F057FB002C1ED0002120000BF06E
:102FA00057FC0022002120000BF088FC00212000AB
:102FB0000BF060FC002120000BF04EFC00212000F3
:102FC0000BF066FC20000CF069F9051E06D1002EFE
:102FD00002D0300006F0C0F9280070BD0D250100B8
:102FE000054806F08FFC20000BF0BEFD6D42002E60
:102FF000EFD1F1E74CC4021060C402100B0070B5B1
:1030000004000D3300D170BD154806F07BFC256827
:10301000002DF8D0002128000BF01AFC002200211E
:1030200028000BF04BFC002128000BF023FC0021B2
:1030300028000BF011FC002128000BF029FC2800CF
:103040000CF02CF9011E03D1200006F085F9DAE717
:10305000044806F057FC28000BF086FDF4E7C04654
:1030600080C4021060C4021070B505000E00204834
:103070001100140006F046FC6B681E4A9C461E4B6D
:10308000AA58EB5864449B186C609C4202DA0024F6
:10309000200070BD194806F0D5FA002EF7D00021A7
:1030A00030000BF0D5FB0022002130000BF006FCB5
:1030B000002130000BF0DEFB002130000BF0CCFBD8
:1030C000002130000BF0E4FB30000CF0E7F8041EA8
:1030D00003D1280006F040F9DAE70D240100084882
:1030E00006F010FC30000BF03FFD6442F1E7C046F3
:1030F00098C40210202800001C280000ACC4021054
:1031000060C40210F0B54E464546DE465746E0B56F
:10311000140005000E001A0089B0002C00D1D2E086
:10312000218900291AD02F00D04806F0EBFB238913
:103130000C371A1CFF2B00D9FF220023390092B252
:1031400020000AF019FD3900C94806F0DBFB2B7B93
:10315000472B0FD0300021890BF080F820000AF0B7
:10316000E7FB0027380009B03CBC90469946A246D0
:10317000AB46F0BD7B78452BECD1BB78542BE9D125
:10318000102188460023A84440462F31039323F0A2
:1031900015FC8246002810D00378002B00D1C0E037
:1031A0002021404623F00AFC514600224B1C0A70A5
:1031B000002800D1E1E19A46027086235B009B461D
:1031C000002316224046AB49AB60AB4423F0E0FC41
:1031D000002800D1B3E108224046A74923F0D8FCDB
:1031E000002800D126E108224046A44923F0D0FC63
:1031F000002800D1ADE0A24B039A9946EA5041461F
:103200005246A04806F07EFB4B469F48E95806F020
:1032100079FB4B46E9589D4B994200D9E6E00029DD
:1032200000D181E0AB68012B00D15BE1022B00D122
:1032300081E1002B00D173E1954BE8580023390060
:1032400082B26B6030000EF06BF8071E00D004E114
:103250008B4BEA58002A00D17CE700235946300006
:1032600092B20EF05DF8071E00D173E701008948A5
:1032700006F048FB002E00D174E7002130000BF06F
:10328000E7FA0022002130000BF018FB002130008B
:103290000BF0F0FA002130000BF0DEFA00213000D4
:1032A0000BF0F6FA30000BF0F9FF011E07D07A4858
:1032B00006F028FB0D2730000BF056FC7F4228005B
:1032C00006F04AF84EE7754806F0BCF90027002ED4
:1032D00000D147E7002130000BF0BAFA00220021AC
:1032E00030000BF0EBFA002130000BF0C3FA0021A4
:1032F00030000BF0B1FA002130000BF0C9FA3000B9
:103300000BF0CCFF071E02D1002DD8D12AE70D27E4
:103310000100614806F0F6FA30000BF025FC7F4210
:10332000F2E700239A4648E75D4BE85814F05AFA52
:10333000802103005B4A4900380005F0BDFA544B78
:1033400039009846E850584806F0DCFA4346E858F9
:1033500074E702AA94460F23634499461A00002199
:10336000524818F007FB4B4652461B780693002A3A
:1033700010D050464E4906AA23F058FA012800D131
:10338000FDE04C4907AA504623F050FA079800F098
:103390004DFA069B4848002B00D1DEE006F0B2FA59
:1033A00014239946FEF710FEFFF75AFC01235B42F7
:1033B0009C46E1444B46002BF4D1F0233F4A9B004E
:1033C000D25814213E4806F09DFAFDF74DFD3D4AC6
:1033D00003003D49584605F06FFA584623F0A4FB18
:1033E00001000390394806F08DFA04E7384806F0EA
:1033F00089FA002E00D190E0002130000BF028FA6D
:103400000022002130000BF059FA002130000BF0AF
:1034100031FA002130000BF01FFA002130000BF0D0
:1034200037FA30000BF03AFF011E00D03FE70F27BC
:103430007F4244E702238E22AB6026495200584661
:1034400005F0A8FF244806F05DFA5946234806F027
:1034500059FA1C23FF330393CDE60100204806F000
:1034600051FA002E00D008E77CE6C046CCC402101A
:10347000E8C40210F8C4021038C5021090C6021049
:103480002028000098D90210A8D902100F270000A8
:103490001C280000C0DB021060C40210B8C4021077
:1034A0002428000058DB02108CDB02109820012039
:1034B0009CC60210A4C60210ACC60210D85200204E
:1034C000B8C60210D4C602101027000084D902101A
:1034D000B4D9021044C5021060C6021080C60210A2
:1034E000A0DB0210009180212C4B2D4A49003800AE
:1034F00005F0E2F92B4B39009846E8502A4806F0CF
:1035000001FA4346E858FF2800D897E6010027480B
:1035100006F0F8F9002E00D06EE70F277F4221E673
:10352000C823234A009180213800490005F0C4F9DE
:103530001C4BE85082E6C8231E4A0091F3E71E495F
:103540001E4806F0DFF901235846AB601A4A1C49B1
:1035500005F020FF184B03934DE606F0D3F9142332
:103560009946FEF731FDFFF77BFB01235B429C464A
:10357000E1444B46002BF4D11FE79A461DE6069B1B
:10358000002B05D0012200210E4818F0A3F9F8E61F
:10359000002200210B4818F09DF9F2E680DA0210B3
:1035A00090DA02101C28000020DB02103CDB021025
:1035B000D0D9021030DA0210FC16000010C502103B
:1035C0004419002098200120F0B597B006F0A6F924
:1035D0001021012005F0A0FE041E00D183E014F0AC
:1035E0006FFA051E66D114F065FA414EE060F46092
:1035F00014F060FA3100260003680836DB6998474A
:1036000021003C4806F0E0F93B4F3C4A38003C4979
:1036100014F0F8F93B4B6A46A3603B4B310003A81A
:10362000009300F0DDFC310001A800F0A5FD502161
:10363000364806F067F92E200BF092FB061E47D0A5
:10364000502233490AF012FD002838D10121300000
:103650000AF088FD206000283ED021000BF0F8F829
:103660002C4920680BF022F939002B4806F04AF962
:103670002571FDF7CFFBFEF7A7FCFEF7EFFFFFF785
:10368000EFFA2379002BF4D02068002807D000211E
:103690000BF0DEF820680BF001FE0023236001A888
:1036A00000F08EFD03A800F0B9FC14F049FA2800E0
:1036B00017B0F0BD194805F0C5FF0125F7E7502107
:1036C000174806F01FF9174805F0BCFF0125EEE783
:1036D000154805F0B7FFF6E7144805F0B3FF3000D2
:1036E0000BF0DCFDEFE7124805F0ACFF0125DEE74B
:1036F00040300020652F001024DC02100400400040
:1037000014DC0210C0A80401FFFFFF0034DC02102B
:103710009C010310D52E001098DC0210FCDB021077
:1037200068DC0210D4DC021050DC021084DC0210D1
:10373000E0DB0210F8B54746CE46856880B52B68B9
:103740001700804689462C001E1E426805D124E0E1
:103750000134FF342668002E23D0B242F8D104E0B1
:103760000135FF352B68002B01D09A42F8D1002C8F
:1037700013D0390048462500E368984700261035E5
:103780006B68002B09D03800296800F091F80028F8
:1037900009D101360C35142EF2D10CBC9046994655
:1037A000F8BD0024E1E7700083199B00E318596914
:1037B00043469A681368002B25D18019800024188D
:1037C000A369002B03D039004846984761694346F6
:1037D0005B688B42E1D0434659609B681A68002AB7
:1037E00005D1DAE70133FF331A68002AD5D09142B8
:1037F000F8D1390048469B689847CEE70132FF323E
:103800001368002BD9D09942F8D1D6E770B51600CD
:10381000C26804000D00002A05D1320029002000F2
:10382000FFF788FF70BDFFF785FFF6E770B50A4C1C
:10383000050023680A21581C05F0D6F8074B1B68C1
:103840008B4204D0064B8A00D550216070BD012206
:10385000044B1A60FAE7C046C04F0020C44F002056
:1038600024580020C84F002010B5084B084C1B6896
:103870002068834208D00A21013005F0B5F8054BD5
:103880008A00D058216010BD0120FCE7C04F002005
:10389000C44F002024580020034B1868034B1B68BA
:1038A000C01A434258417047C04F0020C44F002007
:1038B0000300112906D00120122902D0C91A48425A
:1038C000484170470A3B180000210A2383424941BE
:1038D0000800F6E7F0B5CE46474680B5654C13893B
:1038E00006001500A544F22B09D828000AF020F89C
:1038F00093239B009D440CBC90469946F0BD8922C1
:1039000000232800920009A90AF036F9F228ECD920
:1039100024216A46022352181370310004220DA894
:1039200005F038FD9A20002345AC400008E092AA3B
:10393000D1183439FF39097802315B188342D4DA5F
:10394000E25CE118FF2AD0D0352AF0D18B78012B28
:1039500000D197E0032BC8D19A200023400008E053
:1039600092AAD218343AFF3A127802329B18834254
:10397000BBDAE25CE118FF2AB7D0322AF0D18A78AC
:1039800033789A42B1D1CA7873789A42ADD10A7924
:10399000B3789A42A9D14F793C00103CE4B2072C8D
:1039A000A3D80134E3009846B0440622404610A94B
:1039B00027F08EFE00280CD0062240462E4927F024
:1039C00087FE002800D090E70622404610A905F0A7
:1039D000E1FC02F099FC002900D17AE2FA220023EE
:1039E000920005F067F802002449E3008C46624427
:1039F000F318120CDA806B46372224249B18694690
:103A000036221F70F0230919FF32CA526946313A33
:103A100009190233FF3ACA546B463D3241219B18C3
:103A20006A4640205218694609181B7812780978AE
:103A3000684606973627C0190078013F059068460A
:103A4000C0190078013F04906846C01900786F469D
:103A5000039021203F19385C6F46029020203C19CA
:103A6000205C43240190381900780090044805F048
:103A700049FF83E0B4FDFFFF38DD0210005C26053E
:103A8000ECDC021008239846B0440622404610A9F8
:103A900027F01EFE041E5FD0724F062239004046FA
:103AA00027F016FE041E00D0D9E0F3896E4A1B04ED
:103AB0001A43914602F028FC002900D1EBE1FA22DA
:103AC0000023920004F0F6FF4B46181A00D51AE2C4
:103AD00010239846B0440622404610A927F0F8FD6E
:103AE000002800D179E2082C00D1C3E03000062282
:103AF00010A9183027F0ECFD002800D1F4E13000C7
:103B0000062210A9203027F0E3FD002800D1F2E1C1
:103B10003000062210A9283027F0DAFD002800D155
:103B2000EBE13000062210A9303027F0D1FD00284B
:103B300000D1E4E13000062210A9383027F0C8FD9A
:103B4000002800D1DDE13000062210A9403027F026
:103B5000BFFD002800D19CE137226B4624219B1831
:103B60006846362210341C70F0234018FF32C252CF
:103B70006846343A0233FF3A4118CA54242769464A
:103B8000F32336221A200424C919CA54FF30013302
:103B9000CC5404223100684405F0FCFB6946F9234B
:103BA00001222020C919CA54FF300133CC54042209
:103BB000311D684405F0EEFB6946FF2303222620F1
:103BC000C919CA54FF300133CC540422310068446F
:103BD00005F0E0FB0623694606222C20C919FF33B5
:103BE000CA54FF300133CC5404223100684405F03C
:103BF000D1FB0C2368463322C019FF33C2541B4B40
:103C000068464C938823C1195B00B33ACA52A0227C
:103C10008921174B3620920049005F6809F026FD84
:103C2000041E00D161E689224068520009A905F00E
:103C3000B1FB01235B42B06C0893002F09D0210037
:103C40000097453308AA0FF0BDF8200009F070FE78
:103C50004BE64423210008AA0FF0D8F8F5E7082422
:103C600023E7C04638DD0210FFFF000004000151C9
:103C7000E45E002006223900404627F029FD002896
:103C800000D1073CF08AD04B00040343994602F070
:103C90003BFB002900D103E1FA220023920004F04B
:103CA00009FF4B46181A00D53CE118239846B0444A
:103CB0000622404610A927F00BFD002800D113E191
:103CC000082C00D01BE706223900404627F000FDF3
:103CD000002800D1063CF08BBB4B000403439946FF
:103CE00002F012FB002900D1DFE0FA22002392004B
:103CF00004F0E0FE4B46181A00D522E12023984636
:103D0000B0440622404610A927F0E2FC002800D16A
:103D1000F1E0082C00D0FBE606223900404627F0EF
:103D2000D7FC002800D1053CF38CA74A1B041A439A
:103D3000914602F0E9FA002900D1BBE0FA22002303
:103D4000920004F0B7FE4B46181A00D508E128236C
:103D50009846B0440622404610A927F0B9FC002836
:103D600000D1CAE0082C00D0DBE60622390040462C
:103D700027F0AEFC002800D1043CF38D924A1B04CE
:103D80001A43914602F0C0FA002900D197E0FA22C6
:103D90000023920004F08EFE4B46181A00D5EEE088
:103DA00030239846B0440622404610A927F090FCE4
:103DB000002800D1A3E0082C00D0BBE60622390081
:103DC000404627F085FC002800D1033CF38E7E4A54
:103DD0001B041A43914602F097FA002974D0FA2284
:103DE0000023920004F066FE4B46181A00D5D5E079
:103DF00038239846B0440622404610A927F068FCB4
:103E0000002800D17DE0082C00D09CE60622390075
:103E1000404627F05DFC002800D1023CF08F6A4B41
:103E200000040343994602F06FFA002957D0FA22A2
:103E30000023920004F03EFE4B46181A00D5BCE069
:103E400040239846B0440622404610A927F040FC83
:103E500000281ED0082C00D07EE6062239004046FD
:103E600027F036FC002800D1013C4623F35A564F78
:103E70001B041F4302F048FA002937D0FA2200231E
:103E8000920004F017FE3F1A00D59FE0082C00D1E5
:103E90002BE5072460E6FA21890004F0CDFD13E646
:103EA000FA21890004F0C8FDFBE6FA21890004F03C
:103EB000C3FD1FE7FA21890004F0BEFD43E7FA21A4
:103EC000890004F0B9FD67E7FA21890004F0B4FD28
:103ED0008AE7FA21890004F0AFFD020084E5FA21A7
:103EE000890004F0A9FDA7E7022435E6FA2189003C
:103EF00004F0A2FDC7E703242EE604242CE60524E3
:103F00002AE6062428E606220021404605F03CFA6F
:103F10003000062210A9103027F0DAFB00285CD010
:103F20000024E3E506220021404605F02DFA30008A
:103F3000062210A9183027F0CBFB0028D4D001248A
:103F4000DDE506220021404605F01EFA300006227B
:103F500010A9203027F0BCFB0028CCD00224D7E5E4
:103F600006220021404605F00FFA3000062210A973
:103F7000283027F0ADFB0028BFD00324D1E506226E
:103F80000021404605F000FA3000062210A930302A
:103F900027F09EFB0028B2D00424CBE506220021A6
:103FA000404605F0F1F93000062210A9383027F01C
:103FB0008FFB0028A5D00524C5E506220021404638
:103FC00005F0E2F90624BEE5FFFF0000062200210D
:103FD000404605F0D9F90724BEE50124BCE5C046FA
:103FE0000B6810B503601368040043604022002191
:103FF000083005F0C9F90EF09DFFA064002808D034
:10400000220004490EF072FF4322A06C02490EF018
:10401000BBFD10BDD53800109C01031010B5040085
:10402000806C002803D00EF067FF0023A36410BD4E
:10403000F0B54F464646D64615009622C0B5CCB0E0
:10404000984654AB1B8801AE070099463100002307
:104050002800520009F090FD04000B2808D8280021
:1040600009F066FC4CB01CBC90469946A246F0BDD7
:10407000708808F069FB8246B08808F065FB5346FB
:1040800051460200DB0BC80A03439BB2002BE6D16A
:10409000002AE4D0301904AB1C00984206D80CE08A
:1040A0003F29DCD801316418A04203D921780029C6
:1040B000F6D10134E31AFF2BD1DCC0232371B43BCA
:1040C000637100239A46A3710133E371637253460F
:1040D0003C3363735346524620000433E373391D67
:1040E0002272A272E2722273A27310301A0005F0DB
:1040F00051F91D4808F028FB7080012008F024FBCE
:10410000B080012008F020FB534603938023F08009
:10411000143401AEA41B5B029C4200D3134CA022BA
:104120003620A1B2920009F0A1FA8246002816D0EA
:1041300022003100406805F02DF94B4642465146B9
:1041400038680EF063FE0400504609F0F1FB002CC5
:1041500000D184E72100064805F0D4FB7FE705483D
:1041600005F070FA7BE7C04680840000FFFF000086
:104170006CDD021040DD021030B583B004000D008C
:104180000EF0D8FE206000280ED022000A490EF062
:10419000ADFE00233522206801A901930EF0F4FC46
:1041A000021E03D12B68636003B030BD3521034884
:1041B00005F0A8FBF8E7C046314000108CDD021086
:1041C00010B504000068002803D00EF095FE00230F
:1041D000236010BDF8B5D024802780252406FF0178
:1041E0002D0201200021A76201F076FF01200021AD
:1041F000A56201F071FF656201200021A56101F057
:104200006BFF0726012000216762A76101F064FFB0
:1042100001200021A56201F05FFF013E65620120DF
:104220000021A56101F058FF002EEBD1D02480259C
:10423000802324061B02ED01A5620120A362002158
:1042400001F04AFF642302E0013B002B0FD06268BB
:104250002A42F9D10124D02380221B0612025A627D
:10426000012000219A6101F037FF2000F8BD0024F1
:10427000F1E7C0468023F0B5C646D0258026DB0195
:1042800004000827984600B52D06360216E043467E
:104290006B62AB610120002101F01EFF01200021B3
:1042A000AE6201F019FF64006E6201200021AE6170
:1042B000013F01F011FFE4B2002F05D063B2002BE3
:1042C000E5DA4346AB62E5E7D02480258023240667
:1042D0001B02ED01A5620120A362002101F0FCFE9A
:1042E000642302E0013B002B11D062682A42F9D11D
:1042F0000124D02380221B0612025A6201200021D1
:104300009A6101F0E9FE200004BC9046F0BD002453
:10431000EFE7C04610B50E2000F0C0FE0F2000F001
:10432000BDFE10BD7F2370B50500C817400E0918EB
:104330001940091AD017800E13183F2213401B1A78
:10434000D817383A0240D2180F2382B0C817D210BB
:10435000060F01AC503A22708A191A4003405B18CC
:104360001B111033921BA370D02680233606DB016D
:104370006270012073620021B36101F0ADFE802301
:104380001B0273620120B361002101F0A5FE2879B0
:104390004000C0B2FFF76EFF6B46DD1DFFF71AFF4E
:1043A00020780134FFF766FFAC42F7D1D024802398
:1043B00024061B02A3620120002101F08DFE802350
:1043C000DB0101200021A36201F086FE02B070BD76
:1043D000F8B54E464546DE4657468046E0B50800ED
:1043E0000E0022F0A1FB00285ED080278346D02457
:1043F000FF01BA46B344240635780120203DAB00C6
:104400005D192C4B00219C4653466362A3616544B1
:1044100001F062FE80231B02002163620120A36180
:1044200001F05AFE434618794000C0B2FFF722FF60
:104430004020FFF71FFF6B1D994628780135FFF7D5
:1044400019FFA945F9D180252D0201200021A5627F
:1044500001F042FE01200021A76201F03DFE012093
:1044600000216762A76101F037FE0021012065622B
:10447000A56101F031FE4346187901364000C0B213
:10448000FFF7F8FE4020FFF7F5FE0020FFF7F2FEF1
:1044900001200021A56201F01FFE01200021A7627A
:1044A00001F01AFEB345A7D13CBC90469946A246FE
:1044B000AB46F8BDB0DD02100023F0B557464E46BE
:1044C0004546DE4699468023E0B5DB01D0248025B1
:1044D000824698469B464E4683B001AF24062D0285
:1044E000F310503B3B7000237B701033BB705B4676
:1044F000012063620021A36101F0EEFD0120002193
:104500006562A56101F0E8FD534618794000C0B22C
:10451000FFF7B0FE33003E009946FFF75BFE3078B0
:10452000FFF7A8FE6B46013607339E42F5D1012006
:104530000021A56201F0D0FD434601200021A362C5
:1045400001F0CAFD4346012063620021A36101F02E
:10455000C3FD002101206562A56101F0BDFD534648
:1045600018794000C0B2FFF785FE4020FFF782FEB9
:1045700080231E000E4B013E1878FFF77BFE002EB5
:10458000F8D101200021A56201F0A6FD4E46434668
:1045900001200021A362083601F09EFD402E9FD12C
:1045A00003B03CBC90469946A246AB46F0BDC0461F
:1045B00014500020F8B5D02480268025070024065A
:1045C0002D02F6016662012065620021A661A561E7
:1045D0006662A66101F080FD65620120A56100218F
:1045E00001F07AFDA5620120002101F075FD012096
:1045F0000021A66201F070FD666201200021A66123
:1046000001F06AFD65620120A561002101F064FDF1
:1046100038794000C0B2FFF72DFE0F4C25001E3543
:10462000FFF7D8FD20780134FFF724FEAC42F7D124
:10463000D024802324061B02A3620120002101F064
:104640004BFD8023DB010021A362012001F044FD2A
:104650003800FFF731FFF8BD90DF0210002310B5DE
:10466000084C01220849094823601CF001FF00287A
:1046700002D10123236010BD0C220549054804F036
:1046800089FEF8E7504F0020B0DF0210B859002033
:10469000B4DF02105058002010B50022002002495B
:1046A0001CF0E6FE10BDC046B0DF0210F0B5604C55
:1046B000FB22A54400240021060035A8349404F010
:1046C00063FE5C4D5C4F012229005C483C601CF09D
:1046D000CFFE002800D09EE001233B6028001EF0A2
:1046E0003DFC00230021FB2275A8749374AC04F0F8
:1046F0004BFE28001EF032FCFF2120001EF0D0FCF3
:10470000002800D081E03100200022F0C1F900280B
:1047100000D06EE0FF2134A81EF0C2FC061E59D165
:1047200034A9474805F0EEF8582200211EA804F0ED
:104730002BFE902200215200200004F025FE2100D3
:10474000404B34AA1EA81FF0F5F8061E69D13E4E54
:1047500005E021001EA81FF07BF800282AD1A37EC7
:10476000002B27D010221100237B19401A42F0D1D0
:104770006B461970F5235B006B441900300005F09F
:10478000C1F8F52040006B4630490AAA684422F07F
:104790004DF80028DDD068462D4922F079F900282F
:1047A000D7D12C4805F0AEF821001EA81FF050F814
:1047B0000028D4D01EA81FF013F80A2004F0F6FE3B
:1047C0000022290000201CF053FE0120BD239B0085
:1047D0009D44F0BD20F0CAFD330002001E491F4871
:1047E00004F056F80022290000201CF041FE0020B1
:1047F000ECE730001EF0D0FB002800D18AE7020071
:104800001749164804F044F884E702001549134894
:1048100004F03EF87EE70C221349104804F0BAFD7C
:104820005CE720F0A3FD330002001049D7E7C04643
:104830000CFDFFFFB0DF0210504F0020B8590020E0
:1048400008E0021020E00210DCBC021040E0021080
:1048500020BF02104CE00210ECDF02105058002084
:10486000D0DF0210C0DF0210B4DF021024E002101B
:10487000F0B5DE46454657464E46E0B500257E4C2F
:104880008B46A54400210400904635A8FB223495B0
:1048900004F07AFD794E7A4F0122310079483D606B
:1048A0001CF0E6FD002800D0CDE001233B60300085
:1048B0001EF054FB00230021FB2275A8749374ADF5
:1048C00004F062FD30001EF049FBFF2128001EF0BD
:1048D000E7FB002800D0B0E02100280022F0D8F843
:1048E000002800D09DE0FF2134A81EF0D9FB041E53
:1048F00000D087E043465A4634A9634805F002F8E1
:10490000582200211EA804F03FFD902200215200F1
:10491000280004F039FD29005C4B34AA1EA81FF0C2
:1049200009F8071E00D094E02823594CE0541433B2
:10493000E0541433E0541433E0541433E05414338B
:10494000E05400231F009A46524B20709946207570
:1049500005E029001EA81EF07BFF00282FD1AB7EAA
:10496000002B2CD0102211002B7B19401A42F0D1C1
:104970006B461970F5235B006B441900484604F040
:10498000C1FFF52040006B4643490AAA684421F064
:104990004DFF0228DDD16846404922F079F8002811
:1049A000D7D1D34502DC3B00B84558DC01239C46F7
:1049B00029001EA8E2441EF04BFF0028CFD000259E
:1049C0001EA81EF00DFF0A2004F0F0FD344F220057
:1049D00029003800013504F095FF1434082DF6D174
:1049E0000A2004F0E3FD0022310000201CF040FD0D
:1049F0000120BD239B009D443CBC90469946A246A5
:104A0000AB46F0BD20F0B2FC230002002549264849
:104A100003F03EFF0022310000201CF029FD0020A1
:104A2000E7E720001EF0B8FA002800D15BE702009B
:104A30001E491D4803F02CFF55E702001C491A4887
:104A400003F026FF4FE70C221A49174804F0A2FC96
:104A50002DE720F08BFC3B0002001749D7E79C466E
:104A60009800F52360445B006B4480001900001936
:104A7000013722F051F899E70CFDFFFFB0DF02107B
:104A8000504F0020B859002054E0021020E00210DE
:104A900018590020DCBC021040E0021020BF0210B8
:104AA00090E00210ECDF021050580020D0DF02101E
:104AB000C0DF0210B4DF021024E00210002310B5A2
:104AC000C0B00021FB22040001A8009304F05CFCAC
:104AD00012481EF043FAFF2168461EF0E1FA002852
:104AE00014D12100684621F0D3FF002802D1012013
:104AF00040B010BD20001EF04FFA0028F7D0020091
:104B00000749084803F0C4FE0020F1E70200064907
:104B1000044803F0BDFE0020EAE7C046B0DF021003
:104B2000D0DF021050580020C0DF0210F8B500237B
:104B3000154D164E04000F00012229001448336061
:104B40001CF096FC002819D1012333602000FFF7E8
:104B5000B5FF00280FD038001EF062FF002805D1F5
:104B60002900002200201CF083FCF8BD3900094810
:104B700004F0C8FEF4E721000748F9E70C220749D2
:104B8000074804F007FCE1E7B0DF0210504F0020B7
:104B9000B8590020B0E0021098E00210B4DF021013
:104BA00050580020F0B5CE46474680B5634CFB22F6
:104BB000A544002405000F0019A800219946189467
:104BC00004F0E2FB5E4E5F4B012231005E489846E6
:104BD0001C601CF04DFC002800D099E001234246E7
:104BE000136000230021FB2259A8589358AC04F00D
:104BF000CBFB30001EF0B2F9FF2120001EF050FA6E
:104C0000002800D07AE02900200021F041FF002890
:104C100068D1FF2118A81EF043FA051E4ED118A92D
:104C20004A4804F06FFE5822002102A804F0ACFBB1
:104C3000902200215200200004F0A6FB444B2100EA
:104C40001D60984618AA4B4602A81EF073FE051E6A
:104C500064D1103505E0210002A81EF0F9FD0028FE
:104C60001DD1A37E002B1AD02A00237B1A401D429F
:104C7000F1D1BD235B006B4418000192390001AAF9
:104C800021F0D4FD4246019B12689342E3DD424687
:104C9000210002A813601EF0DBFD0028E1D002A86D
:104CA0001EF09EFD0022310000201CF0E1FB434677
:104CB0002848196804F026FE01200CE020F056FB7D
:104CC0002A000100244804F01DFE002231000020CB
:104CD0001CF0CEFB0020A1239B009D440CBC904601
:104CE0009946F0BD28001EF057F9002800D190E742
:104CF00002001A491A4803F0CBFD04E002001949EA
:104D0000174803F0C5FD2900174804F0FBFDDCE758
:104D10000C221649124804F03DFB62E700223100E4
:104D200000201CF0A5FB280020F020FB2A00010039
:104D30000F4804F0E7FD0020CDE7C0467CFDFFFFF3
:104D4000B0DF0210504F0020B8590020CCE0021014
:104D5000384E002004E10210ECDF0210D0DF021018
:104D600050580020C0DF021098E00210B4DF02109B
:104D7000E4E00210F0B583B005000E00140000F06E
:104D8000ABF9002801D003B0F0BD154F01223B0064
:104D900001210097053001F0E3FE33002A00009462
:104DA0000121104802F0D6F821002800714303F0D9
:104DB00043FE04000C4B002200930221042001F06A
:104DC000CFFE2300002201210094052001F0C8FE3F
:104DD0003B00022200210097062001F0C1FED2E72D
:104DE000006CDC0200800240001BB700F0B5DE461C
:104DF0009B46554B57469A46A0234E4645465B0078
:104E0000E0B59946060083B00091019201235B4210
:104E10009C46E1444B460F2B00D192E04B4F4C4B4C
:104E2000072457449A455ED821003800614303F0B7
:104E300003FE86425BD0631E9846012C53D01D00B2
:104E400065433800290003F0F7FD864253D0A31EC6
:104E50009846022C55D02D1B2900380003F0ECFD9C
:104E6000864250D0E31E9846032C52D02D1B2900B9
:104E7000380003F0E1FD86424DD0231F9846042CF4
:104E80004FD02D1B2900380003F0D6FD86424AD0B2
:104E9000631F9846052C4CD02D1B2900380003F0C9
:104EA000CBFD864247D0062C49D03800E91F03F0DD
:104EB000C3FD06248642B7D10029B5D101230724BA
:104EC00098464A46234B01205343009A1360019BA6
:104ED00042461C605B461A6003B03CBC9046994653
:104EE000A246AB46F0BD1C4B9C46E2448EE700292F
:104EF000A1D1A046E5E70029E3D0A31E9846022CE5
:104F0000A9D1012490E70029DBD0E31E9846032CA9
:104F1000ACD1022488E70029D3D0231F9846042C63
:104F2000AFD1032480E70029CBD0631F9846052C1E
:104F3000B2D1042478E70029C3D0062CB5D10524CA
:104F400072E70020C8E7C04670F72E00B0710B0072
:104F500050F80C00001BB70020D1FFFF094A830066
:104F600094464022634410B51C68C0006240C024CF
:104F700014408022520113431C60034B9C46604442
:104F8000416010BD04C00140004001400A4B800058
:104F90009C4604236044002901D00C230821002AE8
:104FA00000D10B00026853400C221A4080235B01A1
:104FB000184302607047C04604C00140084B80009F
:104FC0009C466044002905D080239B01184302239E
:104FD00003607047C0239B01184302230360F8E776
:104FE00004C00140D0231B061B6830B55C1EA341E2
:104FF00005000F485C4284460720302328402340A8
:105000008000EC08814020000A4D3C306344800061
:10501000A40041511B19002A04D08022920113439D
:10502000196030BDC022920113431960F9E7C046F0
:105030000041014000400140D023F0B5C6460400C5
:105040001B0698461B680C4F9B00F8580D00160075
:1050500000B5044209D13200290004430D20FC5060
:1050600000F072F904BC9046F0BD02F0F5F843463A
:105070001B689B00F858EEE78C4E002010B504002A
:105080000D2000F043FAD0231B061B6802499B0049
:105090005A58A2435A5010BD8C4E00200123D022F2
:1050A0008340120693629361094A8300944640222A
:1050B00063441968C0004A40C02111408022520157
:1050C00013431960034B9C460523604443607047BB
:1050D00004C0014000400140024B18688007C00F27
:1050E0007047C04600C00640EFF3108072B6034A16
:1050F0001368002BFCD0BFF35F8F70472C0100D0EA
:10510000BFF35F8F0022024B1A6080F31088704754
:105110002C0100D0F8B5EFF3108772B60E4E33684D
:10512000002BFCD0BFF35F8FCB08C4180725A44623
:10513000C45C01230D40AB4018002040234208D13D
:10514000624623431370BFF35F8F306087F310888C
:10515000F8BD100002F068F82C0100D0F8B5CE467A
:1051600047468C4680B5EFF3108872B6214D2C6807
:10517000002CFCD0BFF35F8F9A422CD8D4080721B3
:10518000055D0619012411408C402C421FD00721D7
:105190008946063909E0D408055D06194C460F001A
:1051A0001440A7403C002F4211D001329342F2D26A
:1051B00001204042BFF35F8F00220E4B1A6088F33C
:1051C000108800280FDB0CBC90469946F8BD2C4394
:1051D00010003470EEE7BFF35F8F00232B6088F37D
:1051E0001088012040426346002BECD0089802F062
:1051F0001BF8C0462C0100D070B5EFF3108672B6D4
:105200000A4C2368002BFCD0BFF35F8F07230122D9
:10521000CD0819408A40435D93434355BFF35F8FE8
:105220000023236086F3108870BDC0462C0100D097
:105230000021044B044ABFF35F8F02C39342FAD1AB
:105240007047C046000100D0800100D0044A1078A9
:10525000431CDBB2172B00D9102313707047C046D4
:105260005C30002000B5054B83B00100009318228C
:105270001F230348FFF772FF03B000BD20E10210B7
:105280009044002001238340002904D0034A136086
:10529000034A13607047034A1360FBE780E200E0B3
:1052A00000E100E080E100E001238340014A136057
:1052B0007047C04600E200E0084B10309B68800059
:1052C000C358002B07D0064A00209B1A2F229A426F
:1052D0004041C0B270470020FCE7C04600ED00E04E
:1052E00060300020024B10309B688000C05870472F
:1052F00000ED00E070B50D00EFF3108672B60F4AB6
:105300001368002BFCD0BFF35F8F0D4B10309B68F0
:1053100084001B590B4A934203D09D4201D001F0F7
:105320009BFF074B9B681D51BFF35F8FBFF35F8FE0
:105330000022024B1A6086F3108870BD240100D051
:1053400000ED00E0CD010010F0B557464E46454651
:10535000DE46E0B5894683B005001700EFF3108AFA
:1053600072B65E4A1368002BFCD0BFF35F8F00203B
:105370005B4B18569B46002800DA6CE05A46440006
:10538000584E2418A400331998469B791035137091
:10539000554BAA009B6801929B589C469B1B2F2B48
:1053A00028D8012261469143CB79BB4208D86AE0F4
:1053B00053009B189B00F318DD79BD4251D91900A9
:1053C00006228A56002AF3DA0B1D9B46474E4346B7
:1053D0005C46043B1B1B1B05454C5B0D23438B802C
:1053E000887141468A714A46424B8E800B60CF716C
:1053F0008A601BE0404B9C4542D142463F4B023401
:1054000013803F4B3619043B9E1B3605384B760DF7
:105410001E433C4B56809380FF23D77193714346C4
:105420004A469A60012342461A43944661462E4BEF
:10543000019A9B689950BFF35F8FBFF35F8F002283
:10544000264B1A608AF3108803B03CBC90469946FC
:10545000A246AB46F0BD01F0FFFE5B4600201856A9
:105460008CE70B1D9B468B8804345B051B155B4446
:1054700036199E1BE0233605760D1B021E43A6E758
:1054800001F0EAFEB9E745460B001F489B1B5B4154
:105490005843000D194B2B80A31C9C46B444654611
:1054A000174B0434043B5B1B1B05114D5B0DAC46D5
:1054B0002B43454636196B800B1F9E1B6346A87114
:1054C00048463605760D1E430A4BAE80EF71A86044
:1054D0000B60434613439C46A8E7C046240100D016
:1054E000095000206030002000ED00E001BD000008
:1054F00000E0FFFF01488047CD01001000A1FFFF41
:105500009030002001BDFFFFAAAA0000F0B5DE46E2
:1055100057464E464546E0B50C0083B0EFF3108980
:1055200072B6594A1368002BFCD0BFF35F8F574BFC
:105530009A68030010339F00D559554A904695420A
:1055400032D0A54243D0534EAA1B2F2A2CD8012279
:10555000824092465146504A12681140019151468C
:105560004E4A1160BFF35F8FEFF305829346002A26
:1055700033D101232A009A4393689C4208D178E0F2
:105580004B005B189B00F3189968A1422AD01A00BF
:10559000062151560029F3DA019B002B19D05246FF
:1055A0003F4B1A603C4B1A60384B9B68DD51BFF390
:1055B0005F8FBFF35F8F0022334B1A6089F310882F
:1055C00003B03CBC90469946A246AB46F0BD1500E0
:1055D000EAE75246314B1A60E6E79342C9D001F040
:1055E0003BFEC6E706215956002922DB4A00501827
:1055F000800034188046A0689860E079D871062051
:1056000020569871A0797F2824D8A488F01A6405C0
:10561000241544440019E0240005400D24022043D1
:10562000988052181F4B9200B6181A781970B271F0
:10563000B2E7594600290FD1FF3191711A49918083
:1056400018490A789A71194A9B1B5B415A43120DFB
:105650000A70A1E71648E3E7164A1749D21A083A32
:105660005002400D01439980144952080A43DA80E0
:1056700092E70621515613000029B7DA5A46002A4C
:10568000EAD14546DCE7C046240100D000ED00E049
:10569000CD0100106030002000E100E080E100E07A
:1056A00080E200E00950002001BDFFFFAAAA00002F
:1056B00001BD00009A30002000F0FFFF00F8FFFF5E
:1056C000032310B50400074A18409446C0009C43C9
:1056D000FC3383406444226881409A4313000B43A7
:1056E000236010BD00E400E0F0B5EFF30581012474
:1056F0000443EFF3108672B6214A1368002BFCD0E6
:10570000BFF35F8F1F4B05001F4AED1A6D416A43BF
:10571000120D1E4D8900AF6852B27F58A7421CD0AF
:105720000621595691421CD012215956914222D03D
:105730001E215956914220D02A21595603249142C4
:1057400010D0134B19781A708171BFF35F8F00224C
:105750000B4B1A6086F31088F0BDAB680D4C5C50A3
:10576000EFE700246100091989005B18FF21997196
:1057700009499980E5E70124F4E70224F2E7C046ED
:10578000240100D060300020AAAA000000ED00E053
:1057900009500020CD01001001BDFFFF054B064A56
:1057A0001360064A136053609360D36013615361C2
:1057B000936170478080808000E400E004E400E0B2
:1057C0001F2110B5091A0248FFF716FD10BDC0468B
:1057D0001350002000B5074B83B001000093002256
:1057E00005230548FFF7BAFC002801DB1F23181A20
:1057F00003B000BD3CE102101350002070B504005E
:105800000E001500FFF722FD0100200000F006F851
:10581000A680E580BFF35F8F70BDC046024B9C46FB
:1058200061448900016070474000003410B50400F5
:10583000FFF70CFD01002000FFF7F0FFFF232371AD
:10584000BFF35F8F10BDC04610B50400FFF7FEFC2C
:1058500001002000FFF7E2FFFF23A380BFF35F8F6B
:1058600010BDC04610B504000120FFF7FBFC034B40
:10587000C3189B002360BFF35F8F10BD400000344E
:10588000034B9C46614489000160BFF35F8F704702
:105890004000003483680B4810B58446614462447C
:1058A000090112019A18591854684B6801209C424A
:1058B00001D802D00020C0B210BD12680B689A4215
:1058C000F9D8F7E7FFFFFF0F0A4B1968EFF31080D5
:1058D00072B60A68002AFCD0BFF35F8F1B68BFF363
:1058E0005F8F00221A6080F3108840BF00200021E3
:1058F0007047C0465C4F0020F8B5574645464E46B7
:10590000DE46E0B599460CAB19780DAB1B78050067
:1059100090469A460768002912D1BE7B002E45D0DA
:1059200074003B68A419033C1B195A783100BA7300
:10593000002A00D1FA7300229A705A701A7003E09C
:105940000E004C006418033C2C4B00229C46AB68B4
:1059500061449C464346090161440B604B464B60E1
:105960000A9B8B600B9BCB603B681B199A705A702B
:105970001A707B7B9B46002B2CD032005946B868AE
:105980007B6898473A68002817D05B4658465B000A
:105990005B441419033BA070D118D35C002B00D0DA
:1059A00063705B460E707B73B34514D030003CBC13
:1059B00090469946A246AB46F8BD5B465B005B4409
:1059C000033BD3189E701119125D002A00D05A7043
:1059D0005B460B707E7342464B46287D00F01EFDF1
:1059E000041E06D05346002B03D13100286800F076
:1059F000B5FF0E9B002BD9D01C70D7E7FFFFFF0F20
:105A0000F0B5DE4657464E4645460023E0B58BB01E
:105A10000893674B8200D45800239B46099000F0FE
:105A200073FC626806000F00EFF3108572B613680E
:105A3000002BFCD0BFF35F8F23689C465B7B9946AD
:105A4000002B00D169E0A2685A4B90464B441B01E1
:105A5000984443461A685B6810001900801BB941DE
:105A6000002900DC63E0099800F0D8FC0023002244
:105A7000984600230692079300239A466368BFF373
:105A80005F8F5A461A6085F310885346002B08D161
:105A90000028C4D10BB03CBC90469946A246AB4608
:105AA000F0BD089B414618024B461843D047626838
:105AB00006000F00EFF3108572B61368002BFCD0C0
:105AC000BFF35F8F002F50DB33003B4302D02369CD
:105AD000002B61D12368DA7B002A07D051008A1895
