:020000041000EA
:1000000000B5324B212058609868022188439860DF
:10001000D860186158612E4B002199600221596106
:100020000121F02299502B49196001219960352056
:1000300000F044F80222904214D00621196600F024
:1000400034F8196E01211966002018661A6600F04E
:100050002CF8196E196E196E052000F02FF8012189
:100060000842F9D1002199601B49196000215960AB
:100070001A491B48016001219960EB211966A021F2
:10008000196600F012F800219960164914480160C1
:100090000121996001BC002800D000471248134993
:1000A000086003C880F30888084703B5996A0420EC
:1000B0000142FBD001200142F8D103BD02B5186610
:1000C0001866FFF7F2FF186E186E02BD00000240BE
:1000D000000000180000070000035F00212200005C
:1000E000F4000018222000A00001001008ED00E03C
:1000F00000000000000000000000000074B24E7A12
:1001000000200420F7010010C3010010C5010010F9
:10011000C1010010C1010010C1010010C101001097
:10012000C1010010C1010010C1010010C701001081
:10013000C1010010C1010010C9010010CB01001065
:10014000CD010010CD010010CD010010CD01001037
:10015000CD010010CD010010CD010010CD01001027
:10016000CD010010CD010010CD010010CD01001017
:10017000CD010010CD010010CD010010CD01001007
:10018000CD010010CD010010CD010010CD010010F7
:10019000CD010010CD010010CD010010CD010010E7
:1001A000CD010010CD010010CD010010CD010010D7
:1001B000CD010010CD010010CD010010CD010010C7
:1001C00000BE00BE00BE00BE00BE00BE00F051F882
:1001D000103800BEF2EB8871E00200100C03001032
:1001E0003402001090A31AE700202449086006C8D2
:1001F00081F30888104722480068002835D10DA4F3
:100200000ECC002902D000F012F8F9E71D491E4A71
:10021000002000E001C19142FCD11C4988471C49E3
:1002200088471C49884700BEFDE701C901C29A42C0
:10023000FBD370470C030010C000002048D90120F8
:1002400094DB011050D90120B8760220FC7802100E
:100250000000042000000420FC780210001004209C
:10026000001004200000000070470B4800F018F850
:100270000047EFF30580C0B27047000008ED00E0D2
:10028000000000D0B8760220909202200591002054
:100290009D66002069920020575600000000000073
:1002A00001B40248844601BC604700BF69AF00202A
:1002B00006005250ABB360534CF901200600525077
:1002C000861C03025CF90120060052505422A29DB4
:1002D0007CF9012005005250DE65F468FC780210BC
:1002E000D4020010C8020010BC02001088F90120DE
:1002F000B002001094F90120A0F90120ACF901200E
:0C030000E8F90120F4F9012028FA01209E
:10030C00F8B5C0460448054B10B5834203D0044BE6
:10031C00002B00D0984710BDB8760220B87602208A
:10032C000000000006480749091A8B10C90FC918AC
:10033C0010B5491003D0044B002B00D0984710BDCA
:10034C00B8760220B87602200000000010B5074CE9
:10035C002378002B09D1FFF7D5FF054B002B02D0DA
:10036C00044800E000BF0123237010BDC0770220B9
:10037C000000000048D90120054B10B5002B03D01C
:10038C000449054800E000BFFFF7CCFF10BDC04694
:10039C0000000000C477022048D901207047C046F5
:1003AC00D42310B5CD249B00C1180B6864001A022D
:1003BC00120AA24211D2A0221B011B0912061343DE
:1003CC00D82292008350A022002312060A604B60B0
:1003DC00F72301229B00C25010BD014BF0E7C04631
:1003EC00990100A0D4239B00C3181A68DA239B0040
:1003FC00C25000220433C25070330132C2507047D5
:10040C00D4239B00F0B5C61834680B39250F220194
:10041C000C0077683B012B43CD1712196B413260EE
:10042C007360F72301229B00C250F0BDD423A0219E
:10043C009B00C218136809061B011B090B431360B0
:10044C0001235B425360F72301229B00C25070478B
:10045C00D423B0219B00C218136809061B011B0989
:10046C000B43136001235B425360F72301229B0073
:10047C00C2507047FA23202230B5002400259B007F
:10048C00C254983BC3181C605D60E0230022A0247A
:10049C00A0259B00C250283BC3182D0624061C60C7
:1004AC005D60A022D82312069B00C2500123E922D2
:1004BC005B42920083500432835004328350F72302
:1004CC0001229B00C25030BDFA23202230B50024FB
:1004DC0000259B00C254983BC3181C605D60E02350
:1004EC00A024A0251F3A9B00C250283BC3182D0600
:1004FC0024061C605D60A021D82309069B00C15016
:10050C000123E9215B4289004350043143500431FB
:10051C004350F7239B00C25030BDC046F423012248
:10052C009B00C2507047C046F52301229B00C2506D
:10053C007047C046FB2300229B00C250F8220123C7
:10054C0092008350043A83507047C046FB229200BD
:10055C00835801338350F72301229B00C25070470C
:10056C00FB2292008358002B01DD013B8350F723C3
:10057C0001229B00C2507047F82300229B00C250FE
:10058C00043B0132C2507047F92201230021920032
:10059C008350043A8150043A83507047F723012169
:1005AC00014A9B00D150704708860220084B09482D
:1005BC00094918605960094809499860D960094887
:1005CC00094918615961094807499861D96170470F
:1005DC00088602206303520356005610500553053B
:1005EC0052055105540553055107510600240024AA
:1005FC000A4B01211A680A4B1A60B8235A43094B5B
:10060C009B18002219611A76074B1960074B196069
:10061C00074B1A60074B1A707047C0469482022031
:10062C00948302201C5D02209C830220A083022064
:10063C008C830220F8890220D0220C4B0C480D49E7
:10064C00920010B59C182060616000210A48203A85
:10065C009A1810605160094A09481A600BF042FD63
:10066C002268636807480BF03DFD10BD0886022028
:10067C00325476083054760856341200181410147C
:10068C0080DD012090DD012010B50E480BF0D4FB6D
:10069C000D4B0E481A680E4B19680BF023FD0D4BD1
:1006AC000D4819680BF01EFD0C4B0D481A680D4BCC
:1006BC0019680BF017FD0C4B0C4819680BF012FD68
:1006CC0010BDC046A8DD01206C820220B8DD0120DF
:1006DC007482022070820220DCDD01207C820220E8
:1006EC00F4DD0120648202207882022008DE0120E1
:1006FC0010B5054C054821680BF0F4FC2068253832
:10070C0006F01EFB10BDC0468082022014DE0120C4
:10071C0010B50A2006F014FB10BDC04610B5092018
:10072C0006F00EFB10BDC04610B5152006F008FBF8
:10073C0010BDC04610B5162006F002FB10BDC04619
:10074C0010B5172006F0FCFA10BDC04610B50720F6
:10075C0006F0F6FA10BDC04610B51A2006F0F0FAF5
:10076C0010BDC04610B5022006F0EAFA10BDC04616
:10077C0010B5062006F0E4FA10BDC04610B50520F1
:10078C0006F0DEFA10BDC04610B5032006F0D8FA0C
:10079C0010BDC04610B5042006F0D2FA10BDC046FC
:1007AC00F723002110B5034A9B001820D15006F006
:1007BC00C7FA10BD08860220F723002110B5034AA2
:1007CC009B001920D15006F0BBFA10BD0886022000
:1007DC00F0B50022C646114B114C00B525001A602D
:1007EC000023012798460F4E183504E043462B7022
:1007FC0027610135B8343100206818F023FB00283C
:10080C00F4D10122084B1860084B1A60084B186091
:10081C00084B187004BC9046F0BDC046948302206F
:10082C001C5D022018DE01209C830220A083022084
:10083C008C830220F889022030B583B005000A4968
:10084C00100001AA18F036FA0400012803D0002485
:10085C00200003B030BDDA23019A9B001100EA504E
:10086C0002480BF03FFCF3E720DE012030DE0120D4
:10087C0030B583B005000A49100001AA18F01AFA25
:10088C000400012803D00024200003B030BDDB237A
:10089C00019A9B001100EA5002480BF023FCF3E78D
:1008AC0048DE012058DE012070B5002682B005001C
:1008BC000C49100001AA019618F0FCF9040001285B
:1008CC0003D00024200002B070BDD4239B009C46B2
:1008DC00019B65441A0048C5034800230BF002FC39
:1008EC00F0E7C04670DE012080DE012010B582B03A
:1008FC0001AB0400114910006A4618F0DBF9002323
:10090C00022802D0180002B010BD0099019A0129EA
:10091C0010D002290AD0002904D009480BF0E2FBC0
:10092C000123EFE7D6239B00E250F6E7D8239B0088
:10093C00E250F2E7D7239B00E250EEE79CDE012069
:10094C00B4DE012030B583B005000A49100001AABD
:10095C0018F0B0F90400012803D00024200003B0E3
:10096C0030BDD923019A9B001100EA5002480BF0CC
:10097C00B9FBF3E7D4DE0120F0DE012030B583B003
:10098C0005000A49100001AA18F094F90400012886
:10099C0003D00024200003B030BDDE23019A9B005D
:1009AC001100EA5002480BF09DFBF3E710DF012029
:1009BC0024DF012010B508490400084806F0C0FEE9
:1009CC00F92300229B00E250F82201239200A3504D
:1009DC00043AA35010BDC046C08C02203CDF01205D
:1009EC00F0B5D6464F464646C0B5174882B00BF018
:1009FC0023FA164B00259946154B164C9846164B68
:100A0C00164F9A4626683900300018F01BFA002859
:100A1C000CD022694346002A00D1534622001832DA
:100A2C0000922900320048460BF05CFB0135B834CB
:100A3C00142DE7D10A200BF0ADF902B01CBC904686
:100A4C009946A246F0BDC04654DF012064DF012068
:100A5C0044DF01201C5D02204CDF012018DE012048
:100A6C0070B50A200BF096F9094C0A4E2500E135B9
:100A7C00FF35626813782A2B03D0300021780BF0F5
:100A8C0031FB0C34AC42F4D103480BF02BFB70BDA2
:100A9C00F01A02207CDF012088DF012070B5284885
:100AAC000BF020FB274D284C3FE0D02301220221E4
:100ABC001B069A6199610231996180000431996138
:100ACC0041598A405A61D02301221B0659685B6840
:100ADC0009095B0911401A4201D002231943D023A2
:100AEC001B065B685B0601D504231943D0231B0648
:100AFC005B681B0601D508231943D0231B065B68D2
:100B0C00DB0501D510231943D0231B065B689B051D
:100B1C0001D520231943D0231B065B685B0501D547
:100B2C004023194320000BF0DDFAFA2080000BF073
:100B3C00EBFA431CC7D030380328B6D970BDC04679
:100B4C00A4DF012080F2012014DE012070B5274DB6
:100B5C000600286814008EB0002801D10EB070BDBC
:100B6C000DAB05930CAB04930BAB03930AAB029345
:100B7C0009AB019308AB009320001D4907AB06AAF3
:100B8C0018F098F8082805D000231A4A00202B608A
:100B9C001360E3E7174A136898003018410713D124
:100BAC00069C079D04604560089C099D8460C56097
:100BBC000A9C0B9D046145610C9C0D9D8461C56173
:100BCC00083301201360C9E7069901600799416059
:100BDC00089981600999C1600A9901610B99416179
:100BEC000C9981610D99C161EAE7C046A882022087
:100BFC00B0DF0120AC820220100010B5072208499A
:100C0C0018F0D4F90023002801D0180010BD0122DF
:100C1C00044B05481A600BF065FA0123F5E7C04652
:100C2C00CCDF0120A8820220D4DF01207047C0460F
:100C3C0008B430B582B005AB04CB04000D000648F7
:100C4C00102101930AF052FAF7239B00E55002B0F1
:100C5C0030BC08BC01B018477E8B022008B430B5FC
:100C6C0082B005AB04CB04000D00064810210193A3
:100C7C000AF03CFAF7239B00E55002B030BC08BCEC
:100C8C0001B01847918B022008B430B582B005AB87
:100C9C0004CB04000D000648102101930AF026FA3B
:100CAC00F7239B00E55002B030BC08BC01B01847DC
:100CBC00A48B022008B430B582B005AB04CB040081
:100CCC000D000648102101930AF010FAF7239B003F
:100CDC00E55002B030BC08BC01B01847B78B0220FD
:100CEC0010B503480AF060FA002103000020984771
:100CFC0055420000F0B5244885B00BF0F3F9002301
:100D0C00224C234E234D2360FA2080000BF0FCF97B
:100D1C00431C35D03928F7DC2F2807DC1B28F3D8E7
:100D2C001D4BC340DB07EFD505B0F0BD2268303852
:100D3C0093009B185B0018183100206028000BF002
:100D4C00D1F91649164B086816491B6809685A1ED2
:100D5C0093414F1EB941212249425B4213400A4044
:100D6C0020320190009002922268203311000E482C
:100D7C000BF0B8F9FA2080000BF0C6F9431CC9D16E
:100D8C000BF030F9C0E7C046E8DF01209482022066
:100D9C00A883022014E0012000240008A87C022073
:100DAC00C07C0220BC7C02202CE00120D4239B00C0
:100DBC00C31830B51D68D82304009B00C25887B0F7
:100DCC0012010949120901A80AF068F96A46074993
:100DDC0001A817F06FFF009B01229B001D51F72308
:100DEC009B00E25007B030BD54DE0120F8F5012025
:100DFC000FB400B5B5B036AB04CBC82102A8019333
:100E0C000AF074F902A903480BF06CF935B008BC70
:100E1C0004B0184778E001200FB400B5B5B036AB7C
:100E2C0004CBC82102A801930AF060F902A9034877
:100E3C000BF058F935B008BC04B0184788E0012015
:100E4C000FB470B5AAB02EAB04CBA02102A80193AD
:100E5C000AF04CF902A919480BF044F9184D9E24DC
:100E6C00280018F03BF8241A060002A818F036F8EF
:100E7C0032000300210013480BF034F9631C15D029
:100E8C00280018F02BF802220F4928180AF078FED7
:100E9C0002A92200280018F055F829000B480BF085
:100EAC0021F92AB070BC08BC04B0184721232200D9
:100EBC00290007482B700BF015F9F2E7A0E0012090
:100ECC00F8890220B4E00120C8E90120ECE00120FF
:100EDC00DCE0012010B50020D02406F077FE0123C1
:100EEC0024066362012006F071FE02230220636275
:100EFC0006F06CFE04230320636206F067FE0823F1
:100F0C000420636206F062FE10230122A36200211A
:100F1C00042006F043FE052006F058FE2023012293
:100F2C00A3620021042006F039FE062006F04EFED6
:100F3C0040230122A3620021042006F02FFE07208B
:100F4C0006F044FE80230122A3620021042006F057
:100F5C0025FE082006F03AFE80235B00A3620122E6
:100F6C000021042006F01AFE092006F02FFE802333
:100F7C009B00A36201220021042006F00FFE0A2030
:100F8C0006F024FE8023DB00012200210420A36252
:100F9C0006F004FE10BDC046F0B557464E46DE4680
:100FAC004546E0B5C94E0700316895B0002901D11E
:100FBC00C74B1960D02201201206536852681B09D6
:100FCC0052090340104201D002221343D0221206D0
:100FDC005268520601D504221343D02212065268DD
:100FEC00120601D508221343D02212065268D205EC
:100FFC0001D510221343D02212065068012480051B
:10100C001BD5202052680343920A144201D100F0F0
:10101C00B1FC40221343AF4A1360AD48AE4A04689A
:10102C001460CA0113430360032949D015B03CBCBA
:10103C0090469946A246AB46F0BD5268920A1442BD
:10104C00E7D1A44A1360002BE7D1A448026801320F
:10105C000A2A52DD0360A24B99461B68002BE3D091
:10106C00A04B1D68A04B9B46A04B9A46002D46D02A
:10107C005246B82312689E4853439E4A5B441268FA
:10108C0002929A68029B9B009B5819001C000293C9
:10109C000BF028F8002C00D194E01E2C00D191E02C
:1010AC00029C954821000BF01DF8200005F048FE2D
:1010BC00904B904A1B683168029301331360B3E77D
:1010CC00834B8E4C19688E4D23682960994212D03F
:1010DC00002910D08B480023020003E001330832B2
:1010EC001C2B08D01668B142F8D1DB00C318586825
:1010FC0005F026FE2968216098E7026094E7B82481
:10110C005A461B6880486343D1580AF0EBFF53469C
:10111C00196800234C435C446069C8248C46640005
:10112C0003E0FA500433A34202D0C258511CF8D148
:10113C006146B8234B435B445A68744B0024984671
:10114C005B4602932301D018D35CBB460B2B18D003
:10115C000E2B27D00A2B22D0220040460AF0C2FFC9
:10116C0000234A46136053461968B823029A4B432E
:10117C00944663445A6801342301D018D35C0B2B7A
:10118C00E6D18368C0689C462B00072D00D89BE2F3
:10119C00083B012B0ED95E48FFF72AFEE3E7856872
:1011AC000134E9E701234F4A316813600022514BA7
:1011BC001A6039E767466833DB005B441F60586090
:1011CC000134D9E75246B8231268524853435A4661
:1011DC00D1580AF087FF01241C23D846D3464E4D24
:1011EC000493296864420397029A4C480AF07AFFE8
:1011FC005B461968B8234B432A684344DB681701E4
:10120C00D819DF5D3B00143BDBB2082B00D9B5E3EA
:10121C00434A9B00D3589F46B84607001C230493AF
:10122C0002993A003F480AF05DFF2B683C00591CBC
:10123C002960D9E76046B8463B4B9A4684685046CD
:10124C0021000AF04FFF2B68029A591C3348296081
:10125C000AF048FF5B461B6829689C46B823624627
:10126C0053434344DB680A0198189A5C2700130027
:10127C00143BDBB2082B00D993E32C499B00CB58D1
:10128C009F466046B8462A4B9A46846850462100D1
:10129C000AF028FF2B68029A591C204829600AF092
:1012AC0021FF5B461968B8234B432A684344DB682B
:1012BC001701D819DF5D3B00143BDBB2082B00D9BA
:1012CC005CE31C4A9B00D3589F46C04664820220B4
:1012DC0074820220788202206C8202209083022089
:1012EC00A08302208C8302201C5D022094830220A8
:1012FC0000E10120A483022044E301206882022043
:10130C0070820220101A022058E301208CE3012085
:10131C0070E301200CE10120988302203CE10120C4
:10132C00B4E3012090E1012080E10120D8E3012009
:10133C0068E10120FCE30120DA46C346E6480AF0E6
:10134C007BFD00234A46136001332B60E34C23687A
:10135C00002B00D0EEE15246B8231268E04D534307
:10136C005A46D2181269002A00D183E2DD480AF0ED
:10137C00B9FE534652461B68002701331360B8224E
:10138C0053435A46D849D0582F7017F05BFD0028AC
:10139C0000D176E201234A461360D44B31682760B2
:1013AC001F6041E6DA46C346D1480AF09BFED14B9A
:1013BC00D04A1B680293013313602B6801332B60F6
:1013CC004B461B68002BC1D0CB480AF08BFE316812
:1013DC002AE6CA4B049F9A463B005246143B9B009C
:1013EC00D158C74B180004930AF07CFE192F2FD04C
:1013FC0008239F43142F00D15CE12B68029A591CDF
:10140C00C04829600AF06EFE5B461968B8234B434E
:10141C002A684344DB681701D819DF5D3B00143B95
:10142C00DBB2082B00D9A9E2B74A9B00D3589F46E0
:10143C00142317000493F3E619230493F0E6AF4B3F
:10144C009A465246AE4B5169180004930AF04AFE74
:10145C0027013F093A00AD490FA8079409F01EFE79
:10146C00AB490EAA0FA817F025FC0E9B5946039A00
:10147C009B009A58B82309684B4329684344DB689E
:10148C0009015B189968914200D166E13A009F49C5
:10149C000FA809F003FE9E490EAA0FA817F00AFC2C
:1014AC000E9B039A59469B009A58B82309684B43E4
:1014BC0029684344DB6809015B189868D968009077
:1014CC000191210093480AF00DFE3A008F490FA8B4
:1014DC0009F0E4FD0EAB1A008D490FA817F0EAFBDA
:1014EC000E9B039A59469B009A58B82309684B43A4
:1014FC0029684344DB6809015B189868D968009037
:10150C00019121008448FFF79BFC5A46B8231268CE
:10151C007C485343002243441A612B68029A591C9D
:10152C0029600AF0DFFD5B461968B8234B432A6833
:10153C004344DB681701D819DF5D3B00143BDBB279
:10154C00082B00D91AE2754A9B00D3589F466B4B67
:10155C0007949A4652463C00694B11681800049354
:10156C000AF0C0FD079B083B0B93E3B2039A0D9363
:10157C002300944647466033DB0063440C93631CA2
:10158C0000D154E11C2C05D80123A340644A13421A
:10159C0000D020E1DA23152C00D1ABE1182C00D1BE
:1015AC00AFE1D823162C00D1A4E1172C00D1C1E156
:1015BC00079B072B00D89BE10B9B012B00D8B3E1B9
:1015CC0021005848FFF714FCB82398465B46424666
:1015DC001B68059953432A68FB18DB6812019B189A
:1015EC009A68DB688A4200D15CE121004E480AF01F
:1015FC0079FD0D9B132B00D88DE1FF235246234020
:10160C00143B9B00D3589846DA23152C00D142E1A9
:10161C00182C00D196E1D823162C00D13BE1172CC5
:10162C0000D199E1079B072B00D832E10B9B012BD2
:10163C0000D899E121003B48FFF7DAFB5A46B82362
:10164C001268414653432A68FB18DB6812019B1849
:10165C009A68DB68354800920193089A099BFFF75A
:10166C00EFFB5A46B8231268264853430022FB1856
:10167C001A612B68029A591C29600AF033FD5B46EB
:10168C001968B8234B432A68FB18DB6810010A92CF
:10169C001A18185C94460300143BDBB2082B00D9D3
:1016AC007AE1234A9B00D3589F4653460498196A03
:1016BC000AF018FD2300079455E753460498196A5D
:1016CC000AF010FD079B4EE758466746C8339B004F
:1016DC001F50013450E5C04698E201209C83022043
:1016EC00F889022000E3012018DE01208C830220FF
:1016FC0058E10120A4830220DCE201206C1D0220B1
:10170C002CE101203CE1012020E4012054DE0120E9
:10171C00F8F50120C8E10120E4E1012044E40120B6
:10172C000000101638E2012068E201207CE2012062
:10173C0068E4012053461A68B82353435A46D2181A
:10174C001269002A01D031686EE418335B44984961
:10175C00180017F0BBFB316866E4DB68002B00D087
:10176C0094E63A0093490FA809F098FC92490EAA06
:10177C000FA817F09FFA0E9B039A59469B009A5894
:10178C00B82309684B4329684344DB6809015B189B
:10179C009868D96800900191210088480AF0A2FC51
:1017AC002B68029A591C864829600AF09BFC5B4600
:1017BC001968B8234B432A684344DB681701D819CE
:1017CC00DF5D3B00143BDBB2082B00D9D6E07D4A31
:1017DC009B00D3589F467C480AF084FC2B68029AE5
:1017EC00591C774829600AF07DFC5B461968B823C0
:1017FC004B432A68FB18DB6810010A921A18185C14
:10180C0094460300143BDBB2082B00D9C4E06F4AAA
:10181C009B00D3589F46DA46BB46C5E55346049811
:10182C00196A0AF05FFCAAE6DA46BB4686E5B846BA
:10183C00B9342B68029A591C614829600AF052FC91
:10184C005B46196823004B432A684344DB68170145
:10185C00D819DF5D3B00143BDBB2082B00D98DE0BF
:10186C005B4A9B00D3589F4653460498196A0AF06A
:10187C0039FCDEE718335B441800290017F026FB0F
:10188C0074E54B46186053480AF02CFC3168FFF79E
:10189C00CBFB2300C833039A9B009B58089300236F
:1018AC000993CBE606998B4200D09EE60B00059A75
:1018BC00210049480AF016FC2B68029A591C404832
:1018CC0029600AF00FFC5B46196843464B432A68B3
:1018DC00FB18DB6810010A921A18185C9446030076
:1018EC00143BDBB2082B57D83C4A9B00D3589F467D
:1018FC002300C833039A9B009B580593002306933F
:10190C0062E6D42292009446039B63441A685B6897
:10191C000592069358E6324A14219046E3B24046AB
:10192C00254A09F0CFFB6FE60C9B1A685B680592A1
:10193C00069349E6DF23039A9B00D3580593DB17E4
:10194C00069341E6D42292009446039B63441A68A2
:10195C005B680892099371E6DF23039A9B00D358C6
:10196C000893DB17099369E60C9B1A685B6808926D
:10197C00099363E61B4A1360FFF74FFBDA46C34635
:10198C00B846434618480AF0ADFB00234A4613609C
:10199C002B6801332B60D9E4DA468046BB460A9AA1
:1019AC00EFE7DA46C34690460A006146E9E7C046CF
:1019BC00F889022054DE0120F8F50120A8E101206D
:1019CC003CE101208CE4012008E20120B0E401207C
:1019DC00D4E4012018E3012054E20120F8E40120B2
:1019EC00988A022078820220ACE20120F8B5050F1B
:1019FC0004010B012E000A0F24091B099C4200D87C
:101A0C0016000B2D00D1CAE10A2D00D136E10B2AAC
:101A1C0001D1994AD31A0F200700020027401A401F
:101A2C00BA1811000A390025092900D820E10F2025
:101A3C0021091F0907400140C91949190F000A3F24
:101A4C000025092F00D80FE10F2009018A18270A59
:101A5C00190A014007407F187F193D000A3D0021FB
:101A6C00092D00D8FCE00F203F02BF18250B1A0BE4
:101A7C0002400540AD186D182A0000210A3A8C4628
:101A8C00092A00D8E7E02A03D2190F27200C190CD9
:101A9C00394038404018604401000A3900250929B2
:101AAC0000D8D4E00F2700048218210D180D3840FF
:101ABC0039400918491908000A380025092800D8A6
:101ACC00C1E00F2709058918180E220E3A4038403C
:101ADC001218521915000A3D092D00D8B0E00F2339
:101AEC001206521814021A400A3A240A052A00D87F
:101AFC00DDE123061B0F0A3B052B00D8E2E1230591
:101B0C001B0F0A3B052B00D8E7E123041B0F0A3BF4
:101B1C00052B00D8EFE123031B0F0A3B052B00D844
:101B2C00F7E10F23250D2B400A3B052B00D8FFE1D5
:101B3C00F0231B051C4200D108E20F2108002040B5
:101B4C000700093F0022431C092F00D873E00F2027
:101B5C002109014089180A000A3A0027092A66D986
:101B6C000901CB180F21220A0A40D21917000A3F8B
:101B7C000020092F57D90F211202D218230B0B402A
:101B8C001B181F000A3F0020092F48D90F21240CD5
:101B9C000C40241820001B030A389B18002209282B
:101BAC0039D92404E4180F231D40AD182A000A3A31
:101BBC00092A2DD92D052C190F2527022C400A3C5A
:101BCC003F0A052C00D8F0E13B061B0F0A3B052B06
:101BDC0000D8E4E13B051B0F0A3B052B00D8D5E1EF
:101BEC003B041B0F0A3B052B00D8C6E13B031B0F24
:101BFC000A3B052B00D8B7E13B021B0F0A3B052B18
:101C0C0000D8A8E10B2E00D1CFE030073843F8BD47
:101C1C0006351D40CEE706340C400132C1E70633D1
:101C2C000B400130B2E706320A400130A3E706311F
:101C3C000140013794E70B0007300340013286E77F
:101C4C0006323A404BE706313940013539E7063068
:101C5C003840013526E7012206359446054012E747
:101C6C00063707400131FEE6063101400135EBE64F
:101C7C00063202400135DAE6999999000A2A00D019
:101C8C00C5E60F273C003B000C400340E418230042
:101C9C0000220A3B9446092B03D801239C460634A8
:101CAC003C400F230E0902091A401E40B618664428
:101CBC00320000270A3ABC46092A03D806361E40D1
:101CCC000E3B9C460F270B0A020A3A403B409B18DE
:101CDC0063441A0036010A3A34190026092A02D83C
:101CEC0006333B4001360F271B021A190C0B030B52
:101CFC003B403C40E418A41923000A3B0026092B66
:101D0C0002D806343C4001360F272403A4180B0CD0
:101D1C00020C3A403B409B189B191A000A3A0026C9
:101D2C00092A02D806333B4001360F271B041C1925
:101D3C00020D0B0D3B403A40D218921913000A3B8E
:101D4C00092B01D806323A400F231205121917023B
:101D5C001A400A3A3F0A052A00D86FE13B061B0FCE
:101D6C000A3B052B00D893E13B051B0F0A3B052BC7
:101D7C0000D884E13B041B0F0A3B052B00D875E10E
:101D8C003B031B0F0A3B052B00D866E13B021B0FE4
:101D9C000A3B052B00D857E12807384337E70B2AB5
:101DAC0000D16EE7BD4A141B35E60F22BB48002359
:101DBC00C71B100038400400093C411C092C00D8FA
:101DCC0010E10F203A090240D21814000A3C0023FB
:101DDC00092C00D802E10F2012015218390A0140D7
:101DEC00C9180B000A3B0024092B00D8F2E00902A9
:101DFC008A180F21380B0840001903000A3B0024F5
:101E0C00092B00D8E2E003030F20390C014009191B
:101E1C009B180A000A3A0024092A00D8D2E00F20A5
:101E2C003A0D02401219140009040A3CCB18002187
:101E3C00092C00D8C2E00F201205D2183B0E03402B
:101E4C005B181C000A3C092C00D8B4E01B069B183C
:101E5C000F221F0213400A3B3F0A052B00D8E7E074
:101E6C003B061B0F0A3B052B00D8DBE03B051B0F89
:101E7C000A3B052B00D8CCE03B041B0F0A3B052B7F
:101E8C0000D8BDE03B031B0F0A3B052B00D8AEE08E
:101E9C003B021B0F0A3B052B00D9B6E6C023DB0324
:101EAC009C46674439007E480AF01CF9ADE60634BE
:101EBC0021007B480AF016F923061B0F0A3B052B61
:101ECC0000D91CE66034210075480AF00BF9230593
:101EDC001B0F0A3B052B00D917E6C023DB009C46E1
:101EEC00644421006E480AF0FDF823041B0F0A3BE2
:101EFC00052B00D90FE6C023DB019C46644421006E
:101F0C0067480AF0EFF823031B0F0A3B052B00D997
:101F1C0007E6C023DB029C466444210060480AF0BB
:101F2C00E1F80F23250D2B400A3B052B00D9FFE5CB
:101F3C00C023DB039C466444210059480AF0D2F8C4
:101F4C00F0231B05250D1C4200D0F6E52100554859
:101F5C00FEF74EFFF1E5C023DB039C4667443900D6
:101F6C004F480AF0BFF84DE6C023DB029C4667449D
:101F7C0039004B480AF0B6F83EE6C023DB019C461C
:101F8C006744390046480AF0ADF82FE6C023DB0061
:101F9C009C466744390042480AF0A4F820E66037B2
:101FAC0039003F480AF09EF814E6063739003C48E1
:101FBC000AF098F808E60633034047E70632024079
:101FCC00013138E706310140013428E7063008407A
:101FDC00013418E706310140013408E706320240AB
:101FEC000133F8E60730024011000133E9E6C02363
:101FFC00DB029C466744390029480AF073F847E72E
:10200C00C023DB019C466744390025480AF06AF876
:10201C0038E7C023DB009C466744390020480AF0AF
:10202C0061F829E7603739001D480AF05BF81DE7B5
:10203C00063739001A480AF055F811E70637390007
:10204C0017480AF04FF889E6C023DB039C46674427
:10205C00390013480AF046F89EE6C023DB029C4682
:10206C00674439000E480AF03DF88FE6C023DB01C7
:10207C009C46674439000A480AF034F880E6C023CD
:10208C00DB009C466744390005480AF02BF871E6E2
:10209C006037390002480AF025F865E699999900ED
:1020AC001CE5012054E5012070B5D825AD000400D5
:1020BC000D494059FFF79AFCCD230002000A5B0042
:1020CC00984207D30948D82301229B00E0507C3367
:1020DC00E25070BD60590449FFF788FC0001030908
:1020EC00A02000061843EEE7010000A0990100A013
:1020FC0070B5D825AD0004000D494059FFF776FCAA
:10210C00CD230002000A5B00984207D30948D8236C
:10211C0001229B00E0507C33E25070BD60590449B1
:10212C00FFF764FC00010309A02000061843EEE74A
:10213C00010000B0990100A0F0B5DE4657464E46AE
:10214C0045469946E0B587B0140004920A010B0F7E
:10215C008A4611094A469B468C464B461201120987
:10216C000094019280460099019A1B0F944501D965
:10217C0000F04DFD01D100F046FD5A4603930B2AA9
:10218C0001D100F04BFD0A2A01D100F05FFD0B2BB1
:10219C0007D1009801990D4A0D4B121A8B410092F0
:1021AC0001930F244346009D2340254018002A002C
:1021BC0000230021801859410A225242D3171218C9
:1021CC004B41002B01D100F032FD03E09999999914
:1021DC009999000000239946634642460F271B0736
:1021EC0012091A433A401400019B009A1B07160966
:1021FC001E433E4000253200002312196B414C4611
:10220C00002512196B410A246442E517A4185D419C
:10221C00002D01D001F059F8092C01D901F055F825
:10222C00941D3C40220001240023A146160F1D01E1
:10223C001401634642460F271B06120A1A43354304
:10224C003A4024184D41019B1000009A1B06160AB7
:10225C001E433E4000213200002312184B414846D9
:10226C00002112184B410A204042C11780185941D5
:10227C00002901D001F025F8092801D901F021F835
:10228C00911D39400A00012100238946160E1002C7
:10229C001902424663460F271B05120B1A433143A2
:1022AC003A4024184D41019B1000009A1B05160B57
:1022BC001E433E4000213200002312184B41484679
:1022CC00002112184B410A204042C1178018594175
:1022DC00002901D000F0F1FF092801D900F0EDFF31
:1022EC00911D39400A00012100238946160D19035E
:1022FC001003634642463143001969410F251B0404
:10230C00120C1A432A400600019B1000009A1B0471
:10231C00140C1C432C400F00220000210023121827
:10232C004B414846002112184B410A204042C1172C
:10233C0080185941002901D000F0BBFF092801D9B0
:10234C0000F0B7FF911D29400A00012100238946A6
:10235C00110C14041D04424663460D4336196F419B
:10236C000F251B03120D1A432A401000019B009AE3
:10237C001B03140D1C432C400021220000231218B7
:10238C004B414846002112184B410A204042C117CC
:10239C0080185941002901D000F087FF092801D984
:1023AC0000F083FF911D29400A000121002389467A
:1023BC00110B14051D05424663460D4336196F413A
:1023CC000F251B02120E1A432A401000019B009A83
:1023DC001B02140E1C432C40002122000023121857
:1023EC004B414846002112184B410A204042C1176C
:1023FC0080185941002901D000F053FF092801D958
:10240C0000F04FFF911D29400A000121002389464D
:10241C001D064346110A180F0D4300230021140614
:10242C00A4197D41009E320F12184B4148460021E1
:10243C0012184B410A204042C117801859410029FB
:10244C0001D000F02BFF092801D900F027FF901DC7
:10245C000F310840020000230127160919073143E8
:10246C001007001969410F266346049005910199E4
:10247C00334031401C0000250A00002312196B4127
:10248C003C00002512196B410A246442E517A4187C
:10249C005D41002D01D000F0FDFE092C01D900F0AA
:1024AC00F9FE0121941D34402200884604980599B8
:1024BC001500002463460F27001969411C093C4094
:1024CC002200019C002526093E40340000231219ED
:1024DC006B414446002512196B410A246442E517EE
:1024EC00A4185D41002D01D000F0D0FE092C01D9BB
:1024FC0000F0CCFE941D3C4022000124A046634613
:10250C0000240F27150124184D41190A39400A00DF
:10251C00019900230E0A3E403000002112184B4155
:10252C004046002112184B410A204042C117801826
:10253C005941002901D000F0A5FE092801D900F06D
:10254C00A1FE911D39400A000121884600206346F6
:10255C000F27110224184D41190B39400A0001991B
:10256C0000230E0B3E403000002112184B41404618
:10257C00002112184B410A204042C11780185941C2
:10258C00002901D000F07AFE092801D900F076FE6E
:10259C00911D39400A000121884663460F2700200F
:1025AC001B0C11033B4024184D411800019B0021CA
:1025BC001E0C3E4032000023801859414246002335
:1025CC00801859410A225242D31712184B41002B42
:1025DC0001D000F04FFE092A01D900F04BFE831DFB
:1025EC003B4018000123984600220304A4185D41C7
:1025FC0063460F271B0D3B401800019B00211E0D4D
:10260C003E40320000238018594142460023801876
:10261C0059410A225242D31712184B41002B01D0B8
:10262C0000F024FE092A01D900F020FE831D3B4056
:10263C0018000123984600220305A4185D41634647
:10264C000F27180E019B00211E0E3E403200002366
:10265C008018594142460023801859410A2252429F
:10266C00D31712184B41002B01D000F0FCFD092AA6
:10267C0001D900F0F8FD831D3B4018000126002213
:10268C000199030612196B4130000C0F0025002133
:10269C0024184D410A204042C117001969410029F4
:1026AC0003D1092801D800F0D8FD00202107121809
:1026BC004B411B0416001D0C0F2333401800140053
:1026CC0000210A225242D31780185941002901D106
:1026DC0000F0A9FF21060A0F00230A204042C1176F
:1026EC0012184B41002B01D100F0F2FF21050A0F0B
:1026FC0000230A204042C11712184B41002B01D174
:10270C0000F0F5FF21040A0F00230A204042C117F4
:10271C0012184B41002B01D101F078F821030A0F5C
:10272C0000230A204042C11712184B41002B01D143
:10273C0000F09EFF21020A0F00230A204042C1171D
:10274C0012184B41002B01D100F0A2FF21010A0FFE
:10275C0000230A204042C11712184B41002B01D113
:10276C0000F0A6FF2901220F0A430A204042C1179C
:10277C002B0F12184B41002B01D100F0C8FFF02396
:10278C001B032B4201D100F002FF0F231900214043
:10279C000A009C4601260023002709204042C1174D
:1027AC00B6185F418018594100960197002901D055
:1027BC0000F04FFD092801D900F04BFD63460732AC
:1027CC001340009300230193013398462A072309F1
:1027DC0013430F2294461A40100000214246002356
:1027EC0012184B410A204042C11780185941002948
:1027FC0001D000F02AFD092801D900F026FD604621
:10280C00911D08400121020000238846110F8C46BF
:10281C006646190110013143009A019B12184B4175
:10282C00009201932A06230A13430F2294461A405E
:10283C00100000214246002312184B410A2040424E
:10284C00C11780185941002901D000F0FAFC092861
:10285C0001D900F0F6FC6046911D084001210200F0
:10286C0000238846110E8C4666461902100231432D
:10287C00009A019B12184B41009201932A05230BDD
:10288C0013430F2294461A401000002142460023A5
:10289C0012184B410A204042C11780185941002997
:1028AC0001D000F0CAFC092801D900F0C6FC604632
:1028BC00911D08400121020000238846110D8C4611
:1028CC006646190310033143009A019B12184B41C1
:1028DC00009201932A04230C13430F2294461A40AE
:1028EC00100000214246002312184B410A2040429E
:1028FC00C11780185941002901D000F09AFC092811
:10290C0001D900F096FC6046911D0840012102009F
:10291C0000238846110C8C4666461904100431437A
:10292C00009A019B12184B41009201932A03230D2C
:10293C0013430F2294461A401000002142460023F4
:10294C0012184B410A204042C117801859410029E6
:10295C0001D000F06AFC092801D900F066FC604641
:10296C00911D08400121020000238846110B8C4662
:10297C006646190510053143009A019B12184B410C
:10298C00009201932A02230E13430F2294461A40FD
:10299C00100000214246002312184B410A204042ED
:1029AC00C11780185941002901D000F03AFC0928C0
:1029BC0001D900F036FC6046911D0840012102004F
:1029CC0000238C46110A88464646190610063143E8
:1029DC00009A019B12184B41002100920193624610
:1029EC000023200F12184B410A204042C1178018B7
:1029FC005941002901D000F010FC092801D900F040
:102A0C000CFC901D0F3108400E3902000023884643
:102A1C0011098C46190766460F23314310079C4653
:102A2C00009E019F2B4036184F4142461800002152
:102A3C00002312184B410A204042C11780185941FB
:102A4C00002900D0E6E3092800D9E3E36046911D94
:102A5C00084001210200884611000F2200202B099A
:102A6C0094461A4036184F4100231000002142466C
:102A7C0012184B410A204042C117801859410029B5
:102A8C0000D0C4E3092800D9C1E36046911D084079
:102A9C0001210200884611010F2200202B0A9446C6
:102AAC001A4036184F4100231000002142461218DC
:102ABC004B410A204042C11780185941002900D0CF
:102ACC00A2E3092800D99FE36046911D084001212B
:102ADC0002008C4600201102801979410F262B0B25
:102AEC0033401C0000256246002312196B410A2456
:102AFC006442E517A4185D41002D00D082E3092C37
:102B0C0000D97FE3941D34402200012400261703D2
:102B1C008019794100222304801859410B040600C6
:102B2C000F2131400A0004001D0C0A204042C1173D
:102B3C00002312184B41002B01D100F083FD21061C
:102B4C000A0F00230A204042C11712184B41002BD8
:102B5C0001D100F0ECFD21050A0F00230A204042B0
:102B6C00C11712184B41002B01D100F0EFFD2104CD
:102B7C000A0F00230A204042C11712184B41002BA8
:102B8C0001D100F0F3FD21030A0F00230A2040427B
:102B9C00C11712184B41002B01D100F0F7FD210297
:102BAC000A0F00230A204042C11712184B41002B78
:102BBC0001D100F0FBFD21010A0F00230A20404245
:102BCC00C11712184B41002B01D100F0FFFD290158
:102BDC00220F0A430A204042C1172B0F12184B41F7
:102BEC00002B01D100F002FE039B0B2B00D170E3F4
:102BFC002000039B1907294307B03CBC904699461B
:102C0C00A246AB46F0BD884201D8FFF7B6FA5A4649
:102C1C0003925A460B2A01D0FFF7B5FA0B2B19D0A9
:102C2C00094B1B1A984600239C46FFF7BAFA092A4F
:102C3C0001D9FFF7CFFA831D23401800012300218F
:102C4C009946FFF7C9FAC046999999000A2B01D009
:102C5C00FFF79DFA0F2104000C402200049C002376
:102C6C000C4026000027B6185F410A225242D317A7
:102C7C0092197B41002B01D000F0D1FC092A01D91B
:102C8C0000F0CDFCB31D0B401E00012300279C4619
:102C9C00534602091B071A4300230F2101934B468D
:102CAC000A400092049A1B0712091A4314000C40A4
:102CBC002200009C019D002312196B4164460025E3
:102CCC0012196B410A246442E517A4185D41002DCA
:102CDC0001D000F0A0FC092C01D900F09CFC941D43
:102CEC000C400E39220000238C461D015346110F57
:102CFC000D4314010F21A4197D411B06020A1A432E
:102D0C004B460A40009401951400049A1B06160ABF
:102D1C001E430E4000253200002312196B416446FD
:102D2C00002512196B410A246442E517A4185D4171
:102D3C00002D01D000F06CFC092C01D900F068FCCE
:102D4C00941D0C40220000230126110E1D020D4380
:102D5C001402009A019B12196B4100920193534685
:102D6C000F211B05020B1A434B460A401400049A10
:102D7C001B05170B1F430F4000253A0000231219A7
:102D8C006B413400002512196B410A246442E5178B
:102D9C00A4185D41002D01D000F037FC092C01D99D
:102DAC0000F033FC941D0C40220000230126110D71
:102DBC001D030D431403009A019B12196B410092E1
:102DCC00019353460F211B04020C1A434B460A4035
:102DDC001400049A1B04170C1F430F4000253A00E3
:102DEC00002312196B413400002512196B410A247F
:102DFC006442E517A4185D41002D01D000F003FCDE
:102E0C00092C01D900F0FFFB941D0C40220000237B
:102E1C000126110C1D040D431404009A019B121978
:102E2C006B410092019353460F211B03020D1A4371
:102E3C004B460A401400049A1B03170D1F430F4006
:102E4C0000253A00002312196B4134000025121999
:102E5C006B410A246442E517A4185D41002D00D093
:102E6C00CFE3092C00D9CCE3941D0C4022000023A5
:102E7C000126110B1D050D431405009A019B121917
:102E8C006B410092019353460F211B02020E1A4311
:102E9C004B460A401400049A1B02170E1F430F40A6
:102EAC0000253A00002312196B4134000025121939
:102EBC006B410A246442E517A4185D41002D00D033
:102ECC009CE3092C00D999E3941D0C400E39220087
:102EDC0000238C46110A1D060D4314060027009A88
:102EEC00019BA4185D4100230499060F0A0F60464C
:102EFC00002192197B4112184B410A204042C11704
:102F0C0080185941002900D075E3092800D972E3D3
:102F1C00901D0F3108400E39020000238C46160913
:102F2C0019073143100724184D410F2651464F46BF
:102F3C00314037400A0000233800002180185941E5
:102F4C0062460023801859410A225242D3171218A4
:102F5C004B41002B00D04BE3092A00D948E3831DD9
:102F6C003340180001239C4603000022A4185D4145
:102F7C0053460F27190939400A0049460E093E40AD
:102F8C00002330000021801859416246002380182C
:102F9C0059410A225242D31712184B41002B00D030
:102FAC0023E3092A00D920E3831D3B4018000123A9
:102FBC009C4600220301A4185D4153460F27190AB1
:102FCC0039400A0049460E0A3E40002330000021D9
:102FDC008018594162460023801859410A225242F6
:102FEC00D31712184B41002B00D0FBE2092A00D951
:102FFC00F8E2831D3B40180001239C4651460F27E5
:10300C000022090B0302394012196B410C0049468E
:10301C000E0B3E400025300000210019694164462A
:10302C000025001969410A246442E51724184D4112
:10303C00002D00D0D3E2092C00D9D0E2841D3C40F5
:10304C0020000124A44651460F270024090C050337
:10305C00394012196B410C0049460E0C3E400025BC
:10306C0030000021001969416446002500196941AE
:10307C000A246442E51724184D41002D00D0ABE220
:10308C00092C00D9A8E2841D3C4020000124A44650
:10309C0000240504A4185D4153460F27190D39402F
:1030AC000A0049460E0D3E400023300000218018D6
:1030BC00594162460023801859410A225242D317C3
:1030CC0012184B41002B00D083E2092A00D980E270
:1030DC00831D3B40180001239846514600220305EE
:1030EC0012196B410C0E0F210D008C4625404C46DD
:1030FC006746260E374028003C00002500210019A9
:10310C00694144460025001969410A246442E517C7
:10311C0024184D41002D00D059E2092C00D956E25B
:10312C006546841D25402800012600240506121939
:10313C006B410020310712184B411B0416001D0C6B
:10314C000F2333401800140000210A225242D317D7
:10315C0080185941002900D1C8E321060A0F002329
:10316C000A204042C11712184B41002B01D100F02C
:10317C0020FC21050A0F00230A204042C117121817
:10318C004B41002B01D100F004FC21040A0F002359
:10319C000A204042C11712184B41002B00D1EAE320
:1031AC0021030A0F00230A204042C11712184B4179
:1031BC00002B00D1D1E321020A0F00230A20404248
:1031CC00C11712184B41002B00D1B8E321010A0F93
:1031DC0000230A204042C11712184B41002B00D18A
:1031EC009FE32901220F0A430A204042C1172B0FEB
:1031FC0012184B41002B00D185E35B4619072000C8
:10320C002943F9E4002481E400218C4662E4002186
:10321C00884640E4002188461EE400218846FFF7DA
:10322C00F7FB00218C46FFF7CDFB00218846FFF70A
:10323C009DFB00218846FFF76DFB00218846FFF7B8
:10324C003DFB00218846FFF70DFB00218846FFF768
:10325C00DDFA00239846FFF7B9FAA01D0F3108409C
:10326C000400FFF722FA0026FFF709FA002398461C
:10327C00FFF7E1F900239846FFF7B6F900218846DD
:10328C00FFF78BF900218846FFF760F90024A04670
:10329C00FFF735F900218846FFF708F90027FFF7FB
:1032AC00DCF800218946FFF7B3F800218946FFF7C7
:1032BC007FF800218946FFF74BF800218946FFF77C
:1032CC0015F800218946FEF7E1FF0024A146FEF720
:1032DC00ADFFE44B09267642F7171B1B19000F2490
:1032EC0021400A009C46002301200021B6185F41B2
:1032FC0080185941002F00D150E1002463461B0671
:10330C001E0F00272200002392197B410A267642C9
:10331C00F717B6185F41002F00D056E1092E00D9DF
:10332C0053E10F24951D25402A00002301261D0181
:10333C006346170F14011B053D4324184D41320001
:10334C00180F0021002312184B410A204042C117CC
:10335C0080185941002900D035E1092800D932E103
:10336C00901D0F310840020000230126190263460C
:10337C00170E100239431B0424184D413200180F4C
:10338C000021002312184B410A204042C11780181B
:10339C005941002900D014E1092800D911E1901DF0
:1033AC000F31084002000023012619036346170D54
:1033BC00100339431B0324184D413200180F002110
:1033CC00002312184B410A204042C1178018594162
:1033DC00002900D0F3E0092800D9F0E0901D0F314E
:1033EC00084002000023012619046346170C100440
:1033FC0039431B0224184D413200180F00210023C1
:10340C0012184B410A204042C1178018594100291B
:10341C0000D0D1E0092800D9CEE0901D0F31084032
:10342C000E3902000023884619056346160B1B0152
:10343C000027314310051E0F4246002392197B4191
:10344C000A267642F717B6185F4100196941002F1A
:10345C0000D0AEE0092E00D9ABE00F24951D25401D
:10346C000E3C2A000023A0461D066346160A35436F
:10347C0014061E0F002742460023001969419219B9
:10348C007B410A246442E517A4185D41002D00D04D
:10349C008DE0092C00D98AE00F24951D25402A00C7
:1034AC000023012617091D0714073D4324184D411D
:1034BC00002233000F21A4185D4121400A00002393
:1034CC000A204042C11712184B41002B00D100E2D8
:1034DC0021060A0F00230A204042C11712184B4143
:1034EC00002B00D1E8E121050A0F00230A204042FD
:1034FC00C11712184B41002B00D1CFE121040A0F48
:10350C0000230A204042C11712184B41002B00D156
:10351C00B6E121030A0F00230A204042C1171218FA
:10352C004B41002B00D19DE121020A0F00230A2000
:10353C004042C11712184B41002B00D184E12101EC
:10354C000A0F00230A204042C11712184B41002BCE
:10355C0000D16BE12901220F0A430A204042C11716
:10356C002B0F12184B41002B01D0FFF741FB052A02
:10357C0001D9FFF73DFBC0220023D205A4185D4101
:10358C00394822002B0008F0ADFDFFF731FB22007B
:10359C002B003648FDF72CFCFFF7F7F8092E00D965
:1035AC00ABE607322240100000210E3CA6E60026B6
:1035BC0078E70024A04657E70021884634E7002628
:1035CC0012E70026F1E60026D0E60026AFE600263C
:1035DC00ABE50023984680E50024A44658E500247A
:1035EC00A44630E500239C4608E500239C46E0E415
:1035FC0000239C46B8E400218C4690E400218C46C4
:10360C0068E4002635E4002603E40026FFF7CFFB30
:10361C000026FFF79AFB00218C46FFF766FB002380
:10362C009C46FFF735FB052801D9FFF753F8062216
:10363C000023A4185D410C4822002B0008F052FD19
:10364C00FFF748F8052A01D9FFF779FA062200237B
:10365C00A4185D41044822002B0008F043FDFFF73D
:10366C006EFAC046999999002CE5012054E5012089
:10367C00052A01D9FFF75EF8C0220023D202A41854
:10368C005D41D34822002B0008F02CFDFFF752F8C7
:10369C00052A01D9FFF75AF8C0220023D203A41837
:1036AC005D41CB4822002B0008F01CFDFFF74EF8C3
:1036BC00052A01D9FFF756F8C0220023D204A4181A
:1036CC005D41C34822002B0008F00CFDFFF74AF8BF
:1036DC00052A01D9FFF70AF860220023A4185D41DE
:1036EC00BB4822002B0008F0FDFCFEF7FFFF052A6B
:1036FC0001D9FFF707F8C0220023D200A4185D41BE
:10370C00B34822002B0008F0EDFCFEF7FBFF052A66
:10371C0001D9FFF734F8C0220023D205A4185D416B
:10372C00AB4822002B0008F0DDFCFFF728F8052A37
:10373C0001D9FFF710FA60220023A4185D41A448B8
:10374C0022002B0008F0CEFCFFF705FA052A01D960
:10375C00FFF70DFAC0220023D200A4185D419C484B
:10376C0022002B0008F0BEFCFFF701FA052A01D954
:10377C00FFF709FAC0220023D201A4185D41944836
:10378C0022002B0008F0AEFCFFF7FDF9052A01D949
:10379C00FFF705FAC0220023D202A4185D418C4821
:1037AC0022002B0008F09EFCFFF7F9F9052A01D93D
:1037BC00FFF701FAC0220023D203A4185D4184480C
:1037CC0022002B0008F08EFCFFF7F5F9052A01D931
:1037DC00FFF7FDF9C0220023D204A4185D417C48F8
:1037EC0022002B0008F07EFCFFF7F1F9052A01D925
:1037FC00FFF7FAF9C0220023D205A4185D417448E2
:10380C0022002B0008F06EFCFFF7EEF9052A01D917
:10381C00FEF784FFC0220023D201A4185D416C483E
:10382C0022002B0008F05EFCFEF778FF052A00D979
:10383C0090E6C0220023D204A4185D416448220003
:10384C002B0008F04FFC85E6052A00D977E6C0224C
:10385C000023D203A4185D415D4822002B0008F020
:10386C0041FC6CE6052A00D95EE6C0220023D20298
:10387C00A4185D41564822002B0008F033FC53E697
:10388C00052A00D945E6C0220023D201A4185D41C7
:10389C004F4822002B0008F025FC3AE6052A00D9F7
:1038AC002CE6C0220023D200A4185D414848220017
:1038BC002B0008F017FC21E6052A00D913E660223C
:1038CC000023A4185D41424822002B0008F00AFC9A
:1038DC0009E6052A00D9FBE506220023A4185D4160
:1038EC003B4822002B0008F0FDFBF1E5052800D930
:1038FC0033E406220023A4185D41354822002B0036
:10390C0008F0F0FB29E4052A00D976E4C022002354
:10391C00D205A4185D412E4822002B0008F0E2FBD2
:10392C006BE4052A00D95CE4C0220023D204A4185D
:10393C005D41274822002B0008F0D4FB51E4052AF6
:10394C0000D943E4C0220023D203A4185D412048CF
:10395C0022002B0008F0C6FB38E4052A00D92AE423
:10396C00C0220023D202A4185D41194822002B006A
:10397C0008F0B8FB1FE4052A00D911E4C02200238B
:10398C00D201A4185D41124822002B0008F0AAFBBA
:10399C0006E4052A01D9FFF7F8FBC0220023D20068
:1039AC00A4185D410A4822002B0008F09BFBFFF78E
:1039BC00ECFB052A01D9FFF7DCFB60220023A418DD
:1039CC005D41034822002B0008F08CFBFFF7D1FB74
:1039DC002CE50120F0B5DE4657464E464546E0B58F
:1039EC00384889B008F028FA9C239946364B374C56
:1039FC009846374BA1449B46364B9A4609E05246B3
:103A0C003100009240463A000C3408F06BFB4C45F8
:103A1C0015D02668676830003900A568FDF7E6FF09
:103A2C00019503008542EAD15B463A0000933100D0
:103A3C002B0040460C3408F055FB4C45E9D1264888
:103A4C0008F0FAF9254B9846254B9B4610E0214B84
:103A5C000290049303912B00220058460096019784
:103A6C0008F040FB18239C461E4BE04498451ED0A2
:103A7C0043461C685D689E68DF681B693200994686
:103A8C0043465B6920009A4629003B00FEF754FB35
:103A9C004B460693534607938145D8D18A45D6D1D8
:103AAC000B4B04934B46029353460393D3E70A20E4
:103ABC0008F070F909B03CBC90469946A246AB465A
:103ACC00F0BDC04664E5012078E50120D01C022041
:103ADC00A4E501209CE50120ACE50120781502202D
:103AEC00C0E50120B016022010B5072918D8072A06
:103AFC002DD91300083B012B11D86032D20082184B
:103B0C001468536822011B0F12091B071343194A2F
:103B1C002402C8311340240A890023430B5010BDE2
:103B2C000B00083B012BFAD81300083B012B15D9CD
:103B3C00072AF4D8C8329200135860311A0FC90002
:103B4C001B02401812071B0A03604260E7E7C832E9
:103B5C0092001358C83189000B50E0E76032603195
:103B6C00D200C90082184018536812680260436082
:103B7C00D5E7C046FFFFFFF070B506000C0015003E
:103B8C00072905D8072A21D91748FDF731F970BD47
:103B9C000A00083A012AF7D82A00083A012AF3D871
:103BAC001A00083A012AEFD860336035DB00ED00CB
:103BBC00C31845191A685B6828686968FEF7BCFA6F
:103BCC006034E400341920606160E0E7072BDBD837
:103BDC00C833C8359B00AD0019582858FDF706FFAF
:103BEC00C834A4003051D2E7F0E5012070B50500CF
:103BFC000C00072905D8072A26D91D48FDF7F8F827
:103C0C0070BD08390129F8D8110008390129F4D8F8
:103C1C00190008390129F0D8B0216033DB00C31832
:103C2C001E685B6809061B0160321B090B43D1003F
:103C3C004118320008684968FEF77EFA6034E400E7
:103C4C002C1920606160DBE7072BD6D8C8339B00AA
:103C5C001958B0230901C8321B06920009091058E3
:103C6C001943FDF7C3FEC834A4002851C8E7C04669
:103C7C00F0E50120F8B502000B000E0F0A2E68D0FB
:103C8C000B2E3ED1A0260B011B09360633430F2405
:103C9C0015021902100F1F0E120E22402D0A090ACE
:103CAC003C40A2422FDD121B002A20DD2B11012AE1
:103CBC0058D02B12022A55D02B13032A52D02B1476
:103CCC00042A4FD02D15052A11D0951F062A0ED087
:103CDC00D51F072A0BD0013D082A08D0013D092A1F
:103CEC0005D0013D2A0053425A415242154000076B
:103CFC0031432843FDF77AFE1B4901402006084357
:103D0C00F8BD3607C3E7A31A002B20DD0C11012BDD
:103D1C0025D00C12022B22D00C13032B1FD00C1409
:103D2C00042B1CD00915052B11D0991F062B0ED076
:103D3C00D91F072B0BD00139082B08D00139092BBF
:103D4C0005D001390B005C4263415B421940140001
:103D5C00CDE7B0260B011B093606334397E721004C
:103D6C001400C4E71D00C2E7FFFFFFF0F0B54546A5
:103D7C00DE4657464E46E0B5020F85B000920A0F5C
:103D8C0001920F2205020B02000E090E10400A4090
:103D9C002D0A1B0A02900392904200DC80E02F0057
:103DAC00EC171D000623A0219946090609330020B3
:103DBC009B468A460C430D4311E03B0F24011C43E8
:103DCC0053462D0124012D0A24091C431D430123B4
:103DDC005B429C46E1444B463F01002B14D05B46B2
:103DEC002B4098465B462B42E7D0230000264446E6
:103DFC00A8461D003A002B000136FEF79DF9A6429D
:103E0C00F8D12C004546D8E7039C029BA446F0242D
:103E1C00634424021A0021420CD00FE0050F0B0161
:103E2C002B431B01090F1B09090719430001013220
:103E3C00214203D10B041B0C0343EFD10B070009E8
:103E4C0018430B011B0A1907000908431B09190722
:103E5C00000908431B091907000908431B09190726
:103E6C00000908431B091B07000918430E4B063AAF
:103E7C0018401206009B1043019A00019B1A5A42EB
:103E8C005341B022120694465B421B07634400095F
:103E9C00184305B03CBC90469946A246AB46F0BDD3
:103EAC001F00DC177EE7C046FFFFFFF0F0B5DE46D3
:103EBC004E4657464546E0B5030F8BB005930B0FA6
:103ECC0006930F230A02040E090E1C400B400893A4
:103EDC00A0231B0619000002120A000A1143034317
:103EEC0089469B460794002A00D1B8E0F0231B04B6
:103EFC001A4200D0B5E000214A46120101311A42A3
:103F0C00FBD091460991062304938023A0245B03E4
:103F1C009A46554D24064B465A461B0112011F0961
:103F2C009A426BD3002F69D053461A0F1B021B0AFF
:103F3C0012071A434B461E0F33070393A0231B068D
:103F4C003B4390460293019741E00B2E53D1A022A4
:103F5C00029B120659465F4608023F0F19021B01CD
:103F6C00BB46000A090A1B0F23D00F11BC46012BBC
:103F7C003FD00F12BC46022B3BD00F13BC46032B79
:103F8C0037D00F14BC46042B33D00915052B10D099
:103F9C00991F062B0DD0D91F072B0AD00139082BDE
:103FAC0007D00139092B04D001394B424B415B42FC
:103FBC0019405B461B0718431143FDF717FD03001F
:103FCC002B409B46019B0002000A834216D8200F0F
:103FDC002402240A000720434146FDF707FD284030
:103FEC0004000A2EB1D1B0221206130001990B4322
:103FFC00B0E76146DDE74B46039AABE74A46A021A2
:10400C0012015346120A09061143A0221B021B0B74
:10401C0012061A43049B8946013B92460493002BDB
:10402C0000D078E7079B089A981A099B0530C01AAC
:10403C00069A059B000620439C1A63425C41B02300
:10404C001B069C466442240700016444000920437B
:10405C000BB03CBC90469946A246AB46F0BD03481B
:10406C00F6E7002309934EE7FFFFFFF0999999A01B
:10407C00D9239B00C35870B51B0F0400062B00D826
:10408C008FE0073B022B00D9D7E0DB239B00C35802
:10409C00002B00D0E9E00F21DA2308009B00E25846
:1040AC00002610400500093D431C092D00D8D7E01F
:1040BC000F201109014089190E000A3E0025092E16
:1040CC0000D8C9E00F20160A064076193500090100
:1040DC000A3DCB180021092D00D8B9E00F20150B93
:1040EC0005406D183602F6182B000A3B0021092BEF
:1040FC0000D8A9E02B030F25100C28404018010014
:10410C000A399B190026092900D892E00F25110DB8
:10411C00294089190E0000040A3EC3180020092EFC
:10412C0002D80631294001300F250905C918130E94
:10413C002B401B181E000A3E092E01D806332B40BB
:10414C000F221B065B181D0213400A3B2D0A052B80
:10415C0000D8B8E02B061B0F0A3B052B00D8ACE0AF
:10416C002B051B0F0A3B052B00D89DE02B041B0FC6
:10417C000A3B052B00D88EE02B031B0F0A3B052BAB
:10418C0000D87FE02B021B0F0A3B052B00D870E0F8
:10419C00FF231D40DA2300229B00E5500433E2503C
:1041AC0070BDDB239B00C258002A4AD0043BC25886
:1041BC000F231E0016403500093D0021701C092DEF
:1041CC0003D807363340180001310F261509354046
:1041DC006D1829000A390023092902D80635354003
:1041EC00013329010F250918100A2840C0180300B3
:1041FC000A3B0026092B02D8063028400136000263
:10420C0041180F20150B0540AD192B000A3B002659
:10421C00092B02D80635054001362B030F25100C4F
:10422C00284080195B1801000A390026092900D999
:10423C006CE706302840013668E72648FCF7D8FDC5
:10424C00AEE70122C250ABE706350540013151E71C
:10425C0006360640013141E706310140013531E7B0
:10426C000B0007300340013622E71B48FCF7D4FD56
:10427C0011E7C023DB039C4665442900174807F06F
:10428C0031FF85E7C023DB029C46654429001348B7
:10429C0007F028FF76E7C023DB019C466544290024
:1042AC000E4807F01FFF67E7C023DB009C46654400
:1042BC0029000A4807F016FF58E76035290007481F
:1042CC0007F010FF4CE706352900044807F00AFFF9
:1042DC0040E7C04650E601202CE601201CE50120F9
:1042EC00F0B5C646DB2300B59B00C35804000D0097
:1042FC0088B0002B50D0D9239B00C6580F20310B0F
:10430C0001402033320AE15002400433E2503309B9
:10431C000340E3273040E426BF00B600E351A05130
:10432C000090724807F0DEFEE3239B00E058043354
:10433C00E658020124339219E250303BE358092B22
:10434C0026D86B499B00CB589F46E923EA279B0054
:10435C00BF00E050E651674E032233002900009065
:10436C002000FCF765FCE35904220093290033007C
:10437C002000FCF773FC604E33000522290020005E
:10438C00FCF782FC3300062229002000FCF792FC8B
:10439C0008B004BC9046F0BDD9239B00C65820330E
:1043AC00310FC1500F20320E02400433E250330D56
:1043BC00360C0340E3273040E426BF00B600E3513F
:1043CC00A051ADE7D9239B00E158EE20FF230A0C46
:1043DC001A4080002250043080464646F027080AD6
:1043EC001840A051454EBF000B4020002900E3515E
:1043FC00009233000322FCF71BFC4346E3582900D0
:10440C002000009304223300FCF728FCE359290018
:10441C002000009305223300FCF736FC062229000D
:10442C002000354BFCF746FCB2E7E2239B00E35837
:10443C00052B55D047DC032BAAD8E9239B00E05071
:10444C000833E65000902B4B04E0EC239B00E25029
:10445C0000922B4B290020000322FCF7E9FB264E8F
:10446C000422330029002000FCF7F8FB84E7CB235F
:10447C00A02012019B0012090006E1581043FDF721
:10448C00B5FAEC23000100099B00E0500090E0E736
:10449C00CC23EDE7CD23EBE7EC26120119491209E9
:1044AC0003A806F0FBFD184902AA03A814F002FCAD
:1044BC00029BB6009B0019591448A15107F012FE3B
:1044CC00A3590093C5E7063B012B00D960E7E9230C
:1044DC00EA279B00E050BF000833E651E6503AE76C
:1044EC00E9239B00E0500090024BB3E780E60120EB
:1044FC00B0E6012098E60120E4F401206CE60120EE
:10450C009CE6012054DE0120F8F50120A4E60120F0
:10451C00FA2210B59200835C040086B0202B29D0BF
:10452C00432B21D141238354DA2308229B00E11829
:10453C000833E01807F024FBDC239B00E2581749F2
:10454C001201120901A806F0A9FD6A46144901A836
:10455C0014F0B0FB009B01219B001A59D9239B003E
:10456C002000E250FFF7BCFEF72301229B00E25033
:10457C0006B010BDE0239B00C358002B06D0D423FB
:10458C009B00C3181A68D9239B00C250FA234122FE
:10459C009B00E254393A803BC9E7C04654DE012007
:1045AC00F8F50120DA23F0B5544C9B00C646E258CE
:1045BC000433E3582126591E8B4100B5504F5B4202
:1045CC005049334096B020333800884606F066FDDB
:1045DC004D4D4E493A00280006F060FDDC239B004F
:1045EC00E2580433E3583800591E8B415B42334088
:1045FC002033414606F052FD3A00454902A806F028
:10460C004DFD280002A914F0F5FBD4239B00E31800
:10461C000CCB511C68D03F4E3F49300006F03EFD9C
:10462C0032003E4902A806F039FD02A9280014F018
:10463C00E1FBD9239B00E258394902A806F02EFD74
:10464C0002A9280014F0D6FBF521F423DF228900FF
:10465C0061589B009200E358A25802A8009131497E
:10466C0006F01CFD280002A914F0C4FBD6239B0005
:10467C00E258531C40D02C4E2C49300006F00EFD55
:10468C0032002B4902A806F009FD280002A914F0FB
:10469C00B1FBD7239B00E258531C2BD0224E23494D
:1046AC00300006F0FBFC3200224902A806F0F6FCB2
:1046BC00280002A914F09EFBD8239B00E258531C3F
:1046CC0016D0194C1949200006F0E8FC22001A49B2
:1046DC0002A806F0E3FC280002A914F08BFB2800CA
:1046EC0016B004BC9046F0BD591C94D1134A98E7FF
:1046FC00134AECE7124AD7E7114AC2E708860220B0
:10470C0050830220E8E6012010840220F0E601200C
:10471C0004E70120C082022018E7012020E70120D5
:10472C0034E701204CE701201083022094EB012098
:10473C0074E7012088E701209CE70120D8E60120DE
:10474C00E4E60120F0B5D6464F4646464A48C0B589
:10475C0007F0C8FC494807F0C5FCFFF723FF010030
:10476C00474807F0BFFC474B00249946464B474D42
:10477C009846474E474F0DE022324146380006F02E
:10478C008DFC3A0021003000013407F0ABFC0435FD
:10479C00082C18D02B685A1C63D01A0F1B011B094C
:1047AC000A2A5CD00B2AE7D03A4904358A463A49A2
:1047BC00504606F073FC210052463000013407F0DD
:1047CC0091FC082CE6D1D023344C9B00E3180CCB85
:1047DC00511C48D0324D3349280006F05FFC2A00AA
:1047EC000821300007F07EFCD2239B00E3180CCB91
:1047FC00511C3CD02A4D2B49280006F04FFC2A00B6
:10480C000921300007F06EFC0A2007F0C3FA264895
:10481C0007F068FC254807F065FCE9239B00E1588C
:10482C00234807F05FFCEA239B00E158214807F07E
:10483C0059FCEB239B00E1581F4807F053FCED2378
:10484C009B00E258043BE1581C4807F04BFC0A2043
:10485C0007F0A0FA1CBC90469946A246F0BD2B224C
:10486C008BE74A468EE7591CB4D1064AB8E7591C67
:10487C00C0D1044AC4E7C046B0E70120B8E7012024
:10488C00C0E70120D8E60120D0E7012028890220CA
:10489C00D8E70120B0820220C4E70120088602205C
:1048AC00C082022018E70120E8E70120F4E701208C
:1048BC0000E8012014E8012028E801203CE8012050
:1048CC0030B5B3B0050002F0D3FC184802F000FF7D
:1048DC00041E1FD02900164806F0E0FB28001549DD
:1048EC0012F0D2FF041E18D0134D03E069462800C5
:1048FC0007F0F8FB2200C721684613F057F8002890
:10490C00F4D1200013F034F8012402F0CFFC200085
:10491C0033B030BD02F0CAFCF9E72900074807F0B4
:10492C00E1FB002402F0C2FCF1E7C0463CDF0120B1
:10493C0060E8012078F9012038E1012070E80120BD
:10494C00F0B5B3B0050002F093FC214802F0C0FEB4
:10495C00041E32D029001F4806F0A0FB28001E4977
:10496C0012F092FF061E2BD01C4F3200C721684656
:10497C0013F01CF8002817D06B461B782A2BF4D1A7
:10498C00174C250050356A4621003800636898475B
:10499C000028EAD10834AC42F5D13200C721684670
:1049AC0013F004F80028E7D1300012F0E1FF0124E5
:1049BC0002F07CFC200033B0F0BD02F077FCF9E78C
:1049CC002900084807F08EFB002402F06FFCF1E789
:1049DC003CDF012060E8012078F9012008860220E4
:1049EC00C019022070E8012010B50100040007482E
:1049FC00FFF7A6FFF92200239200A350043AA3501C
:104A0C00F72301229B00E25010BDC046C08C02204F
:104A1C0010B502490248FFF793FF10BD088602202B
:104A2C0084E80120F0B5C64600B55C4C0500A544F1
:104A3C0001A814F04BFA01A9594807F053FB02F0F6
:104A4C0017FC584802F044FE041E00D197E00A22DD
:104A5C0001A906A80FF050F8002876D1524906A8F3
:104A6C0011F0F2FCDA239B00EA58504906A811F029
:104A7C00EBFCDB239B00EA584D4906A811F0E4FC43
:104A8C00D4239B00EB181A685B684A4906A811F0FE
:104A9C00DBFCD6239B00EA58474906A811F0D4FC4E
:104AAC00D7239B00EA58454906A811F0CDFCD82322
:104ABC009B00EA58424906A811F0C6FCD9239B007A
:104ACC00EA58404906A811F0BFFCDE239B00EA58C7
:104ADC003D4906A811F0B8FCC82300249B003B4FAD
:104AEC00EE182200390008CE06A8013411F0ACFCF7
:104AFC00082CF6D1C823364C9B0021000822EB5819
:104B0C0006A811F0A1FCC9239B002100EB58092237
:104B1C0006A811F099FC2F4906A811F095FC2E4B14
:104B2C000024072698462D4F08E0A3003900EA58C8
:104B3C0006A8013411F088FCC82C13D02642F4D1FD
:104B4C00414606A811F080FCEFE7254807F0CAFAA9
:104B5C00002402F0ABFB20009E239B009D4404BC70
:104B6C009046F0BD1F4906A811F06EFC06A810F087
:104B7C002BFC041E06D102F099FB0124EBE702F09A
:104B8C0095FBE8E712F074FE22000100164807F0CE
:104B9C00A9FA002402F08AFBDDE7C04688FDFFFF7E
:104BAC0090E801203CDF0120A8E80120D4E8012096
:104BBC00E8E80120FCE8012010E901202CE90120A3
:104BCC0048E9012064E9012080E9012098E90120ED
:104BDC00A4E90120B4E90120C0E90120C4E90120C5
:104BEC009CE801209CE00120CCE9012030B50400B8
:104BFC000C4D85B02A000C4B0C490D4802F0DCFD25
:104C0C000C4B29001A686846013206F047FA6946CF
:104C1C002000FFF707FF6946074807F063FA05B065
:104C2C0030BDC046F0E90120E4E9012000EA012092
:104C3C003CDF01208C8202200CEA012010B50948CF
:104C4C0002F03EFB002808D0074C08482100FFF773
:104C5C00E9FE2000FFF734FE10BD0549054807F0BA
:104C6C0041FAF1E73CDF012084E8012008860220AC
:104C7C00F88B022024EA0120002370B5204D0C0093
:104C8C002B7082B00B00072916D9083B012B02D9D7
:104C9C00280002B070BD1B4ED0339B001A581A4925
:104CAC000023300006F0FAF9230010212800174ADF
:104CBC00009606F007FAEBE7C8339B001B585A1C0A
:104CCC001CD01A0F1B011B090A2A15D00B2A0CD158
:104CDC0022320F4E0F49300006F0E0F9330022006B
:104CEC0028000A4906F0DAF9D2E7094E0A493000E1
:104CFC0006F0D4F93300F2E72B22EAE7074BEEE794
:104D0C00D0820220C082022018E7012030EA012064
:104D1C00B0820220D0E70120C4E70120D8E60120B0
:104D2C00F0B54546DE4657464E46E123E0B59B00BE
:104D3C00C35804000D008BB0092B3ED8E44A9B00ED
:104D4C00D3589F46E926EB23B60081599B00C058E7
:104D5C00072901D800F069FC0B00083B012B01D896
:104D6C0000F00CFD0A00DB48DB49FCF741F8A159C7
:104D7C002000FFF781FFD94E290033000090032259
:104D8C002000FBF755FFEA239B00E1582000FFF7BA
:104D9C0073FF33000090042229002000FBF75EFF14
:104DAC00CF4E3300052229002000FBF76DFF3300A6
:104DBC00062229002000FBF77DFF0BB03CBC90467F
:104DCC009946A246AB46F0BDE2239B00C358092B83
:104DDC00F3D8C44A9B00D3589F46EE239B009A46B7
:104DEC00C358C14F1A013900120905A806F056F92B
:104DFC00BE4E04AA310005A813F05CFFF1239B0002
:104E0C009B465A46049B39009B001B5905A8A3508E
:104E1C00EF239B009946E3581A01120906F03EF95C
:104E2C00310004AA05A813F045FF049B39009B0030
:104E3C001B59F3270393F223039A9B00E250F022B1
:104E4C0092009046A25805A81201120906F026F904
:104E5C00310004AA05A813F02DFF049ABF0093009B
:104E6C001A59A34EE2515A46A258330001925246A7
:104E7C00A2582900200000920322FBF7D9FEF2234E
:104E8C009B00E358042201934B46E3582900200071
:104E9C0000933300FBF7E2FEE359052201934346EE
:104EAC00E3582900009320003300FBF7EDFE0622A7
:104EBC00290020008A4BFBF7FDFE7EE7EE23F12252
:104ECC009B00C358920083500432904641460C3AE2
:104EDC008258F3274250F02292008258854EBF0030
:104EEC00C2512900009303223300FBF7A1FE434675
:104EFC00E35829002000009304223300FBF7AEFE98
:104F0C00E35905220093290033002000FBF7BCFE77
:104F1C00CDE7E2239B00C358072B00D94DE7764A17
:104F2C009B00D3589F46E2239B00C358092B00D902
:104F3C0043E7724A9B00D3589F46E926EB23B60001
:104F4C0081599B00C758072900D87FE30B00083B09
:104F5C00012B01D800F032FC0A005E486849FBF7CF
:104F6C0047FFA15904E7E9239B00C1580B00C83344
:104F7C009B001A58634807F0B5F8E4239B00E358EC
:104F8C00042B00D9B6E2604A9B00D3589F46E92314
:104F9C009B00C15808330A00C358072900D939E3CC
:104FAC00A0201B01C8321B090006920003431351B9
:104FBC002000FFF761FE0322484B009029002000DF
:104FCC00FBF736FE464E0422330029002000FBF787
:104FDC0045FEE6E6E927EB23BF00C1599B00C0580C
:104FEC00072900D863E30B00083B012BE0D8C02352
:104FFC00B022C90061189B00CE18736812061B0101
:10500C001B091343C1173268FDF796F830607160C5
:10501C00E159CDE7E927EB23BF00C1599B00C258EA
:10502C00072900D822E30B00083B012BC0D8C9008C
:10503C004118A020D3171B0100061B090343C020F5
:10504C0080000E1830687168FDF776F8306071607A
:10505C00E159ADE7E927EB23BF00C1599B00C058CC
:10506C00072900D812E30B00083B012BA0D8C02362
:10507C00C90061189B00CE18B023C11709011B068B
:10508C000909194332687368FDF756F8306071608E
:10509C00E1598DE7F52301229B00C250303BE158CA
:1050AC0066E6EA27E926BF00B600C2598159FEF729
:1050BC001BFDA1592000FFF7DFFD084E29000090D1
:1050CC00330003222000FBF7B3FDE1595EE6C04636
:1050DC00B8EB012010E6012068F2012038E1012034
:1050EC00E4F40120E0EB012054DE0120F8F501206E
:1050FC00A8EB01206CE6012008EC012028EC012033
:10510C0054F2012038EA012050EC0120E926EA276C
:10511C00B6008359BF001900C2592000FEF766FD86
:10512C00C7E7E926EA27B6008259BF001100C35928
:10513C00F3E7E926EA27B6008259BF001100C359EC
:10514C00FEF71AFDB5E7E9239B00C6580433C15896
:10515C00072900D8D9E20B00083B012B00D895E3B6
:10516C00E948FBF745FE072E00D8BDE23300083BAB
:10517C00012B00D86FE33200E449E548FBF738FE19
:10518C00E9239B00E158F3E5EA239B00C15807296A
:10519C0000D8E7E20B00083B012B00D87BE3DA4890
:1051AC00FBF726FEE9273100DA48BF0006F09AFF2C
:1051BC00E159072900D8CAE20B00083B012B00D8A3
:1051CC0039E3D148FBF714FEE359C8339B00195956
:1051DC00D14F380006F086FFEA239B00E1580B0004
:1051EC00072900D88EE3083B012B00D8BFE2C64844
:1051FC00FBF7FEFDE926B600A159072900D89BE272
:10520C000B00083B012B00D806E3BF48FBF7F0FD71
:10521C00A359C8339B001959380006F063FFE923E2
:10522C009B00E158A4E5E9239B00C6580433C15800
:10523C00072900D87AE20B00083B012B00D84AE37F
:10524C00B148FBF7D5FD072E00D865E23300083BCB
:10525C00012B00D825E33200B049AD48FBF7C8FD5F
:10526C008EE7EC239B00C2580023AD4EAD49337042
:10527C0093001B58300005F011FF03222900200079
:10528C00A94B0096FBF7D4FCA84E0422330029004E
:10529C002000FBF7E3FC3300052229002000FBF77C
:1052AC00F3FC3300062229002000FBF703FDF52355
:1052BC0001229B00E25080E5F52301229B00C250A5
:1052CC00243BC35802320093994B77E6DE23EC263D
:1052DC009B00B600C758835996491A01120905A8B4
:1052EC0005F0DCFE944904AA05A813F0E3FC049B2A
:1052FC00A2599B001F510023894E8A493370930099
:10530C001B59300005F0CAFE0322874B009655E668
:10531C00DF239B00C658002E31D1FEF7A9FEDA22FE
:10532C00DE239200A1589B00E1503833E358A35080
:10533C000432A65000937E4B290020000322FBF779
:10534C0077FC7A4E2900330020000422FBF786FC00
:10535C003300290020000522FBF796FCDF239B007D
:10536C00E3580622009329002000744BFBF7A2FCA3
:10537C0023E5DF239B00C358012B00D13DE2FEF750
:10538C0077FEEC239B00E358D4E7FEF771FEDA239B
:10539C00DE229B00E1589200A1503832A258E25014
:1053AC0000220433E25008E5C823EC279B00C658C2
:1053BC000433C35A3604BF001E43C3595D491A0156
:1053CC00120905A805F06AFE5B4904AA05A813F0AA
:1053DC0071FC049B5A489B001E5106F083FEE25957
:1053EC003100584806F07EFEE25900234C4E4D49E0
:1053FC00337093001B59300005F050FE4A4F0322C6
:10540C003B00290020000096FBF712FCE9239B00CF
:10541C00E1582000FFF730FC3B00042229000090EB
:10542C002000FBF71BFCEA239B00E1582000FFF750
:10543C0023FC3B000090052229002000FBF724FCF4
:10544C0035E5C8239B00C658F02336061B051E40C5
:10545C00C923EC279B00C3583B4ABF0013401E4393
:10546C00C35934491A01120905A805F017FE32492F
:10547C0004AA05A813F01EFC049B34489B001E5183
:10548C00ABE7EC239B00C2582A491201120905A86C
:10549C0005F004FE04AA284905A813F00BFC049B94
:1054AC009B001B591A0F0A3A012A00D814E1A022BA
:1054BC00190C1B0412061B0C11431343C922920036
:1054CC00A350C8239B00E1509033E2588DE7E923A9
:1054DC009B00E358072B00D857E21A00083A012A20
:1054EC0000D86CE200211A4806F0FCFDDF230122F3
:1054FC009B00E250E9239B00E1582000FFF7BCFB26
:10550C00094B009018E7C04638E2012054F2012004
:10551C0010E6012040EB012050EB012068F2012045
:10552C00F08202205CEB012038E10120E4F4012040
:10553C009CE6012054DE0120F8F501202CEB012023
:10554C009CEB012074EB0120FFFFFFF068EB0120C6
:10555C00FCEA0120E9239B00E358072B49D8C83308
:10556C009B001B591B0F0B2B4ED0DD480CE0E92385
:10557C009B00E358072B00D9F4E1C8339B001B595F
:10558C001A0F0A2A42D0D74806F0ACFDDF230022BE
:10559C009B00E250AEE7E9239B00E358072B00D8B1
:1055AC0000E21A00083A012A00D80FE20021CE4886
:1055BC0006F098FD9AE7CD4806F094FDE9239B0090
:1055CC00E358072B08D8C8339B001B591B020ED17C
:1055DC00C74806F087FD89E71A00083A012A06D861
:1055EC006033DB00E3181A689B881343F0D0C14882
:1055FC00CAE71A00083A012AB7D86033DB00E3186F
:10560C005B681B0F0B2BB0D1BB48E2E71B02BAD077
:10561C00BA48DEE7083A012A00D9C9E46832D20058
:10562C0082181360DB175360C2E4C8278E00A619DA
:10563C00BF00F259800013011B09C340120F1B025B
:10564C001B0A12071343F351FFF792FB8800201833
:10565C00843E8259BF0013011B09BB40120F1B0271
:10566C001B0A120713438351FFF782FB890046186C
:10567C00A0218C3B9846120112090906F0581143DF
:10568C00FCF7B4F94346F050E15991E48C3B00012E
:10569C0098460309B0200006184343468900661853
:1056AC00F158FCF7A3F94346F050E15980E4890026
:1056BC0066188C3B9846F35800011901B023090970
:1056CC001B0619430309A02000061843FCF78EF9AA
:1056DC004346F050E1596BE4A0211A01120F090660
:1056EC001143874A1340E9E6C8214046B600A61983
:1056FC0089007258800013011B0983401B02120F92
:10570C001B0A1207134373503AE5C83189000B5832
:10571C001B011B09984626E5C821B600A61989006D
:10572C007258BF0013011B09FB40E7E7C831890021
:10573C000F583F013F0986E5C82248468900631887
:10574C0092009958090F09070143995064E5C82242
:10575C0089006318920099583607090109093143E9
:10576C00995035E5C83189000E58360F1AE560316D
:10577C00C900615809020B0A99463BE5C0239B00FE
:10578C009C4680000600CA00A21862441368576841
:10579C0099463B011B099846203EB44600D5BCE017
:1057AC001E006346DE404346C340380F1B041B0CEF
:1057BC000007034316605360FFF7DAFAC0239B001F
:1057CC009C46BA002027C8002018604443687F42DA
:1057DC009C461B011B0998460668D71900D5A6E004
:1057EC003300BB40964062461B04120F1B0C120781
:1057FC00134306604360FFF7BBFAFEF739FCDA226D
:10580C00DE239200A1589B00E15000213833E3586D
:10581C00A3500432A1508DE5C02292009446484614
:10582C00CB00E31863441A68C831D217120705C3BA
:10583C0089000959F0E4C0239B009C46CA00A218B9
:10584C006244536836071B011B091E43C83156605E
:10585C0089000959BCE4C02342462027F600A6194A
:10586C009B00F1184E68920033011B097F429C4645
:10587C000868D7196DD40300BB4090401B04320F4D
:10588C001B0C1207134308604B6079E46031C900AC
:10589C004358984667E46031C90041184E68360F8A
:1058AC0080E4C023F600A6199B00F218202613688A
:1058BC0051689C46BF000B0176421B09BE193FD4B0
:1058CC001800F040FB40090F1B041B0C09070B438D
:1058DC001060536054E46031C9004758B3E4C046CB
:1058EC00E8EA0120B4EA012014EB012050EA01207F
:1058FC005CEA012078EA0120D4EA012098EA012030
:10590C00FFFFFFF0C8339B001E5933483602360A9E
:10591C00320006F0E7FBB1466CE420231B1A9C46D0
:10592C0043466646B3404E46C6401E433BE72027DF
:10593C003300BF1AFB401F00434693403B4351E7E3
:10594C0020261800F61BB04006006046F840304395
:10595C00B8E720270300BF1AFB401F0063469340A3
:10596C003B438AE71A00083A012A00D90BE6603358
:10597C00DB00E3180CCB190F0A2900D003E69BB20D
:10598C00134300D1FFE5154823E6C8339B001E598D
:10599C003602360F3100124806F0A4FB002E00D060
:1059AC00F4E5A3E5C8339B001E590F231E403100BC
:1059BC000C4806F097FB002E00D0E7E596E5603327
:1059CC00DB00E3185E683604360FE3E76033DB0078
:1059DC00E6580F231E40EAE740E5012098EA012033
:1059EC00FCEA012014EB0120FA2230B59200835C12
:1059FC00040087B0202B0CD0412B04D14223012171
:105A0C008354FFF78DF9F72301229B00E25007B076
:105A1C0030BDE0239B00C358002B06D0D4239B0041
:105A2C00C3181A68D9239B00C250FA254123AD0034
:105A3C006355DA239B00E1180833E018082206F0BE
:105A4C009FF8DC239B00E2580F491201120901A8B0
:105A5C0005F024FB6A460D4901A813F02BF9009BB5
:105A6C0020009B001A59D9239B00E2500121FEF71C
:105A7C0037FCF72301229B00E25042230121200036
:105A8C006355FFF74DF9BEE754DE0120F8F5012010
:105A9C000022F8B51E4C03002280020F0A2A32D0D5
:105AAC000B2A08D0092A30D81A4D02001A492800AE
:105ABC0005F0F4FA25E02D27164D3A001749280079
:105ACC001E0105F0EBFA3A001549200005F0E6FA44
