:020000041000EA
:1000000000B5324B212058609868022188439860DF
:10001000D860186158612E4B002199600221596106
:100020000121F02299502B49196001219960352056
:1000300000F044F80222904214D00621196600F024
:1000400034F8196E01211966002018661A6600F04E
:100050002CF8196E196E196E052000F02FF8012189
:100060000842F9D1002199601B49196000215960AB
:100070001A491B48016001219960EB211966A021F2
:10008000196600F012F800219960164914480160C1
:100090000121996001BC002800D000471248134993
:1000A000086003C880F30888084703B5996A0420EC
:1000B0000142FBD001200142F8D103BD02B5186610
:1000C0001866FFF7F2FF186E186E02BD00000240BE
:1000D000000000180000070000035F00212200005C
:1000E000F4000018222000A00001001008ED00E03C
:1000F00000000000000000000000000074B24E7A12
:1001000000200420F7010010C3010010C5010010F9
:10011000C1010010C1010010C1010010C101001097
:10012000C1010010C1010010C1010010C701001081
:10013000C1010010C1010010C9010010CB01001065
:10014000CD010010CD010010CD010010CD01001037
:10015000CD010010CD010010CD010010CD01001027
:10016000CD010010CD010010CD010010CD01001017
:10017000CD010010CD010010CD010010CD01001007
:10018000CD010010CD010010CD010010CD010010F7
:10019000CD010010CD010010CD010010CD010010E7
:1001A000CD010010CD010010CD010010CD010010D7
:1001B000CD010010CD010010CD010010CD010010C7
:1001C00000BE00BE00BE00BE00BE00BE00F051F882
:1001D000103800BEF2EB8871E00200100C03001032
:1001E0003402001090A31AE700202449086006C8D2
:1001F00081F30888104722480068002835D10DA4F3
:100200000ECC002902D000F012F8F9E71D491E4A71
:10021000002000E001C19142FCD11C4988471C49E3
:1002200088471C49884700BEFDE701C901C29A42C0
:10023000FBD370470C030010C000002050DA0120EF
:100240009CDC011050DA0120087B0220547D021052
:100250000000042000000420547D0210001004203F
:10026000001004200000000070470B4800F018F850
:100270000047EFF30580C0B27047000008ED00E0D2
:10028000000000D0087B0220F0960220119200208E
:10029000A967002075930020575600000000000059
:1002A00001B40248844601BC604700BF75B000201D
:1002B00006005250ABB36053DCF8012006005250E8
:1002C000861C0302ECF80120060052505422A29D25
:1002D0000CF9012005005250DE65F468547D0210CF
:1002E000D4020010C8020010BC02001018F901204E
:1002F000B002001024F9012030F901203CF901205E
:0C03000078F9012084F90120B8F90120EF
:10030C00F8B5C0460448054B10B5834203D0044BE6
:10031C00002B00D0984710BD087B0220087B0220E0
:10032C000000000006480749091A8B10C90FC918AC
:10033C0010B5491003D0044B002B00D0984710BDCA
:10034C00087B0220087B02200000000010B5074C3F
:10035C002378002B09D1FFF7D5FF054B002B02D0DA
:10036C00044800E000BF0123237010BD107C022064
:10037C000000000050DA0120054B10B5002B03D013
:10038C000449054800E000BFFFF7CCFF10BDC04694
:10039C0000000000147C022050DA01207047C04697
:1003AC00D423CD219B00C35849001A02120A8A4259
:1003BC0010D2A0221B011B0912061343D822920053
:1003CC008350D423A0229B001206C25001229833E2
:1003DC00C2507047004BF1E7990100A0D4239B0059
:1003EC00C2581833C25000220433C2507C3301323D
:1003FC00C250704710B5D523D4240121A022A400EB
:10040C009B00C150035912061B021B0A13430351D4
:10041C00FA239B00C15010BDD421B022890043584F
:10042C0012061B011B0913434350FA2301229B00A4
:10043C00C2507047FD2320229B00C254D4220023BB
:10044C009200835004328350E023012230B5A02463
:10045C00A0259B00C250283BC3182D0624061C6007
:10046C005D60A021D82309069B00C1500123E9211E
:10047C005B42890043500431435004314350FA230A
:10048C009B00C25030BDC046F42301229B00C250D9
:10049C007047C046F62301229B00C2507047C046ED
:1004AC00FE2300229B00C250103B9C4601220123DC
:1004BC006044026043607047FE229200835801330F
:1004CC008350FA2301229B00C2507047FE229200F7
:1004DC008358002B01DD013B8350FA2301229B0042
:1004EC00C2507047FA239B009C46012200236044B3
:1004FC00026043607047C046FC2301229B00C2503F
:10050C00083B9C4601220023604402604360704714
:10051C00FA230121014A9B00D1507047588A0220CE
:10052C00084B0948094918605960094809499860FD
:10053C00D960094809491861596109480749986106
:10054C00D9617047588A0220630352035600561033
:10055C0050055305520551055405530551075106D5
:10056C00002400240A4B01211A680A4B1A60B82394
:10057C005A43094B9B18002219611A76074B1960D4
:10058C00074B1960074B1A60074B1A707047C0462F
:10059C00E4860220E4870220B0600220EC8702206F
:1005AC00F0870220DC870220588E0220F8B5D42375
:1005BC004746CE469B00C65880B5370F3B000A3BDA
:1005CC0005000B39012B10D9D5239B00C358002BE8
:1005DC000BD136018919D42301229B00E9509833A1
:1005EC00EA500CBC90469946F8BD33021A0A904664
:1005FC003201120F91461B09CC18210016480BF042
:10060C00F7FD4B46002B10D0591C062B1CD1C022D9
:10061C00D20433011B0939071943104B19404346C7
:10062C001143090E09061943D5E7D5239B00EB5856
:10063C002402002B04D08022230A98465204E8E7B7
:10064C00230A98460022E4E7F02224020906120548
:10065C00230A98460A40DCE780DE0120FFFFFFF00A
:10066C00D0220C4B0C480D49920010B59C18206000
:10067C00616000210A48203A9A1810605160094ABA
:10068C0009481A600BF0B4FD2268636807480BF048
:10069C00AFFD10BD588A02203254760830547608CB
:1006AC00563412001814101490DE0120A0DE012024
:1006BC0010B50E480BF046FC0D4B0E481A680E4B4D
:1006CC0019680BF095FD0D4B0D4819680BF090FD5A
:1006DC000C4B0D481A680D4B19680BF089FD0C4B2F
:1006EC000C4819680BF084FD10BDC046B8DE012023
:1006FC00BC860220C8DE0120C4860220C0860220EF
:10070C00ECDE0120CC86022004DF0120B48602201E
:10071C00C886022018DF012010B5054C0548216859
:10072C000BF066FD2068253806F090FB10BDC04626
:10073C00D086022024DF012010B50A2006F086FBAB
:10074C0010BDC04610B5092006F080FB10BDC04698
:10075C0010B5152006F07AFB10BDC04610B516205A
:10076C0006F074FB10BDC04610B5172006F06EFBEA
:10077C0010BDC04610B5072006F068FB10BDC04682
:10078C0010B51A2006F062FB10BDC04610B5022051
:10079C0006F05CFB10BDC04610B5062006F056FBFB
:1007AC0010BDC04610B5052006F050FB10BDC0466C
:1007BC0010B5032006F04AFB10BDC04610B504204E
:1007CC0006F044FB10BDC046FA23002110B5034AC5
:1007DC009B001820D15006F039FB10BD588A02201E
:1007EC00FA23002110B5034A9B001920D15006F0C2
:1007FC002DFB10BD588A0220F0B50022C646114BC5
:10080C00114C00B525001A600023012798460F4EA5
:10081C00183504E043462B7027610135B83431009C
:10082C00206818F095FB0028F4D10122084B1860C1
:10083C00084B1A60084B1860084B187004BC9046A3
:10084C00F0BDC046E4870220B060022028DF012002
:10085C00EC870220F0870220DC870220588E0220D1
:10086C0030B583B005000A49100001AA18F0A8FAA7
:10087C000400012803D00024200003B030BDDA238B
:10088C00019A9B001100EA5002480BF0B1FCF3E70F
:10089C0030DF012040DF012030B583B005000A496C
:1008AC00100001AA18F08CFA0400012803D00024CF
:1008BC00200003B030BDDB23019A9B001100EA50ED
:1008CC0002480BF095FCF3E758DF012068DF0120AC
:1008DC00002330B583B005000A49100001AA01932A
:1008EC0018F06EFA0400012803D00024200003B095
:1008FC0030BDD423019A9B001100EA5002480BF042
:10090C0077FCF3E780DF012090DF012010B582B087
:10091C0001AB0400114910006A4618F051FA00238B
:10092C00022802D0180002B010BD0099019A0129CA
:10093C0010D002290AD0002904D009480BF058FC29
:10094C000123EFE7D6239B00E250F6E7D8239B0068
:10095C00E250F2E7D7239B00E250EEE7ACDF012038
:10096C00C4DF012030B583B005000A49100001AA8C
:10097C0018F026FA0400012803D00024200003B04C
:10098C0030BDD923019A9B001100EA5002480BF0AC
:10099C002FFCF3E7E4DF012000E0012030B583B049
:1009AC0005000A49100001AA18F00AFA04000128EF
:1009BC0003D00024200003B030BDDE23019A9B003D
:1009CC001100EA5002480BF013FCF3E720E0012081
:1009DC0034E0012010B508490400084806F036FF41
:1009EC00FC2300229B00E250083B9C460122012381
:1009FC0064442260636010BD209102204CE0012011
:100A0C00F0B5D6464F464646C0B5174882B00BF0F7
:100A1C0099FA164B00259946154B164C9846164BD1
:100A2C00164F9A4626683900300018F091FA0028C3
:100A3C000CD022694346002A00D1534622001832BA
:100A4C0000922900320048460BF0D2FB0135B83435
:100A5C00152DE7D10A200BF023FA02B01CBC9046EE
:100A6C009946A246F0BDC04664E0012074E0012026
:100A7C0054E00120B06002205CE0012028DF01205E
:100A8C0070B50A200BF00CFA094C0A4E2500E13522
:100A9C00FF35626813782A2B03D0300021780BF0D5
:100AAC00A7FB0C34AC42F4D103480BF0A1FB70BD96
:100ABC00801A02208CE0012098E0012070B52848B3
:100ACC000BF096FB274D284C3FE0D023012202214E
:100ADC001B069A6199610231996180000431996118
:100AEC0041598A405A61D02301221B0659685B6820
:100AFC0009095B0911401A4201D002231943D02382
:100B0C001B065B685B0601D504231943D0231B0627
:100B1C005B681B0601D508231943D0231B065B68B1
:100B2C00DB0501D510231943D0231B065B689B05FD
:100B3C0001D520231943D0231B065B685B0501D527
:100B4C004023194320000BF053FBFA2080000BF0DC
:100B5C0061FB431CC7D030380328B6D970BDC046E2
:100B6C00B4E0012010F2012024DF012070B5274DE4
:100B7C000600286814008EB0002801D10EB070BD9C
:100B8C000DAB05930CAB04930BAB03930AAB029325
:100B9C0009AB019308AB009320001D4907AB06AAD3
:100BAC0018F00EF9082805D000231A4A00202B60F3
:100BBC001360E3E7174A136898003018410713D104
:100BCC00069C079D04604560089C099D8460C56077
:100BDC000A9C0B9D046145610C9C0D9D8461C56153
:100BEC00083301201360C9E7069901600799416039
:100BFC00089981600999C1600A9901610B99416159
:100C0C000C9981610D99C161EAE7C046F886022012
:100C1C00C0E00120FC860220100010B50722084914
:100C2C0018F04AFA0023002801D0180010BD012248
:100C3C00044B05481A600BF0DBFA0123F5E7C046BC
:100C4C00DCE00120F8860220E4E001207047C04679
:100C5C0008B430B582B005AB04CB04000D000648D7
:100C6C00102101930AF0C8FAFA239B00E55002B058
:100C7C0030BC08BC01B01847DE8F022008B430B578
:100C8C0082B005AB04CB04000D0006481021019383
:100C9C000AF0B2FAFA239B00E55002B030BC08BC53
:100CAC0001B01847F18F022008B430B582B005AB03
:100CBC0004CB04000D000648102101930AF09CFAA5
:100CCC00FA239B00E55002B030BC08BC01B01847B9
:100CDC000490022008B430B582B005AB04CB0400FC
:100CEC000D000648102101930AF086FAFA239B00A6
:100CFC00E55002B030BC08BC01B018471790022078
:100D0C0008B430B582B005AB04CB04000D00064826
:100D1C00102101930AF070FAFA239B00E55002B0FF
:100D2C0030BC08BC01B01847B88F0220FD2320222C
:100D3C009B0070B5C254D42200239200835004321D
:100D4C0083502C328350D6239B000400C318A0215F
:100D5C00A0200906000618605960A022D8231B4D5C
:100D6C009B001206E25020002B0001220121FFF70C
:100D7C00C7FF2B00200001220221FFF7C1FF2B002F
:100D8C00200001220321FFF7BBFF2B0020000122D2
:100D9C000421FFF7B5FF2B00200001220521FFF7EE
:100DAC00AFFF2B00012206212000FFF7A9FF012332
:100DBC00E9225B429200A3500432A3500432A350A8
:100DCC00FA2301229B00E25070BDC04674F401204E
:100DDC0010B503480AF06EFA002103000020984772
:100DEC0055420000F0B5244885B00BF001FA002301
:100DFC00224C234E234D2360FA2080000BF00AFA7C
:100E0C00431C35D03928F7DC2F2807DC1B28F3D8F6
:100E1C001D4BC340DB07EFD505B0F0BD2268303861
:100E2C0093009B185B0018183100206028000BF011
:100E3C00DFF91649164B086816491B6809685A1ED3
:100E4C0093414F1EB941212249425B4213400A4053
:100E5C0020320190009002922268203311000E483B
:100E6C000BF0C6F9FA2080000BF0D4F9431CC9D161
:100E7C000BF03EF9C0E7C046F8E00120E486022002
:100E8C00F887022024E1012000240008F8800220C9
:100E9C00108102200C8102203CE10120D42330B5CA
:100EAC0004009B00C5581033C25887B01201094981
:100EBC00120901A80AF078F96A46074901A817F047
:100ECC007FFF009B01229B001D51FA239B00E250E7
:100EDC0007B030BD64DF012088F501200FB400B5E8
:100EEC00B5B036AB04CBC82102A801930AF084F943
:100EFC0002A903480BF07CF935B008BC04B01847C4
:100F0C0088E101200FB400B5B5B036AB04CBC821D5
:100F1C0002A801930AF070F902A903480BF068F9D2
:100F2C0035B008BC04B0184798E101200FB470B577
:100F3C00AAB02EAB04CBA02102A801930AF05CF955
:100F4C0002A919480BF054F9184D9E24280018F0EA
:100F5C004BF8241A060002A818F046F832000300D9
:100F6C00210013480BF044F9631C15D0280018F02D
:100F7C003BF802220F4928180AF088FE02A9220029
:100F8C00280018F065F829000B480BF031F92AB04D
:100F9C0070BC08BC04B01847212322002900074864
:100FAC002B700BF025F9F2E7B0E10120588E0220EE
:100FBC00C4E10120F4E90120FCE10120ECE1012075
:100FCC0010B50020D02406F087FE012324066362AE
:100FDC00012006F081FE02230220636206F07CFEF3
:100FEC0004230320636206F077FE08230420636267
:100FFC0006F072FE10230122A3620021042006F0E9
:10100C0053FE052006F068FE20230122A362002176
:10101C00042006F049FE062006F05EFE4023012265
:10102C00A3620021042006F03FFE072006F054FEC8
:10103C0080230122A3620021042006F035FE082043
:10104C0006F04AFE80235B00A362012200210420EB
:10105C0006F02AFE092006F03FFE80239B00A362C7
:10106C0001220021042006F01FFE0A2006F034FEA7
:10107C008023DB00012200210420A36206F014FE71
:10108C0010BDC046F0B54546DE4657464E46E0B567
:10109C00D14B0500196893B0002901D1CF4B1960D1
:1010AC00D02201201206536852681B0952090340D2
:1010BC00104201D002221343D0221206526852066B
:1010CC0001D504221343D02212065268120601D510
:1010DC0008221343D02212065268D20501D51022E1
:1010EC001343D02212065068012480051BD5202002
:1010FC0052680343920A144201D100F04CFC402286
:10110C001343B74A1360B548B64A04681460CA0161
:10111C001343036003293DD013B03CBC9046994661
:10112C00A246AB46F0BD5268920A1442E7D1AC4AD3
:10113C001360002BE7D1AC48026801320A2A46DD65
:10114C000360AA4B9A461B68002BE3D0A84B1F6880
:10115C00002F3ED0A74BA8491A689946B8238C4655
:10116C000391A649534388466344996843461B68D8
:10117C009B005858002800D18BE01E2800D188E035
:10118C0005F064FE434642461B6801331360924BE4
:10119C001968BFE7914B9A4C19689A4D23682960DE
:1011AC00994212D0002910D097480023020003E086
:1011BC00013308321C2B08D01668B142F8D1DB0081
:1011CC00C318586805F042FE29682160A4E7026044
:1011DC00A0E7B824874B884E99461B688B4863431D
:1011EC00F15803960BF004F84B46B44619680023EB
:1011FC004C4364446069C824640003E0EA5004333F
:10120C00A34202D0C258561CF8D1B823039A4B43C0
:10121C00944663445A687E4B00249B467D4B98460B
:10122C004B46A9461D002301D018D35C0B2B1FD0B5
:10123C000E2B14D00A2B0FD0220040460AF0D8FFF8
:10124C000023524629681360B833039A4B439446E3
:10125C0063445A680134E6E787680134E3E7012305
:10126C00634A13600022654B1A605B4B196851E7A7
:10127C008368C06884463800072F00D844E20838D9
:10128C00012800D846E25846FFF728FEB823296803
:10129C00DBE7B8246243039E5F48B1580AF0A8FF0D
:1012AC005E4A4B46934611681E22B44604924A4647
:1012BC001B68A9465C4364440593E368012415004C
:1012CC0064420F01D85DDA1984461438C0B20A287A
:1012DC0000D911E2524E80003058874664465A4677
:1012EC0001311160EDE719230493F6234A469B0064
:1012FC00D358002B00D015E25B46013119602B68E6
:10130C001A000593B8235343039A94466344DB684D
:10131C00D7E719230493F6234A469B00D758002F8E
:10132C00EAD14048FFF702FE2B681A000593B82358
:10133C005343039A944663441F615A461268DB6810
:10134C00511C5A461160BCE74B46A9461D009468D7
:10135C00354821000AF04CFF5B461B68591C04936E
:10136C005B4619602B6808011A000593B823534398
:10137C00039A94466344DB681F5C1A1838001438CF
:10138C00C0B20A2800D9B7E1284E800030588746F1
:10139C004B46A9461D00264F9468380021000AF0E0
:1013AC0027FF5B461B68591C5B4619602B680801BC
:1013BC001A000593B8235343039A94466344DB689D
:1013CC001A18185C84461438C0B20A2800D993E164
:1013DC00184E800030588746B4860220C4860220FE
:1013EC00C8860220BC860220E0870220F0870220FB
:1013FC00DC870220E4870220B0600220F487022000
:10140C00B8860220C0860220A019022040E30120E9
:10141C0058E3012074E3012010E20120E887022048
:10142C009CE3012058E2012030E20120C8E30120B6
:10143C0048E20120F4E30120A94600235246136040
:10144C005A4601331360C64C2368002B00D077E159
:10145C00059AB8335343039AC24DD2181269002A25
:10146C0000D11DE2C0480AF0C3FE4B464A461B6839
:10147C00002701331360B8225343039ABB49D05859
:10148C002F7017F065FD002800D110E201235246A1
:10149C001360B74B27601F60B64B19683AE6A94634
:1014AC00434642461B680131013313605B461960A9
:1014BC0053461B68002B00D181E2AE4B196829E61C
:1014CC00049A192A30D01E2A65D0142A63D05A46A1
:1014DC00103701311160DA19DF5D38001438C0B2F1
:1014EC000A2800D908E1A44E8000305887461422FF
:1014FC0064460492F3E6049A3C00911C5A46080197
:10150C001F5C11601A1838001438C0B20A2800D9B0
:10151C00F2E09A4E8000305887464A46A94615009C
:10152C001E223C000492DAE627013F093A00944956
:10153C000DA809F039FE93490CAA0DA817F040FC30
:10154C002B684E461A000593B8235343039A0C9804
:10155C0094465A4680008059634484461168DB687F
:10156C000A0198188668664500D01BE1C0680028FF
:10157C0000D017E1584610320131016010001F5C99
:10158C009A1838001438C0B20A2800D9B4E07E4E3C
:10159C0080003058874608235B429C46A44463462F
:1015AC000493E3B20B9323006033DB004B440A93A8
:1015BC002B004D469946631C00D12EE11E2C05D8FC
:1015CC000123A340714A134200D04AE1152C00D1EB
:1015DC00DCE1182C00D1D4E1162C00D1CCE1172C75
:1015EC0000D16AE1072C00D8BEE1049B012B00D886
:1015FC00B4E121006648FFF771FC4B461B68089F5D
:10160C001A000593B8235343039A94465A466344ED
:10161C001168DB680A0198188668BE4200D187E120
:10162C000B9B132B00D962E15A4F14213800554AF9
:10163C00E3B209F0CDFDDA23152C00D15FE1182CB3
:10164C0000D15BE1D823162C00D158E1172C00D126
:10165C00A8E1072C00D8A2E1049B012B00D8A8E13B
:10166C0021004B48FFF73AFC4A46B8231268039E08
:10167C005343B4465A4663441268DB6812019B1804
:10168C009A68DB683900009201934348069A079BDD
:10169C00FFF74CFC4B46B8221B68B4465A430593E3
:1016AC001300002263441A615A461268DB68511C0D
:1016BC005A4608011F5C11601A1838001438C0B261
:1016CC000A281AD8354E80003058874614230493C4
:1016DC000BE6142304931EE619223C000492FEE54B
:1016EC004B46A9461D001E23049314E64B46A946FF
:1016FC001D001E230493F8E5A946002352461360EF
:10170C005B46481C18609EE64E46C83080008351EC
:10171C00013488E56830C0004844036063460134F6
:10172C00436080E51E48FFF701FC2B681A00059307
:10173C00B8235343039A9446002263441A61FCE590
:10174C00B823059A5343039AD2181269002A00D081
:10175C00B3E6039A18330349D01817F03DFCACE6F6
:10176C00EC870220588E0220FCE2012028DF0120A9
:10177C00DC870220B486022020E401204CE4012006
:10178C0064DF012088F5012078E401200000104678
:10179C00C4E20120F88E0220E0E20120A4E4012042
:1017AC0064E201203A0088490DA809F0FDFC874944
:1017BC000CAA0DA817F004FB4A46B827039E5946FD
:1017CC00B4460C9B09689B009A582B6809017B4313
:1017DC006344DB685B189868D9680090019121001C
:1017EC007B48FFF7A3FB2B68B4465F4305930023AC
:1017FC0067443B615B461B68591C5B461960FB6880
:10180C0008011F5C1A1838001438C0B20A2800D915
:10181C0072E7704E8000305887464B46A9461D0033
:10182C005B4619682B68481C1A000593B823534370
:10183C00039A070194466344DB689C46DF193B78A6
:10184C0001000493143BDBB23A000A2B00D953E796
:10185C00614E9B00F3589F461E22049C63460492E3
:10186C003DE55E480AF0C4FC5B461B68591C5B46B0
:10187C0019604B461B6808011A000593B8235343A3
:10188C00039A94466344DB681F5C1A1838001438BA
:10189C00C0B20A2800D930E7514E80003058874634
:1018AC00039A18332900D01817F096FBDAE5534643
:1018BC0018604C480AF09CFCFFE5DF239B00E858BD
:1018CC00C7174B461B681A000593B8235343039A5A
:1018DC0094465A4663441168DB680A019E18B44664
:1018EC00B668864203D16046C068B84225D0FF2353
:1018FC0023403D4A143B9B009F589CE6D4239B00FD
:10190C00EB58069300230793AEE65B46186042E55E
:10191C005B4618601E230493E7E45B4618601E23A5
:10192C000493F8E41037013089E75B4618600EE544
:10193C00C068099EB04200D072E6584610320131A0
:10194C00016010001F5C9A1838001438C0B20A28C5
:10195C0000D9D2E6254E8000305887460A9B1A687B
:10196C005B680892099348E62300C8339B005B59D7
:10197C0008930023099340E6D8239B000027E858DE
:10198C009FE7D4239B000027E8589AE7DA239B00B3
:10199C000027E85895E7164A1360FFF7B4FB2300BD
:1019AC00C833ACE7DF239B00EB580693DB17079398
:1019BC005AE60A9B1A685B680692079354E64B46F4
:1019CC001B6805933FE5C04664DF012088F50120C4
:1019DC0070E20120D0E40120FCE4012094E201201B
:1019EC0028E5012014E30120FC1C022054E5012011
:1019FC00C8860220F8B5050F04010B012E000A0F52
:101A0C0024091B099C4200D816000B2D00D1CAE1F9
:101A1C000A2D00D136E10B2A01D1994AD31A0F2095
:101A2C000700020027401A40BA1811000A39002595
:101A3C00092900D820E10F2021091F090740014086
:101A4C00C91949190F000A3F0025092F00D80FE1C9
:101A5C000F2009018A18270A190A014007407F182C
:101A6C007F193D000A3D0021092D00D8FCE00F2014
:101A7C003F02BF18250B1A0B02400540AD186D181C
:101A8C002A0000210A3A8C46092A00D8E7E02A03EA
:101A9C00D2190F27200C190C3940384040186044DB
:101AAC0001000A390025092900D8D4E00F270004C9
:101ABC008218210D180D38403940091849190800B1
:101ACC000A380025092800D8C1E00F270905891814
:101ADC00180E220E3A4038401218521915000A3DC1
:101AEC00092D00D8B0E00F231206521814021A4028
:101AFC000A3A240A052A00D8DDE123061B0F0A3B0B
:101B0C00052B00D8E2E123051B0F0A3B052B00D85F
:101B1C00E7E123041B0F0A3B052B00D8EFE123035D
:101B2C001B0F0A3B052B00D8F7E10F23250D2B408B
:101B3C000A3B052B00D8FFE1F0231B051C4200D10A
:101B4C0008E20F21080020400700093F0022431C37
:101B5C00092F00D873E00F202109014089180A00D1
:101B6C000A3A0027092A66D90901CB180F21220A43
:101B7C000A40D21917000A3F0020092F57D90F210C
:101B8C001202D218230B0B401B181F000A3F002017
:101B9C00092F48D90F21240C0C40241820001B03BA
:101BAC000A389B180022092839D92404E4180F2379
:101BBC001D40AD182A000A3A092A2DD92D052C19D9
:101BCC000F2527022C400A3C3F0A052C00D8F0E1D7
:101BDC003B061B0F0A3B052B00D8E4E13B051B0F12
:101BEC000A3B052B00D8D5E13B041B0F0A3B052B08
:101BFC0000D8C6E13B031B0F0A3B052B00D8B7E10D
:101C0C003B021B0F0A3B052B00D8A8E10B2E00D181
:101C1C00CFE030073843F8BD06351D40CEE706341B
:101C2C000C400132C1E706330B400130B2E70632FB
:101C3C000A400130A3E706310140013794E70B005D
:101C4C0007300340013286E706323A404BE7063153
:101C5C003940013539E706303840013526E7012295
:101C6C0006359446054012E7063707400131FEE67B
:101C7C00063101400135EBE6063202400135DAE669
:101C8C00999999000A2A00D0C5E60F273C003B0021
:101C9C000C400340E418230000220A3B9446092B15
:101CAC0003D801239C4606343C400F230E0902093D
:101CBC001A401E40B6186644320000270A3ABC4649
:101CCC00092A03D806361E400E3B9C460F270B0AEA
:101CDC00020A3A403B409B1863441A0036010A3A08
:101CEC0034190026092A02D806333B4001360F2747
:101CFC001B021A190C0B030B3B403C40E418A419B3
:101D0C0023000A3B0026092B02D806343C4001363E
:101D1C000F272403A4180B0C020C3A403B409B18D1
:101D2C009B191A000A3A0026092A02D806333B40AE
:101D3C0001360F271B041C19020D0B0D3B403A40BA
:101D4C00D218921913000A3B092B01D806323A40DB
:101D5C000F231205121917021A400A3A3F0A052AD4
:101D6C0000D86FE13B061B0F0A3B052B00D893E113
:101D7C003B051B0F0A3B052B00D884E13B041B0FD2
:101D8C000A3B052B00D875E13B031B0F0A3B052BC7
:101D9C0000D866E13B021B0F0A3B052B00D857E12C
:101DAC002807384337E70B2A00D16EE7BD4A141BCE
:101DBC0035E60F22BB480023C71B10003840040037
:101DCC00093C411C092C00D810E10F203A090240B3
:101DDC00D21814000A3C0023092C00D802E10F2071
:101DEC0012015218390A0140C9180B000A3B002491
:101DFC00092B00D8F2E009028A180F21380B084091
:101E0C00001903000A3B0024092B00D8E2E003036D
:101E1C000F20390C014009199B180A000A3A0024BA
:101E2C00092A00D8D2E00F203A0D024012191400F2
:101E3C0009040A3CCB180021092C00D8C2E00F2061
:101E4C001205D2183B0E03405B181C000A3C092CEF
:101E5C0000D8B4E01B069B180F221F0213400A3B4C
:101E6C003F0A052B00D8E7E03B061B0F0A3B052B6E
:101E7C0000D8DBE03B051B0F0A3B052B00D8CCE060
:101E8C003B041B0F0A3B052B00D8BDE03B031B0F8B
:101E9C000A3B052B00D8AEE03B021B0F0A3B052B7F
:101EAC0000D9B6E6C023DB039C46674439007E4864
:101EBC000AF09EF9ADE6063421007B480AF098F949
:101ECC0023061B0F0A3B052B00D91CE660342100AE
:101EDC0075480AF08DF923051B0F0A3B052B00D919
:101EEC0017E6C023DB009C46644421006E480AF0D0
:101EFC007FF923041B0F0A3B052B00D90FE6C023E7
:101F0C00DB019C466444210067480AF071F9230305
:101F1C001B0F0A3B052B00D907E6C023DB029C46AE
:101F2C006444210060480AF063F90F23250D2B400F
:101F3C000A3B052B00D9FFE5C023DB039C46644418
:101F4C00210059480AF054F9F0231B05250D1C42B9
:101F5C0000D0F6E521005548FEF7C0FFF1E5C0239F
:101F6C00DB039C46674439004F480AF041F94DE6C3
:101F7C00C023DB029C46674439004B480AF038F911
:101F8C003EE6C023DB019C466744390046480AF014
:101F9C002FF92FE6C023DB009C46674439004248EA
:101FAC000AF026F920E6603739003F480AF020F99C
:101FBC0014E6063739003C480AF01AF908E60633ED
:101FCC00034047E706320240013138E70631014051
:101FDC00013428E706300840013418E70631014087
:101FEC00013408E7063202400133F8E607300240BC
:101FFC0011000133E9E6C023DB029C46674439003B
:10200C0029480AF0F5F847E7C023DB019C466744F2
:10201C00390025480AF0ECF838E7C023DB009C4671
:10202C006744390020480AF0E3F829E760373900A3
:10203C001D480AF0DDF81DE7063739001A480AF08A
:10204C00D7F811E70637390017480AF0D1F889E6B6
:10205C00C023DB039C466744390013480AF0C8F8D8
:10206C009EE6C023DB029C46674439000E480AF00A
:10207C00BFF88FE6C023DB019C46674439000A4851
:10208C000AF0B6F880E6C023DB009C4667443900B2
:10209C0005480AF0ADF871E66037390002480AF0DD
:1020AC00A7F865E69999990080E50120B8E501202B
:1020BC0070B5D825AD0004000D494059FFF79AFCC6
:1020CC00CD230002000A5B00984207D30948D823AD
:1020DC0001229B00E0508833E25070BD60590449E6
:1020EC00FFF788FC00010309A02000061843EEE767
:1020FC00010000A0990100A070B5D825AD00040026
:10210C000D494059FFF776FCCD230002000A5B0015
:10211C00984207D30948D82301229B00E05088330A
:10212C00E25070BD60590449FFF764FC00010309DB
:10213C00A02000061843EEE7010000B0990100A0B2
:10214C00F0B5DE4657464E4645469946E0B587B053
:10215C00140004920A010B0F8A4611094A469B4649
:10216C008C464B461201120900940192804600994C
:10217C00019A1B0F944501D900F04DFD01D100F0DF
:10218C0046FD5A4603930B2A01D100F04BFD0A2A57
:10219C0001D100F05FFD0B2B07D1009801990D4A7E
:1021AC000D4B121A8B41009201930F244346009D54
:1021BC002340254018002A00002300218018594193
:1021CC000A225242D31712184B41002B01D100F0B6
:1021DC0032FD03E099999999999900000023994649
:1021EC00634642460F271B0712091A433A40140054
:1021FC00019B009A1B0716091E433E400025320026
:10220C00002312196B414C46002512196B410A240C
:10221C006442E517A4185D41002D01D001F059F876
:10222C00092C01D901F055F8941D3C4022000124E1
:10223C000023A146160F1D011401634642460F27C9
:10224C001B06120A1A4335433A4024184D41019B90
:10225C001000009A1B06160A1E433E400021320055
:10226C00002312184B414846002112184B410A20FA
:10227C004042C11780185941002901D001F025F8BE
:10228C00092801D901F021F8911D39400A000121DA
:10229C0000238946160E10021902424663460F2788
:1022AC001B05120B1A4331433A4024184D41019B34
:1022BC001000009A1B05160B1E433E4000213200F5
:1022CC00002312184B414846002112184B410A209A
:1022DC004042C11780185941002901D000F0F1FF8C
:1022EC00092801D900F0EDFF911D39400A000121A8
:1022FC0000238946160D19031003634642463143E9
:10230C00001969410F251B04120C1A432A400600C0
:10231C00019B1000009A1B04140C1C432C400F0052
:10232C0022000021002312184B41484600211218AC
:10233C004B410A204042C11780185941002901D055
:10234C0000F0BBFF092801D900F0B7FF911D29400F
:10235C000A00012100238946110C14041D04424675
:10236C0063460D4336196F410F251B03120D1A439B
:10237C002A401000019B009A1B03140D1C432C4097
:10238C0000212200002312184B414846002112184C
:10239C004B410A204042C11780185941002901D0F5
:1023AC0000F087FF092801D900F083FF911D294017
:1023BC000A00012100238946110B14051D05424614
:1023CC0063460D4336196F410F251B02120E1A433B
:1023DC002A401000019B009A1B02140E1C432C4037
:1023EC0000212200002312184B41484600211218EC
:1023FC004B410A204042C11780185941002901D095
:10240C0000F053FF092801D900F04FFF911D29401E
:10241C000A000121002389461D064346110A180FA4
:10242C000D43002300211406A4197D41009E320F98
:10243C0012184B414846002112184B410A204042C9
:10244C00C11780185941002901D000F02BFF092831
:10245C0001D900F027FF901D0F3108400200002326
:10246C0001271609190731431007001969410F2676
:10247C006346049005910199334031401C000025BE
:10248C000A00002312196B413C00002512196B4104
:10249C000A246442E517A4185D41002D01D000F018
:1024AC00FDFE092C01D900F0F9FE0121941D3440E8
:1024BC0022008846049805991500002463460F27CE
:1024CC00001969411C093C402200019C0025260989
:1024DC003E403400002312196B414446002512196A
:1024EC006B410A246442E517A4185D41002D01D00C
:1024FC0000F0D0FE092C01D900F0CCFE941D3C401C
:10250C0022000124A046634600240F27150124183D
:10251C004D41190A39400A00019900230E0A3E4028
:10252C003000002112184B414046002112184B413B
:10253C000A204042C11780185941002901D000F0EF
:10254C00A5FE092801D900F0A1FE911D39400A0011
:10255C0001218846002063460F27110224184D41A3
:10256C00190B39400A00019900230E0B3E40300034
:10257C00002112184B414046002112184B410A20F1
:10258C004042C11780185941002901D000F07AFE51
:10259C00092801D900F076FE911D39400A0001216D
:1025AC00884663460F2700201B0C11033B40241860
:1025BC004D411800019B00211E0C3E4032000023AF
:1025CC008018594142460023801859410A22524230
:1025DC00D31712184B41002B01D000F04FFE092AE3
:1025EC0001D900F04BFE831D3B4018000123984697
:1025FC0000220304A4185D4163460F271B0D3B40CA
:10260C001800019B00211E0D3E4032000023801853
:10261C00594142460023801859410A225242D3178D
:10262C0012184B41002B01D000F024FE092A01D9CD
:10263C0000F020FE831D3B40180001239846002229
:10264C000305A4185D4163460F27180E019B00215A
:10265C001E0E3E4032000023801859414246002392
:10266C00801859410A225242D31712184B41002BA1
:10267C0001D000F0FCFD092A01D900F0F8FD831D02
:10268C003B401800012600220199030612196B41E8
:10269C0030000C0F0025002124184D410A20404227
:1026AC00C11700196941002903D1092801D800F08C
:1026BC00D8FD0020210712184B411B0416001D0CDD
:1026CC000F2333401800140000210A225242D31762
:1026DC0080185941002901D100F0A9FF21060A0FE9
:1026EC0000230A204042C11712184B41002B01D184
:1026FC0000F0F2FF21050A0F00230A204042C11707
:10270C0012184B41002B01D100F0F5FF21040A0FE8
:10271C0000230A204042C11712184B41002B01D153
:10272C0001F078F821030A0F00230A204042C11758
:10273C0012184B41002B01D100F09EFF21020A0F11
:10274C0000230A204042C11712184B41002B01D123
:10275C0000F0A2FF21010A0F00230A204042C117FA
:10276C0012184B41002B01D100F0A6FF2901220FBA
:10277C000A430A204042C1172B0F12184B41002B61
:10278C0001D100F0C8FFF0231B032B4201D100F054
:10279C0002FF0F23190021400A009C46012600234A
:1027AC00002709204042C117B6185F4180185941D3
:1027BC0000960197002901D000F04FFD092801D99E
:1027CC0000F04BFD63460732134000930023019346
:1027DC00013398462A07230913430F2294461A40C3
:1027EC00100000214246002312184B410A2040429F
:1027FC00C11780185941002901D000F02AFD092881
:10280C0001D900F026FD6046911D0840012102000F
:10281C0000238846110F8C4666461901100131437E
:10282C00009A019B12184B41009201932A06230A2D
:10283C0013430F2294461A401000002142460023F5
:10284C0012184B410A204042C117801859410029E7
:10285C0001D000F0FAFC092801D900F0F6FC604622
:10286C00911D08400121020000238846110E8C4660
:10287C006646190210023143009A019B12184B4113
:10288C00009201932A05230B13430F2294461A40FE
:10289C00100000214246002312184B410A204042EE
:1028AC00C11780185941002901D000F0CAFC092831
:1028BC0001D900F0C6FC6046911D084001210200C0
:1028CC0000238846110D8C466646190310033143CC
:1028DC00009A019B12184B41009201932A04230C7D
:1028EC0013430F2294461A40100000214246002345
:1028FC0012184B410A204042C11780185941002937
:10290C0001D000F09AFC092801D900F096FC604631
:10291C00911D08400121020000238846110C8C46B1
:10292C006646190410043143009A019B12184B415E
:10293C00009201932A03230D13430F2294461A404D
:10294C00100000214246002312184B410A2040423D
:10295C00C11780185941002901D000F06AFC0928E0
:10296C0001D900F066FC6046911D0840012102006F
:10297C0000238846110B8C46664619051005314319
:10298C00009A019B12184B41009201932A02230ECC
:10299C0013430F2294461A40100000214246002394
:1029AC0012184B410A204042C11780185941002986
:1029BC0001D000F03AFC092801D900F036FC604641
:1029CC00911D08400121020000238C46110A884603
:1029DC004646190610063143009A019B12184B41CA
:1029EC0000210092019362460023200F12184B41E4
:1029FC000A204042C11780185941002901D000F02B
:102A0C0010FC092801D900F00CFC901D0F31084076
:102A1C000E3902000023884611098C4619076646B8
:102A2C000F23314310079C46009E019F2B40361804
:102A3C004F41424618000021002312184B410A2036
:102A4C004042C11780185941002900D0E6E30928FB
:102A5C0000D9E3E36046911D08400121020088463D
:102A6C0011000F2200202B0994461A4036184F41B2
:102A7C00002310000021424612184B410A2040420C
:102A8C00C11780185941002900D0C4E3092800D986
:102A9C00C1E36046911D08400121020088461101E6
:102AAC000F2200202B0A94461A4036184F4100235F
:102ABC0010000021424612184B410A204042C11717
:102ACC0080185941002900D0A2E3092800D99FE3BE
:102ADC006046911D0840012102008C460020110225
:102AEC00801979410F262B0B33401C0000256246C0
:102AFC00002312196B410A246442E517A4185D41A6
:102B0C00002D00D082E3092C00D97FE3941D3440C2
:102B1C002200012400261703801979410022230486
:102B2C00801859410B0406000F2131400A000400A3
:102B3C001D0C0A204042C117002312184B41002BD8
:102B4C0001D100F083FD21060A0F00230A20404228
:102B5C00C11712184B41002B01D100F0ECFD2105DF
:102B6C000A0F00230A204042C11712184B41002BB8
:102B7C0001D100F0EFFD21040A0F00230A2040428E
:102B8C00C11712184B41002B01D100F0F3FD2103AA
:102B9C000A0F00230A204042C11712184B41002B88
:102BAC0001D100F0F7FD21020A0F00230A20404258
:102BBC00C11712184B41002B01D100F0FBFD210174
:102BCC000A0F00230A204042C11712184B41002B58
:102BDC0001D100F0FFFD2901220F0A430A204042D7
:102BEC00C1172B0F12184B41002B01D100F002FE24
:102BFC00039B0B2B00D170E32000039B1907294387
:102C0C0007B03CBC90469946A246AB46F0BD884204
:102C1C0001D8FFF7B6FA5A4603925A460B2A01D04E
:102C2C00FFF7B5FA0B2B19D0094B1B1A984600234A
:102C3C009C46FFF7BAFA092A01D9FFF7CFFA831D90
:102C4C0023401800012300219946FFF7C9FAC0461A
:102C5C00999999000A2B01D0FFF79DFA0F210400D6
:102C6C000C402200049C00230C4026000027B618C0
:102C7C005F410A225242D31792197B41002B01D09B
:102C8C0000F0D1FC092A01D900F0CDFCB31D0B409A
:102C9C001E00012300279C46534602091B071A43BA
:102CAC0000230F2101934B460A400092049A1B0704
:102CBC0012091A4314000C402200009C019D0023B1
:102CCC0012196B416446002512196B410A246442A7
:102CDC00E517A4185D41002D01D000F0A0FC092CD3
:102CEC0001D900F09CFC941D0C400E3922000023ED
:102CFC008C461D015346110F0D4314010F21A419CD
:102D0C007D411B06020A1A434B460A40009401956A
:102D1C001400049A1B06160A1E430E4000253200AE
:102D2C00002312196B416446002512196B410A24C9
:102D3C006442E517A4185D41002D01D000F06CFC35
:102D4C00092C01D900F068FC941D0C4022000023D2
:102D5C000126110E1D020D431402009A019B12193B
:102D6C006B410092019353460F211B05020B1A4332
:102D7C004B460A401400049A1B05170B1F430F40C7
:102D8C0000253A00002312196B413400002512195A
:102D9C006B410A246442E517A4185D41002D01D053
:102DAC0000F037FC092C01D900F033FC941D0C40C9
:102DBC00220000230126110D1D030D431403009A5C
:102DCC00019B12196B410092019353460F211B0476
:102DDC00020C1A434B460A401400049A1B04170CAD
:102DEC001F430F4000253A00002312196B41340099
:102DFC00002512196B410A246442E517A4185D41A1
:102E0C00002D01D000F003FC092C01D900F0FFFBD0
:102E1C00941D0C40220000230126110C1D040D43AF
:102E2C001404009A019B12196B41009201935346B2
:102E3C000F211B03020D1A434B460A401400049A3F
:102E4C001B03170D1F430F4000253A0000231219D6
:102E5C006B413400002512196B410A246442E517BA
:102E6C00A4185D41002D00D0CFE3092C00D9CCE390
:102E7C00941D0C40220000230126110B1D050D434F
:102E8C001405009A019B12196B4100920193534651
:102E9C000F211B02020E1A434B460A401400049ADF
:102EAC001B02170E1F430F4000253A000023121976
:102EBC006B413400002512196B410A246442E5175A
:102ECC00A4185D41002D00D09CE3092C00D999E396
:102EDC00941D0C400E39220000238C46110A1D064D
:102EEC000D4314060027009A019BA4185D41002392
:102EFC000499060F0A0F6046002192197B411218A3
:102F0C004B410A204042C11780185941002900D07A
:102F1C0075E3092800D972E3901D0F3108400E3972
:102F2C00020000238C461609190731431007241898
:102F3C004D410F2651464F46314037400A00002381
:102F4C0038000021801859416246002380185941ED
:102F5C000A225242D31712184B41002B00D04BE3DC
:102F6C00092A00D948E3831D3340180001239C46ED
:102F7C0003000022A4185D4153460F27190939405C
:102F8C000A0049460E093E400023300000218018FB
:102F9C00594162460023801859410A225242D317E4
:102FAC0012184B41002B00D023E3092A00D920E34F
:102FBC00831D3B40180001239C4600220301A418EA
:102FCC005D4153460F27190A39400A0049460E0A3B
:102FDC003E400023300000218018594162460023F6
:102FEC00801859410A225242D31712184B41002B18
:102FFC0000D0FBE2092A00D9F8E2831D3B401800FF
:10300C0001239C4651460F270022090B030239402D
:10301C0012196B410C0049460E0B3E400025300046
:10302C0000210019694164460025001969410A24F0
:10303C006442E51724184D41002D00D0D3E2092C31
:10304C0000D9D0E2841D3C4020000124A446514606
:10305C000F270024090C0503394012196B410C0091
:10306C0049460E0C3E4000253000002100196941F4
:10307C0064460025001969410A246442E5172418A6
:10308C004D41002D00D0ABE2092C00D9A8E2841DE3
:10309C003C4020000124A44600240504A4185D41F2
:1030AC0053460F27190D39400A0049460E0D3E4074
:1030BC0000233000002180185941624600238018FB
:1030CC0059410A225242D31712184B41002B00D0FF
:1030DC0083E2092A00D980E2831D3B4018000123BA
:1030EC00984651460022030512196B410C0E0F2114
:1030FC000D008C4625404C466746260E374028006E
:10310C003C000025002100196941444600250019A6
:10311C0069410A246442E51724184D41002D00D062
:10312C0059E2092C00D956E26546841D2540280039
:10313C0001260024050612196B41002031071218D4
:10314C004B411B0416001D0C0F23334018001400B8
:10315C0000210A225242D31780185941002900D16C
:10316C00C8E321060A0F00230A204042C117121897
:10317C004B41002B01D100F020FC21050A0F00234C
:10318C000A204042C11712184B41002B01D100F00C
:10319C0004FC21040A0F00230A204042C117121814
:1031AC004B41002B00D1EAE321030A0F00230A2034
:1031BC004042C11712184B41002B00D1D1E3210220
:1031CC000A0F00230A204042C11712184B41002B52
:1031DC0000D1B8E321010A0F00230A204042C11795
:1031EC0012184B41002B00D19FE32901220F0A43F7
:1031FC000A204042C1172B0F12184B41002B00D153
:10320C0085E35B46190720002943F9E4002481E497
:10321C0000218C4662E40021884640E40021884667
:10322C001EE400218846FFF7F7FB00218C46FFF7D0
:10323C00CDFB00218846FFF79DFB00218846FFF758
:10324C006DFB00218846FFF73DFB00218846FFF708
:10325C000DFB00218846FFF7DDFA00239846FFF7A7
:10326C00B9FAA01D0F3108400400FFF722FA00261E
:10327C00FFF709FA00239846FFF7E1F90023984677
:10328C00FFF7B6F900218846FFF78BF90021884635
:10329C00FFF760F90024A046FFF735F900218846B6
:1032AC00FFF708F90027FFF7DCF800218946FFF744
:1032BC00B3F800218946FFF77FF800218946FFF714
:1032CC004BF800218946FFF715F800218946FEF7D7
:1032DC00E1FF0024A146FEF7ADFFE44B0926764240
:1032EC00F7171B1B19000F2421400A009C460023D2
:1032FC0001200021B6185F4180185941002F00D1E0
:10330C0050E1002463461B061E0F002722000023F9
:10331C0092197B410A267642F717B6185F41002FA7
:10332C0000D056E1092E00D953E10F24951D2540FC
:10333C002A00002301261D016346170F14011B05EB
:10334C003D4324184D413200180F00210023121860
:10335C004B410A204042C11780185941002900D026
:10336C0035E1092800D932E1901D0F3108400200E7
:10337C000023012619026346170E100239431B0461
:10338C0024184D413200180F0021002312184B4114
:10339C000A204042C11780185941002900D014E17D
:1033AC00092800D911E1901D0F31084002000023BB
:1033BC00012619036346170D100339431B03241808
:1033CC004D413200180F0021002312184B410A20E6
:1033DC004042C11780185941002900D0F3E0092858
:1033EC0000D9F0E0901D0F310840020000230126A7
:1033FC0019046346170C100439431B0224184D4161
:10340C003200180F0021002312184B410A204042B1
:10341C00C11780185941002900D0D1E0092800D9E2
:10342C00CEE0901D0F3108400E3902000023884673
:10343C0019056346160B1B010027314310051E0F9F
:10344C004246002392197B410A267642F717B6189A
:10345C005F4100196941002F00D0AEE0092E00D960
:10346C00ABE00F24951D25400E3C2A000023A046FE
:10347C001D066346160A354314061E0F00274246E6
:10348C0000230019694192197B410A246442E51713
:10349C00A4185D41002D00D08DE0092C00D98AE0E4
:1034AC000F24951D25402A000023012617091D070E
:1034BC0014073D4324184D41002233000F21A4185A
:1034CC005D4121400A0000230A204042C117121816
:1034DC004B41002B00D100E221060A0F00230A20E9
:1034EC004042C11712184B41002B00D1E8E12105D5
:1034FC000A0F00230A204042C11712184B41002B1F
:10350C0000D1CFE121040A0F00230A204042C11749
:10351C0012184B41002B00D1B6E121030A0F0023F6
:10352C000A204042C11712184B41002B00D19DE1DB
:10353C0021020A0F00230A204042C11712184B41E6
:10354C00002B00D184E121010A0F00230A20404204
:10355C00C11712184B41002B00D16BE12901220F2E
:10356C000A430A204042C1172B0F12184B41002B63
:10357C0001D0FFF741FB052A01D9FFF73DFBC02223
:10358C000023D205A4185D41394822002B0008F015
:10359C002FFEFFF731FB22002B003648FDF79EFC77
:1035AC00FFF7F7F8092E00D9ABE6073222401000DE
:1035BC0000210E3CA6E6002678E70024A04657E73B
:1035CC000021884634E7002612E70026F1E60026A3
:1035DC00D0E60026AFE60026ABE50023984680E552
:1035EC000024A44658E50024A44630E500239C465C
:1035FC0008E500239C46E0E400239C46B8E4002147
:10360C008C4690E400218C4668E4002635E40026C4
:10361C0003E40026FFF7CFFB0026FFF79AFB0021FF
:10362C008C46FFF766FB00239C46FFF735FB05280D
:10363C0001D9FFF753F806220023A4185D410C486A
:10364C0022002B0008F0D4FDFFF748F8052A01D919
:10365C00FFF779FA06220023A4185D4104482200E2
:10366C002B0008F0C5FDFFF76EFAC046999999003A
:10367C0090E50120B8E50120052A01D9FFF75EF895
:10368C00C0220023D202A4185D41D34822002B0093
:10369C0008F0AEFDFFF752F8052A01D9FFF75AF8EA
:1036AC00C0220023D203A4185D41CB4822002B007A
:1036BC0008F09EFDFFF74EF8052A01D9FFF756F8E2
:1036CC00C0220023D204A4185D41C34822002B0061
:1036DC0008F08EFDFFF74AF8052A01D9FFF70AF822
:1036EC0060220023A4185D41BB4822002B0008F087
:1036FC007FFDFEF7FFFF052A01D9FFF707F8C0226F
:10370C000023D200A4185D41B34822002B0008F01E
:10371C006FFDFEF7FBFF052A01D9FFF734F8C02235
:10372C000023D205A4185D41AB4822002B0008F001
:10373C005FFDFFF728F8052A01D9FFF710FA602280
:10374C000023A4185D41A44822002B0008F050FD72
:10375C00FFF705FA052A01D9FFF70DFAC02200235D
:10376C00D200A4185D419C4822002B0008F040FDBB
:10377C00FFF701FA052A01D9FFF709FAC022002345
:10378C00D201A4185D41944822002B0008F030FDB2
:10379C00FFF7FDF9052A01D9FFF705FAC02200232E
:1037AC00D202A4185D418C4822002B0008F020FDA9
:1037BC00FFF7F9F9052A01D9FFF701FAC022002316
:1037CC00D203A4185D41844822002B0008F010FDA0
:1037DC00FFF7F5F9052A01D9FFF7FDF9C0220023FF
:1037EC00D204A4185D417C4822002B0008F000FD97
:1037FC00FFF7F1F9052A01D9FFF7FAF9C0220023E6
:10380C00D205A4185D41744822002B0008F0F0FC8E
:10381C00FFF7EEF9052A01D9FEF784FFC022002339
:10382C00D201A4185D416C4822002B0008F0E0FC8A
:10383C00FEF778FF052A00D990E6C0220023D204B7
:10384C00A4185D41644822002B0008F0D1FC85E6E9
:10385C00052A00D977E6C0220023D203A4185D41C3
:10386C005D4822002B0008F0C3FC6CE6052A00D949
:10387C005EE6C0220023D202A4185D415648220005
:10388C002B0008F0B5FC53E6052A00D945E6C0220A
:10389C000023D201A4185D414F4822002B0008F0F0
:1038AC00A7FC3AE6052A00D92CE6C0220023D20058
:1038BC00A4185D41484822002B0008F099FC21E631
:1038CC00052A00D913E660220023A4185D41424862
:1038DC0022002B0008F08CFC09E6052A00D9FBE538
:1038EC0006220023A4185D413B4822002B0008F05F
:1038FC007FFCF1E5052800D933E406220023A41847
:10390C005D41354822002B0008F072FC29E4052AA1
:10391C0000D976E4C0220023D205A4185D412E48BC
:10392C0022002B0008F064FC6BE4052A00D95CE44F
:10393C00C0220023D204A4185D41274822002B008A
:10394C0008F056FC51E4052A00D943E4C0220023B8
:10395C00D203A4185D41204822002B0008F048FC3B
:10396C0038E4052A00D92AE4C0220023D202A41884
:10397C005D41194822002B0008F03AFC1FE4052A8F
:10398C0000D911E4C0220023D201A4185D411248D1
:10399C0022002B0008F02CFC06E4052A01D9FFF7C5
:1039AC00F8FBC0220023D200A4185D410A48220073
:1039BC002B0008F01DFCFFF7ECFB052A01D9FFF7E3
:1039CC00DCFB60220023A4185D41034822002B007D
:1039DC0008F00EFCFFF7D1FB90E50120F0B5DE46B8
:1039EC0057464E464546E0B5384889B008F0AAFA25
:1039FC009C239946364B374C9846374BA1449B46F3
:103A0C00364B9A4609E052463100009240463A0045
:103A1C000C3408F0EDFB4C4515D026686768300077
:103A2C003900A568FDF7E6FF019503008542EAD150
:103A3C005B463A00009331002B0040460C3408F0F2
:103A4C00D7FB4C45E9D1264808F07CFA254B984623
:103A5C00254B9B4610E0214B0290049303912B00C5
:103A6C00220058460096019708F0C2FB18239C468A
:103A7C001E4BE04498451ED043461C685D689E680A
:103A8C00DF681B693200994643465B6920009A4601
:103A9C0029003B00FEF754FB4B4606935346079315
:103AAC008145D8D18A45D6D10B4B04934B46029312
:103ABC0053460393D3E70A2008F0F2F909B03CBC53
:103ACC0090469946A246AB46F0BDC046C8E50120DB
:103ADC00DCE50120601C022008E6012000E6012044
:103AEC0010E601200815022024E6012040160220D1
:103AFC0010B5072918D8072A2DD91300083B012B1C
:103B0C0011D86032D20082181468536822011B0F3E
:103B1C0012091B071343194A2402C8311340240A03
:103B2C00890023430B5010BD0B00083B012BFAD826
:103B3C001300083B012B15D9072AF4D8C832920080
:103B4C00135860311A0FC9001B02401812071B0AC8
:103B5C0003604260E7E7C83292001358C83189000D
:103B6C000B50E0E760326031D200C9008218401877
:103B7C005368126802604360D5E7C046FFFFFFF050
:103B8C0070B506000C001500072905D8072A21D9A5
:103B9C001748FDF7A3F970BD0A00083A012AF7D8B7
:103BAC002A00083A012AF3D81A00083A012AEFD859
:103BBC0060336035DB00ED00C31845191A685B688B
:103BCC0028686968FEF7BCFA6034E4003419206098
:103BDC006160E0E7072BDBD8C833C8359B00AD002C
:103BEC0019582858FDF706FFC834A4003051D2E705
:103BFC0054E6012070B505000C00072905D8072AEA
:103C0C0026D91D48FDF76AF970BD08390129F8D885
:103C1C00110008390129F4D8190008390129F0D804
:103C2C00B0216033DB00C3181E685B6809061B01FA
:103C3C0060321B090B43D1004118320008684968F7
:103C4C00FEF77EFA6034E4002C1920606160DBE73B
:103C5C00072BD6D8C8339B001958B0230901C8329A
:103C6C001B069200090910581943FDF7C3FEC8340E
:103C7C00A4002851C8E7C04654E60120F8B502005C
:103C8C000B000E0F0A2E68D00B2E3ED1A0260B0176
:103C9C001B09360633430F2415021902100F1F0E91
:103CAC00120E22402D0A090A3C40A2422FDD121BA3
:103CBC00002A20DD2B11012A58D02B12022A55D0B4
:103CCC002B13032A52D02B14042A4FD02D15052A5E
:103CDC0011D0951F062A0ED0D51F072A0BD0013DF7
:103CEC00082A08D0013D092A05D0013D2A0053427B
:103CFC005A4152421540000731432843FDF77AFEE2
:103D0C001B49014020060843F8BD3607C3E7A31A38
:103D1C00002B20DD0C11012B25D00C12022B22D0F4
:103D2C000C13032B1FD00C14042B1CD00915052BC2
:103D3C0011D0991F062B0ED0D91F072B0BD0013990
:103D4C00082B08D00139092B05D001390B005C4236
:103D5C0063415B4219401400CDE7B0260B011B09EF
:103D6C003606334397E721001400C4E71D00C2E771
:103D7C00FFFFFFF0F0B54546DE4657464E46E0B530
:103D8C00020F85B000920A0F01920F2205020B025E
:103D9C00000E090E10400A402D0A1B0A02900392D5
:103DAC00904200DC80E02F00EC171D000623A021C0
:103DBC0099460906093300209B468A460C430D435D
:103DCC0011E03B0F24011C4353462D0124012D0A05
:103DDC0024091C431D4301235B429C46E1444B4692
:103DEC003F01002B14D05B462B4098465B462B4280
:103DFC00E7D0230000264446A8461D003A002B00BD
:103E0C000136FEF79DF9A642F8D12C004546D8E7BD
:103E1C00039C029BA446F024634424021A00214212
:103E2C000CD00FE0050F0B012B431B01090F1B09D5
:103E3C000907194300010132214203D10B041B0C69
:103E4C000343EFD10B07000918430B011B0A190799
:103E5C00000908431B091907000908431B09190726
:103E6C00000908431B091907000908431B091B0714
:103E7C00000918430E4B063A18401206009B1043DB
:103E8C00019A00019B1A5A425341B02212069446E1
:103E9C005B421B0763440009184305B03CBC9046C9
:103EAC009946A246AB46F0BD1F00DC177EE7C04624
:103EBC00FFFFFFF0F0B5DE464E4657464546E0B5EF
:103ECC00030F8BB005930B0F06930F230A02040EFE
:103EDC00090E1C400B400893A0231B06190000027E
:103EEC00120A000A1143034389469B460794002A91
:103EFC0000D1B8E0F0231B041A4200D0B5E0002139
:103F0C004A46120101311A42FBD09146099106230F
:103F1C0004938023A0245B039A46554D24064B46FC
:103F2C005A461B0112011F099A426BD3002F69D00C
:103F3C0053461A0F1B021B0A12071A434B461E0F3D
:103F4C0033070393A0231B063B4390460293019730
:103F5C0041E00B2E53D1A022029B120659465F461C
:103F6C0008023F0F19021B01BB46000A090A1B0F6E
:103F7C0023D00F11BC46012B3FD00F12BC46022B95
:103F8C003BD00F13BC46032B37D00F14BC46042B6D
:103F9C0033D00915052B10D0991F062B0DD0D91F26
:103FAC00072B0AD00139082B07D00139092B04D073
:103FBC0001394B424B415B4219405B461B0718438E
:103FCC001143FDF717FD03002B409B46019B00029C
:103FDC00000A834216D8200F2402240A000720432B
:103FEC004146FDF707FD284004000A2EB1D1B0224E
:103FFC001206130001990B43B0E76146DDE74B460F
:10400C00039AABE74A46A02112015346120A09064D
:10401C001143A0221B021B0B12061A43049B894658
:10402C00013B92460493002B00D078E7079B089A3B
:10403C00981A099B0530C01A069A059B0006204366
:10404C009C1A63425C41B0231B069C4664422407C5
:10405C0000016444000920430BB03CBC90469946D7
:10406C00A246AB46F0BD0348F6E7002309934EE7A2
:10407C00FFFFFFF0999999A0D9239B00C35870B505
:10408C001B0F0400062B00D88FE0073B022B00D936
:10409C00D7E0DB239B00C358002B00D0E9E00F21B5
:1040AC00DA2308009B00E258002610400500093D69
:1040BC00431C092D00D8D7E00F20110901408919A4
:1040CC000E000A3E0025092E00D8C9E00F20160A62
:1040DC0006407619350009010A3DCB180021092D3F
:1040EC0000D8B9E00F20150B05406D183602F618F4
:1040FC002B000A3B0021092B00D8A9E02B030F252C
:10410C00100C2840401801000A399B190026092977
:10411C0000D892E00F25110D294089190E000004DA
:10412C000A3EC3180020092E02D80631294001305E
:10413C000F250905C918130E2B401B181E000A3E2B
:10414C00092E01D806332B400F221B065B181D02CB
:10415C0013400A3B2D0A052B00D8B8E02B061B0F89
:10416C000A3B052B00D8ACE02B051B0F0A3B052B9B
:10417C0000D89DE02B041B0F0A3B052B00D88EE0CA
:10418C002B031B0F0A3B052B00D87FE02B021B0FC8
:10419C000A3B052B00D870E0FF231D40DA230022D8
:1041AC009B00E5500433E25070BDDB239B00C258EA
:1041BC00002A4AD0043BC2580F231E00164035007B
:1041CC00093D0021701C092D03D807363340180017
:1041DC0001310F26150935406D1829000A390023C5
:1041EC00092902D806353540013329010F25091854
:1041FC00100A2840C01803000A3B0026092B02D8DD
:10420C00063028400136000241180F20150B0540DE
:10421C00AD192B000A3B0026092B02D806350540A8
:10422C0001362B030F25100C284080195B18010058
:10423C000A390026092900D96CE7063028400136D6
:10424C0068E72648FCF74AFEAEE70122C250ABE70E
:10425C0006350540013151E706360640013141E78C
:10426C0006310140013531E70B00073003400136C0
:10427C0022E71B48FCF746FE11E7C023DB039C46F4
:10428C0065442900174807F0B3FF85E7C023DB021C
:10429C009C4665442900134807F0AAFF76E7C02323
:1042AC00DB019C46654429000E4807F0A1FF67E737
:1042BC00C023DB009C46654429000A4807F098FFA0
:1042CC0058E760352900074807F092FF4CE70635A0
:1042DC002900044807F08CFF40E7C046B4E60120F3
:1042EC0090E6012080E50120F0B5C646DB2300B541
:1042FC009B00C35804000E0088B0002B47D0D92374
:10430C009B00C158E1220F230D0B1D4092008550DC
:10431C00080A1840804604320F09A0501F4004328E
:10432C00A7500B400432A350ED203A01D218800064
:10433C002250092D27D86448AD004559AF46E922D3
:10434C009200A75004329046604DA35031002B00D0
:10435C00032220000097FCF77BFC4346E358042221
:10436C00009331002B002000FCF788FC584D2B00EB
:10437C00052231002000FCF797FC2B0006223100AF
:10438C002000FCF7A7FC08B004BC9046F0BDD92374
:10439C009B00C15820330D0FC550E2220F23080E8D
:1043AC00184092000F0DA0501F400432A7500A0C69
:1043BC001340E42292008046A350B5E7FF23EE2081
:1043CC000A0C1A408000EF27F0252250080A1840EA
:1043DC001940404BBF009846AD00E05100922000C0
:1043EC00615103223100FCF733FCE359310020000A
:1043FC00009304224346FCF741FC63593100200032
:10440C00009305224346FCF74FFC062231002000A6
:10441C002F4BFCF75FFCB6E74246052A4DD03FDC3C
:10442C00032AB0DCE9229200A7500832A35000976F
:10443C00264B04E0EC239B00E2500092264B31000B
:10444C0020000322FCF704FC214D04222B00310038
:10445C002000FCF713FC8AE7CB23A0209B0000066E
:10446C00E1581043FDF7C6FAEC23000100099B004C
:10447C00E0500090E2E7CC23EFE7CD23EDE71749BE
:10448C0003A806F091FE02AA154903A814F098FCA3
:10449C00EC22029B92009B001B59A3500093CDE78A
:1044AC0040460638012800D96DE7E9229200A75052
:1044BC0004329046A350043246E7E9239B00E750B0
:1044CC000097024BBBE7C046D4E60120C4E60120AE
:1044DC0074F40120D0E60120C8E6012064DF01203D
:1044EC0088F50120FD2210B59200835C040086B093
:1044FC00202B25D0432B21D141238354DC230822AC
:10450C009B00C018083BE11807F0C0FBDC239B00A4
:10451C00E25815491201120901A806F045FE6A4637
:10452C00124901A814F04CFC009B01219B001A5964
:10453C00D9239B002000E250FFF7D6FE06B010BD39
:10454C00E0239B00C358002B04D0D4239B00C258FB
:10455C001433C250FD2341229B00E254843BE018EB
:10456C00083BE118393ACFE764DF012088F50120D8
:10457C00DA23F0B5514C9B00C646E2580433E3589D
:10458C002126591E8B4100B54D4F5B424D4933409E
:10459C0096B020333800884606F006FE4A4D4B494B
:1045AC003A00280006F000FEDC239B00E25804339E
:1045BC00E3583800591E8B415B423340203341464F
:1045CC0006F0F2FD3A00424902A806F0EDFD02A900
:1045DC00280014F095FCD4233E4E9B00E2583E4933
:1045EC000023300006F0E0FD32003C4902A806F042
:1045FC00DBFD02A9280014F083FCD9239B00E258B0
:10460C00374902A806F0D0FD02A9280014F078FC66
:10461C00F621F423DF22890061589B009200E358B5
:10462C00A25802A800912F4906F0BEFD280002A94D
:10463C0014F066FCD6239B00E258531C38D02A4E4B
:10464C002A49300006F0B0FD3200294902A806F0D4
:10465C00ABFD280002A914F053FCD7239B00E258B1
:10466C00531C29D0204E2149300006F09DFD32000C
:10467C00204902A806F098FD280002A914F040FC7D
:10468C00D8239B00E258531C14D0174C1749200018
:10469C0006F08AFD2200184902A806F085FD2800C4
:1046AC0002A914F02DFC280016B004BC9046F0BDF5
:1046BC00124ACAE7114AEEE7104AD9E7588A022093
:1046CC00A087022000E701206088022008E7012073
:1046DC001CE701201087022030E7012038E7012079
:1046EC004CE7012064E70120608702208CE7012061
:1046FC0094E70120A8E70120BCE70120FCE601209B
:10470C00F0B5D6464F4646464A48C0B507F070FD50
:10471C00494807F06DFDFFF72BFF0100474807F0F4
:10472C0067FD474B00249946464B474D9846474EEC
:10473C00474F0DE022324146380006F035FD3A0075
:10474C0021003000013407F053FD0435082C18D03B
:10475C002B685A1C63D01A0F1B011B090A2A5CD048
:10476C000B2AE7D03A4904358A463A49504606F0B6
:10477C001BFD210052463000013407F039FD082C96
:10478C00E6D1D023344C9B00E3180CCB511C48D001
:10479C00324D3349280006F007FD2A00082130006D
:1047AC0007F026FDD2239B00E3180CCB511C3CD008
:1047BC002A4D2B49280006F0F7FC2A00092130006D
:1047CC0007F016FD0A2007F06BFB264807F010FDDA
:1047DC00254807F00DFDE9239B00E158234807F01D
:1047EC0007FDEA239B00E158214807F001FDEB236C
:1047FC009B00E1581F4807F0FBFCED239B00E2589F
:10480C00043BE1581C4807F0F3FC0A2007F048FB76
:10481C001CBC90469946A246F0BD2B228BE74A461B
:10482C008EE7591CB4D1064AB8E7591CC0D1044ACA
:10483C00C4E7C046DCE70120E4E70120ECE70120F7
:10484C00D0E70120FCE70120788D022004E801204C
:10485C0000870220F0E70120588A022010870220EE
:10486C0030E7012014E8012020E801202CE8012089
:10487C0040E8012054E8012068E8012030B5B3B0CD
:10488C00050002F07BFD184802F0A8FF041E1FD0A3
:10489C002900164806F088FC2800154913F07AF810
:1048AC00041E18D0134D03E06946280007F0A0FC45
:1048BC002200C721684613F0FFF80028F4D120002D
:1048CC0013F0DCF8012402F077FD200033B030BD8A
:1048DC0002F072FDF9E72900074807F089FC002473
:1048EC0002F06AFDF1E7C0464CE001208CE80120A3
:1048FC0008F9012054E301209CE80120F0B5B3B085
:10490C00050002F03BFD214802F068FF041E32D086
:10491C0029001F4806F048FC28001E4913F03AF8FD
:10492C00061E2BD01C4F3200C721684613F0C4F86A
:10493C00002817D06B461B782A2BF4D1174C250076
:10494C0050356A4621003800636898470028EAD140
:10495C000834AC42F5D13200C721684613F0ACF8EC
:10496C000028E7D1300013F089F8012402F024FD6F
:10497C00200033B0F0BD02F01FFDF9E72900084814
:10498C0007F036FC002402F017FDF1E74CE00120A3
:10499C008CE8012008F90120588A022050190220C5
:1049AC009CE8012010B5010004000748FFF7A6FFA2
:1049BC00FC2300229B00E250083B9C460122002372
:1049CC0064442260636010BD2091022010B502493E
:1049DC000248FFF793FF10BD588A0220B0E801206F
:1049EC00F0B5C64600B55B4C0500A54401A814F013
:1049FC00F3FA01A9584807F0FBFB02F0BFFC57483B
:104A0C0002F0ECFE041E00D195E00A2201A906A8D2
:104A1C000FF0F8F8002874D1514906A811F09AFD4E
:104A2C00DA239B00EA584F4906A811F093FDDB23CB
:104A3C009B00EA584C4906A811F08CFDD4239B002E
:104A4C00EA584A4906A811F085FDD6239B00EA587E
:104A5C00474906A811F07EFDD7239B00EA5845492B
:104A6C0006A811F077FDD8239B00EA58424906A806
:104A7C0011F070FDD9239B00EA58404906A811F0AB
:104A8C0069FDDE239B00EA583D4906A811F062FD42
:104A9C00C82300249B003B4FEE182200390008CE9F
:104AAC0006A8013411F056FD082CF6D1C823364C5B
:104ABC009B0021000822EB5806A811F04BFDC923DE
:104ACC009B002100EB58092206A811F043FD2F4949
:104ADC0006A811F03FFD2E4B0024072698462D4FBB
:104AEC0008E0A3003900EA5806A8013411F032FDA1
:104AFC00C82C13D02642F4D1414606A811F02AFD49
:104B0C00EFE7254807F074FB002402F055FC200069
:104B1C009E239B009D4404BC9046F0BD1F4906A8F3
:104B2C0011F018FD06A810F0D5FC041E06D102F0F9
:104B3C0043FC0124EBE702F03FFCE8E712F01EFF18
:104B4C0022000100164807F053FB002402F034FC4D
:104B5C00DDE7C04688FDFFFFBCE801204CE00120EA
:104B6C00D4E8012000E9012014E9012028E9012002
:104B7C003CE9012058E9012074E9012090E9012069
:104B8C00ACE90120C4E90120D0E90120E0E90120D1
:104B9C00ECE90120F0E90120C8E80120ACE101209A
:104BAC00F8E9012030B504000C4D85B02A000C4BFF
:104BBC000C490D4802F086FE0C4B29001A68684619
:104BCC00013206F0F1FA69462000FFF709FF694649
:104BDC00074807F00DFB05B030BDC0461CEA0120AC
:104BEC0010EA01202CEA01204CE00120DC86022096
:104BFC0038EA012010B5094802F0E8FB002808D07B
:104C0C00074C08482100FFF7EBFE2000FFF736FEAB
:104C1C0010BD0549054807F0EBFAF1E74CE001201F
:104C2C00B0E80120588A02205890022050EA012056
:104C3C00002370B5204D0C002B7082B00B0007299F
:104C4C0016D9083B012B02D9280002B070BD1B4EAF
:104C5C00D0339B001A581A490023300006F0A4FAEE
:104C6C00230010212800174A009606F0B1FAEBE752
:104C7C00C8339B001B585A1C1CD01A0F1B011B0954
:104C8C000A2A15D00B2A0CD122320F4E0F493000B4
:104C9C0006F08AFA3300220028000A4906F084FA4A
:104CAC00D2E7094E0A49300006F07EFA3300F2E7EB
:104CBC002B22EAE7074BEEE7208702201087022021
:104CCC0030E701205CEA012000870220FCE701208C
:104CDC00F0E70120D0E70120F0B54546DE46574607
:104CEC004E46E123E0B59B00C35804000D008BB089
:104CFC00092B3ED8E84A9B00D3589F46E926EB2364
:104D0C00B60081599B00C058072901D800F03CFC23
:104D1C000B00083B012B01D800F0DFFC0A00DF4838
:104D2C00DF49FCF7DBF8A1592000FFF781FFDD4ECE
:104D3C0029003300009003222000FBF789FFEA23AF
:104D4C009B00E1582000FFF773FF33000090042212
:104D5C0029002000FBF792FFD34E330005222900D7
:104D6C002000FBF7A1FF3300062229002000FBF7EF
:104D7C00B1FF0BB03CBC90469946A246AB46F0BD89
:104D8C00E2239B00C358092BF3D8C84A9B00D35885
:104D9C009F46EE239B009A46C358C54F1A01390013
:104DAC00120905A806F000FAC24E04AA310005A8A3
:104DBC0014F006F8F1239B009B465A46049B3900DD
:104DCC009B001B5905A8A350EF239B009946E35861
:104DDC001A01120906F0E8F9310004AA05A813F02B
:104DEC00EFFF049B39009B001B59F3270393F2231D
:104DFC00039A9B00E250F02292009046A25805A81C
:104E0C001201120906F0D0F9310004AA05A813F01A
:104E1C00D7FF049ABF0093001A59A74EE2515A4685
:104E2C00A258330001925246A25829002000009249
:104E3C000322FBF70DFFF2239B00E358042201939E
:104E4C004B46E3582900200000933300FBF716FF74
:104E5C00E359052201934346E358290000932000AF
:104E6C003300FBF721FF0622290020008E4BFBF7B5
:104E7C0031FF7EE7EE23F1229B00C3589200835052
:104E8C000432904641460C3A8258F3274250F022A5
:104E9C0092008258894EBF00C25129000093032210
:104EAC003300FBF7D5FE4346E3582900200000935E
:104EBC0004223300FBF7E2FEE3590522009329009C
:104ECC0033002000FBF7F0FECDE7E2239B00C35834
:104EDC00072B00D94DE77A4A9B00D3589F46E22313
:104EEC009B00C358092B00D943E7764A9B00D35843
:104EFC009F46E926EB23B60081599B00C75807292A
:104F0C0000D852E30B00083B012B01D800F005FC44
:104F1C000A0062486C49FBF7E1FFA15904E7E4235E
:104F2C009B00C358042B01D900F093FC674A9B00EB
:104F3C00D3589F46E9239B00C15808330A00C35835
:104F4C00072900D915E3A0201B01C8321B09000654
:104F5C009200034313512000FFF76AFE514B00905F
:104F6C00290020000322FBF773FE4F4E042233006E
:104F7C0029002000FBF782FEEFE6E927EB23BF00B8
:104F8C00C1599B00C058072900D82FE30B00083BE0
:104F9C00012BE0D8C023B022C90061189B00CE18A9
:104FAC00736812061B011B091343C1173268FDF706
:104FBC00C7F830607160E159CDE7E927EB23BF00FA
:104FCC00C1599B00C258072900D824E30B00083BA9
:104FDC00012BC0D8C9004118A020D3171B01000613
:104FEC001B090343C02080000E1830687168FDF760
:104FFC00A7F830607160E159ADE7E927EB23BF00FA
:10500C00C1599B00C058072900D8DEE20B00083BB1
:10501C00012BA0D8C023C90061189B00CE18B02367
:10502C00C11709011B060909194332687368FDF79A
:10503C0087F830607160E1598DE7F6220123920008
:10504C00835010328350E9239B00C158FFF7F0FDC9
:10505C00144D03222B00009001212000FBF7F8FDDA
:10506C00EA239B00E1582000FFF7E2FD2B000090A3
:10507C00042220000121FBF701FE0B4D20002B0028
:10508C0005220121FBF710FE2B0006220121200036
:10509C00FBF720FE6DE6C046B0EA012074E6012065
:1050AC00F8F1012054E3012074F40120D8EA012026
:1050BC0064DF012088F50120A0EA0120D0E6012060
:1050CC0000EB012020EB0120E4F1012048EB012052
:1050DC00EA27E926BF00B600C2598159FEF708FD40
:1050EC00A1592000FFF7A4FDE74E290000903300E2
:1050FC0003222000FBF7ACFDE15923E6E926EA2761
:10510C00B6008359BF001900C2592000FEF772FD8A
:10511C00E6E7E926EA27B6008259BF001100C35919
:10512C00F3E7E926EA27B6008259BF001100C359FC
:10513C00FEF726FDD4E7E9239B00C6580433C1587B
:10514C00072900D890E20B00083B012B00D84CE358
:10515C00CE48FBF7C3FE072E00D874E23300083BA1
:10516C00012B00D826E33200C949CA48FBF7B6FE2A
:10517C00E9239B00E158D7E5EA239B00C158072996
:10518C0000D89EE20B00083B012B00D832E3BF484D
:10519C00FBF7A4FEE9273100BF48BF0007F028F851
:1051AC00E159072900D881E20B00083B012B00D8FC
:1051BC00F0E2B648FBF792FEE359C8339B0019594D
:1051CC00B64F380007F014F8EA239B00E1580B00A7
:1051DC00072900D832E3083B012B00D876E2AB4814
:1051EC00FBF77CFEE926B600A159072900D852E24C
:1051FC000B00083B012B00D8BDE2A448FBF76EFE68
:10520C00A359C8339B001959380006F0F1FFAFE7DA
:10521C00E9239B00C6580433C158072900D834E24F
:10522C000B00083B012B00D804E39848FBF756FE13
:10523C00072E00D81FE23300083B012B00D8DFE219
:10524C00320097499348FBF749FE91E7EC239B000A
:10525C00C2580023934E9449337093001B5830006E
:10526C0005F0A2FF032229002000874B0096FBF7D4
:10527C00EFFC8E4E0422330029002000FBF7FEFCCD
:10528C003300052229002000FBF70EFD3300062217
:10529C0029002000FBF71EFDF62301229B00E250A3
:1052AC0067E5F6239B00C3180121012018605960A3
:1052BC00EC239B00E35800937D4B51E6DE23EC2658
:1052CC009B00B600C75883597A491A01120905A8E0
:1052DC0005F06AFF784904AA05A813F071FD049B38
:1052EC00A2599B001F5100236E4E6F4933709300DF
:1052FC001B59300005F058FF634B009630E6DF2356
:10530C009B00C658002E31D1FEF7B6FEDA22DE2302
:10531C009200A1589B00E1503833E358A35004325B
:10532C00A6500093624B290020000322FBF790FC4F
:10533C005E4E2900330020000422FBF79FFC330053
:10534C00290020000522FBF7AFFCDF239B00E3586C
:10535C000622009329002000584BFBF7BBFC08E504
:10536C00DF239B00C358012B00D1F5E1FEF784FE2F
:10537C00EC239B00E358D4E7FEF77EFEDA23DE2213
:10538C009B00E1589200A1503832A258E250002202
:10539C000433E250EDE4C8239B00C6580433C35ACF
:1053AC003604EC27BF001E43E35942491A01120987
:1053BC0005A805F0F9FE04AA3F4905A813F000FD65
:1053CC00049BE2599B001E510023364E3649337024
:1053DC0093001B59300005F0E7FE2B4F03223B00D6
:1053EC00290020000096FBF733FCE9239B00E158D1
:1053FC002000FFF71DFC3B00042229000090200038
:10540C00FBF73CFCEA239B00E1582000FFF710FC63
:10541C003B000090052229002000FBF745FC22E50B
:10542C00C8239B00C658F02336061B051E40C92313
:10543C009B00C358224A1340B3E7EC239B00C2588D
:10544C001C491201120905A805F0AEFE04AA1A495E
:10545C0005A813F0B5FC049B9B001B591A0F0A3AC4
:10546C00012A00D8E7E0A022190C1B0412061B0C21
:10547C0011431343C9229200A350C8239B00E1504F
:10548C009033E258A0E7C04654E30120C4E2012067
:10549C00E4F1012074E6012078EA012088EA012079
:1054AC00F8F101204087022094EA012074F40120D5
:1054BC00C8E6012064DF012088F5012064EA0120A0
:1054CC00FFFFFFF0E9239B00C1580B00072900D810
:1054DC00EFE1083B012B00D825E2DF2301229B00E2
:1054EC00E2502000FFF7A4FBE14B00901BE7E923FF
:1054FC009B00C1580B00072900D900E2C8339B0060
:10550C001B581B0F0B2BE8D0DF2300229B00E25013
:10551C00E7E7E9239B00C1580B00072900D9DCE120
:10552C00C8339B001B581A0F0A2AEDD11B02D4D189
:10553C00EAE7E9239B00C1580B00072900D8ECE1EE
:10554C00083B012BC9D80B000F226033DB00C3587A
:10555C001340002BD8D1C0E7E9239B00C1580B00A6
:10556C00072900D9ABE1C8339B001B581B02B4D0F0
:10557C00CAE7083A012A00D9EDE46832D200821851
:10558C001360DB175360E6E4C8278E00A619BF0032
:10559C00F259800013011B09C340120F1B021B0A96
:1055AC0012071343F351FFF7BFFB88002018843E0A
:1055BC008259BF0013011B09BB40120F1B021B0AAF
:1055CC00120713438351FFF7AFFB8C3B0001984646
:1055DC000309B02000061843434689006618F158A9
:1055EC00FCF708FA4346F050E159B4E48900661818
:1055FC008C3B9846F35800011901B02309091B068E
:10560C0019430309A02000061843FCF7F3F943469D
:10561C00F050E1599FE489004618A0218C3B984634
:10562C00120112090906F0581143FCF7E3F943463D
:10563C00F050E1598FE4A0211A01120F0906114311
:10564C008C4A134016E7C8214046B600A6198900BB
:10565C007258800013011B0983401B02120F1B0A96
:10566C0012071343735083E5C83189000B581B0193
:10567C001B0998466FE5C821B600A6198900725817
:10568C00BF0013011B09FB40E7E7C83189000F5825
:10569C003F013F09CCE5C8224846890063189200B7
:1056AC009958090F090701439950ADE5C8228900A3
:1056BC00631892009958360709010909314399502A
:1056CC007EE5C83189000E58360F63E56031C9009C
:1056DC00615809020B0A994684E5C0239B009C463D
:1056EC0080000600CA00A2186244136857689946E5
:1056FC003B011B099846203EB44600D5ADE01E0088
:10570C006346DE404346C340380F1B041B0C0007A6
:10571C00034316605360FFF707FBC0239B009C46B6
:10572C00BA002027C8002018604443687F429C467A
:10573C001B011B0998460668D71900D59EE033005B
:10574C00BB40964062461B04120F1B0C12071343FE
:10575C0006604360FFF7E8FAFEF78EFCDA22DE23E0
:10576C009200A1589B00E15000213833E358A3501C
:10577C000432A150D5E5C022920094464846CB0095
:10578C00E31863441A68C831D217120705C389009D
:10579C00095939E5C0239B009C46CA00A2186244F3
:1057AC00536836071B011B091E43C831566089001C
:1057BC00095905E5C02342462027F600A6199B008F
:1057CC00F1184E68920033011B097F429C46086811
:1057DC00D7195CD40300BB4090401B04320F1B0C48
:1057EC001207134308604B60C2E46031C900435890
:1057FC009846B0E46031C90041184E68360FC9E4D0
:10580C00C023F600A6199B00F218202613685168D5
:10581C009C46BF000B0176421B09BE1940D41800F0
:10582C00F040FB40090F1B041B0C09070B431060D5
:10583C0053609DE46031C9004758F9E4C8339B00BC
:10584C001E590D483602360A320006F0D1FCB1461C
:10585C00C8E4E9239B00C15843E620231B1A9C464D
:10586C0043466646B3404E46C6401E434AE7C046D2
:10587C0054E30120FFFFFFF0A4E5012020273300B3
:10588C00BF1AFB401F00434693403B4359E7202778
:10589C000300BF1AFB401F00634693403B439BE74A
:1058AC0020261800F61BB04006006046F840304336
:1058BC00B7E7C8339B001B581B021B0F49E6083B7C
:1058CC00012B00D920E60B006033DB00E3181A68CB
:1058DC009B88134300D017E6FFE5083B012B00D94A
:1058EC0012E60B006033DB00E3180CCB180F0A2810
:1058FC0000D009E69BB2134300D105E6EDE5083B69
:10590C00012B00D900E60B006033DB00E3185B6869
:10591C001B0F0B2B00D0F7E5DFE50F22C8339B00E4
:10592C001B58134015E60B006033DB00C3185B6893
:10593C001B041B0F0DE6C046FD2230B59200835CA4
:10594C00040087B0202B08D0412B04D14223012125
:10595C008354FFF7C1F907B030BDE0239B00C35857
:10596C00002B04D0D4239B00C2581433C250FD2505
:10597C004123AD006355DC239B00E018083BE11884
:10598C00082206F083F9DC239B00E2580D49120132
:10599C00120901A805F008FC6A460B4901A813F08E
:1059AC000FFA009B20009B001A59D9239B00E25050
:1059BC000121FEF799FC4223012120006355FFF7DA
:1059CC008BF9C8E764DF012088F501200022F8B5C7
:1059DC001E4C03002280020F0A2A32D00B2A08D058
:1059EC00092A30D81A4D02001A49280005F0DCFBB0
:1059FC0025E02D27164D3A00174928001E0105F009
:105A0C00D3FB3A001549200005F0CEFB0622360FD9
:105A1C00921BE91C200013F01BFB200013F0E4FA8E
:105A2C0002220F49201806F031F9A91B0931320066
:105A3C00200013F00DFB2100280013F0CDFA2800F4
:105A4C00F8BD2B27D6E72027D4E7C0469087022045
:105A5C008087022098EA01205CEB012038EC0120C1
:105A6C003CE30120F8B500240E4E0F4F0CE020CE85
:105A7C002800FFF7ABFF210003002A003800013497
:105A8C0006F0B6FBC82C09D00521200005F040FC1F
:105A9C000029ECD10A2006F003FAE8E70A2006F008
:105AAC00FFF9F8BD588A022064EB0120F0B5DE4600
:105ABC00454657464E46E223E0B59B00C3580400CA
:105ACC000D009B468DB0092B73D8B44A9B00D3585C
