:020000041000EA
:1000000000B5324B212058609868022188439860DF
:10001000D860186158612E4B002199600221596106
:100020000121F02299502B49196001219960352056
:1000300000F044F80222904214D00621196600F024
:1000400034F8196E01211966002018661A6600F04E
:100050002CF8196E196E196E052000F02FF8012189
:100060000842F9D1002199601B49196000215960AB
:100070001A491B48016001219960EB211966A021F2
:10008000196600F012F800219960164914480160C1
:100090000121996001BC002800D000471248134993
:1000A000086003C880F30888084703B5996A0420EC
:1000B0000142FBD001200142F8D103BD02B5186610
:1000C0001866FFF7F2FF186E186E02BD00000240BE
:1000D000000000180000070000035F00212200005C
:1000E000F4000018222000A00001001008ED00E03C
:1000F00000000000000000000000000074B24E7A12
:1001000000200420F7010010C3010010C5010010F9
:10011000C1010010C1010010C1010010C101001097
:10012000C1010010C1010010C1010010C701001081
:10013000C1010010C1010010C9010010CB01001065
:10014000CD010010CD010010CD010010CD01001037
:10015000CD010010CD010010CD010010CD01001027
:10016000CD010010CD010010CD010010CD01001017
:10017000CD010010CD010010CD010010CD01001007
:10018000CD010010CD010010CD010010CD010010F7
:10019000CD010010CD010010CD010010CD010010E7
:1001A000CD010010CD010010CD010010CD010010D7
:1001B000CD010010CD010010CD010010CD010010C7
:1001C00000BE00BE00BE00BE00BE00BEEFF3058054
:1001D000103800BEF2EB887190020010B4020010DB
:1001E0003802001090A31AE721482249086006C887
:1001F00081F30888104720480068002801D01C4877
:10020000F3E70DA40ECC002902D000F012F8F9E7B4
:100210001A491B4A002000E001C19142FCD1194952
:100220008847194988471949884700BEFDE701C931
:1002300001C29A42FBD37047B4020010C0000020F4
:1002400014F0012008F2011020F00120E8BD022086
:10025000D0BF02100000042000000420D0BF021014
:10026000001004200010042000000000704700006F
:100270000000000008ED00E0000000D0E8BD022012
:1002800094E1022011DF0020058A0020D1DE002049
:10029000902602209C260220A8260220B4260220B6
:1002A000C0260220CC260220D8260220E4260220E6
:0402B000D02902202F
:1002B400F8B5C0460448054B10B5834203D0044B3F
:1002C400002B00D0984710BDE8BD0220E8BD0220F5
:1002D4000000000006480749091A8B10C90FC91805
:1002E40010B5491003D0044B002B00D0984710BD23
:1002F400E8BD0220E8BD02200000000010B5074C54
:100304002378002B09D1FFF7D5FF054B002B02D032
:10031400044800E000BF0123237010BDD8C90220A7
:100324000000000014F00120054B10B5002B03D091
:100334000449054800E000BFFFF7CCFF10BDC046EC
:1003440000000000DCC9022014F001207047C04600
:10035400F52301229B00C2507047C046F7230122B7
:100364009B00C2507047C04682220023D2008021E5
:1003740083500122C9004250083942508122D200E0
:10038400835070478222D200835801338350FE2366
:1003940001229B00C25070478222D2008358002B56
:1003A40001DD013B8350FE2301229B00C2507047B4
:1003B400802200230121D2008350083A8150103258
:1003C40083507047802300210122DB00C31806C339
:1003D400FE2301229B00C25000221033C2507047FA
:1003E40082220023D2008350103A83500133083A0A
:1003F40083501032835070478222D2008258054BBA
:1004040012019B1800225B681A60FE2301329B00D4
:10041400C25070478C9B02208222D2008258054B26
:1004240012019B185A6801231360FE229200835024
:100434007047C0468C9B02208223DB00C258002AEE
:1004440001D10132C250FE2301229B00C2507047E9
:10045400FE220121014B920099507047B0C0022046
:10046400084B0948094918605960094809499860C6
:10047400D9600948094918615961094807499861CF
:10048400D9617047B0C0022063035203560056106E
:10049400500553055205510554055305510751069E
:1004A400002400240A4AC8201168B8224A43094B90
:1004B40030B59B185969084C0023400003E0E25012
:1004C4000433834202D0CA58551CF8D130BDC0460B
:1004D40068DC02208C9C0220B0C00220B8220A4BA7
:1004E40019680A4B4A431960094B01219B180022E1
:1004F40019611A76074B1960074B1960074B1A608C
:10050400074B1A707047C04668DC0220F4E00220F2
:100514008C9C0220FCE0022000E102204CE002203E
:1005240050E00220FEE7C046D0220B4B0B480C499A
:10053400920010B59C182060616000210948203A9F
:100544009A1803C2084A09481A600EF073F80CCCD2
:1005540007480EF06FF810BDB0C002203254760880
:100564003054760856341200181410147000022007
:100574008000022010B50E480DF0DAFF0D4B0E4836
:100584001A680E4B19680EF055F80D4B0D48196892
:100594000EF050F80C4B0D481A680D4B19680EF00C
:1005A40049F80C4B0C4819680EF044F810BDC046CD
:1005B4009800022038DC0220A800022040DC02203F
:1005C4003CDC0220CC00022048DC0220E4000220B3
:1005D40030DC022044DC0220F800022010B5054C77
:1005E400054821680EF026F82068253808F07EFDBD
:1005F40010BDC0464CDC02200401022010B50A20C4
:1006040008F074FD10BDC04610B5092008F06EFD59
:1006140010BDC04610B5152008F068FD10BDC046D9
:1006240010B5162008F062FD10BDC04610B51720A5
:1006340008F05CFD10BDC04610B5072008F056FD5B
:1006440010BDC04610B51A2008F050FD10BDC046BC
:1006540010B5022008F04AFD10BDC04610B50620B2
:1006640008F044FD10BDC04610B5052008F03EFD5D
:1006740010BDC04610B5032008F038FD10BDC046BB
:1006840010B5042008F032FD10BDC046FE22002142
:1006940010B5034B92001820995008F027FD10BDA7
:1006A400B0C00220FE22002110B5034B9200192095
:1006B400995008F01BFD10BDB0C00220F0B5002217
:1006C400C646114B114C00B525001A6000230127C2
:1006D40098460F4E183504E043462B7027610135C8
:1006E400B834310020681AF089FB0028F4D10122C3
:1006F400084B1860084B1A60084B1860084B1870B8
:1007040080BCB846F0BDC046F4E002208C9C0220B8
:1007140008010220FCE0022000E102204CE002205B
:1007240050E0022030B583B005000A49100001AA48
:100734001AF068F90400012803D00024200003B053
:1007440030BDDB2301999B00E95003480DF072FF93
:10075400F4E7C046100102202001022030B583B026
:1007640005000A49100001AA1AF04CF904000128F6
:1007740003D00024200003B030BDDC2301999B008A
:10078400E95003480DF056FFF4E7C0463801022053
:1007940048010220002330B583B005000A49100047
:1007A40001AA01931AF02EF90400012803D00024B1
:1007B400200003B030BDD42301999B00E9500348C5
:1007C4000DF038FFF4E7C0466001022070010220FA
:1007D40010B582B001AB0400114910006A461AF04A
:1007E40011F90023022802D0180002B010BD0099AC
:1007F400019A01290BD002290DD0002902D1D72357
:100804009B00E25007480DF015FF0123ECE7D823C5
:100814009B00E250F6E7D9239B00E250F2E7C04682
:100824008C010220A401022030B583B005000A49DE
:10083400100001AA1AF0E6F80400012803D00024ED
:10084400200003B030BDDA2301999B00E95003482E
:100854000DF0F0FEF4E7C046C4010220E0010220DE
:1008640030B583B005000A49100001AA1AF0CAF88D
:100874000400012803D00024200003B030BDDF238E
:1008840001999B00E95003480DF0D4FEF4E7C046FB
:10089400000202201402022030B5284C050023680F
:1008A40010008FB0002B02D100200FB030BD0DAB73
:1008B40005930CAB04930BAB03930AAB029309AB04
:1008C400019308AB00931E4907AB06AA1AF09AF8E5
:1008D400082804D000231B4A23601360E4E7194C62
:1008E40022689300EB18590717D1069807991860E6
:1008F4005960089809999860D9600A980B99186109
:1009040059610C980D999861D96113000732083325
:10091400920023600120A950C7E70699196007993E
:100924005960089999600999D9600A9919610B99D4
:1009340059610C9999610D99D961E6E77CDC022033
:100944002C02022080DC022010B582B0100009497C
:1009540001AA1AF057F80400012803D0002420004B
:1009640002B010BD0199044B044819600DF062FEF9
:10097400F5E7C0464802022030E00220600202206F
:1009840010B582B010000A4901AA1AF03BF804001D
:10099400012803D00024200002B010BD054B019AA9
:1009A40005481A60054B19680DF044FEF3E7C0468C
:1009B4008002022030E002209402022018DE02208D
:1009C40010B509490400094809F084F8802301207E
:1009D4000021DB00E31803C3FE2301229B00E25045
:1009E40000221033E25010BDC8C40220B00202201D
:1009F400802300210022DB00C31810B506C3812325
:100A04000022DB00C250103B0132C250014808F002
:100A14002BFD10BD48B20220F0B5D6464F464646DF
:100A2400C0B5174882B00DF083FD164B00259946DA
:100A3400154B164C9846164B164F9A4626683900A5
:100A440030001AF0DBF900280CD022694346002A52
:100A540000D0534622001832009229003200484642
:100A64000DF0E8FD0135B8341E2DE7D10A200DF054
:100A740015FD02B0E0BCBA46B146A846F0BDC0467A
:100A8400C8020220D8020220C00202208C9C02204C
:100A9400B80202200801022070B50A200DF0FEFC05
:100AA400094C0A4E2500F935FF35626813782A2B64
:100AB40003D0300021780DF0BDFD0C34AC42F4D1EC
:100AC40003480DF0B7FD70BD103C0220F002022077
:100AD400FC020220F0B5DE4657464E464546E0B5D8
:100AE400DDB0802200211CA80BF080FE80220021B2
:100AF4003CA80BF07BFE2D480DF01AFD2C4B019306
:100B04002C4B9A462C4B9B46FA2080000DF07AFC25
:100B1400023044D1019B03AF1B6800261B011B0953
:100B2400984600233B70013399463CAD1CAC18E059
:100B34002368002B07DD013B2360002B03D12A68C7
:100B4400002A00D02B6038001AF0A4F90222514682
:100B540038180BF051FE04355CAB01360434AB425B
:100B6400D2D04B464246B3401A42E1D038001AF084
:100B740091F90222594638180BF03EFE2368132BD4
:100B8400E9DC05332360072BE5DD2B68002BE2D17C
:100B94004B4631002B6009480DF04CFDDBE75DB09E
:100BA400F0BCBB46B246A946A046F0BD18030220DD
:100BB4006CE10220AC030220341C02202803022032
:100BC40070B527480DF036FD264D274C3DE0D02367
:100BD400012202211B069A61996102319961800008
:100BE4000431996141598A405A61D0231B065968DE
:100BF4005B68C906C90F9B0601D502231943D0239C
:100C04001B065B685B0601D504231943D0231B062E
:100C14005B681B0601D508231943D0231B065B68B8
:100C2400DB0501D510231943D0231B065B689B0504
:100C340001D520231943D0231B065B685B0501D52E
:100C44004023194320000DF0F5FCFA2080000DF03C
:100C5400D9FB831CC9D030380328B8D970BDC0462D
:100C64003003022074240220040102200021002009
:100C740010B50AF0C3FCC046100010B5072208499D
:100C840019F0F8FF0023002801D0180010BD01223C
:100C9400044B05481A600DF0CDFC0123F5E7C0466E
:100CA4003C0302207CDC0220440302207047C0463F
:100CB40008B4F0B5C646C82100B5E7B06DAB20CB8B
:100CC4008046140049002A0002A801930DF05EF941
:100CD40002A81AF0DFF810282DD8621ED400A41838
:100CE4001B4B6400A418E4182A001021019B200067
:100CF4000DF04CF920001AF0CDF80F26361A002E0C
:100D04000DDD0025134F02E020001AF0C3F8022283
:100D14003900201801350BF06FFDAE42F4D1FE23EB
:100D2400012241469B00CA5067B080BCB846F0BC63
:100D340008BC01B01847290007480DF07BFC02A944
:100D440006480DF077FC06480DF0F2FBC5E7C046F7
:100D5400C0D30220AC030220580302206403022003
:100D640078030220D421DB2330B5890042589B004C
:100D740083B00400C250DC2000230C4D80002350BB
:100D84006350043163502800094920330DF0D6F82C
:100D9400012201212000074B0095FFF789FFFE2364
:100DA40001229B00E25003B030BDC04624DD022086
:100DB400840302208C030220202130B52D4BD42241
:100DC40083B0C154002392008350043283503032E4
:100DD40083505C328350A023843A1B068350043230
:100DE400835004328350DB239B00C2580433C3581E
:100DF400040058424341204D5B428B4328001F4965
:100E040041330DF09BF820000095012201211C4B79
:100E1400FFF74EFF1B4D20002B0002220121FFF79C
:100E240047FF2B00200003220121FFF741FF2B0085
:100E3400200004220121FFF73BFF2B0020000522A4
:100E44000121FFF735FF2B00200006220121FFF7C7
:100E54002FFFEA2301204042C1179B00E31803C37C
:100E64000122EC2352429B00E25048330232E2500A
:100E740003B030BD0C04000024DD022084030220F2
:100E84009C030220B0030220202270B52C4B82B0B8
:100E9400C254D4220023012692008350043283508A
:100EA40030328650D721A0228900120642500431E4
:100EB400425004314250EA22920004008218012078
:100EC4004042C11703C2EC22012192004942A150C1
:100ED400383AA350083AA350DB231A4D9B00E2583A
:100EE4002800202318490DF029F82000009501223C
:100EF4000121164BFFF7DCFE200002220121144BD6
:100F0400FFF7D6FE134D20002B0003220121FFF72B
:100F1400CFFE2B00200004220121FFF7C9FE2B0085
:100F2400200005220121FFF7C3FE2B000622012128
:100F34002000FFF7BDFEFE239B00E65002B070BD0B
:100F44000C04000024DD0220840302209C03022000
:100F5400C0030220B00302208222D2008358002B57
:100F640001DD013B8350FE2301229B00C2507047E8
:100F7400F0B5C64600B5254886B00DF05BFB0023EE
:100F8400234C244F2360244B9846FA2080000DF014
:100F940039FA831C37D03928F7DC2F2809DC1B28C1
:100FA400F3D81E4B0341DB07EFD406B080BCB84630
:100FB400F0BD2268303893009B185B001B18390081
:100FC400404623600DF036FB1548164B06681B6837
:100FD400704270415A4253412025134A40422168CD
:100FE40012685B42A8434130AB4341330290019203
:100FF40000920E480A000DF01DFBFA2080000DF04F
:1010040001FA831CC7D10DF0E9F9BEE7D003022031
:1010140068DC02200CE10220FC030220FFDBFFF766
:1010240058D202205CD2022054D20220140402209E
:101034000FB400B5B5B036AB04CBC82101A80093FA
:101044000CF0A4FF35B008BC04B018470FB400B5C9
:10105400B5B036AB04CBC82101A800930CF096FFC1
:1010640001A903480DF0E6FA35B008BC04B01847EE
:10107400600402200FB470B5AAB02EAB04CBA0213B
:1010840001A800930CF082FF01A919480DF0D2FACF
:10109400184D9E24280019F0FDFE241A060001A80C
:1010A40019F0F8FE32000300210013480DF0C2FAD3
:1010B400631C15D0280019F0EDFE02220F492818F0
:1010C4000BF09AFB01A92200280019F09FFD2900CA
:1010D4000B480DF0AFFA2AB070BC08BC04B0184736
:1010E40021232200290007482B700DF0A3FAF2E710
:1010F4007804022050E002208C040220AC03022079
:10110400C4040220B404022010B50020D02408F046
:10111400A3FE012324066362012008F09DFE02233E
:101124000220636208F098FE04230320636208F03F
:1011340093FE08230420636208F08EFE102301222C
:10114400A3620021042008F075FE052008F084FE47
:1011540020230122A3620021052008F06BFE062053
:1011640008F07AFE40230122A3620021062008F041
:1011740061FE072008F070FE80230122A362002193
:10118400072008F057FE082008F066FE80235B0065
:10119400A36201220021082008F04CFE092008F077
:1011A4005BFE80239B00A36201220021092008F03A
:1011B40041FE0A2008F050FE8023DB0001220021BA
:1011C4000A20A36208F036FE10BDC04610B51529EA
:1011D4000FD018291CD0162910D0172922D007297E
:1011E4001BD90B00083B012B0DD91148FFF720FF39
:1011F40003E0DB2300219B00C05810BDD6239B00D5
:101204000021C058F9E76031C900411803C9F4E767
:10121400D4239B000021C058EFE7C831890040580F
:101224000021EAE7E0239B00C058C117E5E7C04668
:10123400D8040220F0B54E46DE4657464546E0B592
:10124400BD4E814632689DB0002A01D1BB4B1A6065
:10125400D02109064B684968DB06DB0F890601D5F6
:1012640002210B43D02109064968490601D504210E
:101274000B43D02109064968090601D508210B430F
:10128400D02109064968C90501D510210B43D02096
:1012940000064168890519D520210B434168490599
:1012A40011D4A7490B60A548A64904680C60D10174
:1012B4000B430360032A53D01DB0F0BCBB46B246B7
:1012C400A946A046F0BD40210B43EAE740688021CF
:1012D4000500C9000D400842F5D199490B60002B67
:1012E400E1D199498A4609680029E3D19748016800
:1012F40001310A2940DD0360954B9B461B68002B96
:10130400D8D0944B05931B680493002B4AD0924B7E
:1013140092491A680393B8235343914CCB1822681B
:1013240002919968920053588E4819001D00049345
:101334000DF080F91E2D00D1B5E01F2D00D1A2E0E3
:10134400002D00D1AFE0049D874829000DF072F90B
:10135400280007F0CBFE2368326801332360A9E735
:10136400764B824C1A68824D23682A609A4201D0D7
:10137400002A03D122609FE701609BE77D4B9C46D6
:101384001900002303E0013308311C2BF2D0086854
:101394008242F8D1DB006344586807F0A7FE2A684C
:1013A400226089E7744B180098460DF043F9B8227F
:1013B400694F6A4C3B6871485343E1580294039760
:1013C4000DF038F940460DF035F96D4B39681D6064
:1013D400B8234B43E3185A69C8235B009C464C4628
:1013E40003E063510435654502D05359581CF8D1C4
:1013F400B8234B43029A0025D3185A68614B340032
:101404009A46049E2B01D018D35C0B2B1ED00E2BB6
:1014140014D00A2B02D186680135F3E72A0050461E
:101424000DF008F95B4600221A60039B029A1968C2
:10143400B8234B43D3185A680135E3E70123059ACF
:1014440013600022464B1A60226833E78368C06841
:101454009C463300072E06D9083B012B0AD94A487B
:10146400FFF7E6FDE1E748466746C8339B00C750EF
:101474000135C7E74F466833DB00FB186746586001
:101484001F600135BEE7012352461360F522494629
:1014940092008B502368012101333C4823600DF0F6
:1014A400C9F8326806E70023524600213848136021
:1014B4000DF0C0F8B823039F36483A685343029AA4
:1014C400D1580DF0B7F81E2308931F3B0C960D94CA
:1014D4003E001C00304A2A4D0692304A2968079281
:1014E400049A06980DF0A6F82B6831689C46B82338
:1014F4004B43029AD3186246DB6810011A181B5C2E
:1015040018001438C0B20A2800D9EEE00799800008
:1015140009588F461A00224804991C000DF08AF8D5
:10152400296801312960DBE794681E4821000DF029
:1015340081F814230893F3E730DC022040DC022016
:1015440044DC022038DC022008E10220F0E0022022
:1015540000E102204CE00220F4E002208C9C0220F6
:1015640004E10220F4040220EC07022034DC02200F
:101574003CDC0220AC9B022000080220340802203C
:10158400F8E00220680802204C080220000502202E
:101594003405022064050220840502201823022059
:1015A400C8050220B8050220BA480C9E0CF0C0FF02
:1015B40000235A4613605246136001332B60039B89
:1015C400B54D1A68B8235343029A2968D218126990
:1015D400002900D007E1B14C002A00D152E1B04803
:1015E4000DF028F8039A00271368AE4901331360FD
:1015F400B8225343029A2770D05819F0FFFB0028F1
:1016040000D138E101235A461360059B32682F60EC
:101614001F604FE60D9CA4480C9E0DF00BF8236848
:10162400013323602B6801332B605B461B68002B5E
:10163400C5D09E480CF0FEFF32683BE6F5234F46CA
:101644009B00FA580833F95899480CF0F3FFF72334
:101654009B00FB58002B00D162E79648FFF70AFD78
:10166400B82332685343029AD31800221A6157E709
:10167400F5234F469B00FA580833F9588E480CF06E
:10168400D9FFF7239B00FB581F1E00D048E78B4867
:10169400FFF7F0FCB82332685343029AD3181F6152
:1016A4003EE7089F864A3B00143B9B00D15885487F
:1016B4000B920CF0BFFF192F23D0631C0AD01E2CF1
:1016C40000D922E1804BE340DB0700D410E17F48DE
:1016D4000CF0B0FF1E23089322E794687C48210095
:1016E4000CF0A8FF192308931AE7624679480C9E68
:1016F4000CF0A0FF00235A4613602B6801332B60C3
:101704005DE723011A09744B0FA819001700089309
:101714000CF014FC714B0EAA19000FA80B9319F0CE
:1017240071F90E9BC72B6ADDC7234A469B00D2582A
:10173400B82331684B430299CB182968DB68090147
:101744005B189968914266D03A0008990FA80CF08A
:10175400F5FB0B990EAA0FA819F054F90E9BC72B91
:1017640055DDC7234A469B00D35832689C46B823AC
:101774005343029A2100D3182A68DB6812019B188C
:101784009A68DB6856480092019362460CF052FF57
:101794003A0008990FA80CF0D1FB0B990EAA0FA8D8
:1017A40019F030F90E9BC72B2DDDC7234A46B82705
:1017B4009B00D358029A9C46336821007B43D3187C
:1017C4002A68DB6812019B189A68DB684548009216
:1017D40001936246FFF74EFC3368029A7B43D318A9
:1017E40000221A6176E7002A01D0326862E5029A83
:1017F4001833D018294919F045FB32685AE5DA4301
:10180400D217134091E7DA43D2171340CEE7DA43F5
:10181400D2171340A6E7DB689846002B94D13A0010
:1018240008990FA80CF08AFB0B990EAA0FA819F0BF
:10183400E9F80E9B002B1ADBC72B01DDC7230E939F
:101844004A469B00D35832689C46B8235343029AB5
:101854002100D3182A68DB6812019B189A68DB6898
:1018640021480092019362460CF0E4FE32E74346BD
:101874000E930023E4E75B4618601C480CF0DAFE84
:10188400326817E5029A18332100D01819F0FAFAD1
:10189400A5E6C04640070220FCE0022050E00220FA
:1018A400A807022008010220300702208407022032
:1018B4001406022040060220E00502200806022049
:1018C4001CB202204C06022000001046BC06022076
:1018D400A005022054070220900202205C1B022073
:1018E4007C0602209C0602205C060220C00702201F
:1018F400DB23152C47D0D423182C44D0162C41D0EC
:10190400172C00D18DE0072C5CD92300083B012B58
:1019140000D897E021004F48FFF78AFBB8233268CC
:101924000A995343029AD3182A68DB6812019B1858
:101934009A68DB688A4200D17FE0210046480CF0B7
:1019440079FEE3B2132B57D9E3B20B9A143B9B00F5
:10195400D3589846B82721004846FFF737FC336828
:10196400029A7B43D3182A68DB6812019B189A6891
:10197400DB680092019302000B0038484146FFF7F0
:1019840079FB29E7D6234A469B00D3581F0000233E
:101994009846B82332685343029AD3182A68DB68FE
:1019A40012019B189A68DB680A920993974240D007
:1019B400099B210028480A9A0CF03CFE43460A97EA
:1019C4000993C1E723004A46C8339B00D3580A93BE
:1019D40000230993B82332680A995343029AD3180F
:1019E4002A68DB6812019B189A68DB688A420CD06B
:1019F400210019480CF01EFE194814210700194A49
:101A0400E3B20CF0AFFAB846A4E709998B42EFD1E0
:101A1400099B210014480A9A0CF00CFE1E2308931B
:101A24007EE5E0234A469B00D3581F00DB17984607
:101A3400AFE7099A9045BBD1EAE709998B4200D0F8
:101A44007BE7E5E76833DB004B441A685B680A927E
:101A54000993BFE7D80402200007022014070220DC
:101A640034E002205C1B0220EC060220F0B50A27B9
:101A74007F42BC460C0F150FA444C6462E00674691
:101A84000B011001A84600B50A3E1B090009012FED
:101A940000D8B6E0012E00D8A5E0A0252D060F231E
:101AA40018001C00084014400019040000260A3CD9
:101AB400B446092C00D8E5E10F2613090C0934407B
:101AC40033401B1963441C0000270A3CBC46092C04
:101AD40003D80124A446063333400F261B011818EB
:101AE4000C0A130A344033401B1963441C000027BA
:101AF4000A3CBC46092C03D80124A44606333340CF
:101B04000F261B0218180C0B130B344033401B19FF
:101B140063441C0000270A3CBC46092C03D801245A
:101B2400A446063333400F261B0318180C0C130C61
:101B3400344033401B1963441C0000270A3CBC4654
:101B4400092C03D80124A446063333400F261B0472
:101B540018180C0D130D344033401B190A24644229
:101B64006344A4469C4467460024092F02D80633E4
:101B7400334001341B0518180F23120E090E1940A7
:101B84001340CB181B191A000A3A092A00D8ABE2F1
:101B94001B061B180F221C0213400A3B240A052BA8
:101BA40000D8A8E223061B0F0A3B052B00D8C8E285
:101BB40023051B0F0A3B052B00D8BAE223041B0F95
:101BC4000A3B052B00D8ACE223031B0F0A3B052B71
:101BD40000D89EE223021B0F0A3B052B00D890E29B
:101BE4002000284343E12E00834201D90A260A2516
:101BF40044460A2C00D150E7A74A101A32079046EF
:101C04000EE0012E00D83EE2834200D932E10B2CD3
:101C140000D042E7A022120690460A259E4AD31A13
:101C24000F22110014001940044009190C000A3C49
:101C34000026092C02D80631114001360F24A4468F
:101C440067461A09224004093C40121992191400EB
:101C54000A3C0026092C04D86446063214402200AB
:101C640001360F2412015118070A1A0A274022408C
:101C7400D21992190A267642B4469444674600263D
:101C8400092F02D80632224001360F2412025118BD
:101C9400070B1A0B27402240D21992190A267642C2
:101CA400B446944467460026092F02D806322240DF
:101CB40001360F2412035118070C1A0C2740224036
:101CC400D2199219160000270A3EBC46092E03D8E1
:101CD400063222400E3CA4460F26120454181A0D54
:101CE400010D3140324052180A21494262448C4667
:101CF400944467460021092F02D80632324001314C
:101D0400120512190F241B0E000E234020401B182D
:101D14005B1819000A39092901D8063323401B0628
:101D24009B180F221C0213400A3B240A052B00D8DF
:101D3400A3E123061B0F0A3B052B00D897E12305DB
:101D44001B0F0A3B052B00D889E123041B0F0A3B18
:101D5400052B00D86EE123031B0F0A3B052B00D88B
:101D640075E10F23260D33400A3B052B00D858E1BB
:101D7400F0231B051C4203D121004848FFF758F902
:101D84000F221300234019000939092900D87EE0E5
:101D94000020591C0F22230913401B180A2040421B
:101DA40084469C4467460020092F02D8063313401A
:101DB40001301B015A180F21230A0B401B180A205B
:101DC400404284469C4467460020092F02D80633CB
:101DD4000B4001300F211B029A18230B0B401B18D8
:101DE4000A20404284469C4467460020092F02D8BA
:101DF40006330B4001301B039B180F22240C1440A4
:101E0400241820000A380021092802D80634144076
:101E140001310F22324024045218E41813000A3B03
:101E2400092B3DD8F02306321B0412051A400F2358
:101E3400141926021C400A3C360A052C39D93306EB
:101E44001B0F0A3B052B3ED933051B0F0A3B052B01
:101E540043D933041B0F0A3B052B4AD933031B0F09
:101E64000A3B052B51D90B2D58D04046304380BC3A
:101E7400B846F0BD0B2C00D00FE6B02212069046F7
:101E84000B25CBE6063018400E3B9C4614E6073380
:101E94001A40110001207DE799999900C808022091
:101EA4000F231205141926021C400A3C360A052C7D
:101EB400C5D806363100A7480CF0BCFB33061B0F0F
:101EC4000A3B052BC0D860363100A2480CF0B2FBA7
:101ED40033051B0F0A3B052BBBD8C023DB00F618C8
:101EE40031009C480CF0A6FB33041B0F0A3B052B66
:101EF400B4D8C023DB01F618310096480CF09AFBE5
:101F040033031B0F0A3B052BADD8C023DB02F618A5
:101F1400310090480CF08EFB0B2DA6D10F2211003E
:101F24008D4B9B1B194008000938092800D8B8E0DC
:101F3400002001310F241A092240121815000A3D0D
:101F44000020092D02D80632224001300F2412014C
:101F540051181A0A2240121815000A3D0020092DB2
:101F640002D80632224001300F24120251181A0BF3
:101F74002240121815000A3D0020092D02D806320D
:101F8400224001300F24120351181A0C2240121857
:101F940015000A3D0020092D02D8063222400130E6
:101FA4000F24120451181A0D2240121815000A3D6C
:101FB4000020092D02D80632224001301B011B0FDC
:101FC40012051B18521819000A3909296DD8F02175
:101FD40006331B0609050B409A180F2316021A40F4
:101FE4000A3A360A052A63D933061B0F0A3B052B26
:101FF40074D933051B0F0A3B052B67D933041B0F18
:102004000A3B052B5AD933031B0F0A3B052B00D976
:102014002BE7C023DB02F61831004E480CF00AFB14
:1020240023E7C023DB03E41821004A480CF002FB39
:10203400260DA5E6C023DB01E418210045480CF079
:10204400F9FA23031B0F0A3B052B00D989E6C023A9
:10205400DB02E41821003F480CF0ECFA81E6C023CF
:10206400DB00E41821003B480CF0E4FA6DE6603430
:10207400210038480CF0DEFA61E6063421003548C8
:102084000CF0D8FA55E62E00834201D9250026002B
:102094000B2C00D0ACE544460B2C58D1B0252D06B2
:1020A400FDE407310120114044E71B069A1894E728
:1020B4000636310027480CF0BDFA95E7C023DB0152
:1020C400F618310023480CF0B5FA9CE7C023DB0076
:1020D400F61831001F480CF0ADFA8FE76036310076
:1020E4001C480CF0A7FA84E7F02206331B061205FD
:1020F40013401B184EE50634210016480CF09AFADA
:1021040050E5C023DB03E418210012480CF092FAD6
:1021140066E5C023DB02E41821000E480CF08AFABD
:1021240058E5C023DB01E41821000A480CF082FAC8
:102134004AE5C023DB00E418210006480CF07AFAD3
:102144003CE56034210003480CF074FA30E53207B2
:10215400904663E59008022099999900F8B50F26F6
:102164004746CE460D00090E314080460C0080B52E
:10217400002B00D19DE0062900D1D7E02B021E0AD6
:10218400002B30D0F0273F043D4222D133000429F4
:102194001DD833014C1C3B421AD1052C16D03302F6
:1021A4008C1C3B4214D1052C10D03303CC1C3B4275
:1021B4000ED1052C0AD00C1DF021330409040B4266
:1021C40006D1042C02D1330500D0D7E005210C0040
:1021D4001E00290F240724090907214331430C0158
:1021E400240F0D00210013011B0F062B00D1B6E0B4
:1021F40010021E00070A002842D0F0200004024208
:1022040035D1BC46042B30DC38018446581C814649
:10221400F02066460004064200D094E04E46052EA7
:1022240023D03E02B4469E1CB1466646064200D008
:1022340089E04E46052E18D03E03B446DE1CB14656
:102244006646064200D07EE04E46052E0DD03E0482
:102254000433B4469946064200D074E04B46042B3E
:1022640002D13B059C466CD10526330067461B070B
:10227400120F1B0912071A433A4313011B0F1E00C6
:10228400002C0BD001392C0F0907090924072D0252
:102294000C432D0B25432401210F0C00002B55D09A
:1022A400013E130F360736091B0712023343120B84
:1022B4001A432B021B0A9C46160113021B0A360FF3
:1022C4008E4213DB771A8E421ED01911012F0BD0C8
:1022D4001912022F08D01913032F05D01914042F33
:1022E40002D00021052F46D00B000DE03400891BDD
:1022F400012938D0022943D0032944D0042945D0E8
:102304000026052934D0B446120F12071A43634637
:10231400290F090740461943FFF7A8FB1D4B03404B
:1023240020061843C0BCB946B046F8BD130E33406E
:10233400062B16D010021E00070A002800D05CE706
:10234400A0E7052399464B46674690E72B021B0AF4
:102354009C4613021B0A8E42D6DA0024C7E7002CDF
:1023640004D006268EE761460E11CCE7062697E7D1
:1023740061460E15C7E719150B00C5E7052427E7C5
:1023840061460E12BFE761460E13BCE761460E14A8
:10239400B9E7C046FFFFFFF0F0B54E465746DE46AC
:1023A40045469C46E0B58946160092460A0F090147
:1023B40087B0090903916146090109091B0F0191BD
:1023C40011001C000A39029000960A3C012901D927
:1023D40000F05CFD012C01D900F048FD009C019D3A
:1023E4000399A94201D801F045F893460B2A01D07C
:1023F40000F057FD0B2B01D101F0C3FC5B461B071A
:10240400994602980399EE4AEE4B121A8B410292B6
:1024140003930F21029B00980B4008401C0002000C
:1024240000230025A4185D410A225242D317121931
:102434006B41002B01D001F0B2F8092A01D901F057
:10244400AEF8A31D0B401C00012300259C460299F5
:10245400039A0F2713070A099A183A401000019BA0
:10246400009A1B0716099E193E40002132000023E2
:1024740012184B416046002112184B410A20404279
:10248400C11780185941002901D001F084F80928A6
:1024940001D901F080F8911D39400A00012100237F
:1024A4008C460F27160F1901711810010019694184
:1024B400029C039D2B06220A9A183A401400019BA1
:1024C400009A1B06160A9E193E400025320000237E
:1024D40012196B416446002512196B410A246442A7
:1024E400E517A4185D41002D01D001F050F8092C26
:1024F40001D901F04CF8941D3C4022000124002332
:10250400A4460F27160E1D027519140224184D41F6
:102514000299039A13050A0B9A183A401000019B7A
:10252400009A1B05160B9E193E4000213200002321
:1025340012184B416046002112184B410A204042B8
:10254400C11780185941002901D001F01CF809284D
:1025540001D901F018F8911D39400A000121002326
:102564008C460F27160D19037118100300196941C1
:10257400029C039D2B04220C9A183A401400019BE0
:10258400009A1B04160C9E193E40002532000023BD
:1025940012196B416446002512196B410A246442E6
:1025A400E517A4185D41002D01D000F0E8FF092CC7
:1025B40001D900F0E4FF941D3C40220001240023D3
:1025C400A4460F27160C1D047519140424184D4134
:1025D4000299039A13030A0D9A183A401000019BBA
:1025E400009A1B03160D9E193E4000213200002361
:1025F40012184B416046002112184B410A204042F8
:10260400C11780185941002901D000F0B4FF0928EE
:1026140001D900F0B0FF911D39400A0001210023C7
:102624008C460F27160B19057118100500196941FE
:10263400029C039D2B02220E9A183A401400019B1F
:10264400009A1B02160E9E193E40002532000023FC
:1026540012196B416446002512196B410A24644225
:10266400E517A4185D41002D01D000F081FF092C6D
:1026740001D900F07DFF941D3C4022000023012677
:10268400170A1D06029B7D19140624184D41180FC4
:1026940000210023009F3A0F12184B413000002103
:1026A40012184B410A204042C11780185941002991
:1026B40001D000F05AFF092801D900F056FF901DFF
:1026C4000F31084002000023012716091907711869
:1026D4001007001969410F2604900591039B019985
:1026E400334031401C0000250A00002312196B41BD
:1026F4003C00002512196B410A246442E517A41812
:102704005D41002D01D000F02CFF092C01D900F00F
:1027140028FF0121941D344022008C461500049AA0
:10272400059B00240F27A4185D41039B1909394018
:102734000A00019900230E093E40300000211218BE
:102744004B416046002112184B410A204042C117F8
:1027540080185941002901D000F0FFFE092801D951
:1027640000F0FBFE911D39400A0001218C46002037
:102774000F27039B1101001969411C0A3C402200E8
:10278400019C0025260A3E403400002312196B41A7
:102794006446002512196B410A246442E517A41803
:1027A4005D41002D01D000F0D4FE092C01D900F0C8
:1027B400D0FE941D3C4022000124A44604E0C046FF
:1027C400999999999999000000240F27039B150260
:1027D40024184D41190B39400A00019900230E0BAE
:1027E4003E403000002112184B416046002112186F
:1027F4004B410A204042C11780185941002901D099
:1028040000F0A3FE092801D900F09FFE911D394074
:102814000A0001218C4600200F27039B1103001995
:1028240069411C0C3C402200019C0025260C3E40C2
:102834003400002312196B416446002512196B41C0
:102844000A246442E517A4185D41002D01D000F06C
:1028540078FE092C01D900F074FE941D3C4022003E
:102864000124A44600240F27039B150424184D417A
:10287400190D39400A00019900230E0D3E40300025
:10288400002112184B416046002112184B410A20C6
:102894004042C11780185941002901D000F04DFE73
:1028A400092801D900F049FE911D39400A0001218F
:1028B4008C4600200F27039B1105001969411C0E4B
:1028C4003C402200019C0025260E3E40340000239B
:1028D40012196B4164460025A4185D410A22524234
:1028E400D31712196B41002B01D000F023FE092AE3
:1028F40001D900F01FFEA31D3B401C00012600224D
:1029040023068018594100250023019C039F220FB0
:102914003C0F12196B413400002512196B410A2433
:102924006442E517A4185D41002D05D1092C03D894
:102934000F24951D25402A00002415072B00220092
:1029440012184B411B0416001D0C0F2333401800B2
:10295400140000210A225242D31780185941002939
:1029640001D101F0A0F921060A0F00230A204042F8
:10297400C11712184B41002B01D101F0B3F9210505
:102984000A0F00230A204042C11712184B41002BA2
:1029940001D101F097F921040A0F00230A204042D3
:1029A400C11712184B41002B01D101F0DAF92103B0
:1029B4000A0F00230A204042C11712184B41002B72
:1029C40001D101F0BEF921020A0F00230A2040427E
:1029D400C11712184B41002B01D101F0A2F92101BA
:1029E4000A0F00230A204042C11712184B41002B42
:1029F40001D101F086F92901220F8A180A204042E8
:102A0400C1172B0F12184B41002B01D101F0B8F85C
:102A1400F0231B032B4201D101F0C0F80F2319004E
:102A240021400A009C4609204042C1170023801817
:102A34005941002903D1092801D800F072FD01266B
:102A44000027B6185F41002398462B07210959181F
:102A54000F23180008400200002140469C46002332
:102A640012184B410A204042C117801859410029CD
:102A740001D000F0C3FD092801D900F0BFFD604674
:102A8400911D08400121020000238846110F8C4645
:102A940019016144100136184F412B06210A5918B7
:102AA4000F23180008400200002140469C460023E2
:102AB40012184B410A204042C1178018594100297D
:102AC40001D000F097FD092801D900F093FD60467C
:102AD400911D08400121020000238846110E8C46F6
:102AE40019026144100236184F412B05210B591865
:102AF4000F23180008400200002140469C46002392
:102B040012184B410A204042C1178018594100292C
:102B140001D000F06BFD092801D900F067FD604683
:102B2400911D08400121020000238846110D8C46A6
:102B340019036144100336184F412B04210C591812
:102B44000F23180008400200002140469C46002341
:102B540012184B410A204042C117801859410029DC
:102B640001D000F03FFD092801D900F03BFD60468B
:102B7400911D08400121020000238846110C8C4657
:102B840019046144100436184F412B03210D5918C0
:102B94000F23180008400200002140469C460023F1
:102BA40012184B410A204042C1178018594100298C
:102BB40001D000F013FD092801D900F00FFD604693
:102BC400911D08400121020000238846110B8C4608
:102BD40019056144100536184F412B02210E59186E
:102BE4000F23180008400200002140469C460023A1
:102BF40012184B410A204042C117801859410096CF
:102C04000197002901D000F0E5FC092801D900F062
:102C1400E1FC6046911D08400121020000238C461E
:102C2400160A1906891910060023009E019F3618FA
:102C34004F4160460021220F12184B410A204042A6
:102C4400C11780185941002901D000F0BFFC0928A0
:102C540001D900F0BBFC901D0F3108400E39020071
:102C64000023884611098C4619070F236144100775
:102C740036184F41190029400A00404600219C465D
:102C8400002312184B410A204042C11780185941B1
:102C9400002901D000F096FC092801D900F092FC2B
:102CA4006046911D084001210200884611000F234F
:102CB400002036184F41180029090840020000215D
:102CC40040469C46002312184B410A204042C1173B
:102CD40080185941002901D000F070FC092801D95D
:102CE40000F06CFC6046911D0840012102008846FA
:102CF4000F230020110136184F411800290A0840FB
:102D04000200002140469C46002312184B410A2031
:102D14004042C11780185941002901D000F04AFCF3
:102D2400092801D900F046FC6046911D08400121A4
:102D340002008C462C0411020025220F0023644655
:102D440012196B410A246442E5170020A4185D415E
:102D540080197941002D01D000F025FC092C01D9FE
:102D640000F021FCC0231203DB01D218F0231B0264
:102D74001A4000241500012324184D410020190491
:102D8400001969410B0406000F2131400A000400B8
:102D94001D0C0A204042C117002312184B41002B7E
:102DA40001D100F022FF21060A0F00230A2040422D
:102DB400C11712184B41002B01D100F055FF21051A
:102DC4000A0F00230A204042C11712184B41002B5E
:102DD40001D100F039FF21040A0F00230A204042E8
:102DE400C11712184B41002B01D100F01DFF210324
:102DF4000A0F00230A204042C11712184B41002B2E
:102E040001D100F001FF21020A0F00230A204042F1
:102E1400C11712184B41002B01D100F0D6FE21013D
:102E24000A0F00230A204042C11712184B41002BFD
:102E340001D100F0BAFE2901220F8A180A2040426B
:102E4400C1172B0F12184B41002B01D100F01BFFAF
:102E54005B460B2B00D1D5E349462000294307B03C
:102E6400F0BCBB46B246A946A046F0BD029D039EF7
:102E7400009B019CA64200D80CE30B2A24D10B230F
:102E84009B46B0231B069946FFF7BBFA012C1BD8BF
:102E9400029C039D0099019A954200D8F3E20A220C
:102EA40093460A2B10D000980199054A054B121A33
:102EB4008B41009201935B461B079946FFF7A9FAE1
:102EC4009999999999990000A0231B069B460F2371
:102ED40002001A40160052461A401400002500272A
:102EE40036196F410A246442E517A4197D41002D67
:102EF40000D1DFE2002302934B460F241B07010994
:102F040059180C400094544661462409A046090708
:102F140000238844414601930F3319400C00009A62
:102F2400019B002512196B410025029CA4185D41E8
:102F34000A225242D31712196B41002B00D0EDE242
:102F4400092A00D9EAE20F22A31D1A400123140022
:102F540000259846210F2B01CB18220192197B41A1
:102F6400009201934B46040A1B061C195146634602
:102F74000F221B06090A5918144011402600002785
:102F84000C000025A4197D4146460027A4197D4163
:102F94000A267642F71736196F41002F00D0BAE29D
:102FA400092E00D9B7E2A31D13401C0001230025FC
:102FB4009846230E2F02DF192602009B019C9B19C1
:102FC4007C41009301944B46040B1B051C1951468C
:102FD40063460F221B05090B5918144011402600A3
:102FE40000270C000025A4197D4146460027A4199A
:102FF4007D410A267642F71736196F41002F00D01B
:1030040086E2092E00D983E2A31D13401C0001238C
:1030140000259846230D2F03DF192603009B019CEE
:103024009B197C41009301944B46040C1B041C190E
:10303400514663460F221B04090C591814401140D1
:10304400260000270C000025A4197D4146460027D0
:10305400A4197D410A267642F71736196F41002FCD
:1030640000D052E2092E00D94FE2A31D13401C00E8
:10307400012300259846230C2F04DF192604009B06
:10308400019C9B197C41009301944B46040D1B0346
:103094001C19514663460F221B03090D591814408D
:1030A4001140260000270C000025A4197D41464646
:1030B4000027A4197D410A267642F71736196F4175
:1030C400002F00D01EE2092E00D91BE2A31D1340DD
:1030D4001C00012300259846230B2F05DF19260524
:1030E400009B019C9B197C41009301944B46060E66
:1030F4001B029E19514663460F221B02090E5918E2
:1031040016401140340000250E00002736196F4187
:103114004446002536196F410A246442E517A41970
:103124007D41002D00D0EAE1092C00D9E7E1B31D6F
:1031340013401E00012300279846330A3D065146DA
:103144005D193406009A019B0027A4185D410023F1
:10315400060F0A0F92197B41464600270A20404277
:10316400C11792197B4180185941002900D0C3E14D
:10317400092800D9C0E1901D0F3108400E39020022
:10318400002388461609190771184B460F2667460F
:1031940010073340374024184D413A0018000021ED
:1031A400002312184B414046002112184B410A20BB
:1031B4004042C11780185941002900D099E10928DB
:1031C40000D996E1911D31400A00012188464B4601
:1031D4000F27110000201B093B40001969411C0006
:1031E40063461E093E4000253200002312196B413C
:1031F4004446002512196B410A246442E517A418B9
:103204005D41002D00D071E1092C00D96EE1941DBF
:103214003C4022000124A0464B460F2700241B0AF1
:1032240015013B4024184D41180063461E0A3E40D8
:1032340000213200002312184B414046002112188D
:103244004B410A204042C11780185941002900D03F
:1032540049E1092800D946E1911D39400A000121BC
:1032640088464B460F2700201B0B11023B400019D8
:1032740069411C0063461E0B3E40002532000023BA
:1032840012196B414446002512196B410A24644209
:10329400E517A4185D41002D00D021E1092C00D9C7
:1032A4001EE1941D3C4022000124A0464B460F27FA
:1032B40000241B0C15033B4024184D4118006346A1
:1032C4001E0C3E4000213200002312184B414046A0
:1032D400002112184B410A204042C117801859415D
:1032E400002900D0F9E0092800D9F6E0911D394001
:1032F4000A00012188464B460F2700201B0D1104AC
:103304003B40001969411C0063461E0D3E400025E8
:103314003200002312196B414446002512196B41F7
:103324000A246442E517A4185D41002D00D0D1E0C1
:10333400092C00D9CEE0941D3C4022000124A04673
:103344004B4600240F27150524184D41190E39400A
:103354000A0061460E0E3E40002330000021801812
:10336400594142460023801859410A225242D31738
:1033740012184B41002B00D0A6E0092A00D9A3E083
:10338400C023F021DB040006C01809050840002210
:10339400030012196B4101240020210712184B412C
:1033A4001B0416001D0C0F233340180014000021C9
:1033B4000A225242D31780185941002901D100F042
:1033C40055FD21060A0F00230A204042C117121896
:1033D4004B41002B01D100F058FD21050A0F0023B9
:1033E4000A204042C11712184B41002B01D100F0B2
:1033F4005FFD21040A0F00230A204042C11712185E
:103404004B41002B01D100F063FD21030A0F00237F
:103414000A204042C11712184B41002B01D100F081
:1034240067FD21020A0F00230A204042C117121827
:103434004B41002B01D100F06BFD21010A0F002349
:103444000A204042C11712184B41002B01D100F051
:103454006FFD2901220F8A180A204042C1172B0F41
:1034640012184B41002B01D100F0F0FC594620000A
:103474002943F4E4A94203D1A04201D9FEF7B5FFE0
:103484009B46FEF7B3FF954202D18C4200D906E574
:103494009B4606E5A64202D19D4200D9EDE4A02355
:1034A4001B060B2A01D000F06EFC99460A239B46AA
:1034B400FEF7A7FF092C00D91CE5B21D1A400E3BEC
:1034C40016000027029317E50022030612196B4128
:1034D400002461E70024A04632E7002188460AE779
:1034E4000024A046E2E600218846BAE60024A0466D
:1034F40092E6002188466AE60021884642E60023D7
:1035040098461AE600239846E6E500239846B2E575
:10351400002398467EE5002398464AE50023984612
:1035240018E56346073213401E000123002798461E
:10353400FFF78BFA0026FFF7E2F900218C46FFF72C
:10354400B8F90024A446FFF78DF900218C46FFF753
:1035540062F90024A446FFF737F900218C46FFF7EF
:1035640006F900218C46FFF7D9F80027FFF7ADF8DC
:103574000026FFF785F800218C46FFF752F8002457
:10358400A446FFF71EF800218C46FEF7EAFF00244C
:10359400A446FEF7B6FF00218C46FEF782FF002307
:1035A4009C46FEF754FF0024150324184D410023C4
:1035B400FFF7E4FB00218C46FFF7BCFB00218846A3
:1035C400FFF796FB00218846FFF770FB0021884631
:1035D400FFF748FB00218C46FFF722FB00218846B9
:1035E400FFF7F4FA00218846FFF7C8FA002188465D
:1035F400FFF79CFA00218846FFF770FA00218846FD
:10360400FFF744FAE24EE34F0433361BAF419C46C6
:1036140033401800002109225242D31712184B419B
:10362400002B00D0A3E2092A00D9A0E263460730A8
:103634000340009300230193013398463B0732096A
:103644009A180F239C461340180042460023002179
:10365400801859410A225242D31712184B41002BA9
:1036640000D081E2092A00D97EE26246831D1A4015
:103674000123100000219846030F9C460B0163446C
:10368400020100980199801859413B06320A9A18A0
:103694000F239C46134000900191424618000021DC
:1036A4000023801859410A225242D31712184B4161
:1036B400002B00D055E2092A00D952E26246831D4C
:1036C4001A400123100000219846030E9C460B0269
:1036D4006344020200980199801859413B05320B5A
:1036E4009A180F239C4613400090019142461800FB
:1036F40000210023801859410A225242D31712187C
:103704004B41002B00D029E2092A00D926E2624667
:10371400831D1A400123100000219846030D9C4686
:103724000B036344020300980199801859413B0438
:10373400320C9A180F239C46134000900191424684
:10374400180000210023801859410A225242D3173D
:1037540012184B41002B00D0FDE1092A00D9FAE1EF
:103764006246831D1A400123100000219846030C71
:103774009C460B0463440204009801998018594143
:103784003B03320D9A180F239C461340009001917D
:103794004246180000210023801859410A2252424F
:1037A400D31712184B41002B00D0D1E1092A00D9BC
:1037B400CEE16246831D1A40012310000021984681
:1037C400030B9C460B05634402050098019980187D
:1037D40059413B02320E9A180F239C461340029023
:1037E40003914246180000210023801859410A22FF
:1037F4005242D31712184B41002B00D0A5E1092ADD
:1038040000D9A2E16246831D1A4001231000002161
:103814009C46030A002204930023009201930B06A2
:103824000193049B9846019B434401930306009330
:10383400009A019B0298039980185941624600231B
:10384400009001910021300F801859410A22524200
:10385400D31712184B41002B00D073E1092A00D969
:1038640070E1821D0F331A400E3B10000021984670
:1038740003099C460B0763440207009801998018CA
:1038840059410F239C463B40424600900191180049
:1038940000210023801859410A225242D3171218DA
:1038A4004B41002B00D04AE1092A00D947E1624686
:1038B400831D1A40012310009846030000980199C3
:1038C4000022801859413B090F3294461A40009057
:1038D40001910023100000214246801859410A2218
:1038E4005242D31712184B41002B00D024E1092A6D
:1038F40000D921E16246831D1A4001231000984635
:103904000022030100980199801859413B0A0F32A3
:1039140094461A4000900191002310000021424671
:10392400801859410A225242D31712184B41002BD6
:1039340000D0FEE0092A00D9FBE06246831D1A404C
:103944000123100098460022030200980199801870
:1039540059413B0B0F3294461A40009001910023C9
:10396400100000214246801859410A225242D317BE
:1039740012184B41002B00D0D8E0092A00D9D5E019
:103984006246831D1A40012310009C4604E0C04691
:103994009999999999990000002203030098019933
:1039A400801859413B03624600900191180F002191
:1039B4000023801859410A225242D31712184B414E
:1039C400002B00D09EE0092A00D99BE0C02301040B
:1039D400F020DB02C918000301400B000098019994
:1039E4000022801859411023C022F0271B05D2035E
:1039F4009E183F043E403300002280185941102392
:103A0400C022F0271B06D2049E183F053E40330017
:103A140000221026801859410F2306361E4000222A
:103A2400330712184B411B0416001D0C0F2333409F
:103A34001800140000210A225242D3178018594159
:103A4400002900D1F5E121060A0F00230A20404293
:103A5400C11712184B41002B00D1DDE121050A0FDB
:103A640000230A204042C11712184B41002B00D1F9
:103A7400C4E121040A0F00230A204042C11712188E
:103A84004B41002B00D1ABE121030A0F00230A2094
:103A94004042C11712184B41002B00D192E1210280
:103AA4000A0F00230A204042C11712184B41002B71
:103AB40000D179E121010A0F00230A204042C117F5
:103AC40012184B41002B00D160E12901220F8A1802
:103AD4000A204042C1172B0F12184B41002B01D072
:103AE400FFF7BAF9052A01D9FFF7B6F9C022002376
:103AF400D205A4185D41EC4822002B000AF09AFD7F
:103B0400FFF7AAF90022030400980199801859418B
:103B14003B0D0F32134200D01AE23B0E134200D089
:103B240018E23E0F00D17AE70F2675E700239C4682
:103B340032E70023984606E700239846E0E6002390
:103B44009846BAE60023984692E600239C4660E62F
:103B54000023984634E60023984608E60023984656
:103B6400DCE500239846B0E50023984684E500236D
:103B740001228018594100230090019198465DE587
:103B8400052A01D9FEF744FFC0220023D205A41858
:103B94005D41C54822002B000AF04CFD22002B0099
:103BA400C248FDF745FAFEF739FF052A01D9FFF7A8
:103BB40042F9C0220023D204A4185D41BA4822006D
:103BC4002B000AF037FDFFF736F9052A01D9FFF774
:103BD40026F9C0220023D203A4185D41B248220072
:103BE4002B000AF027FDFFF71AF9052A01D9FFF780
:103BF400DAF806220023A4185D41AB4822002B000A
:103C04000AF018FDFFF7CFF8052A01D9FFF7FBF8F2
:103C1400C0220023D202A4185D41A34822002B0035
:103C24000AF008FDFFF7EFF8052A01D9FFF7DFF8DE
:103C3400C0220023D201A4185D419B4822002B001E
:103C44000AF0F8FCFFF7D3F8052A01D9FFF7C3F807
:103C5400C0220023D200A4185D41934822002B0007
:103C64000AF0E8FCFFF7B7F8052A01D9FFF7A7F82F
:103C740060220023A4185D418B4822002B000AF027
:103C8400D9FCFFF79CF8052A01D9FFF7E1F8C02217
:103C94000023D205A4185D41834822002B000AF0BA
:103CA400C9FCFFF7D5F8052801D9FEF75CFE06220A
:103CB4000023A4185D417C4822002B000AF0BAFCC2
:103CC400FEF751FE052A01D9FEF765FEC022002346
:103CD400D200A4185D41744822002B000AF0AAFC0B
:103CE400FEF759FE052A01D9FEF749FE602200239A
:103CF400A4185D416C4822002B000AF09BFCFEF7DF
:103D04003EFE052A01D9FEF776FEC0220023D20426
:103D1400A4185D41644822002B000AF08BFCFEF7D6
:103D24006AFE052A01D9FEF75AFEC0220023D203F7
:103D3400A4185D415C4822002B000AF07BFCFEF7CE
:103D44004EFE052A01D9FEF73EFEC0220023D20210
:103D5400A4185D41544822002B000AF06BFCFEF7C6
:103D640032FE052A01D9FEF722FEC0220023D20129
:103D7400A4185D414C4822002B000AF05BFCFEF7BE
:103D840016FEB0231B069B46FFF7A1F8052A00D9AF
:103D94009BE6C0220023D204A4185D4142482200BD
:103DA4002B000AF047FC90E6052A00D982E6C022DF
:103DB4000023D203A4185D413B4822002B000AF0E3
:103DC40039FC77E6052A00D969E6C0220023D2022D
:103DD400A4185D41344822002B000AF02BFC5EE657
:103DE400052A00D950E6C0220023D201A4185D415F
:103DF4002D4822002B000AF01DFC45E6052A00D9B7
:103E040037E6C0220023D200A4185D4126482200D0
:103E14002B000AF00FFC2CE6052A00D91EE66022CE
:103E24000023A4185D41204822002B000AF002FC64
:103E340014E6052800D906E606220023A4185D41ED
:103E4400194822002B000AF0F5FBFCE5052A01D9EC
:103E5400FFF70CFBC0220023D205A4185D411248D1
:103E640022002B000AF0E6FBFFF700FB052801D92E
:103E7400FFF7A7FA06220023A4185D410A4822008E
:103E84002B000AF0D7FBFFF79CFA052A01D9FFF7AC
:103E9400A4FA60220023A4185D41034822002B00E9
:103EA4000AF0C8FBFFF799FAA0080220C80802200C
:103EB400052A01D9FFF79DFAC0220023D200A418D5
:103EC4005D41254822002B000AF0B4FBFFF791FA6C
:103ED400052A01D9FFF799FAC0220023D201A418B8
:103EE4005D411D4822002B000AF0A4FBFFF78DFA68
:103EF400052A01D9FFF795FAC0220023D202A4189B
:103F04005D41154822002B000AF094FBFFF789FA63
:103F1400052A01D9FFF791FAC0220023D203A4187D
:103F24005D410D4822002B000AF084FBFFF785FA5F
:103F3400052A01D9FFF78DFAC0220023D204A41860
:103F44005D41054822002B000AF074FBFFF781FA5B
:103F5400130049E50F2353E5A0080220F0B5DE461F
:103F640057464E464546E0B534488DB00AF0E0FA6F
:103F74009C239B46324B334C9A46334BA34499467D
:103F8400324B9846324B0993256866682900320003
:103F94005046A768FDF76AFD42460300874200D1F8
:103FA400099A009229003200484601970C340AF01D
:103FB40041FB5C45E8D127480AF0BAFA264B9846FB
:103FC4009C235B0043449B46244B09931F4B0A9359
:103FD4001F4B0B9343461C685D689E68DF681B6932
:103FE4003200994643465B6920009A4629003B000B
:103FF400FEF7D2F981451CD00A9B4A4606925246E6
:10400400049307922B0002902200009601970998CE
:1040140003910AF00FFB18239844D845DAD10A20FB
:104024000AF03CFA0DB0F0BCBB46B246A946A04625
:10403400F0BD8A45E0D10B9BDFE7C046E8080220CB
:10404400B0C0022020960220FC080220E0080220D2
:10405400D808022020090220E89402203409022012
:1040640010B50A018EB00B491209040001A809F029
:1040740065FF6A46084901A816F0C4FC009BC72BDB
:1040840004DDC7239B00E0580EB010BDDA43D217FD
:104094001340F7E7900202205C1B0220072908D88E
:1040A400072A17D8C83292008358C8318900435070
:1040B40070470B00083B012BFAD81300083B012B77
:1040C40022D860326031D200C900821841180CCA6B
:1040D4000CC1EDE71300083B012BE9D86032D20094
:1040E40082181368C8319C46536862461B0F12013C
:1040F40012091B0713430C4A89001340624612023B
:10410400120A13434350D3E7072AD1D8C832920086
:10411400835860311A0FC9001B02401812071B0A8A
:1041240003604260C4E7C046FFFFFFF070B50500BE
:104134000C001000072918D8C8339B00EA58130F45
:104144000A2B2CD00B2B04D112011309A022120626
:104154001A43A02100010009090601432800FDF7C4
:1041640085FCC834A400285170BD0A00083A012A0D
:10417400FAD86033DB00EB180CCB190F0A2914D0E2
:104184000B2904D11B011909A0231B060B43C117DA
:10419400FEF702F96034E4002D1903C5E4E71201C7
:1041A4001309B02212061A43D3E71B011909B023DD
:1041B4001B060B43C117FEF7EFF86034E4002D191A
:1041C40003C5D1E7F0B5C6460C0000B507291ED8D3
:1041D400072A05D92F48FCF72BFF80BCB846F0BD51
:1041E400072B36D9190008390129F3D86033DB00CD
:1041F400C3181968050058680B01000F1B09000754
:104204001843254B09021840090A084325E00839D8
:104214000129DFD8110008390129DBD81900083930
:10422400012925D9072BD5D8C8339B00C158603242
:104234000B0F0902090A8C46D2008218050003CA32
:104244001B076246FEF7A8F86034E300EB1803C3CB
:10425400C3E7C8339B000500C058C8329300E9582F
:1042640002002800FDF702FCC834A4002851B4E77A
:104274006033DB00C318603260CBD300C31807007F
:1042840003CB2A003300FEF787F86034E300FB1801
:1042940003C3A2E764090220FFFFFFF070B5060024
:1042A4000C00072925D8072A03D94248FCF7C0FE89
:1042B40070BD072B45D9190008390129F5D8603399
:1042C400C832DB009200C31881580CCB10011B0FBD
:1042D40000091B070343384812020340120A1A4319
:1042E4001B0F0A2B36D112011309B02212061A43EE
:1042F40037E008390129D8D8110008390129D4D860
:1043040019000839012933D9072BCED86032D200DD
:10431400C83382189B0003CAF258130F1D071202F8
:10432400AC46120A0A2B39D00B2B02D1A0231B0650
:104334009C466346FEF730F86034E400341903C445
:10434400B6E7C832C83392009B008158C258130F95
:104354000A2BC8D00B2B04D112011309A022120678
:104364001A433000FDF782FBC834A40030519FE7A4
:1043740060326033D200DB008218F31803CA1A6873
:104384005B6894461A0F0A2A0CD00B2A04D11B012D
:104394001A09A0231B0613436246CBE7B0231B066E
:1043A4009C46C6E71B011A09B0231B061343624649
:1043B400C0E7C04664090220FFFFFFF0F0B54E4697
:1043C4004546DE465746E0B50F2585B0080F0B027B
:1043D400090E160229400090100F120E1B0A360A0D
:1043E400019002911540A94202DD1A003300160023
:1043F400A02212061343110092461400062291468D
:10440400320000201E000F274B460395914610E012
:104414004A462401120F14194A4612019146524683
:1044240036012401360A2409013B14431643002BA8
:1044340018D03A00324093463742E9D04A46A04663
:10444400B1465C4600259B461600320043460135C2
:10445400FDF7A2FFA542F8D132005B464E46444622
:104464009146D5E7F022039D029B1202ED181142FA
:104474000CD00FE0040F0B01E3181B01090F1B09FB
:104484000907194300010135114203D10B041B0C28
:104494000343EFD10B07000918180B011B0A190776
:1044A40002098A181B09190712098A181B09190716
:1044B40012098A181B09190712098A181B091B07F4
:1044C40012099A180B4B063D1A402806009B10430C
:1044D400019A00019B1A5A1E9341A0221B0712063F
:1044E4009B180009184305B0F0BCBB46B246A94668
:1044F400A046F0BDFFFFFFF0F0B54546DE46574647
:104504004E46E0B50B01804687B01B0F062B31D019
:104514000802050A00282DD0F0263604314223D1A2
:10452400042B00D962E128015C1C30421AD1052C0D
:1045340018D028029C1C304214D1052C12D0280318
:10454400DC1C30420ED1052C0CD01C1DF023280499
:104554001B04184206D1042C00D040E1280500D0E9
:104564003DE10134230005001B07090F1B0909075E
:1045740019432943130110021B0F000A062B00D113
:1045840014E1002800D10FE1F0263604324223D191
:10459400042B00D927E104015D1C34421AD1052DF6
:1045A40018D004029D1C344214D1052D12D00403EA
:1045B400DD1C34420ED1052D0CD01D1DF023040446
:1045C4001B041C4206D1042D00D00AE1040500D0CE
:1045D40007E101352B0020001B07120F1B091207EE
:1045E4001A43024313011B0F10020593000AA0266D
:1045F4000B0F9A46130F9B460B011B0F3606994669
:1046040033000902090A03430E43002800D1CBE01A
:10461400F02109040A4205D11B010B42FCD0A0225F
:104624001206134306220192524602925A46A024CD
:1046340003924A466F4F240604920093009B250080
:104644001B0119098A4632019A4227D3002925D031
:10465400B021504609063B02014389461A0A002B41
:1046640000D17BE0A0231B0613439B4623026FD09B
:1046740021005A464046FDF7F9F95F4D33020540E3
:104684002C00002B68D031004A464046FDF7EEF975
:10469400594E06400002000A8245E7D9A022009B39
:1046A40012061B011B0A1A43A0233F021B063F0BE1
:1046B4001F43019B0092013B0193002BBED1029B3F
:1046C40005279A46039BF0219B46049B09051A0083
:1046D400059B9A1ABF1A3B060B401D43013221DA8F
:1046E4000F24464E0BE0013B2A0F1B071B09120740
:1046F4002D0213432D0B013F1D43062F10D0300014
:1047040009F098FF23002A0E13401442EBD17C1EBB
:10471400072F05D03000013C09F08CFF062CF9D19D
:10472400C023DB04344A15401D435A4653469B1AA2
:104734005A1E9341A0221B07120628019B18000948
:10474400184307B0F0BCBB46B246A946A046F0BD2C
:104754003C003D00330296D14E4687E7230227D022
:1047640033021FD00A0040463100FDF77FF9224E84
:1047740006400002000A824500D98FE731004E4608
:104784001D4D0B020CD032004046FDF76FF90100BD
:1047940000022940000A8245F3D90E0025007DE776
:1047A4003100EEE70E00E9E71548CAE705931EE776
:1047B400310055464E46104C0B020ED03200404696
:1047C400FDF754F9010000022140000A8542F3D9A3
:1047D400A02424060E00250060E73100ECE7052440
:1047E400C0E60525F6E604001D00F3E628001C00DB
:1047F400B8E6C046000010A0FFFFFFF0A0090220A9
:10480400999999A0F0B5CE46474680B597B06A46C7
:104814000023203204001370002904D117B0C0BC57
:10482400B946B046F0BDDD239B00C2588149120150
:10483400120909A809F082FB7F4905AA09A816F004
:10484400E1F8059BC72B7EDDC723FA259B00E258C0
:10485400AD0061597948160009F0ECFE6359002B4C
:1048640000D096E0E2239B00E358073B022B00D8DC
:10487400C0E0DA239B00E2581033E358002B66D1E2
:104884000F21100E08403030130F0700100D120CCA
:104894000840114020223030303180468946944609
:1048A400202120203033664E3D0233402B434546C1
:1048B400644E2D0433402B434D461B022D061B0A28
:1048C4002B43069363461B0200040B431206034367
:1048D40013430793E1239B00E358002B4BD1DB23C5
:1048E4009B00E2580433E358202559424B41564873
:1048F4005B4206005549AB4341330F0009F01EFBF0
:10490400012120000122524B0096FCF7D1F9DD234E
:104914009B00E2580433E358300059424B415B4258
:10492400AB433900413309F009FB4A4A0395A25CC1
:104934000121029206AA019220000222464B00960F
:10494400FCF7B6F96AE7DA43D21713407DE730255E
:104954000F23AC46100A1840110B84441009103D73
:10496400194018401A402F00A846A946303130306B
:104974003032113397E720220292364A0121A25C99
:104984002000019206AA0092344B0222FCF790F90F
:1049940044E7330F3500E226B6001900A35130482E
:1049A4001F0009F047FEA359073B022B00D960E71B
:1049B400FA229200A358002B1CD030260F22B446B2
:1049C4003B00290E114030310F00290D11403031C8
:1049D4008846290C1140280A104030318946844405
:1049E400290B2809114010402A403033303130302F
:1049F400303258E73026DA230F25B4469B00E258BC
:104A0400110E294030310F00110D294030318846F4
:104A1400110C100A29403031284089468444110B76
:104A24001009130F294028402A40303330313030E8
:104A3400303238E7900202205C1B0220AC090220CD
:104A4400FF00FFFFFFFF00FF24DD0220840302209C
:104A5400FC0902200C040000040A0220F0090220D0
:104A6400D8090220DB23F0B5534C9B00E2580433F1
:104A7400E358524E59424B412021514F5B428B43E4
:104A840097B041333900300009F058FA4D4D3200E7
:104A94004D49280009F052FADD239B00E258043303
:104AA400E358300059424B4120215B428B43413350
:104AB400390009F043FA3200444902A809F03EFAE9
:104AC40002A9280016F07CF8D423414E9B00E2583A
:104AD40040490023300009F031FA32003E4902A86F
:104AE40009F02CFA02A9280016F06AF8DA239B00D0
:104AF400E2583A4902A809F021FA02A9280016F05E
:104B04005FF8F720F523E022800020589B009200F4
:104B1400E358A2583249009002A809F00FFA28007D
:104B240002A916F04DF8D7239B00E258531C3CD041
:104B34002C4ED205D20D30002B4909F0FFF932007A
:104B44002A4902A809F0FAF9280002A916F038F84F
:104B5400D8239B00E258531C2BD0224ED205D20DF1
:104B64003000214909F0EAF93200214902A809F08C
:104B7400E5F9280002A916F023F8D9239B00E2588E
:104B8400531C14D0174CD205D20D2000164909F03D
:104B9400D5F92200174902A809F0D0F9280002A982
:104BA40016F00EF8280017B0F0BD134AC8E7124AF1
:104BB400F0E7114AD9E7C046B0C0022024DD022044
:104BC400840302202CDE0220180A02202C0A022070
:104BD400E4DC0220400A0220480A02205C0A022087
:104BE400740A022014DD02209C0A0220A40A022076
:104BF400B80A0220CC0A0220140A0220F8B5DE46C4
:104C04004E46454657466B48E0B509F013FD6A48E1
:104C140009F010FDFFF726FF0100684809F00AFDBE
:104C2400C823674E9B00F518664B00249946664BD3
:104C3400664F9B46664B98462B684A46591C0ED0D5
:104C44001A0F1B011B090A2A00D1B0E00B2A00D15C
:104C5400A6E05F485F49824609F070F95246210098
:104C64003800013409F0E6FC0435082CE4D1D023E3
:104C74009B00F418584B22689946584B08259846CF
:104C84006368511C10D04946404609F057F9424622
:104C94002900380009F0CEFC092D0ED0A268083492
:104CA40009256368511CEED1591CECD12900380048
:104CB400444A09F0BFFC092DF0D10A2009F0EEFBAB
:104CC400474809F0B7FC474809F0B4FC464B47484D
:104CD400F15C09F0AFFCEA239B00F158444809F069
:104CE400A9FCEB239B00F158424809F0A3FCEC23F8
:104CF4009B00F158404809F09DFCEE239B00F258BC
:104D0400043BF1583D4809F095FCF123F022EF21D2
:104D14009B0092008900F358B2587158384809F042
:104D240089FCF423F322F2219B0092008900B258FB
:104D3400F3587158334809F07DFCE1239B00F15886
:104D4400314809F077FCF8239B00F1582F4809F00B
:104D540071FCDB239B00F61871782D48C907C90F35
:104D640009F068FC0A2009F099FB2A4809F062FC62
:104D7400294809F05FFC294B2948196809F05AFCB5
:104D8400284B2948196809F055FC284B284819680C
:104D940009F050FCF0BCBB46B246A946A046F8BD9B
:104DA4002D2259464046C24609F0C8F856E72B2240
:104DB400F7E7C046EC0A0220F40A0220FC0A0220AB
:104DC400B0C00220E00A02200C0B0220140B0220C7
:104DD400F4DC0220000B0220400A0220E4DC022062
:104DE400240B0220300B02200C0400003C0B022098
:104DF400540B0220680B02207C0B0220900B022033
:104E0400B40B0220D40B0220F40B0220080C022065
:104E14001C0C0220300C0220380C022000E102207D
:104E2400400C0220F0E002205C0C022008E1022089
:104E3400780C022030B5B3B0050004F0EBFB164843
:104E440004F012FE002822D02900144809F076F854
:104E54002800134914F0C2FC041E14D0114D03E0C1
:104E64006946280009F0E6FB2200C721684614F0D1
:104E740047FD0028F4D1200014F024FD04F0E8FBE1
:104E8400012033B030BD2900074809F0D3FB04F0FA
:104E9400DFFB0020F5E7C046B0020220AC0C022084
:104EA4005C1C022058060220BC0C0220F0B5C64649
:104EB40000B5B2B0040004F0ADFB214804F0D4FD09
:104EC400002838D021001F4809F038F820001E4976
:104ED40014F084FC6D468046002828D01B4F4246BF
:104EE400C721280014F00CFD002816D02B782A2B9B
:104EF400F5D1174C260060362A002100380063687B
:104F040098470028EBD10834B442F5D14246C72172
:104F1400280014F0F5FC0028E8D1404614F0D2FC37
:104F240004F096FB012032B080BCB846F0BD2100ED
:104F3400084809F07FFB04F08BFB0020F3E7C04630
:104F4400B0020220AC0C02205C1C0220B0C0022083
:104F5400083E0220BC0C022010B5040021000848C1
:104F6400FFF7A4FF802300200021DB00E31803C324
:104F7400FE2301229B00E25000221033E25010BDB8
:104F8400C8C4022010B502490248FFF78FFF10BDC4
:104F9400B0C00220D00C0220F0B5D6464F4646469B
:104FA400C0B5904C0500A54403A815F06BFF03A9F8
:104FB4008D4809F03FFB04F02DFB8C4804F054FDB0
:104FC400002800D1D8E00A2203A908A810F062FF43
:104FD400002800D0CDE0864908A813F0D9F8DB23D7
:104FE4009B00EA58834908A813F0D2F8DC239B00FD
:104FF400EA58814908A813F0CBF8D4239B00EA5857
:105004007E4908A813F0C4F8D7239B00EA587C49CA
:1050140008A813F0BDF8D8239B00EA58794908A8DA
:1050240013F0B6F8D9239B00EA58774908A813F07F
:10503400AFF8DA239B00EA58744908A813F0A8F8DB
:10504400DF239B00EA58724908A813F0A1F8714BBA
:1050540071491A6808A813F09BF8704B70491A68D4
:1050640008A813F095F8C8239B009946A944A846BC
:105074004E4600246B4F2200390008CE08A80134A4
:1050840013F086F8082CF6D1C823674C9B00210046
:105094000822EB5808A813F07BF8C9239B002100D1
:1050A400EB58092208A813F073F8604908A813F014
:1050B4006FF85F4B002407269A465E4F264266D05F
:1050C400A3003900EA5808A8013413F061F8C82C89
:1050D400F4D1594E2C00310008A813F059F80023DC
:1050E4009134FF3404CD9B18A542FBD1534DAA68DB
:1050F400934267D0AA69934200D171E05049514F5D
:105104000091514A390008A813F042F8002304CC56
:105114009B184C45FBD1AA68934258D0AA69934284
:105124005AD047490091494A390008A813F030F889
:105134000023414604C988469B184945F9D1AA6809
:105144009A423AD0AA69934248D03D49404A0091D4
:1051540008A8390013F01CF8310008A813F018F857
:1051640008A812F025F8041E1DD104F071FA0120DC
:1051740005E0384809F05EFA04F06AFA0020A0233A
:105184009B009D44E0BCBA46B146A846F0BD5146DA
:1051940008A812F0FDFFA3003900EA5808A812F08D
:1051A400F7FF01348AE714F00DFB220001002A48BE
:1051B40009F040FA04F04CFAE0E700221201AD18BD
:1051C4006968C3E700221201AA18516897E7002210
:1051D4001201AA185168A5E70122F9E70122EDE7B7
:1051E4000122F0E780FDFFFFF40C0220B002022050
:1051F4000C0D0220380D02204C0D0220600D0220FF
:10520400740D0220900D0220AC0D0220C80D022066
:10521400E40D022030E00220FC0D022018DE022002
:10522400180E0220300E02203C0E02204C0E0220EA
:10523400580E02205C0E02207404022054B2022094
:10524400501A0220DC0C0220640E0220700E022090
:105254007C0E0220000D0220880E022030B50500CD
:105264000C4C85B022000C4B0C490D4804F092FC08
:105274000C4B21001A686846013208F05FFE69464B
:105284002800FFF789FE6946074809F0D3F905B0FD
:1052940030BDC046AC0E0220A00E0220BC0E02207F
:1052A400B002022058DC0220C80E022010B50948C2
:1052B40004F0D8F9002808D0074C08482100FFF76B
:1052C4006BFE2000FFF7B6FD10BD0549054809F047
:1052D400B1F9F1E7B0020220D00C0220B0C00220E4
:1052E4004CDD0220E00E0220002370B5204D82B078
:1052F4000C002B700B00072916D9083B012B02D98F
:10530400280002B070BDD0339B00C2581948002356
:105314000600194908F012FE230010212800174A3C
:10532400009608F01FFEEBE7C8339B00C3585A1CD5
:105334001BD01A0F1B011B090A2A0DD00B2A12D0ED
:105344000F481049060008F0F9FD33002200280038
:105354000A4908F0F3FDD3E72B2209480A4906005D
:1053640008F0ECFDF1E72D22F7E7084BEEE7C04625
:10537400C4DC0220E4DC0220400A0220EC0E0220FD
:10538400F4DC0220000B02200C0B0220E00A0220B5
:10539400F0B5D6464F464646604D0100C0B582463C
:1053A400280015F06FFD5E4B5E4F18002A0039008F
:1053B400994609F03FF92B78002B5CD02B2B01D1B7
:1053C4000B3B2B706B78002B55D02B2B01D10B3B57
:1053D4006B70AB78002B4ED02B2B00D181E0EB7897
:1053E400002B48D02B2B00D17EE02B79002B42D010
:1053F4002B2B00D181E06B79002B3CD02B2B01D1DE
:105404000B3B6B71AB79002B35D02B2B01D10B3BB4
:10541400AB71EB79002B2ED02B2B01D10B3BEB7115
:105424002B7A002B27D02B2B01D10B3B2B726B7AC1
:10543400002B20D02B2B01D10B3B6B72AB7A002BB2
:1054440019D02B2B60D0EB7A002B14D02B2B5ED0F1
:105454002B7B002B0FD02B2B5CD06B7B002B0AD02B
:105464002B2B01D10B3B6B73AB7B002B03D02B2B72
:1054740001D10B3BAB732C4B2E0000249846280023
:1054840015F008FD84420FD22B002200390040465B
:1054940009F0D0F833782D2B1AD0202B18D0302BCC
:1054A40019D0280015F0F6FC431EEA5C2E2A1ED003
:1054B4002A003900484609F0BDF82900504615F085
:1054C400E1FCE0BCBA46B146A846F0BD20233370E7
:1054D40001340136D3E77378302BF7D020232B55D2
:1054E400DFE70B3BAB707AE70B3BEB707DE72A5CA5
:1054F400002ADDD12032EA54DAE70B3B2B716B79B9
:10550400002B00D07AE7B6E70B3BAB729BE70B3B73
:10551400EB729DE70B3B2B739FE7C04620E0022014
:10552400F40E022018240220000F0220F8B50023F4
:10553400234C2380030F0A2B3FD00B2B2CD12D2778
:10554400204D03003A0020490601280008F0F6FC2B
:105554003A001E49200008F0F1FC0622360F921B87
:10556400E91C200015F052FB200015F093FC0222E8
:105574001749201807F040F9A91B3200093120000F
:1055840015F044FB2100280015F07CFC114B1B682E
:10559400002B0ED12800F8BD2027092BD0D8094DA7
:1055A40002000D49280008F0C9FC0A4B1B68002BB7
:1055B400F0D02800FFF7ECFEECE72B27C0E7C0464D
:1055C40034DD022004DD0220100F022088030220B3
:1055D400E807022030E00220F40D0220F0B5C646B0
:1055E4003B4B002498461D0000B53A4F0DE02E6851
:1055F4003000FFF79BFF2100030032003800013424
:1056040009F018F8C82C0AD004350521200006F04A
:1056140039F90029EBD10A2008F040FFE7E74446B6
:105624000A2008F03BFF434600229134FF3402CBAA
:105634005218A342FBD1284EB3689A4233D0B369BF
:105644009A4243D0254B264FC8253800254908F0F7
:10565400F1FF0022AD00454408CCD218AC42FBD186
:10566400B3689A4224D0B3699A422BD01B4B3800BA
:105674001D4908F0DFFF0022414608C98846D218B8
:10568400A942F9D1B368934217D0B3699A421BD0A7
:10569400124B3800154908F0CDFF0A2008F0FEFE31
:1056A40080BCB846F0BD00231B01F3185B68CAE751
:1056B40000231B01F3185B68D9E700231B01F618CC
:1056C4007368E6E70123F4E70123F7E70123EBE737
:1056D400B0C00220180F022054B20220501A022037
:1056E400940C02202C0F0220700E02207C0E02204B
:1056F400F0B5CE464746DB2380B59B00C358040073
:105704000D0091B0DB0507D4DB239B00E55011B0FD
:10571400C0BCB946B046F0BD514808F08BFFF02339
:105724001B011D4200D08BE04E4808F083FFFA2392
:1057340001229B00E25001214B4808F07BFF4B4BB8
:105744001B68002BE0D04A4808F074FFF7230122BD
:105754009B00E25001212000FFF754F8F2239B0044
:10576400E35803A81A019946424B120919001E0076
:1057740008F0E4FB404B02AA190003A81F0015F02F
:1057840041F9029BC72B68DCDA43D21713409B0014
:10579400E058FFF7CBFE4A46384B012101900092B6
:1057A400200002229846FBF783FAF3239B00E35878
:1057B40031001A01120903A8994608F0BFFB390009
:1057C40002AA03A815F01EF9029BC72B43DCDA4397
:1057D400D21713409B00E058FFF7A8FE4B46032264
:1057E40001210190009320004346FBF761FAF42362
:1057F4009B00E35831001A01120903A8994608F0E6
:105804009DFB390002AA03A815F0FCF8029BC72BE4
:105814001FDCDA43D21713409B00E058FFF786FEE3
:105824004B46019000932000434604220121FBF7DC
:105834003FFA052201212000114BFBF739FA63E7F7
:10584400FA2300229B000021E250074808F0F2FEF0
:105854005AE7C723E0E7C723BCE7C72397E7C04657
:10586400400F0220680F02208C0F022018DE022055
:10587400A40F0220900202205C1B0220C00F022011
:10588400B0030220E1239B00C35870B50400002B31
:1058940005D0DB239B00C358DB0500D4ADE0DA233D
:1058A4009B00E3581B0F062B00D8A7E0073B022BF5
:1058B40000D9B6E0DC239B00E358002B00D0B7E00E
:1058C4000F22DB2311009B00E3581940080009381C
:1058D400092800D8A1E0002001310F251A092A4027
:1058E40012180A2040428446944466460020092E39
:1058F40002D806322A4001300F25120151181A0A23
:105904002A4012180A2040428446944466460020E5
:10591400092E02D806322A4001300F2512025118EE
:105924001A0B2A4012180A204042844694446646C0
:105934000020092E02D806322A4001300F25120316
:1059440051181A0C2A4012180A20404284469444E2
:1059540066460020092E02D806322A4001300F255F
:10596400120451181A0D2A4012180A204042844683
:10597400944466460020092E02D806322A4001309B
:10598400120552180F211B0E0B401B1818000A3861
:10599400092801D806330B401B069B180F221D0251
:1059A40013400A3B2D0A052B00D86BE02B061B0F76
:1059B4000A3B052B60D92B051B0F0A3B052B53D93A
:1059C4002B041B0F0A3B052B46D92B031B0F0A3B49
:1059D400052B39D92B021B0F0A3B052B2CD9290087
:1059E4002000FFF785FEDB229200A3581B051B0D48
:1059F400A350DC2300229B00E25070BDDC239B00FB
:105A0400E258002A11D00F221100043BE358194038
:105A140008000938092800D95DE707310120114041
:105A24005BE71B48FBF704FBE7E70122E250E4E7EE
:105A34001848FBF70BFB43E7C023DB03ED182900F1
:105A4400154808F0F7FDCAE7C023DB02ED1829006A
:105A5400114808F0EFFDBDE7C023DB01ED18290074
:105A64000D4808F0E7FDB0E7C023DB00ED1829007E
:105A7400094808F0DFFDA3E760352900064808F06F
:105A8400D9FD98E706352900034808F0D3FD8DE7D2
:105A9400F00F0220CC0F022090080220D423CD2145
:105AA40070B59B00C35804001A0290B0120A490052
:105AB4008A4254D2A0221B011B0912061343D62585
:105AC400D422AD00635100239200A3500432A350AA
