:020000041000EA
:1000000000B5324B212058609868022188439860DF
:10001000D860186158612E4B002199600221596106
:100020000121F02299502B49196001219960352056
:1000300000F044F80222904214D00621196600F024
:1000400034F8196E01211966002018661A6600F04E
:100050002CF8196E196E196E052000F02FF8012189
:100060000842F9D1002199601B49196000215960AB
:100070001A491B48016001219960EB211966A021F2
:10008000196600F012F800219960164914480160C1
:100090000121996001BC002800D000471248134993
:1000A000086003C880F30888084703B5996A0420EC
:1000B0000142FBD001200142F8D103BD02B5186610
:1000C0001866FFF7F2FF186E186E02BD00000240BE
:1000D000000000180000070000035F00212200005C
:1000E000F4000018222000A00001001008ED00E03C
:1000F00000000000000000000000000074B24E7A12
:1001000000200420F7010010C3010010C5010010F9
:10011000C1010010C1010010C1010010C101001097
:10012000C1010010C1010010C1010010C701001081
:10013000C1010010C1010010C9010010CB01001065
:10014000CD010010CD010010CD010010CD01001037
:10015000CD010010CD010010CD010010CD01001027
:10016000CD010010CD010010CD010010CD01001017
:10017000CD010010CD010010CD010010CD01001007
:10018000CD010010CD010010CD010010CD010010F7
:10019000CD010010CD010010CD010010CD010010E7
:1001A000CD010010CD010010CD010010CD010010D7
:1001B000CD010010CD010010CD010010CD010010C7
:1001C00000BE00BE00BE00BE00BE00BE00F051F882
:1001D000103800BEF2EB8871E00200100C03001032
:1001E0003402001090A31AE700202449086006C8D2
:1001F00081F30888104722480068002835D10DA4F3
:100200000ECC002902D000F012F8F9E71D491E4A71
:10021000002000E001C19142FCD11C4988471C49E3
:1002200088471C49884700BEFDE701C901C29A42C0
:10023000FBD370470C030010C000002070F50120B4
:10024000BCF7011070F5012098B30220E4B502104C
:100250000000042000000420E4B502100010042077
:10026000001004200000000070470B4800F018F850
:100270000047EFF30580C0B27047000008ED00E0D2
:10028000000000D098B30220C0D2022045AC00206C
:1002900071810020A9AD0020575600000000000029
:1002A00001B40248844601BC604700BFA9CA0020CF
:1002B00006005250ABB3605324190220060052507E
:1002C000861C030234190220060052505422A29DBB
:1002D0005419022005005250DE65F468E4B502109E
:1002E000D4020010C8020010BC02001060190220E5
:1002F000B00200106C190220781902208419022023
:0C030000C0190220CC190220001A0220B3
:10030C00F8B5C0460448054B10B5834203D0044BE6
:10031C00002B00D0984710BD98B3022098B3022050
:10032C000000000006480749091A8B10C90FC918AC
:10033C0010B5491003D0044B002B00D0984710BDCA
:10034C0098B3022098B302200000000010B5074CAF
:10035C002378002B09D1FFF7D5FF054B002B02D0DA
:10036C00044800E000BF0123237010BDA0B402209C
:10037C000000000070F50120054B10B5002B03D0D8
:10038C000449054800E000BFFFF7CCFF10BDC04694
:10039C0000000000A4B4022070F501207047C04694
:1003AC00F52301229B00C2507047C046F72301225F
:1003BC009B00C2507047C0460022044BC250FE2224
:1003CC00012392008350083A8350704704040000C4
:1003DC00044A835801338350FC2301229B00C250F2
:1003EC007047C04604040000054A8358002B01DD09
:1003FC00013B8350FC2301229B00C2507047C04636
:10040C0004040000FE2300229B00C250083B013272
:10041C00C2507047FE2330B5012500249B00C31841
:10042C001C605D60FC2301229B00C25030BDC046A5
:10043C00FC230121014A9B00D1507047E0C20220ED
:10044C00084B0948094918605960094809499860DE
:10045C00D9600948094918615961094807499861E7
:10046C00D9617047E0C20220630352035600561054
:10047C0050055305520551055405530551075106B6
:10048C00002400240A4BC8201A68B8235A43094B8D
:10049C0030B59B185969084C0023400003E0E2502A
:1004AC000433834202D0CA58551CF8D130BDC04623
:1004BC0074BF022088930220E0C202200A4B012163
:1004CC001A680A4B1A60B8235A43094B9B1800222E
:1004DC0019611A76074B1960074B1960074B1A60A4
:1004EC00074B1A707047C04674BF022064C00220CC
:1004FC00889302206CC0022070C002205CC00220D5
:10050C00E8C60220D0220C4B0C480D49920010B5C5
:10051C009C182060616000210A48203A9A181060EB
:10052C005160094A09481A600DF07CFB2268636827
:10053C0007480DF077FB10BDE0C20220325476085C
:10054C00305476085634120018141014A0F90120F7
:10055C00B0F9012010B50E480DF00EFA0D4B0E48F7
:10056C001A680E4B19680DF05DFB0D4B0D481968A0
:10057C000DF058FB0C4B0D481A680D4B19680DF01B
:10058C0051FB0C4B0C4819680DF04CFB10BDC046D0
:10059C00C8F901204CBF0220D8F9012054BF022019
:1005AC0050BF0220FCF901205CBF022014FA01208C
:1005BC0044BF022058BF022028FA012010B504487D
:1005CC000DF0DAF9034B044819680DF02BFB10BD44
:1005DC0034FA0120B4C0022044FA012010B5054CB5
:1005EC00054821680DF01EFB2068253808F020F91D
:1005FC0010BDC04660BF022050FA012010B50A2081
:10060C0008F016F910BDC04610B5092008F010F915
:10061C0010BDC04610B5152008F00AF910BDC04633
:10062C0010B5162008F004F910BDC04610B51720FF
:10063C0008F0FEF810BDC04610B5072008F0F8F819
:10064C0010BDC04610B51A2008F0F2F810BDC04617
:10065C0010B5022008F0ECF810BDC04610B506200D
:10066C0008F0E6F810BDC04610B5052008F0E0F81B
:10067C0010BDC04610B5032008F0DAF810BDC04616
:10068C0010B5042008F0D4F810BDC046FC2300219E
:10069C0010B5034A9B001820D15008F0C9F810BDC2
:1006AC00E0C20220FC23002110B5034A9B00192054
:1006BC00D15008F0BDF810BDE0C20220F0B5002208
:1006CC00C646114B114C00B525001A6000230127BA
:1006DC0098460F4E183504E043462B7027610135C0
:1006EC00B834310020681AF0C3F90028F4D1012283
:1006FC00084B1860084B1A60084B1860084B1870B0
:10070C0004BC9046F0BDC04664C002208893022011
:10071C0054FA01206CC0022070C002205CC0022080
:10072C00E8C6022030B583B005000A49100001AAC2
:10073C001AF0D6F80400012803D00024200003B0DE
:10074C0030BDDB23019A9B001100EA5002480DF0EA
:10075C0069FAF3E75CFA01206CFA012030B583B03A
:10076C0005000A49100001AA1AF0BAF80400012881
:10077C0003D00024200003B030BDDC23019A9B0081
:10078C001100EA5002480DF04DFAF3E784FA01200B
:10079C0094FA0120002330B583B005000A491000FB
:1007AC0001AA01931AF09CF80400012803D000243C
:1007BC00200003B030BDD423019A9B001100EA50F5
:1007CC0002480DF02FFAF3E7ACFA0120BCFA012035
:1007DC0010B582B001AB0400114910006A461AF042
:1007EC007FF80023022802D0180002B010BD009937
:1007FC00019A012910D002290AD0002904D00948F5
:10080C000DF010FA0123EFE7D7239B00E250F6E737
:10081C00D9239B00E250F2E7D8239B00E250EEE78D
:10082C00D8FA0120F0FA012030B583B005000A494E
:10083C00100001AA1AF054F80400012803D0002477
:10084C00200003B030BDDA23019A9B001100EA505E
:10085C0002480DF0E7F9F3E710FB01202CFB012017
:10086C0030B583B005000A49100001AA1AF038F817
:10087C000400012803D00024200003B030BDDF2386
:10088C00019A9B001100EA5002480DF0CBF9F3E7F6
:10089C004CFB012060FB012010B5084904000848FE
:1008AC0008F0C6FCFE23012000219B00E318186011
:1008BC005960FC2301229B00E25010BDF0CC0220B9
:1008CC0078FB0120F0B5D6464F464646C0B51748D2
:1008DC0082B00DF051F8164B00259946154B164C6D
:1008EC009846164B164F9A462668390030001AF077
:1008FC00BFF800280CD022694346002A00D1534689
:10090C002200183200922900320048460DF08AF974
:10091C000135B8341D2DE7D10A200CF0DBFF02B0F5
:10092C001CBC90469946A246F0BDC04690FB0120E7
:10093C00A0FB012080FB01208893022088FB012072
:10094C0054FA012070B50A200CF0C4FF094C0A4E71
:10095C002500F935FF35626813782A2B03D0300057
:10096C0021780DF05FF90C34AC42F4D103480DF052
:10097C0059F970BDC83A0220B8FB0120C4FB012014
:10098C0070B528480DF04EF9274D284C3FE0D02388
:10099C00012202211B069A61996102319961800042
:1009AC000431996141598A405A61D02301221B06B6
:1009BC0059685B6809095B0911401A4201D002238E
:1009CC001943D0231B065B685B0601D5042319432E
:1009DC00D0231B065B681B0601D508231943D023C3
:1009EC001B065B68DB0501D510231943D0231B06BE
:1009FC005B689B0501D520231943D0231B065B683C
:100A0C005B0501D54023194320000DF00BF9FA20AA
:100A1C0080000DF019F9431CC7D030380328B6D923
:100A2C0070BDC046E0FB01206012022050FA01208C
:100A3C0070B5274D0600286814008EB0002801D12F
:100A4C000EB070BD0DAB05930CAB04930BAB0393C5
:100A5C000AAB029309AB019308AB009320001D492C
:100A6C0007AB06AA19F03CFF082805D000231A4A48
:100A7C0000202B601360E3E7174A136898003018C6
:100A8C00410713D1069C079D04604560089C099D95
:100A9C008460C5600A9C0B9D046145610C9C0D9D96
:100AAC008461C561083301201360C9E706990160B0
:100ABC0007994160089981600999C1600A9901619F
:100ACC000B9941610C9981610D99C161EAE7C046AE
:100ADC0088BF0220ECFB01208CBF0220100010B557
:100AEC00072208491AF078F80023002801D01800D2
:100AFC0010BD0122044B05481A600DF093F8012338
:100B0C00F5E7C04608FC012088BF022010FC01203C
:100B1C007047C04608B4F0B5C646C82100B5E7B06A
:100B2C006DAB10CB06002200490002A801930CF01B
:100B3C007DF802A819F0E8FF102827D8194D2200DB
:100B4C001021019B28000CF071F8280019F0DCFF33
:100B5C000F24241A002C0EDD134B0027984602E0BC
:100B6C00280019F0D1FF02224146281801370CF059
:100B7C00A7FDBC42F4D1FC2301229B00F25067B0CC
:100B8C0004BC9046F0BC08BC01B0184721000748D3
:100B9C000DF048F802A906480DF044F805480CF091
:100BAC00EBFECBE788CB0220FC09022024FC0120C1
:100BBC0030FC012044FC0120D421DB238900425865
:100BCC009B0030B50400C250DC2000230C4D80008B
:100BDC0023506350043183B06350280009492033FB
:100BEC000BF0FCFF012201212000074B0095FFF7C1
:100BFC0091FFFC2301229B00E25003B030BDC046A4
:100C0C0020C0022050FC012058FC012008B4F0B593
:100C1C00CE46474680B50F00C821E6B06DAB10CB71
:100C2C0006002200490002A801930BF0FFFF02A866
:100C3C0019F06AFF10282AD81B4D22001021019BA5
:100C4C0028000BF0F3FF280019F05EFF0F24241A84
:100C5C00002C11DD00239846144B994602E0280025
:100C6C0019F052FF0222494628180CF029FD0123E5
:100C7C009C46E0444445F2D1FC239B00F75066B0FF
:100C8C000CBC90469946F0BC08BC01B0184721003A
:100C9C0007480CF0C7FF02A906480CF0C3FF064832
:100CAC000CF06AFEC8E7C046E7CB0220FC09022024
:100CBC0024FC012030FC012044FC012010B5034829
:100CCC000CF012F800210300002098475542000058
:100CDC00F0B5244885B00CF0A5FF0023224C234E20
:100CEC00234D2360FA2080000CF0AEFF431C35D05E
:100CFC003928F7DC2F2807DC1B28F3D81D4BC34001
:100D0C00DB07EFD505B0F0BD2268303893009B1897
:100D1C005B0018183100206028000CF083FF164986
:100D2C00164B086816491B6809685A1E93414F1EDA
:100D3C00B941212249425B4213400A4020320190C2
:100D4C00009002922268203311000E480CF06AFFCA
:100D5C00FA2080000CF078FF431CC9D10CF0E2FEA5
:100D6C00C0E7C04668FC012074BF02207CC0022092
:100D7C0094FC01200024000888B90220A0B90220AC
:100D8C009CB90220ACFC01200FB400B5B5B036AB59
:100D9C0004CBC82101A800930BF048FF35B008BC68
:100DAC0004B018470FB400B5B5B036AB04CBC821AE
:100DBC0001A800930BF03AFF01A903480CF032FF95
:100DCC0035B008BC04B01847F8FC01200FB470B55E
:100DDC00AAB02EAB04CBA02101A800930BF026FFE8
:100DEC0001A919480CF01EFF184D9E24280019F07B
:100DFC008BFE241A060001A819F086FE32000300AF
:100E0C00210013480CF00EFF631C15D0280019F0BC
:100E1C007BFE02220F4928180CF052FC01A922007B
:100E2C00280019F0A5FE29000B480CF0FBFE2AB097
:100E3C0070BC08BC04B018472123220029000748C5
:100E4C002B700CF0EFFEF2E710FD0120E8C602203B
:100E5C0024FD0120FC0902205CFD01204CFD012039
:100E6C0010B50020D02408F029FC0123240663626D
:100E7C00012008F023FC02230220636208F01EFC10
:100E8C0004230320636208F019FC08230420636226
:100E9C0008F014FC10230122A3620021042008F0A6
:100EAC00F5FB052008F00AFC20230122A362002197
:100EBC00042008F0EBFB062008F000FC4023012284
:100ECC00A3620021042008F0E1FB072008F0F6FBE8
:100EDC0080230122A3620021042008F0D7FB082004
:100EEC0008F0ECFB80235B00A362012200210420AC
:100EFC0008F0CCFB092008F0E1FB80239B00A362E7
:100F0C0001220021042008F0C1FB0A2008F0D6FBC6
:100F1C008023DB00012200210420A36208F0B6FB31
:100F2C0010BDC04670B515290FD018291ED0162932
:100F3C0012D0172924D007291DD90B00083B012BEF
:100F4C000FD91248FFF720FF03E0DB2300259B009D
:100F5C00C4582900200070BDD6239B000025C4581E
:100F6C00F7E76031C900411830C9F2E7D4239B0080
:100F7C000025C458EDE7C831890000250C58E8E776
:100F8C00E0239B00C458E517E3E7C04670FD012041
:100F9C00F0B557464546DE464E46E0B5D14F050006
:100FAC003B689DB0002B01D1CF4A1360D0220121A8
:100FBC00120654685268240952090C40114201D09F
:100FCC0002221443D02212065268520601D5042282
:100FDC001443D02212065268120601D5082214437B
:100FEC00D02212065268D20501D510221443D02209
:100FFC0012065168012689051BD5202152680C4325
:10100C00920A164201D100F05EFD40221443B74A09
:10101C001460B549B64A08681060DA0114430C60D4
:10102C00032B52D01DB03CBC90469946A246AB4611
:10103C00F0BD5268920A1642E7D1AC4A1460002CFB
:10104C00E7D1AC4A90461268002AE9D1AA490A684D
:10105C0001320A2A56DDA94A0C6093461268002A0E
:10106C00DED0A74B1B680393002B4DD0A54BA64895
:10107C009946A64B9A465246B82312685343A44A43
:10108C004B44126803929A68039B9B009B5819006F
:10109C001C0004930CF0C6FD1E2C00D1B8E01F2CD4
:1010AC0000D1A4E0002C00D1B2E0049C99482100AE
:1010BC000CF0B8FD200007F0BBFB954B944A1B6865
:1010CC000393013313603B68AAE7874B924C196872
:1010DC00924D23682960994212D0002910D0904873
:1010EC000023020003E0013308321C2B08D01668E1
:1010FC00B142F8D1DB00C318586807F099FB296896
:10110C0021608FE70A608BE7864E30000CF08AFD79
:10111C007C4B854899467D4B9A46B8239846534656
:10112C0042461B6853434A46D1580CF07BFD3000B5
:10113C000CF078FD7D4B46461C605346C82419685C
:10114C0064004E434E440023706903E0EA500433BC
:10115C00A34202D0C258561CF8D1B8234B434B447F
:10116C005A68734B002498464B46A9461D00230130
:10117C00D018D35C0B2B1ED00E2B14D00A2B0ED0F8
:10118C0022006C480CF04EFD00235A461360534667
:10119C001968B8234B43EB185A680134E7E78368A6
:1011AC0001340393E3E70123554A13600022584BA3
:1011BC001A603B6834E78368C0689C46039B072B26
:1011CC0006D9083B012B0AD94046FFF7DDFDDEE7C7
:1011DC0048466646C8339B001E500134C7E7664636
:1011EC006833DB004B441E6058600134BFE7434654
:1011FC001E60F5239B00EE50454B454A1B680121B0
:10120C0003934D48013313600CF00CFD3B6807E76A
:10121C00002342460021494813600CF003FD52465E
:10122C00B8231268012653434A464548D1580CF05E
:10123C00F9FC1E2306955546CA463C4C764221685D
:10124C0003930596049A3F480CF0ECFC2268B823F3
:10125C0010018446664629684B435344DB681818D2
:10126C009B5D9946143BDBB20A2B00D9B1E3364A9D
:10127C009B00D3589F4653468146AA461D001E2309
:10128C00039304994A4631480CF0CCFC2368591C52
:10129C004B4621600593D5E753466046AA461D0090
:1012AC0086682B4831000CF0BDFC2368049A591C4D
:1012BC00244821600CF0B6FC2268B8231001844647
:1012CC000392624629684B435344DB6818189B5CB5
:1012DC009946143BDBB20A2B00D97EE31D4A9B00D6
:1012EC00D3589F4644BF022054BF022058BF02204F
:1012FC004CBF022078C0022060C0022070C00220C7
:10130C005CC00220889302208CFD012064C0022066
:10131C0074C002208400022048BF022050BF02206B
:10132C00E839022098000220CC00022068C002207C
:10133C00E40002200001022098FD0120CCFD0120D8
:10134C00FCFD01202CFE01202801022080FE012042
:10135C0070FE012054010220142305960393F523FB
:10136C00069E9B00F25808339946F358BE48190064
:10137C0007930CF057FC4B46F358002B00D03CE283
:10138C002368591C21605DE753466046AA461D0040
:10139C008668B64831000CF045FC2368049A591C49
:1013AC00B34821600CF03EFC2268B823100184463F
:1013BC000392624629684B435344DB6818189B5CC4
:1013CC009946143BDBB20A2B00D906E3A94A9B00D1
:1013DC00D3589F46142305960393F523069E9B0032
:1013EC00F25808339946F358A348190007930CF0A8
:1013FC0019FC4B46F3589946002BC1D19F48FFF777
:10140C00E5FCB8232A6853434A4653441A612368BF
:10141C00591C216016E7D146AA4699480CF0ACFA43
:10142C0000235A4613604246136001332360954DE6
:10143C002B68002B00D0EAE15246B8231268924C7C
:10144C0053434A46D2181269002A00D1F4E18F485E
:10145C000CF0E8FB534652461B6800260133136020
:10146C00B82253434A468A49D058267019F000FBDB
:10147C00002800D1E7E101235A461360854B2E600A
:10148C001E603B68CCE5D146AA4683480CF0CAFBEB
:10149C00824B824A1B680393013313602368013328
:1014AC0023605B461B68002BC1D07D480CF0BAFB57
:1014BC003B68B5E5039E7B4A3300143B9B00D15837
:1014CC00794B0792180003930CF0ACFB192E3AD011
:1014DC001E2E00D101E1142E00D1FEE02368049AE7
:1014EC00591C634821600CF09DFB2268B823100145
:1014FC008446664629684B435344DB6818189B5D49
:10150C009946143BDBB20A2B00D962E2674A9B0076
:10151C00D3589F4614230393B3E619230393B0E6E1
:10152C001923059603931AE719230596039354E799
:10153C005C4B059607935B690A935B4B0A99180001
:10154C0003930CF06FFB059B59491B011B091A00F7
:10155C000FA899460BF042FB0EAA56490FA819F09A
:10156C00BFF9C7230E9A934202DDD343DB17134016
:10157C00069A9B009A58B82329684B432168534418
:10158C00DB6809015B189968914200D163E14A4616
:10159C0047490FA80BF022FB0EAA46490FA819F0D9
:1015AC009FF9C7230E9A934202DDD343DB171340F6
:1015BC00069A9B009A58B82329684B4321685344D8
:1015CC00DB6809015B189868D9680090019105994E
:1015DC0039480CF027FB4A4635490FA80BF0FEFAA8
:1015EC000EAA34490FA819F07BF9C7230E9A93421F
:1015FC0002DDD343DB171340069A9B009A58B8239D
:10160C00994649462B684B4321685344DB680901D2
:10161C005B189868D9680090019105992748FFF7E5
:10162C00D5FB4A462B6812485343002253441A6197
:10163C002368049A591C21600CF0F4FA22684B467A
:10164C0010018446664629684B435344DB681818DE
:10165C009B5D9946143BDBB20A2B00D9B9E1184AC1
:10166C009B00D3589F46C046CCFE012058FE01205B
:10167C002CFE01208001022098FE0120C0FE0120DA
:10168C00D8FF01206CC00220E8C6022040000220D6
:10169C0054FA01205CC0022048FE012074C00220D4
:1016AC001C0002205C3D02201CFE0120AC0102202B
:1016BC0090FA0120D015022024FF012044FF0120C4
:1016CC00D8010220D34B059607931B680A93D24B83
:1016DC000A99180003930CF0A5FA0823059A5B42AB
:1016EC009C469146CC4463460B93D3B20A93FF239A
:1016FC0013400C93143B0D932B00160055469A4641
:10170C00731C00D103E11E2E05D80123B340C34A3C
:10171C00134200D01AE1DB23152E00D136E1182E2E
:10172C0000D132E1D623162E00D12FE1172E00D195
:10173C005BE1072E00D855E10B9B012B00D8B7E1DC
:10174C003100B748FFF720FBB823994653464A4669
:10175C001B68089953432268EB18DB6812019B182D
:10176C009A68DB688A4200D17CE13100AD480CF00C
:10177C0059FA0A9B132B00D843E10D9B079A9B0047
:10178C00D358994631000698FFF7CCFB020050461F
:10179C000B00B8210068414320686918C968000132
:1017AC0009188868C9680090019149469E48FFF75E
:1017BC000DFB5246B82312689C4853430022EB1889
:1017CC001A612368049A591C21600CF02BFA5346B9
:1017DC001968B8234B432268EB18DB68100105929B
:1017EC001A18185C94460300143BDBB20A2B00D980
:1017FC0003E18F4A9B00D3589F468E48FFF7E6FAC9
:10180C00B8232A685343002253441A61B8E553465F
:10181C001A68B82353434A46D2181269002A02D0D8
:10182C003B68FFF7FDFB18334B441800824919F055
:10183C0063F93B68FFF7F4FB18334B4418002100A5
:10184C0019F05AF903E65B4618607C480CF0EAF98B
:10185C003B68FFF7E5FBDB681E1E00D097E64A46A7
:10186C0077490FA80BF0BAF976490EAA0FA819F010
:10187C0037F80E9B002B33DBC72B01DDC7230E93F0
:10188C00069A9B009A58B823994649462B684B43B5
:10189C0021685344DB6809015B189868D96800908B
:1018AC000191059968480CF0BDF92368049A591CFC
:1018BC005E4821600CF0B6F922684B461001844654
:1018CC00664629684B435344DB6818189B5D994660
:1018DC00143BDBB20A2B7CD85C4A9B00D3589F4646
:1018EC0000230E96CCE7079B0398996A0CF09AF9A3
:1018FC00F3E65346AA461D0005961E2303932EE5D8
:10190C005346AA461D0005961E23039365E55346D0
:10191C00AA461D002368049A591C444821600CF007
:10192C0081F92268B8231001844605926246296821
:10193C004B435344DB6818189B5C9946143BDBB251
:10194C000A2B38D8424A9B00D3589F4641480CF08A
:10195C0069F92368049A591C344821600CF062F927
:10196C0053461968B8234B432268EB18DB68100107
:10197C0005921A18185C94460300143BDBB20A2B30
:10198C003BD8354A9B00D3589F46D423069A9B00DC
:10199C00D358089300230993D6E61E230596039388
:1019AC00DDE41E230596039317E5079B0398996ABC
:1019BC000CF038F9AEE74B46D146AA46059A2748B3
:1019CC000CF030F900235A4613602368013323606E
:1019DC002DE54B46D146AA46F1E74B46039AD14634
:1019EC00AA46ECE73300C833D0E7E023069A9B0005
:1019FC00D3580893DB170993A6E60300A946059A6A
:101A0C00DDE7174B142199460E4A48460C9B0BF008
:101A1C00F9F8B7E65C3D02201CFE012000001046E0
:101A2C0070FD0120A8FF0120BCFF01202CFE01202D
:101A3C0004020220F8FE0120E8C602205800022011
:101A4C0090FA0120D015022004FF01203002022060
:101A5C005C02022064FF012088020220ECFF0120BE
:101A6C0088C7022009998B4200D07EE60B00089AA9
:101A7C0031001C480CF0D6F82368049A591C1A48FB
:101A8C0021600CF0CFF8534619684B464B43226843
:101A9C00EB18DB68100105921A18185C94460300C9
:101AAC00143BDBB20A2BA8D8104A9B00D3589F4694
:101ABC00069A330094466033DB0063441A685B6813
:101ACC000892099340E60A4A1460FFF7A2FAA94665
:101ADC00A3E4A946D9E4079B0398996A0CF0A2F8F1
:101AEC000EE6C04694FF01202CFE0120B402022019
:101AFC0058BF0220F0B5DE4657464E464546E0B587
:101B0C0083B00190BF480E0090460CF08BF8BE4B92
:101B1C0032009A46BD4B51469B46434658460CF004
:101B2C0081F84346370F1B0F00933B000A3B012BF8
:101B3C0000D90A27009A13000A3B9146012B02D9BF
:101B4C000A23994600934A463900B1480CF06AF8CA
:101B5C00434635011C012D092409A54200D9B9467B
:101B6C0022002900AB480CF05DF8009B0B2F00D134
:101B7C003DE10A2B00D15EE2A74E30000CF052F88A
:101B8C00A64B1C1B23002A00514658460CF04AF861
:101B9C0030000CF047F80F210E000B002E402340B4
:101BAC00F3181A000A3A0020092A02D806330B400F
:101BBC0001300F212A0926090E400A4092191218E9
:101BCC0016000A3E0020092E02D806320A400130C7
:101BDC000F211201D3182E0A220A0A400E40B61801
:101BEC00361830000A380022092802D806360E4072
:101BFC0001320F213602F618280B230B0B4008403C
:101C0C00C018801803000A3B0027092B02D80630A5
:101C1C000840013703039B190F26290C220C324074
:101C2C0031408918C9190A000A3A0020092A02D839
:101C3C000631314001300F260904CB182A0D210D35
:101C4C00314032405218121811000A39002009296B
:101C5C0002D80632324001300F261205D218210E5E
:101C6C002B0E334031405B181B1818000A3809281A
:101C7C0001D8063333401B069B180F221C0213405D
:101C8C000A3B240A052B00D883E123061B0F0A3BD1
:101C9C00052B00D877E123051B0F0A3B052B00D839
:101CAC0068E123041B0F0A3B052B00D859E12303E1
:101CBC001B0F0A3B052B00D84AE10F23250D2B40A7
:101CCC000A3B052B00D839E1210055480BF0AAFF3F
:101CDC00F0231B051C4200D128E10F2108002040F5
:101CEC000600093E0022431C092E03D80B000730C6
:101CFC00034001320F202109014089180A000A3AD9
:101D0C000026092A02D80631014001360901CB18F8
:101D1C000F21220A0A40921916000A3E0020092EB1
:101D2C0002D806320A4001300F211202D218230BBE
:101D3C000B401B181E000A3E0020092E02D8063349
:101D4C000B4001300F21240C0C40241820001B03E5
:101D5C000A389B180022092802D806340C4001329C
:101D6C002404E4180F231D40AD182A000A3A092A4E
:101D7C0001D806351D402D052C190F2526022C40A7
:101D8C000A3C360A052C00D833E133061B0F0A3BFC
:101D9C00052B00D827E133051B0F0A3B052B00D878
:101DAC0018E133041B0F0A3B052B00D809E1330360
:101DBC001B0F0A3B052B00D8FAE033021B0F0A3B22
:101DCC00052B00D8EBE04B460B2B2DD04B46134A82
:101DDC001F073E4331001348921B0BF023FF3000CA
:101DEC0003B03CBC90469946A246AB46F0BD0B2BCB
:101DFC0000D120E1084E30000BF014FF074B5D1BA7
:101E0C00C0E6C04618030220241202203C03022024
:101E1C005003022064030220BC030220999999000C
:101E2C0090030220D00302200F221000DA4B9E1BDD
:101E3C0030400400093C0023411C092C00D8F5E07B
:101E4C000F2032090240D21814000A3C0023092C3E
:101E5C0000D8E7E00F2012015218310A0140C918CE
:101E6C000B000A3B0024092B00D8D7E009028A1882
:101E7C000F21300B0840001903000A3B0024092BEA
:101E8C0000D8C7E003030F20310C014009199B183F
:101E9C000A000A3A0024092A00D8B7E00F20320DB4
:101EAC0002401219140009040A3CCB180021092C19
:101EBC0000D8A7E00F201205D218330E03405B1890
:101ECC001C000A3C092C00D899E01B069B180F2219
:101EDC001E0213400A3B360A052B00D889E1330653
:101EEC001B0F0A3B052B00D87DE133051B0F0A3B6A
:101EFC00052B00D86EE133041B0F0A3B052B00D8D1
:101F0C005FE133031B0F0A3B052B00D850E1330272
:101F1C001B0F0A3B052B00D958E7C023DB039C465B
:101F2C00664431009D480BF07DFE4FE79C480BF05A
:101F3C0079FE21009B48FEF727FFCEE6C023DB038A
:101F4C009C466444210095480BF06CFE250DBBE6C5
:101F5C00C023DB029C466444210090480BF062FED7
:101F6C00ABE6C023DB019C46644421008B480BF09C
:101F7C0059FE9CE6C023DB009C4664442100874844
:101F8C000BF050FE8DE66034210084480BF04AFEC5
:101F9C0081E60634210081480BF044FE75E6C0232F
:101FAC00DB039C46664431007C480BF03BFE0AE7A1
:101FBC00C023DB029C466644310078480BF032FEAD
:101FCC00FBE6C023DB019C466644310073480BF0F2
:101FDC0029FEECE6C023DB009C46664431006F48CA
:101FEC000BF020FEDDE6603631006C480BF01AFE7B
:101FFC00D1E60636310069480BF014FEC5E606330F
:10200C00034062E706320240013153E706310140DA
:10201C00013443E706300840013433E70631014010
:10202C00013423E706320240013313E70730024044
:10203C001100013304E75C480BF0F4FD0F2044461B
:10204C00020004403240A21813000A3B0025092B61
:10205C0002D8063202400135434619090F233409D0
:10206C0019401C400919491908000A38002509288B
:10207C0002D806311940013543460F200C01A41833
:10208C001B0A320A024003409B185B191A000A3AD9
:10209C000021092A02D80633034001311B021C1906
:1020AC0043461A0B0F23300B18401A4012185218C3
:1020BC0010000A380021092802D806321A400131D2
:1020CC0043460F20120312191B0C340C044003401E
:1020DC001B195B181C000A3C0021092C02D8063382
:1020EC000340013140461C040F23A418000D320D8F
:1020FC0018401A401218521810000A3800210928EA
:10210C0002D806321A4001311205141942460F202A
:10211C00330E120E024003409B185B1819000A394B
:10212C000022092902D80633034001321B061E196E
:10213C00120795193602340A1C4E210030000BF0A0
:10214C0071FD0F2215400A3D052D00D890E02306A5
:10215C001B0F0A3B052B00D884E023051B0F0A3B01
:10216C00052B76D923041B0F0A3B052B68D92303B7
:10217C001B0F0A3B052B5AD923021B0F0A3B052BBD
:10218C004CD9210030000BF04DFDF0231B051C42F7
:10219C0035D13E07264322E699999900E0020220A8
:1021AC0098030220AC0302207C030220900302203F
:1021BC00C023DB029C466644310030480BF032FDF4
:1021CC00A5E6C023DB019C46664431002B480BF08E
:1021DC0029FD96E6C023DB009C4666443100274867
:1021EC000BF020FD87E66036310024480BF01AFD19
:1021FC007BE60636310021480BF014FD6FE62048D3
:10220C000BF010FD21001F48FEF7BEFDF822012344
:10221C00019992008B50043A8B50BAE7C023DB0330
:10222C009C466444210015480BF0FCFCA9E7C02334
:10223C00DB029C466444210010480BF0F3FC9BE746
:10224C00C023DB019C46644421000C480BF0EAFCE3
:10225C008DE7C023DB009C466444210007480BF04B
:10226C00E1FC7FE76034210004480BF0DBFC74E7F1
:10227C000634210001480BF0D5FC68E7E00202208F
:10228C0098030220AC030220F0B5DE4657464E46BA
:10229C0045469946E0B587B0140004920A010B0F2D
:1022AC008A4611094A469B468C464B461201120936
:1022BC000094019280460099019A1B0F944501D914
:1022CC0000F04DFD01D100F046FD5A4603930B2A58
:1022DC0001D100F04BFD0A2A01D100F05FFD0B2B60
:1022EC0007D1009801990D4A0D4B121A8B4100929F
:1022FC0001930F244346009D2340254018002A00DB
:10230C0000230021801859410A225242D317121877
:10231C004B41002B01D100F032FD03E099999999C2
:10232C009999000000239946634642460F271B07E4
:10233C0012091A433A401400019B009A1B07160914
:10234C001E433E4000253200002312196B414C46BF
:10235C00002512196B410A246442E517A4185D414B
:10236C00002D01D001F059F8092C01D901F055F8D4
:10237C00941D3C40220001240023A146160F1D0190
:10238C001401634642460F271B06120A1A433543B3
:10239C003A4024184D41019B1000009A1B06160A66
:1023AC001E433E4000213200002312184B41484688
:1023BC00002112184B410A204042C1178018594184
:1023CC00002901D001F025F8092801D901F021F8E4
:1023DC00911D39400A00012100238946160E100276
:1023EC001902424663460F271B05120B1A43314351
:1023FC003A4024184D41019B1000009A1B05160B06
:10240C001E433E4000213200002312184B41484627
:10241C00002112184B410A204042C1178018594123
:10242C00002901D000F0F1FF092801D900F0EDFFDF
:10243C00911D39400A00012100238946160D19030C
:10244C001003634642463143001969410F251B04B2
:10245C00120C1A432A400600019B1000009A1B0420
:10246C00140C1C432C400F002200002100231218D6
:10247C004B414846002112184B410A204042C117DB
:10248C0080185941002901D000F0BBFF092801D95F
:10249C0000F0B7FF911D29400A0001210023894655
:1024AC00110C14041D04424663460D4336196F414A
:1024BC000F251B03120D1A432A401000019B009A92
:1024CC001B03140D1C432C40002122000023121866
:1024DC004B414846002112184B410A204042C1177B
:1024EC0080185941002901D000F087FF092801D933
:1024FC0000F083FF911D29400A0001210023894629
:10250C00110B14051D05424663460D4336196F41E8
:10251C000F251B02120E1A432A401000019B009A31
:10252C001B02140E1C432C40002122000023121805
:10253C004B414846002112184B410A204042C1171A
:10254C0080185941002901D000F053FF092801D906
:10255C0000F04FFF911D29400A00012100238946FC
:10256C001D064346110A180F0D43002300211406C3
:10257C00A4197D41009E320F12184B414846002190
:10258C0012184B410A204042C117801859410029AA
:10259C0001D000F02BFF092801D900F027FF901D76
:1025AC000F31084002000023012716091907314397
:1025BC001007001969410F26634604900591019993
:1025CC00334031401C0000250A00002312196B41D6
:1025DC003C00002512196B410A246442E517A4182B
:1025EC005D41002D01D000F0FDFE092C01D900F059
:1025FC00F9FE0121941D3440220088460498059967
:10260C001500002463460F27001969411C093C4042
:10261C002200019C002526093E403400002312199B
:10262C006B414446002512196B410A246442E5179C
:10263C00A4185D41002D01D000F0D0FE092C01D969
:10264C0000F0CCFE941D3C4022000124A0466346C1
:10265C0000240F27150124184D41190A39400A008E
:10266C00019900230E0A3E403000002112184B4104
:10267C004046002112184B410A204042C1178018D5
:10268C005941002901D000F0A5FE092801D900F01C
:10269C00A1FE911D39400A000121884600206346A5
:1026AC000F27110224184D41190B39400A000199CA
:1026BC0000230E0B3E403000002112184B414046C7
:1026CC00002112184B410A204042C1178018594171
:1026DC00002901D000F07AFE092801D900F076FE1D
:1026EC00911D39400A000121884663460F270020BE
:1026FC001B0C11033B4024184D411800019B002179
:10270C001E0C3E40320000238018594142460023E3
:10271C00801859410A225242D31712184B41002BF0
:10272C0001D000F04FFE092A01D900F04BFE831DA9
:10273C003B4018000123984600220304A4185D4175
:10274C0063460F271B0D3B401800019B00211E0DFB
:10275C003E40320000238018594142460023801825
:10276C0059410A225242D31712184B41002B01D067
:10277C0000F024FE092A01D900F020FE831D3B4005
:10278C0018000123984600220305A4185D416346F6
:10279C000F27180E019B00211E0E3E403200002315
:1027AC008018594142460023801859410A2252424E
:1027BC00D31712184B41002B01D000F0FCFD092A55
:1027CC0001D900F0F8FD831D3B40180001260022C2
:1027DC000199030612196B4130000C0F00250021E2
:1027EC0024184D410A204042C117001969410029A3
:1027FC0003D1092801D800F0D8FD002021071218B8
:10280C004B411B0416001D0C0F2333401800140001
:10281C0000210A225242D31780185941002901D1B4
:10282C0000F0A9FF21060A0F00230A204042C1171D
:10283C0012184B41002B01D100F0F2FF21050A0FB9
:10284C0000230A204042C11712184B41002B01D122
:10285C0000F0F5FF21040A0F00230A204042C117A3
:10286C0012184B41002B01D101F078F821030A0F0B
:10287C0000230A204042C11712184B41002B01D1F2
:10288C0000F09EFF21020A0F00230A204042C117CC
:10289C0012184B41002B01D100F0A2FF21010A0FAD
:1028AC0000230A204042C11712184B41002B01D1C2
:1028BC0000F0A6FF2901220F0A430A204042C1174B
:1028CC002B0F12184B41002B01D100F0C8FFF02345
:1028DC001B032B4201D100F002FF0F2319002140F2
:1028EC000A009C4601260023002709204042C117FC
:1028FC00B6185F418018594100960197002901D004
:10290C0000F04FFD092801D900F04BFD634607325A
:10291C001340009300230193013398462A0723099F
:10292C0013430F2294461A40100000214246002304
:10293C0012184B410A204042C117801859410029F6
:10294C0001D000F02AFD092801D900F026FD6046CF
:10295C00911D08400121020000238846110F8C466E
:10296C006646190110013143009A019B12184B4124
:10297C00009201932A06230A13430F2294461A400D
:10298C00100000214246002312184B410A204042FD
:10299C00C11780185941002901D000F0FAFC092810
:1029AC0001D900F0F6FC6046911D0840012102009F
:1029BC0000238846110E8C466646190210023143DC
:1029CC00009A019B12184B41009201932A05230B8C
:1029DC0013430F2294461A40100000214246002354
:1029EC0012184B410A204042C11780185941002946
:1029FC0001D000F0CAFC092801D900F0C6FC6046E1
:102A0C00911D08400121020000238846110D8C46BF
:102A1C006646190310033143009A019B12184B416F
:102A2C00009201932A04230C13430F2294461A405C
:102A3C00100000214246002312184B410A2040424C
:102A4C00C11780185941002901D000F09AFC0928BF
:102A5C0001D900F096FC6046911D0840012102004E
:102A6C0000238846110C8C46664619041004314329
:102A7C00009A019B12184B41009201932A03230DDB
:102A8C0013430F2294461A401000002142460023A3
:102A9C0012184B410A204042C11780185941002995
:102AAC0001D000F06AFC092801D900F066FC6046F0
:102ABC00911D08400121020000238846110B8C4611
:102ACC006646190510053143009A019B12184B41BB
:102ADC00009201932A02230E13430F2294461A40AC
:102AEC00100000214246002312184B410A2040429C
:102AFC00C11780185941002901D000F03AFC09286F
:102B0C0001D900F036FC6046911D084001210200FD
:102B1C0000238C46110A8846464619061006314396
:102B2C00009A019B12184B410021009201936246BE
:102B3C000023200F12184B410A204042C117801865
:102B4C005941002901D000F010FC092801D900F0EE
:102B5C000CFC901D0F3108400E39020000238846F2
:102B6C0011098C46190766460F23314310079C4602
:102B7C00009E019F2B4036184F4142461800002101
:102B8C00002312184B410A204042C11780185941AA
:102B9C00002900D0E6E3092800D9E3E36046911D43
:102BAC00084001210200884611000F2200202B0949
:102BBC0094461A4036184F4100231000002142461B
:102BCC0012184B410A204042C11780185941002964
:102BDC0000D0C4E3092800D9C1E36046911D084028
:102BEC0001210200884611010F2200202B0A944675
:102BFC001A4036184F41002310000021424612188B
:102C0C004B410A204042C11780185941002900D07D
:102C1C00A2E3092800D99FE36046911D08400121D9
:102C2C0002008C4600201102801979410F262B0BD3
:102C3C0033401C0000256246002312196B410A2404
:102C4C006442E517A4185D41002D00D082E3092CE5
:102C5C0000D97FE3941D3440220001240026170381
:102C6C008019794100222304801859410B04060075
:102C7C000F2131400A0004001D0C0A204042C117EC
:102C8C00002312184B41002B01D100F083FD2106CB
:102C9C000A0F00230A204042C11712184B41002B87
:102CAC0001D100F0ECFD21050A0F00230A2040425F
:102CBC00C11712184B41002B01D100F0EFFD21047C
:102CCC000A0F00230A204042C11712184B41002B57
:102CDC0001D100F0F3FD21030A0F00230A2040422A
:102CEC00C11712184B41002B01D100F0F7FD210246
:102CFC000A0F00230A204042C11712184B41002B27
:102D0C0001D100F0FBFD21010A0F00230A204042F3
:102D1C00C11712184B41002B01D100F0FFFD290106
:102D2C00220F0A430A204042C1172B0F12184B41A5
:102D3C00002B01D100F002FE039B0B2B00D170E3A2
:102D4C002000039B1907294307B03CBC90469946C9
:102D5C00A246AB46F0BD884201D8FFF7B6FA5A46F8
:102D6C0003925A460B2A01D0FFF7B5FA0B2B19D058
:102D7C00094B1B1A984600239C46FFF7BAFA092AFE
:102D8C0001D9FFF7CFFA831D23401800012300213E
:102D9C009946FFF7C9FAC046999999000A2B01D0B8
:102DAC00FFF79DFA0F2104000C402200049C002325
:102DBC000C4026000027B6185F410A225242D31756
:102DCC0092197B41002B01D000F0D1FC092A01D9CA
:102DDC0000F0CDFCB31D0B401E00012300279C46C8
:102DEC00534602091B071A4300230F2101934B463C
:102DFC000A400092049A1B0712091A4314000C4053
:102E0C002200009C019D002312196B416446002591
:102E1C0012196B410A246442E517A4185D41002D78
:102E2C0001D000F0A0FC092C01D900F09CFC941DF1
:102E3C000C400E39220000238C461D015346110F05
:102E4C000D4314010F21A4197D411B06020A1A43DC
:102E5C004B460A40009401951400049A1B06160A6E
:102E6C001E430E4000253200002312196B416446AC
:102E7C00002512196B410A246442E517A4185D4120
:102E8C00002D01D000F06CFC092C01D900F068FC7D
:102E9C00941D0C40220000230126110E1D020D432F
:102EAC001402009A019B12196B4100920193534634
:102EBC000F211B05020B1A434B460A401400049ABF
:102ECC001B05170B1F430F4000253A000023121956
:102EDC006B413400002512196B410A246442E5173A
:102EEC00A4185D41002D01D000F037FC092C01D94C
:102EFC0000F033FC941D0C40220000230126110D20
:102F0C001D030D431403009A019B12196B4100928F
:102F1C00019353460F211B04020C1A434B460A40E3
:102F2C001400049A1B04170C1F430F4000253A0091
:102F3C00002312196B413400002512196B410A242D
:102F4C006442E517A4185D41002D01D000F003FC8C
:102F5C00092C01D900F0FFFB941D0C40220000232A
:102F6C000126110C1D040D431404009A019B121927
:102F7C006B410092019353460F211B03020D1A4320
:102F8C004B460A401400049A1B03170D1F430F40B5
:102F9C0000253A00002312196B4134000025121948
:102FAC006B410A246442E517A4185D41002D00D042
:102FBC00CFE3092C00D9CCE3941D0C402200002354
:102FCC000126110B1D050D431405009A019B1219C6
:102FDC006B410092019353460F211B02020E1A43C0
:102FEC004B460A401400049A1B02170E1F430F4055
:102FFC0000253A00002312196B41340000251219E8
:10300C006B410A246442E517A4185D41002D00D0E1
:10301C009CE3092C00D999E3941D0C400E39220035
:10302C0000238C46110A1D060D4314060027009A36
:10303C00019BA4185D4100230499060F0A0F6046FA
:10304C00002192197B4112184B410A204042C117B2
:10305C0080185941002900D075E3092800D972E382
:10306C00901D0F3108400E39020000238C461609C2
:10307C0019073143100724184D410F2651464F466E
:10308C00314037400A000023380000218018594194
:10309C0062460023801859410A225242D317121853
:1030AC004B41002B00D04BE3092A00D948E3831D88
:1030BC003340180001239C4603000022A4185D41F4
:1030CC0053460F27190939400A0049460E093E405C
:1030DC0000233000002180185941624600238018DB
:1030EC0059410A225242D31712184B41002B00D0DF
:1030FC0023E3092A00D920E3831D3B401800012358
:10310C009C4600220301A4185D4153460F27190A5F
:10311C0039400A0049460E0A3E4000233000002187
:10312C008018594162460023801859410A225242A4
:10313C00D31712184B41002B00D0FBE2092A00D9FF
:10314C00F8E2831D3B40180001239C4651460F2793
:10315C000022090B0302394012196B410C0049463D
:10316C000E0B3E40002530000021001969416446D9
:10317C000025001969410A246442E51724184D41C1
:10318C00002D00D0D3E2092C00D9D0E2841D3C40A4
:10319C0020000124A44651460F270024090C0503E6
:1031AC00394012196B410C0049460E0C3E4000256B
:1031BC00300000210019694164460025001969415D
:1031CC000A246442E51724184D41002D00D0ABE2CF
:1031DC00092C00D9A8E2841D3C4020000124A446FF
:1031EC0000240504A4185D4153460F27190D3940DE
:1031FC000A0049460E0D3E40002330000021801885
:10320C00594162460023801859410A225242D31771
:10321C0012184B41002B00D083E2092A00D980E21E
:10322C00831D3B401800012398465146002203059C
:10323C0012196B410C0E0F210D008C4625404C468B
:10324C006746260E374028003C0000250021001957
:10325C00694144460025001969410A246442E51776
:10326C0024184D41002D00D059E2092C00D956E20A
:10327C006546841D254028000126002405061219E8
:10328C006B410020310712184B411B0416001D0C1A
:10329C000F2333401800140000210A225242D31786
:1032AC0080185941002900D1C8E321060A0F0023D8
:1032BC000A204042C11712184B41002B01D100F0DB
:1032CC0020FC21050A0F00230A204042C1171218C6
:1032DC004B41002B01D100F004FC21040A0F002308
:1032EC000A204042C11712184B41002B00D1EAE3CF
:1032FC0021030A0F00230A204042C11712184B4128
:10330C00002B00D1D1E321020A0F00230A204042F6
:10331C00C11712184B41002B00D1B8E321010A0F41
:10332C0000230A204042C11712184B41002B00D138
:10333C009FE32901220F0A430A204042C1172B0F99
:10334C0012184B41002B00D185E35B461907200076
:10335C002943F9E4002481E400218C4662E4002135
:10336C00884640E4002188461EE400218846FFF789
:10337C00F7FB00218C46FFF7CDFB00218846FFF7B9
:10338C009DFB00218846FFF76DFB00218846FFF767
:10339C003DFB00218846FFF70DFB00218846FFF717
:1033AC00DDFA00239846FFF7B9FAA01D0F3108404B
:1033BC000400FFF722FA0026FFF709FA00239846CB
:1033CC00FFF7E1F900239846FFF7B6F9002188468C
:1033DC00FFF78BF900218846FFF760F90024A0461F
:1033EC00FFF735F900218846FFF708F90027FFF7AA
:1033FC00DCF800218946FFF7B3F800218946FFF776
:10340C007FF800218946FFF74BF800218946FFF72A
:10341C0015F800218946FEF7E1FF0024A146FEF7CE
:10342C00ADFFE44B09267642F7171B1B19000F243E
:10343C0021400A009C46002301200021B6185F4160
:10344C0080185941002F00D150E1002463461B061F
:10345C001E0F00272200002392197B410A26764278
:10346C00F717B6185F41002F00D056E1092E00D98E
:10347C0053E10F24951D25402A00002301261D0130
:10348C006346170F14011B053D4324184D413200B0
:10349C00180F0021002312184B410A204042C1177B
:1034AC0080185941002900D035E1092800D932E1B2
:1034BC00901D0F31084002000023012619026346BB
:1034CC00170E100239431B0424184D413200180FFB
:1034DC000021002312184B410A204042C1178018CA
:1034EC005941002900D014E1092800D911E1901D9F
:1034FC000F31084002000023012619036346170D03
:10350C00100339431B0324184D413200180F0021BE
:10351C00002312184B410A204042C1178018594110
:10352C00002900D0F3E0092800D9F0E0901D0F31FC
:10353C00084002000023012619046346170C1004EE
:10354C0039431B0224184D413200180F002100236F
:10355C0012184B410A204042C117801859410029CA
:10356C0000D0D1E0092800D9CEE0901D0F310840E1
:10357C000E3902000023884619056346160B1B0101
:10358C000027314310051E0F4246002392197B4140
:10359C000A267642F717B6185F4100196941002FC9
:1035AC0000D0AEE0092E00D9ABE00F24951D2540CC
:1035BC000E3C2A000023A0461D066346160A35431E
:1035CC0014061E0F00274246002300196941921968
:1035DC007B410A246442E517A4185D41002D00D0FC
:1035EC008DE0092C00D98AE00F24951D25402A0076
:1035FC000023012617091D0714073D4324184D41CC
:10360C00002233000F21A4185D4121400A00002341
:10361C000A204042C11712184B41002B00D100E286
:10362C0021060A0F00230A204042C11712184B41F1
:10363C00002B00D1E8E121050A0F00230A204042AB
:10364C00C11712184B41002B00D1CFE121040A0FF6
:10365C0000230A204042C11712184B41002B00D105
:10366C00B6E121030A0F00230A204042C1171218A9
:10367C004B41002B00D19DE121020A0F00230A20AF
:10368C004042C11712184B41002B00D184E121019B
:10369C000A0F00230A204042C11712184B41002B7D
:1036AC0000D16BE12901220F0A430A204042C117C5
:1036BC002B0F12184B41002B01D0FFF741FB052AB1
:1036CC0001D9FFF73DFBC0220023D205A4185D41B0
:1036DC00394822002B000AF0A5FAFFF731FB220033
:1036EC002B003648FDF750FBFFF7F7F8092E00D9F1
:1036FC00ABE607322240100000210E3CA6E6002665
:10370C0078E70024A04657E70021884634E70026D6
:10371C0012E70026F1E60026D0E60026AFE60026EA
:10372C00ABE50023984680E50024A44658E5002428
:10373C00A44630E500239C4608E500239C46E0E4C3
:10374C0000239C46B8E400218C4690E400218C4672
:10375C0068E4002635E4002603E40026FFF7CFFBDF
:10376C000026FFF79AFB00218C46FFF766FB00232F
:10377C009C46FFF735FB052801D9FFF753F80622C5
:10378C000023A4185D410C4822002B000AF04AFAD1
:10379C00FFF748F8052A01D9FFF779FA062200232A
:1037AC00A4185D41044822002B000AF03BFAFFF7F5
:1037BC006EFAC04699999900F0020220AC030220DF
:1037CC00052A01D9FFF75EF8C0220023D202A41803
:1037DC005D41D34822002B000AF024FAFFF752F87F
:1037EC00052A01D9FFF75AF8C0220023D203A418E6
:1037FC005D41CB4822002B000AF014FAFFF74EF87B
:10380C00052A01D9FFF756F8C0220023D204A418C8
:10381C005D41C34822002B000AF004FAFFF74AF876
:10382C00052A01D9FFF70AF860220023A4185D418C
:10383C00BB4822002B000AF0F5F9FEF7FFFF052A22
:10384C0001D9FFF707F8C0220023D200A4185D416C
:10385C00B34822002B000AF0E5F9FEF7FBFF052A1E
:10386C0001D9FFF734F8C0220023D205A4185D411A
:10387C00AB4822002B000AF0D5F9FFF728F8052AEF
:10388C0001D9FFF710FA60220023A4185D41A44867
:10389C0022002B000AF0C6F9FFF705FA052A01D918
:1038AC00FFF70DFAC0220023D200A4185D419C48FA
:1038BC0022002B000AF0B6F9FFF701FA052A01D90C
:1038CC00FFF709FAC0220023D201A4185D419448E5
:1038DC0022002B000AF0A6F9FFF7FDF9052A01D901
:1038EC00FFF705FAC0220023D202A4185D418C48D0
:1038FC0022002B000AF096F9FFF7F9F9052A01D9F5
:10390C00FFF701FAC0220023D203A4185D418448BA
:10391C0022002B000AF086F9FFF7F5F9052A01D9E8
:10392C00FFF7FDF9C0220023D204A4185D417C48A6
:10393C0022002B000AF076F9FFF7F1F9052A01D9DC
:10394C00FFF7FAF9C0220023D205A4185D41744890
:10395C0022002B000AF066F9FFF7EEF9052A01D9CF
:10396C00FEF784FFC0220023D201A4185D416C48ED
:10397C0022002B000AF056F9FEF778FF052A00D931
:10398C0090E6C0220023D204A4185D4164482200B2
:10399C002B000AF047F985E6052A00D977E6C02204
:1039AC000023D203A4185D415D4822002B000AF0CD
:1039BC0039F96CE6052A00D95EE6C0220023D20252
:1039CC00A4185D41564822002B000AF02BF953E64F
:1039DC00052A00D945E6C0220023D201A4185D4176
:1039EC004F4822002B000AF01DF93AE6052A00D9AF
:1039FC002CE6C0220023D200A4185D4148482200C6
:103A0C002B000AF00FF921E6052A00D913E66022F3
:103A1C000023A4185D41424822002B000AF002F951
:103A2C0009E6052A00D9FBE506220023A4185D410E
:103A3C003B4822002B000AF0F5F8F1E5052800D9E7
:103A4C0033E406220023A4185D41354822002B00E4
:103A5C000AF0E8F829E4052A00D976E4C02200230C
:103A6C00D205A4185D412E4822002B000AF0DAF88A
:103A7C006BE4052A00D95CE4C0220023D204A4180C
:103A8C005D41274822002B000AF0CCF851E4052AAE
:103A9C0000D943E4C0220023D203A4185D4120487E
:103AAC0022002B000AF0BEF838E4052A00D92AE4DB
:103ABC00C0220023D202A4185D41194822002B0019
:103ACC000AF0B0F81FE4052A00D911E4C022002343
:103ADC00D201A4185D41124822002B000AF0A2F872
:103AEC0006E4052A01D9FFF7F8FBC0220023D20017
:103AFC00A4185D410A4822002B000AF093F8FFF746
:103B0C00ECFB052A01D9FFF7DCFB60220023A4188B
:103B1C005D41034822002B000AF084F8FFF7D1FB2B
:103B2C00F0020220F0B5DE4657464E464546E0B55B
:103B3C00384889B009F020FF9C239A46364B374C05
:103B4C009846374BA2449946364B9B4609E05A4659
:103B5C003100009248463A000C340AF063F85445A0
:103B6C0016D02668676831003A004046A568FDF714
:103B7C00C1FF019503008542E9D12B4B3A0000931C
:103B8C0031002B0048460C340AF04CF85445E8D16F
:103B9C00264809F0F1FE264B9846264B9B4610E032
:103BAC00204B0290049303912B0022005846009660
:103BBC0001970AF037F818239C461F4BE0449845B0
:103BCC001ED043461C685D689E68DF681B69320026
:103BDC00994643465B6920009A4629003B00FEF754
:103BEC0053FB4B460693534607938145D8D18A45E0
:103BFC00D6D10D4B04934B46029353460393D3E714
:103C0C000A2009F067FE09B03CBC90469946A246D2
:103C1C00AB46F0BDE4030220E0C20220C03C02200F
:103C2C00F80302201C040220240402202C0402208D
:103C3C0050350220400402208836022010B5072996
:103C4C0018D8072A2DD91300083B012B11D8603244
:103C5C00D20082181468536822011B0F12091B072B
:103C6C001343194A2402C8311340240A8900234300
:103C7C000B5010BD0B00083B012BFAD81300083B6E
:103C8C00012B15D9072AF4D8C83292001358603189
:103C9C001A0FC9001B02401812071B0A036042606E
:103CAC00E7E7C83292001358C83189000B50E0E79F
:103CBC0060326031D200C900821840185368126813
:103CCC0002604360D5E7C046FFFFFFF070B5060009
:103CDC000C001500072905D8072A21D91748FDF72C
:103CEC0053F870BD0A00083A012AF7D82A00083A9E
:103CFC00012AF3D81A00083A012AEFD8603360354C
:103D0C00DB00ED00C31845191A685B682868696800
:103D1C00FEF7BAFA6034E400341920606160E0E721
:103D2C00072BDBD8C833C8359B00AD001A5829586F
:103D3C00FDF7E0FEC834A4003051D2E77004022035
:103D4C0070B505000C00072905D8072A26D91D488F
:103D5C00FDF71AF870BD08390129F8D81100083997
:103D6C000129F4D8190008390129F0D8B0216033A1
:103D7C00DB00C3181E685B6809061B0160321B0957
:103D8C000B43D1004118320008684968FEF77CFAF1
:103D9C006034E4002C1920606160DBE7072BD6D877
:103DAC00B021C8339B001B5809061B011B09C832E4
:103DBC000B43920011581A00FDF79CFEC834A40066
:103DCC002851C7E770040220F8B5CE4647460C02CE
:103DDC0080B5260A002C49D0170242D0002B00D007
:103DEC0070E00F25130F0E0F120E090E29409C4682
:103DFC00240A3F0A1540A9423ADD4B1B002B24DD57
:103E0C002211012B00D1EBE02212022B00D1E7E0B2
:103E1C002213032B00D1E3E02214042B00D1DFE0AA
:103E2C002415052B11D09C1F062B0ED0DC1F072B45
:103E3C000BD0013C082B08D0013C092B05D0013CD0
:103E4C0023005A4253415B421C40634631071A0718
:103E5C0021433A43FDF74EFE6B492D06084028439B
:103E6C0000E008000CBC90469946F8BD1000F9E73C
:103E7C006B1A002B24DD3A11012B00D1ADE03A1264
:103E8C00022B00D1A9E03A13032B00D1A5E03A1480
:103E9C00042B00D1A1E03F15052B11D09F1F062B41
:103EAC000ED0DF1F072B0BD0013F082B08D0013F92
:103EBC00092B05D0013F3B005A4253415B421F4046
:103ECC000D00C2E70B0F0D0198460C0033002D0FAF
:103EDC00062D2ED0F024240421421ED1042D1CDCEE
:103EEC003301691C234200D084E005297AD03302C7
:103EFC00A91C23427ED1052974D0F0213303090477
:103F0C00EC1C0B4278D1052C6CD0330404350B42DD
:103F1C0003D1042D66D133050135414609070C0048
:103F2C00090F88462D072D091B022C431B0A2D0E49
:103F3C001C4313019446160F1B0F3F0A062B37D058
:103F4C00002F35D0F021090489460A4225D1042BD3
:103F5C0023DC591C8C4649463A010A4247D161463A
:103F6C00052941D0991C8C4649463A020A423ED159
:103F7C006146052938D0D91C8C4649463A030A4279
:103F8C0035D1614605292FD049463A0404330A42FB
:103F9C0037D1042B32D13F050133360732001B07D2
:103FAC001B093F021A433F0A1743BC46360F1B0E30
:103FBC00424611076246013B013D1B072D071B09B9
:103FCC00360712022D0924023343120B240B29430A
:103FDC001A4321431702240203E717000D0034E7AC
:103FEC00140032E7052598E705231700D5E763464B
:103FFC001700D2E70D0090E725008EE71700052388
:10400C00CBE71700C9E7C046FFFFFFF0F8B5CE4677
:10401C004746050080B5160F0A2E57D010000B2E00
:10402C0005D11001A022000912061043013E0C021A
:10403C00220A9446002C43D0020245D0002B00D01B
:10404C0075E0230A0F24170A000E0A0F090E2140EF
:10405C0094460440A14240DD091B002924DD1A11BD
:10406C00012900D1FAE01A12022900D1F6E01A1344
:10407C00032900D1F2E01A14042900D1EEE01B153B
:10408C00052911D08B1F06290ED0CB1F07290BD069
:10409C00013B082908D0013B092905D0013B190037
:1040AC004A42514149420B406146320709073A43A3
:1040BC0028001943FDF71EFD724A024020061043EA
:1040CC000CBC90469946F8BD0800F9E7B0201201E7
:1040DC001209000610430136A9E7641A002C24DDEE
:1040EC003A11012C00D1B6E03A12022C00D1B2E008
:1040FC003A13032C00D1AEE03A14042C00D1AAE000
:10410C003F15052C11D0A71F062C0ED0E71F072C2E
:10411C000BD0013F082C08D0013F092C05D0013FE2
:10412C003C0062425441644227400C00BCE70B0F38
:10413C000F0199460C0063463F0F062F34D0F02434
:10414C002404214224D1042F22DC1B01791C23429C
:10415C0000D08DE0052900D182E063461B02B91C1A
:10416C00234200D084E005297AD06346F0211B035A
:10417C000904FC1C0B427DD1052C71D063461B0439
:10418C0004370B4204D1042F6AD1634601371B0557
:10419C00494609070C00090F89463F073F091B02D6
:1041AC003C431B0A3F0E1C430301B44680461B0FC5
:1041BC00120A062B38D0002A36D0F0210904884682
:1041CC00084225D1042B23DC591C8C464146100196
:1041DC0008424AD16146052944D0991C8C46414677
:1041EC001002084241D1614605293BD0D91C8C46AE
:1041FC0041461003084238D16146052932D0404669
:10420C0011040433014237D1042B37D11205013389
:10421C00360731001B071B0910021943000A320F25
:10422C000843944680461B0E4A4611076246013BE2
:10423C001B071B0912071A434346013F3F0718028D
:10424C003F092402000B240B394310432143160F62
:10425C0024020202F5E617000C0025E7130023E701
:10426C00052795E705230200D2E763460200CFE756
:10427C000F008DE727008BE70A00C9E70A0005232A
:10428C00C6E7C046FFFFFFF0F0B54546DE46574691
:10429C004E46E0B5080F85B00090100F01900F202E
:1042AC000D021302090E120E014010402D0A1B0ABA
:1042BC0002910390814200DC80E02F00EC171D007E
:1042CC000623A02199460906093300209B468A46FD
:1042DC000C430D4311E03B0F24011C4353462D01AD
:1042EC0024012D0A24091C431D4301235B429C46D7
:1042FC00E1444B463F01002B14D05B462B409846C3
:10430C005B462B42E7D0230000264446A8461D00FE
:10431C003A002B000136FDF7B7FFA642F8D12C006E
:10432C004546D8E7039C029BA446F0246344240230
:10433C001A0021420CD00FE0050F0B012B431B017F
:10434C00090F1B090907194300010132214203D14E
:10435C000B041B0C0343EFD10B07000918430B0193
:10436C001B0A1907000908431B0919070009084310
:10437C001B091907000908431B0919070009084301
:10438C001B091B07000918430E4B063A184012066E
:10439C00009B1043019A00019B1A5A425341B022D0
:1043AC00120694465B421B0763440009184305B090
:1043BC003CBC90469946A246AB46F0BD1F00DC17AC
:1043CC007EE7C046FFFFFFF0F0B54546DE46574698
:1043DC004E46E0B50B0F93B00F930B0180461D0FAB
:1043EC0008020D95000A062D33D0002831D0F02399
:1043FC001B04194227D1042D25DC01016C1C194228
:10440C0000D044E2052C00D148E20102AC1C194258
:10441C0000D03CE2052C00D140E20103EC1C194217
:10442C0000D034E2052C00D138E2F021043503042D
:10443C0009040D950B4200D03CE2042D00D035E26E
:10444C00052300050D930D9B00021B071B0F000A93
:10445C000D93130F109313011D0F13020E951B0ACE
:10446C00062D32D0002B00D145E1F0242404224249
:10447C0025D1042D23DC1A01691C224200D003E251
:10448C00052900D106E21A02A91C224200D0FBE148
:10449C00052900D1FEE11A03E91C224200D0F3E108
:1044AC00052900D1F6E104351A040E95224200D0FC
:1044BC0002E2042D00D0F5E105221B050E920E9AA6
:1044CC001B021207120F1B0A0E92A02424062200B4
:1044DC001A4393460443002B00D10CE1F022120442
:1044EC00134200D0CDE100215B461B010131134288
:1044FC00FBD0A0221B011B0912061A4393461191F3
:10450C0006230793874BA0269A465A4655463606ED
:10451C0023010492049A120111098946934200D294
:10452C00E7E0002900D1E4E02B021A0AB023494647
:10453C001B060B430593049B03921B021B0A02935D
:10454C000B0E9A460B02190A0691190B0891190CBD
:10455C000991190D0A91190E1B0F0C93A0231B0620
:10456C0013439B460B91019533023700180A002B1D
:10457C0000D18EE0039B002B09D0310F09070143BA
:10458C005A464046FDF7B6FA674E064037002302FE
:10459C00190A002B00D175E0029B002B3CD0230F95
:1045AC0024015246240F544500DC75E0A41A002C5B
:1045BC0024DD0A11012C00D18DE00A12022C00D14D
:1045CC0089E00A13032C00D185E00A14042C00D1D5
:1045DC0081E00915052C11D0A11F062C0ED0E11F6E
:1045EC00072C0BD00139082C08D00139092C05D027
:1045FC0001390C0062425441644221405446069AEF
:10460C00B0201B070006024319434046FDF772FA1F
:10461C00454B24061840044323011A099145A3D99C
:10462C00019DA021049A09061201120A1143A0222D
:10463C002D0212062D0B1543079A0491013A07928D
:10464C00002A00D066E70E9A0D9B9B1A119A05332F
:10465C009B1A062B51DC0F9A1806109B38439B1A99
:10466C005A425341B022120694465B421B0700018A
:10467C0063440009184313B03CBC90469946A246CB
:10468C00AB46F0BD33023700059C180A002B00D056
:10469C0070E7019E37007AE7101B00281DDD01280A
:1046AC001DD002281DD003281DD004281DD005289C
:1046BC001DD0821F0628A3D0C21F0728A0D0013A04
:1046CC0008289DD0013A09289AD0013A504250410D
:1046DC004042024094E7110090E7069A90E7089A4E
:1046EC008EE7099A8CE70A9A8AE70B9A88E70C9A64
:1046FC0086E7370095E70D48BDE70F20F024390E0B
:10470C000140013909073A0F1207090911433A020E
:10471C00120B24050A43072B0AD1034F062317401B
:10472C0099E7C046000010A0FFFFFFF0999999A0EF
:10473C00110E01400139150F090621402D071203F6
:10474C002943120C0A43082BE7D0110E0140013902
:10475C00150F090621402D0712042943120D0A4397
:10476C00092BDAD0110E01400139150F0906214031
:10477C002D0712052943120E0A430A2BCDD0110E18
:10478C0001400139150F090621402D071206294356
:10479C00120F0A430B2BC0D0110E01400139090630
:1047AC00120F214012070A430C2BB6D0110E0140F8
:1047BC000139150F090621402D0712022943120B4E
:1047CC000A430D2BA9D0110E0140013909060C40EA
:1047DC00110F090712030C43120C22430E2B9CD011
:1047EC00110E01400400F0200139150F09070909C9
:1047FC002D0712042943120D00050A43A3428CD045
:10480C00110E21400139150F090601402D07120523
:10481C002943120E0A43102B00D17EE7110E2140C2
:10482C000139150F090601402D0712062943120FF5
:10483C000A43112B00D170E7110E214001390906F2
:10484C00120F014012070A43122B00D165E7110E1B
:10485C0021400139150F090601402D071202294389
:10486C00120B0A43142B00D057E7130E2340013BC5
:10487C00110F1B060340090712030B43120C1A43BA
:10488C004BE7002311933BE613000E9117E608004B
:10489C000D94D8E505230E93130010E605230800AC
:1048AC000D93D0E5130005220E9208E6180005239F
:1048BC000D93C8E51800C6E5130000E6F8B5E12332
:1048CC009B00C5580400002D00D091E01C3BC35840
:1048DC001B0F062B00D88CE0073B022B00D9D6E02F
:1048EC00DC239B00C358002B00D0EFE00F21DB230F
:1048FC0008009B00E258002710400600093E431CAC
:10490C00092E00D8DAE00F2011090140C9190F0057
:10491C000A3F0026092F00D8CCE00F20170A0740C9
:10492C00BF193E0009010A3ECB180021092E00D800
:10493C00BCE00F20160B064076183F02FF18330020
:10494C000A3B0021092B00D8ACE03303DB190F27FD
:10495C00100C3840401801000A390026092900D8EB
:10496C0091E00004C3180F20110D014089190F00AC
:10497C000A3F0026092F00D890E00F200905C9181E
:10498C00130E03409B191E000A3E092E00D882E02C
:10499C000F221B065B181D0213400A3B2D0A052B28
:1049AC0000D8C1E02B061B0F0A3B052B00D8B5E045
:1049BC002B051B0F0A3B052B00D8A6E02B041B0F65
:1049CC000A3B052B00D897E02B031B0F0A3B052B4A
:1049DC0000D888E02B021B0F0A3B052B00D879E08E
:1049EC00FF231D40DB2300229B00E5500433E250E3
:1049FC00F8BDDC239B00C258002A64D0043BC2588B
:104A0C000F231F0017403E00093E0021781C092E81
:104A1C0003D807373B40180001310F2716093E40D9
:104A2C00761831000A390023092902D806363E408F
:104A3C00013331010F260918100A3040C018030049
:104A4C000A3B0027092B02D8063030400137000200
:104A5C0041180F20160B0640F619330000270A3BAD
:104A6C00BC46092B03D801239C46063606400F276B
:104A7C00100C3840330360445B1801000A390026DF
:104A8C00092900D96DE706303840013669E7294815
:104A9C00FCF77AF9ACE70633034079E706310140BD
:104AAC0001366AE70636064001314EE70637074005
:104ABC0001313EE70631014001362EE70B0007308D
:104ACC00034001371FE70122C25091E71A48FCF757
:104ADC0069F90BE7C023DB039C46654429001748A2
:104AEC0009F0A0F87CE7C023DB029C466544290052
:104AFC00124809F097F86DE7C023DB019C4665442A
:104B0C0029000E4809F08EF85EE7C023DB009C46B6
:104B1C0065442900094809F085F84FE760352900FC
:104B2C00064809F07FF843E706352900034809F0E9
:104B3C0079F837E7D0040220AC040220E00202200E
:104B4C00DB23F0B5544C9B00C646E2580433E358C3
:104B5C002126591E8B4100B5504F5B4250493340C2
:104B6C0096B020333800884608F038F84D4D4E4941
:104B7C003A00280008F032F8DD239B00E258043399
:104B8C00E3583800591E8B415B4233402033414679
:104B9C0008F024F83A00454902A808F01FF802A9C9
:104BAC00280015F03DFFD423414E9B00E2584149AB
:104BBC000023300008F012F832003F4902A808F038
:104BCC000DF802A9280015F02BFFDA239B00E25800
:104BDC003A4902A808F002F802A9280015F020FFB3
:104BEC00F721F523E022890061589B009200E358DD
:104BFC00A25802A80091324907F0F0FF280002A940
:104C0C0015F00EFFD7239B00E258531C3ED0FF2318
:104C1C002C4E1A4030002C4907F0E0FF32002B4993
:104C2C0002A807F0DBFF280002A915F0F9FED82333
:104C3C009B00E258531C2DD0FF23224E1A4030000B
:104C4C00214907F0CBFF3200214902A807F0C6FF2B
:104C5C00280002A915F0E4FED9239B00E258531C4E
:104C6C0016D0FF23174C1A402000174907F0B6FF47
:104C7C002200184902A807F0B1FF280002A915F07C
:104C8C00CFFE280016B004BC9046F0BD124AC6E711
:104C9C00114AEEE7104AD7E7E0C2022020C00220FA
:104CAC0050FC0120E8C00220240502203805022017
:104CBC00A0BF02204C0502205405022068050220EA
:104CCC0080050220F0BF0220A8050220B0050220BA
:104CDC00C4050220D805022020050220F0B5D646D6
:104CEC004F4646465F48C0B508F09CFF5E4808F04A
:104CFC0099FFFFF725FF01005C4808F093FF5C4B20
:104D0C00002499465B4B5C4D98465C4E5C4F0DE025
:104D1C0022324146380007F061FF3A002100300092
:104D2C00013408F07FFF0435082C1AD02B685A1C6C
:104D3C0000D18CE01A0F1B011B090A2A00D184E058
:104D4C000B2AE5D04E4904358A464E49504607F0A9
:104D5C0045FF210052463000013408F063FF082C57
:104D6C00E4D1D023484C9B00E3180CCB511C00D150
:104D7C006FE0464D4649280007F030FF2A00082115
:104D8C00300008F04FFFD2239B00E3180CCB511CD2
:104D9C0064D03E4D3E49280007F020FF2A0009212F
:104DAC00300008F03FFF0A2008F094FD394808F065
:104DBC0039FF394808F036FF8023DB00E15C3748C7
:104DCC0008F030FFEA239B00E158354808F02AFF31
:104DDC00EB239B00E158334808F024FFEC239B00A5
:104DEC00E158314808F01EFFEE239B00E258043BCB
:104DFC00E1582E4808F016FFE1239B00E1582C489F
:104E0C0008F010FFF8239B00E1582A4808F00AFF2D
:104E1C000A2008F05FFD284808F004FF274808F036
:104E2C0001FF274B2748196808F0FCFE264B274842
:104E3C00196808F0F7FE264B2648196808F0F2FEB0
:104E4C001CBC90469946A246F0BD2B2261E74A460F
:104E5C0064E7591C00D08CE7054A90E7591C98D19F
:104E6C00034A9CE7F80502200006022008060220EF
:104E7C00EC0502201806022000C6022020060220A3
:104E8C0090BF02200C060220E0C20220A0BF02202C
:104E9C004C050220300602203C0602204806022067
:104EAC006006022074060220880602209C0602205E
:104EBC00C0060220D4060220E8060220F0060220DA
:104ECC0070C00220F806022060C0022014070220E5
:104EDC0078C002203007022030B5B3B0050003F0D3
:104EEC003FFF184804F06CF9041E1FD02900164827
:104EFC0007F074FE2800154914F0DCFA041E18D0D3
:104F0C00134D03E06946280008F08CFE2200C721EF
:104F1C00684614F061FB0028F4D1200014F03EFB2D
:104F2C00012403F03BFF200033B030BD03F036FF0B
:104F3C00F9E72900074808F075FE002403F02EFF5E
:104F4C00F1E7C04678FB01204C07022050190220E3
:104F5C0028FE01205C070220F0B5B3B0050003F079
:104F6C00FFFE214804F02CF9041E32D029001F4802
:104F7C0007F034FE28001E4914F09CFA061E2BD0B4
:104F8C001C4F3200C721684614F026FB002817D0AE
:104F9C006B461B782A2BF4D1174C250050356A46EA
:104FAC0021003800636898470028EAD10834AC42E5
:104FBC00F5D13200C721684614F00EFB0028E7D16A
:104FCC00300014F0EBFA012403F0E8FE200033B0BB
:104FDC00F0BD03F0E3FEF9E72900084808F022FED3
:104FEC00002403F0DBFEF1E778FB01204C070220E4
:104FFC0050190220E0C20220983902205C070220DE
:10500C0010B5010004000748FFF7A6FFFE2300209F
:10501C0000219B00E31818605960FC2301229B00BF
:10502C00E25010BDF0CC022010B502490248FFF747
:10503C0093FF10BDE0C2022070070220F0B5C646F7
:10504C0000B55B4C0500A54401A815F055FD01A960
:10505C00584808F0E7FD03F083FE574804F0B0F819
:10506C00041E00D195E00A2201A906A810F05AFBF3
:10507C00002874D1514906A812F0FCFFDB239B00D9
:10508C00EA584F4906A812F0F5FFDC239B00EA58BA
:10509C004C4906A812F0EEFFD4239B00EA584A496B
:1050AC0006A812F0E7FFD7239B00EA58474906A849
:1050BC0012F0E0FFD8239B00EA58454906A812F0ED
:1050CC00D9FFD9239B00EA58424906A812F0D2FF17
:1050DC00DA239B00EA58404906A812F0CBFFDF23E5
:1050EC009B00EA583D4906A812F0C4FFC8230024CF
:1050FC009B003B4FEE182200390008CE06A8013465
:10510C0012F0B8FF082CF6D1C823364C9B002100B6
:10511C000822EB5806A812F0ADFFC9239B00210012
:10512C00EB58092206A812F0A5FF2F4906A812F089
:10513C00A1FF2E4B0024072698462D4F08E0A30014
:10514C003900EA5806A8013412F094FFC82C13D089
:10515C002642F4D1414606A812F08CFFEFE7254811
:10516C0008F060FD002403F019FE20009E239B0034
:10517C009D4404BC9046F0BD1F4906A812F07AFF6E
:10518C0006A811F037FF041E06D103F007FE012418
:10519C00EBE703F003FEE8E714F080F922000100CE
:1051AC00164808F03FFD002403F0F8FDDDE7C0468B
:1051BC0088FDFFFF7C07022078FB0120940702206A
:1051CC00C0070220D4070220E8070220FC070220B7
:1051DC001808022034080220500802206C08022013
:1051EC008408022090080220A0080220AC080220AB
:1051FC00B0080220880702200CFD0120B80802200C
:10520C0030B504000C4D85B02A000C4B0C490D48F0
:10521C0004F04AF80C4B29001A686846013207F072
:10522C00DDFC69462000FFF709FF6946074808F0D6
:10523C00F9FC05B030BDC046DC080220D0080220C5
:10524C00EC08022078FB01206CBF0220F808022039
:10525C0010B5094803F0ACFD002808D0074C0848ED
:10526C002100FFF7EBFE2000FFF736FE10BD0549CD
:10527C00054808F0D7FCF1E778FB01207007022005
:10528C00E0C2022028CC022010090220002370B5B5
:10529C00204D0C002B7082B00B00072916D9083B4F
:1052AC00012B02D9280002B070BD1B4ED0339B00DD
:1052BC001A581A490023300007F090FC23001021E3
:1052CC002800174A009607F09DFCEBE7C8339B00BB
:1052DC001B585A1C1CD01A0F1B011B090A2A15D06B
:1052EC000B2A0CD122320F4E0F49300007F076FCFE
:1052FC003300220028000A4907F070FCD2E7094E5F
:10530C000A49300007F06AFC3300F2E72B22EAE787
:10531C00074BEEE7B0BF0220A0BF02204C050220D5
:10532C001C09022090BF0220180602200C06022045
:10533C00EC0502200022F8B51E4C03002280020F5F
:10534C000A2A32D00B2A08D0092A30D81A4D02006A
:10535C001A49280007F042FC25E02D27164D3A008B
:10536C00174928001E0107F039FC3A0015492000A6
:10537C0007F034FC0622360F921BE91C200015F0B6
:10538C00F7FB200015F0C0FB02220F49201808F093
:10539C0097F9A91B09313200200015F0E9FB210017
:1053AC00280015F0A9FB2800F8BD2B27D6E72027ED
:1053BC00D4E7C04610C0022000C002207C080220A6
:1053CC002409022054FC012080000220F8B500249E
:1053DC000E4E0F4F0CE020CE2800FFF7ABFF210044
:1053EC0003002A003800013408F01CFCC82C09D03A
:1053FC000521200007F0A6FC0029ECD10A2008F0BA
:10540C0069FAE8E70A2008F065FAF8BDE0C2022064
:10541C002C090220D423CD2170B59B00C358040065
:10542C001A0290B0120A49008A4253D2A0221B01E0
:10543C001B0912061343D626D422B600A35100230F
:10544C009200A3500432A350DB239B00E258043398
:10545C00E358224D591E8B41594221230B402033D6
:10546C001F49280007F0BAFB0122012120001D4B27
:10547C000095FBF74FFBA259531C2DD0FF231A4D5F
:10548C001A402800194907F0A9FBA2591201184922
:10549C00120903A807F0A2FB02AA164903A815F0EB
:1054AC001FFAC723029A934202DDD343DB17134042
:1054BC009B001859FFF73EFF0622019001212000A6
:1054CC000D4B0095FBF7A2FBFC2301229B00E25045
:1054DC0010B070BD094BAEE7094DD7E720C00220D4
:1054EC0050FC012058FC0120F0BF0220A80502202E
:1054FC0090FA0120D015022048090220990100A041
:10550C0020050220F0B5C646D42300B59B00C55833
:10551C000833C258354F90B01201390012090400FB
:10552C0003A807F05BFB324E02AA310003A815F06A
:10553C00D7F9C723029A934202DDD343DB171340FA
:10554C009B00D4221D5100239200A3500432A3507F
:10555C00DB239B00E2580433E358264D591E8B4144
:10556C00594221230B4028002349203307F036FBF6
:10557C000095D625012201212000204BAD00FBF720
:10558C00C9FA6259531C2FD0FF231A401C4B1D49DA
:10559C009846180007F022FB625945461201390063
:1055AC00120903A807F01AFB02AA310003A815F090
:1055BC0097F9C723029A934202DDD343DB171340BA
:1055CC009B001859FFF7B6FE06220190012120001E
:1055DC000D4B0095FBF71AFBFC2301229B00E250BC
:1055EC0010B004BC9046F0BD084DD7E790FA0120EE
:1055FC00D015022020C0022050FC012058FC0120B4
:10560C00F0BF0220A8050220480902202005022034
:10561C0070B5D625AD00244A415990B00400FCF772
:10562C0069FACD230002000A5B0098422ED399221E
:10563C001E4BD6261E4DB600A3511E49280007F05E
:10564C00CDFAA2591C491201120903A807F0C6FA97
:10565C0002AA1A4903A815F043F9C723029A9342E8
:10566C0002DDD343DB1713409B001859FFF762FE92
:10567C000622019001212000114B0095FBF7C6FA80
:10568C00FC2301229B00E25010B070BD064A2000A2
:10569C006159FCF72FFAA023020112091B061343D0
:1056AC00FF220240C5E7C046010000A0990100A0FE
:1056BC00F0BF0220A805022090FA0120D01502208C
:1056CC004809022070B5D625AD00244A415990B046
:1056DC000400FCF70FFACD230002000A5B0098428D
:1056EC002ED399221E4BD6261E4DB600A3511E4911
:1056FC00280007F073FAA2591C491201120903A8D9
:10570C0007F06CFA02AA1A4903A815F0E9F8C723A6
:10571C00029A934202DDD343DB1713409B001859C6
:10572C00FFF708FE0622019001212000114B009585
:10573C00FBF76CFAFC2301229B00E25010B070BD09
:10574C00064A20006159FCF7D5F9A0230201120981
:10575C001B061343FF220240C5E7C046010000B000
:10576C00990100A0F0BF0220A805022090FA0120A8
:10577C00D015022048090220D423F0B54746CE4666
:10578C009B00C65880B5370F3B000A3B050083B021
:10579C000B39012B2DD9D5239B00C358002B28D1B5
:1057AC0036018919D424DB23A40029519B00EA5823
:1057BC000433EB582A4E591E8B41594221230B407E
:1057CC0020332849300007F009FA2859FFF7B2FDB9
:1057DC000122019001212800234B0096FBF79AF936
:1057EC00FC2301229B00EA5003B00CBC9046994666
:1057FC00F0BD33021A0A90463201120F91461B0972
:10580C00CC182100194808F00DFA4B46002B10D08B
:10581C00591C062B1CD1C022D20433011B09390799
:10582C001943134B194043461143090E09061943FA
:10583C00B8E7D5239B00EB582402002B04D0802220
:10584C00230A98465204E8E7230A98460022E4E724
:10585C00F022240209061205230A98460A40DCE7C6
:10586C0020C0022050FC01206009022050090220B7
:10587C00FFFFFFF0F0B5D523D4250126A022AD0003
:10588C009B00C650435912061B021B0A134343517B
:10589C00DB239B00C2580433C3580400591E8B41B0
:1058AC00594221230D4F0B4087B00D49203338004E
:1058BC0007F094F96059FFF73DFD3A0003000949E0
:1058CC0001A807F08BF901AB012201212000FBF7A5
:1058DC0021F9FC239B00E65007B0F0BD20C002204C
:1058EC0050FC01206009022070B5D425B022AD0017
:1058FC00435912061B011B0913434351DB239B0025
:10590C00C2580433C3580400591E8B4159422123F9
:10591C000E4E0B4086B00E492033300007F05EF976
:10592C006059FFF707FD320003000A4901A807F090
:10593C0055F901AB012201212000FBF7EBF8FC2308
:10594C0001229B00E25006B070BDC04620C0022070
:10595C0050FC01206009022008B4F0B54746CE4641
:10596C0080B5E6B06DAB20CB06000F0014000193A0
:10597C00062A07DD1100274808F054F9264807F0DD
:10598C00FBFFFEE7C8212A00490002A807F04EF9E8
:10599C0002A815F0B9F8102830D8013CE3001B1907
:1059AC005B001C191D4B2A00E4181021019B2000E0
:1059BC0007F03CF9200015F0A7F80F252D1A002D43
:1059CC0011DD00239846164B994602E0200015F095
:1059DC009BF802224946201807F072FE01239C46D0
:1059EC00E0444545F2D1FC239B00F75066B00CBC5B
:1059FC0090469946F0BC08BC01B0184729000948EC
:105A0C0008F010F902A9084808F00CF9024807F050
:105A1C00B3FFC2E76C09022044FC012088CB0220B2
:105A2C00FC09022024FC012030FC0120F0B5CE46FC
:105A3C004746002380B589B005AD04002B720029C0
:105A4C006CD0E2239B00C358073B022B6BD8DA23A4
:105A5C009B00C258130F30332B700F23110E1940BB
:105A6C0030316970110D19403031A970110C194089
:105A7C003031E970110B194030312971110A19407C
:105A8C003031697111091940134030313033A9712B
:105A9C00EB71F7239B00E35833265A1E93415B426C
:105AAC001E40E1239B00E3582036002B56D1DB230C
:105ABC009B00E2580433E3582127591E8B41394986
:105ACC005B42894638493B4088462033494640462C
