:020000041000EA
:1000000000B5324B212058609868022188439860DF
:10001000D860186158612E4B002199600221596106
:100020000121F02299502B49196001219960352056
:1000300000F044F80222904214D00621196600F024
:1000400034F8196E01211966002018661A6600F04E
:100050002CF8196E196E196E052000F02FF8012189
:100060000842F9D1002199601B49196000215960AB
:100070001A491B48016001219960EB211966A021F2
:10008000196600F012F800219960164914480160C1
:100090000121996001BC002800D000471248134993
:1000A000086003C880F30888084703B5996A0420EC
:1000B0000142FBD001200142F8D103BD02B5186610
:1000C0001866FFF7F2FF186E186E02BD00000240BE
:1000D000000000180000070000035F00212200005C
:1000E000F4000018222000A00001001008ED00E03C
:1000F00000000000000000000000000074B24E7A12
:1001000000200420F7010010C3010010C5010010F9
:10011000C1010010C1010010C1010010C101001097
:10012000C1010010C1010010C1010010C701001081
:10013000C1010010C1010010C9010010CB01001065
:10014000CD010010CD010010CD010010CD01001037
:10015000CD010010CD010010CD010010CD01001027
:10016000CD010010CD010010CD010010CD01001017
:10017000CD010010CD010010CD010010CD01001007
:10018000CD010010CD010010CD010010CD010010F7
:10019000CD010010CD010010CD010010CD010010E7
:1001A000CD010010CD010010CD010010CD010010D7
:1001B000CD010010CD010010CD010010CD010010C7
:1001C00000BE00BE00BE00BE00BE00BEEFF3058054
:1001D000103800BEF2EB887190020010B4020010DB
:1001E0003802001090A31AE721482249086006C887
:1001F00081F30888104720480068002801D01C4877
:10020000F3E70DA40ECC002902D000F012F8F9E7B4
:100210001A491B4A002000E001C19142FCD1194952
:100220008847194988471949884700BEFDE701C931
:1002300001C29A42FBD37047B4020010C0000020F4
:1002400098E901208CEB0110A0E9012028B50220DB
:1002500014B70210000004200000042014B702109C
:10026000001004200010042000000000704700006F
:100270000000000008ED00E0000000D028B50220DA
:10028000A8D8022095D800208D83002055D80020C2
:10029000F01D0220FC1D0220081E0220141E022058
:1002A000201E02202C1E0220381E0220441E022086
:0402B00030210220D7
:1002B400F8B5C0460448054B10B5834203D0044B3F
:1002C400002B00D0984710BD28B5022028B5022085
:1002D4000000000006480749091A8B10C90FC91805
:1002E40010B5491003D0044B002B00D0984710BD23
:1002F40028B5022028B502200000000010B5074CE4
:100304002378002B09D1FFF7D5FF054B002B02D032
:10031400044800E000BF0123237010BD10C1022077
:100324000000000098E90120054B10B5002B03D014
:100334000449054800E000BFFFF7CCFF10BDC046EC
:100344000000000014C1022098E901207047C04653
:10035400F52301229B00C2507047C046F7230122B7
:100364009B00C2507047C0460023054AFF218350BA
:1003740001228900425008394250024A8350704792
:100384000C04000004040000044A83580133835021
:10039400FD2301229B00C2507047C0460C0400009C
:1003A400054A8358002B01DD013B8350FD230122C4
:1003B4009B00C2507047C0460C040000FF2200237B
:1003C400012192008350083A8150014A83507047BA
:1003D4000404000080230122DB00FF21C25000231B
:1003E4008900435008394250014A83507047C0463F
:1003F400040400000023054A8350103A835001335B
:10040400083A8350024A83507047C0460C040000E7
:1004140004040000064A074B825812019B1800226C
:100424005B681A60FD2301329B00C2507047C046CE
:100434000C040000E4920220054A064B8258120183
:100444009B185A6801231360FD2292008350704761
:100454000C040000E4920220FD2301229B00C25000
:100464007047C04680220023D2008350043A835050
:10047400034A8350FD2301229B00C2507047C046AB
:1004840004040000FD220121014B920099507047A1
:10049400F0B70220084B0948094918605960094817
:1004A40009499860D960094809491861596109489E
:1004B40007499861D9617047F0B70220630352037A
:1004C4005600561050055305520551055405530561
:1004D40051075106002400240A4AC8201168B82292
:1004E4004A43094B30B59B185969084C0023400016
:1004F40003E0E2500433834202D0CA58551CF8D1B9
:1005040030BDC046A0D30220D4930220F0B702200D
:10051400B8220A4B19680A4B4A431960094B012156
:100524009B18002219611A76074B1960074B196052
:10053400074B1A60074B1A707047C046A0D30220BD
:1005440008D80220D493022010D8022014D8022004
:1005540060D7022064D70220FEE7C046D0220B4BAE
:100564000B480C49920010B59C1820606160002172
:100574000948203A9A1803C2084A09481A600DF03B
:100584001BFD0CCC07480DF017FD10BDF0B7022081
:100594003254760830547608563412001814101465
:1005A400F0F9012000FA012010B50E480DF082FC8C
:1005B4000D4B0E481A680E4B19680DF0FDFC0D4BDF
:1005C4000D4819680DF0F8FC0C4B0D481A680D4BDA
:1005D40019680DF0F1FC0C4B0C4819680DF0ECFC9B
:1005E40010BDC04618FA012070D3022028FA012059
:1005F40078D3022074D302204CFA012080D3022045
:1006040064FA012068D302207CD3022078FA012006
:1006140010B5054C054821680DF0CEFC206825383E
:1006240008F026FA10BDC04684D3022084FA0120C3
:1006340010B50A2008F01CFA10BDC04610B50920F8
:1006440008F016FA10BDC04610B5152008F010FACF
:1006540010BDC04610B5162008F00AFA10BDC046F9
:1006640010B5172008F004FA10BDC04610B50720D5
:1006740008F0FEF910BDC04610B51A2008F0F8F9CC
:1006840010BDC04610B5022008F0F2F910BDC046F6
:1006940010B5062008F0ECF910BDC04610B50520D1
:1006A40008F0E6F910BDC04610B5032008F0E0F9E3
:1006B40010BDC04610B5042008F0DAF910BDC046DC
:1006C400FD22002110B5034B92001820995008F028
:1006D400CFF910BDF0B70220FD22002110B5034B65
:1006E40092001920995008F0C3F910BDF0B7022008
:1006F400F0B50022C646114B114C00B525001A6016
:100704000023012798460F4E183504E043462B700A
:1007140027610135B834310020681AF031F8002817
:10072400F4D10122084B1860084B1A60084B18607A
:10073400084B187080BCB846F0BDC04608D80220EB
:10074400D493022088FA012010D8022014D8022061
:1007540060D7022064D7022030B583B005000A496F
:10076400100001AA19F010FE0400012803D000248F
:10077400200003B030BDDB2301999B00E9500348FE
:100784000DF01AFCF4E7C04690FA0120A0FA01200B
:1007940030B583B005000A49100001AA19F0F4FD30
:1007A4000400012803D00024200003B030BDDC2362
:1007B40001999B00E95003480DF0FEFBF4E7C046A5
:1007C400B8FA0120C8FA0120002330B583B005002F
:1007D4000A49100001AA019319F0D6FD040001286A
:1007E40003D00024200003B030BDD42301999B0022
:1007F400E95003480DF0E0FBF4E7C046E0FA0120BD
:10080400F0FA012010B582B001AB040011491000C8
:100814006A4619F0B9FD0023022802D0180002B07C
:1008240010BD0099019A01290BD002290DD000298D
:1008340002D1D7239B00E25007480DF0BDFB0123F2
:10084400ECE7D8239B00E250F6E7D9239B00E25063
:10085400F2E7C0460CFB012024FB012030B583B035
:1008640005000A49100001AA19F08EFD04000128B0
:1008740003D00024200003B030BDDA2301999B008B
:10088400E95003480DF098FBF4E7C04644FB01200F
:1008940060FB012030B583B005000A49100001AAAD
:1008A40019F072FD0400012803D00024200003B0D5
:1008B40030BDDF2301999B00E95003480DF07CFB18
:1008C400F4E7C04680FB012094FB012030B5284C9E
:1008D4000500236810008FB0002B02D100200FB058
:1008E40030BD0DAB05930CAB04930BAB03930AAB78
:1008F400029309AB019308AB00931E4907AB06AA08
:1009040019F042FD082804D000231B4A2360136019
:10091400E4E7194C22689300EB18590717D106989D
:10092400079918605960089809999860D9600A98DD
:100934000B99186159610C980D999861D96113004C
:1009440007320833920023600120A950C7E70699B3
:10095400196007995960089999600999D9600A99A9
:1009640019610B9959610C9999610D99D961E6E75F
:10097400B4D30220ACFB0120B8D3022010B582B05E
:100984001000094901AA19F0FFFC0400012803D052
:100994000024200002B010BD0199044B04481960E2
:1009A4000DF00AFBF5E7C046C8FB012044D702203E
:1009B400E0FB012010B509490400094808F04CFD8A
:1009C40080220023D200FF21A3500122890062501B
:1009D40008396250034AA35010BDC04600BC02202F
:1009E40000FC012004040000F0B5D6464F464646FC
:1009F400C0B5174882B00DF05DFA164B0025994634
:100A0400154B164C9846164B164F9A4626683900D5
:100A1400300019F0B5FE00280CD022694346002AA4
:100A240000D0534622001832009229003200484672
:100A34000DF0C2FA0135B8341E2DE7D10A200DF0AD
:100A4400EFF902B0E0BCBA46B146A846F0BDC046D4
:100A540018FC012028FC012010FC0120D493022062
:100A640008FC012088FA012070B50A200DF0D8F99D
:100A7400094C0A4E2500F935FF35626813782A2B94
:100A840003D0300021780DF097FA0C34AC42F4D145
:100A940003480DF091FA70BD7033022040FC012030
:100AA4004CFC0120F0B5DE4657464E464546E0B5BF
:100AB400DDB0802200211CA80BF05AFB802200210B
:100AC4003CA80BF055FB2D480DF0F4F92C4B019389
:100AD4002C4B9A462C4B9B46FA2080000DF054F97F
:100AE400023044D1019B03AF1B6800261B011B0984
:100AF400984600233B70013399463CAD1CAC18E08A
:100B04002368002B07DD013B2360002B03D12A68F7
:100B1400002A00D02B60380019F07EFE02225146D4
:100B240038180BF02BFB04355CAB01360434AB42B4
:100B3400D2D04B464246B3401A42E1D0380019F0B5
:100B44006BFE0222594638180BF018FB2368132B4E
:100B5400E9DC05332360072BE5DD2B68002BE2D1AC
:100B64004B4631002B6009480DF026FADBE75DB0F7
:100B7400F0BCBB46B246A946A046F0BD68FC0120C5
:100B840080D80220FCFC0120B413022078FC012050
:100B940070B527480DF010FA264D274C3DE0D023C0
:100BA400012202211B069A61996102319961800038
:100BB4000431996141598A405A61D0231B0659680E
:100BC4005B68C906C90F9B0601D502231943D023CC
:100BD4001B065B685B0601D504231943D0231B065F
:100BE4005B681B0601D508231943D0231B065B68E9
:100BF400DB0501D510231943D0231B065B689B0535
:100C040001D520231943D0231B065B685B0501D55E
:100C14004023194320000DF0CFF9FA2080000DF095
:100C2400B3F8831CC9D030380328B8D970BDC04686
:100C340080FC0120D41B022084FA01200021002022
:100C440010B50AF09DF9C046100010B507220849F6
:100C540019F0D2FC0023002801D0180010BD012295
:100C6400044B05481A600DF0A7F90123F5E7C046C7
:100C74008CFC0120B4D3022094FC01207047C046B0
:100C840008B4F0B5C646C82100B5E7B06DAB20CBBB
:100C94008046140049002A0002A801930CF038FE93
:100CA40002A819F0B9FD10282DD8621ED400A4188A
:100CB4001B4B6400A418E4182A001021019B200097
:100CC4000CF026FE200019F0A7FD0F26361A002E80
:100CD4000DDD0025134F02E0200019F09DFD0222D6
:100CE4003900201801350BF049FAAE42F4D1FD2346
:100CF400012241469B00CA5067B080BCB846F0BC94
:100D040008BC01B01847290007480DF055F902A99D
:100D140006480DF051F906480DF0CCF8C5E7C04679
:100D2400F8CA0220FCFC0120A8FC0120B4FC01202C
:100D3400C8FC0120D421DB2330B5890042589B0034
:100D440083B00400C250DC2000230C4D80002350EB
:100D54006350043163502800094920330CF0B0FD7E
:100D6400012201212000074B0095FFF789FFFD2395
:100D740001229B00E25003B030BDC0463CD40220A7
:100D8400D4FC0120DCFC01208123202130B5DB00D0
:100D9400D42283B0C1540023920083500432835080
:100DA400303283505C328350A023843A1B06835034
:100DB4000432835004328350DB239B00C258043333
:100DC400C3580400584243411F4D5B428B432800E3
:100DD4001E4941330CF074FD2000009501220121CD
:100DE4001B4BFFF74DFF1B4D20002B00022201215E
:100DF400FFF746FF2B00200003220121FFF740FFED
:100E04002B00200004220121FFF73AFF2B002000D1
:100E140005220121FFF734FF2B00200006220121C7
:100E2400FFF72EFFEA2301204042C1179B00E3187D
:100E340003C30122EC2352429B00E25044330232AA
:100E4400E25003B030BDC0463CD40220D4FC0120A3
:100E5400ECFC012000FD01208123202270B5DB0081
:100E640082B0C254D422002301269200835004325B
:100E7400835030328650D721A02289001206425076
:100E84000431425004314250EA2292000400821894
:100E940001204042C11703C2EC22012192004942C1
:100EA400A150383AA350083AA350DB23194D9B00B4
:100EB400E2582800202318490CF002FD2000009578
:100EC40001220121154BFFF7DBFE20000222012144
:100ED400134BFFF7D5FE134D20002B0003220121F5
:100EE400FFF7CEFE2B00200004220121FFF7C8FEED
:100EF4002B00200005220121FFF7C2FE2B00062251
:100F040001212000FFF7BCFEFD239B00E65002B048
:100F140070BDC0463CD40220D4FC0120ECFC01206E
:100F240010FD012000FD0120054A8358002B01DD3E
:100F3400013B8350FD2301229B00C2507047C046F1
:100F44000C040000F0B5C64600B5254886B00DF087
:100F540033F80023234C244F2360244B9846FA2073
:100F640080000CF011FF831C37D03928F7DC2F28C0
:100F740009DC1B28F3D81E4B0341DB07EFD406B072
:100F840080BCB846F0BD2268303893009B185B00E3
:100F94001B183900404623600DF00EF81548164B17
:100FA40006681B68704270415A4253412025134A17
:100FB4004042216812685B42A8434130AB4341334D
:100FC4000290019200920E480A000CF0F5FFFA20FC
:100FD40080000CF0D9FE831CC7D10CF0C1FEBEE723
:100FE40020FD0120A0D3022020D802204CFD0120A6
:100FF400FFDBFFF790C9022094C902208CC90220AC
:1010040064FD01200FB400B5B5B036AB04CBC821E4
:1010140001A800930CF07CFC35B008BC04B0184760
:101024000FB400B5B5B036AB04CBC82101A800930A
:101034000CF06EFC01A903480CF0BEFF35B008BCEF
:1010440004B01847B0FD01200FB470B5AAB02EABA0
:1010540004CBA02101A800930CF05AFC01A9194863
:101064000CF0AAFF184D9E24280019F0D5FB241A71
:10107400060001A819F0D0FB320003002100134838
:101084000CF09AFF631C15D0280019F0C5FB02224E
:101094000F4928180BF072F801A92200280019F052
:1010A40077FA29000B480CF087FF2AB070BC08BC03
:1010B40004B0184721232200290007482B700CF0A4
:1010C4007BFFF2E7C8FD012064D70220DCFD01208C
:1010D400FCFC012014FE012004FE012010B50020B8
:1010E400D02408F07BFB012324066362012008F06E
:1010F40075FB02230220636208F070FB04230320C3
:10110400636208F06BFB08230420636208F066FB4B
:1011140010230122A3620021042008F04DFB0520C6
:1011240008F05CFB20230122A3620021052008F0C3
:1011340043FB062008F052FB40230122A362002156
:10114400062008F039FB072008F048FB8023012221
:10115400A3620021072008F02FFB082008F03EFBC3
:1011640080235B00A36201220021082008F024FBF5
:10117400092008F033FB80239B00A3620122002195
:10118400092008F019FB0A2008F028FB8023DB0063
:10119400012200210A20A36208F00EFB10BDC04604
:1011A40010B515290FD018291CD0162910D01729CD
:1011B40022D007291BD90B00083B012B0DD911485C
:1011C400FFF720FF03E0DB2300219B00C05810BD84
:1011D400D6239B000021C058F9E76031C9004118AB
:1011E40003C9F4E7D4239B000021C058EFE7C831BA
:1011F400890040580021EAE7E0239B00C058C1174A
:10120400E5E7C04628FE0120F0B54E46DE465746C7
:101214004546E0B5BD4E814632689DB0002A01D1F5
:10122400BB4B1A60D02109064B684968DB06DB0F0B
:10123400890601D502210B43D021090649684906D4
:1012440001D504210B43D02109064968090601D5BB
:1012540008210B43D02109064968C90501D510218D
:101264000B43D02000064168890519D520210B4382
:101274004168490511D4A7490B60A548A6490468EB
:101284000C60D1010B430360032A53D01DB0F0BCA2
:10129400BB46B246A946A046F0BD40210B43EAE74F
:1012A400406880210500C9000D400842F5D19949E4
:1012B4000B60002BE1D199498A4609680029E3D1E2
:1012C4009748016801310A2940DD0360954B9B462C
:1012D4001B68002BD8D0944B05931B680493002BF8
:1012E4004AD0924B92491A680393B8235343914CC2
:1012F400CB18226802919968920053588E481900BD
:101304001D0004930CF058FE1E2D00D1B5E01F2DD6
:1013140000D1A2E0002D00D1AFE0049D8748290050
:101324000CF04AFE280007F0A3FB2368326801335F
:101334002360A9E7764B824C1A68824D23682A60A1
:101344009A4201D0002A03D122609FE701609BE703
:101354007D4B9C461900002303E0013308311C2B0C
:10136400F2D008688242F8D1DB006344586807F081
:101374007FFB2A68226089E7744B180098460CF0BA
:101384001BFEB822694F6A4C3B6871485343E158CD
:10139400029403970CF010FE40460CF00DFE6D4BCA
:1013A40039681D60B8234B43E3185A69C8235B00AE
:1013B4009C464C4603E063510435654502D05359BD
:1013C400581CF8D1B8234B43029A0025D3185A6805
:1013D400614B34009A46049E2B01D018D35C0B2B2E
:1013E4001ED00E2B14D00A2B02D186680135F3E7E8
:1013F4002A0050460CF0E0FD5B4600221A60039B75
:10140400029A1968B8234B43D3185A680135E3E7A5
:101414000123059A13600022464B1A60226833E7C1
:101424008368C0689C463300072E06D9083B012B0D
:101434000AD94A48FFF7E6FDE1E748466746C8335C
:101444009B00C7500135C7E74F466833DB00FB18E4
:10145400674658601F600135BEE70123524613609A
:10146400F522494692008B502368012101333C4800
:1014740023600CF0A1FD326806E7002352460021E8
:10148400384813600CF098FDB823039F36483A6837
:101494005343029AD1580CF08FFD1E2308931F3B2F
:1014A4000D940C961C003E00304A2A4D0692304A98
:1014B40029680792049A06980CF07EFD2B6831681F
:1014C4009C46B8234B43029AD3186246DB6810014A
:1014D4001A181B5C18001438C0B20A2800D9EEE0B0
:1014E4000799800009588F461A00224804991C0065
:1014F4000CF062FD296801312960DBE794681E481D
:1015040021000CF059FD14230893F3E768D302205B
:1015140078D302207CD3022070D302201CD802206E
:1015240004D8022014D8022060D7022008D8022050
:10153400D493022018D8022044FE01203C0102204A
:101544006CD3022074D30220F492022050010220B2
:10155400840102200CD80220B80102209C01022040
:1015640050FE012084FE0120B4FE0120D4FE01209F
:10157400981A022018FF012008FF0120BA480C9E87
:101584000CF098FC00235A46136052461360013352
:101594002B60039BB54D1A68B8235343029A2968FC
:1015A400D2181269002900D007E1B14C002A00D1F9
:1015B40052E1B0480CF000FD039A00271368AE49CD
:1015C40001331360B8225343029A2770D05819F09C
:1015D400D7F8002800D138E101235A461360059B4F
:1015E40032682F601F604FE60D9CA4480C9E0CF0DF
:1015F400E3FC2368013323602B6801332B605B46D3
:101604001B68002BC5D09E480CF0D6FC32683BE624
:10161400F5234F469B00FA580833F95899480CF0C3
:10162400CBFCF7239B00FB58002B00D162E79648C4
:10163400FFF70AFDB82332685343029AD3180022F5
:101644001A6157E7F5234F469B00FA580833F958B7
:101654008E480CF0B1FCF7239B00FB581F1E00D0F2
:1016640048E78B48FFF7F0FCB82332685343029AEB
:10167400D3181F613EE7089F864A3B00143B9B003A
:10168400D15885480B920CF097FC192F23D0631C7A
:101694000AD01E2C00D922E1804BE340DB0700D4A2
:1016A40010E17F480CF088FC1E23089322E794681D
:1016B4007C4821000CF080FC192308931AE7624649
:1016C40079480C9E0CF078FC00235A4613602B6872
:1016D40001332B605DE723011A09744B0FA819002D
:1016E400170008930CF0ECF8714B0EAA19000FA820
:1016F4000B9318F049FE0E9BC72B6ADDC7234A469D
:101704009B00D258B82331684B430299CB182968FF
:10171400DB6809015B189968914266D03A00089920
:101724000FA80CF0CDF80B990EAA0FA818F02CFEF8
:101734000E9BC72B55DDC7234A469B00D3583268FE
:101744009C46B8235343029A2100D3182A68DB68C5
:1017540012019B189A68DB6856480092019362460E
:101764000CF02AFC3A0008990FA80CF0A9F80B9980
:101774000EAA0FA818F008FE0E9BC72B2DDDC72359
:101784004A46B8279B00D358029A9C4633682100E6
:101794007B43D3182A68DB6812019B189A68DB68BC
:1017A4004548009201936246FFF74EFC3368029A63
:1017B4007B43D31800221A6176E7002A01D03268ED
:1017C40062E5029A1833D018294919F01DF83268D5
:1017D4005AE5DA43D217134091E7DA43D21713409C
:1017E400CEE7DA43D2171340A6E7DB689846002B0E
:1017F40094D13A0008990FA80CF062F80B990EAA3C
:101804000FA818F0C1FD0E9B002B1ADBC72B01DDBE
:10181400C7230E934A469B00D35832689C46B8238C
:101824005343029A2100D3182A68DB6812019B18DB
:101834009A68DB6821480092019362460CF0BCFB75
:1018440032E743460E930023E4E75B4618601C48E6
:101854000CF0B2FB326817E5029A18332100D01855
:1018640018F0D2FFA5E6C0469000022010D802204E
:1018740064D70220F800022088FA012080000220A8
:10188400D400022064FF012090FF012030FF0120DA
:1018940058FF012064A902209CFF0120000010468B
:1018A4000C000220F0FE0120A4000220C4FA012052
:1018B400DC120220CCFF0120ECFF0120ACFF012050
:1018C40010010220DB23152C47D0D423182C44D03C
:1018D400162C41D0172C00D18DE0072C5CD92300A5
:1018E400083B012B00D897E021004F48FFF78AFB03
:1018F400B82332680A995343029AD3182A68DB68DA
:1019040012019B189A68DB688A4200D17FE02100AB
:1019140046480CF051FBE3B2132B57D9E3B20B9AB0
:10192400143B9B00D3589846B82721004846FFF73C
:1019340037FC3368029A7B43D3182A68DB681201A8
:101944009B189A68DB680092019302000B003848E8
:101954004146FFF779FB29E7D6234A469B00D35833
:101964001F0000239846B82332685343029AD318C1
:101974002A68DB6812019B189A68DB680A9209934B
:10198400974240D0099B210028480A9A0CF014FB86
:1019940043460A970993C1E723004A46C8339B008C
:1019A400D3580A9300230993B82332680A995343FE
:1019B400029AD3182A68DB6812019B189A68DB68BC
:1019C4008A420CD0210019480CF0F6FA1948142167
:1019D4000700194AE3B20BF087FFB846A4E7099958
:1019E4008B42EFD1099B210014480A9A0CF0E4FAC7
:1019F4001E2308937EE5E0234A469B00D3581F002C
:101A0400DB179846AFE7099A9045BBD1EAE70999F5
:101A14008B4200D07BE7E5E76833DB004B441A6870
:101A24005B680A920993BFE728FE01205000022058
:101A34006400022048D70220DC1202203C0002206D
:101A4400F0B50A277F42BC460C0F150FA444C646C6
:101A54002E0067460B011001A84600B50A3E1B097B
:101A64000009012F00D8B6E0012E00D8A5E0A0257A
:101A74002D060F2318001C00084014400019040010
:101A840000260A3CB446092C00D8E5E10F261309C8
:101A94000C09344033401B1963441C0000270A3CE2
:101AA400BC46092C03D80124A446063333400F2630
:101AB4001B0118180C0A130A344033401B196344E1
:101AC4001C0000270A3CBC46092C03D80124A44668
:101AD400063333400F261B0218180C0B130B34402B
:101AE40033401B1963441C0000270A3CBC46092CE4
:101AF40003D80124A446063333400F261B031818C9
:101B04000C0C130C344033401B1963441C00002795
:101B14000A3CBC46092C03D80124A44606333340AE
:101B24000F261B0418180C0D130D344033401B19D9
:101B34000A2464426344A4469C4467460024092F53
:101B440002D80633334001341B0518180F23120E34
:101B5400090E19401340CB181B191A000A3A092A16
:101B640000D8ABE21B061B180F221C0213400A3BD1
:101B7400240A052B00D8A8E223061B0F0A3B052BD9
:101B840000D8C8E223051B0F0A3B052B00D8BAE294
:101B940023041B0F0A3B052B00D8ACE223031B0FC5
:101BA4000A3B052B00D89EE223021B0F0A3B052BA0
:101BB40000D890E22000284343E12E00834201D95B
:101BC4000A260A2544460A2C00D150E7A74A101ACF
:101BD400320790460EE0012E00D83EE2834200D93F
:101BE40032E10B2C00D042E7A022120690460A25CF
:101BF4009E4AD31A0F2211001400194004400919F7
:101C04000C000A3C0026092C02D80631114001368A
:101C14000F24A44667461A09224004093C401219BD
:101C2400921914000A3C0026092C04D86446063292
:101C34001440220001360F2412015118070A1A0A0F
:101C440027402240D21992190A267642B446944477
:101C540067460026092F02D80632224001360F2497
:101C640012025118070B1A0B27402240D21992195D
:101C74000A267642B446944467460026092F02D8C1
:101C84000632224001360F2412035118070C1A0C95
:101C940027402240D2199219160000270A3EBC465A
:101CA400092E03D8063222400E3CA4460F26120405
:101CB40054181A0D010D3140324052180A2149427C
:101CC40062448C46944467460021092F02D80632A8
:101CD40032400131120512190F241B0E000E23404D
:101CE40020401B185B1819000A39092901D806334A
:101CF40023401B069B180F221C0213400A3B240A94
:101D0400052B00D8A3E123061B0F0A3B052B00D8A3
:101D140097E123051B0F0A3B052B00D889E1230417
:101D24001B0F0A3B052B00D86EE123031B0F0A3B54
:101D3400052B00D875E10F23260D33400A3B052BF4
:101D440000D858E1F0231B051C4203D12100484868
:101D5400FFF758F90F221300234019000939092904
:101D640000D87EE00020591C0F22230913401B18C1
:101D74000A20404284469C4467460020092F02D82A
:101D84000633134001301B015A180F21230A0B405C
:101D94001B180A20404284469C4467460020092FB1
:101DA40002D806330B4001300F211B029A18230B73
:101DB4000B401B180A20404284469C44674600207E
:101DC400092F02D806330B4001301B039B180F2246
:101DD400240C1440241820000A380021092802D8B1
:101DE4000634144001310F22324024045218E418FE
:101DF40013000A3B092B3DD8F02306321B041205BD
:101E04001A400F23141926021C400A3C360A052CDA
:101E140039D933061B0F0A3B052B3ED933051B0F5B
:101E24000A3B052B43D933041B0F0A3B052B4AD924
:101E340033031B0F0A3B052B51D90B2D58D04046B9
:101E4400304380BCB846F0BD0B2C00D00FE6B02266
:101E5400120690460B25CBE6063018400E3B9C46F6
:101E640014E607331A40110001207DE7999999007F
:101E7400180202200F231205141926021C400A3CE2
:101E8400360A052CC5D806363100A7480CF094F85C
:101E940033061B0F0A3B052BC0D860363100A2481D
:101EA4000CF08AF833051B0F0A3B052BBBD8C02363
:101EB400DB00F61831009C480CF07EF833041B0F4D
:101EC4000A3B052BB4D8C023DB01F6183100964831
:101ED4000CF072F833031B0F0A3B052BADD8C0235B
:101EE400DB02F618310090480CF066F80B2DA6D1F1
:101EF4000F2211008D4B9B1B19400800093809283B
:101F040000D8B8E0002001310F241A092240121829
:101F140015000A3D0020092D02D806322240013066
:101F24000F24120151181A0A2240121815000A3DF2
:101F34000020092D02D80632224001300F2412025B
:101F440051181A0B2240121815000A3D0020092DC1
:101F540002D80632224001300F24120351181A0C01
:101F64002240121815000A3D0020092D02D806321D
:101F7400224001300F24120451181A0D2240121865
:101F840015000A3D0020092D02D8063222400130F6
:101F94001B011B0F12051B18521819000A390929B5
:101FA4006DD8F02106331B0609050B409A180F2340
:101FB40016021A400A3A360A052A63D933061B0F59
:101FC4000A3B052B74D933051B0F0A3B052B67D934
:101FD40033041B0F0A3B052B5AD933031B0F0A3B4F
:101FE400052B00D92BE7C023DB02F61831004E483D
:101FF4000BF0E2FF23E7C023DB03E41821004A4887
:102004000BF0DAFF260DA5E6C023DB01E41821005E
:1020140045480BF0D1FF23031B0F0A3B052B00D9C6
:1020240089E6C023DB02E41821003F480BF0C4FF1B
:1020340081E6C023DB00E41821003B480BF0BCFF21
:102044006DE66034210038480BF0B6FF61E60634D3
:10205400210035480BF0B0FF55E62E00834201D92C
:10206400250026000B2C00D0ACE544460B2C58D19F
:10207400B0252D06FDE407310120114044E71B067D
:102084009A1894E70636310027480BF095FF95E738
:10209400C023DB01F618310023480BF08DFF9CE7C9
:1020A400C023DB00F61831001F480BF085FF8FE7D3
:1020B400603631001C480BF07FFF84E7F0220633C2
:1020C4001B06120513401B184EE506342100164862
:1020D4000BF072FF50E5C023DB03E4182100124823
:1020E4000BF06AFF66E5C023DB02E41821000E480A
:1020F4000BF062FF58E5C023DB01E41821000A4815
:102104000BF05AFF4AE5C023DB00E418210006481F
:102114000BF052FF3CE56034210003480BF04CFF08
:1021240030E53207904663E5E00102209999990071
:10213400F8B50F264746CE460D00090E31408046BD
:102144000C0080B5002B00D19DE0062900D1D7E01A
:102154002B021E0A002B30D0F0273F043D4222D12F
:10216400330004291DD833014C1C3B421AD1052CE1
:1021740016D033028C1C3B4214D1052C10D03303EF
:10218400CC1C3B420ED1052C0AD00C1DF02133048B
:1021940009040B4206D1042C02D1330500D0D7E048
:1021A40005210C001E00290F2407240909072143D7
:1021B40031430C01240F0D00210013011B0F062BCA
:1021C40000D1B6E010021E00070A002842D0F02019
:1021D4000004024235D1BC46042B30DC380184466D
:1021E400581C8146F02066460004064200D094E064
:1021F4004E46052E23D03E02B4469E1CB14666468A
:10220400064200D089E04E46052E18D03E03B4465F
:10221400DE1CB1466646064200D07EE04E46052EE0
:102224000DD03E040433B4469946064200D074E00F
:102234004B46042B02D13B059C466CD1052633004A
:1022440067461B07120F1B0912071A433A4313016F
:102254001B0F1E00002C0BD001392C0F0907090994
:1022640024072D020C432D0B25432401210F0C00C0
:10227400002B55D0013E130F360736091B071202F7
:102284003343120B1A432B021B0A9C4616011302FA
:102294001B0A360F8E4213DB771A8E421ED0191199
:1022A400012F0BD01912022F08D01913032F05D0B8
:1022B4001914042F02D00021052F46D00B000DE085
:1022C4003400891B012938D0022943D0032944D082
:1022D400042945D00026052934D0B446120F12072C
:1022E4001A436346290F090740461943FFF7A8FB21
:1022F4001D4B034020061843C0BCB946B046F8BD88
:10230400130E3340062B16D010021E00070A0028B5
:1023140000D05CE7A0E7052399464B46674690E763
:102324002B021B0A9C4613021B0A8E42D6DA002497
:10233400C7E7002C04D006268EE761460E11CCE7D1
:10234400062697E761460E15C7E719150B00C5E782
:10235400052427E761460E12BFE761460E13BCE76A
:1023640061460E14B9E7C046FFFFFFF0F0B54E46D4
:102374005746DE4645469C46E0B5894616009246D9
:102384000A0F090187B00909039161460901090986
:102394001B0F019111001C000A39029000960A3C9F
:1023A400012901D900F05CFD012C01D900F048FDA0
:1023B400009C019D0399A94201D801F045F8934678
:1023C4000B2A01D000F057FD0B2B01D101F0C3FC07
:1023D4005B461B07994602980399EE4AEE4B121A84
:1023E4008B41029203930F21029B00980B400840FB
:1023F4001C00020000230025A4185D410A22524259
:10240400D31712196B41002B01D001F0B2F8092A3D
:1024140001D901F0AEF8A31D0B401C0001230025D7
:102424009C460299039A0F2713070A099A183A40FF
:102434001000019B009A1B0716099E193E400021BB
:102444003200002312184B416046002112184B4100
:102454000A204042C11780185941002901D001F0D7
:1024640084F8092801D901F080F8911D39400A0047
:10247400012100238C460F27160F19017118100132
:1024840000196941029C039D2B06220A9A183A40BE
:102494001400019B009A1B06160A9E193E40002553
:1024A4003200002312196B416446002512196B4156
:1024B4000A246442E517A4185D41002D01D001F0FF
:1024C40050F8092C01D901F04CF8941D3C4022002D
:1024D40001240023A4460F27160E1D0275191402A9
:1024E40024184D410299039A13050A0B9A183A408D
:1024F4001000019B009A1B05160B9E193E400021FB
:102504003200002312184B416046002112184B413F
:102514000A204042C11780185941002901D001F016
:102524001CF8092801D901F018F8911D39400A0056
:10253400012100238C460F27160D1903711810036F
:1025440000196941029C039D2B04220C9A183A40FD
:102554001400019B009A1B04160C9E193E40002592
:102564003200002312196B416446002512196B4195
:102574000A246442E517A4185D41002D01D000F03F
:10258400E8FF092C01D900F0E4FF941D3C4022002F
:1025940001240023A4460F27160C1D0475191404E6
:1025A40024184D410299039A13030A0D9A183A40CC
:1025B4001000019B009A1B03160D9E193E4000213A
:1025C4003200002312184B416046002112184B417F
:1025D4000A204042C11780185941002901D000F057
:1025E400B4FF092801D900F0B0FF911D39400A0059
:1025F400012100238C460F27160B190571181005AD
:1026040000196941029C039D2B02220E9A183A403C
:102614001400019B009A1B02160E9E193E400025D1
:102624003200002312196B416446002512196B41D4
:102634000A246442E517A4185D41002D01D000F07E
:1026440081FF092C01D900F07DFF941D3C4022003C
:1026540000230126170A1D06029B7D19140624185F
:102664004D41180F00210023009F3A0F12184B41CF
:102674003000002112184B410A204042C117801833
:102684005941002901D000F05AFF092801D900F06E
:1026940056FF901D0F310840020000230127160940
:1026A400190771181007001969410F260490059144
:1026B400039B0199334031401C0000250A0000238C
:1026C40012196B413C00002512196B410A24644223
:1026D400E517A4185D41002D01D000F02CFF092C52
:1026E40001D900F028FF0121941D344022008C46BA
:1026F4001500049A059B00240F27A4185D41039B31
:10270400190939400A00019900230E093E4030009E
:10271400002112184B416046002112184B410A2037
:102724004042C11780185941002901D000F0FFFE32
:10273400092801D900F0FBFE911D39400A0001214E
:102744008C4600200F27039B1101001969411C0AC4
:102754003C402200019C0025260A3E403400002310
:1027640012196B416446002512196B410A24644214
:10277400E517A4185D41002D01D000F0D4FE092C0A
:1027840001D900F0D0FE941D3C4022000124A4464F
:1027940004E0C046999999999999000000240F275B
:1027A400039B150224184D41190B39400A00019965
:1027B40000230E0B3E403000002112184B416046AE
:1027C400002112184B410A204042C1178018594178
:1027D400002901D000F0A3FE092801D900F09FFED2
:1027E400911D39400A0001218C4600200F27039BCC
:1027F4001103001969411C0C3C402200019C002576
:10280400260C3E403400002312196B416446002517
:1028140012196B410A246442E517A4185D41002D86
:1028240001D000F078FE092C01D900F074FE941D4B
:102834003C4022000124A44600240F27039B1504D6
:1028440024184D41190D39400A00019900230E0D39
:102854003E403000002112184B41604600211218FE
:102864004B410A204042C11780185941002901D028
:1028740000F04DFE092801D900F049FE911D3940B0
:102884000A0001218C4600200F27039B1105001923
:1028940069411C0E3C402200019C0025260E3E404E
:1028A4003400002312196B4164460025A4185D41CD
:1028B4000A225242D31712196B41002B01D000F0A7
:1028C40023FE092A01D900F01FFEA31D3B401C0072
:1028D4000126002223068018594100250023019C6B
:1028E400039F220F3C0F12196B413400002512196B
:1028F4006B410A246442E517A4185D41002D05D1FB
:10290400092C03D80F24951D25402A0000241507FF
:102914002B00220012184B411B0416001D0C0F2320
:1029240033401800140000210A225242D3178018A1
:102934005941002901D101F0A0F921060A0F002311
:102944000A204042C11712184B41002B01D101F05B
:10295400B3F921050A0F00230A204042C1171218B7
:102964004B41002B01D101F097F921040A0F0023F8
:102974000A204042C11712184B41002B01D101F02B
:10298400DAF921030A0F00230A204042C117121862
:102994004B41002B01D101F0BEF921020A0F0023A3
:1029A4000A204042C11712184B41002B01D101F0FB
:1029B400A2F921010A0F00230A204042C11712186C
:1029C4004B41002B01D101F086F92901220F8A180D
:1029D4000A204042C1172B0F12184B41002B01D182
:1029E40001F0B8F8F0231B032B4201D101F0C0F829
:1029F4000F23190021400A009C4609204042C117B8
:102A0400002380185941002903D1092801D800F076
:102A140072FD01260027B6185F41002398462B0754
:102A2400210959180F2318000840020000214046CC
:102A34009C46002312184B410A204042C1178018BB
:102A44005941002901D000F0C3FD092801D900F043
:102A5400BFFD6046911D0840012102000023884605
:102A6400110F8C4619016144100136184F412B0691
:102A7400210A59180F23180008400200002140467B
:102A84009C46002312184B410A204042C11780186B
:102A94005941002901D000F097FD092801D900F01F
:102AA40093FD6046911D08400121020000238846E1
:102AB400110E8C4619026144100236184F412B0541
:102AC400210B59180F23180008400200002140462A
:102AD4009C46002312184B410A204042C11780181B
:102AE4005941002901D000F06BFD092801D900F0FB
:102AF40067FD6046911D08400121020000238846BD
:102B0400110D8C4619036144100336184F412B04F0
:102B1400210C59180F2318000840020000214046D8
:102B24009C46002312184B410A204042C1178018CA
:102B34005941002901D000F03FFD092801D900F0D6
:102B44003BFD6046911D0840012102000023884698
:102B5400110C8C4619046144100436184F412B03A0
:102B6400210D59180F231800084002000021404687
:102B74009C46002312184B410A204042C11780187A
:102B84005941002901D000F013FD092801D900F0B2
:102B94000FFD6046911D0840012102000023884674
:102BA400110B8C4619056144100536184F412B0250
:102BB400210E59180F231800084002000021404636
:102BC4009C46002312184B410A204042C11780182A
:102BD400594100960197002901D000F0E5FC09282D
:102BE40001D900F0E1FC6046911D0840012102007A
:102BF40000238C46160A1906891910060023009E24
:102C0400019F36184F4160460021220F12184B4194
:102C14000A204042C11780185941002901D000F010
:102C2400BFFC092801D900F0BBFC901D0F310840FE
:102C34000E3902000023884611098C4619070F2318
:102C44006144100736184F41190029400A004046D4
:102C540000219C46002312184B410A204042C11710
:102C640080185941002901D000F096FC092801D9A7
:102C740000F092FC6046911D084001210200884644
:102C840011000F23002036184F411800290908406D
:102C94000200002140469C46002312184B410A20A2
:102CA4004042C11780185941002901D000F070FC3E
:102CB400092801D900F06CFC6046911D08400121EF
:102CC400020088460F230020110136184F411800D6
:102CD400290A08400200002140469C46002312189D
:102CE4004B410A204042C11780185941002901D0A4
:102CF40000F04AFC092801D900F046FC6046911D09
:102D04000840012102008C462C0411020025220FE8
:102D14000023644612196B410A246442E51700201B
:102D2400A4185D4180197941002D01D000F025FCE3
:102D3400092C01D900F021FCC0231203DB01D218B5
:102D4400F0231B021A4000241500012324184D41CE
:102D540000201904001969410B0406000F213140B9
:102D64000A0004001D0C0A204042C1170023121857
:102D74004B41002B01D100F022FF21060A0F002352
:102D84000A204042C11712184B41002B01D100F018
:102D940055FF21050A0F00230A204042C1171218CB
:102DA4004B41002B01D100F039FF21040A0F00230D
:102DB4000A204042C11712184B41002B01D100F0E8
:102DC4001DFF21030A0F00230A204042C1171218D5
:102DD4004B41002B01D100F001FF21020A0F002317
:102DE4000A204042C11712184B41002B01D100F0B8
:102DF400D6FE21010A0F00230A204042C1171218EF
:102E04004B41002B01D100F0BAFE2901220F8A1890
:102E14000A204042C1172B0F12184B41002B01D13D
:102E240000F01BFF5B460B2B00D1D5E34946200085
:102E3400294307B0F0BCBB46B246A946A046F0BD44
:102E4400029D039E009B019CA64200D80CE30B2A22
:102E540024D10B239B46B0231B069946FFF7BBFAEC
:102E6400012C1BD8029C039D0099019A954200D81D
:102E7400F3E20A2293460A2B10D000980199054ADE
:102E8400054B121A8B41009201935B461B0799462E
:102E9400FFF7A9FA9999999999990000A0231B061B
:102EA4009B460F2302001A40160052461A40140093
:102EB4000025002736196F410A246442E517A41936
:102EC4007D41002D00D1DFE2002302934B460F2405
:102ED4001B07010959180C40009454466146240903
:102EE400A046090700238844414601930F33194043
:102EF4000C00009A019B002512196B410025029CCD
:102F0400A4185D410A225242D31712196B41002BB7
:102F140000D0EDE2092A00D9EAE20F22A31D1A40EB
:102F24000123140000259846210F2B01CB18220100
:102F340092197B41009201934B46040A1B061C190B
:102F4400514663460F221B06090A591814401140C2
:102F5400260000270C000025A4197D4146460027C1
:102F6400A4197D410A267642F71736196F41002FBE
:102F740000D0BAE2092E00D9B7E2A31D13401C0009
:102F8400012300259846230E2F02DF192602009BF9
:102F9400019C9B197C41009301944B46040B1B0537
:102FA4001C19514663460F221B05090B591814407E
:102FB4001140260000270C000025A4197D41464637
:102FC4000027A4197D410A267642F71736196F4166
:102FD400002F00D086E2092E00D983E2A31D1340FE
:102FE4001C00012300259846230D2F03DF19260317
:102FF400009B019C9B197C41009301944B46040C5B
:103004001B041C19514663460F221B04090C591852
:1030140014401140260000270C000025A4197D410E
:1030240046460027A4197D410A267642F717361929
:103034006F41002F00D052E2092E00D94FE2A31DA8
:1030440013401C00012300259846230C2F04DF198C
:103054002604009B019C9B197C41009301944B46E0
:10306400040D1B031C19514663460F221B03090D53
:10307400591814401140260000270C000025A419FB
:103084007D4146460027A4197D410A267642F7175A
:1030940036196F41002F00D01EE2092E00D91BE221
:1030A400A31D13401C00012300259846230B2F0564
:1030B400DF192605009B019C9B197C410093019418
:1030C4004B46060E1B029E19514663460F221B02F5
:1030D400090E591816401140340000250E0000272F
:1030E40036196F414446002536196F410A2464425B
:1030F400E517A4197D41002D00D0EAE1092C00D97F
:10310400E7E1B31D13401E00012300279846330A4C
:103114003D0651465D193406009A019B0027A41808
:103124005D410023060F0A0F92197B414646002792
:103134000A204042C11792197B4180185941002945
:1031440000D0C3E1092800D9C0E1901D0F31084027
:103154000E390200002388461609190771184B46D8
:103164000F26674610073340374024184D413A0074
:1031740018000021002312184B4140460021121868
:103184004B410A204042C11780185941002900D000
:1031940099E1092800D996E1911D31400A000121E5
:1031A40088464B460F27110000201B093B4000199D
:1031B40069411C0063461E093E400025320000237D
:1031C40012196B414446002512196B410A246442CA
:1031D400E517A4185D41002D00D071E1092C00D938
:1031E4006EE1941D3C4022000124A0464B460F276B
:1031F40000241B0A15013B4024184D411800634666
:103204001E0A3E4000213200002312184B41404662
:10321400002112184B410A204042C117801859411D
:10322400002900D049E1092800D946E1911D39401F
:103234000A00012188464B460F2700201B0B110270
:103244003B40001969411C0063461E0B3E400025AB
:103254003200002312196B414446002512196B41B8
:103264000A246442E517A4185D41002D00D021E131
:10327400092C00D91EE1941D3C4022000124A046E3
:103284004B460F2700241B0C15033B4024184D41CB
:10329400180063461E0C3E40002132000023121821
:1032A4004B414046002112184B410A204042C117AD
:1032B40080185941002900D0F9E0092800D9F6E026
:1032C400911D39400A00012188464B460F270020F2
:1032D4001B0D11043B40001969411C0063461E0D7F
:1032E4003E4000253200002312196B41444600255C
:1032F40012196B410A246442E517A4185D41002D9C
:1033040000D0D1E0092C00D9CEE0941D3C4022002D
:103314000124A0464B4600240F27150524184D41CF
:10332400190E39400A0061460E0E3E40002330005B
:1033340000218018594142460023801859410A222D
:103344005242D31712184B41002B00D0A6E0092A91
:1033540000D9A3E0C023F021DB040006C01809054E
:1033640008400022030012196B41012400202107A8
:1033740012184B411B0416001D0C0F233340180078
:10338400140000210A225242D317801859410029FF
:1033940001D100F055FD21060A0F00230A20404206
:1033A400C11712184B41002B01D100F058FD210523
:1033B4000A0F00230A204042C11712184B41002B68
:1033C40001D100F05FFD21040A0F00230A204042CE
:1033D400C11712184B41002B01D100F063FD2103EA
:1033E4000A0F00230A204042C11712184B41002B38
:1033F40001D100F067FD21020A0F00230A20404298
:10340400C11712184B41002B01D100F06BFD2101B3
:103414000A0F00230A204042C11712184B41002B07
:1034240001D100F06FFD2901220F8A180A204042C1
:10343400C1172B0F12184B41002B01D100F0F0FCE7
:10344400594620002943F4E4A94203D1A04201D9FA
:10345400FEF7B5FF9B46FEF7B3FF954202D18C42BF
:1034640000D906E59B4606E5A64202D19D4200D955
:10347400EDE4A0231B060B2A01D000F06EFC994654
:103484000A239B46FEF7A7FF092C00D91CE5B21DB1
:103494001A400E3B16000027029317E5002203068C
:1034A40012196B41002461E70024A04632E7002191
:1034B40088460AE70024A046E2E600218846BAE6E8
:1034C4000024A04692E6002188466AE60021884648
:1034D40042E6002398461AE600239846E6E50023D0
:1034E4009846B2E5002398467EE5002398464AE5CF
:1034F4000023984618E56346073213401E00012353
:1035040000279846FFF78BFA0026FFF7E2F900211F
:103514008C46FFF7B8F90024A446FFF78DF9002183
:103524008C46FFF762F90024A446FFF737F900211F
:103534008C46FFF706F900218C46FFF7D9F80027DF
:10354400FFF7ADF80026FFF785F800218C46FFF75A
:1035540052F80024A446FFF71EF800218C46FEF71B
:10356400EAFF0024A446FEF7B6FF00218C46FEF7CE
:1035740082FF00239C46FEF754FF00241503241801
:103584004D410023FFF7E4FB00218C46FFF7BCFB11
:1035940000218846FFF796FB00218846FFF770FB61
:1035A40000218846FFF748FB00218C46FFF722FBE9
:1035B40000218846FFF7F4FA00218846FFF7C8FA8D
:1035C40000218846FFF79CFA00218846FFF770FA2D
:1035D40000218846FFF744FAE24EE34F0433361BDA
:1035E400AF419C4633401800002109225242D317B0
:1035F40012184B41002B00D0A3E2092A00D9A0E203
:103604006346073003400093002301930133984637
:103614003B0732099A180F239C4613401800424670
:1036240000230021801859410A225242D31712184C
:103634004B41002B00D081E2092A00D97EE2624688
:10364400831D1A400123100000219846030F9C4655
:103654000B016344020100980199801859413B060B
:10366400320A9A180F239C46134000900191424657
:10367400180000210023801859410A225242D3170E
:1036840012184B41002B00D055E2092A00D952E20E
:103694006246831D1A400123100000219846030E40
:1036A4009C460B0263440202009801998018594118
:1036B4003B05320B9A180F239C461340009001914E
:1036C4004246180000210023801859410A22524220
:1036D400D31712184B41002B00D029E2092A00D934
:1036E40026E26246831D1A400123100000219846F9
:1036F400030D9C460B036344020300980199801850
:1037040059413B04320C9A180F239C4613400090F5
:1037140001914246180000210023801859410A22D1
:103724005242D31712184B41002B00D0FDE1092A55
:1037340000D9FAE16246831D1A40012310000021DA
:103744009846030C9C460B046344020400980199B8
:10375400801859413B03320D9A180F239C4613409D
:10376400009001914246180000210023801859411D
:103774000A225242D31712184B41002B00D0D1E138
:10378400092A00D9CEE16246831D1A4001231000A4
:1037940000219846030B9C460B05634402050098E0
:1037A4000199801859413B02320E9A180F239C4606
:1037B4001340029003914246180000210023801810
:1037C40059410A225242D31712184B41002B00D000
:1037D400A5E1092A00D9A2E16246831D1A4001230A
:1037E400100000219C46030A002204930023009247
:1037F40001930B060193049B9846019B4344019358
:1038040003060093009A019B02980399801859417A
:1038140062460023009001910021300F8018594125
:103824000A225242D31712184B41002B00D073E1E5
:10383400092A00D970E1821D0F331A400E3B100093
:103844000021984603099C460B076344020700982D
:103854000199801859410F239C463B4042460090F1
:103864000191180000210023801859410A22524274
:10387400D31712184B41002B00D04AE1092A00D972
:1038840047E16246831D1A40012310009846030055
:10389400009801990022801859413B090F3294463F
:1038A4001A40009001910023100000214246801824
:1038B40059410A225242D31712184B41002B00D00F
:1038C40024E1092A00D921E16246831D1A4001231B
:1038D400100098460022030100980199801859416C
:1038E4003B0A0F3294461A400090019100231000C5
:1038F40000214246801859410A225242D317121815
:103904004B41002B00D0FEE0092A00D9FBE06246BF
:10391400831D1A40012310009846002203020098D8
:103924000199801859413B0B0F3294461A4000907C
:1039340001910023100000214246801859410A22B7
:103944005242D31712184B41002B00D0D8E0092A59
:1039540000D9D5E06246831D1A40012310009C461D
:1039640004E0C046999999999999000000220303AB
:1039740000980199801859413B03624600900191D7
:10398400180F00210023801859410A225242D317EC
:1039940012184B41002B00D09EE0092A00D99BE06D
:1039A400C0230104F020DB02C918000301400B000E
:1039B400009801990022801859411023C022F02751
:1039C4001B05D2039E183F043E403300002280189A
:1039D40059411023C022F0271B06D2049E183F052C
:1039E4003E40330000221026801859410F2306362A
:1039F4001E400022330712184B411B0416001D0CF5
:103A04000F2333401800140000210A225242D31716
:103A140080185941002900D1F5E121060A0F00233D
:103A24000A204042C11712184B41002B00D1DDE19E
:103A340021050A0F00230A204042C11712184B41E6
:103A4400002B00D1C4E121040A0F00230A204042C4
:103A5400C11712184B41002B00D1ABE121030A0F0F
:103A640000230A204042C11712184B41002B00D1F9
:103A740092E121020A0F00230A204042C1171218C2
:103A84004B41002B00D179E121010A0F00230A20C8
:103A94004042C11712184B41002B00D160E12901AB
:103AA400220F8A180A204042C1172B0F12184B41CB
:103AB400002B01D0FFF7BAF9052A01D9FFF7B6F9AF
:103AC400C0220023D205A4185D41EC4822002B003B
:103AD4000AF072FAFFF7AAF9002203040098019988
:103AE400801859413B0D0F32134200D01AE23B0EAD
:103AF400134200D018E23E0F00D17AE70F2675E793
:103B040000239C4632E70023984606E700239846A4
:103B1400E0E600239846BAE60023984692E600239E
:103B24009C4660E60023984634E60023984608E65F
:103B340000239846DCE500239846B0E50023984628
:103B440084E500230122801859410023009001914B
:103B540098465DE5052A01D9FEF744FFC0220023FB
:103B6400D205A4185D41C54822002B000AF024FAAE
:103B740022002B00C248FDF745FAFEF739FF052A5B
:103B840001D9FFF742F9C0220023D204A4185D41F1
:103B9400BA4822002B000AF00FFAFFF736F9052A7B
:103BA40001D9FFF726F9C0220023D203A4185D41EE
:103BB400B24822002B000AF0FFF9FFF71AF9052A90
:103BC40001D9FFF7DAF806220023A4185D41AB48B7
:103BD40022002B000AF0F0F9FFF7CFF8052A01D9EB
:103BE400FFF7FBF8C0220023D202A4185D41A348CA
:103BF40022002B000AF0E0F9FFF7EFF8052A01D9BB
:103C0400FFF7DFF8C0220023D201A4185D419B48CE
:103C140022002B000AF0D0F9FFF7D3F8052A01D9C6
:103C2400FFF7C3F8C0220023D200A4185D419348D3
:103C340022002B000AF0C0F9FFF7B7F8052A01D9D2
:103C4400FFF7A7F860220023A4185D418B482200E7
:103C54002B000AF0B1F9FFF79CF8052A01D9FFF708
:103C6400E1F8C0220023D205A4185D418348220054
:103C74002B000AF0A1F9FFF7D5F8052801D9FEF7C2
:103C84005CFE06220023A4185D417C4822002B0020
:103C94000AF092F9FEF751FE052A01D9FEF765FEF6
:103CA400C0220023D200A4185D41744822002B00D6
:103CB4000AF082F9FEF759FE052A01D9FEF749FEFA
:103CC40060220023A4185D416C4822002B000AF0F6
:103CD40073F9FEF73EFE052A01D9FEF776FEC022EF
:103CE4000023D204A4185D41644822002B000AF08A
:103CF40063F9FEF76AFE052A01D9FEF75AFEC022CF
:103D04000023D203A4185D415C4822002B000AF072
:103D140053F9FEF74EFE052A01D9FEF73EFEC022F6
:103D24000023D202A4185D41544822002B000AF05B
:103D340043F9FEF732FE052A01D9FEF722FEC0221E
:103D44000023D201A4185D414C4822002B000AF044
:103D540033F9FEF716FEB0231B069B46FFF7A1F8C6
:103D6400052A00D99BE6C0220023D204A4185D4191
:103D7400424822002B000AF01FF990E6052A00D9D8
:103D840082E6C0220023D203A4185D413B482200EE
:103D94002B000AF011F977E6052A00D969E6C0225A
:103DA4000023D202A4185D41344822002B000AF0FB
:103DB40003F95EE6052A00D950E6C0220023D201A9
:103DC400A4185D412D4822002B000AF0F5F845E6C1
:103DD400052A00D937E6C0220023D200A4185D4189
:103DE400264822002B000AF0E7F82CE6052A00D921
:103DF4001EE660220023A4185D41204822002B0007
:103E04000AF0DAF814E6052800D906E606220023AB
:103E1400A4185D41194822002B000AF0CDF8FCE5F6
:103E2400052A01D9FFF70CFBC0220023D205A418F0
:103E34005D41124822002B000AF0BEF8FFF700FB98
:103E4400052801D9FFF7A7FA06220023A4185D412B
:103E54000A4822002B000AF0AFF8FFF79CFA052A63
:103E640001D9FFF7A4FA60220023A4185D41034896
:103E740022002B000AF0A0F8FFF799FAF0010220C3
:103E840018020220052A01D9FFF79DFAC022002357
:103E9400D200A4185D41254822002B000AF08CF8BA
:103EA400FFF791FA052A01D9FFF799FAC0220023F6
:103EB400D201A4185D411D4822002B000AF07CF8B1
:103EC400FFF78DFA052A01D9FFF795FAC0220023DE
:103ED400D202A4185D41154822002B000AF06CF8A8
:103EE400FFF789FA052A01D9FFF791FAC0220023C6
:103EF400D203A4185D410D4822002B000AF05CF89F
:103F0400FFF785FA052A01D9FFF78DFAC0220023AD
:103F1400D204A4185D41054822002B000AF04CF895
:103F2400FFF781FA130049E50F2353E5F00102205E
:103F3400F0B5DE4657464E464546E0B534488DB0AA
:103F440009F0B8FF9C239B46324B334C9A46334BC3
:103F5400A3449946324B9846324B099325686668C8
:103F6400290032005046A768FDF76AFD4246030067
:103F7400874200D1099A00922900320048460197ED
:103F84000C340AF019F85C45E8D1274809F092FF8F
:103F9400264B98469C235B0043449B46244B099341
:103FA4001F4B0A931F4B0B9343461C685D689E6826
:103FB400DF681B693200994643465B6920009A46D4
:103FC40029003B00FEF7D2F981451CD00A9B4A46E2
:103FD40006925246049307922B0002902200009608
:103FE40001970998039109F0E7FF18239844D845ED
:103FF400DAD10A2009F014FF0DB0F0BCBB46B2467A
:10400400A946A046F0BD8A45E0D10B9BDFE7C04638
:1040140038020220F0B70220788D02204C020220E0
:10402400300202202802022070020220408C02206A
:104034008402022010B50A018EB00B491209040053
:1040440001A809F03DFC6A46084901A816F09CF94C
:10405400009BC72B04DDC7239B00E0580EB010BDA6
:10406400DA43D2171340F7E7C4FA0120DC12022026
:10407400072908D8072A17D8C83292008358C831AC
:104084008900435070470B00083B012BFAD81300FA
:10409400083B012B22D860326031D200C90082185B
:1040A40041180CCA0CC1EDE71300083B012BE9D8F9
:1040B4006032D20082181368C8319C465368624645
:1040C4001B0F120112091B0713430C4A89001340EA
:1040D40062461202120A13434350D3E7072AD1D887
:1040E400C8329200835860311A0FC9001B0240186D
:1040F40012071B0A03604260C4E7C046FFFFFFF0DB
:1041040070B505000C001000072918D8C8339B00AF
:10411400EA58130F0A2B2CD00B2B04D112011309CC
:10412400A02212061A43A021000100090906014336
:104134002800FDF785FCC834A400285170BD0A008E
:10414400083A012AFAD86033DB00EB180CCB190FBC
:104154000A2914D00B2904D11B011909A0231B0619
:104164000B43C117FEF702F96034E4002D1903C5AF
:10417400E4E712011309B02212061A43D3E71B0124
:104184001909B0231B060B43C117FEF7EFF860347F
:10419400E4002D1903C5D1E7F0B5C6460C0000B5FF
:1041A40007291ED8072A05D92F48FCF72BFF80BC06
:1041B400B846F0BD072B36D9190008390129F3D8C0
:1041C4006033DB00C3181968050058680B01000F41
:1041D4001B0900071843254B09021840090A084324
:1041E40025E008390129DFD8110008390129DBD875
:1041F40019000839012925D9072BD5D8C8339B00C4
:10420400C15860320B0F0902090A8C46D200821889
:10421400050003CA1B076246FEF7A8F86034E300F2
:10422400EB1803C3C3E7C8339B000500C058C8326A
:104234009300E95802002800FDF702FCC834A400EA
:104244002851B4E76033DB00C318603260CBD3007D
:10425400C318070003CB2A003300FEF787F8603445
:10426400E300FB1803C3A2E7B4020220FFFFFFF040
:1042740070B506000C00072925D8072A03D942483F
:10428400FCF7C0FE70BD072B45D919000839012978
:10429400F5D86033C832DB009200C31881580CCBC8
:1042A40010011B0F00091B07034338481202034087
:1042B400120A1A431B0F0A2B36D112011309B0221A
:1042C40012061A4337E008390129D8D811000839F1
:1042D4000129D4D819000839012933D9072BCED89C
:1042E4006032D200C83382189B0003CAF258130FFD
:1042F4001D071202AC46120A0A2B39D00B2B02D12D
:10430400A0231B069C466346FEF730F86034E400A5
:10431400341903C4B6E7C832C83392009B008158ED
:10432400C258130F0A2BC8D00B2B04D11201130946
:10433400A02212061A433000FDF782FBC834A40001
:1043440030519FE760326033D200DB008218F318EB
:1043540003CA1A685B6894461A0F0A2A0CD00B2AFF
:1043640004D11B011A09A0231B0613436246CBE7A1
:10437400B0231B069C46C6E71B011A09B0231B0683
:1043840013436246C0E7C046B4020220FFFFFFF0B9
:10439400F0B54E464546DE465746E0B50F2585B096
:1043A400080F0B02090E160229400090100F120E7E
:1043B4001B0A360A019002911540A94202DD1A0037
:1043C40033001600A0221206134311009246140073
:1043D40006229146320000201E000F274B4603950B
:1043E400914610E04A462401120F14194A4612015C
:1043F4009146524636012401360A2409013B1443EE
:104404001643002B18D03A00324093463742E9D085
:104414004A46A046B1465C4600259B46160032003B
:1044240043460135FDF7A2FFA542F8D132005B46B1
:104434004E4644469146D5E7F022039D029B120264
:10444400ED1811420CD00FE0040F0B01E3181B010F
:10445400090F1B090907194300010135114203D152
:104464000B041B0C0343EFD10B07000918180B01B5
:104474001B0A190702098A181B09190712098A1845
:104484001B09190712098A181B09190712098A1826
:104494001B091B0712099A180B4B063D1A402806E4
:1044A400009B1043019A00019B1A5A1E9341A022BB
:1044B4001B0712069B180009184305B0F0BCBB4645
:1044C400B246A946A046F0BDFFFFFFF0F0B5454651
:1044D400DE4657464E46E0B50B01804687B01B0FBB
:1044E400062B31D00802050A00282DD0F026360408
:1044F400314223D1042B00D962E128015C1C3042F3
:104504001AD1052C18D028029C1C304214D1052C39
:1045140012D02803DC1C30420ED1052C0CD01C1DFB
:10452400F02328041B04184206D1042C00D040E1D7
:10453400280500D03DE10134230005001B07090FC5
:104544001B09090719432943130110021B0F000A11
:10455400062B00D114E1002800D10FE1F026360427
:10456400324223D1042B00D927E104015D1C3442DB
:104574001AD1052D18D004029D1C344214D1052DE6
:1045840012D00403DD1C34420ED1052D0CD01D1DA8
:10459400F02304041B041C4206D1042D00D00AE1BC
:1045A400040500D007E101352B0020001B07120F82
:1045B4001B0912071A43024313011B0F1002059330
:1045C400000AA0260B0F9A46130F9B460B011B0FE4
:1045D4003606994633000902090A03430E430028AC
:1045E40000D1CBE0F02109040A4205D11B010B42A2
:1045F400FCD0A022120613430622019252460292D4
:104604005A46A02403924A466F4F2406049200930C
:10461400009B25001B0119098A4632019A4227D3BF
:10462400002925D0B021504609063B0201438946A2
:104634001A0A002B00D17BE0A0231B0613439B46E0
:1046440023026FD021005A464046FDF7F9F95F4D29
:10465400330205402C00002B68D031004A46404606
:10466400FDF7EEF9594E06400002000A8245E7D9EB
:10467400A022009B12061B011B0A1A43A0233F021F
:104684001B063F0B1F43019B0092013B0193002B30
:10469400BED1029B05279A46039BF0219B46049BAF
:1046A40009051A00059B9A1ABF1A3B060B401D43C5
:1046B400013221DA0F24464E0BE0013B2A0F1B077F
:1046C4001B0912072D0213432D0B013F1D43062F17
:1046D40010D0300009F070FC23002A0E134014425D
:1046E400EBD17C1E072F05D03000013C09F064FC9F
:1046F400062CF9D1C023DB04344A15401D435A4625
:1047040053469B1A5A1E9341A0221B0712062801E6
:104714009B180009184307B0F0BCBB46B246A94633
:10472400A046F0BD3C003D00330296D14E4687E7DB
:10473400230227D033021FD00A0040463100FDF780
:104744007FF9224E06400002000A824500D98FE715
:1047540031004E461D4D0B020CD032004046FDF791
:104764006FF9010000022940000A8245F3D90E00C6
:1047740025007DE73100EEE70E00E9E71548CAE7BA
:1047840005931EE7310055464E46104C0B020ED0E1
:1047940032004046FDF754F9010000022140000AAE
:1047A4008542F3D9A02424060E00250060E73100D9
:1047B400ECE70524C0E60525F6E604001D00F3E653
:1047C40028001C00B8E6C046000010A0FFFFFFF060
:1047D400F0020220999999A0E1239B00C35870B577
:1047E4000400002B05D0DB239B00C358DB0500D459
:1047F400A6E0DA239B00E3581B0F062B00D8A0E0A9
:10480400073B022B00D9AFE0DC239B00E358002BCD
:1048140000D0B0E00F22DB2311009B00E3581940C5
:1048240008000938092800D89AE0002001310F2532
:104834001A092A4012180A204042844694446646C3
:104844000020092E02D806322A4001300F25120119
:1048540051181A0A2A4012180A20404284469444E5
:1048640066460020092E02D806322A4001300F2560
:10487400120251181A0B2A4012180A204042844688
:10488400944466460020092E02D806322A4001309C
:104894000F25120351181A0C2A4012180A204042FC
:1048A4008446944466460020092E02D806322A40E3
:1048B40001300F25120451181A0D2A4012180A202B
:1048C40040428446944466460020092E02D80632AB
:1048D4002A400130120552180F211B0E0B401B18E1
:1048E40018000A38092801D806330B401B069B1808
:1048F4000F221D0213400A3B2D0A052B65D92B06F6
:104904001B0F0A3B052B5AD92B051B0F0A3B052B02
:104914004DD92B041B0F0A3B052B40D92B031B0F2E
:104924000A3B052B33D92B021B0F0A3B052B26D937
:10493400DB2300222D059B002D0DE5500433E250AE
:1049440070BDDC239B00E258002A11D00F22110015
:10495400043BE358194008000938092800D964E7E2
:1049640007310120114062E71B48FCF74BFBE7E7E6
:104974000122E250E4E71948FCF752FB4AE7C0235E
:10498400DB03ED182900164809F016FBD0E7C02315
:10499400DB02ED182900124809F00EFBC3E7C0231F
:1049A400DB01ED1829000E4809F006FBB6E7C02329
:1049B400DB00ED1829000A4809F0FEFAA9E7603582
:1049C4002900074809F0F8FA9EE70635290004484B
:1049D40009F0F2FA93E7C04620030220FC02022009
:1049E400E0010220F0B5CE46474680B589B00023E9
:1049F4006A4604001377002974D0DA239B00C15857
:104A04002033C358073B022B00D970E030270F2511
:104A1400BC460A0E2A40303216000A0D2A403032B3
:104A240090460A0C080A2A403032284091468444B1
:104A34000A0B08090B0F2A40284029403033303232
:104A4400303030313502484E000433402B43454664
:104A5400464E2D0433402B434D461B022D061B0AA4
:104A64002B43059363461B021343090603430B437D
:104A74000693E1239B00E358002B52D1DB239B00D8
:104A8400E2580433E358202559424B41384E5B42E7
:104A94003849AB43413330000F0008F011FF0121C6
:104AA40001222000344B0096FCF7EAF8DD239B003A
:104AB400E2580433E358300059424B415B42AB4364
:104AC4003900413308F0FCFE81220395D200A25C38
:104AD4000121029205AA019220000222274B00968E
:104AE400FCF7CEF809B0C0BCB946B046F0BDDE2331
:104AF4009B00C358002B23D030200F2584460B0B7A
:104B04002B40303308091A000B0A2B402840294057
:104B140011359C4420262023A846A9463030303144
:104B240090E7202202928122D200A25C012101920C
:104B340005AA009220000222114BFCF7A1F8D1E74C
:104B44000F220B0F0D0E080D090C154010400A40E2
:104B54002021303030323035804691462E002022DC
:104B64008C46202030336DE7FF00FFFFFFFF00FF7E
:104B74003CD40220D4FC01203C0302204403022044
:104B840030030220DB23F0B5534C9B00E25804337E
:104B9400E358524E59424B412021514F5B428B43C3
:104BA40097B041333900300008F08AFE4D4D320091
:104BB4004D49280008F084FEDD239B00E2580433AD
:104BC400E358300059424B4120215B428B4341332F
:104BD400390008F075FE3200444902A808F070FE5E
:104BE40002A9280015F0AEFCD423414E9B00E258E4
:104BF40040490023300008F063FE32003E4902A819
:104C040008F05EFE02A9280015F09CFCDA239B0044
:104C1400E2583A4902A808F053FE02A9280015F008
:104C240091FCF720F523E022800020589B0092009D
:104C3400E358A2583249009002A808F041FE280027
:104C440002A915F07FFCD7239B00E258531C3CD0EB
:104C54002C4ED205D20D30002B4908F031FE320023
:104C64002A4902A808F02CFE280002A915F06AFCC3
:104C7400D8239B00E258531C2BD0224ED205D20DD0
:104C84003000214908F01CFE3200214902A808F036
:104C940017FE280002A915F055FCD9239B00E25801
:104CA400531C14D0174CD205D20D2000164908F01D
:104CB40007FE2200174902A808F002FE280002A9F4
:104CC40015F040FC280017B0F0BD134AC8E7124A9B
:104CD400F0E7114AD9E7C046F0B702203CD40220DD
:104CE400D4FC012040D50220580302206C0302208A
:104CF400FCD3022080030220880302209C030220AC
:104D0400B40302202CD40220DC030220E40302209A
:104D1400F80302200C04022054030220F8B5DE46F6
:104D24004E46454657465F48E0B509F045F95E48AA
:104D340009F042F9FFF726FF01005C4809F03CF94D
:104D4400C8235B4E9B00F5185A4B002499465A4BD6
:104D54005A4F9B465A4B98462B684A46591C0ED0CC
:104D64001A0F1B011B090A2A00D199E00B2A00D152
:104D74008FE053485349824608F0A2FD5246210071
:104D84003800013409F018F90435082CE4D1D02393
:104D94009B00F4184C4B226899464C4B08259846C6
:104DA4006368511C10D04946404608F089FD4246CC
:104DB4002900380009F000F9092D0ED0A268083442
:104DC40009256368511CEED1591CECD12900380027
:104DD400384A09F0F1F8092DF0D10A2009F020F839
:104DE4003B4809F0E9F83B4809F0E6F88123DB0089
:104DF400F15C394809F0E0F8EA239B00F1583748A0
:104E040009F0DAF8EB239B00F158354809F0D4F89F
:104E1400EC239B00F158334809F0CEF8EE239B00B5
:104E2400F258043BF158304809F0C6F8E1239B00DE
:104E3400F1582E4809F0C0F8F8239B00F1582C488B
:104E440009F0BAF8DB239B00F61871782948C907E2
:104E5400C90F09F0B1F80A2008F0E2FF264809F06A
:104E6400ABF8264809F0A8F8254B2648196809F03C
:104E7400A3F8254B2548196809F09EF8244B2548CA
:104E8400196809F099F8F0BCBB46B246A946A04699
:104E9400F8BD2D2259464046C24608F011FD6DE783
:104EA4002B22F7E72C040220340402203C040220C5
:104EB400F0B70220200402204C04022054040220F3
:104EC4000CD402204004022080030220FCD30220E0
:104ED40064040220700402207C0402209404022052
:104EE400A8040220BC040220D0040220F4040220FE
:104EF400080502201C050220300502203805022086
:104F040014D802204005022004D802205C050220A7
:104F14001CD802207805022030B5B3B0050004F097
:104F24003BF8164804F062FA002822D029001448FD
:104F340008F0C6FC2800134914F012F9041E14D01A
:104F4400114D03E06946280009F036F82200C72114
:104F5400684614F097F90028F4D1200014F074F98D
:104F640004F038F8012033B030BD2900074809F0B7
:104F740023F804F02FF80020F5E7C04600FC0120D8
:104F8400AC050220DC130220A8FF0120BC0502208E
:104F9400F0B5C64600B5B2B0040003F0FDFF2148E9
:104FA40004F024FA002838D021001F4808F088FCB7
:104FB40020001E4914F0D4F86D468046002828D0FD
:104FC4001B4F4246C721280014F05CF9002816D074
:104FD4002B782A2BF5D1174C260058362A002100AD
:104FE4003800636898470028EBD10834B442F5D1FF
:104FF4004246C721280014F045F90028E8D140466C
:1050040014F022F903F0E6FF012032B080BCB84668
:10501400F0BD2100084808F0CFFF03F0DBFF0020BB
:10502400F3E7C04600FC0120AC050220DC1302209B
:10503400F0B7022068350220BC05022010B5040038
:1050440021000748FFF7A4FF802200230121D2009A
:10505400A350043AA350083AA150024AA35010BDE9
:1050640000BC02200404000010B502490248FFF706
:105074008FFF10BDF0B70220D0050220F0B5D64650
:105084004F464646C0B58D4C0500A54403A815F00F
:10509400BBFB03A98A4808F08FFF03F07DFF894812
:1050A40004F0A4F9002800D1D2E00A2203A908A838
:1050B40010F0B2FB002800D0C7E0834908A812F022
:1050C40029FDDB239B00EA58804908A812F022FD41
:1050D400DC239B00EA587E4908A812F01BFDD42368
:1050E4009B00EA587B4908A812F014FDD7239B00C3
:1050F400EA58794908A812F00DFDD8239B00EA5814
:10510400764908A812F006FDD9239B00EA58744991
:1051140008A812F0FFFCDA239B00EA58714908A89A
:1051240012F0F8FCDF239B00EA586F4908A812F03C
:10513400F1FC6E4B6E491A6808A812F0EBFCC82308
:105144009B009946A944A8464E460024694F220074
:10515400390008CE08A8013412F0DCFC082CF6D182
:10516400C823654C9B0021000822EB5808A812F0C4
:10517400D1FCC9239B002100EB58092208A812F096
:10518400C9FC5E4908A812F0C5FC5D4B0024072643
:105194009A465C4F264266D0A3003900EA5808A814
:1051A400013412F0B7FCC82CF4D1574E2C00310056
:1051B40008A812F0AFFC00239134FF3404CD9B18EF
:1051C400A542FBD1514DAA68934267D0AA69934284
:1051D40000D171E04E494F4F00914F4A390008A861
:1051E40012F098FC002304CC9B184C45FBD1AA6810
:1051F400934258D0AA6993425AD045490091474AEC
:10520400390008A812F086FC0023414604C98846E8
:105214009B184945F9D1AA689A423AD0AA6993429F
:1052240048D03B493E4A009108A8390012F072FC6C
:10523400310008A812F06EFC08A811F07BFC041ED3
:105244001DD103F0C7FE012005E0364808F0B4FE86
:1052540003F0C0FE0020A0239B009D44E0BCBA469E
:10526400B146A846F0BD514608A812F053FCA3006D
:105274003900EA5808A812F04DFC01348AE713F00B
:1052840063FF22000100284808F096FE03F0A2FE06
:10529400E0E700221201AD186968C3E70022120199
:1052A400AA18516897E700221201AA185168A5E7C5
:1052B4000122F9E70122EDE70122F0E780FDFFFF7B
:1052C400F405022000FC01200C060220380602200E
:1052D4004C0602206006022074060220900602207A
:1052E400AC060220C8060220E406022044D70220AD
:1052F400FC0602201807022024070220340702209B
:105304004007022044070220C4FD01209CA902207A
:10531400D0110220DC0502204C070220580702208D
:1053240064070220000602207007022030B5050041
:105334000C4C85B022000C4B0C490D4804F0ECF8E1
:105344000C4B21001A686846013208F0B9FA694624
:105354002800FFF793FE6946074808F02DFE05B0C4
:1053640030BDC0469407022088070220A40702200B
:1053740000FC012090D30220B007022010B5094898
:1053840003F032FE002808D0074C08482100FFF73C
:1053940075FE2000FFF7C0FD10BD0549054808F063
:1053A4000BFEF1E700FC0120D0050220F0B702203B
:1053B40064D40220C8070220002370B5204D82B0B7
:1053C4000C002B700B00072916D9083B012B02D9BE
:1053D400280002B070BDD0339B00C2581948002386
:1053E4000600194908F06CFA230010212800174A16
:1053F400009608F079FAEBE7C8339B00C3585A1CAF
:105404001BD01A0F1B011B090A2A0DD00B2A12D01C
:105414000F481049060008F053FA33002200280010
:105424000A4908F04DFAD3E72B2209480A49060035
:1054340008F046FAF1E72D22F7E7084BEEE7C046FD
:10544400DCD30220FCD3022080030220D4070220F4
:105454000CD40220400402204C0402202004022028
:10546400F0B5D64646464F46C0B5544E0100824676
:10547400300015F0C9F9524B5249180032009946D0
:10548400884608F099FD3378002B5AD02B2B01D194
:105494000B3B33707378002B53D02B2B01D10B3B78
:1054A4007370B378002B4CD02B2B00D170E0F378C1
:1054B400002B46D02B2B6ED03379002B41D02B2BD5
:1054C4006CD07379002B3CD02B2B01D10B3B737127
:1054D400B379002B35D02B2B01D10B3BB371F3796E
:1054E400002B2ED02B2B01D10B3BF371337A002BE5
:1054F40027D02B2B01D10B3B3372737A002B20D096
:105504002B2B01D10B3B7372B37A002B19D02B2BAD
:105514004BD0F37A002B14D02B2B49D0337B002BA8
:105524000FD02B2B47D0737B002B0AD02B2B01D110
:105534000B3B7373B37B002B03D02B2B01D10B3BA1
:10554400B373340000252027300015F065F9854237
:1055540006D223782D2B12D0202B10D0302B11D033
:1055640032004146484608F027FD3100504615F008
:105574004BF9E0BCBA46B146A846F0BD27700135E8
:105584000134E1E76378302BF8D020237355E7E743
:105594000B3BB3708BE70B3BF3708DE70B3B337125
:1055A4007379002B00D08FE7CBE70B3BB372B0E7E6
:1055B4000B3BF372B2E70B3B3373B4E734D70220EF
:1055C400DC070220981B0220F8B50023234C23801B
:1055D400030F0A2B3FD00B2B2CD12D27204D03007A
:1055E4003A0020490601280008F06AF93A001E49E9
:1055F400200008F065F90622360F921BE91C2000F2
:1056040014F0C6FF200015F007F9022217492018EC
:1056140006F0B4FDA91B32000931200014F0B8FFD4
:105624002100280015F0F0F8114B1B68002B0ED157
:105634002800F8BD2027092BD0D8094D02000D49B8
:10564400280008F03DF90A4B1B68002BF0D0280015
:10565400FFF706FFECE72B27C0E7C0464CD4022037
:105664001CD40220E8070220D8FC012038010220C3
:1056740044D70220F4060220F0B5C6463B4B002472
:1056840098461D0000B53A4F0DE02E683000FFF734
:105694009BFF2100030032003800013408F08CFC29
:1056A400C82C0AD004350521200005F0ADFD0029E1
:1056B400EBD10A2008F0B4FBE7E744460A2008F0DF
:1056C400AFFB434600229134FF3402CB5218A3426D
:1056D400FBD1284EB3689A4233D0B3699A4243D07F
:1056E400254B264FC8253800254908F065FC0022C3
:1056F400AD00454408CCD218AC42FBD1B3689A4201
:1057040024D0B3699A422BD01B4B38001D4908F0B2
:1057140053FC0022414608C98846D218A942F9D14F
:10572400B368934217D0B3699A421BD0124B380026
:10573400154908F041FC0A2008F072FB80BCB84609
:10574400F0BD00231B01F3185B68CAE700231B01AB
:10575400F3185B68D9E700231B01F6187368E6E7C2
:105764000123F4E70123F7E70123EBE7F0B7022075
:10577400F00702209CA90220D011022094050220E7
:10578400040802205807022064070220D423CD21F4
:1057940070B59B00C35804001A0290B0120A490065
:1057A4008A4254D2A0221B011B0912061343D62598
:1057B400D422AD00635100239200A3500432A350BD
:1057C400DB239B00E2580433E358234E59424B41F8
:1057D40020215B428B4341332049300008F070F8AC
:1057E4000122012120001E4B0096FBF749FA625961
:1057F400531C2ED01B4ED205D20D30001A4908F08E
:105804005FF8625912011949120903A808F058F8FF
:10581400174902AA03A814F0B7FD029BC72B12DD97
:10582400C7239B00E058FFF7CFFE06220190012119
:105834002000104B0096FBF723FAFD2301229B0066
:10584400E25010B070BDDA43D2171340E9E70A4BB7
:10585400ADE70A4ED6E7C0463CD40220D4FC012072
:10586400DCFC01202CD40220DC030220C4FA012039
:10587400DC12022018080220990100A0540302201F
:10588400F0B5C646D42300B59B00C7580833C258A8
:10589400364E90B0120131001209040003A808F03A
:1058A4000FF8334B02AA190003A8984614F06CFDB4
:1058B400029BC72B4FDDC7239B00D422E750002354
:1058C4009200A3500432A350DB239B00E25804331C
:1058D400E358D62559424B412021264F5B428B4346
:1058E40041332549380007F0EBFFAD0001220121C7
:1058F4002000224B0097FBF7C3F96259531C32D0A6
:105904001F4FD205D20D38001E4907F0D9FF625946
:1059140012013100120903A807F0D2FF414602AA7E
:1059240003A814F031FD029BC72B18DDC7239B008D
:10593400E058FFF749FE0622019001212000124B96
:105944000097FBF79DF9FD2301229B00E25010B064
:1059540080BCB846F0BDDA43D2171340ACE7DA4353
:10596400D2171340E3E7094FD2E7C046C4FA012037
:10597400DC1202203CD40220D4FC0120DCFC0120F7
:105984002CD40220DC030220180802205403022035
:1059940070B5D625AD004159244A90B00400FCF7F7
:1059A4004FF8CD230002000A5B00984230D39A22BC
:1059B4001F4BFF32D6261F4DB600A3511E492800A7
:1059C40007F07EFFA2591D491201120903A807F02E
:1059D40077FF1B4902AA03A814F0D6FC029BC72B2D
:1059E40012DDC7239B00E058FFF7EEFD062201906D
:1059F40001212000134B0095FBF742F9FD230122FE
:105A04009B00E25010B070BDDA43D2171340E9E7AF
:105A1400064A20006159FCF713F8A0230201120979
:105A24001B061343C205D20DC4E7C046010000A003
:105A3400990100A02CD40220DC030220C4FA012026
:105A4400DC1202201808022070B5D625AD00415999
:105A5400244A90B00400FBF7F3FFCD230002000AB0
:105A64005B00984230D39A221F4BFF32D6261F4D3B
:105A7400B600A3511E49280007F022FFA2591D4970
:105A84001201120903A807F01BFF1B4902AA03A86D
:105A940014F07AFC029BC72B12DDC7239B00E0584D
:105AA400FFF792FD0622019001212000134B00957F
:105AB400FBF7E6F8FD2301229B00E25010B070BD15
:105AC400DA43D2171340E9E7064A20006159FBF78D
