:020000041000EA
:1000000000B5324B212058609868022188439860DF
:10001000D860186158612E4B002199600221596106
:100020000121F02299502B49196001219960352056
:1000300000F044F80222904214D00621196600F024
:1000400034F8196E01211966002018661A6600F04E
:100050002CF8196E196E196E052000F02FF8012189
:100060000842F9D1002199601B49196000215960AB
:100070001A491B48016001219960EB211966A021F2
:10008000196600F012F800219960164914480160C1
:100090000121996001BC002800D000471248134993
:1000A000086003C880F30888084703B5996A0420EC
:1000B0000142FBD001200142F8D103BD02B5186610
:1000C0001866FFF7F2FF186E186E02BD00000240BE
:1000D000000000180000070000035F00212200005C
:1000E000F4000018222000A00001001008ED00E03C
:1000F00000000000000000000000000074B24E7A12
:1001000000200420F7010010C3010010C5010010F9
:10011000C1010010C1010010C1010010C101001097
:10012000C1010010C1010010C1010010C701001081
:10013000C1010010C1010010C9010010CB01001065
:10014000CD010010CD010010CD010010CD01001037
:10015000CD010010CD010010CD010010CD01001027
:10016000CD010010CD010010CD010010CD01001017
:10017000CD010010CD010010CD010010CD01001007
:10018000CD010010CD010010CD010010CD010010F7
:10019000CD010010CD010010CD010010CD010010E7
:1001A000CD010010CD010010CD010010CD010010D7
:1001B000CD010010CD010010CD010010CD010010C7
:1001C00000BE00BE00BE00BE00BE00BEEFF3058054
:1001D000103800BEF2EB887190020010B4020010DB
:1001E0003802001090A31AE721482249086006C887
:1001F00081F30888104720480068002801D01C4877
:10020000F3E70DA40ECC002902D000F012F8F9E7B4
:100210001A491B4A002000E001C19142FCD1194952
:100220008847194988471949884700BEFDE701C931
:1002300001C29A42FBD37047B4020010C0000020F4
:1002400090E3012084E5011090E3012078B70220BB
:100250006CB9021000000420000004206CB90210E8
:10026000001004200010042000000000704700006F
:100270000000000008ED00E0000000D078B7022088
:10028000E4DA02208DD20020717D00204DD20020C2
:10029000F0210220FC210220082202201422022048
:1002A000202202202C220220382202204422022076
:0402B00030250220D3
:1002B400F8B5C0460448054B10B5834203D0044B3F
:1002C400002B00D0984710BD78B7022078B70220E1
:1002D4000000000006480749091A8B10C90FC91805
:1002E40010B5491003D0044B002B00D0984710BD23
:1002F40078B7022078B702200000000010B5074C40
:100304002378002B09D1FFF7D5FF054B002B02D032
:10031400044800E000BF0123237010BD60C3022025
:100324000000000090E30120054B10B5002B03D022
:100334000449054800E000BFFFF7CCFF10BDC046EC
:100344000000000064C3022090E301207047C0460F
:10035400F52301229B00C2507047C046F7230122B7
:100364009B00C2507047C04681230022DB00C2506C
:10037400FF22012392008350083A83507047C046FD
:100384008122D200835801338350FD2301229B0034
:10039400C25070478122D2008358002B01DD013BFB
:1003A4008350FD2301229B00C2507047FF2300228B
:1003B4009B00C250083B0132C25070478022012387
:1003C4000021D2008350043A8150083A8350704788
:1003D400FD220121014B92009950704740BA02203E
:1003E400084B094809491860596009480949986047
:1003F400D960094809491861596109480749986150
:10040400D961704740BA0220630352035600561064
:10041400500553055205510554055305510751061E
:10042400002400240A4AC8201168B8224A43094B10
:1004340030B59B185969084C0023400003E0E25092
:100444000433834202D0CA58551CF8D130BDC0468B
:10045400F0D50220D097022040BA0220B8220A4BDD
:1004640019680A4B4A431960094B01219B18002261
:1004740019611A76074B1960074B1960074B1A600C
:10048400074B1A707047C046F0D5022044DA0220A8
:10049400D09702204CDA022050DA02209CD90220A4
:1004A400A0D90220FEE7C046D0220B4B0B480C49D2
:1004B400920010B59C182060616000210948203A20
:1004C4009A1803C2084A09481A600DF071FA0CCC54
:1004D40007480DF06DFA10BD40BA02203254760878
:1004E400305476085634120018141014E0F3012026
:1004F400F0F3012010B50E480DF0D8F90D4B0E485D
:100504001A680E4B19680DF053FA0D4B0D48196813
:100514000DF04EFA0C4B0D481A680D4B19680DF08E
:1005240047FA0C4B0C4819680DF042FA10BDC0464E
:1005340008F40120C0D5022018F40120C8D50220F7
:10054400C4D502203CF40120D0D5022054F401206B
:10055400B8D50220CCD5022068F4012010B5054C92
:10056400054821680DF024FA2068253807F088FF33
:1005740010BDC046D4D5022074F4012010B50A2061
:1005840007F07EFF10BDC04610B5092007F078FFC4
:1005940010BDC04610B5152007F072FF10BDC0464F
:1005A40010B5162007F06CFF10BDC04610B517201B
:1005B40007F066FF10BDC04610B5072007F060FFC6
:1005C40010BDC04610B51A2007F05AFF10BDC04632
:1005D40010B5022007F054FF10BDC04610B5062028
:1005E40007F04EFF10BDC04610B5052007F048FFC8
:1005F40010BDC04610B5032007F042FF10BDC04631
:1006040010B5042007F03CFF10BDC046FD220021B8
:1006140010B5034B92001820995007F031FF10BD1C
:1006240040BA0220FD22002110B5034B920019208C
:10063400995007F025FF10BD40BA0220F0B5002202
:10064400C646114B114C00B525001A600023012742
:1006540098460F4E183504E043462B702761013548
:10066400B8343100206819F087FD0028F4D1012244
:10067400084B1860084B1A60084B1860084B187038
:1006840080BCB846F0BDC04644DA0220D0970220B0
:1006940078F401204CDA022050DA02209CD902209E
:1006A400A0D9022030B583B005000A49100001AA80
:1006B40019F066FB0400012803D00024200003B0D5
:1006C40030BDDB2301999B00E95003480DF070F91C
:1006D400F4E7C04680F4012090F4012030B583B0E3
:1006E40005000A49100001AA19F04AFB0400012878
:1006F40003D00024200003B030BDDC2301999B000B
:10070400E95003480DF054F9F4E7C046A8F4012079
:10071400B8F40120002330B583B005000A49100065
:1007240001AA019319F02CFB0400012803D0002432
:10073400200003B030BDD42301999B00E950034845
:100744000DF036F9F4E7C046D0F40120E0F40120BE
:1007540010B582B001AB0400114910006A4619F0CB
:100764000FFB0023022802D0180002B010BD00992C
:10077400019A01290BD002290DD0002902D1D723D7
:100784009B00E25007480DF013F90123ECE7D8234E
:100794009B00E250F6E7D9239B00E250F2E7C04603
:1007A400FCF4012014F5012030B583B005000A499A
:1007B400100001AA19F0E4FA0400012803D000246F
:1007C400200003B030BDDA2301999B00E9500348AF
:1007D4000DF0EEF8F4E7C04634F5012050F50120A1
:1007E40030B583B005000A49100001AA19F0C8FA0F
:1007F4000400012803D00024200003B030BDDF230F
:1008040001999B00E95003480DF0D2F8F4E7C04683
:1008140070F5012084F5012030B5284C05002368CB
:1008240010008FB0002B02D100200FB030BD0DABF3
:1008340005930CAB04930BAB03930AAB029309AB84
:10084400019308AB00931E4907AB06AA19F098FA66
:10085400082804D000231B4A23601360E4E7194CE2
:1008640022689300EB18590717D106980799186066
:100874005960089809999860D9600A980B99186189
:1008840059610C980D999861D961130007320833A6
:10089400920023600120A950C7E7069919600799BF
:1008A4005960089999600999D9600A9919610B9955
:1008B40059610C9999610D99D961E6E704D6022032
:1008C4009CF5012008D6022010B508490400084808
:1008D40008F0CAFA80230022DB00E250FF22012341
:1008E4009200A350083AA35010BDC04650BE022047
:1008F400B8F50120F0B5D6464F464646C0B5174870
:1009040082B00CF0D3FF164B00259946154B164CBC
:100914009846164B164F9A4626683900300019F04F
:100924002BFC00280CD022694346002A00D05346F1
:100934002200183200922900320048460DF038F89F
:100944000135B8341E2DE7D10A200CF065FF02B042
:10095400E0BCBA46B146A846F0BDC046D0F5012079
:10096400E0F50120C8F50120D0970220C0F5012050
:1009740078F4012070B50A200CF04EFF094C0A4EA1
:100984002500F935FF35626813782A2B03D030002F
:1009940021780DF00DF80C34AC42F4D103480DF07D
:1009A40007F870BD70370220F8F5012004F6012025
:1009B400F0B5DE4657464E464546E0B5DDB08022EA
:1009C40000211CA80BF0D0F8802200213CA80BF0D9
:1009D400CBF82D480CF06AFF2C4B01932C4B9A4614
:1009E4002C4B9B46FA2080000CF0CAFE023044D106
:1009F400019B03AF1B6800261B011B0998460023BB
:100A04003B70013399463CAD1CAC18E02368002BC5
:100A140007DD013B2360002B03D12A68002A00D0A4
:100A24002B60380019F0F4FB0222514638180BF001
:100A3400A1F804355CAB01360434AB42D2D04B464A
:100A44004246B3401A42E1D0380019F0E1FB0222D9
:100A5400594638180BF08EF82368132BE9DC05335C
:100A64002360072BE5DD2B68002BE2D14B463100D8
:100A74002B6009480CF09CFFDBE75DB0F0BCBB4683
:100A8400B246A946A046F0BD20F60120BCDA0220F9
:100A9400480902206816022030F6012070B5274864
:100AA4000CF086FF264D274C3DE0D0230122022185
:100AB4001B069A6199610231996180000431996140
:100AC40041598A405A61D0231B0659685B68C9069C
:100AD400C90F9B0601D502231943D0231B065B686B
:100AE4005B0601D504231943D0231B065B681B0650
:100AF40001D508231943D0231B065B68DB0501D508
:100B040010231943D0231B065B689B0501D52023C2
:100B14001943D0231B065B685B0501D540231943A9
:100B240020000CF045FFFA2080000CF029FE831C05
:100B3400C9D030380328B8D970BDC04638F6012072
:100B4400D81F022074F401200021002010B509F000
:100B540013FFC046100010B50722084919F048FADF
:100B64000023002801D0180010BD0122044B0548C1
:100B74001A600CF01DFF0123F5E7C04644F601207E
:100B840004D602204CF601207047C04608B4F0B5E4
:100B9400CE4647468946C82180B5E6B06DAB10CB3A
:100BA40080462200490002A801930CF0ADFB02A884
:100BB40019F02EFB10282CD81C491D480CF0F8FE07
:100BC4001C4D22001021019B28000CF09DFB2800E5
:100BD40019F01EFB0F26361A002E0DDD0024164FC9
:100BE40002E0280019F014FB02223900281801340D
:100BF4000AF0C0FFA642F4D1FD23424649469B00B9
:100C0400D15066B0C0BCB946B046F0BC08BC01B017
:100C14001847210009480CF0CBFE02A908480CF043
:100C2400C7FE08480CF042FEC6E7C046741E022008
:100C34008CF60120A7CD02204809022060F601208D
:100C44006CF6012080F6012008B4F0B5C646C82130
:100C540000B5E7B06DAB10CB80462200490002A876
:100C640001930CF051FB02A819F0D2FA10282BD8EA
:100C74001B491C480CF09CFE1B4D22001021019BBB
:100C840028000CF041FB280019F0C2FA0F26361A8E
:100C9400002E0DDD0024154F02E0280019F0B8FAEB
:100CA40002223900281801340AF064FFA642F4D164
:100CB400FD23012241469B00CA5067B080BCB84660
:100CC400F0BC08BC01B01847210009480CF070FEC4
:100CD40002A908480CF06CFE07480CF0E7FDC7E7D2
:100CE400741E02208CF6012048CD022048090220FF
:100CF40060F601206CF6012080F60120D421DB236C
:100D040030B5890042589B0083B00400C250DC20F7
:100D140000230C4D8000235063500431635028009D
:100D2400094920330CF0C8FA012201212000074BA5
:100D34000095FFF789FFFD2301229B00E25003B0D9
:100D440030BDC0468CD6022098F60120A0F60120C2
:100D5400F0B5C64600B5254886B00CF029FE002340
:100D6400234C244F2360244B9846FA2080000CF037
:100D740007FD831C37D03928F7DC2F2809DC1B2812
:100D8400F3D81E4B0341DB07EFD406B080BCB84652
:100D9400F0BD2268303893009B185B001B183900A3
:100DA400404623600CF004FE1548164B06681B6889
:100DB400704270415A4253412025134A40422168EF
:100DC40012685B42A8434130AB4341330290019225
:100DD40000920E480A000CF0EBFDFA2080000CF0A3
:100DE400CFFC831CC7D10CF0B7FCBEE7B0F60120E2
:100DF400F0D502205CDA0220DCF60120FFDBFFF7ED
:100E0400E0CB0220E4CB0220DCCB0220F4F601206C
:100E14000FB400B5B5B036AB04CBC82101A800931C
:100E24000CF072FA35B008BC04B018470FB400B522
:100E3400B5B036AB04CBC82101A800930CF064FA1A
:100E440001A903480CF0B4FD35B008BC04B0184740
:100E540040F701200FB470B5AAB02EAB04CBA0218B
:100E640001A800930CF050FA01A919480CF0A0FD58
:100E7400184D9E24280019F0CBF9241A060001A865
:100E840019F0C6F932000300210013480CF090FD5C
:100E9400631C15D0280019F0BBF902220F49281849
:100EA4000AF068FE01A92200280019F06DF8290053
:100EB4000B480CF07DFD2AB070BC08BC04B0184788
:100EC40021232200290007482B700CF071FDF2E762
:100ED40058F70120A0D902206CF70120480902200C
:100EE400A4F7012094F7012010B50020D02408F0C5
:100EF40071F9012324066362012008F06BF90223CF
:100F04000220636208F066F904230320636208F098
:100F140061F908230420636208F05CF910230122BC
:100F2400A3620021042008F043F9052008F052F9D7
:100F340020230122A3620021052008F039F90620AC
:100F440008F048F940230122A3620021062008F09A
:100F54002FF9072008F03EF980230122A362002123
:100F6400072008F025F9082008F034F980235B00F5
:100F7400A36201220021082008F01AF9092008F0D0
:100F840029F980239B00A36201220021092008F093
:100F94000FF90A2008F01EF98023DB00012200214A
:100FA4000A20A36208F004F910BDC04610B5152943
:100FB4000FD018291CD0162910D0172922D00729A0
:100FC4001BD90B00083B012B0DD91148FFF720FF5B
:100FD40003E0DB2300219B00C05810BDD6239B00F7
:100FE4000021C058F9E76031C900411803C9F4E78A
:100FF400D4239B000021C058EFE7C8318900405832
:101004000021EAE7E0239B00C058C117E5E7C0468A
:10101400B8F70120F0B5DE4657464E464546E0B5E2
:1010240099B01693704B8B460B93704B002113931E
:101034006F4B129014936F4B002017930F2315924C
:10104400002400229A460C900D912500203D74D472
:101054005346AB4099465346A34012989846494696
:1010640018405B460B40002D00DA8FE01900E94080
:101074000491E34005934346494615981840169B4E
:101084000B40002D00DA77E01900E9400691E340B7
:10109400049E059F079300230698079936184F412D
:1010A400099308920899099A76185741069807995E
:1010B400049A059B00900191029603970B9913984B
:1010C4000CF076FC434602934B4603935346A340ED
:1010D40058461299DA1702400B40009301925B467E
:1010E4000A0014980CF064FC0A225242D317921995
:1010F4007B41002B27D1092A25D800230622B618C4
:101104005F4153461E40002D56DB3300AB40119324
:10111400A6400C9A0D9B10961098119912184B41E9
:1011240004340B9917980C920D930CF041FC402C4D
:1011340048D025000122203D8AD5202351461B1B7F
:10114400D940894687E7002D2ADB3300AB400F9353
:101154003300A3400E930E980F990C9A0D9B12180E
:101164004B4104340B9917980C920D930CF020FC0E
:10117400402C27D0002268E720211E00E040091BF4
:101184008E408446B4446146069180E720211E00C7
:10119400E040091B8E408446B4446146049168E7EC
:1011A400202332001B1BDA4013003A00A24094466D
:1011B4009C4463460F93CBE7202332001B1BDA4089
:1011C4001192A5E70C9D0D9E34040B992A00230C63
:1011D40009480CF0EDFB2800210C19B0F0BCBB460B
:1011E400B246A946A046F0BD981F022098F80120F7
:1011F400C0F8012068F80120E8F80120F0B5DE46C7
:1012040057464E464546E0B589B00790CC480C0099
:1012140016000CF0CDFBCB4B22009946CA4B494635
:101224009A46270F330050460CF0C2FB3B000A3BA2
:10123400350F012B00D90A272B000A3B012B00D9BB
:101244000A252A003900C14824010CF0B1FB3601FB
:101254002309984636090595B34200D9059732000B
:101264004146BB48059B0CF0A3FB0B2F00D10FE1BB
:101274000A2D00D11FE1B74D28000CF099FBB64BA5
:101284009E1B33004946424650460CF091FB280011
:101294000CF08EFB00239946B04B00210393B04B16
:1012A40000249A460F239B464B46B1461E00AD4D83
:1012B4005B464846A34042461A400340E340E240AE
:1012C400D7187F180398290000970CF071FB3B0096
:1012D4000A3B092B0ED85B4606371F40A740F61978
:1012E40032002900504604340CF062FB202C0DD04F
:1012F4000121DDE7A740F6193200290050460434E5
:101304000CF056FB202C01D00021D1E7964B36027D
:10131400360A29003200180007930CF049FB934B5E
:101324003100180006930CF043FB914B00279846BC
:101334000F2399468F4B9B462B004546984602E067
:101344000437202F14D04C46BC403440FC402800C5
:1013540021000A3C0CF02CFB052CF1D80623BB40E1
:10136400F6183100584604370CF022FB202FEAD13E
:10137400434631000698A8461D000CF019FB3100C5
:101384007D480CF015FBF0231B051E4200D18AE0BA
:101394007A4B00211E400F23B346002700269946AE
:1013A4004A465B46BA401A407B427B41FA40FB40C6
:1013B400D41864180398290000940CF0F9FA230057
:1013C4000A3B092B0ED84B4606341C40BC40361948
:1013D40032002900504604370CF0EAFA202F0DD0D1
:1013E4000121DDE7BC40361932002900504604379C
:1013F4000CF0DEFA202F01D00021D1E73602360AA4
:101404002900320007980CF0D3FA310006980CF04A
:10141400CFFA0F239946574B00279B462B0045468E
:10142400984602E00437202F14D04C46BC40344088
:10143400FC40280021000A3C0CF0BAFA052CF1D833
:101444000623BB40F6183100584604370CF0B0FAB6
:10145400202FEAD1434631000698A8461D000CF01F
:10146400A7FA059B0B2B00D1DDE0059B36013A4A18
:1014740036091C07344321004148121B0CF098FA2A
:10148400200009B0F0BCBB46B246A946A046F0BD58
:101494000B2D10D02F4D28000CF08AFA42462E4B0B
:1014A4009B1A9846EDE637480CF082FA310036482C
:1014B400FFF7AEFC6CE735480CF07AFA002304938E
:1014C400264BB1460393264B00219A460F23002650
:1014D4009B46244D5B464846B34042461A4003406F
:1014E400F340F240D41864180398290000940CF0D7
:1014F4005FFA23000A3B092B12D85B4606341C40D2
:10150400049BB4409C46A444634629001A005046F8
:10151400043604930CF04CFA202E39D00121D9E77B
:10152400049BB4409C46A444634629001A005046D8
:10153400043604930CF03CFA202E29D00021C9E78C
:1015440000F90120881F022024F9012038F9012024
:101554004CF9012074F90120999999004CF8012063
:1015640068F80120AC1F022084F80120D4F7012080
:10157400E0F70120F0F701209CF90120FFFFFFF0C4
:10158400C8F90120A4F90120B8F9012088F9012043
:10159400049B29001C02240A22005D480CF008FA6E
:1015A4005C4B2100180003930CF002FA5A4B210003
:1015B400180006930CF0FCF9584B002698460F23AC
:1015C4009946093B9B46564B9A464346B8461F00EC
:1015D40002E00436202E14D04D46B5402540F54097
:1015E400380029000A3D0CF0E3F9052DF1D85B46DB
:1015F400B340E4182100504604360CF0D9F9202EEB
:10160400EAD1210006980CF0D3F9210003980CF0DC
:10161400CFF9F0231B0547461C4269D12401240954
:101624003F073C432CE73F4B00219B1B9B460F236A
:101634000026002799464A465B46BA401A407B4238
:101644007B41FA40FB40D4186418039829000094A5
:101654000CF0AEF923000A3B092B0ED84B46063496
:101664001C40BC40361932002900504604370CF0A7
:101674009FF9202F0DD00121DDE7BC40361932003F
:101684002900504604370CF093F9202F01D0002193
:10169400D1E73602360A2900320007980CF088F99F
:1016A400310006980CF084F906239A461C4B002559
:1016B4000F27994602E00435202D14D03C00AC409D
:1016C4003440EC40404621000A3C0CF071F9052CF2
:1016D400F1D85346AB40F6183100484604350CF0B7
:1016E40067F9202DEAD1310006980CF061F9BCE6C7
:1016F4000D480CF05DF921000C48FFF789FBF82236
:101704000123079992008B50043A8B5086E7C04618
:1017140084F801209CF90120D4F70120E0F701208E
:10172400F0F7012099999900A4F90120B8F9012052
:10173400F0B5DE46454657464E469046E0B50400B1
:1017440099B0D4480D00994693460CF031F94346BC
:1017540000934B46D049D148019322002B001091AD
:1017640011900CF025F92B0F9A464B461B0F984607
:1017740053460A3B012B01D90A239A4643460A3BA6
:10178400012B01D90A23984642462D015146C448EB
:101794000CF00EF92B0909934B4608941B011D0903
:1017A4005C46089A099BAB4200D90EE100D109E1DD
:1017B40043460B93029300940195089A099BB948F8
:1017C4000CF0F6F853460B2B00D101E143460A2BEB
:1017D40000D116E1B4480B990CF0EAF8B34AB44BC3
:1017E400121BAB4114001D00089A099B009401953B
:1017F400109911980CF0DCF8AE480CF0D9F8089860
:10180400099922002B00FFF705FC08900991AA48CA
:10181400AA49089A099B0C9110900CF0C9F8A84B9E
:10182400002498460F239A46A64BA146089C099D7E
:101834009B4615E01A00CA4016004A46D34040466B
:1018440032001F000CF0B4F80A225242D317921946
:101854007B41002B17D0042399444B46402B28D0BE
:101864004B4652469A404946D3172B4022402039D2
:10187400E0D548462021091A18008840010048464E
:10188400C2408E18D9E7052AE5D84A460633934064
:101894000493DB170593049A059BA4185D415846ED
:1018A4002B0022000CF084F8042399444B46402B6F
:1018B400D6D1854822002B000894099504900CF099
:1018C40077F82B00220081480CF072F8F0231B03F8
:1018D4002B4200D18CE0089C099D7D490122002304
:1018E40020002940FFF796FB0B00020006000F00C2
:1018F40010980C990CF05CF80F2300249A46714B55
:10190400A1469B4615E01A00CA4014004A46D3403B
:10191400404622001D000CF04BF80A225242D31715
:1019240012196B41002B17D0042399444B46402BCA
:1019340028D04B4652469A404946D3173B40324042
:101944002039E0D548462021091A180088400100B2
:101954004846C2408C18D9E7052AE5D84A460633DA
:1019640093400693DB170793069A079BB6185F41CB
:1019740058463B0032000CF01BF8042399444B46B4
:10198400402BD6D13B00320004980CF011F80B9B8D
:101994000B2B00D1DCE00B9A3B011B0915071D43FF
:1019A4004C4B32009B1B00934B482B0034000BF034
:1019B400FFFF2000290019B0F0BCBB46B246A9467F
:1019C400A046F0BD5A4500D8F2E653460B93F1E623
:1019D40043460B2B15D00B9933480BF0E9FF0898BD
:1019E4000999324A324B121A8B4108920993FBE649
:1019F4003A480BF0DDFF089A099B3948FFF708FACB
:101A040069E738480BF0D4FF0898099922002B00A5
:101A1400FFF700FB0D00040000262C4F02000B0012
:101A240038000BF0C5FF2B002200244922480BF09C
:101A3400BFFF234BB1469846224B04979B4615E0C3
:101A44001A00CA4016004A46D340404632001F00DE
:101A54000BF0AEFF0A225242D31792197B41002B9E
:101A640042D0042399444B46402B53D04B460F227B
:101A74009A404946D3172B4022402039E0D54846A6
:101A84002021091A1800884001004846C2408E18D7
:101A9400D9E7C04600F90120781F0220DCF90120B3
:101AA40038F90120F8F9012034FA0120999999991B
:101AB4009999000074F9012000F80120C01F022048
:101AC400E0F7012014F8012028F8012028FA012069
:101AD400FFFF00F0999999006CFA0120A4F9012004
:101AE400B8F9012088F90120052ABAD84A460633F4
:101AF40093400C93DB170D930C9A0D9BA4185D4136
:101B040058462B0022000BF053FF042399444B4604
:101B1400402BABD1049F22002B003D480BF048FF23
:101B24002B00220038000BF043FFF0231B032B4251
:101B340005D153462D012D091B071D4339E73548AF
:101B44000BF036FF22002B003348FFF761F9F0E772
:101B540032480BF02DFF324832490122801BB94133
:101B64000023FFF757FA0B00020006000F0010983D
:101B74000C990BF01DFF0F2300249A462A4BA14613
:101B84009B4615E01A00CA4014004A46D34040461A
:101B940022001D000BF00CFF0A225242D317121927
:101BA4006B41002B17D0042399444B46402B28D07B
:101BB4004B4652469A404946D3173B40324020395F
:101BC400E0D548462021091A1800884001004846FB
:101BD400C2408C18D9E7052AE5D84A460633934013
:101BE4000E93DB170F930E9A0F9BB6185F4158465E
:101BF4003B0032000BF0DCFE042399444B46402B9F
:101C0400D6D132003B0004980BF0D2FEC3E6C046A6
:101C140028F80120A4F90120B8F9012054FA012080
:101C2400999999999999000014F80120F0B5DE4624
:101C340057464E464546E0B534488DB00BF036FE67
:101C44009C239B46324B334C9A46334BA3449946D0
:101C5400324B9846324B0993256866682900320056
:101C64005046A768FFF7CAFA42460300874200D1EC
:101C7400099A009229003200484601970C340BF06F
:101C840097FE5C45E8D127480BF010FE264B98469A
:101C94009C235B0043449B46244B09931F4B0A93AC
:101CA4001F4B0B9343461C685D689E68DF681B6985
:101CB4003200994643465B6920009A4629003B005E
:101CC400FFF736FD81451CD00A9B4A4606925246D0
:101CD400049307922B000290220000960197099822
:101CE40003910BF065FE18239844D845DAD10A20F5
:101CF4000BF092FD0DB0F0BCBB46B246A946A0461F
:101D0400F0BD8A45E0D10B9BDFE7C04694FA012081
:101D140040BA022020930220A8FA01208CFA012064
:101D240084FA0120CCFA0120E8910220E0FA012093
:101D340030B50C018FB014492209050013480BF08B
:101D440037FE1349220901A80BF0B6FA6A46114975
:101D540001A818F015F800990F480BF029FE009916
:101D640000290CDBC72902DDC723C72100930B48D8
:101D74000BF01EFE009B9B00E8580FB030BD002303
:101D840000210093F3E7C046681F022010FB0120E6
:101D9400B4F40120BC1502201CFB012028FB012007
:101DA400F8B5334F0D0006001400130031480A0043
:101DB40039000BF0FDFD072D06D8072C26D923008A
:101DC400083B012B2CD9F8BD2B00083B012BFAD87A
:101DD4002300083B012B3DD9072CF4D826480BF0EF
:101DE400E7FD2B00C834A40032596033110FDB0027
:101DF4001202F3180907120A1A605960C835A900BB
:101E040072581E4839000BF0D3FDDCE7C8341C4877
:101E1400A4000BF0CDFDC8353359A9007350D2E7A7
:101E24006034E400341914480BF0C2FD236862687E
:101E34001901120F090912070A4312491B020A4029
:101E44001B0AC835A9001A4372500C4839000BF01C
:101E5400AFFDB8E70C480BF0ABFD2B0060346033EA
:101E6400E400DB003419F31803CC03C3C6E7C0460F
:101E74004C1F022034FB012088FB012074FB01204D
:101E840048FB0120FFFFFFF058FB0120F0B5C646D8
:101E94000C0000B5244982B0070015001E00009311
:101EA40022481300220088460BF082FD072C28D913
:101EB4002300083B012B03D902B080BCB846F0BD17
:101EC4001B480BF075FDA022F3171B011B0912061A
:101ED4001A4313006035ED007D19320003CD1D0057
:101EE400FFF726FC22006032D300C834FB18A4009C
:101EF40003C33A594146009601950E480BF058FD2C
:101F0400DAE70D480BF054FDA0223601C835360936
:101F14001206AD00380079593243FFF76FF9C8341F
:101F2400A4003851C8E7C046241F0220A4FB0120A6
:101F3400D4FB0120E8FB0120C0FB012070B50500A3
:101F44000C001000072918D8C8339B00EA58130F57
:101F54000A2B2CD00B2B04D112011309A022120638
:101F64001A43A02100010009090601432800FFF7D4
:101F740045F9C834A400285170BD0A00083A012A62
:101F8400FAD86033DB00EB180CCB190F0A2914D0F4
:101F94000B2904D11B011909A0231B060B43C117EC
:101FA400FFF7C6FB6034E4002D1903C5E4E7120112
:101FB4001309B02212061A43D3E71B011909B023EF
:101FC4001B060B43C117FFF7B3FB6034E4002D1964
:101FD40003C5D1E7F0B5C6460C0000B507291ED8E5
:101FE400072A05D92F48FEF713FF80BCB846F0BD79
:101FF400072B36D9190008390129F3D86033DB00DF
:10200400C3181968050058680B01000F1B09000765
:102014001843254B09021840090A084325E00839EA
:102024000129DFD8110008390129DBD81900083942
:10203400012925D9072BD5D8C8339B00C158603254
:102044000B0F0902090A8C46D2008218050003CA44
:102054001B076246FFF76CFB6034E300EB1803C315
:10206400C3E7C8339B000500C058C8329300E95841
:1020740002002800FFF7C2F8C834A4002851B4E7CE
:102084006033DB00C318603260CBD300C318070091
:1020940003CB2A003300FFF74BFB6034E300FB184B
:1020A40003C3A2E708FC0120FFFFFFF070B50600A0
:1020B4000C0007292ED8072A03D94C48FEF7A8FE9E
:1020C40070BD072B4ED9190008390129F5D86033A2
:1020D400C832DB009200F31880580CCB11011B0F9F
:1020E40009091B070B43424912020B40120A1A4307
:1020F4001B0F0A2B4DD00B2B04D112011309A02264
:1021040012061A4300230021FFF712FBC834A4006F
:102114003051D5E708390129CFD8110008390129F0
:10212400CBD819000839012939D9072BC5D8603211
:10213400D200C83382189B0003CAF258130F1D073C
:102144001202AC46120A0A2B45D00B2B02D1A02353
:102154001B069C466346FFF7EBFA6034E40034192F
:1021640003C4ADE7C832C83392009B008158C258FB
:10217400130F0A2B29D00B2B04D112011309A0220F
:1021840012061A433000FFF739F8C834A40030515E
:1021940096E712011309B02212061A43B2E760321D
:1021A4006033D200DB008218F31803CA1A685B6834
:1021B40094461A0F0A2A12D00B2A04D11B011A09B9
:1021C400A0231B0613436246C5E712011309B0227C
:1021D40012061A43D6E7B0231B069C46BAE71B0136
:1021E4001A09B0231B0613436246B4E708FC012016
:1021F400FFFFFFF0F0B5DE4657464E464546E12365
:10220400E0B59B00C358040085B0002B04D0DB2349
:102214009B00C358DB054AD5DA239B00E3581B0F08
:10222400062B4BD9073B022B5CD8DC239B00E358DD
:10223400002B00D0B3E0DB2300259B00E358A0462D
:102244009B46744B00269946734B2C009A46734F59
:102254000F225B46A2401A4063426341E240E340DE
:10226400D01845193900484600950BF0A1FB2B0006
:102274000A3B092B2AD80F22AB1D1340A340F618A2
:1022840032003900504604340BF092FB202C2DD040
:102294000125DDE7310048460BF08AFBDB23544679
:1022A400002236059B00360DE6500433E25005B09B
:1022B400F0BCBB46B246A946A046F0BDDC239B0059
:1022C400E258002A3DD10122E250F0E7A5407619F8
:1022D40032003900504604340BF06AFB202C05D040
:1022E4000025B5E74E48FEF793FDE0E74446360285
:1022F400360A390032004B480BF05AFB4A4B310086
:10230400180099460BF054FB484F494BA246984697
:102314003C00002702E00437202FBBD00F25BD402E
:102324003540FD40200029000A3D0BF041FB052DFE
:10233400F1D80623BB40F618310040460BF038FBB9
:10234400E9E70025043BE358A3469846314B0026B1
:102354009946314B2C009A46304F0F224346A240F7
:102364001A4063426341E240E340D0184519390002
:10237400484600950BF01CFB2B000A3B092B12D896
:102384000F22AB1D1340A340F6183200390050460B
:1023940004340BF00DFB202C11D00125DDE725487A
:1023A400FEF744FD47E7A540761932003900504650
:1023B40004340BF0FDFA202C01D00025CDE73602C1
:1023C400360A3900320017480BF0F2FA164B310086
:1023D400180099460BF0ECFA144F154B3C00984644
:1023E400DA46002703E00437202F00D152E70F25F7
:1023F400BD403540FD40200029000A3D0BF0D8FACD
:10240400052DF0D80623BB40F618310040460BF0EA
:10241400CFFAE8E74CF8012068F80120AC1F02204D
:102424009CFC012084F80120D4F70120E0F701206E
:10243400F0F7012078FC012070B5E126274DB600A5
:1024440004008259290026488EB00BF0B1FADB2330
:102454009B00E258A359002B07D0D30505D4D423FD
:102464009B00E2581833E2502DE0120116093200A5
:102474001C491D480BF09CFA32001C4901A80AF0C3
:102484001BFF6A461A4901A817F07AFC00991948FB
:102494000BF08EFA009900291BDBC72902DDC72344
:1024A400C7210093DA2614480BF082FA009BB60089
:1024B4009B00E3582900A351DB239B00E2580F48FB
:1024C4000BF076FAA25929000D480BF071FA0EB000
:1024D40070BD002300210093E4E7C046981E02204B
:1024E400ACFC0120681F022010FB0120B4F4012081
:1024F400BC1502201CFB012028FB0120BCFC012090
:10250400CCFC0120DB23F0B5534C9B00E258043390
:10251400E358524E59424B412021514F5B428B4369
:1025240097B04133390030000AF0C6FE4D4D3200F9
:102534004D4928000AF0C0FEDD239B00E258043315
:10254400E358300059424B4120215B428B434133D5
:1025540039000AF0B1FE3200444902A80AF0ACFE88
:1025640002A9280017F0EAFCD423414E9B00E2584C
:102574004049002330000AF09FFE32003E4902A881
:102584000AF09AFE02A9280017F0D8FCDA239B006F
:10259400E2583A4902A80AF08FFE02A9280017F06F
:1025A400CDFCF720F523E022800020589B00920008
:1025B400E358A2583249009002A80AF07DFE280090
:1025C40002A917F0BBFCD7239B00E3585A1C3CD04C
:1025D400FF222C4E1A4030002B490AF06DFE3200C7
:1025E4002A4902A80AF068FE280002A917F0A6FCEE
:1025F400D8239B00E3585A1C2BD0FF22214E1A40AB
:10260400300021490AF058FE3200214902A80AF09C
:1026140053FE280002A917F091FCD9239B00E3582C
:102624005A1C14D0FF22174C1A40200016490AF0F5
:1026340043FE2200174902A80AF03EFE280002A920
:1026440017F07CFC280017B0F0BD134AC8E7124A03
:10265400F0E7114AD9E7C04640BA02208CD60220DE
:1026640098F6012090D70220F0FC012004FD0120FF
:102674005CD6022018FD012020FD012034FD01203C
:102684004CFD01200CD60220D40A022074FD012046
:1026940088FD01209CFD0120ECFC0120F8B5DE46FC
:1026A4004E46454657465F48E0B50BF081F95E4813
:1026B4000BF07EF9FFF726FF01005C480BF078F978
:1026C400C8235B4E9B00F5185A4B002499465A4B7D
:1026D4005A4F9B465A4B98462B684A46591C0ED073
:1026E4001A0F1B011B090A2A00D198E00B2A00D1FA
:1026F4008EE05348534982460AF0DEFD52462100DB
:10270400380001340BF054F90435082CE4D1D023FB
:102714009B00F4184C4B226899464C4B082598466C
:102724006368511C10D0494640460AF0C5FD424634
:10273400290038000BF03CF9092D0ED0A2680834AA
:1027440009256368511CEED1591CECD129003800CD
:10275400384A0BF02DF9092DF0D10A200BF05CF862
:102764003B480BF025F93B480BF022F93A4B3B4828
:10277400F15C0BF01DF9EA239B00F15838480BF08B
:1027840017F9EB239B00F15836480BF011F9EC23B1
:102794009B00F15834480BF00BF9EE239B00F258E0
:1027A400043BF15831480BF003F9E1239B00F15845
:1027B4002F480BF0FDF8F8239B00F1582D480BF03F
:1027C400F7F8DB239B00F61871782B48C907C90F6B
:1027D4000BF0EEF80A200BF01FF828480BF0E8F88D
:1027E40027480BF0E5F8274B274819680BF0E0F869
:1027F400264B274819680BF0DBF8264B2648196846
:102804000BF0D6F8F0BCBB46B246A946A046F8BDCC
:102814002D2259464046C2460AF04EFD6EE72B2251
:10282400F7E7C046BCFD0120C4FD0120CCFD01201A
:1028340040BA0220B0FD0120DCFD0120E4FD0120AE
:102844006CD60220D0FD012018FD01205CD60220A8
:10285400F4FD012000FE0120040400000CFE012010
:1028640024FE012038FE01204CFE012060FE0120E0
:1028740084FE012098FE0120ACFE0120C0FE012050
:10288400C8FE012050DA0220D0FE012040DA0220E6
:10289400ECFE012058DA022008FF0120F0B54E4674
:1028A400DE4657464546E0B5C04E81463268A1B083
:1028B400002A01D1BE4B1A60D02109064B68496831
:1028C400DB06DB0F890601D502210B43D021090663
:1028D4004968490601D504210B43D02109064968FA
:1028E400090601D508210B43D02109064968C90509
:1028F40001D510210B43D02000064168890519D564
:1029040020210B434168490511D4AA490B60A8480A
:10291400A94904680C60D1010B430360032A55D014
:1029240021B0F0BCBB46B246A946A046F0BD40214A
:102934000B43EAE7406880210500C9000D400842C6
:10294400F5D19C490B60002BE1D19C498A4609686A
:102954000029E3D19A48016801310A2942DD036064
:10296400984B9B461B68002BD8D0974B05931B684C
:102974000493002B50D0954B95491A680393B823C0
:102984005343944CCB18226802919968920053588F
:102994001D000493FFF782FE29008F480BF008F80E
:1029A4001E2D00D1B9E01F2D00D1A6E0002D00D1CD
:1029B400B3E0049D894829000AF0FAFF280005F0D5
:1029C4005FFD2368013323603268A7E7784B844CAA
:1029D4001968844D23682960994201D0002903D1E4
:1029E40021609DE7016099E77F480AF0E1FF7F4B92
:1029F40029689C461A00002303E0013308321C2B8B
:102A0400EED010688142F8D1DB006344586805F0C9
:102A140037FD2968216083E7754B180098460AF052
:102A2400C7FFB822694F6A4C3B6872485343E15868
:102A3400029403970AF0BCFF40460AF0B9FF6E4BBC
:102A440039681D60B8234B43E3185A69C8235B00F7
:102A54009C464C4603E063510435654502D0535906
:102A6400581CF8D1B8234B43029A0025D3185A684E
:102A7400624B34009A46049E2B01D018D35C0B2B76
:102A840006D00E2B21D00A2B17D186680135F3E727
:102A94008368C0689C463300072E1ED9083B012B6F
:102AA40022D95748FEF7B4F9039B029A1968B82350
:102AB4004B43D3185A680135DEE72A0050460AF022
:102AC40077FF5B4600221A60EEE70123059A136044
:102AD4000022404B1A60226820E748466746C83304
:102AE4009B00C7500135C7E74F466833DB00FB182E
:102AF400674658601F600135BEE7012352461360E4
:102B0400F522494692008B502368012101333D4848
:102B140023600AF04DFF326800E70023524600218B
:102B2400394813600AF044FFB823039F37483A68D2
:102B34005343029AD1580AF03BFF1E2211940124F8
:102B440010963E000892324A2B4D0692314A29686B
:102B540007926442049A06980AF02AFF2B683168A7
:102B64009C46B8234B43029AD3186246DB68100193
:102B74001A181B5C18001438C0B20A2800D9F0E0F7
:102B84000799800009588F461A00234804991C00AD
:102B94000AF00EFF296801312960DBE794681F48B9
:102BA40021000AF005FF14230893F3E7B8D50220A7
:102BB400C8D50220CCD50220C0D5022058DA022084
:102BC40040DA022050DA02209CD9022044DA0220A2
:102BD400D097022054DA022024FF01201C02022094
:102BE400BCD50220C4D50220A4020220F096022003
:102BF400300202206402022048DA02207C02022011
:102C040028FC012030FF012064FF012094FF0120F3
:102C1400B4FF01204C1D0220F8FF0120E8FF012031
:102C2400DC48109E0AF042FE00235A4613605246C6
:102C3400136001332B60039BD74D1A68B8235343A9
:102C4400029A2968D2181269002900D041E1D34CB4
:102C5400002A00D197E1D2480AF0AAFE039A00277D
:102C64001368D04901331360B8225343029A277082
:102C7400D05817F081FA002800D139E101235A46CF
:102C84001360059B32682F601F6047E6119CC6489D
:102C9400109E0AF08DFE2368013323602B680133F4
:102CA4002B605B461B68002BC5D0C0480AF080FE31
:102CB400326833E6F5234F469B00FA580833F95837
:102CC400BB480AF075FEF7239B00FB58002B00D18C
:102CD40060E7B848FEF7BEF8B82332685343029A57
:102CE400D31800221A6155E7F5234F469B00FA5882
:102CF4000833F958B0480AF05BFEF7239B00FB58F1
:102D04001F1E00D046E7AD48FEF7A4F8B82332688A
:102D14005343029AD3181F613CE7089FA84A3B001B
:102D2400143B9B00D158A7480B920AF041FE192F7F
:102D340023D0631C0AD01E2C00D96EE1A24BE340C1
:102D4400DB0700D45CE1A1480AF032FE1E2308939D
:102D540020E794689E4821000AF02AFE192308936C
:102D640018E762469B48109E0AF022FE00235A464A
:102D740013602B6801332B605DE723011F0996491B
:102D840096483A0008910B900AF012FE94493A00D2
:102D940013A80C910AF090FA924B12AA190013A8E6
:102DA4000D9316F0EDFF904B129918000E930AF054
:102DB400FFFD1299002900DA96E0C72902DDC72336
:102DC400C7211293894B18000F930AF0F1FD4A466C
:102DD400129B31689B00D258B8234B430299CB18FD
:102DE4002968DB6809015B189968914200D189E080
:102DF4003A0008990B980AF0DBFD3A000C9913A8E5
:102E04000AF05AFA0D9912AA13A816F0B9FF1299EA
:102E14000E980AF0CDFD1299002970DBC72902DD56
:102E2400C723C72112930F980AF0C2FD4A46129B8A
:102E340021009B00D35832689C46B8235343029A1E
:102E44006B48D3182A68DB6812019B189A68DB6800
:102E54000092019362460AF0ABFD3A0008990B9880
:102E64000AF0A6FD3A000C9913A80AF025FA0D9968
:102E740012AA13A816F084FF12990E980AF098FD6E
:102E8400129900297CDBC72902DDC723C7211293CD
:102E94000F980AF08DFD4A46B827129B21009B002B
:102EA400D358029A9C46336852487B43D3182A6805
:102EB400DB6812019B189A68DB68009201936246F2
:102EC400FDF7C8FF3368029A7B43D31800221A61C6
:102ED4003CE7002A00D077E5029A1833D0182F492E
:102EE40017F08EF9326819E500230021129369E77F
:102EF4005B46186040480AF05BFD32680EE500212D
:102F0400129190E7DB689846002B00D070E73A00F6
:102F140008990B980AF04CFD3A000C9913A80AF092
:102F2400CBF90D9912AA13A816F02AFF12990E983C
:102F34000AF03EFD129900291EDBC72901DDC721D5
:102F440012910F980AF034FD4A46129B21009B000F
:102F5400D35832689C46B8235343029A2748D3185F
:102F64002A68DB6812019B189A68DB680092019357
:102F740062460AF01DFDE9E6434600211293E0E7AC
:102F84000021129184E7029A18332100D01817F017
:102F940037F960E6700102204CDA0220A0D9022041
:102FA400D801022078F4012060010220B40102203B
:102FB4004400022070000220100002203800022089
:102FC40060AD02207C00022000001046EC000220CC
:102FD400D0FF012084010220681F022010FB012081
:102FE400B4F40120BC1502201CFB012028FB0120A5
:102FF400AC000220CC000220F00102208C00022050
:10300400DB23152C47D0D423182C44D0162C41D0C4
:10301400172C00D18DE0072C5CD92300083B012B31
:1030240000D897E021004F48FDF7F2FEB82332683C
:103034000A995343029AD3182A68DB6812019B1831
:103044009A68DB688A4200D17FE0210046480AF092
:10305400AFFCE3B2132B57D9E3B20B9A143B9B009A
:10306400D3589846B82721004846FDF79FFF336898
:10307400029A7B43D3182A68DB6812019B189A686A
:10308400DB680092019302000B0038484146FDF7CB
:10309400E1FE17E7D6234A469B00D3581F000023BE
:1030A4009846B82332685343029AD3182A68DB68D7
:1030B40012019B189A68DB680A920993974240D0E0
:1030C400099B210028480A9A0AF072FC43460A9791
:1030D4000993C1E723004A46C8339B00D3580A9397
:1030E40000230993B82332680A995343029AD318E8
:1030F4002A68DB6812019B189A68DB688A420CD044
:10310400210019480AF054FC194814210700194AEF
:10311400E3B20AF0E5F8B846A4E709998B42EFD187
:10312400099B210014480A9A0AF042FC1E230893C2
:1031340030E5E0234A469B00D3581F00DB1798462E
:10314400AFE7099A9045BBD1EAE709998B4200D0D1
:103154007BE7E5E76833DB004B441A685B680A9257
:103164000993BFE7B8F7012030010220440102208F
:1031740084D90220BC1502201C01022030B5B3B052
:10318400050005F011FC164805F038FE002822D091
:10319400290014480AF090F82800134915F0DCFCC3
:1031A400041E14D0114D03E0694628000AF000FC07
:1031B4002200C721684615F061FD0028F4D12000E3
:1031C40015F03EFD05F00EFC012033B030BD2900A2
:1031D40007480AF0EDFB05F005FC0020F5E7C046C2
:1031E400B8F50120C80202209016022088000220AF
:1031F400D8020220F0B5C64600B5B2B0040005F00E
:10320400D3FB214805F0FAFD002838D021001F48DF
:103214000AF052F820001E4915F09EFC6D468046C7
:10322400002828D01B4F4246C721280015F026FD50
:10323400002816D02B782A2BF5D1174C26005036AF
:103244002A0021003800636898470028EBD108342D
:10325400B442F5D14246C721280015F00FFD0028DD
:10326400E8D1404615F0ECFC05F0BCFB012032B07F
:1032740080BCB846F0BD210008480AF099FB05F06F
:10328400B1FB0020F3E7C046B8F50120C8020220D4
:103294009016022040BA022068390220D802022087
:1032A40010B5040021000748FFF7A4FF8022002383
:1032B400D200A350043AA350FD2301229B00E25004
:1032C40010BDC04650BE022010B502490248FFF7A7
:1032D40091FF10BD40BA0220EC020220F0B5C646B0
:1032E40000B55B4C0500A54401A816F089FF01A9AF
:1032F40058480AF05DFB05F057FB574805F07EFD82
:10330400002800D185E00A2201A906A811F080FF57
:1033140000287BD1514906A814F0F8F8DB239B0060
:10332400EA584F4906A814F0F1F8DC239B00EA5848
:103334004C4906A814F0EAF8D4239B00EA584A49F9
:1033440006A814F0E3F8D7239B00EA58474906A8D7
:1033540014F0DCF8D8239B00EA58454906A814F079
:10336400D5F8D9239B00EA58424906A814F0CEF8B0
:10337400DA239B00EA58404906A814F0C7F8DF2373
:103384009B00EA583D4906A814F0C0F8C82300245D
:103394009B003B4FEE182200390008CE06A80134EA
:1033A40014F0B4F8082CF6D1C823364C9B00210045
:1033B4000822EB5806A814F0A9F8C9239B002100A1
:1033C400EB58092206A814F0A1F82F4906A814F016
:1033D4009DF82E4B0024072698462D4F264221D0D7
:1033E400A3003900EA5806A8013414F08FF8C82C59
:1033F400F4D1284906A814F089F806A813F096F821
:10340400041E1BD105F0EEFA012005E022480AF063
:10341400CFFA05F0E7FA00209E239B009D4480BC70
:10342400B846F0BD414606A814F070F8A300390070
:10343400EA5806A814F06AF80134CFE715F080FBC7
:103444002200010015480AF0B3FA05F0CBFAE2E7CE
:1034540088FDFFFFF8020220B8F5012010030220C6
:103464003C0302205003022064030220780302205C
:1034740094030220B0030220CC030220E8030220BC
:10348400000402200C0402201C0402202804022050
:103494002C04022054F701200403022034040220E7
:1034A40030B505000C4C85B022000C4B0C490D487E
:1034B40005F03AFD0C4B21001A686846013209F008
:1034C400FBFE69462800FFF709FF694607480AF032
:1034D4006FFA05B030BDC046580402204C040220E7
:1034E40068040220B8F50120E0D50220740402200B
:1034F40010B5094805F080FA002808D0074C0848A0
:103504002100FFF7EBFE2000FFF738FE10BD054950
:1035140005480AF04DFAF1E7B8F50120EC02022063
:1035240040BA0220B4D602208C040220002370B5D5
:10353400204D82B00C002B700B00072916D9083BD4
:10354400012B02D9280002B070BDD0339B00C258B1
:10355400194800230600194909F0AEFE2300102182
:103564002800174A009609F0BBFEEBE7C8339B001E
:10357400C3585A1C1BD01A0F1B011B090A2A0DD051
:103584000B2A12D00F481049060009F095FE3300AB
:10359400220028000A4909F08FFED3E72B220948AC
:1035A4000A49060009F088FEF1E72D22F7E7084BE7
:1035B400EEE7C0463CD602205CD6022018FD01206E
:1035C400AC0402206CD60220D0FD0120DCFD0120D9
:1035D400B0FD0120F8B500231D4C2380030F0A2BF6
:1035E40034D00B2B28D12D271A4D03003A001A4949
:1035F4000601280009F060FE3A001849200009F08D
:103604005BFE0622360F921BE91C200016F0BCFC60
:10361400200016F0FDFD02221149201808F0AAFA34
:10362400A91B09313200200016F0AEFC210028004D
:1036340016F0E6FD2800F8BD2027092BD4D8054D47
:1036440002000849280009F037FEF3E72B27CBE7EF
:103654009CD602207CD60220B40402209CF60120D1
:10366400180202207CF80120F0B5DE464546574694
:103674004E460C00E0B515001F00D34B85B0D3496E
:103684000390180000938B460AF092F92A00210057
:10369400CF480AF08DF923021A0A9046002B00D174
:1036A40061E12B021A0A9146002B00D173E10F232A
:1036B400260E1E40B246002F00D08CE043460093F5
:1036C4004B462F013F0F01930297B7426DDBBB1BA3
:1036D400B74212D0012B00D1BBE1022B00D1C0E1D3
:1036E400032B00D1A1E1042B00D1C2E100220192FD
:1036F400052B00D1C1E1019B994631003A00B54840
:103704000AF056F9019A0099B3480AF051F94B4668
:103714002A0F12071A434346210F09071943039836
:10372400FDF76CFDAD4B184053461E0606432000C2
:10373400FFF750FF0100AA480AF03AF92800FFF702
:1037440049FF0100A7480AF033F93000FFF742FFB0
:103754000100A5480AF02CF92000FFF73BFF594669
:103764000200A2480AF024F92800FFF733FF010001
:103774009F480AF01DF93000FFF72CFF01009D4817
:103784000AF016F9300005B0F0BCBB46B246A946B3
:10379400A046F0BD4D4623021B0A984600932B0217
:1037A4001B0A99460193B742A7DAF31B012B00D1F8
:1037B4003FE1022B00D148E1032B00D14DE1042B62
:1037C40000D12EE1052B00D14FE100230093984650
:1037D400029B9A4691E7062E00D117E1F0210904D5
:1037E4000C4227D140460300042E21D80301721C49
:1037F4000B4200D007E1052A19D00302B21C0B4288
:1038040000D000E1052A12D0F02103030904F21CC0
:103814000B4200D0F7E0052A09D00304321D0B4205
:1038240000D0F0E0042A02D1030500D0EAE0052626
:10383400B2469846534646461A07230F12096E4F5E
:103844001B0713431E433900009801960AF0B0F891
:103854006A483200210080460AF0AAF80F23320E8B
:103864001A40924616002A0E13400293062B00D1EA
:10387400E3E01A00F02109040D4200D009E14C46AE
:103884000298230004281CDC2301421C0B4218D19B
:10389400052A16D02302821C0B4212D1052A10D00D
:1038A4002303C21C0B420CD1052A0AD02304013283
:1038B4000B4206D1042A00D0E3E0230500D0E0E067
:1038C40001329946130002921A072B0F12091B07A3
:1038D40013434A461A4314003900009891460AF0EB
:1038E40067F82200290040460AF062F823011B0F02
:1038F4001F0002935346019C002B15D0019D013EED
:1039040036072B0F36091B072C023343240B1C43A9
:103914003B49009826010AF04BF8360F2200290093
:1039240040460AF045F8B246029B002B00D131E72D
:103934004A46013F130F3F073F091B073B4317004C
:1039440015022D0B1D432E4900980AF031F840460C
:103954002A0039000AF02CF823021B0A98462B028D
:103964001B0A9946AAE62000FFF734FE59460200D6
:103974001E480AF01DF82800FFF72CFE01001C4821
:103984000AF016F82800FFF725FE010019480AF08E
:103994000FF82E00F6E62000FFF71CFE5946020041
:1039A40012480AF005F82800FFF714FE0100104839
:1039B40009F0FEFF2000FFF70DFE01000D4809F09D
:1039C400F7FF2600DEE6C04660FC0120D01E022080
:1039D400BC040220E404022000050220FFFFFFF0E3
:1039E400200502202805022030050220D0040220F0
:1039F400DC04022088000220E81E022068FC01206A
:103A0400D81E022005229246984613E72A0E134038
:103A14000293062B37D01A001F4B204F984601946F
:103A240028E7009B1B140093D1E6019B1B13019311
:103A340061E6009B1B110093C9E6A9460627002EE8
:103A440000D05BE70627019C72E7009B1B120093E2
:103A5400BDE6019B1B1101934DE6009B1B130093D4
:103A6400B5E6019B1B12019345E6009B1B150093D1
:103A7400ADE6019B1B1401933DE64B461B150193D8
:103A840039E605221DE7044BA9460627984601940A
:103A940034E7029B18E7C04668FC0120E81E0220B8
:103AA400F0B557464546DE464E46E0B510008DB0AB
:103AB40006920A000F020591090F0391010F049168
:103AC400110E0F2211400C0003020991010E3F0A4E
:103AD4001B0A0A403D00079708930A92944201DDAD
:103AE4001F002B009846824B824819000B9309F063
:103AF4005FFF8148069A059909F05AFF0623A0261C
:103B04009A467E4B3606002534003743029314E070
:103B1400434636011B0F9E1943461B019846A023BA
:103B24003F0136011B063F0A36091E431F4301238A
:103B34005B429A445346002B21D03300424639005D
:103B4400029809F035FF0F233B4099460F233B426F
:103B5400DED0002328001D0043462100B84634006F
:103B64001F003A0023000135FDF7E2FD4D45F8D171
:103B74003B002600474605000C009846C8E70A9F0C
:103B8400099E3A0031005E4809F012FF049A039935
:103B94005C4809F00DFF089A07995B480095019469
:103BA40009F006FF594809F003FFF619584F23009E
:103BB4002A003800009609F0FBFEF0231B02984609
:103BC4001C4213D016E02A0F2301D3181B01240F23
:103BD4001B0924072D011C43013623002A00380049
:103BE400009609F0E5FE43461C4203D123041B0C56
:103BF4002B43E8D1474809F0DBFE2A002300009656
:103C0400380009F0D5FE444809F0D2FE2A0023000A
:103C14000096380009F0CCFE2D0923075D19230115
:103C24001B0A1A072D0955191B091A072D095519BD
:103C34001B091A072D0955191B091A072D095519AE
:103C44001B091A07240F2D09063E240755191B09C1
:103C54002A0023430096380009F0AAFE2F4B049A49
:103C64001D40039B34069B1A5A1E9341A022059FB4
:103C74002C4312061B0724019B18380024091C43FB
:103C8400FFF7A8FC0100264809F092FE069E3000CA
:103C9400FFF7A0FC0100234809F08AFE2000FFF78B
:103CA40099FC0100204809F083FE0B9D1F48290060
:103CB40009F07EFE3800FFF78DFC290002001C4845
:103CC40009F076FE3000FFF785FC0100194809F081
:103CD4006FFE2000FFF77EFC0100174809F068FE24
:103CE40020000DB0F0BCBB46B246A946A046F0BDCC
:103CF400B81E022060FC0120BC0402203C05022006
:103D04005C0502207805022094050220C4050220E7
:103D1400E0050220FC0502200C060220FFFFFFF054
:103D2400200502202805022030050220300602204A
:103D340038060220DC04022088000220F8B50024A2
:103D44000F4D104F0DE02E683000FFF743FC2100AB
:103D5400030032003800013409F02AFEC82C0AD0CE
:103D640004350521200006F04BFF0029EBD10A2081
:103D740009F052FDE7E70A2009F04EFDF8BDC04600
:103D840040BA022044060220F0B5C646002700B51A
:103D94000C011B4D8EB0220980460E0019481A49A9
:103DA4002F7009F005FE1949220901A809F084FAC7
:103DB4006A46174901A815F0E3FF0099154809F070
:103DC400F7FD0099002918DBC72902DDC723C721A5
:103DD4000093114809F0ECFD4246009B9B00D0582B
:103DE400FFF7F8FB320003000C49280009F064FADD
:103DF40028000EB080BCB846F0BD00210097E8E76B
:103E04001CD6022010FB0120681F0220B4F40120FC
:103E1400BC1502201CFB012028FB012058060220AF
:103E2400D423CD2170B59B00C35804001A0290B06E
:103E3400120A49008A4263D2A0221B011B091206FE
:103E44001343D626D422B600A35100239200A350D4
:103E54000432A350DB239B00E2580433E3582C4D77
:103E640059424B4120215B428B434133294928006D
:103E740009F022FA284B0122012120000095FCF7C9
:103E8400E3FEA3595A1C41D0FF22244D1A402800B6
:103E9400234909F011FAA3592E001B011D092A0018
:103EA4002049214809F084FD2A00204903A809F08B
:103EB40003FA1F4902AA03A815F062FF02991D48DC
:103EC40009F076FD029900291CDBC72902DDC7230E
:103ED400C7210293184809F06BFD029B9B00E05830
:103EE400FFF778FB0622019001212000134B009676
:103EF400FCF74CFEFD2301229B00E25010B070BD84
:103F04000F4B9EE7002300210293E3E70D4EC4E725
:103F14008CD6022098F60120A0F601200CD60220AF
:103F2400D40A0220681F022010FB0120B4F40120EF
:103F3400BC1502201CFB012028FB01206006022086
:103F4400990100A0ECFC0120F0B5D423DE465746CD
:103F54004E4645469B00E0B5C5580833C6584D4B00
:103F64004D49360193B032090400180089469A4637
:103F740009F01EFD494B3209190005A89B4609F0BA
:103F84009BF9474B04AA190005A8039315F0F8FE02
:103F9400444F0499380009F00BFD049900296EDBA5
:103FA400C72902DDC723C72104933F4E300009F01F
:103FB400FFFC049BD4229B00E55000239200A350F5
:103FC4000432A350DB239B00E2580433E358374800
:103FD40059424B41202105005B428B434133344914
:103FE40009F06AF90095D625324B012201212000FF
:103FF400AD00FCF729FE63595A1C48D0FF221A4031
:104004002D4B2E491800984609F056F963591D01A5
:1040140049462A09504609F0CBFC59462A0905A805
:1040240009F04AF9039904AA05A815F0A9FE049910
:10403400380009F0BDFC0499002924DBC72902DDFE
:10404400C723C7210493300009F0B2FC049B9B00F2
:10405400E058FFF7BFFA4246019000920121062280
:104064002000174BFCF792FDFD2301229B00E25038
:1040740013B0F0BCBB46B246A946A046F0BD00232F
:104084000021049391E7002300210493DBE70D4A08
:104094009046BCE710FB0120681F0220B4F4012005
:1040A400BC1502201CFB012028FB01208CD6022019
:1040B40098F60120A0F601200CD60220D40A022092
:1040C40060060220ECFC012070B5D625AD004159F4
:1040D4002C4A90B00400FDF791F8CD230002000AA9
:1040E4005B00984240D39922274BD625274EAD003A
:1040F40063512749300009F0DFF8655925492D013E
:104104002A09254809F054FC24492A0903A809F07E
:10411400D3F8234902AA03A815F032FE02992148D4
:1041240009F046FC029900291ADBC72902DDC723DE
:10413400C72102931C4809F03BFC029B9B00E058FA
:10414400FFF748FA0622019001212000174B009640
:10415400FCF71CFDFD2301229B00E25010B070BD52
:10416400002300210293E5E7064A20006159FDF788
:1041740045F8A023020112091B061343FF22024043
:10418400B3E7C046010000A0990100A00CD60220AC
:10419400D40A0220681F022010FB0120B4F401207D
:1041A400BC1502201CFB012028FB01206006022014
:1041B40070B5D625AD0041592C4A90B00400FDF7E6
:1041C4001DF8CD230002000A5B00984240D39922D7
:1041D400274BD625274EAD0063512749300009F0FF
:1041E4006BF8655925492D012A09254809F0E0FB9A
:1041F40024492A0903A809F05FF8234902AA03A85D
:1042040015F0BEFD0299214809F0D2FB029900295C
:104214001ADBC72902DDC723C72102931C4809F012
:10422400C7FB029B9B00E058FFF7D4F906220190DC
:1042340001212000174B0096FCF7A8FCFD23012266
:104244009B00E25010B070BD002300210293E5E70B
:10425400064A20006159FCF7D1FFA023020112098C
:104264001B061343FF220240B3E7C046010000B01F
:10427400990100A00CD60220D40A0220681F022053
:1042840010FB0120B4F40120BC1502201CFB01200A
:1042940028FB012060060220F0B5D423C6469B000B
:1042A40000B5C55804002B0F0A3B82B00B39012B13
:1042B4002CD9D5239B00C358002B27D12D01691875
:1042C400DB23D4269B00E2580433E358B600A15103
:1042D40059424B412021234D5B428B4341332249B8
:1042E400280008F0E9FFA059FFF774F901220190B2
:1042F400012120001D4B0095FCF7A6FCFD230122A3
:104304009B00E25002B080BCB846F0BD2B021A0AF2
:104314001B095F182E0139001548360F904609F025
:1043240047FB002E10D1D5239B00E35839025A1EB7
:1043340093410A0A90461B060E49294019434346F5
:10434400090E09061943BBE7731C062E02D1C023CC
:10435400DB04F1E7F0221B061205390213400A0AB6
:104364009046E9E78CD6022098F6012078060220D0
:1043740068060220FFFFFFF0F0B5D523D4250126FF
:10438400A022AD009B0087B0C650435912061B0201
:104394001B0A13434351DB239B00C2580433C35805
:1043A400040059424B4120210D4F5B428B43413362
:1043B4000C49380008F080FF6059FFF70BF93A0008
:1043C4000300094901A808F077FF01AB012201218C
:1043D4002000FCF739FCFD239B00E65007B0F0BD3C
:1043E4008CD6022098F601207806022070B5D425D8
:1043F400B022AD00435912061B011B09134386B0BA
:104404004351DB239B00C2580433C3580400594270
:104414004B4120210E4E5B428B4341330D4930000A
:1044240008F04AFF6059FFF7D5F8320003000A4943
:1044340001A808F041FF01AB012201212000FCF793
:1044440003FCFD2301229B00E25006B070BDC04670
:104454008CD6022098F601207806022070B5D52269
:10446400D4260023B600920082B083518350DB230C
:104474009B00C2580433C358040059424B412021C5
:104484000C4D5B428B4341330B49280008F014FF69
:10449400A059FFF79FF80122019001212000074B4A
:1044A4000095FCF7D1FBFD2301229B00E25002B0F2
:1044B40070BDC0468CD6022098F6012078060220F2
:1044C400F0B5DE4657464E4645460C00E0B51500AD
:1044D400734E83B031008346724809F069FA2A00AA
:1044E4002100714809F064FA23021F0A002B00D14D
:1044F4007EE02B021A0A9046002B00D190E09246EF
:104504000F22210E11402B0EB94601911A409142FF
:104514005DDD8B1A012B00D1A7E0022B00D1ACE0AA
:10452400032B00D1B1E0042B00D196E0002081469A
:10453400052B00D1B1E04F4601925C4809F038FAEE
:10454400524649465A4809F033FA43462A0F210F86
:10455400120709071A4339435846FCF74FFE554BD7
:104564001840019B1F0607432000FFF733F80100A2
:10457400514809F01DFA2800FFF72CF801004F48B4
:1045840009F016FA3800FFF725F801004C4809F045
:104594000FFA2000FFF71EF831000200494809F025
:1045A40007FA2800FFF716F80100474809F000FA57
:1045B4003800FFF70FF80100444809F0F9F9380012
:1045C40003B0F0BCBB46B246A946A046F0BD531AA0
:1045D4008A42B2D0012B4BD0022B51D0032B37D0BF
:1045E400042B55D000208246052B39D0D046A4E7B1
:1045F4002000FEF7EFFF31000200324809F0D8F93D
:104604002800FEF7E7FF01002F4809F0D1F9280040
:10461400FEF7E0FF01002D4809F0CAF92F00CEE7AC
:104624002000FEF7D7FF31000200264809F0C0F948
:104634002800FEF7CFFF0100234809F0B9F9200054
:10464400FEF7C8FF0100214809F0B2F92700B6E7D8
:1046540043461B139A46D0466FE73B1499466AE7D4
:1046640043461B159A46D04667E73B11994662E7D5
:1046740043461B119A46D0465FE73B1299465AE7D8
:1046840043461B129A46D04657E73B13994652E7D6
:1046940043461B149A46D0464FE73B1599464AE7D2
:1046A400D01E022060FC0120BC040220E40402208D
:1046B40000050220FFFFFFF020050220280502204C
:1046C40030050220D0040220DC04022088000220ED
:1046D400F0B5DE464E46574645461400E0B50D009B
:1046E400DA4B95B00A9181461900D9480B9309F029
:1046F4005FF9D84E22002900300009F059F92B0146
:104704002A02120A1B0F17000C921193062B00D1D8
:1047140050E2002A00D14DE2F0210A9A09040A422B
:1047240023D1042B00D99BE20C985A1C07010F4299
:104734001AD1052A18D007029A1C0F4214D1052A4F
:1047440012D00703DA1C0F420ED1052A0CD01A1D11
:10475400F02307041B041F4206D1042A00D079E287
:10476400070500D076E2013213000A9A1B07150FE1
:104774001B092D071D43B8483D43B849039009F070
:1047840017F92A00B6480A9909F012F92B012F02E9
:104794001B0F2202120A3F0A119323010A950C9758
:1047A40015001B0F0D92062B00D10EE2002A00D13A
:1047B4000EE2F0200004044222D1042B00D953E27B
:1047C4001501591C05421AD1052918D01502991C46
:1047D400054214D1052912D01503D91C05420ED166
:1047E40005290CD0191DF02315041B041D4206D104
:1047F400042900D031E2150500D02EE201310B006E
:104804001B07220F12071B0913432B431D00934957
:104814000398109309F0CCF82A002100904809F07D
:10482400C7F82B002D021B012D0A1B0F0D951393A6
:10483400A0248C4809F0BCF8109B24061A009B465F
:104844000A9B300098462600190009F0B1F8864BFF
:1048540000211800009309F0ABF80B99039809F0B4
:10486400A7F882485A464146049009F0A1F8804BC3
:1048740001211800019309F09BF87E4B3C43210071
:104884001800029309F094F87B4B2E433100180072
:104894009A4609F08DF8002D00D1E8E143465A46C6
:1048A4001B0F0E93130F0F93F02300211B048B4651
:1048B40001251A4209D10A0036012D0101321E4296
:1048C400FAD0A02393461B061E436C4809F070F8E7
:1048D400A0210098090609F06BF82900019809F055
:1048E40067F82100029809F063F83100504609F096
:1048F4005FF806230893624BA02509932301984689
:10490400604B614F0593614B2D060693604B0793F3
:104914005B461293099809F04BF82900009809F0B6
:1049240047F83900019809F043F82100029809F08A
:104934003FF83100504609F03BF833011A09984515
:1049440036D3002A34D0B0231B0613439B4690462B
:10495400059809F02DF83A0029004846FFF7B0FD04
:1049640006990500039809F023F821003200049801
:1049740009F01EF85A4621004846FFF7A1FD04003D
:10498400079809F015F82900009809F011F8390082
:10499400019809F00DF82100029809F009F8310096
:1049A400504609F005F823011A094245D0D2984629
:1049B4003B02A02736011B0B3F06360A3E431F432A
:1049C400089B013B0893002BA4D1129B31489B46C2
:1049D40008F0EEFF2900009808F0EAFF390001987A
:1049E40008F0E6FF2100029808F0E2FF310050468B
:1049F40008F0DEFF139E119C32002100264808F0C7
:104A0400D7FF0F9A0E99254808F0D2FF341B2B00CC
:104A14000C99052622480D9A08F0CAFFF023361B8C
:104A24001B0537061F401F4B31001D401E483D43E8
:104A340008F0BEFF013400DB0AE11C4B1C4F984612
:104A44001C4B9946039B9A464CE0C046AC1E022080
:104A5400CCFD01208406022060FC0120E81E022017
:104A640068FC012098060220AC060220BC04022047
:104A7400C4060220DC060220F406022028070220D5
:104A8400480702205C070220000010A0C41E022078
:104A940070070220800702205C05022078050220AE
:104AA40094050220FFFFFFF094070220B0070220C4
:104AB400A4070220D81E0220013B1B072A0F12075D
:104AC4001B092C021343240B1C434946504608F08F
:104AD4006FFF013E22002900664808F069FF062E98
:104AE40019D02500380008F063FF2900404608F07B
:104AF4005FFF2B011B0FDFD1741E072E0AD0464621
:104B0400380008F055FF013C2900300008F050FF40
:104B1400062CF5D12C00C0270626FF043100564888
:104B240008F046FF554B0F9A1C400E9B0A9E9B1A99
:104B34005A1E9341A0223C4312061B0724019B18D2
:104B4400300024091C43FEF745FD01004C4808F0E1
:104B54002FFF109D2800FEF73DFD0100494808F095
:104B640027FF5946484808F023FF2000FEF732FD8E
:104B74000100464808F01CFF3000FEF72BFD0B999E
:104B84000200434808F014FF2800FEF723FD01004B
:104B9400404808F00DFF2000FEF71CFD01003E48D0
:104BA40008F006FF200015B0F0BCBB46B246A9468B
:104BB400A046F0BD394B2202120A039323011500CB
:104BC4001B0F0D92062B00D0F0E5109413932FE6E3
:104BD400334808F0EDFE0A9D22002900300008F059
:104BE400E7FE00212F4808F0E3FE0B99039808F034
:104BF400DFFE220029002C4808F0DAFEA02501215E
:104C04002A4808F0D5FE39002D062943284808F023
:104C1400CFFE2900274808F0CBFE0A98FEF7DAFCFD
:104C24000B9902001A4808F0C3FE2000FEF7D2FCDC
:104C34000100184808F0BCFE0020FEF7CBFC010080
:104C4400154808F0B5FE1C4808F0B2FE1B4CA9E755
:104C54002C0063E70522130087E505210B00CFE54F
:104C64001A000C9F130080E519000B00C8E5109C86
:104C7400D3E7C04668FC0120C0070220FFFFFFF015
:104C84002005022028050220E0070220300502202A
:104C94000C070220DC0402208800022060FC0120B2
:104CA40098060220AC060220BC040220C40602209E
:104CB400DC060220F406022018070220999999A024
:104CC40008B4F0B5CE46474680B5E6B06DAB20CB10
:104CD4008046894614000193062A07DD11002848FE
:104CE40008F066FE274808F0E1FDFEE7C8212A0027
:104CF400490002A808F008FB02A815F089FA102858
:104D040032D8013C2049214808F052FEE3001B1927
:104D14005B001C191E4B2A00E4181021019B200083
:104D240008F0F2FA200015F073FA0F26361A002E56
:104D34000DDD0025174F02E0200015F069FA02226C
:104D440039002018013506F015FFAE42F4D1FD23D9
:104D5400424649469B00D15066B0C0BCB946B046F5
:104D6400F0BC08BC01B0184729000B4808F020FE2D
:104D740002A90A4808F01CFE024808F097FDC0E7A3
:104D8400F407022080F60120741E02208CF6012014
:104D940048CD02204809022060F601206CF601206B
:104DA400F0B5CE46474680B589B000236A46040074
:104DB4001377002973D0DA239B00C1582033C358DA
:104DC400073B022B00D96FE030270F25BC460A0EA3
:104DD4002A40303216000A0D2A40303290460A0C1E
:104DE400080A2A4030322840914684440A0B0809B4
:104DF4000B0F2A40284029403033303230303031D4
:104E04003502474E000433402B434546454E2D049E
:104E140033402B434D461B022D061B0A2B4305939F
:104E240063461B021343090603430B430693E12322
:104E34009B00E358002B51D1DB239B00E258043341
:104E4400E358202559424B41374E5B423749AB4327
:104E5400413330000F0008F02FFA01210122200015
:104E6400334B0096FBF7F0FEDD239B00E25804333E
:104E7400E358300059424B415B42AB433900413364
:104E840008F01AFA2B4A0395A25C0121029205AAA2
:104E9400019220000222284B0096FFF711FF09B06F
:104EA400C0BCB946B046F0BDDE239B00C358002BFE
:104EB40022D030200F2584460B0B2B4030330809B9
:104EC4001A000B0A2B402840294011359C44202607
:104ED4002023A846A9463030303191E7202202929F
:104EE400144A0121A25C2000019205AA0092134BEE
:104EF4000222FFF7E5FED2E70F220B0F0D0E080D7D
:104F0400090C154010400A40202130303032303531
:104F1400804691462E0020228C46202030336FE7B5
:104F2400FF00FFFFFFFF00FF8CD6022098F6012050
:104F34001808022004040000200802200C080220A3
:104F4400F0B54546DE4657464E46E223E0B59B00A3
:104F5400C35804000D0099B0062B4DDC012B0FDC67
:104F640005D8FDF747F929002000FFF719FFFDF7E1
:104F740095FB19B0F0BCBB46B246A946A046F0BDAD
:104F8400E3239B00C358022B43DC002BEFDBFDF72C
:104F940031F929002000FFF703FF03222900200034
:104FA400D94BFFF78DFEED239B00E1582000FEF75F
:104FB400EBFED64B04222900009020001E00FFF7D0
:104FC4007FFEEA239B00E1582000FEF7AFFA33008E
:104FD4000522290000902000FFF772FEEB239B00BE
:104FE400E1582000FEF7A2FA3300009006222900BF
:104FF4002000FBF7CBFDBAE7073B022BB7D8E3232E
:105004009B00C3581F00092BB1D8C14A9B00D35839
:105014009F46042BABD1FFF7C3FEED239B00E15861
:105024002000FEF7B1FE0322009029002000B74BB8
:10503400FFF746FE9BE7B74808F0BAFCF326F423D3
:10504400F221B6009B008900A259E3586158B24886
:1050540008F0AEFCA359B1491B011E09B048320047
:105064008A46834608F0A4FC0BAB32001E00AD490F
:1050740018009946029108F01FF9AB490AAA3000BA
:105084009046039114F07CFEA84B0A9918000493EF
:1050940008F08EFC0A99002901DA00F042FEC729C3
:1050A40002DDC723C7210A93A14B1800059308F01A
:1050B4007FFC0A9B51469B00E35858460693F42311
:1050C4009B00E3581B011E09320008F071FC3200FA
:1050D4000299484608F0F0F842460399484614F00D
:1050E4004FFE0A99049808F063FC0A99002901DA32
:1050F40000F012FEC72902DDC723C7210A930598D1
:1051040008F056FC0A9B06999B00E25820000123F4
:10511400FEF7AAFAF2239B00E35851461B011E092D
:1051240032000690584608F043FC32000299484683
:1051340008F0C2F842460399484614F021FE0A9941
:10514400049808F035FC0A9B002B01DA00F089FD75
:105154001F00C72B02DDC7231F000A9339000598DF
:1051640008F026FC0A9B069A9B00E2502000FDF7FB
:1051740041F829002000FFF713FEF2239B00E158B9
:105184002000FEF701FE614B03222900009020005D
:105194001E00FFF795FDF3239B00E1582000FEF766
:1051A400F3FD33000422290000902000FFF788FD5E
:1051B400F4239B00E1582000FEF7E6FD3300009045
:1051C400052229002000FFF77BFDD0E6594808F0AE
:1051D400EFFBF326F423F221B6009B008900A259C9
:1051E400E35861584C4808F0E3FBA3594B491B01B1
:1051F4001E094B4832008A46834608F0D9FB0BABA4
:1052040032001E00474918009946029108F054F8EC
:1052140045490AAA30009046039114F0B1FD434B6E
:105224000A991800049308F0C3FB0A99002901DACB
:1052340000F06DFDC72902DDC723C7210A933C4B4B
:105244001800059308F0B4FB0A9B51469B00E358F1
:1052540058461F00F4239B00E3581B011E0932002B
:1052640008F0A6FB32000299484608F025F84246A9
:105274000399484614F084FD0A99049808F098FBB1
:105284000A99002901DA00F03DFDC72902DDC72390
:10529400C7210A93059808F08BFB0A9B26489B00BC
:1052A400E3581E00190008F083FB32003900200087
:1052B400FFF70EFAF2239B00E35851461B011E0927
:1052C40032000700584608F073FB32000299484642
:1052D40007F0F2FF42460399484614F051FD0A993B
:1052E400049808F065FB0A99002901DA00F0B4FC7F
:1052F400C72902DDC723C7210A93059808F058FB84
:105304000A9B9B00E75031E7300802208800022006
:10531400781D02204008022050080220681F022045
:1053240010FB0120B4F40120BC1502201CFB012059
:1053340028FB01209008022078080220AA4808F0DF
:1053440037FBF326F423F221B6009B008900A2590F
:10535400E3586158A54808F02BFBEF239B00E35862
:10536400A3490793A359A3481B011E0932008A4687
:10537400834608F01DFB0BAB32001E009E4918004B
:105384009946029107F098FF9C490AAA300090467A
:10539400039114F0F5FC9A4B0A991800049308F051
:1053A40007FB0A99002901DA00F0A7FCC72902DDEE
:1053B400C723C7210A93934B1800059308F0F8FA02
:1053C4000A9B51469B00E35858461F00F4239B0058
:1053D400E3581B011E09320008F0EAFA3200029970
:1053E400484607F069FF42460399484614F0C8FC52
:1053F4000A99049808F0DCFA0A99002901DA00F005
:1054040077FCC72902DDC723C7210A93059808F052
:10541400CFFA0A9B7C489B00E3583A001E00079988
:105424000893069008F0C4FA2000FCF7E3FE7749DD
:10543400774808F0BDFA32003900764808F0B8FA27
:10544400330F0A2B01D100F07FFC089A0B2B04D1F7
:105454001301A0221B0912061A430123390020005C
:10546400FEF702F906006C48310008F0A1FA330295
:105474001E0A002B00D071E13A00079F089B3900F7
:10548400069808F095FA654808F092FADB239B0029
:10549400E7500433E65029002000FFF781FCEF2396
:1054A4009B00E35851460693F2239B00E358584669
:1054B4001B011E09320008F07BFA320002994846AB
:1054C40007F0FAFE42460399484614F059FC0A993B
:1054D400049808F06DFA0A99002900DAB8E3C7299C
:1054E40002DDC723C7210A93059808F061FA0A9BD5
:1054F4009B00E058FEF76EF8069A494B290001908C
:105504000092200003221F00FFF7DAFBF0239B0028
:10551400E35851460693F3239B00E35858461B0176
:105524001E09320008F044FA32000299484607F096
:10553400C3FE42460399484614F022FC0A99049893
:1055440008F036FA0A99002900DA79E3C72902DD5E
:10555400C723C7210A93059808F02AFA0A9B9B00DF
:10556400E058FEF737F8069B0422290001900093C7
:1055740020003B00FFF7A4FBF1239B00E3585146B6
:105584000693F4239B00E35858461B011E0932007E
:1055940008F00EFA32000299484607F08DFE4246A2
:1055A4000399484614F0ECFB0A99049808F000FAB1
:1055B4000A99002900DA47E3C72902DDC723C72176
:1055C4000A93059808F0F4F90A9B9B00E058FEF74B
:1055D40001F8069B0190009305223B00290020005E
:1055E400FFF76EFBC3E4C0469C080220500802206B
:1055F400681F022010FB0120B4F40120BC15022016
:105604001CFB012028FB0120BC080220C41E022030
:1056140060FC0120BC040220D4080220E00802201F
:105624000C090220A94808F0C3F9F326F423F22157
:10563400B6009B008900A259E3586158A44808F0B9
:10564400B7F9EF239B00E358A2490793A359A24853
:105654001B011E0932008A46834608F0A9F90BABE8
:1056640032001E009D4918009946029107F024FE5D
:105674009B490AAA30009046039114F081FB994B90
:105684000A991800049308F093F90A99002900DA9A
:10569400FFE2C72902DDC723C7210A93924B1800F2
:1056A400059308F085F90A9B51469B00E358584638
:1056B4001F00F4239B00E3581B011E09320008F06D
:1056C40077F932000299484607F0F6FD42460399FD
:1056D400484614F055FB0A99049808F069F90A99A8
:1056E400002900DAD1E2C72902DDC723C7210A93C2
:1056F400059808F05DF90A9B7C489B00E3583A0042
:105704001E0007990893069008F052F92000FCF750
:1057140071FD7749774808F04BF932003900764833
:1057240008F046F9330F0A2B00D106E3089A0B2B35
:1057340004D11301A0221B0912061A4301233900C4
:105744002000FDF791FF06006C48310008F030F9A5
:10575400330203D0330F0A2B00D1FDE23A00089B39
:105764000799069808F024F9654808F021F992E6AB
:10577400564808F01DF9F326F423F221B6009B00E5
:105784008900A259E3586158514808F011F9EF23F0
:105794009B00E3584F490893A3594F481B011E0926
:1057A40032008A46834608F003F90BAB32001E0030
:1057B4004A4918009946029107F07EFD48490AAA11
:1057C40030009046039114F0DBFA464B0A99180016
:1057D400049308F0EDF80A99002900DA84E2C72955
:1057E40002DDC723C7210A933F4B1800059308F035
:1057F400DFF80A9B51469B00E35858460793F4236D
:105804009B00E3581B011E09320008F0D1F8320056
:105814000299484607F050FD42460399484614F061
:10582400AFFA0A99049808F0C3F80A99002900DA33
:1058340056E2C72902DDC723C7210A93059808F059
:10584400B7F80A9B079E9B00E35828483200089942
:105854001F00069008F0ACF82000FCF7CBFC3301E5
:10586400A0261B0936061E433B01A0271B093F0641
:105874001F431F491F480793099608F099F8310000
:105884003A001D4808F094F8B022079B1206310034
:105894001A4320000123FDF7E7FE060017483100F4
:1058A40008F086F8330206D0A022330F1B07120635
:1058B400934200D162E23B00099A0899069808F0E5
:1058C40077F80F4808F074F8E5E5C0461809022097
:1058D40050080220681F022010FB0120B4F40120AC
:1058E400BC1502201CFB012028FB0120BC0802205F
:1058F400C41E022060FC0120BC040220D408022043
:10590400F4080220E94808F053F8F326F423F221BE
:10591400B6009B008900A259E3586158E44808F096
:1059240047F8A359E3491B011E09E34832008A469C
:10593400834608F03DF80BAB32001E00DF49180027
:105944009946029107F0B8FCDD490AAA3000904656
:10595400039114F015FADB4B0A991800049308F02C
:1059640027F80A99002900DA9BE1C72902DDC72339
:10597400C7210A93D44B1800059308F019F80A9B21
:1059840051469B00E35858461F00F4239B00E358FC
:105994001B011E09320008F00BF832000299484638
:1059A40007F08AFC42460399484614F0E9F90A993B
:1059B400049807F0FDFF0A99002900DA6DE1C72970
:1059C40002DDC723C7210A93059807F0F1FF0A9B5C
:1059D400BE489B00E3581E00190007F0E9FFBC49CC
:1059E400BC4807F0E5FF32003900BB4807F0E0FF90
:1059F400330F0A2B00D199E10B2B05D1A0223301DF
:105A04001B0912061A431600012332003900200034
:105A1400FDF72AFE4EE4B14807F0CAFFF326F4234B
:105A2400F221B6009B008900A259E3586158A048AE
:105A340007F0BEFFA3599F491B011E099E4832006F
:105A44008A46834607F0B4FF0BAB32001E009B4925
:105A540018009946029107F02FFC99490AAA3000D0
:105A64009046039114F08CF9964B0A99180004930C
:105A740007F09EFF0A99002900DAFAE0C72902DD3F
:105A8400C723C7210A93904B1800059307F090FF92
:105A94000A9B51469B00E35858461F00F4239B0081
:105AA400E3581B011E09320007F082FF32000299FD
:105AB400484607F001FC42460399484614F060F951
:105AC4000A99049807F074FF0A99002900DACCE0D7
