:020000041000EA
:1000000000B5324B212058609868022188439860DF
:10001000D860186158612E4B002199600221596106
:100020000121F02299502B49196001219960352056
:1000300000F044F80222904214D00621196600F024
:1000400034F8196E01211966002018661A6600F04E
:100050002CF8196E196E196E052000F02FF8012189
:100060000842F9D1002199601B49196000215960AB
:100070001A491B48016001219960EB211966A021F2
:10008000196600F012F800219960164914480160C1
:100090000121996001BC002800D000471248134993
:1000A000086003C880F30888084703B5996A0420EC
:1000B0000142FBD001200142F8D103BD02B5186610
:1000C0001866FFF7F2FF186E186E02BD00000240BE
:1000D000000000180000070000035F00212200005C
:1000E000F4000018222000A00001001008ED00E03C
:1000F00000000000000000000000000074B24E7A12
:1001000000200420F7010010C3010010C5010010F9
:10011000C1010010C1010010C1010010C101001097
:10012000C1010010C1010010C1010010C701001081
:10013000C1010010C1010010C9010010CB01001065
:10014000CD010010CD010010CD010010CD01001037
:10015000CD010010CD010010CD010010CD01001027
:10016000CD010010CD010010CD010010CD01001017
:10017000CD010010CD010010CD010010CD01001007
:10018000CD010010CD010010CD010010CD010010F7
:10019000CD010010CD010010CD010010CD010010E7
:1001A000CD010010CD010010CD010010CD010010D7
:1001B000CD010010CD010010CD010010CD010010C7
:1001C00000BE00BE00BE00BE00BE00BEEFF3058054
:1001D000103800BEF2EB887190020010B4020010DB
:1001E0003802001090A31AE721482249086006C887
:1001F00081F30888104720480068002801D01C4877
:10020000F3E70DA40ECC002902D000F012F8F9E7B4
:100210001A491B4A002000E001C19142FCD1194952
:100220008847194988471949884700BEFDE701C931
:1002300001C29A42FBD37047B4020010C0000020F4
:1002400014E4012008E6011020E4012098C40220F3
:1002500080C60210000004200000042080C60210A6
:10026000001004200010042000000000704700006F
:100270000000000008ED00E0000000D098C402205B
:10028000ACF4022011D30020957C0020D1D20020B4
:10029000602702206C270220782702208427022072
:1002A000902702209C270220A8270220B4270220A2
:0402B000A02A02205E
:1002B400F8B5C0460448054B10B5834203D0044B3F
:1002C400002B00D0984710BD98C4022098C4022087
:1002D4000000000006480749091A8B10C90FC91805
:1002E40010B5491003D0044B002B00D0984710BD23
:1002F40098C4022098C402200000000010B5074CE6
:100304002378002B09D1FFF7D5FF054B002B02D032
:10031400044800E000BF0123237010BDE0DC02208C
:100324000000000014E40120054B10B5002B03D09D
:100334000449054800E000BFFFF7CCFF10BDC046EC
:1003440000000000E4DC022014E401207047C046F1
:100354000023054A05498350012242500449425072
:100364008322520183507047681000005810000027
:1003740050100000034A8358013383500122024B7A
:10038400C25070476810000050100000044A83589F
:10039400002B01DD013B83500122024BC250704708
:1003A400681000005010000000230121034A83500C
:1003B400034A8150103283507047C04658100000E1
:1003C400501000000122054B0549C2500023435040
:1003D4000449425083225201835070475C1000004C
:1003E40058100000501000000023054A8350054AAD
:1003F4008350054A01338350103283507047C046FE
:10040400681000005810000050100000054A064B08
:10041400825812019B1800225B681A60034B013258
:10042400C2507047681000009CA0022050100000C9
:10043400054A064B825812019B185A68012313601F
:10044400034A83507047C046681000009CA00220F5
:1004540050100000044BC258002A01D10132C2508E
:100464000122024BC2507047681000005010000077
:100474000121024B024A99507047C04660C70220CE
:1004840050100000084B0948094918605960094890
:1004940009499860D96009480949186159610948AE
:1004A40007499861D961704760C70220630352030A
:1004B4005600561050055305520551055405530571
:1004C40051075106002400240A4AC8201168B822A2
:1004D4004A43094B30B59B185969084C0023400026
:1004E40003E0E2500433834202D0CA58551CF8D1C9
:1004F40030BDC0467CEF02209CA1022060C70220D0
:10050400B8220A4B19680A4B4A431960094B012166
:100514009B18002219611A76074B1960074B196062
:10052400074B1A60074B1A707047C0467CEF0220D5
:100534000CF402209CA1022014F4022018F40220DE
:1005440064F3022068F30220FEE7C04610B51521CB
:10055400024B034A03480DF06DFA10BD70F40120FC
:100564007CF4012088F4012070B5094C05002100B9
:1005740008480DF05FFA00230121074A0748AB50F1
:10058400074AA950074A2100AB500DF053FA70BD39
:1005940024230220ACF401202C10000004F50120D7
:1005A400241000003010000070B5074C0500210035
:1005B40006480DF03FFA0122054B2100EA50054898
:1005C4000DF038FA70BDC04614230220ACF40120AB
:1005D4003010000004F50120C823002110B5094C97
:1005E40009489B00E31803C3084B094823600DF036
:1005F40021FAC8239B00E258064800230DF01AFA9A
:1006040010BDC04660C70220325476081814101476
:100614005CF501206CF5012010B50E480DF088F949
:100624000D4B0E481A680E4B19680DF003FA0D4B6A
:100634000D4819680DF0FEF90C4B0D481A680D4B66
:1006440019680DF0F7F90C4B0C4819680DF0F2F924
:1006540010BDC04684F501204CEF022094F5012022
:1006640054EF022050EF0220B8F501205CEF022085
:10067400D0F5012044EF022058EF0220E4F50120D8
:1006840010B5054C054821680DF0D4F920682538CB
:1006940007F096FE10BDC04660EF0220F0F5012081
:1006A40010B50A2007F08CFE10BDC04610B5092015
:1006B40007F086FE10BDC04610B5152007F080FE79
:1006C40010BDC04610B5162007F07AFE10BDC04616
:1006D40010B5172007F074FE10BDC04610B50720F2
:1006E40007F06EFE10BDC04610B51A2007F068FE74
:1006F40010BDC04610B5022007F062FE10BDC04612
:1007040010B5062007F05CFE10BDC04610B50520EC
:1007140007F056FE10BDC04610B5032007F050FE8A
:1007240010BDC04610B5042007F04AFE10BDC046F7
:1007340010B51B2007F044FE10BDC04610B51D20A7
:1007440007F03EFE10BDC04610B51C2007F038FE71
:1007540010BDC046002110B5034B044A182099501F
:1007640007F02EFE10BDC04660C7022050100000E6
:10077400002110B5034B044A1920995007F020FEBC
:1007840010BDC04660C7022050100000F0B5002222
:10079400C646114B114C00B525001A6000230127F1
:1007A40098460F4E183504E043462B7027610135F7
:1007B400B8343100206819F021FD0028F4D1012259
:1007C400084B1860084B1A60084B1860084B1870E7
:1007D40080BCB846F0BDC0460CF402209CA10220A7
:1007E400F4F5012014F4022018F4022064F302202A
:1007F40068F3022030B583B005000949100001AA4E
:1008040019F000FB0400012803D00024200003B0E9
:1008140030BD0199034B0448E9500DF00BF9F5E79D
:10082400FCF50120BC0F00000CF6012030B583B0AC
:1008340005000A49100001AA19F0E4FA040001288D
:1008440003D00024200003B030BDFC2301991B0118
:10085400E95003480DF0EEF8F4E7C04624F6012011
:1008640034F60120002330B583B005000A49100096
:1008740001AA019319F0C6FA0400012803D0002448
:10088400200003B030BDFA2301991B01E95003484D
:100894000DF0D0F8F4E7C0464CF601205CF60120D8
:1008A40030B583B005000949100001AA19F0AAFA6D
:1008B4000400012803D00024200003B030BD0199B6
:1008C400034B0448E9500DF0B5F8F5E778F601203C
:1008D400B80F000094F6012030B583B00500094933
:1008E400100001AA19F08EFA0400012803D0002494
:1008F400200003B030BD0199034B0448E9500DF0CA
:1009040099F8F5E7B4F60120CC0F0000C8F60120F1
:1009140030B5284C0500236810008FB0002B02D19D
:1009240000200FB030BD0DAB05930CAB04930BABA3
:1009340003930AAB029309AB019308AB00931E49DE
:1009440007AB06AA19F05EFA082804D000231B4A54
:1009540023601360E4E7194C22689300EB185907ED
:1009640017D10698079918605960089809999860F2
:10097400D9600A980B99186159610C980D9998617E
:10098400D961130007320833920023600120A95073
:10099400C7E70699196007995960089999600999F8
:1009A400D9600A9919610B9959610C9999610D994A
:1009B400D961E6E790EF0220E0F6012094EF0220EF
:1009C40010B582B01000094901AA19F01BFA0400FD
:1009D400012803D00024200002B010BD0199044B6B
:1009E400044819600DF026F8F5E7C046FCF601202E
:1009F40048F3022014F7012010B582B010000A4910
:100A040001AA19F0FFF90400012803D000242000F2
:100A140002B010BD054B019A05481A60054B1968D0
:100A24000DF008F8F3E7C04634F7012048F302203C
:100A340048F701202CF102200023074A10B5835007
:100A4400064A8350083283500122054BC2500548A0
:100A540007F074FE10BDC0465C1000005810000082
:100A640050100000F4B8022010B5084904000848EA
:100A740008F09AF90023074A0749A350012262505B
:100A84000649625083225201A35010BDD0D70220E0
:100A940064F701205C1000005810000050100000A2
:100AA400F0B5D6464F464646C0B50A2082B00CF093
:100AB400F5FE20480CF0BEFF1F480CF039FF1F4B19
:100AC4001B68002B31D01E4B1E4819680CF0B2FF76
:100AD4000A200CF0E3FE1C4B002599461B4B1C4CD2
:100AE40098461C4B1C4F9A4626683900300019F072
:100AF40085FB00280CD022694346002A00D05346C7
:100B04002200183200922900320048460CF092FF6D
:100B14000135B8341F2DE7D10A200CF0BFFE02B016
:100B2400E0BCBA46B146A846F0BD0C480CF082FFC2
:100B3400CEE7C0467CF701208CF7012018F4022090
:100B44000CF402209CF70120C4F7012074F7012063
:100B54009CA102206CF70120F4F50120B0F70120DC
:100B640070B50A200CF09AFE8D23094C9B00094EA7
:100B7400E518626813782A2B03D0300021780CF032
:100B840059FF0C34AC42F4D103480CF053FF70BD50
:100B9400E03C0220DCF70120E8F70120F0B5DE4656
:100BA40057464E464546E0B5DDB0802200211CA8DC
:100BB4000BF01CF8802200213CA80BF017F82D48FC
:100BC4000CF0B6FE2C4B01932C4B9A462C4B9B46B7
:100BD400FA2080000CF016FE023044D1019B03AFD2
:100BE4001B6800261B011B09984600233B70013338
:100BF40099463CAD1CAC18E02368002B07DD013B93
:100C04002360002B03D12A68002A00D02B6038000F
:100C140019F040FB0222514638180AF0EDFF043562
:100C24005CAB01360434AB42D2D04B464246B340AF
:100C34001A42E1D0380019F02DFB02225946381827
:100C44000AF0DAFF2368132BE9DC05332360072B52
:100C5400E5DD2B68002BE2D14B4631002B600948BF
:100C64000CF0E8FEDBE75DB0F0BCBB46B246A9463B
:100C7400A046F0BD04F8012084F4022098F9012074
:100C84009C1A022014F8012070B527480CF0D2FEFB
:100C9400264D274C3DE0D023012202211B069A61F8
:100CA40099610231996180000431996141598A4006
:100CB4005A61D0231B0659685B68C906C90F9B0695
:100CC40001D502231943D0231B065B685B0601D5BB
:100CD40004231943D0231B065B681B0601D5082394
:100CE4001943D0231B065B68DB0501D51023194388
:100CF400D0231B065B689B0501D520231943D02311
:100D04001B065B685B0501D54023194320000CF0EA
:100D140091FEFA2080000CF075FD831CC9D0303898
:100D24000328B8D970BDC0461CF80120382502201C
:100D3400F0F501200021002010B509F05FFEC04647
:100D4400100010B50722084919F094F9002300286F
:100D540001D0180010BD0122044B05481A600CF0A4
:100D640069FE0123F5E7C04628F8012090EF022030
:100D740030F801207047C04608B4F0B5C64600B547
:100D8400E7B06DAB40CB804614000193062A07DD23
:100D9400110028480CF04EFE27480CF0C9FDFEE770
:100DA400C8213200490002A80CF0F0FA02A819F098
:100DB40071FA122831D801222049013C20480CF054
:100DC40039FE63001B19DD00ED1A1E4B3200ED18CD
:100DD4001221019B28000CF0D9FA280019F05AFAC4
:100DE4000F26361A002E0DDD0024174F02E02800CE
:100DF40019F050FA02223900281801340AF0FCFED6
:100E0400A642F4D101224146104BCA5067B080BCBF
:100E1400B846F0BC08BC01B0184731000C480CF0CF
:100E240009FE02A90B480CF005FE03480CF080FDF6
:100E3400C1E7C04644F801205CF80120F0220220FA
:100E440088F80120C8E6022098F90120501000001B
:100E540068F8012074F80120044A8358002B01DD4E
:100E6400013B83500122024BC250704768100000BE
:100E740050100000F0B5C64600B5254886B00CF009
:100E8400D9FD0023234C244F2360244B9846FA2099
:100E940080000CF0B7FC831C37D03928F7DC2F28EE
:100EA40009DC1B28F3D81E4B0341DB07EFD406B043
:100EB40080BCB846F0BD2268303893009B185B00B4
:100EC4001B183900404623600CF0B4FD1548164B3E
:100ED40006681B68704270415A4253412025134AE8
:100EE4004042216812685B42A8434130AB4341331E
:100EF4000290019200920E480A000CF09BFDFA2029
:100F040080000CF07FFC831CC7D10CF067FCBEE7AB
:100F1400A0F801207CEF022024F40220CCF8012068
:100F2400FFDBFFF760E5022064E502205CE50220B8
:100F3400E4F80120F0B5C646FA2200238226040014
:100F440000B5120182B083501D4A1E4F83501E4BC0
:100F54007601C5580433C25881599046EA053B6866
:100F64001A48D20F0CF066FDA359002B1ED1164B64
:100F7400E358DB051AD443465A4253412022144E07
:100F84005B42934330002A00124941330CF0D6F9F6
:100F9400012201212000104B0096FFF7EDFE0122F3
:100FA4000E4BE25002B080BCB846F0BD3B68002B4B
:100FB400E1D10B4B064E1A6832601B793371E7E7B7
:100FC400A40F00002CF10220BC0F000030F9012016
:100FD40030F0022070F9012078F90120501000004F
:100FE400DC0002202022F0B5334B83B0C254FA2235
:100FF4000023012112018350304A82278350304A52
:101004000400815001222F49524242502E492F4D53
:101014004250043142502E4A7F018350083A835093
:101024002C4BC159C6582B68F2052B48D20F0CF033
:1010340001FDE359002B35D1264BE358DB0531D4B0
:10104400264D20233200280025490CF077F9200092
:10105400009501220121234BFFF78EFE200002227E
:101064000121214BFFF788FE204D20002B00032295
:101074000121FFF781FE2B00200004220121FFF74C
:101084007BFE2B00200005220121FFF775FE2B00BB
:10109400062201212000FFF76FFE0122144BE250CB
:1010A40003B0F0BD2B68002BCAD1124B0B4D1A684C
:1010B4002A601B792B71CAE764100000A40F00009A
:1010C400D40F0000F80F0000FC0F00002CF10220E8
:1010D400C80F0000BC0F000030F9012030F00220DE
:1010E40070F9012088F901209CF90120ACF9012054
:1010F40050100000DC000220F0B54F464646D646AC
:10110400FA22FC210023C0B582270400120185586D
:101114002F4E090184B08551435083502D4A7F01DD
:1011240083502D4BC159EA052C489846D20F1B68B1
:1011340081460CF07FFCE359002B3CD1A359DB051D
:1011440039D4274E274920232A0030008A460CF040
:10115400F5F8254F20003B00012201210096FFF7FE
:101164000BFE1B4B8221E2580433E558434603929D
:101174004901D2051B6861584846D20F0CF05AFC4D
:101184006B425D4120226B4293435146039A3000E7
:1011940041330CF0D3F83B000122012120000096DA
:1011A400FFF7EAFD0122114BE25004B0E0BCBA465D
:1011B400B146A846F0BD43461B68002BC1D10C4B79
:1011C400074E1A6832601B793371064B9A46C0E7A2
:1011D400BC0F0000A40F00002CF1022030F9012004
:1011E40030F0022070F9012078F90120501000003D
:1011F400DC000220F0B5DE464E4645465746202226
:10120400E0B5524B85B0C254FA2200231201835038
:101214004F4A82278350FC2304004E4E1B018259FF
:10122400C5587F014C4BC15993464C48D20598464A
:10123400D20F1B6881460CF0FDFBE359002B00D054
:1012440075E0A359DB0500D571E06B425D412022B6
:10125400434E6B42934343495A46300041338A46D6
:101264000CF06CF80121200001223F4B0096FFF79F
:1012740083FD002382253D4A6D01A3503C4A6351FE
:10128400A3503C4A3C48A35007F058FA4246314B1D
:101294006159E7580433E358484603931368FA0541
:1012A400D20F0CF0C7FB039D20226B425D416B42C1
:1012B400934351463A00300041330CF03FF820008C
:1012C400012201212D4B0096FFF756FD2C4D2000E5
:1012D4002B0002220121FFF74FFD2B0020000322E7
:1012E4000121FFF749FD2B00200004220121FFF713
:1012F40043FD2B00200005220121FFF73DFD2B00BB
:10130400062201212000FFF737FD01231D4A5B421D
:10131400A3501D4AA3500432A35001221B4BE25098
:1013240005B0F0BCBB46B246A946A046F0BD434654
:101334001B68002B00D088E7154B094E1A683260F1
:101344001B793371074B9A468CE7C0466410000042
:10135400A40F0000BC0F00002CF1022030F9012082
:1013640030F0022070F9012078F901203C100000CF
:10137400D40F000034100000F4B8022088F90120D2
:10138400ACF90120F80F0000FC0F00005010000021
:10139400DC0002200FB400B5B5B036AB04CBC821D5
:1013A40001A800930BF0F2FF35B008BC04B0184755
:1013B4000FB400B5B5B036AB04CBC82101A8009377
:1013C4000BF0E4FF01A903480CF034FB35B008BC72
:1013D40004B01847C4F901200FB470B5AAB02EABFD
:1013E40004CBA02101A800930BF0D0FF01A9194858
:1013F4000CF020FB184D9E24280018F04BFF241AF3
:10140400060001A818F046FF32000300210013482B
:101414000CF010FB631C15D0280018F03BFF0222CF
:101424000F4928180AF0E8FB01A92200280018F047
:10143400EDFD29000B480CF0FDFA2AB070BC08BC85
:1014440004B0184721232200290007482B700CF010
:10145400F1FAF2E7DCF9012068F30220F0F9012047
:1014640098F9012028FA012018FA012010B500206B
:10147400D02407F0F1FE012324066362012007F063
:10148400EBFE02230220636207F0E6FE042303203E
:10149400636207F0E1FE08230420636207F0DCFEC8
:1014A40010230122A3620021042007F0C3FE0520BB
:1014B40007F0D2FE20230122A3620021052007F0B9
:1014C400B9FE062007F0C8FE40230122A3620021D2
:1014D400062007F0AFFE072007F0BEFE802301229E
:1014E400A3620021072007F0A5FE082007F0B4FE40
:1014F40080235B00A36201220021082007F09AFEEA
:10150400092007F0A9FE80239B00A3620122002189
:10151400092007F08FFE0A2007F09EFE8023DB00DF
:10152400012200210A20A36207F084FE10BDC046F8
:101534000B00153B10B5042B19D8184A9B00D3583F
:101544009F46FD231B01C058C11710BDFA231B0180
:101554000021C058F9E7124B0021C058F5E7114BA0
:101564000021C058F1E7104B0021C058EDE70729CE
:1015740007D90B00083B012B08D90C48FFF70AFFD9
:10158400E3E7C831890040580021DEE7C82289001A
:1015940041189200885828328958D6E774210220CD
:1015A400BC0F0000CC0F0000A80F000048FA012077
:1015B400CBB210B5072B18D9083B012B11D80B005F
:1015C400083B012B0DD889004018D22189004358CB
:1015D400D4171B0F1B072343C824A40002514350F4
:1015E40010BD0748FFF7D6FEFAE70729F9D8C83136
:1015F400890043581B0F1B0713434350F0E7C046B1
:1016040048FA0120F0B5DE4657464E464546E0B559
:1016140099B01693704B8B460B93704B0021139328
:101624006F4B129014936F4B002017930F23159256
:10163400002400229A460C900D912500203D74D47C
:101644005346AB4099465346A340129898464946A0
:1016540018405B460B40002D00DA8FE01900E9408A
:101664000491E34005934346494615981840169B58
:101674000B40002D00DA77E01900E9400691E340C1
:10168400049E059F079300230698079936184F4137
:10169400099308920899099A761857410698079968
:1016A400049A059B00900191029603970B99139855
:1016B4000CF0C0F9434602934B4603935346A340B0
:1016C40058461299DA1702400B40009301925B4688
:1016D4000A0014980CF0AEF90A225242D317921958
:1016E4007B41002B27D1092A25D800230622B618CE
:1016F4005F4153461E40002D56DB3300AB4011932F
:10170400A6400C9A0D9B10961098119912184B41F3
:1017140004340B9917980C920D930CF08BF9402C10
:1017240048D025000122203D8AD5202351461B1B89
:10173400D940894687E7002D2ADB3300AB400F935D
:101744003300A3400E930E980F990C9A0D9B121818
:101754004B4104340B9917980C920D930CF06AF9D1
:10176400402C27D0002268E720211E00E040091BFE
:101774008E408446B4446146069180E720211E00D1
:10178400E040091B8E408446B4446146049168E7F6
:10179400202332001B1BDA4013003A00A240944677
:1017A4009C4463460F93CBE7202332001B1BDA4093
:1017B4001192A5E70C9D0D9E34040B992A00230C6D
:1017C40009480CF037F92800210C19B0F0BCBB46CD
:1017D400B246A946A046F0BDF824022014FB01201D
:1017E4003CFB0120E4FA012064FB0120F0B5DE4655
:1017F40057464E464546E0B589B00790CC480C00A4
:1018040016000CF017F9CB4B22009946CA4B4946F7
:101814009A46270F330050460CF00CF93B000C3B62
:10182400350F012B00D90C272B000C3B012B00D9C1
:101834000C252A003900C14824010CF0FBF83601BC
:101844002309984636090595B34200D90597320015
:101854004146BB48059B0CF0EDF80D2F00D10FE17C
:101864000C2D00D11FE1B74D28000CF0E3F8B64B66
:101874009E1B33004946424650460CF0DBF82800D4
:101884000CF0D8F800239946B04B00210393B04BD9
:1018940000249A460F239B464B46B1461E00AD4D8D
:1018A4005B464846A34042461A400340E340E240B8
:1018B400D7187F180398290000970CF0BBF83B0059
:1018C4000A3B092B0ED85B4606371F40A740F61982
:1018D40032002900504604340CF0ACF8202C0DD012
:1018E4000121DDE7A740F6193200290050460434EF
:1018F4000CF0A0F8202C01D00021D1E7964B360241
:10190400360A29003200180007930CF093F8934B21
:101914003100180006930CF08DF8914B002798467F
:101924000F2399468F4B9B464346A8461D0002E071
:101934000437202F14D04C46BC403440FC402800CF
:1019440021000A3C0CF076F8052CF1D80623BB40A4
:10195400F6183100584604370CF06CF8202FEAD101
:101964002B0031000698454698460CF063F8310088
:101974007D480CF05FF8F0231B051E4200D18AE07D
:101984007A4B00211E400F23B346002700269946B8
:101994004A465B46BA401A407B427B41FA40FB40D0
:1019A400D41864180398290000940CF043F8230019
:1019B4000A3B092B0ED84B4606341C40BC40361952
:1019C40032002900504604370CF034F8202F0DD093
:1019D4000121DDE7BC4036193200290050460437A6
:1019E4000CF028F8202F01D00021D1E73602360A66
:1019F4002900320007980CF01DF8310006980CF00D
:101A040019F80F239946574B00279B464346A8468F
:101A14001D0002E00437202F14D04C46BC40344053
:101A2400FC40280021000A3C0CF004F8052CF1D8F5
:101A34000623BB40F6183100584604370BF0FAFF72
:101A4400202FEAD12B0031000698454698460BF02A
:101A5400F1FF059B0D2B00D1DDE0059B36013A4AD1
:101A640036091C07344321004148121B0BF0E2FFE6
:101A7400200009B0F0BCBB46B246A946A046F0BD62
:101A84000D2D10D02F4D28000BF0D4FF42462E4BC5
:101A94009B1A9846EDE637480BF0CCFF31003648E8
:101AA400FFF778FC6CE735480BF0C4FF0023049380
:101AB400264BB1460393264B00219A460F2300265A
:101AC4009B46244D5B464846B34042461A40034079
:101AD400F340F240D41864180398290000940BF0E2
:101AE400A9FF23000A3B092B12D85B4606341C408D
:101AF400049BB4409C46A444634629001A00504603
:101B0400043604930BF096FF202E39D00121D9E737
:101B1400049BB4409C46A444634629001A005046E2
:101B2400043604930BF086FF202E29D00021C9E748
:101B34007CFB0120E8240220A0FB0120B4FB01204F
:101B4400C8FB0120F0FB012099999900C8FA0120F3
:101B5400E4FA01200C25022000FB012064FA012094
:101B640070FA012080FA012018FC0120FFFFFFF029
:101B740044FC012020FC012034FC012004FC012051
:101B8400049B29001C02240A22005C480BF052FF2B
:101B94005B4B2100180003930BF04CFF594B2100C1
:101BA400180006930BF046FF574B002698460F2368
:101BB4009946093B9B46554B9A464346B8461F00F7
:101BC40002E00436202E14D04D46B5402540F540A1
:101BD400380029000A3D0BF02DFF052DF1D85B4696
:101BE400B340E4182100504604360BF023FF202EA6
:101BF400EAD1210006980BF01DFF210003980BF099
:101C040019FFF0231B0547461C4269D1240124090E
:101C14003F073C432CE73E4B00219B1B9B460F2375
:101C24000026002799464A465B46BA401A407B4242
:101C34007B41FA40FB40D4186418039829000094AF
:101C44000BF0F8FE23000A3B092B0ED84B46063452
:101C54001C40BC40361932002900504604370BF0B2
:101C6400E9FE202F0DD00121DDE7BC4036193200FA
:101C74002900504604370BF0DDFE202F01D000214F
:101C8400D1E73602360A2900320007980BF0D2FE5B
:101C9400310006980BF0CEFE06239A461B4B002516
:101CA4000F27994602E00435202D14D03C00AC40A7
:101CB4003440EC40404621000A3C0BF0BBFE052CAE
:101CC400F1D85346AB40F6183100484604350BF0C2
:101CD400B1FE202DEAD1310006980BF0ABFEBCE634
:101CE4000C480BF0A7FE21000B48FFF753FB012320
:101CF4000A4A07998B500A4A8B5087E700FB012058
:101D040018FC012064FA012070FA012080FA0120F5
:101D14009999990020FC012034FC01203410000022
:101D240030100000F0B5DE46454657464E46904614
:101D3400E0B5040099B0D4480D00994693460BF0E1
:101D440079FE434600934B46D049D1480193220083
:101D54002B00109111900BF06DFE2B0F9A464B4601
:101D64001B0F984653460C3B012B01D90C239A4672
:101D740043460C3B012B01D90C23984642462D01C6
:101D84005146C4480BF056FE2B0909934B46089460
:101D94001B011D095C46089A099BAB4200D90EE160
:101DA40000D109E143460B93029300940195089AEC
:101DB400099BB9480BF03EFE53460D2B00D101E1BF
:101DC40043460C2B00D116E1B4480B990BF032FEBC
:101DD400B34AB44B121BAB4114001D00089A099B73
:101DE40000940195109911980BF024FEAE480BF065
:101DF40021FE0898099922002B00FFF703FC0890A4
:101E04000991AA48AA49089A099B0C9110900BF0D1
:101E140011FEA84B002498460F239A46A64BA146D0
:101E2400089C099D9B4615E01A00CA4016004A46C4
:101E3400D340404632001F000BF0FCFD0A22524200
:101E4400D31792197B41002B17D0042399444B4696
:101E5400402B28D04B4652469A404946D3172B4034
:101E640022402039E0D548462021091A180088402C
:101E740001004846C2408E18D9E7052AE5D84A46EB
:101E8400063393400493DB170593049A059BA41827
:101E94005D4158462B0022000BF0CCFD04239944ED
:101EA4004B46402BD6D1854822002B000894099537
:101EB40004900BF0BFFD2B00220081480BF0BAFD0B
:101EC400F0231B032B4200D18CE0089C099D7D4923
:101ED4000122002320002940FFF794FB0B0002009D
:101EE40006000F0010980C990BF0A4FD0F2300249A
:101EF4009A46714BA1469B4615E01A00CA4014004D
:101F04004A46D340404622001D000BF093FD0A22AE
:101F14005242D31712196B41002B17D00423994452
:101F24004B46402B28D04B4652469A404946D3173D
:101F34003B4032402039E0D548462021091A180098
:101F4400884001004846C2408C18D9E7052AE5D8E4
:101F54004A46063393400693DB170793069A079B7A
:101F6400B6185F4158463B0032000BF063FD042372
:101F740099444B46402BD6D13B00320004980BF0D9
:101F840059FD0B9B0D2B00D1DCE00B9A3B011B0987
:101F940015071D434C4B32009B1B00934B482B00F1
:101FA40034000BF047FD2000290019B0F0BCBB46FB
:101FB400B246A946A046F0BD5A4500D8F2E65346BB
:101FC4000B93F1E643460D2B15D00B9933480BF0D8
:101FD40031FD08980999324A324B121A8B41089202
:101FE4000993FBE63A480BF025FD089A099B39480A
:101FF400FFF7D0F969E738480BF01CFD08980999F8
:1020040022002B00FFF7FEFA0D00040000262C4FDF
:1020140002000B0038000BF00DFD2B0022002449B8
:1020240022480BF007FD234BB1469846224B0497F8
:102034009B4615E01A00CA4016004A46D340404663
:1020440032001F000BF0F6FC0A225242D3179219F9
:102054007B41002B42D0042399444B46402B53D060
:102064004B460F229A404946D3172B402240203931
:10207400E0D548462021091A180088400100484646
:10208400C2408E18D9E7C0467CFB0120D824022028
:1020940058FC0120B4FB012074FC0120B0FC012099
:1020A4009999999999990000F0FB012090FA0120DF
:1020B4002025022070FA0120A4FA0120B8FA012098
:1020C400A4FC0120FFFF00F099999900E8FC01208D
:1020D40020FC012034FC012004FC0120052ABAD88C
:1020E4004A46063393400C93DB170D930C9A0D9BD1
:1020F400A4185D4158462B0022000BF09BFC0423DE
:1021040099444B46402BABD1049F22002B003D4801
:102114000BF090FC2B00220038000BF08BFCF0231A
:102124001B032B4205D153462D012D091B071D43CB
:1021340039E735480BF07EFC22002B003348FFF7CB
:1021440029F9F0E732480BF075FC32483249012294
:10215400801BB9410023FFF755FA0B00020006006B
:102164000F0010980C990BF065FC0F2300249A467D
:102174002A4BA1469B4615E01A00CA4014004A4661
:10218400D340404622001D000BF054FC0A22524268
:10219400D31712196B41002B17D0042399444B46D3
:1021A400402B28D04B4652469A404946D3173B40D1
:1021B40032402039E0D548462021091A18008840C9
:1021C40001004846C2408C18D9E7052AE5D84A469A
:1021D400063393400E93DB170F930E9A0F9BB6189A
:1021E4005F4158463B0032000BF024FC0423994421
:1021F4004B46402BD6D132003B0004980BF01AFC1E
:10220400C3E6C046B8FA012020FC012034FC0120BA
:10221400D0FC01209999999999990000A4FA012078
:10222400F0B5DE4657464E464546E0B534488DB0D7
:102234000BF07EFB9C239B46324B334C9A46334B2C
:10224400A3449946324B9846324B099325686668F5
:10225400290032005046A768FFF7C8FA4246030037
:10226400874200D1099A009229003200484601971A
:102274000C340BF0DFFB5C45E8D127480BF058FB2E
:10228400264B98469C235B0043449B46244B09936E
:102294001F4B0A931F4B0B9343461C685D689E6853
:1022A400DF681B693200994643465B6920009A4601
:1022B40029003B00FFF736FD81451CD00A9B4A46A6
:1022C40006925246049307922B0002902200009635
:1022D4000197099803910BF0ADFB18239844D84556
:1022E400DAD10A200BF0DAFA0DB0F0BCBB46B246E4
:1022F400A946A046F0BD8A45E0D10B9BDFE7C04666
:1023040010FD012060C70220309B022024FD012023
:1023140008FD012000FD012048FD0120F89902205C
:102324005CFD012070B50C0190B0220906000D007F
:10233400164817490BF07EFB1649220903A80AF038
:10234400FDFF154902AA03A817F05CFD0299134882
:102354000BF070FB0299002913DBC72902DDC723A8
:10236400C72102930E480BF065FB029B0D499A00AE
:10237400B4580D482A0000940BF05CFB200010B008
:1023840070BD002300210293ECE7C0468CFD0120C0
:10239400C824022044F701204C19022098FD012092
:1023A400A4FD0120B8240220B0FD0120F8B5374F68
:1023B4000D0006001400130035480A0039000BF024
:1023C40039FB072D06D8072C24D92300083B012B01
:1023D4002AD9F8BD2B00083B012BFAD82300083B6F
:1023E400012B3ED9072CF4D82A480BF023FBC82133
:1023F400C834A4003259AD00130F12027619120A20
:10240400890072501B0728317350234839000BF0A0
:1024140011FBDEE7C8342148A4000BF00BFBC835E0
:102424003359AD007351D4E71A480BF003FBD223A0
:10243400A40034199B00E258283BE358120F1901F9
:10244400090912070A4316491B020A401B0AC83528
:102454001A43AD000023390072510F480BF0EAFA19
:10246400B7E710480BF0E6FAD221C820A4003419CB
:102474008900800063582258AD0075192A506B50AA
:10248400054839000BF0D6FAA3E7C0469C24022085
:10249400D4FD012028FE012014FE0120E8FD0120C6
:1024A400FFFFFFF0F8FD0120F0B5454657464E46C4
:1024B400DE460C00E0B5474983B0060017001D0056
:1024C400009345481300220088460BF0B3FA072C0A
:1024D4003DD92300083B012B06D903B0F0BCBB4611
:1024E400B246A946A046F0BD3C480BF0A3FAC02270
:1024F400EB171B011B0912061A43FBB21100072B31
:102504005CD9083B012B0BD8FF23C8223B409B001E
:10251400F31892009A589246D22292009B589B46F6
:102524002A000F000B0050465946FFF7FBFB0B0037
:10253400C8210200A4003619890072502831735052
:1025440027484146009501970BF074FAC5E72548E2
:102554000BF070FAC0222D012D091206FBB22A439A
:10256400072B1FD9083B012B31D8FF21C823D220C8
:1025740039408900711880009B00CB580958180213
:1025840089461B01000A1B094946090F090719431B
:10259400154BC834194001433000FFF727F9A40054
:1025A40030519AE7FF2300213B40C8339B00F35886
:1025B400894618021B01000A1B09E5E7FF233B407B
:1025C400C8339B00F3589A4600239B46A8E7002093
:1025D4000023D9E77424022044FE012074FE012064
:1025E40088FE012060FE0120FFFFFFF070B50500AA
:1025F4000C001000072916D8DAB2072A4CD9083A79
:10260400012A00D96BE0FF221A40C82392009B00E4
:10261400AA18D258130F0C2B46D112011309D02239
:1026240012061A4347E00A00083A012A16D8DAB219
:10263400072A14D8FF221A40C8329200AB581E0051
:1026440000239C46634632000021FFF76BFBC8233E
:10265400A4002D199B00E8502833E95070BD083AB6
:10266400012A0BD8FF221340C8229B00EB189200CA
:102674009A581600D22292009B589C4663461B0F20
:102684000C2B24D00D2BDDD16346C0221B011B096A
:1026940012061A439446D5E7FF221A40C832920024
:1026A400AA58130F0C2BB8D00D2B04D11201130907
:1026B400C02212061A43C021000100090906014381
:1026C4002800FFF793F8C834A4002851C6E76346EE
:1026D400D0221B011B0912061A439446B2E70022BA
:1026E400DFE7C04670B505000C001800072918D8AC
:1026F400D021180100090906D3B20143072B41D99F
:10270400083B012B4AD8FF231340C8229B00EB1837
:10271400920028009A58FFF769F8C834A400285199
:1027240070BD0B00083B012BFAD8D021C3171B0145
:102734001B0909061943D3B2072B13D8FF231340EF
:10274400C8339B00EB581E0000239C4663463200AE
:10275400FFF7E8FAC823A4002D199B00E85028339A
:10276400E950DDE7083B012BF0D8FF231340C822D2
:102774009B00EB1892009A581600D22292009B58A4
:102784009C46E3E7FF231340C8339B00EA58280024
:10279400FFF72CF8C834A4002851C1E70022F6E75B
:1027A400F8B50C0007291ED8072A03D92E48FEF7CE
:1027B400F1FDF8BD072B3AD9190008390129F5D8DC
:1027C400D2219B00C31889000500585828395B584A
:1027D400000F190109090007084324491B02084096
:1027E4001B0A184327E008390129DFD811000839EA
:1027F4000129DBD819000839012927D9072BD5D895
:102804000500D226C827C8339B00E95892008018D7
:102814000B0FB60009020A0A81591B07BF00C059F1
:10282400FFF780FAA4002C19E051A151C1E7C83385
:102834009B000500C058C8329300E95802002800E4
:10284400FEF7D4FFC834A4002851B2E70500D2260D
:10285400C82792009B008018B600EA18BF0093595D
:102864008159D259DBE7C046A8FE0120FFFFFFF0E3
:10287400F0B5C64607000C0015001E0000B5072978
:1028840034D8072A05D95148FEF784FD80BCB846E0
:10289400F0BD072B5CD9083B012BF4D84C480BF056
:1028A400C9F82B00D222C820C8339B00F958B300C2
:1028B400FB189200800018589A58130F020112094D
:1028C4001B071343434A13400202120A1A431B0F05
:1028D4000C2B4BD112011309D02212061A433800D3
:1028E400FEF784FFC834A4003851CFE70B00083B3F
:1028F400012BC8D81300083B012BC4D83300083B74
:10290400012B3BD9072EBED833480BF093F8D222C3
:10291400AB00FB1892009958283A9B589C46330008
:10292400C8339B00FB58180F1B021A0A03070C2814
:1029340041D00D2801D1C0231B066046FFF7F2F9F0
:10294400C823A4003C199B00E0502833E1509DE7C4
:1029540022480BF06FF82B00C8339B00F958330062
:10296400C8339B00FA58130F0C2BB3D00D2BB6D1E0
:1029740012011309C02212061A43B0E718480BF0DB
:1029840059F8C820D2228000AB000500FB18920041
:1029940099581858B300FB185D599B58AC461A0F48
:1029A4000C2A0BD00D2A04D11B011A09C0231B06C3
:1029B40013436246C2E7D0231B06BEE71B011A0974
:1029C400D0231B0613436246B8E7C046A8FE012085
:1029D400ECFE0120FFFFFFF0E0FE0120C8FE012015
:1029E400D4FE012030B5C64600B5072929D90B000D
:1029F400083B012B07D90A001E481F49FEF7CAFCF1
:102A040020BCA84630BDD22392001400890040188F
:102A14009B00C158283BC3589C460B011B09203C12
:102A240021D46346A34064461B04090F09071B0C09
:102A340094400B43D222C821920089004450835011
:102A4400DEE7C8239B009C4689004018C1589200C9
:102A54000B021B0A934062461B02090F1B0A09075B
:102A64000B438350CCE72024A51A64469340EC40E2
:102A74001B19D8E714FF012060240220F0B5C646D4
:102A840000B507292AD90B00083B012B07D90A00F6
:102A940021482249FEF77EFC80BCB846F0BDD22313
:102AA40092001400890040189B00C158283BC35869
:102AB4001E000B011B09203C24D425001C00EC4003
:102AC400A446D340090F1B040907C8221B0C0B435F
:102AD40061469200815028328350DDE7C823890083
:102AE40040189B009C46C35819020C0A91000A0026
:102AF400CC40203AD2171B0F22401B0713436246D7
:102B04008350C9E72024A51A1C00AC403500D540E9
:102B1400AC46A444D5E7C04614FF01204824022053
:102B2400F0B54E464546DE465746E0B580468946F2
:102B3400002687B099290CD14346424640461E6080
:102B44000023536007B0F0BCBB46B246A946A0467A
:102B5400F0BD344B00219A46334B00259B46334F3E
:102B64000F224B46AA401A406B426B41EA40EB40AD
:102B7400D41864185046390000940AF05BFF23000F
:102B84000A3B092B0ED80F2306341C40AC403619DF
:102B940032003900584604350AF04CFF202D0DD080
:102BA4000121DDE7AC4036193200390058460435BE
:102BB4000AF040FF202D01D00021D1E73602360A69
:102BC400390032001A480AF035FF1A4B3100180058
:102BD4009B460AF02FFF184B00259946174B0F27E9
:102BE4009A4602E00435202D14D03C00AC40344019
:102BF400EC40484621000A3C0AF01CFF052CF1D8A1
:102C04000623AB40F6183100504604350AF012FF93
:102C1400202DEAD13100584636050AF00BFF360D57
:102C24008AE7C046C8FA0120E4FA01200C250220F4
:102C340000FB012064FA012070FA012080FA0120CF
:102C4400F0B5C64600220D000400822600B5224BD2
:102C540082B0C250214B0132C2507E32204B01213E
:102C640000927D3AFEF788F829001E480AF0E2FE39
:102C74001D4B1E4FE5580433E25876019046EA0591
:102C84003B68A1591A48D20F0AF0D4FEA359002B6D
:102C940018D1154BE358DB0514D443465A4253412B
:102CA4002022144C5B42934320002A0012494133F2
:102CB4000AF044FB210011480AF0BCFE02B080BCBB
:102CC400B846F0BD3B68002BE7D10D4B094C1A68A0
:102CD40022601B792371EDE72410000030100000FE
:102CE40030FF012044FF0120BC0F00002CF1022022
:102CF40030F9012030F0022070F9012060FF01203A
:102D0400DC000220F0B5D6464F4646460023C0B547
:102D140088B005AD04002B72002905D108B0E0BCD1
:102D2400BA46B146A846F0BDA04B8227C158FFF76A
:102D3400F9FA06007F013200E1599D480AF07AFE53
:102D4400E359002B73D19B4BE15880230A005B00AD
:102D54000F001A40194200D095E0974BE358073B07
:102D6400022B00D998E0954BE1580B0F30332B70B0
:102D74000F23080E184030306870080D18403030AA
:102D8400A870080C18403030E870080B1840303038
:102D94002871080A184030306871080918400B403F
:102DA4003033EB71864B3030E358A871002B00D0E0
:102DB400CAE0844E3168002A00D1D2E0002900D054
:102DC400CFE08022002352007848D2052058D20F49
:102DD40007007D48205880467C480AF02BFE822359
:102DE4005B01E358002B03D1724BE358DB0503D599
:102DF4003368002B00D1BEE0464673425E41202278
:102E04007342734E934330003A00724941330AF0DF
:102E140095FA20220392704A0121A25C20000292BA
:102E24006E4B022201950096FDF7A6FF76E7370F59
:102E340039006B480AF0FEFDFB1FB846022B2BD865
:102E440082235B01E358002B00D19DE030210F2049
:102E54008C464346320E02409444320D02403032D6
:102E64009046310A320C02400140303230319146F2
:102E74008A46320B3109024001403040303330324F
:102E84003031303022E04F4A1268002ACFD04A4A0B
:102E9400A258073A022A75D9484BE0584A4BE358DE
:102EA400002B3ED130210F228C46060E1640030F14
:102EB400B444060D000C164002403032303610394E
:102EC4009146B04620228A46202030336646454F3C
:102ED40036023B4033434646434F36043B4033437C
:102EE4004E461B0236061B0A3343059353461B0208
:102EF4001A43334B090400060A43E358024306927B
:102F0400002B21D1822380225B01E158294B5200FE
:102F1400E3581F001A40002900D14AE7294E3368BC
:102F240052E70F232026010A19403031020B8A464A
:102F340001091A4019401840B446B046B14630322F
:102F4400303130301133C1E720220292224A01216C
:102F5400A25C20000192254B02220095FDF70CFF94
:102F6400DCE6FC231B01E358D205984617480B0006
:102F7400D20F002131E71E4B154E1A6832601B79BF
:102F8400337146E71A00EEE60A4B8021E358490004
:102F94001A001F000A400B4200D1E4E6094B1B68EB
:102FA400002B00D152E70A00DDE6C046C40F000042
:102FB40070FF0120BC0F0000D80F0000B80F000004
:102FC400D40F00002CF10220C80F000030F90120BA
:102FD40030F0022070F9012064100000C4FF0120C9
:102FE4009CFF0120FF00FFFFFFFF00FFB8FF01204F
:102FF400DC000220F0B5C646FA2200238226040033
:1030040000B5120182B083501C4A1D4F83501D4BE2
:103014007601C5580433C25881599046EA053B6885
:103024001948D20F0AF006FDA359002B1BD1154BEA
:10303400E358DB0517D443465A4253412022134E2A
:103044005B42934330002A00114941330AF076F978
:103054000122012120000F4B0096FDF78DFE02B0E6
:1030640080BCB846F0BD3B68002BE4D10A4B074E48
:103074001A6832601B793371EAE7C046A40F000076
:103084002CF10220BC0F000030F9012030F00220A6
:1030940070F9012078F90120DC000220F0B5040069
:1030A4002A4D2B4F290091B02A480AF0C3FC29006D
:1030B400E25929480AF0BEFC284BE658E359002B94
:1030C40007D0F30505D4FA231B01E258244BE25040
:1030D40031E037013F093A00224923480AF0AAFCAB
:1030E4003A00224903A80AF029F9214902AA03A8AF
:1030F40016F088FE02991F480AF09CFC02990029E8
:103104001FDBC72902DDC723C72102931A480AF02F
:1031140091FC029B19499A00A7581948320000975C
:103124000AF088FC0E4E0D4B2900E2581548A751B1
:103134000AF080FCA259290013480AF07BFC11B064
:10314400F0BD002300210293E0E7C046D82302200B
:10315400D40F0000D4FF0120D8FF0120BC0F0000D1
:10316400B80F0000C82402208CFD012044F7012080
:103174004C19022098FD0120A4FD0120B82402204E
:10318400B0FD0120E8FF0120F8FF0120F0B5C6469C
:10319400822100B5484C494B9AB0E5580433E658AF
:1031A400474B4848EA05490161580393D20F1B680D
:1031B40080460AF03FFC73425E412022424F734234
:1031C400424E934339002A00413330000AF0B6F8E6
:1031D4003F4D320028003F490AF0B0F882213E4BAF
:1031E4003648E2583D4B0492E258039B059222185C
:1031F40052784901D2076158D20F40461B680AF041
:1032040019FC059B20215A4253415B428B434133B5
:103214003900049A30000AF091F83200304906A8C7
:103224000AF08CF806A9280016F0CAFEFA232D4EDF
:103234001B01E258300000232B490AF07FF83200CA
:103244002A4906A80AF07AF806A9280016F0B8FE5A
:10325400274B2849E25806A80AF070F806A9280066
:1032640016F0AEFE244B2549E25806A80AF066F88B
:1032740006A9280016F0A4FEFD231B01E2582049EC
:1032840006A80AF05BF806A9280016F099FE1D4866
:103294001D4B20581D4AE358A2581D49009006A80A
:1032A4000AF04CF8280006A916F08AFE28001AB085
:1032B40080BCB846F0BDC04660C70220BC0F000009
:1032C4002CF1022030F9012070F9012030F00220A5
:1032D40040F1022018000220C40F0000C80F0000B3
:1032E4002C000220F4EF02204000022048000220BB
:1032F400B80F00005C000220CC0F00007400022014
:103304008C000220301000002C100000241000005B
:10331400A4000220F8B5DE464E46454657460A202C
:10332400E0B50AF0BBFA69480AF084FB68480AF081
:1033340081FB68480AF07EFBFFF728FF010066481E
:103344000AF078FBC823654E9B00F518644B0024F3
:103354009946644B644F9B46644B98462B684A4697
:10336400591C0ED01A0F1B011B090C2A00D1ABE00B
:103374000D2A00D1A1E05D485D49824609F0DEFFD7
:1033840052462100380001340AF054FB0435082C5D
:10339400E4D1D0239B00F418564B22689946564B2F
:1033A40008259846A36A511C10D04946404609F0A6
:1033B400C5FF4246290038000AF03CFB092D0ED017
:1033C400626804340925A36A511CEED1591CECD15E
:1033D40029003800424A0AF02DFB092DF0D10A20B9
:1033E4000AF05CFA45480AF025FB45480AF022FB3E
:1033F400444B4548F15C0AF01DFB444B4448F158EA
:103404000AF018FB434B4448F1580AF013FB80239D
:103414005B01F15841480AF00DFB414B4148F25819
:10342400414BF1580AF006FB404B414A4149F358DD
:10343400B258715840480AF0FDFA81233F4A404986
:103444005B01B258F35871583E480AF0F3FA3E4B08
:103454003E48F1580AF0EEFA3D4B3E48F1580AF066
:10346400E9FA3D4B3D48F3185978C907C90F0AF0EA
:10347400E1FA82235B01F15839480AF0DBFA0A20A9
:103484000AF00CFA37480AF0D5FA37480AF0D2FAAB
:10349400364B374819680AF0CDFA364B3648196866
:1034A4000AF0C8FA354B364819680AF0C3FAF0BC7A
:1034B400BB46B246A946A046F8BD2D225946404611
:1034C400C24609F03BFF5BE72B22F7E7E40002204A
:1034D400F400022004010220D4FF012060C702206E
:1034E400D8000220200102202801022008F0022036
:1034F4001401022040000220F4EF022038010220CF
:10350400440102206410000050010220F80F000062
:103514006C010220FC0F0000840102209C010220A7
:1035240008100000B4010220041000001410000070
:10353400101000000C100000DC0102201C10000020
:103544001810000000020220D40F00002402022000
:10355400341000003C020220BC0F00005402022080
:103564006C020220840202208C02022018F4022041
:103574009402022008F40220B002022020F4022067
:10358400CC020220F0B55746DE464E464546E0B52D
:10359400CE4C824622688FB0002A01D1CC4B1A60EF
:1035A400D02109064B684968DB06DB0F890601D583
:1035B40002210B43D02109064968490601D504219B
:1035C4000B43D02109064968090601D508210B439C
:1035D400D02109064968C90501D510210B43D02023
:1035E40000064168890519D520210B434168490526
:1035F40011D4B8490B60B648B74904680C60D101CE
:103604000B430360032A57D00FB0F0BCBB46B2464D
:10361400A946A046F0BD40210B43EAE7406880215B
:103624000500C9000D400842F5D1AA490B60002BE2
:10363400E1D1AA498B4609680029E3D1A848016869
:1036440001310A2944DD0360A64B03931B68002B58
:10365400D8D0A54B06931B689946002B65D0A34B85
:10366400A3491A680493B8235343A24ACB180C9273
:10367400126802919968920053581D000593FFF750
:1036840049FE29009C480AF0D5F91E2D00D1D3E04B
:103694001F2D00D1C0E0002D00D1CDE0059D97483D
:1036A40029000AF0C7F9280004F08AFE0C9A13686E
:1036B400013313602268A5E7854B914C1968914D3D
:1036C40023682960994201D0002903D121609BE736
:1036D400016097E78C480AF0ADF98C4B29689C4649
:1036E4001A00002303E0013308321C2BEED01068CB
:1036F4008142F8D1DE006644706804F061FE844BB8
:1037040070689C461A1D002303E0013308321C2B09
:1037140075D011688842F8D16246DB00D1587D48E3
:103724000AF088F9296821606EE77B4B18009846F7
:103734000AF080F9B8226D4F6D4E3B6877485343C9
:10374400F158029604970AF075F940460AF072F9A6
:10375400734B39681D60B8234B43F3185A69C82367
:103764005B0026009C460C00514603E04B51043597
:10377400654502D05359581CF8D12100B8233400B0
:1037840000254B43029A674FD3185B682A019818A7
:103794009A5C0B2A1FD00E2A15D00A2A03D18268FC
:1037A40001359146F2E72A0038000AF043F9002275
:1037B400039B1A60049B029A1968B8234B43D318DD
:1037C4005B680135E2E70123069A13600022494B46
:1037D4001A60226816E78268C0688446484607284B
:1037E40007D908384E4601280BD94F48FDF7D2FDBA
:1037F400E0E75646C830800032500135C6E74B49F1
:103804008DE7B000C8265044B6008251D2226646E5
:10381400920086500135B9E701235A465146136098
:10382400434A44488B500C9A0121136801331360B6
:103834000AF000F92268E5E600235A4600213E48D2
:1038440013600AF0F7F8B823049E3C4832685343E7
:10385400029AD1580AF0EEF81F230D9434000A930B
:10386400203B9946364B2E4D0793364B29680893D7
:10387400059A07980AF0DEF82B6821689C46B8235D
:103884004B43029AD3186246DB6810011A181B5C7A
:1038940018001438C0B20B2800D9F7E0089980004A
:1038A40009588F461A002848059999460AF0C2F823
:1038B400296801312960DBE7936824481900994697
:1038C4000AF0B8F814230A93F2E7C04644EF022042
:1038D40054EF022058EF02204CEF022020F4022083
:1038E40008F4022018F4022064F302200CF40220ED
:1038F4009CA102201CF40220E8020220E005022020
:1039040048EF022050EF022068060220BCA00220EB
:1039140014B802203CFA0120F405022028060220F3
:1039240010F4022040060220F8FE0120BCF9012018
:1039340024100000F402022028030220580302206D
:103944007803022088210220BC030220AC03022059
:10395400DA480D9C09F0ECFF0023039A13605A46E1
:10396400136001332B60049BD54D1A68B82353436D
:10397400029A2968D2181269002900D0D6E0002AD8
:1039840000D1EFE0CF4ED0480AF054F8049ACF4962
:10399400136801331360320000261670B8225343B3
:1039A400029AD05816F02AFC002800D1CAE001235C
:1039B400039A2E601360069B22681E6022E6C448A8
:1039C4000D9C0AF037F80C9A1368013313602B68C6
:1039D40001332B60039B1B68002BC4D0BD480AF045
:1039E40029F822680EE65646BB4BBC4FF258F159F3
:1039F400BB480AF01FF8F359002B00D158E7B94827
:103A0400FDF7EAFCB82322685343029AD318002234
:103A14001A614DE75646B04BB04FF258F159B248CF
:103A24000AF008F8F3591E1E00D041E7AF48FDF72D
:103A3400D3FCB82322685343029AD3181E6137E794
:103A44000A9EAB4A3300143B9B00D158A9489046C8
:103A540009F0F0FF1A2E25D04B4601330AD04A460E
:103A64001F2A00D9A1E0A44BD340DB0771D5A3489A
:103A740009F0E0FF1F230A931AE79368A04819008E
:103A8400994609F0D7FF1A230A9311E762469D4825
:103A94000D9C09F0CFFF0023039A13602B680133B8
:103AA4002B6060E749465046FEF73CFCB822236889
:103AB4005343029AD3182A68DB6812019B189A6848
:103AC400824257D049465046FEF72CFCB82684461D
:103AD4002368029F73432A68FB18DB6812019B1852
:103AE4009A68DB684946009201938748624609F068
:103AF400A1FF49465046FEF715FC844623682A6810
:103B04007343FB18DB6812019B189A68DB6849460B
:103B1400009201937D486246FDF75EFC0022236813
:103B24007343FB181A611F230A93C1E6002A01D0CC
:103B3400226867E5029A1833D018624916F0A2FB8E
:103B440022685FE5039B1860714809F073FF2268DF
:103B540058E54B46153B042B00D9F1E06D4A9B0018
:103B6400D3589F46029A57491833D0180E0016F0BE
:103B740089FB08E7DB68002BA4D149465046FEF7D1
:103B8400D1FBB8228446236849465343029A6248CB
:103B9400D3182A68DB6812019B189A68DB680092C4
:103BA4000193624609F046FF64E749465B48FDF726
:103BB400F1FBB82322680B995343029AD3182A685D
:103BC400DB6812019B189A68DB688A424DD04E4626
:103BD4005348310009F02EFFF3B2132B3DD851485E
:103BE4004B4606001421504ADBB209F0BBFBB04639
:103BF400B82649465046FDF79BFC2368029F734351
:103C04002A68FB18DB6812019B189A68DB6800922B
:103C1400019302000B0045484146FDF7DDFB7DE7BB
:103C2400FD2352461B01D3581E00DF17B823226818
:103C34005343029AD3182A68DB6812019B189A68C6
:103C4400DB680B920993964221D0494634480B9A7B
:103C5400099B09F0EFFE0B9609974B464246DBB2EF
:103C6400143B9B00D3589846C2E709998B42AED1C6
:103C7400099B49462E480B9A09F0DCFE1F230A9340
:103C840016E652462B4B0027D3581E00CEE7099A5E
:103C94009742DAD1ECE75246274B0027D3581E004F
:103CA400C4E75246254B0027D3581E00BEE7FA232B
:103CB40052461B01D35800271E00B7E734050220E3
:103CC40014F4022068F302209C050220F4F501207C
:103CD4002405022078050220241000003010000082
:103CE4000804022034040220D4030220FC0302202E
:103CF400E4B70220400402200000108CB00402202B
:103D0400940302204805022070040220900402203B
:103D1400B4050220B82102205004022048FA0120F0
:103D2400F40402204CF302204C190220080502205E
:103D3400E0040220A80F0000CC0F0000BC0F00001C
:103D44004B46072A1DD85246C8339B00D358002738
:103D54001E00B82322685343029AD3182A68DB68EA
:103D640012019B189A68DB680B920993964217D04C
:103D740049460D480B9A099B09F05CFE0B9609977E
:103D84002DE7083B012B00D90FE79300C8225344C9
:103D940092009A581600D22292009B581F00D8E72E
:103DA400099A9742E4D163E7F404022030B5B3B032
:103DB400050004F099FD164804F0C0FF002822D045
:103DC4002900144809F0BAFA2800134914F006FF30
:103DD400041E14D0114D03E06946280009F02AFEA0
:103DE4002200C721684614F08BFF0028F4D120007C
:103DF40014F068FF04F096FD012033B030BD2900B3
:103E0400074809F017FE04F08DFD0020F5E7C046D1
:103E140064F7012094060220C41A02204C040220F4
:103E2400A4060220F0B5C64600B5B2B0040004F002
:103E34005BFD214804F082FF002838D021001F4890
:103E440009F07CFA20001E4914F0C8FE6D46804635
:103E5400002828D01B4F4246C721280014F050FFE9
:103E6400002816D02B782A2BF5D1174C260048367B
:103E74002A0021003800636898470028EBD10834F1
:103E8400B442F5D14246C721280014F039FF002876
:103E9400E8D1404614F016FF04F044FD012032B08E
:103EA40080BCB846F0BD2100084809F0C3FD04F009
:103EB40039FD0020F3E7C04664F701209406022090
:103EC400C41A022060C70220143F0220A406022064
:103ED40010B5040021000848FFF7A4FF074804F0C8
:103EE4002DFC00230121064AA350064AA350064A8A
:103EF400A1501032A35010BDD0D70220F4B8022034
:103F04005C100000581000005010000010B5024969
:103F14000248FFF787FF10BD60C70220B8060220E1
:103F2400F0B5DE46454657464E46E0B58B4C050097
:103F3400A54403A816F0A6F903A9894809F07AFD57
:103F440004F0D2FC874804F0F9FE002800D1CEE04A
:103F54000A2203A908A811F09DF9002800D0C3E0A3
:103F6400814908A813F014FB804B8149EA5808A83A
:103F740013F00EFBFC231B01EA587E4908A813F03A
:103F840007FBFA231B01EA587B4908A813F000FB3E
:103F94007A4B7B49EA5808A813F0FAFA794B7A4924
:103FA400EA5808A813F0F4FA784B79491A6808A873
:103FB40013F0EEFA774B78491A6808A813F0E8FA78
:103FC400C8239B009A46754BAA44A946564600242A
:103FD4009846002708CE220041460093019708A87E
:103FE400013413F0D5FA082CF4D1C8239B006C4C8F
:103FF400EB58210008220093019708A813F0C8FA8F
:10400400C9239B00EB58210000930922019708A8BB
:1040140013F0BEFA634908A813F0BAFAFA239B0016
:104024009846614B002407269B46604F26426AD07F
:10403400A3003900EA5808A8013413F0A9FA44454A
:10404400F4D15B4E08A8310013F0A2FA28002A002C
:1040540000239130FF3002CA5B188242FBD1554CD9
:10406400A26893426AD0A269934200D174E0524993
:10407400524F0091524A390008A813F089FA0023DC
:10408400A535FF3504CD9B185545FBD1A268934255
:1040940059D0A26993425BD047490091494A3900FB
:1040A40008A813F075FA0023494604C989469B18E9
:1040B4005145F9D1A2689A423BD0A269934249D0B2
:1040C4003D49414A009108A8390013F061FA3100D2
:1040D40008A813F05DFA08A812F06AFA041E1ED1AB
:1040E40004F020FC012005E0384809F0A3FC04F0AA
:1040F40019FC0020A1239B009D44F0BCBB46B246A2
:10410400A946A046F0BD594608A813F041FAA300F9
:104114003900EA5808A813F03BFA013486E714F092
:1041240051FD220001002A4809F084FC04F0FAFB46
:10413400DFE700221201A4186168C2E7002212011D
:10414400A218516894E700221201A2185168A4E74A
:104154000122F9E70122EDE70122F0E77CFDFFFFF0
:10416400DC06022064F70120F4060220BC0F0000E4
:10417400200702203407022048070220B80F00005D
:104184005C070220CC0F00007807022048F30220CD
:10419400900702202CF10220AC070220C407022061
:1041A400D0070220E0070220EC070220F0070220DB
:1041B400D8F9012000B9022040180220C4060220C8
:1041C400F80702200408022010080220E806022052
:1041D4001C08022030B505000C4C87B022000C4BA3
:1041E4000C490D4804F040FE0C4B21001A6801A84C
:1041F400013209F0A3F801A92800FFF791FE01A9F3
:10420400074809F017FC07B030BDC046400802203B
:10421400340802205008022064F701206CEF0220C9
:104224005C08022010B5094804F086FB002808D079
:10423400074C08482100FFF773FE2000FFF7B6FD86
:1042440010BD0549054809F0F5FBF1E764F70120C5
:10425400B806022060C7022060F002207408022021
:10426400002370B51C4D82B00C002B700B00072985
:104274001CD9083B012B16D8C8228B00C018D223A6
:10428400920082589B00C358511C21D013481449F2
:10429400060009F053F83000009023001221280092
:1042A400104A09F05FF8280002B070BDC8339B00C3
:1042B400C3580D481B02060000220C491B0A09F0D2
:1042C4003DF8330022002800064909F037F8EAE7F0
:1042D400591CDBD10648DFE7D0EF0220F4EF0220BF
:1042E400400002209408022008F002201401022059
:1042F400D8000220F0B5C6465D4E0100804600B5E8
:10430400300015F0BFFF3378002B68D02B2B01D180
:104314000B3B33707378002B61D02B2B01D10B3BFB
:104324007370B378002B5AD02B2B00D187E0F3782D
:10433400002B54D02B2B00D184E03379002B4ED0AA
:104344002B2B00D181E07379002B48D02B2B01D18A
:104354000B3B7371B379002B41D02B2B01D10B3B59
:10436400B371F379002B3AD02B2B01D10B3BF371B2
:10437400337A002B33D02B2B01D10B3B3372737A5E
:10438400002B2CD02B2B01D10B3B7372B37A002B57
:1043940025D02B2B60D0F37A002B20D02B2B5ED092
:1043A400337B002B1BD02B2B5CD0737B002B16D0C4
:1043B4002B2B01D10B3B7373B37B002B0FD02B2B17
:1043C40001D10B3BB373F37B002B08D02B2B01D112
:1043D4000B3BF373337C002B01D02B2B45D03400E3
:1043E40000252027300015F055FF854206D223789A
:1043F4002D2B0FD0202B0DD0302B0ED0431EF25C72
:104404002E2A16D03100404615F03CFF80BCB84639
:10441400F0BD277001350134E4E76378302BF8D020
:1044240020233000735515F035FF431EF25C2E2A0D
:10443400E8D1325C002AE5D12032F254E2E70B3BAA
:10444400B37074E70B3BF37077E70B3B337173790D
:10445400002B00D07AE7C2E70B3BB3729BE70B3B20
:10446400F3729DE70B3B33739FE70B3B3374B6E763
:1044740034F30220F8B50023324D2B80030F0C2BAC
:104484005ED00D2B4BD12D272F4C03003A002F4922
:104494000601200008F052FF3A002D49280008F0D8
:1044A4004DFF0622360F921BE11C280015F0AEFDCD
:1044B400280015F0EFFE02222649281807F09CFB7D
:1044C400A11B32000931280015F0A0FD29002000AD
:1044D40015F0D8FE204B1B68002B2DD11F4D210059
:1044E400280015F0CFFE2A782B002D202021002A49
:1044F40008D10EE01A78442A00D118705A78013392
:10450400002A06D0432AF5D119705A780133002ABB
:10451400F8D12900200015F0B5FE2000F8BD2027B1
:10452400092BB1D8084C02000D49200008F006FF01
:10453400094B1B68002BD1D02000FFF7DBFECDE731
:104544002B27A1E744F002201CF00220A00802203F
:1045540074F90120880D022048F3022034F302206C
:10456400F8FA0120F8B54746CE4680B5FA274A4BFB
:10457400002499461D00494BBF0098460DE02E6863
:104584003000FFF777FF210003003200404601347A
:1045940009F050FABC420AD004350521200006F087
:1045A40071FB0029EBD10A2009F078F9E7E74C46C2
:1045B4000A2009F073F94B4600229134FF3402CBF0
:1045C4005218A342FBD1364EB3689A4247D0B3691E
:1045D4009A425AD0334B344FC8253800334909F036
:1045E40029FA0022AD004D4408CCD218AC42FBD1CC
:1045F400B3689A4238D0B3699A424AD0294B3800FA
:104604002B4909F017FA4B460022A533FF3302CB9E
:104614005218AB42FBD1B3689A422AD0B3699A428A
:1046240035D0204B3800234909F004FA00224946CA
:1046340008C98946D218A942F9D1B36893421DD05A
:10464400B3699A421FD0174B38001B4909F0F2F99D
:104654000A2009F023F9C0BCB946B046F8BD0023CE
:104664001B01F3185B68B6E700231B01F3185B68B2
:10467400C5E700231B01F3185B68D3E700231B0184
:10468400F6187368E0E70123F9E70123E8E701235B
:10469400F0E70123E9E7C04660C70220A80802202A
:1046A40000B90220401802207C060220F8070220EC
:1046B40004080220BC08022010080220F0B5C646F7
:1046C400002700B50C011F4D90B0220980460E0052
:1046D4001D481E492F7009F0ADF91D49220903A890
:1046E40008F02CFE1B4902AA03A815F08BFB0299C3
:1046F400194809F09FF9029900291FDBC72902DD37
:10470400C723C7210293154809F094F94146029B37
:1047140013489A008C5832001249009409F08AF91F
:104724002000FFF7A7FE320003000F49280008F01D
:1047340005FE280010B080BCB846F0BD00210297E9
:10474400E1E7C046ACEF02208CFD0120C824022022
:1047540044F701204C19022098FD0120A4FD0120FA
:10476400B0FD0120B8240220C8080220F0B5CE46CE
:104774004746050080B5494E494F0A000C003000F9
:10478400390083B009F056F9464BEB58DB0512D4D7
:10479400CD232205120D5B009A4201DB9A22FF32DF
:1047A400404B39003000EA5009F044F903B0C0BC72
:1047B400B946B046F0BD3C4809F03CF9F0231B0172
:1047C4001C4218D1394809F035F9822301225B01D2
:1047D400EA500121364809F02DF9364B1B68002BAD
:1047E40012D1354AAB50354BEB58002BD0D10122B6
:1047F400334BEA50CCE7822300225B010021EA50CC
:104804002B4809F017F9C3E72E4809F013F90122E0
:104814002B4B2800EA500121FEF774FA2A4B28009A
:10482400EB5898461900FDF77DFDFFF723FE42463D
:10483400264B019000922800022201219846FCF7A1
:104844009BFA234B2800EA5891461100FDF76AFDB4
:10485400FFF710FE4A4643460190009228000322C7
:104864000121FCF789FA81235B01EA58280091466B
:104874001100FDF757FDFFF7FDFD4A464346019041
:104884000092280004220121FCF776FA0522012176
:104894002800104BFCF770FA7AE7C046D0080220D3
:1048A40038240220BC0F0000DC0802200409022086
:1048B400280902202CF102202C10000024100000F2
:1048C4003010000040090220181000005C0902208A
:1048D4001C100000ACF90120F0B5DE464E464546FA
:1048E4005746E0B5CE4B0400190089B0CD489B462D
:1048F40009F0A0F8FC238227CB4D1B01E35866592D
:104904009946CA4BCA487F01F2059846E1591B688B
:10491400D20F039009F08EF8E359002B67D1635945
:10492400DB0564D44D466B425D412022C14F6B428E
:10493400934338003200C049413308F0FFFC39008A
:10494400BE4809F077F8BE4BE358002B03D0B64BB2
:10495400E358DB0544D5BB4BE3581B0F062B51D959
:10496400073B022B00D98AE0FC231B01E358002BF0
:1049740000D0C9E0AC4BE3580693992B00D095E0E6
:10498400002300229A465146A74B0025E1500021FE
:104994000433E1508226434676011B68A1590398EB
:1049A40009F048F8A359002B03D19F4BE358DB05CA
:1049B40003D543461B68002B6CD06A425541202224
:1049C4006B429343380052469B49413308F0B6FC8E
:1049D40039009D4809F02EF859469C4809F02AF8F8
:1049E40009B0F0BCBB46B246A946A046F0BD43465A
:1049F4001B68002B96D1964B8E4F1A683A601B7930
:104A04003B719CE7884BE35819009A46FC231B0131
:104A1400E258002A44D09929B2D0002300260693F4
:104A24008C4B99468C4B04938C4B059300250F2299
:104A34005346B2401A4073427341F240F340D018D7
:104A4400451949460498009508F0F4FF2B000A3BE9
:104A5400092B00D9A6E00F2306351D40069BB5405F
:104A64009C46AC44634649461A00059804360693AE
:104A740008F0E0FF202E00D1A3E00125D7E7784815
:104A8400FCF788FC684BE25804339246D205E5589B
:104A9400D20F7FE76E4B1A683A601B793B7197E738
:104AA4000122E250CA050125D20F73E70023002535
:104AB4009A46684B9946684B0493684B05930026C5
:104AC4000F22AA40069B49461A406B426B41EA40BA
:104AD400EB40D01886190096049808F0ABFF330019
:104AE4000A3B092B14D80F2306361E40AE40D44689
:104AF400B4446246494605980435E24608F09AFFF4
:104B0400202D11D00126DBE75648FCF751FC31E794
:104B1400AE40D446B4446246494605980435E2465C
:104B240008F088FF202DCAD153461D022D0A49469C
:104B34002A004D4808F07EFF4C4B290018000493CE
:104B440008F078FF4A4B059499464A4B00249A464C
:104B540002E00434202C14D00F26A6402E40E64058
:104B6400484631000A3E08F065FF052EF1D80623B9
:104B7400A340ED1829005046043408F05BFF202CB4
:104B8400EAD1059C2900049808F054FF290020006C
:104B9400FFF7ECFD244BE25813051B0DD2059A4692
:104BA400D20FF0E6069BB5409C46AC4463464946AA
:104BB4001A0005980436069308F03CFF202E00D016
:104BC40034E7069B49461E02350A2A00264808F0A7
:104BD40031FF26482900049008F02CFF254ABA46E4
:104BE4000594002691462C00214F02E00436202E25
:104BF40012D00F25B5402540F540380029000A3D64
:104C040008F018FF052DF1D80623B340E41821005D
:104C1400484608F00FFFE9E725005746B1E7C046CC
:104C24002C240220ACF40120BC0F00002CF1022043
:104C340030F9012030F0022070F9012068090220C7
:104C4400D40F0000B80F0000AC09022004F50120C5
:104C5400DC0002200C250220C8FA0120E4FA01201D
:104C64009C0902207809022000FB012064FA01203B
:104C740070FA012080FA0120F0B52F4D2F4A4159D6
:104C840091B00400FCF7B2FDCD230005000D5B00DC
:104C9400984246D39A22FF321300274D284E63517F
:104CA4002849300008F04AFB675927493D012A0981
:104CB400264808F0BFFE26492A0903A808F03EFB4F
:104CC400244902AA03A815F09DF80299224808F085
:104CD400B1FE0299002920DBC72902DDC723C721C1
:104CE40002931E4808F0A6FE029B1D499A00A5588F
:104CF4001C483A00009508F09DFE2800FFF7BAFB17
:104D04000622019001212000174B0096FCF734F88D
:104D14000122164BE25011B0F0BD00230021029392
:104D2400DFE7064A20006159FCF760FD0305C20570
:104D34001B0DD20DB1E7C046A80F0000010000C052
:104D440098EF0220E80C0220C82402208CFD0120E8
:104D540044F701204C19022098FD0120A4FD0120F4
:104D6400B8240220B0FD0120BC090220501000002C
:104D7400F0B52F4D2F4A415991B00400FCF736FD90
:104D8400CD230005000D5B00984246D39A22FF32E2
:104D94001300274D284E63512849300008F0CEFAFD
:104DA400675927493D012A09264808F043FE264948
:104DB4002A0903A808F0C2FA244902AA03A815F094
:104DC40021F80299224808F035FE0299002920DBD7
:104DD400C72902DDC723C72102931E4808F02AFE13
:104DE400029B1D499A00A5581C483A00009508F0FA
:104DF40021FE2800FFF73EFB06220190012120003E
:104E0400174B0096FBF7B8FF0122164BE25011B086
:104E1400F0BD002300210293DFE7064A2000615918
:104E2400FCF7E4FC0305C2051B0DD20DB1E7C04637
:104E3400A80F0000010000D098EF0220E80C022027
:104E4400C82402208CFD012044F701204C190220C3
:104E540098FD0120A4FD0120B8240220B0FD01200A
:104E6400BC09022050100000F0B5C646FA23CD223A
:104E740000B51B01C35804001B0590B01B0D520064
:104E8400934201D39A23FF33434A8227A35000233A
:104E9400083AA350414A424DA350424B7F01E65881
:104EA4000433E258E1599046F2052B683E48D20F8C
:104EB40008F0C0FDE359002B5ED13A4BE358DB0503
:104EC4005AD445466B425D4120226B42374D934391
:104ED400280032003649413308F030FA2E4F00954D
:104EE400012201212000334BFBF746FFE5596B1CDF
:104EF40050D0314EEA0530003049D20D08F01EFA88
:104F0400E5592F013F093A002D492E4808F092FD3A
:104F14003A002D4903A808F011FA2C4902AA03A863
:104F240014F070FF02992A4808F084FD02990029C0
:104F34002CDBC72902DDC723C7210293254808F0CB
:104F440079FD029B24499A00A75824482A00009717
:104F540008F070FD3800FFF78DFA06220190012158
:104F640020001F4B0096FBF707FF01221D4BE25068
:104F740010B080BCB846F0BD2B68002BA1D11A4BF1
:104F84000A4D1A682A601B792B71A7E700230021B8
:104F94000293D3E7154EB4E7A80F0000A40F000056
:104FA4002CF10220BC0F000030F9012030F0022067
:104FB40070F9012078F9012098EF0220E80C022012
:104FC400C82402208CFD012044F701204C19022042
:104FD40098FD0120A4FD0120B8240220B0FD012089
:104FE400BC09022050100000DC0002209C080220B2
:104FF400FA23F0B5DE464E46454657461B01E0B55A
:10500400C558614B6149C658614B360195B03209A8
:10501400040018008846994608F00CFD5D4B3209DF
:10502400190007A89A4608F089F95B4B06AA1900EB
:1050340007A89B4614F0E6FE584B06991800039304
:1050440008F0F8FC0699002900DA95E0C72902DD8A
:10505400C723C7210693524B82271800049308F0F4
:10506400E9FC069BFA229B00E55000231201A350A1
:105074004C4A4D4DA3504D4B7F01E6580433E25842
:10508400E1590592F2052B684948D20F08F0D2FC89
:10509400E359002B62D1454BE358DB055ED4059BF5
:1050A400444D5A42534120225B429343280032002C
:1050B4004149413308F042F9334F0095012201215F
:1050C40020003E4BFBF758FEE5596B1C58D03C4E74
:1050D400EA0530003B49D20D08F030F9E559059650
:1050E4002E0141463209484608F0A4FC51463209D3
:1050F40007A808F023F9594606AA07A814F082FE67
:105104000699039808F096FC0699002930DBC72914
:1051140002DDC723C7210693049808F08BFC069B85
:1051240029499A00A75829482A00009708F082FCC8
:105134003800FFF79FF9059A019000920121062299
:105144002000234BFBF718FE0122224BE25015B03E
:10515400F0BCBB46B246A946A046F0BD2B68002B66
:105164009DD11D4B134D1A682A601B792B71A3E73F
:10517400002300210693CFE70023002106936AE76A
:10518400164B0593ACE7C046A80F0000C8240220C4
:105194008CFD012044F701204C19022098FD0120C8
:1051A400A4FD0120A40F00002CF10220BC0F00007C
:1051B40030F9012030F0022070F9012078F9012043
:1051C40098EF0220E80C0220B8240220B0FD012050
:1051D400BC09022050100000DC0002209C080220C0
:1051E400F0B5FA23C6461B0100B5C2580400130FDC
:1051F4000C3B82B00B39012B03D9364BC358002B1F
:1052040057D013021D0A16011B09360F5B18002E16
:1052140049D130491B0260581D0A411E88410006CD
:105224002D4911400143090E09062943FA23822618
:105234001B01E150294B2A4FE5580433E25876010B
:105244009046EA053B68A1592648D20F08F0F2FBC4
:10525400A359002B03D1214BE358DB0502D53B684E
:10526400002B29D043465A42534120221E4E5B4212
:10527400934330002A001D49413308F05FF8FA23B4
:105284001B01E058FFF7F6F80122019001212000EC
:10529400174B0096FBF770FD0122164BE25002B04B
:1052A40080BCB846F0BD701C062E0CD1C020C004D2
:1052B400B6E712015118B9E70F4B0B4E1A6832606A
:1052C4001B793371DBE7F021000609051B02084056
:1052D4001D0AA5E7A40F0000FFFFFFF0BC0F0000AC
:1052E4002CF1022030F9012030F0022070F9012065
:1052F400C409022050100000DC000220F0B5C646AC
:10530400012200B5FA21284B86B0C250C022822661
:1053140004000901435812061B021B0A134343509D
:10532400224B234FC5580433C25876019046EA05F0
:105334003B688159D20F1F4808F07CFBA359002B0E
:1053440028D11A4BE358DB0524D443465A4253412F
:105354002022194E5B42934330002A0017494133FF
:1053640007F0ECFFFA231B01E058FFF783F8320043
:105374000300134901A807F0E1FF01AB0122012159
:105384002000FBF7F9FC01220E4BE25006B080BC72
:10539400B846F0BD3B68002BD7D10B4B064E1A68BC
:1053A40032601B793371DDE7A40F0000BC0F0000ED
:1053B4002CF1022030F9012030F0022070F9012094
:1053C400C409022050100000DC000220FA21F0B5CC
:1053D400C646D022822604000901435800B51B01A9
:1053E40012061B09134386B04350224B224FC55863
:1053F4000433C25876019046EA053B688159D20FBE
:105404001E4808F017FBA359002B28D1194BE35869
:10541400DB0524D443465A4253412022184E5B42B2
:10542400934330002A001749413307F087FFFA23DA
:105434001B01E058FFF71EF832000300124901A8CF
:1054440007F07CFF01AB012201212000FBF794FC53
:1054540001220E4BE25006B080BCB846F0BD3B685A
:10546400002BD7D10A4B064E1A6832601B79337170
:10547400DDE7C046BC0F00002CF1022030F901200A
:1054840030F0022070F90120C409022050100000FD
:10549400DC00022008B4F0B5CE46474680B5E6B03D
:1054A4006DAB40CB81460F0014000193002937D027
:1054B400062A3DDCC8213200490002A807F066FF35
:1054C40002A814F0E7FE12283AD83A002249013C17
:1054D400224808F0AFFA63001B19DD00ED1A204BD7
:1054E4003200ED181221019B280007F04FFF28001D
:1054F40014F0D0FE0F26361A002E0EDD194B0024B0
:10550400984602E0280014F0C5FE022241462818FD
:10551400013406F071FBA642F4D14A46124BD7502F
:1055240066B0C0BCB946B046F0BC08BC01B0184770
:1055340011000E4808F07EFA0D4808F0F9F9FEE76C
:1055440031000C4808F076FA02A90B4808F072FA08
:10555400074808F0EDF9B8E7F022022088F80120A6
:10556400C8E6022098F901205010000044F80120F8
:105574005CF8012068F8012074F80120F0B5464673
:10558400D6464F46C0B504000D00160082B000296F
:1055940000D0DFE0A64F01223B0029002000FFF7E6
:1055A40079FF29002000FDF7ADFB3B000322290011
:1055B4002000FFF76FFF9F4B2000E158FCF7B2FE7D
:1055C40082235B01E358002B07D19B4BE358DB0597
:1055D40049D59A4B1B68002B45D1030F19009848F5
:1055E4001E0008F027FA062E43D8012E00D995E0B4
:1055F40029002000FDF786FB3B0003222900200040
:10560400FFF748FF3B00042229002000FFF742FF78
:105614003B00052229002000FFF73CFF3B00062247
:1056240029002000FFF736FF864BE658072E00D8E6
:10563400E1E03300083B012B6AD8290020000096E2
:105644000322814BFFF726FF80483200F317060040
:105654007F4907F073FE0422290020007D4B009649
:10566400FFF718FF54E0062E03DC012E56DC4FD85A
:10567400BEE7073E022E4BD8802120004900FCF7EC
:1056840051FE8021070049002000FCF74BFE010079
:105694002000FCF747FEFEF7EDFE6F4E04223300B8
:1056A4002900019000972000FFF7F4FE022120005A
:1056B400FF31FCF737FE02210700FF312000FCF721
:1056C40031FE01002000FCF72DFEFEF7D3FE33006F
:1056D40005222900019000972000FFF7DBFE8121BD
:1056E40020004900FCF71EFE81210700490020002C
:1056F400FCF718FE01002000FCF714FEFEF7BAFECA
:10570400330001900622290020000097FFF7C2FE13
:1057140002B0E0BCBA46B146A846F0BD4F4BE358D0
:10572400022B1BDD043B052BF2D829002000FDF7DA
:10573400E9FA4B4B2000E6583100FCF7F3FDFEF785
:1057440099FE0322019029002000434B0096FFF7A5
:10575400A1FEDDE7434802F0F1FF1BE7002BD7DB96
:1057640029002000FDF7CEFA3D4B2000E658310019
:10577400FCF7D8FDFEF77EFE29000190009620007C
:105784000322354BFFF786FEC82300219B00364ECB
:10579400E358364F31701B023549002238001B0A8A
:1057A4008A4607F0CBFD33493B000022300089468E
:1057B40007F0C4FD274B29002000042200969846D8
:1057C400FFF768FEC92300229B00E35851461B02E1
:1057D40038001B0A327007F0B1FD3B004946012234
:1057E400300007F0ABFD4346052229002000009657
:1057F400FFF750FE8CE700231B4F1C483B7033001F
:105804008046C8339B00E35800221B0218491B0A38
:1058140007F094FD434632003800164907F08EFD28
:105824000322290020000B4B0097FFF733FE6FE79C
:10583400ACF90120C40F0000BC0F00002CF10220C1
:10584400E0090220F80F0000F8090220F4EF02201A
:10585400400002204C040220FC090220DC0F00005E
:1058640004100000F4B80220D0EF022008F0022057
:105874001401022094080220F0B54646D6464F464D
:10588400C0B504000D00160082B0002900D094E0D9
:10589400D14F01223B0029002000FFF7FBFD290026
:1058A4002000FDF72FFA3B00032229002000FFF718
:1058B400F1FD092E34D8C94BB6009B599F46C84BFD
:1058C4002000E7583900FCF72DFDFEF7D3FDC54E47
:1058D400042233002900019000972000FFF7DAFD2D
:1058E400C14B2000E7583900FCF71CFDFEF7C2FD50
:1058F400052233002900019000972000FFF7CAFD1C
:10590400BA4B2000E7583900FCF70CFDFEF7B2FD56
:10591400330001900622290020000097FFF7BAFD0A
:1059240002B0E0BCBA46B146A846F0BDB04BE3585D
:10593400032B00DDFFE0002B00DB00E12900200049
:10594400FDF7E0F93B00032229002000FFF7A2FD48
:105954003B00042229002000FFF79CFD3B000522A8
:1059640029002000FFF796FD3B00062229002000B5
:10597400FFF790FD9F4BE2589F4BE658072A00D84B
:10598400AEE01300083B012B00D80BE104230322F3
:105994009846072E00D8AEE03300083B012BBFD851
:1059A40029002000954B0096FFF774FD3B0042460A
:1059B40029002000FFF76EFDB2E7914802F0BEFE19
:1059C40066E78B4BE358022B00DD9BE0002BA7DB43
:1059D40029002000FDF796F98A4B2000E658310093
:1059E400FCF7A0FCFEF746FD29000190009620007C
:1059F40003227C4BFFF74EFD0023804E290020003C
:105A0400009304223300FFF745FD01230522009390
:105A1400290033002000FFF73DFD81E73B0029000A
:105A240020000422FFF736FD3B0029002000052258
:105A3400FFF730FD3B00062229002000FFF72AFD76
:105A44006EE7CB2300219B006F4EE3586F4F3170FC
:105A54001B026F49002238001B0A8A4607F06EFCBD
:105A64006C493B0003223000894607F067FC6A4B0F
:105A740029002000042200969846FFF70BFDCC2352
:105A840000229B00E35851461B0238001B0A327067
:105A940007F054FC3B0049460422300007F04EFC5A
:105AA40043462900200005220096FFF7F3FCCD238E
:105AB40000229B00E35851461B0238001B0A327037
:105AC40007F03CFC3B0049460522300007F036FC59
