:020000041000EA
:1000000000B5324B212058609868022188439860DF
:10001000D860186158612E4B002199600221596106
:100020000121F02299502B49196001219960352056
:1000300000F044F80222904214D00621196600F024
:1000400034F8196E01211966002018661A6600F04E
:100050002CF8196E196E196E052000F02FF8012189
:100060000842F9D1002199601B49196000215960AB
:100070001A491B48016001219960EB211966A021F2
:10008000196600F012F800219960164914480160C1
:100090000121996001BC002800D000471248134993
:1000A000086003C880F30888084703B5996A0420EC
:1000B0000142FBD001200142F8D103BD02B5186610
:1000C0001866FFF7F2FF186E186E02BD00000240BE
:1000D000000000180000070000035F00212200005C
:1000E000F4000018222000A00001001008ED00E03C
:1000F00000000000000000000000000074B24E7A12
:1001000000200420F7010010C3010010C5010010F9
:10011000C1010010C1010010C1010010C101001097
:10012000C1010010C1010010C1010010C701001081
:10013000C1010010C1010010C9010010CB01001065
:10014000CD010010CD010010CD010010CD01001037
:10015000CD010010CD010010CD010010CD01001027
:10016000CD010010CD010010CD010010CD01001017
:10017000CD010010CD010010CD010010CD01001007
:10018000CD010010CD010010CD010010CD010010F7
:10019000CD010010CD010010CD010010CD010010E7
:1001A000CD010010CD010010CD010010CD010010D7
:1001B000CD010010CD010010CD010010CD010010C7
:1001C00000BE00BE00BE00BE00BE00BE00F051F882
:1001D000103800BEF2EB8871E00200100C03001032
:1001E0003402001090A31AE700202449086006C8D2
:1001F00081F30888104722480068002835D10DA4F3
:100200000ECC002902D000F012F8F9E71D491E4A71
:10021000002000E001C19142FCD11C4988471C49E3
:1002200088471C49884700BEFDE701C901C29A42C0
:10023000FBD370470C030010C000002040B0012029
:100240008CB2011040B00120F82E0220443102107F
:10025000000004200000042044310210001004209B
:10026000001004200000000070470B4800F018F850
:100270000047EFF30580C0B27047000008ED00E0D2
:10028000000000D0F82E0220B04A022001680020B1
:10029000993D0020656900205756000000000000CD
:1002A00001B40248844601BC604700BF6586002057
:1002B00006005250ABB360533CD0012006005250B0
:1002C000861C03024CD00120060052505422A29DED
:1002D0006CD0012005005250DE65F46844310210F4
:1002E000D4020010C8020010BC02001078D0012017
:1002F000B002001084D0012090D001209CD00120B9
:0C030000D8D00120E4D0012018D1012049
:10030C00F8B5C0460448054B10B5834203D0044BE6
:10031C00002B00D0984710BDF82E0220F82E02209A
:10032C000000000006480749091A8B10C90FC918AC
:10033C0010B5491003D0044B002B00D0984710BDCA
:10034C00F82E0220F82E02200000000010B5074CF9
:10035C002378002B09D1FFF7D5FF054B002B02D0DA
:10036C00044800E000BF0123237010BD00300220C0
:10037C000000000040B00120054B10B5002B03D04D
:10038C000449054800E000BFFFF7CCFF10BDC04694
:10039C00000000000430022040B001207047C0462D
:1003AC00D42310B5CD249B00C1180B6864001A022D
:1003BC00120AA24211D2A0221B011B0912061343DE
:1003CC00D82292008350A022002312060A604B60B0
:1003DC00F72301229B00C25010BD014BF0E7C04631
:1003EC00990100A0D4239B00C3181A68DA239B0040
:1003FC00C25000220433C25070330132C2507047D5
:10040C00D4239B00F0B5C61834680B39250F220194
:10041C000C0077683B012B43CD1712196B413260EE
:10042C007360F72301229B00C250F0BDD423A0219E
:10043C009B00C218136809061B011B090B431360B0
:10044C0001235B425360F72301229B00C25070478B
:10045C00D423B0219B00C218136809061B011B0989
:10046C000B43136001235B425360F72301229B0073
:10047C00C2507047FA23202230B5002400259B007F
:10048C00C254983BC3181C605D60E0230022A0247A
:10049C00A0259B00C250283BC3182D0624061C60C7
:1004AC005D60A022D82312069B00C2500123E922D2
:1004BC005B42920083500432835004328350F72302
:1004CC0001229B00C25030BDFA23202230B50024FB
:1004DC0000259B00C254983BC3181C605D60E02350
:1004EC00A024A0251F3A9B00C250283BC3182D0600
:1004FC0024061C605D60A021D82309069B00C15016
:10050C000123E9215B4289004350043143500431FB
:10051C004350F7239B00C25030BDC046F423012248
:10052C009B00C2507047C046F52301229B00C2506D
:10053C007047C046FB2300229B00C250F8220123C7
:10054C0092008350043A83507047C046FB229200BD
:10055C00835801338350F72301229B00C25070470C
:10056C00FB2292008358002B01DD013B8350F723C3
:10057C0001229B00C2507047F82300229B00C250FE
:10058C00043B0132C2507047F92201230021920032
:10059C008350043A8150043A83507047F723012169
:1005AC00014A9B00D1507047283E0220084B094855
:1005BC00094918605960094809499860D960094887
:1005CC00094918615961094807499861D96170470F
:1005DC00283E022063035203560056105005530563
:1005EC0052055105540553055107510600240024AA
:1005FC000A4B01211A680A4B1A60B8235A43094B5B
:10060C009B18002219611A76074B1960074B196069
:10061C00074B1A60074B1A707047C046D43A022039
:10062C00B43B02201C1B0220BC3B0220C03B02201E
:10063C00AC3B022018420220D0220C4B0C480D4936
:10064C00920010B59C182060616000210A48203A85
:10065C009A1810605160094A09481A6009F0C0F8EC
:10066C0022686368074809F0BBF810BD283E0220D9
:10067C00325476083054760856341200181410147C
:10068C0070B4012080B4012010B50E4808F052FF60
:10069C000D4B0E481A680E4B196809F0A1F80D4B5A
:1006AC000D48196809F09CF80C4B0D481A680D4B55
:1006BC00196809F095F80C4B0C48196809F090F87A
:1006CC0010BDC04698B40120AC3A0220A8B4012059
:1006DC00B43A0220B03A0220CCB40120BC3A022039
:1006EC00E4B40120A43A0220B83A0220F8B4012064
:1006FC0010B5054C0548216809F072F820682538BA
:10070C0003F09CFE10BDC046C03A022004B5012087
:10071C0010B50A2003F092FE10BDC04610B509209A
:10072C0003F08CFE10BDC04610B5152003F086FEFC
:10073C0010BDC04610B5162003F080FE10BDC0469B
:10074C0010B5172003F07AFE10BDC04610B5072077
:10075C0003F074FE10BDC04610B51A2003F06EFEF7
:10076C0010BDC04610B5022003F068FE10BDC04697
:10077C0010B5062003F062FE10BDC04610B5052072
:10078C0003F05CFE10BDC04610B5032003F056FE0E
:10079C0010BDC04610B5042003F050FE10BDC0467D
:1007AC00F723002110B5034A9B001820D15003F009
:1007BC0045FE10BD283E0220F723002110B5034A48
:1007CC009B001920D15003F039FE10BD283E0220A9
:1007DC00F8B50026444D454C454B290020681E6059
:1007EC0015F0AEFE002874D00127B8232900E0587C
:1007FC002676276115F0A4FE00286AD0C823E7509E
:10080C00A8332900E058667615F09AFE002860D0CF
:10081C00C0235B00E750A8332900E058A67615F0FA
:10082C008FFE002855D08E239B00E750A83329005B
:10083C00E058E67615F084FE00284AD0BC239B00D5
:10084C00E750A8332900E058267715F079FE0028E8
:10085C003FD0EA239B00E750A8332900E058667785
:10086C0015F06EFE002834D08C23DB00E750A83343
:10087C002900E058A67715F063FE002829D0A323A1
:10088C00DB00E750A8332900E058E67715F058FE56
:10089C0000281ED02023E654BA23DB00E750A833EF
:1008AC002900E05815F04CFE002812D02123002717
:1008BC00E754D1230136DB00E650A8332900E05879
:1008CC0015F03EFE002804D02223E754E823DB0079
:1008DC00E65000230121074A1360074A1160074ABA
:1008EC001360074A1370F8BD08B501201C1B0220C9
:1008FC00B43B0220BC3B0220C03B0220AC3B02209C
:10090C001842022030B583B005000A49100001AA34
:10091C0015F04EFD0400012803D00024200003B084
:10092C0030BDDA23019A9B001100EA50024808F00E
:10093C0057FFF3E710B5012020B5012030B583B087
:10094C0005000A49100001AA15F032FD0400012827
:10095C0003D00024200003B030BDDB23019A9B00A0
:10096C001100EA50024808F03BFFF3E738B50120CC
:10097C0048B5012070B5002682B005000C49100066
:10098C0001AA019615F014FD0400012803D00024DF
:10099C00200002B070BDD4239B009C46019B654493
:1009AC001A0048C50348002308F01AFFF0E7C046B8
:1009BC0060B5012070B5012010B582B001AB040008
:1009CC00114910006A4615F0F3FC0023022802D0EE
:1009DC00180002B010BD0099019A012910D002290B
:1009EC000AD0002904D0094808F0FAFE0123EFE7E9
:1009FC00D6239B00E250F6E7D8239B00E250F2E7A7
:100A0C00D7239B00E250EEE78CB50120A4B5012062
:100A1C0030B583B005000A49100001AA15F0C8FCD6
:100A2C000400012803D00024200003B030BDD923DA
:100A3C00019A9B001100EA50024808F0D1FEF3E73E
:100A4C00C4B50120E0B5012030B583B005000A49DA
:100A5C00100001AA15F0ACFC0400012803D00024FE
:100A6C00200003B030BDDE23019A9B001100EA5038
:100A7C00024808F0B5FEF3E700B6012014B60120D9
:100A8C0010B508490400084804F0D8F9F9230022ED
:100A9C009B00E250F82201239200A350043AA35089
:100AAC0010BDC046E04402202CB6012070B50024D5
:100ABC000F4D104E07E02100300004CD013408F03A
:100ACC008FFEC82C10D00521200007F019FF00293B
:100ADC00F1D10A2008F0DCFC2100300004CD0134F7
:100AEC0008F07EFEC82CEED10A2008F0D1FC70BDB7
:100AFC00283E022034B60120F0B5D6464F46464675
:100B0C00C0B5174882B008F015FD164B0025994664
:100B1C00154B164C9846164B164F9A4626683900BC
:100B2C00300015F00DFD00280CD022694346002A38
:100B3C0000D1534622001832009229003200484658
:100B4C0008F04EFE0135B8340C2DE7D10A2008F020
:100B5C009FFC02B01CBC90469946A246F0BDC04614
:100B6C005CB601206CB601204CB601201C1B022087
:100B7C0054B6012008B5012070B50A2008F088FC95
:100B8C00094C0A4E2500E135FF35626813782A2B93
:100B9C0003D03000217808F023FE0C34AC42F4D1A1
:100BAC00034808F01DFE70BDA4F0012084B601209E
:100BBC0090B6012070B5284808F012FE274D284C3D
:100BCC003FE0D023012202211B069A619961023178
:100BDC00996180000431996141598A405A61D0234E
:100BEC0001221B0659685B6809095B0911401A420E
:100BFC0001D002231943D0231B065B685B0601D589
:100C0C0004231943D0231B065B681B0601D508235C
:100C1C001943D0231B065B68DB0501D51023194350
:100C2C00D0231B065B689B0501D520231943D023D9
:100C3C001B065B685B0501D540231943200008F0B7
:100C4C00CFFDFA20800008F0DDFD431CC7D0303802
:100C5C000328B6D970BDC046ACB6012074C90120BA
:100C6C0004B5012070B5274D0600286814008EB01D
:100C7C00002801D10EB070BD0DAB05930CAB0493E5
:100C8C000BAB03930AAB029309AB019308AB009334
:100C9C0020001D4907AB06AA15F08AFB082805D0D1
:100CAC0000231A4A00202B601360E3E7174A1368ED
:100CBC0098003018410713D1069C079D04604560CD
:100CCC00089C099D8460C5600A9C0B9D046145616C
:100CDC000C9C0D9D8461C561083301201360C9E72C
:100CEC000699016007994160089981600999C16072
:100CFC000A9901610B9941610C9981610D99C1614E
:100D0C00EAE7C046E83A0220B8B60120EC3A0220E5
:100D1C00100010B50722084915F0C6FC0023002866
:100D2C0001D0180010BD0122044B05481A6008F0D0
:100D3C0057FD0123F5E7C046D4B60120E83A02205E
:100D4C00DCB601207047C04610B5034807F0AAFD79
:100D5C00002103000020984755420000D4239B003B
:100D6C00C31830B51D68D82304009B00C25887B047
:100D7C0012010949120901A807F00EFD6A4607493C
:100D8C0001A815F015FB009B01229B001D51F723B8
:100D9C009B00E25007B030BD44B50120ECCC0120E3
:100DAC00F0B5244885B008F01BFD0023224C234EDF
:100DBC00234D2360FA20800008F024FD431C35D01D
:100DCC003928F7DC2F2807DC1B28F3D81D4BC34030
:100DDC00DB07EFD505B0F0BD2268303893009B18C7
:100DEC005B00181831002060280008F0F9FC164947
:100DFC00164B086816491B6809685A1E93414F1E0A
:100E0C00B941212249425B4213400A4020320190F1
:100E1C00009002922268203311000E4808F0E0FC8A
:100E2C00FA20800008F0EEFC431CC9D108F058FCF5
:100E3C00C0E7C046F0B60120D43A0220C83B0220DD
:100E4C001CB7012000240008E834022000350220E1
:100E5C00FC34022034B701200FB400B5B5B036AB6A
:100E6C0004CBC82102A8019307F0BEFC02A90348D9
:100E7C0008F0B6FC35B008BC04B0184780B70120A8
:100E8C000FB400B5B5B036AB04CBC82102A80193A2
:100E9C0007F0AAFC02A9034808F0A2FC35B008BC74
:100EAC0004B0184790B701200FB470B5AAB02EABA0
:100EBC0004CBA02102A8019307F096FC02A91948C3
:100ECC0008F08EFC184D9E24280015F085FB241A82
:100EDC00060002A815F080FB320003002100134825
:100EEC0008F07EFC631C15D0280015F075FB02225F
:100EFC000F49281808F0C2F902A92200280015F0A1
:100F0C009FFB29000B4808F06BFC2AB070BC08BC96
:100F1C0004B0184721232200290007482B7008F041
:100F2C005FFCF2E7A8B7012018420220BCB70120F1
:100F3C0010C10120F4B70120E4B7012010B5002046
:100F4C00D02404F0C1F9012324066362012004F0CB
:100F5C00BBF902230220636204F0B6F904230320D8
:100F6C00636204F0B1F908230420636204F0ACF965
:100F7C0010230122A3620021042004F08DF9052026
:100F8C0004F0A2F920230122A3620021042004F022
:100F9C0083F9062004F098F940230122A362002172
:100FAC00042004F079F9072004F08EF98023012243
:100FBC00A3620021042004F06FF9082004F084F9E6
:100FCC0080235B00A36201220021042004F064F959
:100FDC00092004F079F980239B00A36201220021EF
:100FEC00042004F059F90A2004F06EF98023DB0088
:100FFC00012200210420A36204F04EF910BDC0466A
:10100C00F0B557464E46DE464546E0B5D14E070094
:10101C0031688FB0002901D1CF4B1960D02201204B
:10102C001206536852681B0952090340104201D042
:10103C0002221343D02212065268520601D5042212
:10104C001343D02212065268120601D5082213430C
:10105C00D02212065268D20501D510221343D02299
:10106C0012065068012480051BD5202052680343CA
:10107C00920A144201D100F06CFC40221343B74A8F
:10108C001360B548B64A04681460CA011343036080
:10109C00032948D00FB03CBC90469946A246AB46BB
:1010AC00F0BD5268920A1442E7D1AC4A1360002B8F
:1010BC00E7D1AC4802680132052A51DD0360AA4B26
:1010CC0099461B68002BE3D0A84B1D68A84B9B4688
:1010DC00A84B9A46002D45D05246B8231268A64814
:1010EC005343A64A5B4490469A6843461B689B0050
:1010FC009B5819001C00029308F072FB002C00D1C5
:10110C0093E01E2C00D190E0029C9D48210008F039
:10111C0067FB200003F092F9434642461B68316896
:10112C0001331360B4E78C4B964C1968964D2368C9
:10113C002960994212D0002910D094480023020053
:10114C0003E0013308321C2B08D01668B142F8D1E9
:10115C00DB00C318586803F071F92968216099E71E
:10116C00026095E7B8245A461B6889486343D158F6
:10117C0008F036FB5346196800234C435C44606905
:10118C00C8248C46640003E0FA500433A34202D016
:10119C00C258511CF8D16146B8234B435B445A6882
:1011AC007C4B002498465B4602932301D018D35CF9
:1011BC00BB460B2B18D00E2B27D00A2B22D022008B
:1011CC00404608F00DFB00234A461360534619684D
:1011DC00B823029A4B43944663445A680134230162
:1011EC00D018D35C0B2BE6D18368C0689C462B00CF
:1011FC00072D00D85FE2083B012B0ED96648FFF79C
:10120C002BFEE3E785680134E9E70123574A31688F
:10121C0013600022594B1A603AE767466833DB00CB
:10122C005B441F6058600134D9E75246B8231268FA
:10123C005A4853435A46D15808F0D2FA1C23039308
:10124C0053460124DA469B46554D6442296804975F
:10125C00029A544808F0C4FA5B461968B8234B4309
:10126C002A685344DB681701D819DF5D3B00143B37
:10127C00DBB2082B00D959E34B4A9B00D3589F464D
:10128C00BA4607001C23039302993A00474808F01A
:10129C00A7FA2B683C00591C2960D9E76046BA466E
:1012AC0084684348210008F09BFA2B68029A591C69
:1012BC003C48296008F094FA5B461968B8234B4304
:1012CC002A685344DB681701D819DF5D3B00143BD7
:1012DC00DBB2082B00D929E3364A9B00D3589F4632
:1012EC006046BA4684683448210008F079FA2B68C5
:1012FC00029A591C2B48296008F072FA5B4619684F
:10130C00B8234B432A685344DB681701D819DF5DB7
:10131C003B00143BDBB2082B00D907E3274A9B00A8
:10132C00D3589F465B46D3469A46254808F058FA50
:10133C00434642461B68013313602B6801332B6014
:10134C004B461B68002B4AD01E4808F049FA3168FE
:10135C009EE6C046A43A0220B43A0220B83A0220D3
:10136C00AC3A0220B03B0220C03B0220AC3B022036
:10137C001C1B0220B43B022008B80120C43B0220F5
:10138C004CBA0120A83A0220B03A0220C4EF012046
:10139C0060BA012094BA012078BA012014B8012057
:1013AC00B83B022044B80120BCBA012098B80120F7
:1013BC0088B80120E0BA012070B8012004BB0120DC
:1013CC0060B80120E4B901205B46D3469A46DC485C
:1013DC0008F0B0F800234A46136001332B60D94C57
:1013EC002368002B00D06DE15246B8231268D64D0D
:1013FC0053435A46D2181269002A00D117E2D34837
:10140C0008F0EEF9534652461B680027013313606F
:10141C00B82253435A46CE49D0582F7015F090F845
:10142C00002800D10AE201234A461360C94B3168F7
:10143C0027601F602CE6039FC74A3B00143B9B00B0
:10144C00D158C64B05921800039308F0C9F9192F0F
:10145C002FD008239F43142F00D180E02B68029AD1
:10146C00591CBF48296008F0BBF95B461968B823C2
:10147C004B432A685344DB681701D819DF5D3B00E6
:10148C00143BDBB2082B00D950E2B64A9B00D35870
:10149C009F4619230393F7E614230393F4E6AE4B0C
:1014AC0005935B690A93AD4B0A991800039308F0F6
:1014BC0097F9049B59469C46B8230968A7004B43EF
:1014CC0029685344DB6809015B18674499683A68DA
:1014DC000020DB688A4200D107E1009101932100D2
:1014EC00A14808F07DF95B463A68B8271B68296863
:1014FC007B435344DB6809015B189868D9680090FA
:10150C00019121009948FFF7CFFC5B4600221B6834
:10151C0093487B4353441A612B68029A591C2960E7
:10152C0008F05EF95B4619682A684F435744FF6818
:10153C001301F818FF5C3B00143BDBB2082B00D9FD
:10154C00F4E18B4A9B00D3589F46834B05931B6851
:10155C000A93824B0A991800039308F041F9082367
:10156C005B429C46A44463460B93E3B2049A0D93EE
:10157C002300944657466033DB0063440C93631C92
:10158C0000D105E11C2C05D80123A340794A134254
:10159C0000D020E1DA23152C00D187E1182C00D1E2
:1015AC009BE1D823162C00D180E1172C00D19EE1B1
:1015BC00072C00D878E10B9B012B00D887E1210088
:1015CC006D48FFF749FCB8239A465B4652461B68A8
:1015DC00069953432A68FB18DB6812019B189A681A
:1015EC00DB688A4200D139E12100644808F0F8F840
:1015FC000D9B132B00D882E1FF232340059A143B4B
:10160C009B00D3589A46DA23152C00D11FE1182CD5
:10161C0000D152E1D823162C00D118E1172C00D19F
:10162C007CE1072C00D810E10B9B012B00D86FE15B
:10163C0021005148FFF710FC5A46B8231268514656
:10164C0053432A68FB18DB6812019B189A68DB6805
:10165C004B4800920193089A099BFFF725FC5A46C8
:10166C00B82312683E4853430022FB181A612B68BA
:10167C00029A591C296008F0B3F85B461968B82324
:10168C004B432A68FB18DB6810010A921A18185C85
:10169C0094460300143BDBB2082B00D955E1394AC0
:1016AC009B00D3589F46059B03981B6A19000A930D
:1016BC0008F096F853E758466746C8339B001F500E
:1016CC0001348CE553461A68B82353435A46D21852
:1016DC001269002A01D03168DAE418335B441A49E4
:1016EC00180014F071FF3168D2E4984200D0F4E68F
:1016FC00210000920190244808F072F82B68029A9D
:10170C00591C1748296008F06BF85B461968B82318
:10171C004B432A685344DB681701D819DF5D3B0043
:10172C00143BDBB2082B00D900E1184A9B00D358BC
:10173C009F46059B0398196A08F052F80FE7C046BC
:10174C00A0B90120BC3B02201842022008BA01209B
:10175C0008B50120AC3B022020F3012034B8012055
:10176C0044B8012028BB0120D0B80120ECB80120DE
:10177C004CBB01200000101640B9012070B90120AB
:10178C0084B9012070BB0120B0B8012094BB0120AA
:10179C00BA46B9342B68029A591C7048296008F073
:1017AC001FF85B46196823004B432A685344DB68D7
:1017BC001701D819DF5D3B00143BDBB2082B00D9B5
:1017CC00B4E0674A9B00D3589F46059B0398196A5F
:1017DC0008F006F8DEE7634808F002F82B68029A76
:1017EC00591C5E48296007F0FBFF5B461968B8235B
:1017FC004B432A68FB18DB6810010A921A18185C14
:10180C0094460300143BDBB2082B00D99DE0564AEA
:10181C009B00D3589F46DA46BB4686E5059B03984A
:10182C00196A07F0DDFFAAE6DA46BB46CFE51833A6
:10183C005B441800290014F0C7FEE0E54B46186025
:10184C004A4807F0CDFF316822E42300C833049ADC
:10185C009B009B58089300230993EDE607998B4254
:10186C0000D0C1E60B00069A2100414807F0B8FFF2
:10187C002B68029A591C3948296007F0B1FF5B4666
:10188C00196853464B432A68FB18DB6810010A920F
:10189C001A18185C94460300143BDBB2082B54D87E
:1018AC00344A9B00D3589F462300C833049A9B00AC
:1018BC009B5806930023079385E6D4229200944606
:1018CC00049B63441A685B6808920993B4E60C9B0A
:1018DC001A685B680692079375E6D42292009446C8
:1018EC00049B63441A685B68069207936BE6DF23DC
:1018FC00049A9B00D3580693DB17079363E61E4AA2
:10190C0014219246E3B250461C4A06F059FF7AE67F
:10191C000C9B1A685B68089209938DE6DF23049A86
:10192C009B00D3580893DB17099385E65B46380078
:10193C00D3469A460300124807F052FF00234A464A
:10194C0013602B6801332B6049E5DA460A9ABB46D3
:10195C00F0E70C4A1360FFF794FBC04644B8012033
:10196C00B8BB012010B90120DCBB012020BA01203A
:10197C005CB9012000BC0120B8420220ECCC012053
:10198C00B4B90120B83A0220F0B5DE4657464546B8
:10199C004E46E0B5050087B0D4480E0007F020FF96
:1019AC00D34BD44F98462A0033003900404607F0F9
:1019BC0017FF340F2B0F22001900CF482D013601D1
:1019CC009A4604942D0907F00BFF3609B54201D94C
:1019DC005346049332002900C84807F001FF5346D0
:1019EC000B2B00D103E10A2B02D10A2C00D110E100
:1019FC00C34B1800994607F0F3FE0B2C01D1C14BD9
:101A0C009E1B33002A003900404607F0E9FE484689
:101A1C0007F0E6FE00239946BB4B00219846BB4BD2
:101A2C0000240293BA4B9B460F239A464B46A94679
:101A3C001D0053464A46A3401A403340E340E2405F
:101A4C00D7187F1802984146009707F0C9FE3B0053
:101A5C000A3B092B0ED8534606371F40A740ED19F9
:101A6C002A0041465846043407F0BAFE202C0DD00B
:101A7C000121DEE7A740ED192A00414658460434FF
:101A8C0007F0AEFE202C01D00021D2E72C02240A54
:101A9C00220041469F4807F0A3FE9F4B21001800EF
:101AAC00039307F09DFE9D4B002699460F239C4FF8
:101ABC009A4602E00436202E14D05546B5402540F7
:101ACC00F540484629000A3D07F08AFE052DF1D85D
:101ADC000623B340E41821003800043607F080FEDA
:101AEC00202EEAD12100039807F07AFE21008D48C0
:101AFC0007F076FEF0231B051C4200D181E08A4BD7
:101B0C0000211C4001230594002600240F279A462F
:101B1C003B005046B340059A1A400340F340F24054
:101B2C00D5186D1802984146009507F059FE2B0008
:101B3C000A3B092B0DD806353D40B54064192200EF
:101B4C0041465846043607F04BFE202E0DD001219D
:101B5C00DEE7B5406419220041465846043607F0CA
:101B6C003FFE202E01D00021D2E72402240A2200BD
:101B7C004146684807F034FE2100039807F030FE18
:101B8C000F2300269A46664F02E00436202E14D00E
:101B9C005546B5402540F540484629000A3D07F01A
:101BAC001FFE052DF1D80623B340E41821003800A0
:101BBC00043607F015FE202EEAD12100039807F019
:101BCC000FFE049B0B2B67D0049B24014D4A240968
:101BDC001B071C4321005548121B07F001FE200077
:101BEC0007B03CBC90469946A246AB46F0BD0B2CC8
:101BFC000FD0434B1800994607F0F2FD414B5D1B8B
:101C0C00FFE64B4807F0ECFD21004A48FFF724F9AA
:101C1C0075E7494807F0E4FD002399463A4B002448
:101C2C0098463A4B42460293394BB0469B464B463C
:101C3C000021A94616001D000F234046AB404A4622
:101C4C001A400340EB40EA40D7187F180298310045
:101C5C00009707F0C5FD3B000A3B092B0FD80F235B
:101C6C0006371F40AF40E4192200310058460435B6
:101C7C0007F0B6FD202D00D19BE00121DCE7AF4041
:101C8C00E419220031005846043507F0A9FD202D37
:101C9C0000D18EE00021CFE71A4B00211B1B0593CE
:101CAC000123002400260F279A463B005046B340E0
:101CBC00059A1A400340F340F240D5186D1802986B
:101CCC004146009507F08CFD2B000A3B092B35D8BB
:101CDC0006353D40B540641922004146584604364D
:101CEC0007F07EFD202E35D00121DEE7B0BC0120AF
:101CFC00D4BC012038C90120E8BC0120FCBC012067
:101D0C0054BD01209999990028C9012064BC012077
:101D1C0080BC01209CBC012024BC012030BC0120D3
:101D2C0040BC012028BD0120FFFFFFF068BD012051
:101D3C0030BD012044BD012014BD0120B540641903
:101D4C00220041465846043607F04AFD202E01D0A9
:101D5C000021AAE72402240A414622003B4807F04E
:101D6C003FFD2100039807F03BFD06239A46384BB4
:101D7C0000260F27984602E00436202E14D03D0092
:101D8C00B5402540F540484629000A3D07F028FD9E
:101D9C00052DF1D85346B340E418210040460436D3
:101DAC0007F01EFD202EEAD12100039807F018FD44
:101DBC000AE72402240A22003100244807F010FD0F
:101DCC00244B210018009B4607F00AFD224B2100F2
:101DDC001800039307F004FD204B002699461C4B7A
:101DEC000F27984602E00436202E14D03D00B54053
:101DFC002540F540484629000A3D07F0F1FC052D29
:101E0C00F1D80623B340E41821004046043607F00D
:101E1C00E7FC202EEAD12100039807F0E1FC210019
:101E2C00584607F0DDFCF0231B051C4205D1534638
:101E3C00240124091B071C43D1E6094807F0D0FCF8
:101E4C0021000848FFF708F8F1E7C0469CBC0120C8
:101E5C0040BC012028BD012024BC012030BC012045
:101E6C0030BD012044BD012070B5D825AD00040063
:101E7C000D494059FFF788FDCD230002000A5B0095
:101E8C00984207D30948D82301229B00E0507C33A9
:101E9C00E25070BD60590449FFF776FD000103095B
:101EAC00A02000061843EEE7010000A0990100A055
:101EBC0070B5D825AD0004000D494059FFF764FDFD
:101ECC00CD230002000A5B00984207D30948D823AF
:101EDC0001229B00E0507C33E25070BD60590449F4
:101EEC00FFF752FD00010309A02000061843EEE79E
:101EFC00010000B0990100A09C23F0B5DE465746C6
:101F0C004E46454699461A4BE0B59846194B1A4C25
:101F1C009B461A4B83B09A46A14409E052463100C5
:101F2C00009240463A000C3407F05AFC4C4515D050
:101F3C002668676830003900A568FFF725FD019514
:101F4C0003008542EAD15B463A00009331002B0036
:101F5C0040460C3407F044FC4C45E9D10A2007F00C
:101F6C0097FA03B03CBC90469946A246AB46F0BDEE
:101F7C007CBD0120A8BD012084F20120A0BD012060
:101F8C00F0B5DE4657464E464546D923E0B59B0094
:101F9C00C358834685B01B0F062B00D88BE0073B3C
:101FAC00022B00D983E0DB239B00C358002B00D00D
:101FBC0089E0DA235A469B00D358002403937E4BC6
:101FCC0000219A467D4B002698460F2399467C4F5C
:101FDC004B460120B340039A1A400340F340F240B1
:101FEC00D5186D1850463900009507F0F9FB2B00F9
:101FFC000A3B092B0ED84B4606351D40B5406419DB
:10200C00220039004046043607F0EAFB202E0DD0A2
:10201C000121DDE7B5406419220039004046043641
:10202C0007F0DEFB202E01D00021D1E72402240A88
:10203C0039002200634807F0D3FB634B21001800E2
:10204C00994607F0CDFB0F239846604B00269A4625
:10205C005F4F02E00436202E14D04546B540254093
:10206C00F540380029000A3D07F0BAFB052DF1D8E0
:10207C000623B340E41821005046043607F0B0FBA9
:10208C00202EEAD12100484607F0AAFBFF231C4072
:10209C00DA235A469B00D450594600220433CA50C6
:1020AC0005B03CBC90469946A246AB46F0BD4948AB
:1020BC00FEF7D2FEF4E7DB239B00C258002A06D1C0
:1020CC000122C250ECE74448FEF7DAFE71E7043B0C
:1020DC00C35800250393384B00219A46374B0026F2
:1020EC0098460F239946364F4B460120B340039A2E
:1020FC001A400340F340F240D4186418504639009B
:10210C00009407F06DFB23000A3B092B0ED84B46BD
:10211C0006341C40B4402D192A00390040460436C0
:10212C0007F05EFB202E0DD00121DDE7B4402D1908
:10213C002A0039004046043607F052FB202E01D00D
:10214C000021D1E72D022D0A39002A001D4807F085
:10215C0047FB1D4B29001800994607F041FB0F2344
:10216C0098461A4B00269A46194F02E00436202E48
:10217C0012D04446B4402C40F440380021000A3CB4
:10218C0007F02EFB052CF1D80623B340ED182900DF
:10219C00504607F025FBE9E72900484607F020FBED
:1021AC00FF231D40DA235A469B00D5505946002286
:1021BC000433CA5074E7C04664BC012080BC0120C3
:1021CC0028C901209CBC012024BC012040BC01205A
:1021DC0030BC012010BE0120ECBD0120DA23F0B58B
:1021EC00544C9B00C646E2580433E3582126591E32
:1021FC008B4100B5504F5B425049334096B0203371
:10220C003800884606F0C8FA4D4D4E493A00280071
:10221C0006F0C2FADC239B00E2580433E358380082
:10222C00591E8B415B4233402033414606F0B4FAD1
:10223C003A00454902A806F0AFFA280002A914F0AA
:10224C0057F9D4239B00E3180CCB511C68D03F4E9C
:10225C003F49300006F0A0FA32003E4902A806F0D1
:10226C009BFA02A9280014F043F9D9239B00E258E9
:10227C00394902A806F090FA02A9280014F038F99E
:10228C00F521F423DF22890061589B009200E3586A
:10229C00A25802A80091314906F07EFA280002A942
:1022AC0014F026F9D6239B00E258531C40D02C4E38
:1022BC002C49300006F070FA32002B4902A806F0C7
:1022CC006BFA280002A914F013F9D7239B00E258EB
:1022DC00531C2BD0224E2349300006F05DFA3200FD
:1022EC00224902A806F058FA280002A914F000F9B5
:1022FC00D8239B00E258531C16D0194C19492000C6
:10230C0006F04AFA22001A4902A806F045FA2800FB
:10231C0002A914F0EDF8280016B004BC9046F0BDEC
:10232C00591C94D1134A98E7134AECE7124AD7E7A1
:10233C00114AC2E7283E0220703B022030BE012029
:10234C00303C022038BE01204CBE0120003B022054
:10235C0060BE012068BE01207CBE012094BE01201D
:10236C00503B0220ECC20120BCBE0120D0BE01209B
:10237C00E4BE012020BE01202CBE0120F0B5D646C3
:10238C004F4646464A48C0B507F02AFA494807F076
:10239C0027FAFFF723FF0100474807F021FA474BC4
:1023AC0000249946464B474D9846474E474F0DE003
:1023BC0022324146380006F0EFF93A002100300095
:1023CC00013407F00DFA0435082C18D02B685A1C70
:1023DC0063D01A0F1B011B090A2A5CD00B2AE7D009
:1023EC003A4904358A463A49504606F0D5F9210057
:1023FC0052463000013407F0F3F9082CE6D1D02313
:10240C00344C9B00E3180CCB511C48D0324D334953
:10241C00280006F0C1F92A000821300007F0E0F985
:10242C00D2239B00E3180CCB511C3CD02A4D2B49DA
:10243C00280006F0B1F92A000921300007F0D0F984
:10244C000A2007F025F8264807F0CAF9254807F0B6
:10245C00C7F9E9239B00E158234807F0C1F9EA23A7
:10246C009B00E158214807F0BBF9EB239B00E15896
:10247C001F4807F0B5F9ED239B00E258043BE158E7
:10248C001C4807F0ADF90A2007F002F81CBC904676
:10249C009946A246F0BD2B228BE74A468EE7591C83
:1024AC00B4D1064AB8E7591CC0D1044AC4E7C046A7
:1024BC00F8BE012000BF012008BF012020BE012072
:1024CC0018BF01204841022020BF0120F03A022011
:1024DC000CBF0120283E0220003B022060BE0120E0
:1024EC0030BF01203CBF012048BF01205CBF012050
:1024FC0070BF012084BF012030B5B3B0050002F0DD
:10250C0035FA184802F062FC041E1FD02900164848
:10251C0006F042F92800154912F034FD041E18D0BB
:10252C00134D03E06946280007F05AF92200C72131
:10253C00684612F0B9FD0028F4D1200012F096FD87
:10254C00012402F031FA200033B030BD02F02CFA35
:10255C00F9E72900074807F043F9002402F024FAB0
:10256C00F1E7C0462CB60120A8BF012068D001209D
:10257C0040B80120B8BF0120F0B5B3B0050002F09F
:10258C00F5F9214802F022FC041E32D029001F4824
:10259C0006F002F928001E4912F0F4FC061E2BD09E
:1025AC001C4F3200C721684612F07EFD002817D060
:1025BC006B461B782A2BF4D1174C250050356A46F4
:1025CC0021003800636898470028EAD10834AC42EF
:1025DC00F5D13200C721684612F066FD0028E7D11C
:1025EC00300012F043FD012402F0DEF9200033B07C
:1025FC00F0BD02F0D9F9F9E72900084807F0F0F826
:10260C00002402F0D1F9F1E72CB60120A8BF01207B
:10261C0068D00120283E022074EF0120B8BF0120B1
:10262C0010B5010004000748FFF7A6FFF9220023AC
:10263C009200A350043AA350F72301229B00E250CE
:10264C0010BDC046E044022010B502490248FFF715
:10265C0093FF10BD283E0220CCBF0120F0B5C6462A
:10266C0000B55C4C0500A54401A813F0ADFF01A911
:10267C00594807F0B5F802F079F9584802F0A6FB72
:10268C00041E00D197E00A2201A906A80EF0B2FDA3
:10269C00002876D1524906A811F054FADA239B008F
:1026AC00EA58504906A811F04DFADB239B00EA5872
:1026BC004D4906A811F046FAD4239B00EB181A6872
:1026CC005B684A4906A811F03DFAD6239B00EA58EC
:1026DC00474906A811F036FAD7239B00EA5845491A
:1026EC0006A811F02FFAD8239B00EA58424906A8F5
:1026FC0011F028FAD9239B00EA58404906A811F09A
:10270C0021FADE239B00EA583D4906A811F01AFA7B
:10271C00C82300249B003B4FEE182200390008CE42
:10272C0006A8013411F00EFA082CF6D1C823364C49
:10273C009B0021000822EB5806A811F003FAC923CC
:10274C009B002100EB58092206A811F0FBF92F4938
:10275C0006A811F0F7F92E4B0024072698462D4FAA
:10276C0008E0A3003900EA5806A8013411F0EAF990
:10277C00C82C13D02642F4D1414606A811F0E2F938
:10278C00EFE7254807F02CF8002402F00DF92000A3
:10279C009E239B009D4404BC9046F0BD1F4906A897
:1027AC0011F0D0F906A810F08DF9041E06D102F034
:1027BC00FBF80124EBE702F0F7F8E8E712F0D6FBA0
:1027CC0022000100164807F00BF8002402F0ECF888
:1027DC00DDE7C04688FDFFFFD8BF01202CB60120E5
:1027EC00F0BF01201CC0012030C0012044C00120DA
:1027FC0058C0012074C0012090C00120ACC0012041
:10280C00C8C00120E0C00120ECC00120FCC00120A8
:10281C0008C101200CC10120E4BF0120A4B7012094
:10282C0014C1012030B504000C4D85B02A000C4BAE
:10283C000C490D4802F03EFB0C4B29001A68684607
:10284C00013205F0A9FF69462000FFF707FF694632
:10285C00074806F0C5FF05B030BDC04638C10120A1
:10286C002CC1012048C101202CB60120CC3A0220F9
:10287C0054C1012010B5094802F0A0F8002808D076
:10288C00074C08482100FFF7E9FE2000FFF734FE53
:10289C0010BD0549054806F0A3FFF1E72CB6012051
:1028AC00CCBF0120283E0220184402206CC101201C
:1028BC00002370B5204D0C002B7082B00B00072943
:1028CC0016D9083B012B02D9280002B070BD1B4E53
:1028DC00D0339B001A581A490023300005F05CFFD6
:1028EC00230010212800174A009605F069FFEBE73A
:1028FC00C8339B001B585A1C1CD01A0F1B011B09F8
:10290C000A2A15D00B2A0CD122320F4E0F49300057
:10291C0005F042FF3300220028000A4905F03CFF75
:10292C00D2E7094E0A49300005F036FF3300F2E7D2
:10293C002B22EAE7074BEEE7103B0220003B02207C
:10294C0060BE012078C10120F03A022018BF01209E
:10295C000CBF012020BE012008B470B51400013C4E
:10296C000500E00083B0001907AB0E0040000849D9
:10297C0004CB001940181021019305F035FFF72303
:10298C009B00EE5003B070BC08BC01B01847C046A9
:10299C0078430220F0B54546DE4657464E46E123C5
:1029AC00E0B59B00C35804000D008BB0062B52DC25
:1029BC00012B00DDCDE0002B00D1C0E0012B43D179
:1029CC00E2239B00C358092B3ED8D44A9B00D35812
:1029DC009F46E926EB23B60081599B00C058072976
:1029EC0001D800F05AFC0B00083B012B01D800F079
:1029FC001BFD0A00CA48CB49FEF72EFAA15920004C
:102A0C00FFF756FFC84E0322330029000090200028
:102A1C00FFF7A2FFEA239B00E1582000FFF748FFD5
:102A2C0033000090042229002000FFF795FFBF4ED1
:102A3C003300052229002000FFF78EFF3300062209
:102A4C0029002000FFF788FF0BB03CBC904699464C
:102A5C00A246AB46F0BD073B022BF5D8EE239B00FC
:102A6C009A46C358B24F1A013900120905A805F04D
:102A7C0093FEB04E04AA310005A813F099FCF12383
:102A8C009B009B465A46049B39009B001B5905A88A
:102A9C00A350EF239B009946E3581A01120905F045
:102AAC007BFE310004AA05A813F082FC049B3900BC
:102ABC009B001B59F3270393F223039A9B00E250CC
:102ACC00F02292009046A25805A81201120905F0B6
:102ADC0063FE310004AA05A813F06AFC049ABF0037
:102AEC0093001A59944EE2515A46A258330001925F
:102AFC005246A2582900200000920322FFF72CFF17
:102B0C00F2239B00E358042201934B46E35829001F
:102B1C00200000933300FFF71FFFE35905220193B8
:102B2C004346E3582900009320003300FFF714FFBD
:102B3C000622290020007D4BFFF70EFF84E7E223DD
:102B4C009B00C358072B00D97EE77C4A9B00D358C7
:102B5C009F46E2239B00C358092B00D974E7784A9F
:102B6C009B00D3589F46E926EB23B60081599B0066
:102B7C00C758072900D8A1E30B00083B012B01D84B
:102B8C0000F033FC0A0066486E49FEF765F9A1595E
:102B9C0035E7E9239B00C1580B00C8339B001A583A
:102BAC00694806F01DFEE4239B00E358042B00D972
:102BBC00EBE2664A9B00D3589F46E9239B00C15821
:102BCC0008330A00C358072900D95EE3A0201B0173
:102BDC00C8321B0900069200034313512000FFF773
:102BEC0067FE0322504B009029002000FFF7B4FE33
:102BFC004E4E0422330029002000FFF7ADFE17E7EC
:102C0C00E927EB23BF00C1599B00C358072900D803
:102C1C007DE30A00083A012AE0D8C8208A00A218ED
:102C2C00800016589B1B1350D8E7E927EB23BF00F5
:102C3C00C1599B00C358072900D84FE30A00083A32
:102C4C00012ACBD88A008218C82080001658B446B6
:102C5C0063441350C2E7E927EB23BF00C1599B0023
:102C6C00C3580729D5D8C82289004618B02092002D
:102C7C0090461B011B090006B1581843FEF784FE51
:102C8C004346F050E159A9E7F52301229B00C250BD
:102C9C00303BE158B3E6E9239B00C6580433C158D6
:102CAC00072900D86BE30B00083B012B01D800F07F
:102CBC001FFC2748FEF7D0F8072E00D855E3330049
:102CCC00083B012B01D800F0F7FB320015491448E2
:102CDC00FEF7C2F8E9239B00E15890E6E9239B003C
:102CEC00C6580433C158072900D826E30B00083B0B
:102CFC00012B01D800F026FC1548FEF7ADF8072E85
:102D0C0000D821E33300083B012B01D800F020FC54
:102D1C0032000C490248FEF79FF8DBE718C301208C
:102D2C00D0BD01205CC9012040B80120D8CB0120C6
:102D3C0044B50120ECCC012008C3012040C3012084
:102D4C0060C3012048C901209CC1012088C3012017
:102D5C0040B90120EA239B00C158072900D82AE377
:102D6C000B00083B012B00D8C7E3DB48FEF774F8D7
:102D7C00E9273100D948BF0006F032FDE159072997
:102D8C0000D80DE30B00083B012B00D8CAE3D24856
:102D9C00FEF762F8E359C8339B001959D04F38003D
:102DAC0006F01EFDEA239B00E1580B00072900D812
:102DBC00EAE3083B012B00D802E3C748FEF74CF8C6
:102DCC00E926B600A159072900D8DEE20B00083B22
:102DDC00012B00D897E3C048FEF73EF8A359C8333F
:102DEC009B001959380006F0FBFCE9239B00E158C5
:102DFC0005E6E927EA23BF00C6599B00C358072EF6
:102E0C0000D8E4E23200083A012A06D8C8339B0005
:102E1C001A583300C8339B001A503100EFE5E926ED
:102E2C00EA23B60081599B00C358072900D915E243
:102E3C00072B20D8C8228900471892009046BA5810
:102E4C00C8331101B0229B0012060909185811430E
:102E5C00FEF79AFD4346F850A159D0E5E927EA233D
:102E6C00BF00C1599B00C358072900D9F6E1072BB5
:102E7C0001D800F0F1FB9B48FDF7EEFFE9239B0026
:102E8C00E158BCE5E926EA23B60081599B00C358FA
:102E9C00072900D9E2E1072BEDD8C83389009B0044
:102EAC0047181958C8239B009846F858FEF76CFD34
:102EBC004346F850A159A2E5EC239B00C2580023CD
:102ECC00894E8A49337093001B58300005F064FC1E
:102EDC00032229002000864B0096FFF73DFD854E0E
:102EEC000422330029002000FFF736FD33000522B1
:102EFC0029002000FFF730FD3300062229002000B6
:102F0C00FFF72AFDF52301229B00E2509CE5F523F7
:102F1C0001229B00C250243BC35802320093764BD3
:102F2C0062E6DE23EC269B00B600C7588359734932
:102F3C001A01120905A805F02FFC714904AA05A86D
:102F4C0013F036FA049BA2599B001F510023664EC6
:102F5C006649337093001B59300005F01DFC0322A9
:102F6C00634B009640E6DF239B00C658002E31D100
:102F7C00FFF706F8DA22DE239200A1589B00E150FD
:102F8C003833E358A3500432A65000935A4B29000F
:102F9C0020000322FFF7E0FC564E290033002000EE
:102FAC000422FFF7D9FC3300290020000522FFF78B
:102FBC00D3FCDF239B00E35806220093290020005A
:102FCC00504BFFF7C9FC3FE5DF239B00C358012B97
:102FDC0000D148E2FEF7D4FFEC239B00E358D4E782
:102FEC00FEF7CEFFDA23DE229B00E1589200A150BF
:102FFC003832A258E25000220433E25024E5C823B0
:10300C00EC279B00C6580433C35A3604BF001E433A
:10301C00C3593A491A01120905A805F0BDFB3849F4
:10302C0004AA05A813F0C4F9049B37489B001E5151
:10303C0006F0D6FBE2593100344806F0D1FBE259D8
:10304C000023294E2949337093001B59300005F099
:10305C00A3FB274F03223B00290020000096FFF71B
:10306C007BFCE9239B00E1582000FFF721FC3B008F
:10307C000422290000902000FFF76EFCEA239B003D
:10308C00E1582000FFF714FC3B00009005222900BA
:10309C002000FFF761FC4BE5C8239B00C658F023CA
:1030AC0036061B051E40C923EC279B00C358184A43
:1030BC00BF0013401E43C35910491A01120905A839
:1030CC0005F06AFB0E4904AA05A813F071F9049BDC
:1030DC0010489B001E51ABE740B90120A4C201204F
:1030EC00B4C20120B0BD0120303B022080C10120C0
:1030FC0040B80120D8CB012000C3012044B50120E9
:10310C00ECCC012090C20120F4C20120CCC20120E1
:10311C00FFFFFFF0C0C20120EC239B00C258D9492D
:10312C001201120905A805F037FB04AAD64905A817
:10313C0013F03EF9049B9B001B591A0F0A3A012A03
:10314C0000D8DCE0A022190C1B0412061B0C114346
:10315C001343C9229200A350C8239B00E150903323
:10316C00E2586DE7E9239B00E358072B00D84CE2AB
:10317C001A00083A012A00D867E20021C34806F079
:10318C002FFBDF2301229B00E250E9239B00E15837
:10319C002000FFF78DFBBE4B0090F8E6E9239B0067
:1031AC00E358072B49D8C8339B001B591B0F0B2B1B
:1031BC004ED0B8480CE0E9239B00E358072B00D90C
:1031CC00FEE1C8339B001B591A0F0A2A42D0B248A1
:1031DC0006F006FBDF2300229B00E250D5E7E92333
:1031EC009B00E358072B00D81CE21A00083A012A6E
:1031FC0000D824E20021A94806F0F2FAC1E7A84859
:10320C0006F0EEFAE9239B00E358072B08D8C833E5
:10321C009B001B591B020ED1A24806F0E1FAB0E745
:10322C001A00083A012A06D86033DB00E3181A6842
:10323C009B881343F0D09C48CAE71A00083A012A2D
:10324C00B7D86033DB00E3185B681B0F0B2BB0D1D6
:10325C009648E2E71B02BAD09548DEE70A00083A26
:10326C00012A00D907E61A00083A012A00D902E619
:10327C00C8208A00A21880001658C833B4469B0098
:10328C001B5963441350FFF7BAFB083A012A00D9C3
:10329C00A4E4D03292001350A0E4C8278E00A619E3
:1032AC00BF00F259800013011B09C340120F1B020F
:1032BC001B0A12071343F351FFF7A1FB88002018D8
:1032CC00843E8259BF0013011B09BB40120F1B0225
:1032DC001B0A120713438351FFF791FB8900461811
:1032EC00A0211B011B0909061943C8239B00984602
:1032FC00F058FEF749FB4346F050E1596EE4A0212B
:10330C001A01120F090611436A4A134021E7C82219
:10331C008900461892009046B258A0201101B022A4
:10332C001B011B0912060909000611431843FEF77D
:10333C002BFB4346F050E15950E4C83189000B583F
:10334C001B011B099846DAE4C8214046B600A619B1
:10335C0089007258800013011B0983401B02120F55
:10336C001B0A120713437350B4E4C821B600A61904
:10337C0089007258BF0013011B09FB40EEE7C831EE
:10338C0089000F583F013F0996E4C822484689003E
:10339C00631892009958090F09070143995021E5C8
:1033AC00C822890063189200995836070901090947
:1033BC0031439950F2E4C83189000E58360FD7E4E6
:1033CC006031C900615809020B0A9946F8E4A02142
:1033DC00C8339B0009061858FEF7D6FAC836B60053
:1033EC00A051E6593100FFF70AFBC0239B009C4615
:1033FC00BA002027C8002018604443687F429C46CE
:10340C001B011B0998460668D71900D5C7E0330085
:10341C00BB40964062461B04120F1B0C1207134351
:10342C0006604360FFF7EBFAC0222027CB00E318BD
:10343C0092009E18336880009C4673687F429946C0
:10344C001B011B09C71900D5B2E01A00FA4017007E
:10345C00C3404A461B04120F1B0C12071343376060
:10346C007360FFF7CCFAFEF78BFDDA22DE239200B5
:10347C00A1589B00E15000213833E358A35004328B
:10348C00A15082E544B50120ECCC012060C20120A2
:10349C0040B801204CC2012018C2012078C2012082
:1034AC00B4C10120C0C10120DCC1012038C20120FF
:1034BC00FCC10120FFFFFFF0C023F600A6199B0002
:1034CC00F2182026136851689C46BF000B01764207
:1034DC001B09BE1900D586E01800F040FB40090F0F
:1034EC001B041B0C09070B4310605360FFF7F2FB26
:1034FC006031C9004758FFF7DFFB6031C900411844
:10350C004E68360F34E4C022920094464846CB00F5
:10351C00E31863441A68C831D217120705C389002F
:10352C0009595FE4C0239B009C46CA00A218624460
:10353C00536836071B011B091E43C83156608900AE
:10354C0009592BE46031C90043589846FFF7D7FB63
:10355C00C02342462027F600A6199B00F1184E689E
:10356C00920033011B097F429C460868D71943D44B
:10357C000300BB4090401B04320F1B0C120713437B
:10358C0008604B60FFF7A6FBC8339B001E593D48F3
:10359C003602360A320006F023F9B14610E4202731
:1035AC003300BF1AFB401F00434693403B4330E7B8
:1035BC0020271A003F1ABA406746C740174347E70F
:1035CC001A00083A012A00D901E66033DB00E3183F
:1035DC000CCB190F0A2900D0F9E59BB2134300D18B
:1035EC00F5E5294819E620261800F61BB040060020
:1035FC006046F840304371E720270300BF1AFB40B8
:10360C001F00634693403B43B4E7C8339B001E59ED
:10361C003602360F31001D4806F0E2F8002E00D0BD
:10362C00D8E5AEE5C8339B001E590F231E40310070
:10363C00174806F0D5F8002E00D0CBE5A1E5603395
:10364C00DB00E6580F231E40F1E76033DB00E31884
:10365C005E683604360FDDE7C83389009B004618D8
:10366C001958B02309011B0609091943C8239B00EB
:10367C009846F058FEF788F94346F050E159FFF7A9
:10368C00BEF9C04650BC0120FCC1012060C2012023
:10369C0078C20120F0B5C646DB2300B59B00C358A9
:1036AC0004000D0088B0002B50D0D9239B00C658C5
:1036BC000F20310B01402033320AE1500240043319
:1036CC00E25033090340E3273040E426BF00B60044
:1036DC00E351A0510090724806F082F8E3239B005E
:1036EC00E0580433E658020124339219E250303B7F
:1036FC00E358092B26D86B499B00CB589F46E923EE
:10370C00EA279B00BF00E050E651674E03223300CE
:10371C00290000902000FFF71FF9E35904220093C1
:10372C00290033002000FFF717F9604E3300052203
:10373C0029002000FFF710F9330006222900200091
:10374C00FFF70AF908B004BC9046F0BDD9239B00E2
:10375C00C6582033310FC1500F20320E02400433B3
:10376C00E250330D360C0340E3273040E426BF0013
:10377C00B600E351A051ADE7D9239B00E158EE20F0
:10378C00FF230A0C1A408000225004308046464623
:10379C00F027080A1840A051454EBF000B402000EE
:1037AC002900E351009233000322FFF7D5F843467A
:1037BC00E35829002000009304223300FFF7CCF8D3
:1037CC00E35929002000009305223300FFF7C4F8C9
:1037DC00062229002000354BFFF7BEF8B2E7E223A2
:1037EC009B00E358052B55D047DC032BAAD8E923C3
:1037FC009B00E0500833E65000902B4B04E0EC2388
:10380C009B00E25000922B4B290020000322FFF773
:10381C00A3F8264E0422330029002000FFF79CF861
:10382C0084E7CB23A02012019B0012090006E1586B
:10383C001043FEF7A9F8EC23000100099B00E050AF
:10384C000090E0E7CC23EDE7CD23EBE7EC2612016B
:10385C001949120903A804F09FFF184902AA03A8EA
:10386C0012F0A6FD029BB6009B0019591448A151F9
:10387C0005F0B6FFA3590093C5E7063B012B00D911
:10388C0060E7E923EA279B00E050BF000833E651CC
:10389C00E6503AE7E9239B00E0500090024BB3E777
:1038AC009CC30120C4C30120B4C30120D8CB012088
:1038BC0098C1012000C3012044B50120ECCC0120AB
:1038CC00B8C30120FA2210B59200835C040086B0C4
:1038DC00202B29D0432B21D141238354DA230822D6
:1038EC009B00E1180833E01805F0C8FCDC239B00B2
:1038FC00E25817491201120901A804F04DFF6A465B
:10390C00144901A812F054FD009B01219B001A5987
:10391C00D9239B002000E250FFF7BCFEF7230122C5
:10392C009B00E25006B010BDE0239B00C358002B57
:10393C0006D0D4239B00C3181A68D9239B00C2500D
:10394C00FA2341229B00E254393A803BC9E7C04636
:10395C0044B50120ECCC0120FA2230B59200835CF6
:10396C00040087B0202B0CD0412B04D14223012121
:10397C008354FFF70FF8F72301229B00E25007B0A6
:10398C0030BDE0239B00C358002B06D0D4239B00F2
:10399C00C3181A68D9239B00C250FA254123AD00E5
:1039AC006355DA239B00E1180833E018082205F070
:1039BC0065FCDC239B00E2580F491201120901A897
:1039CC0004F0EAFE6A460D4901A812F0F1FC009BD6
:1039DC0020009B001A59D9239B00E2500121FFF7CC
:1039EC0059FEF72301229B00E250422301212000C3
:1039FC006355FEF7CFFFBEE744B50120ECCC0120A8
:103A0C00F0B5C646FA2600B5B600855D040086B052
:103A1C00422D0DD023D8202D5ED0412D17D142231D
:103A2C0001218355FEF7B6FFF72301229B00E250DC
:103A3C004323A355E1239B00E358012B46DD023BB6
:103A4C00042B04D8E2239B00E358022B40D9F72324
:103A5C0001229B00E25006B004BC9046F0BD432D01
:103A6C00F5D141238355DA239B00C1180833082272
:103A7C00C01805F003FCDC239B00E2583849120106
:103A8C00120901A804F088FE6A46364901A812F012
:103A9C008FFC009B01219B001A59D9239B00E250FB
:103AAC002000FFF7F7FD0123F7279846BF00E351ED
:103ABC004133A35501212000FEF76CFF4346E3512F
:103ACC00E123A5559B00E358012BB8DC002BBEDB92
:103ADC002000FEF755FABAE7E0239B00C358002BF1
:103AEC0006D0D4239B00C3181A68D9239B00C2505C
:103AFC00FA254123AD006355DA239B00E118083306
:103B0C000822E01805F0BAFBDC239B00E2581449AC
:103B1C001201120901A804F03FFE6A46114901A8DE
:103B2C0012F046FC009B01219B001A59D9239B00E3
:103B3C00E2502000F726FFF7ADFD01274223B60027
:103B4C00A751012163552000FEF724FF4323A75101
:103B5C006355E1239B00E358012B00DD6FE7B5E7CC
:103B6C0044B50120ECCC0120F0B5C646F42300B5D9
:103B7C009B00C358040086B0002B0BD0F5239B0090
:103B8C00C658002E0AD0043B9C46002200236444F5
:103B9C002260636006B004BC9046F0BDFA27BF00FB
:103BAC00C55D422D0CD01FD8202D58D0412D16D1DB
:103BBC0042230021C355FEF7EDFEF7239B00E65090
:103BCC004323E355E1239B00E358012B41DD023BEA
:103BDC00042B04D8E2239B00E358022B3BD9F72398
:103BEC0000229B00E250D5E7432DF8D14123C35569
:103BFC00DA239B00C11808330822C01805F03EFBDD
:103C0C00DC239B00E25838491201120901A804F088
:103C1C00C3FD6A46354901A812F0CAFB009B00217E
:103C2C009B001A59D9239B00E2502000FFF732FD6C
:103C3C00F7239B00E650984642230021E3552000D1
:103C4C00FEF7A8FE4346E650E555583BE358012BDA
:103C5C00BDDC002BC3DB2000FEF792F9BFE7E023AD
:103C6C009B00C358002B06D0D4239B00C3181A68A2
:103C7C00D9239B00C250FA254123AD006355DA23AA
:103C8C009B00E11808330822E01805F0F7FADC2352
:103C9C009B00E25814491201120901A804F07CFDA2
:103CAC006A46124901A812F083FB009B00219B007D
:103CBC001A59D9239B00E2502000F726FFF7EAFCA3
:103CCC0000274223B600A751002163552000FEF7C0
:103CDC0061FE4323A7516355E1239B00E358012B5D
:103CEC0000DD74E7B5E7C04644B50120ECCC0120FB
:103CFC00F0B5DE464E4645465746E0B505009DB04C
:103D0C000A2005F0C5FBD4239B009946A9444B46D9
:103D1C000CCB511C00D112E1994C9A49200004F0B3
:103D2C003BFDDA239B009B4604339A46EB58212734
:103D3C005A1E9341944A954E90465A465B423B40DC
:103D4C0020334146AA58300004F026FD21003200F1
:103D5C008F4805F045FD0A2005F09AFB8D4C8E49E5
:103D6C001322200005F08AFA5B46EA585346EB58BA
:103D7C003000591E8B415B423B402033414604F0DE
:103D8C000BFD4B461B685A1C00D1F5E01A0F1B01AA
:103D9C001B090A2A00D1EBE00B2A00D0C8E0223222
:103DAC007E4F7F49380004F0F7FC3B0032007D4920
:103DBC0003A804F0F1FC03A9200012F099FB7A4F40
:103DCC00380000F001FDDA239B00EA580433EB586D
:103DDC003000591E8B41594221230B402033414660
:103DEC0004F0DAFC4B461B685A1C00D1C6E01A0FD3
:103DFC001B011B090A2A00D1BCE00B2A00D0AFE042
:103E0C002232664989466649484604F0C5FC4B4651
:103E1C003200664903A804F0BFFC002200213800E0
:103E2C0000F008FC380003A900F05AFCE0239B00CA
:103E3C00EB58002B00D08DE0DC239B00EA580433B8
:103E4C00EB583000591E8B41594221230B40203333
:103E5C00414604F0A1FCD9239B00EA58544B554928
:103E6C001800994604F098FCFA239B00EB5C320096
:103E7C00009351494B4603A804F08EFCE0239B00B1
:103E8C00EB58002B60D1DC239B00EA580433EB5831
:103E9C003000591E8B41594221230B40203341469F
:103EAC0004F07AFCD9239B00EA58414B4149180095
:103EBC00984604F071FCFA239B00EB5C32000093F3
:103ECC003E49434603A804F067FC08220021380051
:103EDC0000F0B0FB380003A900F002FC200003A99D
:103EEC0012F006FB0A2310259846354E2A000021B5
:103EFC00380000F09FFB3100380000F0F1FB20008F
:103F0C0012F06AFB43462354013031002018083567
:103F1C0012F05AFB1336302DE8D12100294805F058
:103F2C005FFC1DB03CBC90469946A246AB46F0BD2A
:103F3C001A4F2549380004F02FFC3B0036E7591C7A
:103F4C0000D0E9E6214CECE64B22214903A804F011
:103F5C0023FCBAE74B221F4903A804F01DFC8DE794
:103F6C000E4989461849484604F016FC4B464FE763
:103F7C002B2215E72B2244E7144B17E7134B47E78B
:103F8C00003B022060BE012030BE0120703B0220AD
:103F9C00ECC30120CC42022010C40120F03A0220D4
:103FAC0018BF012024C40120C023022028C40120F2
:103FBC00603B022094BC01203CC4012040C4012081
:103FCC009E4302204CC401200CBF012020BE0120C6
:103FDC0038C4012034C40120F0B5DE4657464E46A5
:103FEC004546E0B58FB0B04809AB08AA07A901F067
:103FFC0085F8002803D1AC49AC4802F0EFFD099AD2
:10400C000899079801F03EF805F0F6FBFA20C0007D
:10401C0002F07EF80A2005F03BFAA54C200005F0D2
:10402C00DFFBA44805F0DCFB200005F0D9FB0A20DF
:10403C0005F02EFAFCF782FF9F4800F0F3FA9F4B35
:10404C009846180000F03EFC9D4805F0C9FB10F0A6
:10405C0085FE00F08BFC00F0A7FC152200214046E9
:10406C0000F0E8FA974B1B68002B00D113E1404697
:10407C00954900F035FB954805F0B2FB00F076FC55
:10408C00934800F0A3FE002800D000E1914805F011
:10409C00A7FB9149914805F0A3FB00F085FC9048E3
:1040AC0002F036F8404600F08FFB00221421404607
:1040BC0000F0C0FA40468B4900F012FB08221E218A
:1040CC00404600F0B7FA4046874900F009FB102241
:1040DC001E21404600F0AEFA4046844900F000FB39
:1040EC00834805F07DFB834B834C9946834B844E70
:1040FC009B46D0231B069A464B461B680A21581C2C
:10410C0004F0FEFB4B461960012971D009290AD134
:10411C002000FCF775FF06E000F0AEF9210002006C
:10412C00300000F07BF900F0BFF90028F4D0FA2041
:10413C00800005F067FB431C72D00023714A03E03A
:10414C0001330C32282B2DD011788842F8D16E4ACD
:10415C0010605A00D3186B4A9B00944663449B68CA
:10416C0098476A496A4805F03BFB6A496A4B0868FC
:10417C0059461B6809680493684B4D1EA9411B687E
:10418C00494205935A1E934121225B4213400A4037
:10419C0020320292049A0190009011006048203362
:1041AC0005F01EFBF7239B00E258002AA4D0002246
:1041BC00E2500433E358002B3CD1F9239B00E35825
:1041CC00002B33D0404600F0FFFA08224046002175
:1041DC0000F030FA4046534900F082FA4046102273
:1041EC00002100F027FA40464F4900F079FA83E7A6
:1041FC005346022299619A61524604239361043317
:10420C0093614A4B1B685A1C049303231340474A7F
:10421C001360474A9B00D35899405346596182E733
:10422C00012000F00BF905F05BFABBE72000FFF76B
:10423C005FFD61E7404600F0C7FAFB239B000622B6
:10424C00E158234800F09CFC0025374F0DE039491C
:10425C00202209A804F0A0FA404609A900F040FA6F
:10426C00072D00D148E70135143700214046EA00FC
:10427C0000F0E0F93B00002DE9D13E222D4909A8C0
:10428C0004F08AFA404609A900F02AFAEBE72A481A
:10429C0005F0A6FA01E74046284900F021FA284823
:1042AC0005F09EFAEAE6C046580F02002CC5012024
:1042BC006CC40120BCC40120BC230220C0230220FA
:1042CC000CC50120883B022060C501206CC5012073
:1042DC002CB6012098C501201844022008BF0120EB
:1042EC00B80B0000D0C50120E0C50120E8C50120B5
:1042FC00F4C50120BC3A0220283E0220FC340220E6
:10430C0064EC0120A4F00120C03A0220C83B02203A
:10431C001CB70120E8340220D43A022000350220D8
:10432C0034B701205CC40120E0440220A43A0220EE
:10433C0074C9012054C40120B8C5012078C50120DE
:10434C0088C50120F8B54746CE46856880B52B68F0
:10435C001700804689462C001E1E426805D124E0B9
:10436C000134FF342668002E23D0B242F8D104E089
:10437C000135FF352B68002B01D09A42F8D1002C67
:10438C0013D0390048462500E368984700261035BD
:10439C006B68002B09D03800296800F091F80028D0
:1043AC0009D101360C35142EF2D10CBC904699462D
:1043BC00F8BD0024E1E7700083199B00E3185969EC
:1043CC0043469A681368002B25D180198000241865
:1043DC00A369002B03D039004846984761694346CE
:1043EC005B688B42E1D0434659609B681A68002A8F
:1043FC0005D1DAE70133FF331A68002AD5D0914290
:10440C00F8D1390048469B689847CEE70132FF3215
:10441C001368002BD9D09942F8D1D6E770B51600A5
:10442C00C26804000D00002A05D1320029002000CA
:10443C00FFF788FF70BDFFF785FFF6E770B50A4CF4
:10444C00050023680A21581C04F05AFA074B1B6814
:10445C008B4204D0064B8A00D550216070BD0122DE
:10446C00044B1A60FAE7C046F43B0220F83B0220EA
:10447C00EC430220FC3B022010B5084B084C1B6897
:10448C002068834208D00A21013004F039FA054B28
:10449C008A00D058216010BD0120FCE7F43B0220BB
:1044AC00F83B0220EC430220034B1868034B1B68BB
:1044BC00C01A434258417047F43B0220F83B02209B
:1044CC000300112906D00120122902D0C91A484232
:1044DC00484170470B3B1800002109238342494196
:1044EC000800F6E7F8B5D024802780252406FF01C4
:1044FC002D0201200021A76201F0F2FD0120002114
:10450C00A56201F0EDFD656201200021A56101F0BD
:10451C00E7FD0726012000216762A76101F0E0FD9D
:10452C0001200021A56201F0DBFD013E6562012046
:10453C000021A56101F0D4FD002EEBD1D024802503
:10454C00802324061B02ED01A5620120A362002139
:10455C0001F0C6FD642302E0013B002B0FD0626822
:10456C002A42F9D10124D02380221B0612025A625E
:10457C00012000219A6101F0B3FD2000F8BD002458
:10458C00F1E7C0468023F0B5C646D0258026DB0176
:10459C0004000827984600B52D06360216E043465F
:1045AC006B62AB610120002101F09AFD012000211A
:1045BC00AE6201F095FD64006E6201200021AE61D7
:1045CC00013F01F08DFDE4B2002F05D063B2002B4A
:1045DC00E5DA4346AB62E5E7D02480258023240648
:1045EC001B02ED01A5620120A362002101F078FD00
:1045FC00642302E0013B002B11D062682A42F9D1FE
:10460C000124D02380221B0612025A6201200021B1
:10461C009A6101F065FD200004BC9046F0BD0024B9
:10462C00EFE7C04610B50E2000F04EFE0F2000F054
:10463C004BFE10BD7F2370B50500C817400E09183E
:10464C001940091AD017800E13183F2213401B1A59
:10465C00D817383A0240D2180F2382B0C817D2109C
:10466C00060F01AC503A22708A191A4003405B18AD
:10467C001B111033921BA370D02680233606DB014E
:10468C006270012073620021B36101F029FD802367
:10469C001B0273620120B361002101F021FD287916
:1046AC004000C0B2FFF76EFF6B46DD1DFFF71AFF2F
:1046BC0020780134FFF766FFAC42F7D1D024802379
:1046CC0024061B02A3620120002101F009FD8023B6
:1046DC00DB0101200021A36201F002FD02B070BDDC
:1046EC00F8B54E464546DE4657468046E0B50800CE
:1046FC000E0011F071FF00285ED080278346D02475
:10470C00FF01BA46B344240635780120203DAB00A6
:10471C005D192C4B00219C4653466362A361654492
:10472C0001F0DEFC80231B02002163620120A361E7
:10473C0001F0D6FC434618794000C0B2FFF722FFC7
:10474C004020FFF71FFF6B1D994628780135FFF7B6
:10475C0019FFA945F9D180252D0201200021A56260
:10476C0001F0BEFC01200021A76201F0B9FC012080
:10477C0000216762A76101F0B3FC00210120656292
:10478C00A56101F0ADFC4346187901364000C0B27A
:10479C00FFF7F8FE4020FFF7F5FE0020FFF7F2FED2
:1047AC0001200021A56201F09BFC01200021A762E1
:1047BC0001F096FCB345A7D13CBC90469946A24665
:1047CC00AB46F8BD84C901200023F0B557464E46D0
:1047DC004546DE4699468023E0B5DB01D024802592
:1047EC00824698469B464E4683B001AF24062D0266
:1047FC00F310503B3B7000237B701033BB705B4657
:10480C00012063620021A36101F06AFC01200021F8
:10481C006562A56101F064FC534618794000C0B292
:10482C00FFF7B0FE33003E009946FFF75BFE307891
:10483C00FFF7A8FE6B46013607339E42F5D10120E7
:10484C000021A56201F04CFC434601200021A3622B
:10485C0001F046FC4346012063620021A36101F094
:10486C003FFC002101206562A56101F039FC534633
:10487C0018794000C0B2FFF785FE4020FFF782FE9A
:10488C0080231E000E4B013E1878FFF77BFE002E96
:10489C00F8D101200021A56201F022FC4E464346CE
:1048AC0001200021A362083601F01AFC402E9FD192
:1048BC0003B03CBC90469946A246AB46F0BDC04600
:1048CC00283C0220F8B5D024802680250700240639
:1048DC002D02F6016662012065620021A661A561C8
:1048EC006662A66101F0FCFB65620120A5610021F6
:1048FC0001F0F6FBA5620120002101F0F1FB012083
:10490C000021A66201F0ECFB666201200021A66189
:10491C0001F0E6FB65620120A561002101F0E0FBDE
:10492C0038794000C0B2FFF72DFE0F4C25001E3524
:10493C00FFF7D8FD20780134FFF724FEAC42F7D105
:10494C00D024802324061B02A3620120002101F045
:10495C00C7FB8023DB010021A362012001F0C0FB17
:10496C003800FFF731FFF8BD64CB0120002310B5F0
:10497C00084C01220849094823600CF069FB002807
:10498C0002D10123236010BD0C220549054804F017
:10499C0075FCF8E7883B022084CB0120804502207F
:1049AC0088CB01201844022010B5002200200249B7
:1049BC000CF04EFB10BDC04684CB0120F0B5604C12
:1049CC00FB22A54400240021060035A8349404F0F1
:1049DC004FFC5C4D5C4F012229005C483C600CF0A4
:1049EC0037FB002800D09EE001233B6028000EF02E
:1049FC00A5F800230021FB2275A8749374AC04F075
:104A0C0037FC28000EF09AF8FF2120000EF038F940
:104A1C00002800D081E03100200011F091FD002829
:104A2C0000D06EE0FF2134A80EF02AF9061E59D1F1
:104A3C0034A9474804F0D4FE582200211EA804F0E3
:104A4C0017FC902200215200200004F011FC2100E0
:104A5C00404B34AA1EA80EF05DFD061E69D13E4ED9
:104A6C0005E021001EA80EF0E3FC00282AD1A37E4D
:104A7C00002B27D010221100237B19401A42F0D1B1
:104A8C006B461970F5235B006B441900300004F081
:104A9C00A7FEF52040006B4630490AAA684411F085
:104AAC0087FC0028DDD068462D4911F049FD00280F
:104ABC00D7D12C4804F094FE21001EA80EF0B8FCAF
:104ACC000028D4D01EA80EF07BFC0A2004F0E0FCD9
:104ADC000022290000200CF0BBFA0120BD239B0012
:104AEC009D44F0BD10F042FA330002001E491F48ED
:104AFC0003F052FE0022290000200CF0A9FA00203D
:104B0C00ECE730000EF038F8002800D18AE70200FC
:104B1C001749164803F040FE84E702001549134874
:104B2C0003F03AFE7EE70C221349104804F0A6FB72
:104B3C005CE710F01BFA330002001049D7E7C046BF
:104B4C000CFDFFFF84CB0120883B02208045022016
:104B5C00DCCB0120F0B7012008BF012010CC0120D4
:104B6C0050C101201CCC0120C0CB012018440220D4
:104B7C00A4CB012094CB012088CB0120F4CB0120C5
:104B8C00F0B5DE46454657464E46E0B500257E4C10
:104B9C008B46A54400210400904635A8FB22349591
:104BAC0004F066FB794E7A4F0122310079483D6062
:104BBC000CF04EFA002800D0CDE001233B60300011
:104BCC000DF0BCFF00230021FB2275A8749374AD7B
:104BDC0004F04EFB30000DF0B1FFFF2128000EF069
:104BEC004FF8002800D0B0E02100280011F0A8FCFC
:104BFC00002800D09DE0FF2134A80EF041F8041EDF
:104C0C0000D087E043465A4634A9634804F0E8FDD7
:104C1C00582200211EA804F02BFB902200215200E8
:104C2C00280004F025FB29005C4B34AA1EA80EF0CA
:104C3C0071FC071E00D094E02823594CE054143327
:104C4C00E0541433E0541433E0541433E05414336C
:104C5C00E05400231F009A46524B20709946207551
:104C6C0005E029001EA80EF0E3FB00282FD1AB7E37
:104C7C00002B2CD0102211002B7B19401A42F0D1A2
:104C8C006B461970F5235B006B441900484604F021
:104C9C00A7FDF52040006B4643490AAA684411F071
:104CAC0087FB0228DDD16846404911F049FC0028F9
:104CBC00D7D1D34502DC3B00B84558DC01239C46D8
:104CCC0029001EA8E2440EF0B3FB0028CFD000252B
:104CDC001EA80EF075FB0A2004F0DAFB344F2200FC
:104CEC0029003800013504F07BFD1434082DF6D171
:104CFC000A2004F0CDFB0022310000200CF0A8F9B2
:104D0C000120BD239B009D443CBC90469946A24685
:104D1C00AB46F0BD10F02AF92300020025492648C5
:104D2C0003F03AFD0022310000200CF091F9002034
:104D3C00E7E720000DF020FF002800D15BE7020020
:104D4C001E491D4803F028FD55E702001C491A486E
:104D5C0003F022FD4FE70C221A49174804F08EFA93
:104D6C002DE710F003F93B0002001749D7E79C46EA
:104D7C009800F52360445B006B4480001900001917
:104D8C00013711F021FC99E70CFDFFFF84CB0120CA
:104D9C00883B02208045022024CC0120F0B7012062
:104DAC00E044022008BF012010CC012050C101209A
:104DBC0060CC0120C0CB012018440220A4CB0120E0
:104DCC0094CB012088CB0120F4CB0120002310B51B
:104DDC00C0B00021FB22040001A8009304F048FAA3
:104DEC0012480DF0ABFEFF2168460DF049FF00287C
:104DFC0014D12100684611F0A3FB002802D1012038
:104E0C0040B010BD20000DF0B7FE0028F7D0020016
:104E1C000749084803F0C0FC0020F1E702000649EE
:104E2C00044803F0B9FC0020EAE7C04684CB01201B
:104E3C00A4CB01201844022094CB0120F8B5002308
:104E4C00154D164E04000F00012229001448336042
:104E5C000CF0FEF8002819D1012333602000FFF775
:104E6C00B5FF00280FD038000EF0CAFB002805D182
:104E7C002900002200200CF0EBF8F8BD390009489D
:104E8C0004F0AEFCF4E721000748F9E70C220749CF
:104E9C00074804F0F3F9E1E784CB0120883B0220BA
:104EAC008045022080CC012068CC012088CB0120D9
:104EBC0018440220F0B5CE46474680B5634CFB2221
:104ECC00A544002405000F0019A800219946189448
:104EDC0004F0CEF95E4E5F4B012231005E489846DD
:104EEC001C600CF0B5F8002800D099E00123424674
:104EFC00136000230021FB2259A8589358AC04F0EE
:104F0C00B7F930000DF01AFEFF2120000DF0B8FEAD
:104F1C00002800D07AE02900200011F011FB0028B5
:104F2C0068D1FF2118A80DF0ABFE051E4ED118A9B3
:104F3C004A4804F055FC5822002102A804F098F9C4
:104F4C00902200215200200004F092F9444B2100E1
:104F5C001D60984618AA4B4602A80EF0DBFA051EF7
:104F6C0064D1103505E0210002A80EF061FA00288A
:104F7C001DD1A37E002B1AD02A00237B1A401D4280
:104F8C00F1D1BD235B006B4418000192390001AADA
:104F9C0011F00EFA4246019B12689342E3DD424641
:104FAC00210002A813600EF043FA0028E1D002A8F9
:104FBC000EF006FA0022310000200CF049F84346AE
:104FCC002848196804F00CFC01200CE00FF0CEFF0F
:104FDC002A000100244804F003FC002231000020C8
:104FEC000CF036F80020A1239B009D440CBC90468D
:104FFC009946F0BD28000DF0BFFD002800D190E7C8
:10500C0002001A491A4803F0C7FB04E002001949D0
:10501C00174803F0C1FB2900174804F0E1FBDCE75B
:10502C000C221649124804F029F962E700223100DB
:10503C0000200CF00DF828000FF098FF2A0001005A
:10504C000F4804F0CDFB0020CDE7C0467CFDFFFFF0
:10505C0084CB0120883B0220804502209CCC01207F
:10506C00CC3A0220D4CC0120C0CB0120A4CB01200F
:10507C001844022094CB012068CC012088CB01205D
:10508C00B4CC0120F0B583B005000E00140000F084
:10509C00ABF9002801D003B0F0BD154F01223B0045
:1050AC0001210097053001F0B7FD33002A00009470
:1050BC000121104801F09EFF21002800714303F0EC
:1050CC0047FC04000C4B002200930221042001F049
:1050DC00A3FD2300002201210094052001F09CFD7A
:1050EC003B00022200210097062001F095FDD2E73B
:1050FC00006CDC0200800240001BB700F0B5DE46FD
:10510C0057464E464546E0B5070083B004209B4603
:10511C000091019201F068FFFA21890003F018FC5C
:10512C0032238246FF33994686005644B6014C4BD7
:10513C004C4AF318072493420BD901235B429C463B
:10514C005346E144F61A4B46002BF0D100205AE0AE
:10515C00012421003000614303F0FAFB874259D04F
:10516C00631E9846012CE8D01D00654330002900D1
:10517C0003F0EEFB874251D0A31E9846022CE7D0D9
:10518C002D1B2900300003F0E3FB874249D0E31EBE
:10519C009846032C4BD02D1B2900300003F0D8FB74
:1051AC00874246D0231F9846042C48D02D1B29003B
:1051BC00300003F0CDFB874243D0631F9846052C8B
:1051CC0045D02D1B2900300003F0C2FB874240D094
:1051DC00062C42D03000E91F03F0BAFB06248742AC
:1051EC00B7D10029B5D101230724984673019B1B25
:1051FC009B009E19009BF6001E60019B42461C60A2
:10520C005B4601201A6003B03CBC90469946A2460E
:10521C00AB46F0BD0029A3D1A046E7E70029ABD1EE
:10522C00E4E70029E2D0E31E9846032CB3D1022414
:10523C008FE70029DAD0231F9846042CB6D103241B
:10524C0087E70029D2D0631F9846052CB9D10424D6
:10525C007FE70029CAD0062CBCD1052479E7C046CB
:10526C00508EF4FF50F80C00094A830094464022FB
:10527C00634410B51C68C0006240C02414408022F6
:10528C00520113431C60034B9C466044416010BDAB
:10529C0004C00140004001400A4B80009C4604239E
:1052AC006044002901D00C230821002A00D10B00F6
:1052BC00026853400C221A4080235B0118430260A1
:1052CC007047C04604C001400123D022834012061F
:1052DC0093629361094A830094464022634419689F
:1052EC00C0004A40C0211140802252011343196072
:1052FC00034B9C46052360444360704704C0014047
:10530C0000400140F8B5EFF3108772B60E4E3368CB
:10531C00002BFCD0BFF35F8FCB08C4180725A44625
:10532C00C45C01230D40AB4018002040234208D13F
:10533C00624623431370BFF35F8F306087F310888E
:10534C00F8BD100001F04AFC2C0100D0F8B5CE4697
:10535C0047468C4680B5EFF3108872B6214D2C6809
:10536C00002CFCD0BFF35F8F9A422CD8D4080721B5
:10537C00055D0619012411408C402C421FD00721D9
:10538C008946063909E0D408055D06194C460F001C
:10539C001440A7403C002F4211D001329342F2D26C
:1053AC0001204042BFF35F8F00220E4B1A6088F33E
:1053BC00108800280FDB0CBC90469946F8BD2C4396
:1053CC0010003470EEE7BFF35F8F00232B6088F37F
:1053DC001088012040426346002BECD0089801F065
:1053EC00FDFBC0462C0100D0024B18688007C00F93
:1053FC007047C04600C006400021044B044ABFF36E
:10540C005F8F02C39342FAD17047C046000100D0AF
:10541C00800100D0044A1078431CDBB2172B00D952
:10542C00102313707047C046C823022000B5054BEB
:10543C0083B00100009318221F230348FFF786FF57
:10544C0003B000BDF0CC01200436022001238340C0
:10545C00002904D0034A1360034A13607047034ABF
:10546C001360FBE780E200E000E100E080E100E097
:10547C0001238340014A13607047C04600E200E0FC
:10548C00084B10309B688000C358002B07D0064A8D
:10549C0000209B1A2F229A424041C0B27047002034
:1054AC00FCE7C04600ED00E0CC230220024B10309C
:1054BC009B688000C058704700ED00E070B50D008F
:1054CC00EFF3108672B60F4A1368002BFCD0BFF3B3
:1054DC005F8F0D4B10309B6884001B590B4A934215
:1054EC0003D09D4201D001F091FB074B9B681D51ED
:1054FC00BFF35F8FBFF35F8F0022024B1A6086F3FE
:10550C00108870BD240100D000ED00E0CD0100102A
:10551C00F0B557464E464546DE46E0B5894683B063
:10552C0005001700EFF3108A72B65E4A1368002B61
:10553C00FCD0BFF35F8F00205B4B18569B460028B6
:10554C006DDB5A464400594E2418A4003319984672
:10555C009B7910351370564BAA009B6801929B588F
:10556C009C469B1B2F2B29D8012261469143CB795A
:10557C00BB4208D86BE053009B189B00F318DD79F5
:10558C00BD4252D9190006228A56002AF3DABD26EA
:10559C000B1D9B46360243465C46043B1B1B1B05FE
:1055AC00444C5B0D23438B80887141468A714A467B
:1055BC00414B8E800B60CF718A601BE03F4B9C454A
:1055CC0042D142463E4B023413803E4B3619043BCB
:1055DC009E1B3605374B760D1E433B4B56809380F6
:1055EC00FF23D771937143464A469A600123424682
:1055FC001A43944661462E4B019A9B689950BFF30F
:10560C005F8FBFF35F8F0022264B1A608AF31088DE
:10561C0003B03CBC90469946A246AB46F0BD01F0A7
:10562C00F5FA5B46002018568BE70B1D9B468B88C2
:10563C0004345B051B155B4436199E1BE0233605B1
:10564C00760D1B021E43A6E701F0E0FAB9E74546CA
:10565C000B001E489B1B5B415843000D184B2B80C5
:10566C00A31C9C46B4446546164B0434043B5B1B9C
:10567C001B05104D5B0DAC462B43454636196B8014
:10568C000B1F9E1B6346A87148463605760D1E43BC
:10569C00094BAE80EF71A8600B60434613439C46E8
:1056AC00A8E7C046240100D0243C0220CC230220D1
:1056BC0000ED00E000E0FFFF01488047CD01001045
:1056CC0000A1FFFFFC23022000BDFFFFAAAA0000DF
:1056DC00F0B5DE4657464E464546E0B50C0083B065
:1056EC00EFF3108A72B65A4A1368002BFCD0BFF342
:1056FC005F8F1022914681444A46564B96009B6818
:10570C009D59554B98469D4205D0A54216D0534FF6
:10571C00EB1B2F2B14D94F4B9B689D51BFF35F8F05
:10572C00BFF35F8F00224A4B1A608AF3108803B0D4
:10573C003CBC90469946A246AB46F0BD1D00EAE73C
:10574C00012383409B465A46454B1B681A400092E6
:10575C005A46444B1A60BFF35F8F15F089FD0190D8
:10576C00002803D0814501D001F050FA01232A0012
:10577C009A4393689C4208D160E04B005B189B00F5
:10578C00FB189968A14211D01A0006215156002924
:10579C00F3DA009B002B05D05A46334B1A60304B82
:1057AC001A60B8E75A462F4B1A60B4E706215956CF
:1057BC00002922DB4A00501880003C188046A06863
:1057CC009860E079D871062020569871A0797F28CE
:1057DC0024D8A488F81A6405241544440019E0243C
:1057EC000005400D24022043988052181F4B920054
:1057FC00BF181A781970BA71CBE70199002910D12A
:10580C00FF3191711A49918018490A789A71194A95
:10581C00DB1B5B415A43120D0A70BAE7BD20000234
:10582C00E2E7154A1549D21A083A5002400D0143D5
:10583C009980134952080A43DA80AAE70621515687
:10584C0013000029B6DA019A002AEAD14546DBE7B3
:10585C00240100D000ED00E0CD010010CC2302208B
:10586C0000E100E080E100E080E200E0243C022066
:10587C0000BDFFFFAAAA00000624022000F0FFFFD3
:10588C0000F8FFFFF8B501250400054315F0F0FC06
:10589C000300EFF3108672B621490A68002AFCD087
:1058AC00BFF35F8F1F4A20001F49801A40414143BC
:1058BC00090D1E489B00876849B2FF58AF421CD0A7
:1058CC000623D3568B421CD01223D3568B4222D0A4
:1058DC001E23D3568B4220D02A23D35603208B422F
:1058EC0010D0134B1A781970A271BFF35F8F00227E
:1058FC000B4B1A6086F31088F8BD82680D48D050A7
:10590C00EFE7002043001B189B00D218FF23937174
:10591C00094B9380E5E70120F4E70220F2E7C0464B
:10592C00240100D0CC230220AAAA000000ED00E044
:10593C00243C0220CD01001000BDFFFF054B064AA0
:10594C001360064A136053609360D3601361536114
:10595C00936170478080808000E400E004E400E004
:10596C00D02300B51B061B680100074883B0C01884
:10597C00064B002200930523FFF7E8FC002801DB0F
:10598C001F23181A03B000BD183C02200CCD0120B7
:10599C0070B504000E001500FFF73CFD010020005F
:1059AC0000F006F8A680E580BFF35F8F70BDC0469F
:1059BC00024B9C46614489000160704740000034F2
:1059CC0083680B4810B58446614462440901120196
:1059DC009A18591854684B6801209C4201D802D07F
:1059EC000020C0B210BD12680B689A42F9D8F7E7D4
:1059FC00FFFFFF0F0A4B1968EFF3108072B60A68AD
:105A0C00002AFCD0BFF35F8F1B68BFF35F8F0022AF
:105A1C001A6080F3108840BF002000217047C046F8
:105A2C00903B0220F8B557464E464546DE46E0B55B
:105A3C00434D81468A466A68EFF3108872B6136844
:105A4C00002BFCD0BFF35F8F2E68B47B002C3ED0B4
:105A5C00670033683F19033FDA195378B373002B8F
:105A6C0000D1F3730023937053701370A968354AF7
:105A7C008C464946A218120162441160514651608D
:105A8C003149D36091603268D2199370537013709E
:105A9C00737B9B46002B35D022001900B0687368CD
:105AAC0098473268002820D05B4658465B005B4420
:105ABC00D719033BB870D118D35C002B00D07B7086
:105ACC005B460C7073735C451DD0002626E06B683A
