:020000041000EA
:1000000000B5324B212058609868022188439860DF
:10001000D860186158612E4B002199600221596106
:100020000121F02299502B49196001219960352056
:1000300000F044F80222904214D00621196600F024
:1000400034F8196E01211966002018661A6600F04E
:100050002CF8196E196E196E052000F02FF8012189
:100060000842F9D1002199601B49196000215960AB
:100070001A491B48016001219960EB211966A021F2
:10008000196600F012F800219960164914480160C1
:100090000121996001BC002800D000471248134993
:1000A000086003C880F30888084703B5996A0420EC
:1000B0000142FBD001200142F8D103BD02B5186610
:1000C0001866FFF7F2FF186E186E02BD00000240BE
:1000D000000000180000070000035F00212200005C
:1000E000F4000018222000A00001001008ED00E03C
:1000F00000000000000000000000000074B24E7A12
:1001000000200420F7010010C3010010C5010010F9
:10011000C1010010C1010010C1010010C101001097
:10012000C1010010C1010010C1010010C701001081
:10013000C1010010C1010010C9010010CB01001065
:10014000CD010010CD010010CD010010CD01001037
:10015000CD010010CD010010CD010010CD01001027
:10016000CD010010CD010010CD010010CD01001017
:10017000CD010010CD010010CD010010CD01001007
:10018000CD010010CD010010CD010010CD010010F7
:10019000CD010010CD010010CD010010CD010010E7
:1001A000CD010010CD010010CD010010CD010010D7
:1001B000CD010010CD010010CD010010CD010010C7
:1001C00000BE00BE00BE00BE00BE00BE00F051F882
:1001D000103800BEF2EB8871E00200100C03001032
:1001E0003402001090A31AE700202449086006C8D2
:1001F00081F30888104722480068002835D10DA4F3
:100200000ECC002902D000F012F8F9E71D491E4A71
:10021000002000E001C19142FCD11C4988471C49E3
:1002200088471C49884700BEFDE701C901C29A42C0
:10023000FBD370470C030010C0000020188B002077
:10024000648D0010208B0020DC9C0020209F00107B
:100250000000042000000420209F00100010042053
:10026000001004200000000070470B4800F018F850
:100270000047EFF30580C0B27047000008ED00E0D2
:10028000000000D0E09C0020C4B00020CD2E002053
:10029000DD120020FD2F0020575600000000000056
:1002A00001B40248844601BC604700BF454C0020B1
:1002B00006005250ABB36053D49500200600525054
:1002C000861C0302E4950020060052505422A29D91
:1002D0000496002005005250DE65F468209F00104F
:1002E000D4020010C8020010BC02001010960020BA
:1002F000B00200101C9600202896002034960020A2
:0C030000709600207C960020B096002033
:10030C00F8B5C0460448054B10B5834203D0044BE6
:10031C00002B00D0984710BDDC9C0020DC9C0020FA
:10032C000000000006480749091A8B10C90FC918AC
:10033C0010B5491003D0044B002B00D0984710BDCA
:10034C00DC9C0020DC9C00200000000010B5074C59
:10035C002378002B09D1FFF7D5FF054B002B02D0DA
:10036C00044800E000BF0123237010BDE89D00206D
:10037C0000000000188B0020054B10B5002B03D09B
:10038C000449054800E000BFFFF7CCFF10BDC04694
:10039C0000000000EC9D0020188B00207047C04628
:1003AC00D4239B00C258034BC25401226233C25067
:1003BC007047C04656030000D422054B9200C35C24
:1003CC0082589B001A50EE2301229B00C2507047AA
:1003DC0056030000044A835C01338354EE2301224C
:1003EC009B00C2507047C04656030000044A835C11
:1003FC00013B8354EE2301229B00C2507047C04640
:10040C0056030000D4239B00C2580C33C254012263
:10041C005C33C2507047C046D422920083580B39CB
:10042C001B015B188350EE2301229B00C2507047C6
:10043C00EF2320229B00C2540022483BC250243B95
:10044C00FF32C2500123D52230B501246442E51796
:10045C005B4292008352074A8354423282181460E2
:10046C005560E82292008350EE2301229B00C2507B
:10047C0030BDC04656030000EF232022FF219B0015
:10048C00C2541F3A483BC250243BC1500123D521D2
:10049C0030B501246442E5175B428900435206499A
:1004AC004354423141180C604D60E821890043509F
:1004BC00EE239B00C25030BD56030000EB230122FB
:1004CC009B00C2507047C046EC2301229B00C250D7
:1004DC007047C046EE230121014A9B00D150704762
:1004EC0050A90020074B08480849094A1860596070
:1004FC00084809499860D960084805499A6118610B
:10050C005961704750A900206303520356005610DE
:10051C005107510650055305520551055405530515
:10052C0070B500240F4D104E07E02100300004CDB3
:10053C00013405F0BBFDC82C10D00521200004F0BF
:10054C00CFFC0029F1D10A2005F0A8FC21003000D5
:10055C0004CD013405F0AAFDC82CEED10A2005F01B
:10056C009DFC70BD50A90020AC8D002070B50A20F8
:10057C0005F094FC094C0A4E25005135FF35626894
:10058C0013782A2B03D03000217805F08FFD0C3422
:10059C00AC42F4D1034805F089FD70BD7C9A002073
:1005AC00C48D0020D08D002010B5054C0548216865
:1005BC0005F07CFD2068253801F0D4F810BDC0464C
:1005CC0050A70020EC8D002010B5152001F0CAF8C2
:1005DC0010BDC04610B5162001F0C4F810BDC046C1
:1005EC0010B5172001F0BEF810BDC04610B507209D
:1005FC0001F0B8F810BDC04610B51A2001F0B2F8E1
:10060C0010BDC04610B5022001F0ACF810BDC046BC
:10061C0010B5062001F0A6F810BDC04610B5052097
:10062C0001F0A0F810BDC04610B5032001F09AF8F7
:10063C0010BDC04610B5042001F094F810BDC046A2
:10064C0010B5182001F08EF810BDC04610B5192059
:10065C0001F088F810BDC0467047C04610B503487D
:10066C0004F010FC002103000020984755420000C4
:10067C00F0B5D6464F4646466848C0B505F016FD5F
:10068C00674805F013FDD723664E9B00F25C0433DC
:10069C00F3582124591E8B41634D644F5B42234018
:1006AC0039002033280004F0A9FB2900604805F02C
:1006BC00FDFCD9239B00F25C0433F3582800591E2F
:1006CC008B415B4223403900203304F097FB290017
:1006DC00584805F0EBFCD6239B00F158564805F022
:1006EC00E5FCEC23EB22DC219B0092008900F35803
:1006FC00B2587158514805F0D9FCD523504C514D86
:10070C009B00F25C2900200004F078FB21004E488D
:10071C0005F0CCFC4D4B2900F25C200004F06EFB84
:10072C0021004B4805F0C2FC4A4B2900F25C20002A
:10073C0004F064FB2100484805F0B8FCC8239B007A
:10074C00F518464B00249846454B464F9A46464B67
:10075C0099460CE04946380004F050FB21003A0061
:10076C004046013405F0A2FC0435082C0BD02A6855
:10077C00531CEFD1210052464046013405F096FC43
:10078C000435082CF3D1D0239B00F3180CCB511C4F
:10079C003CD0364C3649200004F030FB22000821B6
:1007AC00404605F083FCD2239B00F3180CCB511C64
:1007BC0030D02E4C2E49200004F020FB22000921C1
:1007CC00404605F073FC0A2005F068FB294805F04B
:1007DC006DFC294805F06AFCE6239B00F15827487C
:1007EC0005F064FCE7239B00F158254805F05EFCFE
:1007FC00E8239B00F158234805F058FC0A2005F02B
:10080C004DFB1CBC90469946A246F0BD591CC0D16C
:10081C00134AC4E7591CCCD1114AD0E7FC8D0020F7
:10082C00048E002050A90020F4A700200C8E00207C
:10083C00148E0020288E00203C8E0020548E002028
:10084C00C4A700207C8E0020848E0020550300005D
:10085C00988E002056030000AC8E0020C88E00201D
:10086C00F08D002084A70020C08E002094A70020CB
:10087C00D88E0020E08E0020EC8E0020F88E002018
:10088C000C8F0020208F0020F0B5DE4657464E46D8
:10089C004546EE230022E0B5904CC7B09B000A20E1
:1008AC00E25005F0FBFAD4239B00E65899460C3332
:1008BC00E25C9B4604339A46E358894F591E8B41A0
:1008CC0021215B420B40874920333800884604F0D5
:1008DC0095FA31003A00844805F0E8FB1BAE0A207B
:1008EC0005F0DCFA3200814B23CB23C219683800A7
:1008FC001160998891809B7993715B46E25C5346B9
:10090C00E358591E8B4121215B420B402033414659
:10091C0004F074FA4B46E258531C00D1A1E0744B1E
:10092C00744D19002800994604F068FA2B0002ADAA
:10093C003A007149280004F061FA2900300008F0EF
:10094C009DF9DD239B00E358002B00D0A6E0D923B2
:10095C009B00E25C0433E3583800591E8B4159422A
:10096C0021230B402033414604F048FAD6239B0048
:10097C00E258531C00D172E05E4B49469846180071
:10098C0004F03CFA4346EF229200A25C280000924D
:10099C005A493A0004F032FA2900300008F06EF996
:1009AC00E6239B00E7587B1C61D0072F61D9544B81
:1009BC009846544F4146380008F088F93A0052499D
:1009CC00280004F01BFA2900300008F057F9E7233F
:1009DC009B00E7587B1C48D0072F65D9484B98469D
:1009EC004A4F4146380008F071F93A00484928004E
:1009FC0004F004FA300008F071F92900301808F0FE
:100A0C0019F9444B29001A6802921B7905222B71A3
:100A1C0005F03AF9404B4149E25C9300E358404CF5
:100A2C009846200004F0EAF93E4F42464946380009
:100A3C0004F0E4F93B00220028003B4904F0DEF905
:100A4C002900300008F01AF93100384805F02EFB67
:100A5C0047B03CBC90469946A246AB46F0BD344BE1
:100A6C0091E7234A324B914661E7284FBDE7254F6A
:100A7C00A4E73B00C8339B00E258531C29D01D4B04
:100A8C0049469846180004F0B9F943461C4A2949CE
:100A9C0090463A00404604F0B1F98AE74B22280010
:100AAC00254904F0ABF977E73B00C8339B00E258CB
:100ABC00531C10D00F4B49469846180004F09EF971
:100ACC0043460F4A1B4990463A00404604F096F9BB
:100ADC0086E7174BDAE7164BF3E7C04650A9002020
:100AEC00F4A700200C8E0020348F0020588F00209B
:100AFC00C08E002084A700206C8F0020848F0020E3
:100B0C00A4A70020D4A70020A08F0020E4A70020D9
:100B1C00A88F0020B08F0020560300007C8E002090
:100B2C00C4A7002074A70020B88F0020C88F002015
:100B3C00F08D0020948F00207C8F0020EF2270B568
:100B4C009200835C040082B0202B01D0432B45D152
:100B5C004123A354D923D7229B009200E318A21857
:100B6C0003CA03C3D9239B00E35C9B001E59D62305
:100B7C009B00E6500833E358002B35D1DE230F25BC
:100B8C00E0209B00310F320EE1502A400433E2503A
:100B9C00330D2B4080002350300C2840E125AD0054
:100BAC0060510090284805F081FADE239B00E35841
:100BBC00012B3FD02BDC002B10D1DF239B00E35803
:100BCC00032B34DD063B012B08D8E0239B00E258B5
:100BDC001833E250143BE2581C33E250EE2301224E
:100BEC009B00E25002B070BD0F20DE23E025310BDC
:100BFC0001409B00320AE15002400433E2503309B9
:100C0C000340AD006351304004356051C9E7073BE8
:100C1C00022BE3D8D623E9229B00E3589200190C4F
:100C2C00A1540A4A190AA154094AA354D6E7002B25
:100C3C00D4DBCAE7E1239B00E258043BE1581833AC
:100C4C00E1500433E250C9E7D08F0020A503000027
:100C5C00A6030000EB239B00C25870B50400002AC9
:100C6C0010D0EC229200815800290CD1EF234322A2
:100C7C009B00C254443BC358012B08D9EE230122DC
:100C8C009B00E25070BD0021C1508150FAE7D62381
:100C9C009B00C3581B0F062B11D9073B022B24D8E2
:100CAC00D8239B00C358002B15D1D7229200A35CEC
:100CBC000133A354D82300229B00E250DEE7D82353
:100CCC009B00C258002A1BD0D7208000225C013226
:100CDC002254E150D2E70C49203A0C4804F0D4FFDE
:100CEC000B490C4805F0E2F9DFE7094D102228000A
:100CFC00094904F0C9FF2900084805F0D7F9BDE7F8
:100D0C000122C250BAE7C046E48F002088A8002018
:100D1C0010AD002008900020209000203090002082
:100D2C00F0B5C64600B507290ED8072A23D92B4C97
:100D3C002B491D22200004F0A7FF2100294805F0B3
:100D4C00B5F904BC9046F0BD0C00083C012CEED863
:100D5C001400083C012CEAD81C00083C012CE6D8F5
:100D6C00C832C83392009B0012581B58C8318900F6
:100D7C00D3180B50E5E7072BD9D8C832C8339200EB
:100D8C009B0014581B580F25E418C823164F8900D4
:100D9C0046189B002100F450380005F087F9134BDE
:100DAC002540290018000A3D984605F07FF9052DCD
:100DBC0012D925062D0F290040460A3D05F076F97B
:100DCC00052D07D92100380005F070F9C8239B00C8
:100DDC00F450B6E76034F5E70634EAE710AD0020CE
:100DEC005C90002030900020409000204C9000201F
:100DFC00DE23F0B5C6469B00C358040000B5012B9A
:100E0C000BD04DDC002B48D1DF239B00C358072BA4
:100E1C0043D8B24A9B00D3589F46DF239B00C3584C
:100E2C00062B00D176E053DC002B6AD0032B34D197
:100E3C00E6239B00C0580433E358072800D983E00D
:100E4C00C8339B001D59C823800024189B00A44E56
:100E5C002900E550300005F029F90F232B40984666
:100E6C00A04F1900380005F021F943460A3B052B29
:100E7C0000D806352B061B0F98461900380005F0D4
:100E8C0015F943460A3B052B00D860352900300084
:100E9C0005F00CF9C8239B00E55004BC9046F0BD4E
:100EAC00073B022BF9D8E9239B00C35C9B001A5823
:100EBC008D4BC2548D4BC35C9B001A58EA239B008C
:100ECC00C2548B4BC35C9B001A588A4BC254E4E748
:100EDC00072BE2D1E623C8259B00C0580433E35806
:100EEC008100C8336118AD009B001A594C5992000F
:100EFC001300D440203BDB17234007281FD84B514D
:100F0C00CBE7E6239B00C15804330A00C358FFF714
:100F1C0007FFC2E7E6239B00C15804338A008218FE
:100F2C00C820E3588000C8339B001B5914589B0001
:100F3C009C402300072900D99BE01350ADE70838EB
:100F4C000128AAD84B51A8E70200083A012AA4D8D4
:100F5C00C8339B001B59C830800003519DE7E82320
:100F6C009B00C558083BC358072B00D89AE01A00C1
:100F7C00083A012A00D990E79B00C418C8239B00AB
:100F8C00E25894466544E55087E7E8239B00C55832
:100F9C00083BC358072B7ED91A00083A012A00D9FE
:100FAC007BE79B00C418C8239B00E258551BE550F7
:100FBC0073E7E623C8259B00C058AD00810061187B
:100FCC00083392E7E8239B00C558083BC358072B0E
:100FDC0070D91A00083A012A00D95EE79B00C418A0
:100FEC00C8239B00E258AD1AE55056E7E623E822E9
:100FFC009B00C35892008258072B04D9190008395A
:10100C00012900D949E7C8339B001A5145E73A4DED
:10101C00280005F04BF8E1239B00E358022B0DD080
:10102C002DDC002B4DD0012B00D036E7E6239B00A6
:10103C00E358C8339B001B59002B27D1DC2300221B
:10104C009B00E25029E7E6239B00C258E82193005D
:10105C00C318C8208900615880001C5889008C4036
:10106C002100072A03D9083A012A00D915E719509B
:10107C0013E70839012900D90FE713500DE7032BAB
:10108C0000D00AE700211D4805F010F8DC230122EE
:10109C009B00E25001E79B00C418C8239B00E25858
:1010AC00551BD4E69B00C418C8239B00E2589446F9
:1010BC006544CCE69B00C418C8239B00E258AD1ACB
:1010CC00C5E6280004F0F2FFE6239B00E358C83382
:1010DC009B001B59002BB1D1D8E7C046A090002033
:1010EC00409000204C900020A7030000A5030000B6
:1010FC00A6030000A90300007C900020889000202B
:10110C00EF2270B59200835C040082B0202B0BD0D0
:10111C00412B03D142238354FFF76AFEEE230122B5
:10112C009B00E25002B070BD41238354D923D722D7
:10113C009B009200C318821803CA03C3D9239B00D7
:10114C00E35C9B001E59D6239B00E6500833E35802
:10115C00002B3AD1DE230F25E0209B00310F320EFD
:10116C00E1502A400433E250330D2B4080002350D1
:10117C00300C2840E125AD00605100902B4804F064
:10118C0095FFDE239B00E358012B44D033DC002B6E
:10119C0010D1DF239B00E358032B29DD063B012BE9
:1011AC0008D8E0239B00E2581833E250143BE25875
:1011BC001C33E250EE2301229B00E25004334132F7
:1011CC002000E254FFF714FEA8E70F20DE23E025F1
:1011DC00310B01409B00320AE15002400433E250D3
:1011EC0033090340AD006351304004356051C4E70E
:1011FC00002BDFDBD5E7073B022BDBD8D623E9221C
:10120C009B00E3589200190CA154094A190AA154E5
:10121C00084AA354CEE7E1239B00E258043BE15873
:10122C001833E1500433E250C4E7C046D08F00209D
:10123C00A5030000A6030000D82370B59B00C3587B
:10124C00040082B0002B43D0D6239B00C5580F203E
:10125C00290B014020332A0AE15002400433E250AA
:10126C002B090340E0262840E125B600AD00A35130
:10127C0060510090284804F019FFDE239B00E358CE
:10128C00012B3ED014DC002B10D1DF239B00E35844
:10129C00032B33DD063B012B08D8E0239B00E258DF
:1012AC001833E250143BE2581C33E25002B070BDCC
:1012BC00073B022BFAD8D623E9229B00E358920075
:1012CC00190CA154154A190AA154154AA354EDE757
:1012DC00D6239B00C5582033290FC1500F202A0E4E
:1012EC0002400433E2502B0D2D0C0340E026284025
:1012FC00E125B600AD00A3516051BAE7002BD5DB58
:10130C00CBE7E1239B00E258043BE1581833E15052
:10131C000433E250CAE7C046D08F0020A50300007A
:10132C00A6030000F0B54646D6464F46C0B5EF269C
:10133C00B600855D0400422D00D1A1E01CD8202D03
:10134C005ED0412D0FD142238355FFF751FDEE2383
:10135C0001229B00E2504323A355DE239B00E3585C
:10136C00012B00D8A7E0EE2301229B00E2501CBC0D
:10137C0090469946A246F0BD432DF4D141238355A6
:10138C00D7239B0099464A460833C318821803CAD0
:10139C0003C3D923D6279B00E35CBF009B001B59DA
:1013AC002000E351FFF748FFEE239B0098460123F2
:1013BC009A4643465246E25042232000A355FFF77B
:1013CC0017FD43465246E250A555403BE358012BCE
:1013DC00C9D8E3591B0F062B7FD9073B022B71D8B9
:1013EC00D8239B00E358002B00D083E0D722920037
:1013FC00A35C0133A354D82300229B00E250B2E734
:10140C0041238355D7239B0099464A460833C3187A
:10141C00821803CA03C3D923D6279B00E35CBF0001
:10142C009B001B592000E351FFF706FF0123EE251B
:10143C009846AD0063514133A3552000FFF7D8FC0B
:10144C00434663514233A355DE239B00E358012BE3
:10145C0000D988E7E3591B0F062B3ED9073B022B1B
:10146C0030D8D8239B00E3582322002BBED025492B
:10147C00254804F009FC2549254804F017FEB5E77A
:10148C0043238355DE239B00C358012B00D96AE705
:10149C00D6239B00C3581B0F062BDFD8D8239B00E9
:1014AC00E258002A28D0D7218900625C01326254AC
:1014BC000022E25057E7D6239B00E3581B0F062B64
:1014CC008BD8EBE7114D10222800124904F0DCFBFD
:1014DC002900114804F0EAFD45E7D8239B00E258A7
:1014EC00002A09D04A464946A25C013262540022C5
:1014FC00E25038E72232BAE7D82301229B00E250AF
:10150C0031E7C046E48F002088A8002010AD0020F1
:10151C00089000202090002030900020F0B5DE468E
:10152C0057464E464546E0B589B0414807AB06AA3A
:10153C0005A900F0A7F9002803D13D493D4801F069
:10154C007FFE079A0699059800F060F904F0BAFD41
:10155C00FA20C00001F042F90A2004F09FFC364C3E
:10156C00200004F0A3FD354804F0A0FD200004F099
:10157C009DFD0A2004F092FC314B324C9B46324BC1
:10158C00324D9A46324B334F9946334B9846EE26A2
:10159C00B60006E000F004F921000200280000F07B
:1015AC00D1F800F015F90028F4D0FA20800004F0EE
:1015BC008FFD431C36D03A00002303E001330C327C
:1015CC001C2B29D011788842F8D1244A10605A007B
:1015DC00D3189B00FB189B6898472149214804F0BD
:1015EC0065FD53461B6849465A1E934121225B42B6
:1015FC001340424612680968501E82412120524213
:10160C000240203202925A4601910091126816480B
:10161C001100203304F04AFDA359002BC1D0FFF771
:10162C0033F9B4E7012000F09DF804F0BFFCF3E7B8
:10163C00580F0200C49100202491002074910020C6
:10164C0060A7002050A90020B0A100206C980020B9
:10165C0098A100207C9A0020ACA1002050A700206B
:10166C002CA80020C0900020D8900020F8B5474648
:10167C00CE46856880B52B681700804689462C00BD
:10168C001E1E426805D124E00134FF342668002E6A
:10169C0023D0B242F8D104E00135FF352B68002B82
:1016AC0001D09A42F8D1002C13D0390048462500BD
:1016BC00E3689847002610356B68002B09D038007A
:1016CC00296800F091F8002809D101360C35142E48
:1016DC00F2D10CBC90469946F8BD0024E1E77000AD
:1016EC0083199B00E318596943469A681368002BC9
:1016FC0025D1801980002418A369002B03D0390050
:10170C0048469847616943465B688B42E1D0434643
:10171C0059609B681A68002A05D1DAE70133FF3358
:10172C001A68002AD5D09142F8D1390048469B68F6
:10173C009847CEE70132FF321368002BD9D099427B
:10174C00F8D1D6E770B51600C26804000D00002A67
:10175C0005D1320029002000FFF788FF70BDFFF78C
:10176C0085FFF6E770B50A4C050023680A21581C62
:10177C0003F0B6FB074B1B688B4204D0064B8A0068
:10178C00D550216070BD0122044B1A60FAE7C046A7
:10179C0058A800205CA80020D8AD002060A800202C
:1017AC0010B5084B084C1B682068834208D00A21EE
:1017BC00013003F095FB054B8A00D058216010BD19
:1017CC000120FCE758A800205CA80020D8AD002020
:1017DC00034B1868034B1B68C01A434258417047AF
:1017EC0058A800205CA800200300112906D0012075
:1017FC00122902D0C91A4842484170470A3B1800C6
:10180C0000210A23834249410800F6E7F0B583B072
:10181C0005000E00140000F075F9002801D003B08B
:10182C00F0BD154F01223B0001210097053001F05E
:10183C0025FD33002A0000940121104801F00CFF13
:10184C0021002800714303F073FB04000C4B0022B1
:10185C0000930221042001F011FD2300002201213C
:10186C000094052001F00AFD3B00022200210097A4
:10187C00062001F003FDD2E7006CDC020080024080
:10188C00001BB700F0B5DE4657464E464546E0B560
:10189C00070083B004209B460091019201F0D6FE14
:1018AC00FA21890003F044FB32238246FF33994628
:1018BC0086005644B6014C4B4C4AF318072493420D
:1018CC000BD901235B429C465346E144F61A4B4626
:1018DC00002BF0D100205AE001242100300061439C
:1018EC0003F026FB874259D0631E9846012CE8D0A2
:1018FC001D0065433000290003F01AFB874251D0CC
:10190C00A31E9846022CE7D02D1B2900300003F0B3
:10191C000FFB874249D0E31E9846032C4BD02D1B5E
:10192C002900300003F004FB874246D0231F984661
:10193C00042C48D02D1B2900300003F0F9FA874203
:10194C0043D0631F9846052C45D02D1B2900300031
:10195C0003F0EEFA874240D0062C42D03000E91F4B
:10196C0003F0E6FA06248742B7D10029B5D101234A
:10197C000724984673019B1B9B009E19009BF60045
:10198C001E60019B42461C605B4601201A6003B03E
:10199C003CBC90469946A246AB46F0BD0029A3D16B
:1019AC00A046E7E70029ABD1E4E70029E2D0E31E2B
:1019BC009846032CB3D102248FE70029DAD0231FD9
:1019CC009846042CB6D1032487E70029D2D0631F94
:1019DC009846052CB9D104247FE70029CAD0062CDF
:1019EC00BCD1052479E7C046508EF4FF50F80C00AA
:1019FC00094A830094464022634410B51C68C00019
:101A0C006240C02414408022520113431C60034BDB
:101A1C009C466044416010BD04C001400040014040
:101A2C00F8B5EFF3108772B60E4E3368002BFCD06E
:101A3C00BFF35F8FCB08C4180725A446C45C0123F1
:101A4C000D40AB4018002040234208D1624623438E
:101A5C001370BFF35F8F306087F31088F8BD1000F0
:101A6C0001F0EEFB2C0100D0F8B5CE4647468C4673
:101A7C0080B5EFF3108872B6214D2C68002CFCD089
:101A8C00BFF35F8F9A422CD8D4080721055D061945
:101A9C00012411408C402C421FD007218946063965
:101AAC0009E0D408055D06194C460F001440A74008
:101ABC003C002F4211D001329342F2D2012040421D
:101ACC00BFF35F8F00220E4B1A6088F3108800283A
:101ADC000FDB0CBC90469946F8BD2C4310003470BB
:101AEC00EEE7BFF35F8F00232B6088F31088012093
:101AFC0040426346002BECD0089801F0A1FBC04695
:101B0C002C0100D0024B18688007C00F7047C046EC
:101B1C0000C006400021044B044ABFF35F8F02C390
:101B2C009342FAD17047C046000100D0800100D02A
:101B3C00044A1078431CDBB2172B00D91023137006
:101B4C007047C046CC9B002000B5054B83B001000C
:101B5C00009318221F230348FFF786FF03B000BD34
:101B6C00F8920020B4A2002001238340002904D065
:101B7C00034A1360034A13607047034A1360FBE780
:101B8C0080E200E000E100E080E100E0012383401E
:101B9C00014A13607047C04600E200E0084B103069
:101BAC009B688000C358002B07D0064A00209B1A64
:101BBC002F229A424041C0B270470020FCE7C04639
:101BCC0000ED00E0D09B0020024B10309B688000A1
:101BDC00C058704700ED00E070B50D00EFF31086B3
:101BEC0072B60F4A1368002BFCD0BFF35F8F0D4BFE
:101BFC0010309B6884001B590B4A934203D09D42C2
:101C0C0001D001F035FB074B9B681D51BFF35F8F73
:101C1C00BFF35F8F0022024B1A6086F3108870BDF1
:101C2C00240100D000ED00E0CD010010F0B55746C6
:101C3C004E464546DE46E0B5894683B005001700A2
:101C4C00EFF3108A72B65E4A1368002BFCD0BFF318
:101C5C005F8F00205B4B18569B4600286DDB5A4665
:101C6C004400594E2418A400331998469B7910351A
:101C7C001370564BAA009B6801929B589C469B1B69
:101C8C002F2B29D8012261469143CB79BB4208D82E
:101C9C006BE053009B189B00F318DD79BD4252D9C1
:101CAC00190006228A56002AF3DABD260B1D9B4624
:101CBC00360243465C46043B1B1B1B05444C5B0D28
:101CCC0023438B80887141468A714A46414B8E80F2
:101CDC000B60CF718A601BE03F4B9C4542D1424662
:101CEC003E4B023413803E4B3619043B9E1B36058B
:101CFC00374B760D1E433B4B56809380FF23D77199
:101D0C00937143464A469A60012342461A439446CD
:101D1C0061462E4B019A9B689950BFF35F8FBFF3BE
:101D2C005F8F0022264B1A608AF3108803B03CBCEC
:101D3C0090469946A246AB46F0BD01F099FA5B4637
:101D4C00002018568BE70B1D9B468B8804345B05D3
:101D5C001B155B4436199E1BE0233605760D1B02C2
:101D6C001E43A6E701F084FAB9E745460B001E486E
:101D7C009B1B5B415843000D184B2B80A31C9C46AE
:101D8C00B4446546164B0434043B5B1B1B05104DD9
:101D9C005B0DAC462B43454636196B800B1F9E1BC7
:101DAC006346A87148463605760D1E43094BAE8036
:101DBC00EF71A8600B60434613439C46A8E7C046EE
:101DCC00240100D082A80020D09B002000ED00E070
:101DDC0000E0FFFF01488047CD01001000A1FFFF8C
:101DEC00009C002000BDFFFFAAAA0000F0B5DE4653
:101DFC0057464E464546E0B50C0083B0EFF3108ACB
:101E0C0072B65A4A1368002BFCD0BFF35F8F1022B6
:101E1C00914681444A46564B96009B689D59554BBA
:101E2C0098469D4205D0A54216D0534FEB1B2F2B45
:101E3C0014D94F4B9B689D51BFF35F8FBFF35F8FDE
:101E4C0000224A4B1A608AF3108803B03CBC9046BF
:101E5C009946A246AB46F0BD1D00EAE7012383403C
:101E6C009B465A46454B1B681A4000925A46444BB7
:101E7C001A60BFF35F8F06F067FF0190002803D054
:101E8C00814501D001F0F4F901232A009A439368AB
:101E9C009C4208D160E04B005B189B00FB189968D2
:101EAC00A14211D01A00062151560029F3DA009BE9
:101EBC00002B05D05A46334B1A60304B1A60B8E7EA
:101ECC005A462F4B1A60B4E706215956002922DBDB
:101EDC004A00501880003C188046A0689860E07951
:101EEC00D871062020569871A0797F2824D8A48810
:101EFC00F81A6405241544440019E0240005400D2B
:101F0C0024022043988052181F4B9200BF181A7855
:101F1C001970BA71CBE70199002910D1FF31917179
:101F2C001A49918018490A789A71194ADB1B5B414E
:101F3C005A43120D0A70BAE7BD200002E2E7154AB7
:101F4C001549D21A083A5002400D014399801349A1
:101F5C0052080A43DA80AAE70621515613000029D9
:101F6C00B6DA019A002AEAD14546DBE7240100D013
:101F7C0000ED00E0CD010010D09B002000E100E05E
:101F8C0080E100E080E200E082A8002000BDFFFFBD
:101F9C00AAAA00000A9C002000F0FFFF00F8FFFF37
:101FAC00F8B501250400054306F0CEFE0300EFF35F
:101FBC00108672B621490A68002AFCD0BFF35F8FE5
:101FCC001F4A20001F49801A40414143090D1E48F9
:101FDC009B00876849B2FF58AF421CD00623D356EA
:101FEC008B421CD01223D3568B4222D01E23D356A5
:101FFC008B4220D02A23D35603208B4210D0134B74
:10200C001A781970A271BFF35F8F00220B4B1A6004
:10201C0086F31088F8BD82680D48D050EFE7002099
:10202C0043001B189B00D218FF239371094B93801C
:10203C00E5E70120F4E70220F2E7C046240100D0D6
:10204C00D09B0020AAAA000000ED00E082A800208E
:10205C00CD01001000BDFFFF054B064A1360064A78
:10206C00136053609360D360136153619361704745
:10207C008080808000E400E004E400E0D02300B520
:10208C001B061B680100074883B0C018064B0022D2
:10209C0000930523FFF7E8FC002801DB1F23181A27
:1020AC0003B000BD7CA8002014930020024B9C467A
:1020BC0061448900016070474000003483680B481C
:1020CC0010B5844661446244090112019A185918EA
:1020DC0054684B6801209C4201D802D00020C0B249
:1020EC0010BD12680B689A42F9D8F7E7FFFFFF0F93
:1020FC000A4B1968EFF3108072B60A68002AFCD0FC
:10210C00BFF35F8F1B68BFF35F8F00221A6080F3F1
:10211C00108840BF002000217047C04610A8002046
:10212C00F8B557464E464546DE46E0B5434D81462A
:10213C008A466A68EFF3108872B61368002BFCD0DD
:10214C00BFF35F8F2E68B47B002C3ED067003368E2
:10215C003F19033FDA195378B373002B00D1F37393
:10216C000023937053701370A968354A8C46494606
:10217C00A218120162441160514651603149D3607A
:10218C0091603268D219937053701370737B9B46B5
:10219C00002B35D022001900B0687368984732685C
:1021AC00002820D05B4658465B005B44D719033BA4
:1021BC00B870D118D35C002B00D07B705B460C70D0
:1021CC0073735C451DD0002626E06B68BFF35F8FF0
:1021DC001C6088F31088012040423CBC9046994614
:1021EC00A246AB46F8BD5B465B005B44033BD31891
:1021FC009C70D119D25D002A00D05A705B460B70CE
:10220C0074734A465346287D00F060FC061EDAD0F3
:10221C002100286800F0A0FEEB686A681B19013BDE
:10222C001B78BFF35F8F0021116088F310880020AA
:10223C00002ED2D118022043CFE7C046189C0020B4
:10224C00FFFFFF0FB11E0020F8B5574645464E461E
:10225C00DE46E0B599460CAB19780DAB1B78050042
:10226C0090469A460768002912D1BE7B002E45D0B5
:10227C0074003B68A419033C1B195A783100BA73DB
:10228C00002A00D1FA7300229A705A701A7003E077
:10229C000E004C006418033C2C4B00229C46AB688F
:1022AC0061449C464346090161440B604B464B60BC
:1022BC000A9B8B600B9BCB603B681B199A705A7006
:1022CC001A707B7B9B46002B2CD032005946B86889
:1022DC007B6898473A68002817D05B4658465B00E5
:1022EC005B441419033BA070D118D35C002B00D0B5
:1022FC0063705B460E707B73B34514D030003CBCEE
:10230C0090469946A246AB46F8BD5B465B005B44E3
:10231C00033BD3189E701119125D002A00D05A701D
:10232C005B460B707E7342464B46287D00F0CEFB1D
:10233C00041E06D05346002B03D13100286800F050
:10234C000BFE0E9B002BD9D01C70D7E7FFFFFF0FA5
:10235C00F0B5DE464E46574645460023E0B58DB0F7
:10236C000A936B4B8200D3580B90994600239B46E3
:10237C004B46079300F020FB079C06000F00626899
:10238C00EFF3108572B61368002BFCD02200079473
:10239C00BFF35F8F2468637B9946002B67D09268EC
:1023AC005C4B90464B441B01984443461A685B684F
:1023BC0010001900801BB94100295FDD0B9800F05B
:1023CC0085FB00230026984600279A46079C6368E5
:1023DC00BFF35F8F5A461A6085F310885346002B63
:1023EC0008D10028C6D10DB03CBC90469946A246F7
:1023FC00AB46F0BD0A9B414618024B461843D047EA
:10240C00089009916268EFF3108572B61368002B7F
:10241C00FCD00794BFF35F8F0899099A002A48DB18
:10242C00114303D0079B1B69002B5DD1079B1B68D5
:10243C00DA7B002A07D051008A1819688C46494665
:10244C006244033A51704A46DA734B46079A013B91
:10245C00D168CA5C0132CA545B46079A136153684F
:10246C00BFF35F8F5A461A6085F3108882E700230A
:10247C000026984600279A460020A7E7002901D19C
:10248C0000289BD10021200000F0C8FC43461E68A8
:10249C005F689B68079A9A464346DB689846D36800
:1024AC004B44013B1B780A931B020343136100202E
:1024BC008CE72369002BB9D033003C005B1A9441A4
:1024CC001A002300A74219D89F421BD059460491E9
:1024DC0001210391494602914146019151460798C9
:1024EC000091FFF7B1FEB7E700F066FA089A099B76
:1024FC0006000F0092197B419942E5D90122524204
:10250C00D317E3E79642E1D901225242D317DDE714
:10251C0064A70020FFFFFF0F10B5124C6368002B5F
:10252C0004D00A211048FFF7C1FD10BD23000F4A4B
:10253C001021206800F090FB032000F031FA0320FA
:10254C0000F036FB03200A4900F07AFAFFF7F0FAA4
:10255C00084B9C46032360442375074B8000606046
:10256C00DC60DEE7189C002010A800207D1E0020F7
:10257C00112100204000003464A70020004870475F
:10258C00189C0020F0B557464546DE464E46E0B551
:10259C0085B0019310AB1B78002703930023804672
:1025AC009A46009243465A68EFF3108972B6136844
:1025BC00002BFCD0BFF35F8F43461D68AC7B002C17
:1025CC004FD066002B683619033E9B195A78AA73B4
:1025DC00002A00D1EA7342469F705F701F709268A8
:1025EC00524B94460099019AE3181B0163441960FD
:1025FC005A600E9A9A600F9ADA602B689B199F703A
:10260C005F701F706B7B9B46002B46D0220019001D
:10261C00A8686B6898472A68002831D05B465846F2
:10262C005B005B449619033BB070D118D35C002B54
:10263C0000D073705B460C706B735C452ED04346B8
:10264C00DB681B19013B187843465B68BFF35F8F4F
:10265C001F6089F310885346002B2ED100022043B3
:10266C0007E05B68BFF35F8F1C6089F31088012063
:10267C00404205B03CBC90469946A246AB46F0BDE4
:10268C005B465B005B44033BD3189C709119925DD5
:10269C00002A00D05A705B460B706C734346187D51
:1026AC00009A019B00F012FA82460028C7D04346DC
:1026BC002100186800F050FCC1E7039B002B32D0BE
:1026CC000E9B00200F999847030004000D000B434C
:1026DC0029D000290DDA0098019902000B00121B79
:1026EC00AB41994215D81AD000920193039B9A469C
:1026FC0058E700F061F902000B00A4185D412000BE
:10270C00290000900191AB4203D8EFD100998A4285
:10271C00ECD901235B42DC1700930194E6E70099A6
:10272C009142E1D9F5E70020A3E7C046FFFFFF0F78
:10273C00F0B504000D0006267642F717C64636198A
:10274C006F4100B58F4213D810D000F035F932002C
:10275C003B00121A8B41002B14DC002B37D02900C4
:10276C00200000F05DF904BC9046F0BD8642ECD927
:10277C000026002700F020F932003B00121A8B4192
:10278C00002BEADD30003900FFF7CAFC0028E6DB3D
:10279C0000239846BC460F4A0F4F7B6A9C4504D8D1
:1027AC00B96A8E42DBD99C45D9D11168EFF3108000
:1027BC0072B60B68002BFCD0BFF35F8F1368BFF3AE
:1027CC005F8F4146196080F3108820BFE5E7002A2F
:1027DC00C5D0D7E710A800200040054070B5060012
:1027EC0000F0EAF8FA2204000D000023300000216A
:1027FC00920003F0D9F9001969418D4205D802D035
:10280C00FFF796FF70BD8442FAD901204042C117F0
:10281C00F6E7C046F8B5CE46474680B506000C0034
:10282C00FFF77EFC00280CDC2D4B0020596A8C42F3
:10283C0003D89B6A0130B34245D30CBC90469946F1
:10284C00F8BD20BF274D6A68EFF3108772B6136886
:10285C00002BFCD0BFF35F8F2B68C1B29C465B7B17
:10286C008B4235D0FF2303405A00914662461268D2
:10287C00994490464A464244033A9278002A1DD025
:10288C00EA68000A90464344013B1B78C0B283427D
:10289C0021D06B68BFF35F8F00221A6087F310881A
:1028AC000F4A0020536A9C42C7D8926A0130B24248
:1028BC00C3D2E41A601E8441E0B2BEE72B69984291
:1028CC00E7D12A61E5E7641A601E8441E0B2B4E7FF
:1028DC00FF230340D4E7604600F03EFBD9E7C04637
:1028EC0000400540189C0020F0B5D6464F464646A1
:1028FC00C0B5EFF305833F22134018001038EFF3F7
:10290C00108C72B6204D2A68002AFCD0BFF35F8F62
:10291C000122110081401D4C884661631C4917003F
:10292C000E788A463100C1400F400A4215D0194931
:10293C008200646A51588C4219D3174BD2584346C3
:10294C009E4353461E70BFF35F8F00232B608CF3A6
:10295C001088002A06D0904704E0BFF35F8F2F60E9
:10296C008CF310881CBC90469946A246F0BD0B4ACD
:10297C009B00904643441A681A60BFF35F8F002394
:10298C002B608CF31088EDE7280100D00040054047
:10299C0085A800201CA800209CA10020D03F054049
:1029AC0010B50100024A0348FFF73AF810BDC046C3
:1029BC003093002081A80020034B596A0A00986AC2
:1029CC00596A8A42FAD170470040054070B504003C
:1029DC000D00124A536A1900966A536A8B42FAD157
:1029EC003000190024184D41AB4211D80ED02B00E9
:1029FC000A494A6A9A42FCD307D1084A02E0516A52
:102A0C00994202D1916AA142F9D370BDA642EED986
:102A1C00012301246442E5175B42E9E700400540CD
:102A2C00064A536A9942FCD807D1044B02E05A6A11
:102A3C00914202D19A6A8242F9D370470040054014
:102A4C0070B504000D00EFF3108672B61A4A1368C5
:102A5C00002BFCD0BFF35F8F002D1BD02000FFF7A5
:102A6C00B3F8164981420AD02000FFF7B5F80121CE
:102A7C002000FFF779F80123A340114A1360114B92
:102A8C00A400E550BFF35F8F00220B4B1A6086F356
:102A9C00108870BD0B4BA200D5500122A2400A49F0
:102AAC0020000B7893430B700449FFF79FF900212A
:102ABC002000FFF759F8E5E7280100D0A9260020EF
:102ACC00386005409CA1002085A80020F0B54F4639
:102ADC00D6464646C0B50700304C616A0D00A66A62
:102AEC00616AA942FAD18B4208D805D001201CBCDE
:102AFC0090469946A246F0BDB242F7D9EFF3108941
:102B0C0072B6274801680029FCD0BFF35F8F0125FE
:102B1C002449BD408C460978204C0E002E43884633
:102B2C00F1B28A46614650460870391D1E4889002C
:102B3C0065630A51B9000B50216A0020294219D053
:102B4C00616A0800A66A616A8142FAD18B4219D87F
:102B5C0001D1B24216D8C2451DD0104B1F201D62A8
:102B6C005D6301230740BB40104A1E381360634667
:102B7C0042461A70BFF35F8F0022094B1A6089F32B
:102B8C001088B4E70020BFF35F8F0022044B1A605B
:102B9C0089F31088ABE70120ECE7C0460040054004
:102BAC00280100D085A800201CA8002080E200E0AD
:102BBC0010B5EFF3108472B60A490B68002BFCD0E9
:102BCC00BFF35F8F01238340074A084813620278E2
:102BDC009A430270BFF35F8F00230B6084F310885D
:102BEC0010BDC046280100D00040054085A800203B
:102BFC0070B505000E001400002924D0002A24D042
:102C0C0080686B689847296800280ED063001B19F0
:102C1C007200033B9219CB18033A9E7088188A5C99
:102C2C00002A14D1047030000EE073009B1962006E
:102C3C00033B1219CB18033A9C7088188A5C002A43
:102C4C0000D05A700670200070BD0800FCE75A7066
:102C5C0004703000F8E7C04630B583600023CCB276
:102C6C0043730133047342608373C4730D000068B3
:102C7C00012C06D9421C0133DBB2137003329C4287
:102C8C00F9D1FF2129404B00591800234018033873
:102C9C00437030BDF8B5CE46474606000C0080B5F3
:102CAC00002907D04D0003686D18033D5A19577859
:102CBC00002F04D120000CBC90469946F8BD790039
:102CCC00C9190339884643445978894600215970FB
:102CDC00517073683A002100806898473368002867
:102CEC0014D042469A18947059195B5D002B00D091
:102CFC0053700F70270049463000FFF7CBFF3900A7
:102D0C0002003000FFF774FF0400D3E7424641464F
:102D1C005D19AF709A185B5C002B00D06B7014704F
:102D2C00E9E7C046F0B557464546DE464E46E0B5A7
:102D3C000D006B0001685B19DF1E0400C85D83B0D9
:102D4C000192CA1900284CD043001B18033BCB1826
:102D5C005E78B446002E16D1019E002E3ED0E67B46
:102D6C00002E04D073009B19CB18033B5D70E573E8
:102D7C0000282FD10023537003B03CBC90469946D9
:102D8C00A246AB46F0BD72006244033A89184A78F9
:102D9C00904600224A7091465A7001003200200081
:102DAC00FFF726FF43468246002B07D05B002168C5
:102DBC004344033BCB185A78002A16D1424651465D
:102DCC002000FFF715FF2168019BCA19002BC6D103
:102DDC000028CFD043001B18033BCB18002199705F
:102DEC00C8E7019B002BBAD1C4E750008018033808
:102DFC000918487883464846487058704146200068
:102E0C00FFF7F6FE594680462000FFF743FF414688
:102E1C0002002000FFF7ECFE8046CFE7F0B54E46EF
:102E2C004546DE465746E0B5467B04007500006813
:102E3C00AD19033D83B00191415D421900294ED07B
:102E4C004B005B18033BC3185F78BC46002F18D1AE
:102E5C00019D002D40D0E57B002D04D06B005B194B
:102E6C00C318033B5E70E673002931D10023300098
:102E7C005370617303B03CBC90469946A246AB4676
:102E8C00F0BD7A006244033A8018427893460022DF
:102E9C00427091465A7020003A00FFF7A9FE5B463B
:102EAC008046002B07D05B0021685B44033BCB18AA
:102EBC005A78002A17D15A4641462000FFF798FE4F
:102ECC00019B010020684219002BC4D10029CDD0F0
:102EDC004B005B18033BC31800209870C6E7019B9E
:102EEC00002BB8D1C2E75000801803380918487875
:102EFC00824648464870587059462000FFF778FEC5
:102F0C0053468346002B07D05B0021685344033B98
:102F1C00CB185A78002A06D1594652462000FFF7A2
:102F2C0067FE8346C7E750008018033809184846E7
:102F3C004F784870587051462000FFF759FE390001
:102F4C0081462000FFF7A6FE494602002000FFF74D
:102F5C004FFE8246E0E7C04670B5040000292CD035
:102F6C00437B8B422ED00568480040180338281844
:102F7C008278002A21D053009B18033BEA5CEE18A0
:102F8C008A4202D11BE0002A08D053009B18033B55
:102F9C00EB185A788A42F6D142785A7000230122F3
:102FAC00837043702000FFF7BDFE617B02002000A0
:102FBC00FFF71EFE6073012000E0002070BD437817
:102FCC003370EBE701221900FFF7ACFE60730120B0
:102FDC00F4E7C04610B50400FEF7AAFD010020007E
:102FEC00FFF764F8FF232371BFF35F8F10BDC0465A
:102FFC0010B50400FEF79CFD01002000FFF756F809
:10300C00FF23A380BFF35F8F10BDC04610B5040033
:10301C000120FEF799FD034BC3189B002360BFF3FF
:10302C005F8F10BD40000034F8B5040006200D0081
:10303C0000F00CFB002845D02B4B2C49E3185A42CE
:10304C0053418022D20394465B421340284A634486
:10305C001360284A136018008A689043FBD1224BF6
:10306C008021E3185A425341234A5B004900062051
:10307C00995200F0EBFA2900C00001F059FFC30986
:10308C0021D140270122260080256262A362002301
:10309C002C36AD0135432B60062000F0D7FA3900F1
:1030AC00800001F045FF6023E26A53406E221A4013
:1030BC0080235B0133431A60104B236310232B6076
:1030CC000D3BA364F8BD0E4A934203D900230D4F68
:1030DC000D4AD8E77F221040013040089F011A00AA
:1030EC003F180300CFE7C0460080FCBF00C0004083
:1030FC0000E0004000F0004000AE002001030000A2
:10310C00FEFF0000C0FF3F00FFFF0000394B3A4AB2
:10311C0070B51A60394A3A4B3A491A6010008B68FC
:10312C009843FBD1384C394B9C4209D2013B1D1BB7
:10313C00AD080135AD002D1908CC9847AC42FBD138
:10314C0000F026F9324A2E4B1A602E4A9368DB01A6
:10315C008033FBD140222F4B2F4C304D9A675A674E
:10316C001A67DA66AC4208D223682000002B3AD0EA
:10317C000834FFF73DFFAC42F6D3294D294CC02251
:10318C002800A16802F080FD274BA5605B68002B2E
:10319C0000D000BE254B05211F331800224A1B0608
:1031AC005160FA318843010008200143D16080212D
:1031BC005B0F490099401E4B4B401361FEF7AAFC74
:1031CC00FEF74AFFFFF7A8F91A4C1B4B9C4209D299
:1031DC00013B1D1BAD080135AD002D1908CC9847DE
:1031EC00A542FBD170BD0834FFF7F4FEAC42BBD353
:1031FC00C3E7C04600E00040BFCDFBFEFE7F3C00B5
:10320C0000F0004000C00040C49C0020D49C002072
:10321C00FFFFFF0100F00140B49C0020C49C002083
:10322C000000002000ED00E090ED00E0F0F803203D
:10323C000FFF0010D49C0020DC9C002000BEFDE79A
:10324C000FB400B5084883B002F07AFE049B002B43
:10325C0007D005A91800019101F0F4FD034802F014
:10326C006FFE00BEFDE7C046549300201C9000206A
:10327C0010B50148FFF7E4FF64930020F0B5454614
:10328C00DE4657464E46E0B583B001920C9A0500D7
:10329C0088469A4200D974E01A0E93461E023000FA
:1032AC00002359460C9A01F085FE374B6C009C4666
:1032BC006419A400644463680700834200D2606010
:1032CC002B1FDBB29946012B35D9C02380229B01E1
:1032DC00234312011A602D4BAD0059599A4600290F
:1032EC0005D0586901F024FE01300138FDD1019A56
:1032FC00236852015340E0221A4080235B01234390
:10330C001A604A46012A2FD9802380229B0123432D
:10331C0012011A60300000233A005946676001F030
:10332C0049FE53465851012003B03CBC9046994687
:10333C00A246AB46F0BD4346012BC6D1C0230322A7
:10334C009B0123431A60023AA3681A42FCD0019AEB
:10335C00236852015A40E0231A4080235B01234327
:10336C001A600A4AAD009246424621685140032237
:10337C000A401A60012243469A40A3681A42FCD0C4
:10338C00C2E70020D0E7C04600800040B8A2002071
:10339C0030B50C2083B000F0B3F9FEF7B3FB002876
:1033AC000ED0944B944A1A605A609A60DA601A6193
:1033BC005A619A61DA611A62904A5A6203B030BD5E
:1033CC008F4CA06700F0F0F901228E4B1A60636CF1
:1033DC00012BFCD103228C4B1A60894A936B012B75
:1033EC00FCD101330121894A89480093043300F050
:1033FC0033F90523874A00930121874800F02CF903
:10340C00864B5A68FF2A02D8802252005A608022CA
:10341C00784C7D4B21691201804D1A60002905D032
:10342C00606901F085FD01300138FDD1E0217B4B55
:10343C0002201A681140802252012A431160196837
:10344C00484003210140116004219A681142FCD0CC
:10345C008022802192012A430901116080225200AE
:10346C005A606F4B23616F4B5968FF2900D85A6023
:10347C0003226C48634B01211A60020093681942C5
:10348C00FCD0E02513681D4080235B0103431D60C5
:10349C0012684A400321114019600221614A936865
:1034AC001942FCD0802380219B0103430901196040
:1034BC0080215D4B4900516063615C4B5A68FF2A67
:1034CC0000D8596080225A4BE1691201574D1A609D
:1034DC00002905D0606901F02BFD01300138FDD1C8
:1034EC00E02252490B681A4080235B012B431A607F
:1034FC00802380229B012B4312011A6080223E4BB9
:10350C0052004A60E3614B4B5968FF2900D85A605E
:10351C008022494B216A1201464D1A60002905D0C0
:10352C00606901F005FD01300138FDD1E02241490F
:10353C000B681A4080235B012B431A608023802286
:10354C009B012B4312011A60802380225B004B608D
:10355C00294BD2022362394B5968914200D25A60EE
:10356C008022374B616A1201344D1A60002905D054
:10357C00606901F0DDFC01300138FDD1E0222F49FA
:10358C000B681A4080235B012B431A608023802236
:10359C009B012B4312011A608023DB024B60174BFB
:1035AC006362284B5A68FF2A02D8802252005A6064
:1035BC008022254BA1691201224D1A60002905D0E9
:1035CC00606901F0B5FC01300138FDD1E0221D49E4
:1035DC000B681A4080235B012B431A6080238022E6
:1035EC009B012B4312011A6080235B004B600E4B36
:1035FC00A361E3E6B8A20020006CDC021BB700005C
:10360C00008000403CB0004030B00040002F6859B2
:10361C0000800240008C864700C002403080004091
:10362C00001BB7003C800040405973075480004099
:10363C0054B000406080004060B000406C8000409E
:10364C006CB000404880004048B00040014B800006
:10365C00C0587047B8A20020F8B504000C20170021
:10366C001D000E0001F064FC4101091A8B01591A6E
:10367C00C90009188901380001F05AFC069A2B047C
:10368C00120313432268002A21DB194AA218514263
:10369C004A41802149018C4652420A4015496244F4
:1036AC000A6015490A60154917008D68AF43FBD1B4
:1036BC00C021221D8901114321222660A0600A60CD
:1036CC002268002AFCDAE36008230B60F8BD3F2275
:1036DC0021680A40B242D8D1A2681205120D82426A
:1036EC00D3D1EE21E268C9020A409A42CDD1EDE76E
:1036FC000040FDBF00E0004000F0004000C0004072
:10370C008023024A9B000343D3627047008005402C
:10371C0010B5140080221B4BD2051A6000281AD059
:10372C000123194A1843194BDA61194A42401A62AB
:10373C00596298628022134BD2051A601549164AB9
:10374C001160E022D2041A60002C07D18022134BA6
:10375C0012061A6010BD0D4BD861EBE78023620195
:10376C00121B9200121912015B049A4200D30C4AEC
:10377C000C4B1A60054B5A608022084BD2051A601C
:10378C00E8E7C04600B00540D3C007B00080054054
:10379C002D3FF84FFCFF01000820014000A0054020
:1037AC00FFFFFF0058A70020AA23064A1B01136045
:1037BC002F230549D360054B19605368002BFCDAA5
:1037CC007047C0460040024000B0FA000060024062
:1037DC009A4200D2885470477047C046F8B5574695
:1037EC004E46DE464546E0B51F000A9B05009B464B
:1037FC000D9B0E00914692469B0718D10B9B0C9A81
:10380C00934214D213000B9AB8469B1A4B444C4665
:10381C000F0006001D002200434601343900202011
:10382C00B047AC42F7D1AA4635003E0047460B9B49
:10383C00002B38D09A441C00D04653461A1B5B46CA
:10384C00013C185D31003B00A847002CF5D10D9BC5
:10385C009B0721D543464A469C1A0C9BA3421BD975
:10386C003A009A464F469146E2194B4631002020C9
:10387C000134A8475445F7D343460C99DB1B01335D
:10388C00B9460022994203D343464A1E4A44D21AEF
:10389C00434690460133984440463CBC904699467A
:1038AC00A246AB46F8BDD046D1E7C046F0B54F4670
:1038BC004646D646C0B584B098460EAB1B78129FD0
:1038CC00994694460D9C109B119EBA0725D4002E48
:1038DC0069D19C4200D3C2E001223A4092461F2C8F
:1038EC0000D9BBE00C9A551E302201E0202C03D0ED
:1038FC0001342A55A342F9D85246002A0DD0B442BD
:10390C000BD21F2C62D80C9A551E302201E0202CB1
:10391C005CD001342A55B442F9D1FA0635D57A0572
:10392C005DD4002C57D10F9B102B00D17CE00F9B4A
:10393C00022B00D18DE030230C9A012413704B46DE
:10394C00002B27D02D230C9A135501340C9B624667
:10395C0000930397434602960194FFF73FFF04B090
:10396C001CBC90469946A246F0BDBB0663D4202CE5
:10397C00ECD00C9B1A19013478231370202CE5D051
:10398C0030220C9B1B191A700134202CDED04B46B4
:10399C00002BD7D17B0735D43B07D7D520230C9AE6
:1039AC0013550134D2E7012215003D40AA463A4294
:1039BC0020D04A46002A2AD10C323A4227D19C42C6
:1039CC009DD21F2C00D88DE7202E19D92024FA0661
:1039DC00BCD57A0503D4A3421BD0A64219D00F9BA9
:1039EC00102BC2D0022BC9D1202CAFD00C9B1B1991
:1039FC00013440E09C4200D38FE71F2C00D871E7C4
:103A0C0020248AE72B230C9A135501349EE7013EA0
:103A1C00D5E7631E012C00D185E70F9A102A20D020
:103A2C00022A25D01C00ABE7BB060DD478230C9AD8
:103A3C0001241370A4E7202C00D187E758220C9B9B
:103A4C001B191A70013499E758230C9A012413702E
:103A5C0096E70C9A60330124137091E7202400261A
:103A6C005BE7023CBA06E9D40C9A12191C0083E7F6
:103A7C000C9A9246534462221A707FE710B50028C4
:103A8C0000D110BD02F00AFAFBE7C0460B0010B5DE
:103A9C00002802D049681B68984710BDF0B5DE4677
:103AAC00574645464E46E0B59BB09B46249B0A9034
:103ABC009846259B0B910C924046424619009A461B
:103ACC0001F007FD002800D0E8E0012240465146F5
:103ADC007F4B524201F0F8FC002800D0DEE00122BE
:103AEC00404651467B4B524201F0D8FC002800D096
:103AFC00D4E0002200234046514601F0CFFC0028C0
:103B0C0000D0CAE15346C14609938023289ADB00B2
:103B1C001A400E92289A1A4201D1062326934C463B
:103B2C00099B234300D0D9E0289B002600271B05C6
:103B3C0000D4AEE100230D93269B19000D9B9942F6
:103B4C0000DCB0E1C81A431E26938023289ADB00C0
:103B5C001A430023002528920D93279B0024AB4287
:103B6C0000D95C1B0223289A1A400E92289A134201
:103B7C0003D06B426B415B421C400D9B002B07D06A
:103B8C004846099932003B0001F027FC8146099117
:103B9C00002200234046514601F080FC002805D04D
:103BAC00802000068446099961440991289A4A4B61
:103BBC000A9E13404A460493269B0B990293099B39
:103BCC0003940092019330005B460C9A884600F0F7
:103BDC00A1F90400002D72D0289B220098061F2307
:103BEC00C017984341465B466530B0470D9B671C38
:103BFC00DA179C18DB0F98466B1E9946002554402B
:103C0C0001E0202D13D00AAA94461F232000634400
:103C1C000A2101355E1901F08BF930313170200029
:103C2C000A2101F085F926000400092EE9D80523A4
:103C3C0006934B460593002304930A3303934346A0
:103C4C003A000A9E0B9F029312AB009339005B461D
:103C5C0030000195FFF72AFE0E9B0400002B2ED09E
:103C6C000C9B279AC51AAA4229D93C008146984632
:103C7C001700434621005A1920205B460135B047F6
:103C8C00AF42F6D84C460C992798631A01330022A0
:103C9C00984200D30AE10134141910E0289B4246E3
:103CAC000493279B0B990393269B0A9802935346E4
:103CBC00009201935B460C9A00F02CF90400200052
:103CCC001BB03CBC90469946A246AB46F0BDC046E4
:103CDC00FFFFEF7FFFFFEFFFFFF7FFFF764B099D25
:103CEC009C466800400D604401F006FC734A744B1E
:103CFC0001F091FB734A744B01F066FB2B03734A82
:103D0C001B0B1A4306000F00714B11004846002292
:103D1C00099501F050FB6F4A6F4B01F07CFB0200E0
:103D2C000B003000390001F04FFB01F0FDFB0D9052
:103D3C0001F0E2FB694A6A4B04000D0001F06BFBD9
:103D4C000022684B01F040FB01F0EEFB664A0600D6
:103D5C00664B2000290001F05EFB040030000D00D2
:103D6C000F9601F0C9FB624A624B01F054FB020052
:103D7C000B002000290001F01EFB02000B000600C6
:103D8C000F0001F048FB320004000D003B00300036
:103D9C00390001F019FB002210901191564B2000B4
:103DAC00290001F01AFB0022544B01F00DFB02001C
:103DBC000B002000290001F010FB0022504B01F0F9
:103DCC0003FB02000B002000290001F006FB0D0094
:103DDC00802132003B000400C905002001F0EBFA01
:103DEC0002000B002000290001F0EEFA02000B008B
:103DFC001098119901F0F1FA0022344B01F0E4FA19
:103E0C00404A0F9B9446634400221B0501F003FBC0
:103E1C0006000F0002000B004846099901F03EFB1A
:103E2C0000280AD00D9B3000013B39000D93002275
:103E3C00324B01F0D2FA06000F00C6250D99330063
:103E4C0063318D42AD4128996D420435090500D48A
:103E5C0083E63B4300D16FE6099C484621002A4A81
:103E6C002A4B01F029FB002808D0002248462100EB
:103E7C00274B01F013FB002800D05DE6269B002B9E
:103E8C0000D16AE60E9B5A1E9341269AD31A2693AA
:103E9C0063E6002304250D935FE680231B06534441
:103EAC00C146099331E6002326934EE60A00844668
:103EBC00013A6244121BEEE601FCFFFFFB799F50B6
:103ECC001344D33FB3C8608B288AC63F0000F03F31
:103EDC000000F83F61436F63A787D23F71A3790954
:103EEC004F930A400000E03F1655B5BBB16B024042
:103EFC00EF39FAFE422EE63F00002C400000244031
:103F0C0000001840FF0300002D431CEBE2361A3F63
:103F1C0080842E41F0B54E46DE4657464546E0B508
:103F2C0097B09946209E219F229B834698460791E5
:103F3C000C923B0032003000390001F0CAFA002824
:103F4C0000D0C1E1012230003900CA4B524201F0CD
:103F5C00A5FA002800D0E0E0012230003900C64B61
:103F6C00524201F0B1FA002800D0B6E00022300035
:103F7C003900C24B01F0A8FA002800D098E00022CA
:103F8C0030003900BE4B01F089FA002800D08FE0D8
:103F9C00002200233000390001F080FA002800D004
:103FAC00B0E000230D93249B5B0501D406239846B7
:103FBC0008AB9C461722002430234146624404E09F
:103FCC00013413550139202C01D00929F8D8884621
:103FDC003000390001F0A8FA4346DA00A94B05007D
:103FEC009B181A685B680892099301F085FA020025
:103FFC000B003000390001F0DEF9089A099B01F042
:10400C000AFA0A900B9101F0B3FA824601F070FAA9
:10401C0002000B000A980B9901F0CDF900229A4B83
:10402C000A900B9101F050FA002800D1C0E0012356
:10403C009C46E244504601F05BFA02000B000898E3
:10404C00099901F031FA002802D000239A46013573
:10405C004346002B69D008AB17269C46089566444E
:10406C00554614E001235B4243440A2128009A463A
:10407C0000F05EFF013430313719397028000A2105
:10408C0000F056FF092D00D8D5E0D0460500202CB5
:10409C00E8D10323249A1340012B00D100E10EAB8D
:1040AC009846249B01940393239B029343461EE062
:1040BC00249B58460493239B0096019703934346F5
:1040CC000C9A029307994B46FFF7E8FC17B03CBCDF
:1040DC0090469946A246AB46F0BD249B5B070ED496
:1040EC0003226A4B24990192039123990291009324
:1040FC0058464B460C9A0799FFF770FBE6E70422EB
:10410C00634BEFE73B0032000020002101F053F934
:10411C00012306000F000D9345E7249B0393239B7B
:10412C000293042301935B4BE1E7280001F0E4F9CF
:10413C0002000B003000390001F03DF9524B002217
:10414C0006000F0001F0AAF90EAB984600280AD120
:10415C000022300039004C4B01F0B6F9002802D196
:10416C00EB0700D50135202C32D008AA9446172332
:10417C00280063440A2101341E1900F0B1FE3031CD
:10418C00280031700A2100F0ABFE051EEBD1032391
:10419C00249A1340012B00D191E01F2C00D980E709
:1041AC000D9B002B3BD02D2342461355013478E751
:1041BC0000220A980B99344B01F070F9002800D0BA
:1041CC0046E75346002B67D101239C46E2443FE768
:1041DC000323249A1340012B00D062E7239B002B6E
:1041EC0000D15EE70D9B002B03D1249A0C331342B4
:1041FC0002D0239B013B2393239B9C42CDD208AB43
:10420C009C461722302362441F2C06D82399013474
:10421C0013558C42C1D0202CF8D1202441E7249B8B
:10422C005B0721D4249B1B0700D43AE7202342468A
:10423C001355013435E75746089D202C37D0220002
:10424C0030214046002F08D00132B154202A43D0EF
:10425C00D3431B191B18002BF6D10EAB98462E23FB
:10426C004146541C8B547EE72B2342461355013494
:10427C0017E7C046FFFFEFFFFFFFEF7F65CDCD4196
:10428C0065CDCDC1689500200000E03F7093002003
:10429C007493002080930020DB0700D4D8E693E7CA
:1042AC00239B002B00D1FAE60EAB98469AE703232A
:1042BC00249A1340012B00D0F1E60EAB9846239BB9
:1042CC00002B00D169E78DE7249B0393239B02937A
:1042DC0003230193064B0AE70323249A202413405B
:1042EC00012B00D0DBE6239B2024002BDCD1D6E66F
:1042FC007C930020F0B5DE464E4657464546E0B569
:10430C009FB01C00289B93460993CF4ACF4B8946FC
:10431C0008901A60002900D116E2002320789A46F2
:10432C00002800D118E226001D004C460AE02A00A5
:10433C006F1C5B46089D2100A8473D000136307874
:10434C0000287AD02528F2D110239A46083B9946AA
:10435C00043B9846023B00219C46721C10781600C8
:10436C000300203BDBB2102B03D8B94F9B00FB584A
:10437C009F460300303B092B3CD900230A932A2883
:10438C0000D171E0002398462E2847D00300683BEB
:10439C00DBB2122B1FD8AF4A9B00D3589F46012388
:1043AC0001321943DAE7634601321943D6E7434633
:1043BC0001321943D2E7534601321943CEE74B463B
:1043CC0001321943CAE770786C2800D1BFE2802310
:1043DC005B00194301360300253BDBB2532BA6D8F7
:1043EC009D4A9B00D3589F4680235B0070781943ED
:1043FC000136F0E700270300B800C0190136400071
:10440C00C018337830381A00303A0700092AF3D92B
:10441C000A901800002398462E28B7D18023707874
:10442C00DB0019430300303B721C092B00D895E1CB
:10443C002A2800D1A6E11600A8E7A146AA462C001E
:10444C00D34503D801235B425B449A465B465246F4
:10445C0049460020089DA84720001FB03CBC904650
:10446C009946A246AB46F0BD099B40CB0A96002E5E
:10447C0003DB50780993561C84E7283801437042BB
:10448C000A9009935078561C7CE7782800D1D4E127
:10449C00582800D168E26F2800D152E3622800D17D
:1044AC00D8E110230A009A430B92692801D000F03E
:1044BC00A2FC0A230C934B0500D4D5E101230B9AE3
:1044CC009A430B92692800D1CEE1642800D1CBE14C
:1044DC000B9A802311009B0019408A461A4200D087
:1044EC0032E3802311005B00194089461A4201D047
:1044FC0000F002FC13005B0600D510E30B9B1B06BF
:10450C0001D400F06EFC099B04CB1204120C9246F1
:10451C0009935346002B00D064E30B9A103311001F
:10452C0099430B91520500D45CE3002399460B9BF5
:10453C0006930A9B0593434604930C9B0393002319
:10454C00DEE27078682800D107E280230136194337
:10455C0041E780239B007078194301363BE74628DE
:10456C0000D174E10722099B0491073393430A9A03
:10457C0019000392424602920CC9089800920193CA
:10458C0009912A005B462100FFF7C4FC01360500A7
:10459C00D5E6099B1A0008CA9146002B00D105E10B
:1045AC00212211438A460EA884461F216144099595
:1045BC0000220F27A4460D0002E0202A0CD00B008D
:1045CC003C001C4020003730092C00D80738013241
:1045DC00A85419090F2BF0D86446099DF0E08B07FD
:1045EC0000D4D1E1099B2A0099466B1C98464B4696
:1045FC0001CB21009946089F5B46C0B2B8470A9B85
:10460C009C466544012B00D890E2B2465E46474674
:10461C00A846089D3A003300013721002020A84706
:10462C004745F7D1B3464B4656463D0009930136F4
:10463C0085E62A006F1C5B46089D21002520A847B3
:10464C0001363D007BE6C046B540002054A7002053
:10465C0088930020CC93002018940020099B04CB55
:10466C00994643460992002B00D097E013789C465C
:10467C00002B00D1B3E302235B425A1C099B9246E8
:10468C0018000A9F0B92504402E0834200D169E16A
:10469C005A780133002AF8D1099A0A979B1A0B937E
:1046AC0080230A00DB001A400C92194204D00B9BA9
:1046BC00434501D943460B9302231A000A400D923D
:1046CC000B4200D184E16046002823D00C9B002BC8
:1046DC0000D124E1A844C246099B57465B1B98466F
:1046EC00089BB2462A0026005C469B4609E0230044
:1046FC003100551CD8474346585D002800D13FE196
:10470C002A009742F3D1A3463D00340056460D9B38
:10471C00002B69D00B9B0A99A846994264D98C4608
:10472C006544ED1A089B47469A46B04626005C46FF
:10473C003A002300013731002020D047AF42F7D197
:10474C00A346340046464FE0D24B20780893002312
:10475C009A46002800D0E6E5002471E643460600A0
:10476C000A9F9800C0180132400080191678030087
:10477C0030003038303B0928F3D930009846160009
:10478C000A9703E6099B023604CB9046D243404677
:10479C00D2171040804609933078F7E513789C4681
:1047AC00002B00D11AE34346013B66E710220800B8
:1047BC0090431132104382460022490500D4F2E6A0
:1047CC0053460693082305934346049310230393FF
:1047DC000023029316AB019200932A005B46210042
:1047EC000898FFF763F805004B4601360993A6E5D8
:1047FC00202302009A43472A04D180231B0119432A
:10480C0002239843452801D1202319430722099BF1
:10481C000491073393430A9A190003924246029279
:10482C000CC908980092019309912A005B4621005B
:10483C00FFF734F90136050081E510230C930C23A6
:10484C000A009A430B924B0500D43BE636E6202334
:10485C00194387E602230C930B910B996428EED134
:10486C000B9B5B0500D529E60B9A802311009B005E
:10487C0019408A461A4200D0CEE0802311005B001A
:10488C00194089461A4200D0DBE113005B0600D5C3
:10489C001DE10B9B09991B0600D499E208C91BB2B8
:1048AC00D8171A18424092B209919246DA0F129216
:1048BC00002B09D1802310220B99DB000B40914374
:1048CC000B91002B00D012E10B9A6123920600D5BC
:1048DC0041230EA91F228C46DBB262440A3B574689
:1048EC001395A2464D460C9CB1460D9316000AE05A
:1048FC003033DBB201357355A74200D21CE1202DB9
:10490C0000D119E107002100380000F011FBCBB2F7
:10491C000929EDD90D9A94466344DBB2EAE7099B69
:10492C005F465B1B98460A9BB3469A462600089C3A
:10493C002A003B003100A04743460135585D002852
:10494C00F6D1534634000A935E46BB46DFE6C023DD
:10495C009B00B078194302363DE5C023B07819436B
:10496C00023638E50A979BE60C230A009A43143367
:10497C001A4310230B920C934B0500D4A8E59DE52C
:10498C00A34634005646C2E60A9A012A00D82EE203
:10499C006B1E9F18089BB046994626005C462A0061
:1049AC002300013531002020C847BD42F7D1A34672
:1049BC0034004646099B3A0001CB210098467D1CE9
:1049CC005B46089FC0B2B847434601360993B6E42C
:1049DC000B9A0A98531C904200D80AE243199B1A6E
:1049EC001F00089BB24626005C469B462A0023000B
:1049FC00013531002020D847BD42F7D10A9BA34690
:104A0C0001330B93099B34001B7856469C46604639
:104A1C00002800D05AE6E7E60722099B07339343A8
:104A2C00013294469C4462465F6809921A68FB17EF
:104A3C001093119310981199030053400E930B008F
:104A4C007B400F9394460E9A0F9B121A8B410E9239
:104A5C000F93FB0F6246129300233A439A463DD0C4
:104A6C000B9A6123920600D541230022DBB20EA9DA
:104A7C000A3B8C4691460D9343461F326244139574
:104A8C0015964D460E9E0F9FA14690460C9C149376
:104A9C000FE0C046993500203032D2B24346013582
:104AAC005A55BA4500D17CE1202D00D17CE106009D
:104ABC000F00220000233000390000F07BFAD2B244
:104ACC00092AE9D90D9B9C466244D2B2E6E7FF2342
:104ADC00099904C913401A000991E6E60B9A1033A0
:104AEC00110099430B915205BAD5002399460B9BA3
:104AFC0006930A9B0593434604930C9B0393129BCA
:104B0C0002934B46019316AB2A00009321005B469F
:104B1C000898FEF7CBFE01360500FFF710FCFF22CC
:104B2C00099B02CB11408A460993F2E44B46454659
:104B3C0009930136FFF703FC4E465446A946139DD4
:104B4C00D5E708230C9387E60722099B0733934389
:104B5C00013294469C44624609921A685B681000C4
:104B6C009A4613005246134307D10B9A1033110087
:104B7C0099430B91520500D5D7E40B9A6123920609
:104B8C0000D541230022DBB20EA90A3B8C4691468C
:104B9C000D9343461F32624457461295A2464D462A
:104BAC000400B14690460C9E13930DE03032D2B205
:104BBC00434601355A550023BB4200D1FDE0202D60
:104BCC0000D1FDE004000F0032000023200039006A
:104BDC0000F0F0F9D2B2092AE8D90D9B9C46624448
:104BEC00D2B2E5E70B9A6123920600D54123DBB2E2
:104BFC000EA90A3B1F228C460D9323006244544697
:104C0C00129517004D469A46B1460C9E08E030337B
:104C1C00DBB201357B55B4420ED3202D0CD00400F1
:104C2C003100200000F084F9CBB20929EFD90D9A9C
:104C3C0094466344DBB2ECE74E465446A946129DBB
:104C4C0075E4099B1A0008CAD91713925A184A40DE
:104C5C009146DA0F1292002B08D1802310220B9967
:104C6C00DB000B4091430B91002B2BD10B9A612352
:104C7C00920600D541230EAA1F279446DBB20A3BAD
:104C8C000D95674455460993A2464C46B1460C9E79
:104C9C0008E03033DBB201357B55B4420ED3202D06
:104CAC000CD004003100200000F042F9CBB20929ED
:104CBC00EFD9099A94466344DBB2ECE74E4654466E
:104CCC00AA460D9D0B9B2A0006930A9B2100059377
:104CDC00434604930C9B08980393129B0136029352
:104CEC005346019316AB00935B46FEF7DFFD139B17
:104CFC0005000993FFF723FB099B04CB9146129304
:104D0C00002A08D1802310220B99DB000B40914321
:104D1C000B91002B2BD10B9A6123920600D54123CA
:104D2C000EAA1F279446DBB20A3B0D9567445546E5
:104D3C000993A2464C46B1460C9E08E03033DBB2D8
:104D4C0001357B55B4420ED3202D0CD0040031001C
:104D5C00200000F0EDF8CBB20929EFD9099A94465E
:104D6C006344DBB2ECE74E465446AA460D9D0B9BC2
:104D7C002A0006930A9B21000593434604930C9B3F
:104D8C0008980393002302935346019316AB0093A8
:104D9C005B46FEF78BFD129B050009930136FFF76E
:104DAC00CEFAB44200D87FE6149B4C460E960F9771
:104DBC00A9469846159E139D99E6A64200D8FEE694
:104DCC00139B4E469846A9465446129DFFF7AFFBDF
:104DDC0008C9D8171A184240099166E500230B93AD
:104DEC005EE4099B04CB92460993FFF792FB2F00DC
:104DFC00E0E50B930BE6063B0C932EE50EB401227B
:104E0C0010B585B007AC08CC0100009452420448A0
:104E1C000394FFF76FFA05B010BC08BC03B0184739
:104E2C009135002000B585B00391012102900093CB
:104E3C00034813004A4202A9FFF75CFA05B000BD13
:104E4C004D38002010B5094A0300146884B0002CBA
:104E5C0008D0012200910648524203A9A047012024
:104E6C0004B010BD01F06CF80020F9E754A7002045
:104E7C003D38002001480421014B1847409C00207C
:104E8C00654C0020142310B50100188804331B88CE
:104E9C00984710BD162310B50100188802331B88E3
:104EAC00984710BDF0B5C64600B5002916D014239E
:104EBC0004000125984618278900461843462168A6
:104ECC0018883B88984701C4431E984140420540CE
:104EDC00A642F3D1280004BC9046F0BD0125F9E7A9
:104EEC00124A936F9B0815D29066D166002905D0A3
:104EFC00FFE7FFE7FFE7516F106F704704B58021A4
:104F0C000906C2175140002800D0C84303F090FE98
:104F1C00002104BDF0B5146E556E576F166FFFF778
:104F2C00E3FF1466556657671667F0BD000000D0A6
:104F3C00114A936F9B0813D210665166002905D055
:104F4C00FFE7FFE7FFE7516F106F704704B50028CC
:104F5C0001D00020C04303F06BFE002104BDC0460D
:104F6C00F0B5146E556E576F166FFFF7E5FF1466AC
:104F7C00556657671667F0BD000000D094464E4A40
:104F8C00926F9208624601D230E0C046F0B54A4EAC
:104F9C00B56F6D08FCD3346E756E776F366F00F09D
:104FAC0025F89446444A1466556657671667624658
:104FBC00F0BDC0469446404A926F9208624601D2B8
:104FCC0058E0C046F0B53C4EB56F6D08FCD3346E5E
:104FDC00756E776F366F00F04DF89446364A14664E
:104FEC005566576716676246F0BDC046002B24DB3A
:104FFC0011D000293EDA00B5C943404200D101313D
:10500C0000F038F8C943404200D10131DB43524231
:10501C0000D1013300BD002AEBD1002801D10029B9
:10502C0005D00020C90FC90701D1C043410800B504
:10503C0003F0FEFD0022002300BD00B500290ADBB1
:10504C00DB43524200D1013300F014F8C943404213
:10505C0000D1013100BDC943404200D10131DB43D5
:10506C00524200D1013300F005F8DB43524200D12B
:10507C00013300BD002923D1002B18D1002A0CD0FC
:10508C00BC460D4F38667A6600210023FFE7FFE728
:10509C00FFE77A6F386F67467047002801D00748E2
:1050AC00010000B503F0C4FD0022002300BD020086
:1050BC000B00002000217047000000D0FFFFFFFF15
:1050CC00002B00D0BFE0130C28D1002AE7D080B40D
:1050DC00114F39667A66FFE7FFE730B4040C7B6F3B
:1050EC00396F1B0423433B667A66FFE7FFE7FFE754
:1050FC00C04684B27B6F3D6F1B0423433B667A66CC
:10510C00FFE7FFE7C04600232C042D0C7A6F386FA5
:10511C0000196941B0BC7047000000D0F0B594464E
:10512C000025140E01D112020835140F01D1120101
:10513C000435940F01D192000235D40F01D15200E5
:10514C000135D40B0134254F7C66254C3C660E0C86
:10515C0093B2FFE7FFE7FFE73C6F6643360C77033C
:10516C00BE467343DF0B5B04C01AB941130C734387
:10517C00DB18C91ACE086643360CB64493B2734397
:10518C001F0F1B01C01AB941130C73431F0B1B05D6
:10519C00C01AB941860D8F023E436643360C092D69
:1051AC0024DB520A7243801A7703460A6643360C94
:1051BC0016235B1BDE40DF40BF1964466643821B2F
:1051CC007046043506330100D940A840C01900D3FD
:1051DC000131A24206D20023F0BD0000000000D035
:1051EC00FFFFFFFF121B0130F3D3F1E709277F1BF1
:1051FC00FE406446A2B27243801A00D20139220CDE
:10520C007243130C1204821A99410B007046043538
:10521C0013370100F940A840801900D30131002B4D
:10522C0002D1A2420AD2F0BD013000D30131121BCF
:10523C00FAD2013BF8D1A24200D2F0BD013000D32A
:10524C000131121BF7E7F0B51C0C00D080E00CB458
:10525C0000251C0A04D11B02160E3343120208351A
:10526C001C0B04D11B01160F3343120104359C0B8C
:10527C0004D19B00960F334392000235DC0B02D114
:10528C0092185B4101351C00971864410134464F5C
:10529C007C66464C3C660E0CFFE7FFE7FFE7C0461A
:1052AC003C6F6643360C7703BE4697B27743C01B00
:1052BC0000D20139C01B00D201399FB27743C91B00
:1052CC00C91B170C77437E04FF0B801BB941CE081A
:1052DC006643360C0C2D33DBB644120B1F053A43D8
:1052EC001B0B97B27743C01B00D201399FB2774397
:1052FC00C91B170C77433E043F0C801BB941860D2C
:10530C008F023E43664329277F1BFE400C3D7746A8
:10531C00AF40BF1930BCA2B2ABB272437343801A18
:10532C009941220C7243130C1204801A9941020009
:10533C000B000137001BA941F9D2781E0021F0BDEA
:10534C000C277F1BFE4077467F0BAF40FF19E0E731
:10535C0000245D1C07D0144F7D663966FFE7FFE71C
:10536C00FFE7FFE73C6F95B29EB265436643401B77
:10537C00B141150C1E0C6543664336042F0C3E439D
:10538C002D04401BB141994204D202000B002000B5
:10539C000021F0BD01D19042F7D3801A994101341C
:1053AC009942F2D3F6E70000000000D0FFFFFFFFA8
:1053BC0048404140484018B41B4B5B68FC46019385
:1053CC0008BD04DF3B54002018B4174B1B68FC4687
:1053DC00019308BD00DF455400209446134A926F98
:1053EC00920809D2624618B40F4BDB68FC46019355
:1053FC0008BD0CDFFD5600200C4AF0B5146E556E3E
:10540C00576F166F6246FFF7EEFF084A1466556633
:10541C0057671667F0BD18B4034B9B68FC460193A5
:10542C0008BD08DFA155002004AE0020000000D00C
:10543C00FFB550404240504059404B40594000E06D
:10544C00FFB5154F4C00640D03D0BC4204D10C03C6
:10545C0014D80020090D09055C00640D03D0BC4272
:10546C0004D11C030AD800221B0D1B0501264B403E
:10547C0009D44B4003D58B4200D18242FFBD9942E7
:10548C00FCD19042FFBD0B43DB1803431343F5D013
:10549C00C9434918FFBD0000FF07000000B5FFF726
:1054AC00CFFF804100BDC04600B5FFF7C9FF01D951
:1054BC00002000BD012000BD00B5FFF7B9FF01D9E8
:1054CC00002000BD012000BD00B5FFF7B1FF8041F9
:1054DC0000BD012040054A00121804D85A001218C9
:1054EC0001D8002070470120704700207047000051
:1054FC000021002805D17047C1174840401AFAD046
:10550C00C90713B5064B1B6898470CBC441CA2403A
:10551C001005120B0349091B09051943114310BD52
:10552C000CA800201F04000010B54C00620D802355
:10553C00D218DB00D21A5B057E2A10DD9E3A13DAF4
:10554C00CC170903490819435242D1406400013475
:10555C001532202A05DAD0400843604310BD0020E4
:10556C0010BD0846604310BDC80FC018013810BDEF
:10557C0018B4044B5B6AFC46019308BD24DFAD589C
:10558C000020000004AE0020132370B51D78012DFF
:10559C0015D010DD2748FFF77DFC274C0100802239
:1055AC00200000F071FB022D06D02448FFF76AFCA6
:1055BC00234B186070BD204C224AA264F5E72E00E4
:1055CC001D4C204AA3085B421E401D422FD03300C5
:1055DC0022602020B1006118801B0A604A608A603A
:1055EC00CA600A614A618A61CA610A624A628A6255
:1055FC00CA620A634A638A63CA630A644A648A6435
:10560C00CA640A654A658A65CA650A664A668A6614
:10561C00CA660A674A674008102803D18A67CA67B6
:10562C00A264C2E71E339B00E250A264BDE70023D4
:10563C00CFE7C0465344000004AE00204C330000BA
:10564C000CA800200954002007B5604601880A0AFE
:10565C000230DF2AFAD1C9B2820804D3028840880A
:10566C000004104300E00068014A5050039007BD4D
:10567C0004AE00200FB403BC0CBCF0B50124E4074D
:10568C00634000E0F0B50C0DCF0F661E3605891B8C
:10569C00640503D3C943404200D30131640D03D0E8
:1056AC00661CF60A07D0E41B00207F00791C8907D2
:1056BC008912803C24031D0DDF0F6E1E36059B1BCB
:1056CC006D0503D3DB43524200D301336D0D03D080
:1056DC006E1CF60A07D0ED1B00227F007B1C9B077B
:1056EC009B12803D2D032F1B661B58D4A446202EE5
:1056FC0046DA20371400BC401D00BD40F240334157
:10570C002A4380185941CB0F05D0C943C04300220E
:10571C0064425041514162464D0D28D10D0D07D1C7
:10572C0000281FD0241940414941013A0D0DF9D0F0
:10573C00640006D3013000D30131002C01D14008A4
:10574C004000013A0BD4941CE40A04D11205114414
:10575C00DB071944F0BDD907204B194300E0D907EA
:10576C000020F0BD0029DDD1002CDBD1F0BD0132D1
:10577C00C6074008CD0728434908002EE1D0D9E7D9
:10578C003C2E29DA203E40371400BC4000D00124C6
:10579C00F24014431A00BB401C43D317ACE7AC4691
:1057AC00202F08DA20360400B4400D00B540F84034
:1057BC0039412843A5E73C2F0CDA203F4036040042
:1057CC00B44000D00124F84004430800B1400C431D
:1057DC00C117EAE710001900002494E70000F07FDD
:1057EC00F0B50C0D661E3605891BE60A6405640DC2
:1057FC0002D0651CED0A04D0002001210905803C73
:10580C002403A4461C0D671E3F05DB1BE70A640539
:10581C00640D02D0651CED0A04D0002201231B0587
:10582C00803C24037740644497B484B296B27443AA
:10583C00070C7E43150C6F4380B26843361802D3B5
:10584C00012000043F183004350C00197D418446BA
:10585C0088B29AB250430C0C62431F0C7C438EB23C
:10586C007E43921902D301263604A4191604170C90
:10587C003618674101BC81B29AB25143040C6243A1
:10588C001B0C5C4380B25843121802D30120000455
:10589C0024181004130C401863412D185E4100208D
:1058AC00474106BC88B293B258430C0C6343120CAC
:1058BC00544389B251435B1802D301210904641883
:1058CC0019041A0C091862416D1856410020474101
:1058DC0018BCF902720D1143F0026A0D1043ED026F
:1058EC000A0D03D16D1940414941013B124E9B1BDE
:1058FC007600B3420ED26D0007D301300026714101
:10590C006646354301D1400840001B05C918E40721
:10591C002144F0BD0BDA013306D1013004D1013141
:10592C004F0D01D04908F2E7E1070020F0BD013628
:10593C0031050020EBE70000FF030000F0B51C0D63
:10594C00671E3F05DB1BE70A6405640D02D0661C6D
:10595C00F60A04D0002201231B05803C2403D02529
:10596C002D060026F6432E661E096E66CE0FF6191E
:10597C00B44649004F0D02D07E1CF60A03D000201D
:10598C000021403F3F033E1BB600B444013F7F055E
:10599C00C91B49082E6F013676089C02950D2543CC
:1059AC007543ED137543AD1301356D10F603761B7E
:1059BC000CB4CC02450D2C43A2B2B3B25A43270C03
:1059CC007B43350C6F43A4B26C431B1902D30124E7
:1059DC0024043F191C041D0CA4187D4124196D418D
:1059EC00009A91B2ACB26143170C7C432B0C5F4311
:1059FC0092B25A43A41802D301221204BF182204F3
:105A0C00230C52187B41019C6C431B19520ED9017B
:105A1C000A434401A01A81B2B2B2514303145A434F
:105A2C00360C734387B27743D617D21900277E41C1
:105A3C0036049B191704160C7F185E417316ED186B
:105A4C00F301002680337541A90F06D16400690A61
:105A5C00E8055B0A184309D22FE0042294448033F2
:105A6C007541A90AA8059B0A184326D34041494110
:105A7C002404009A019B0D005543641B4343E41A14
:105A8C0095B286B27543170C7E43030C5F4392B2FA
:105A9C005A43B61802D301221204BF183204330C35
:105AAC0052197B4152429C41002C02D400220130FD
:105ABC0051414008CA071043490802B06246D70753
:105ACC009210084BD218084B9A4203D2120589182F
