:020000041000EA
:1000000000B5324B212058609868022188439860DF
:10001000D860186158612E4B002199600221596106
:100020000121F02299502B49196001219960352056
:1000300000F044F80222904214D00621196600F024
:1000400034F8196E01211966002018661A6600F04E
:100050002CF8196E196E196E052000F02FF8012189
:100060000842F9D1002199601B49196000215960AB
:100070001A491B48016001219960EB211966A021F2
:10008000196600F012F800219960164914480160C1
:100090000121996001BC002800D000471248134993
:1000A000086003C880F30888084703B5996A0420EC
:1000B0000142FBD001200142F8D103BD02B5186610
:1000C0001866FFF7F2FF186E186E02BD00000240BE
:1000D000000000180000070000035F00212200005C
:1000E000F4000018222000A00001001008ED00E03C
:1000F00000000000000000000000000074B24E7A12
:1001000000200420F7010010C3010010C5010010F9
:10011000C1010010C1010010C1010010C101001097
:10012000C1010010C1010010C1010010C701001081
:10013000C1010010C1010010C9010010CB01001065
:10014000CD010010CD010010CD010010CD01001037
:10015000CD010010CD010010CD010010CD01001027
:10016000CD010010CD010010CD010010CD01001017
:10017000CD010010CD010010CD010010CD01001007
:10018000CD010010CD010010CD010010CD010010F7
:10019000CD010010CD010010CD010010CD010010E7
:1001A000CD010010CD010010CD010010CD010010D7
:1001B000CD010010CD010010CD010010CD010010C7
:1001C00000BE00BE00BE00BE00BE00BEEFF3058054
:1001D000103800BEF2EB887190020010B4020010DB
:1001E0003802001090A31AE721482249086006C887
:1001F00081F30888104720480068002801D01C4877
:10020000F3E70DA40ECC002902D000F012F8F9E7B4
:100210001A491B4A002000E001C19142FCD1194952
:100220008847194988471949884700BEFDE701C931
:1002300001C29A42FBD37047B4020010C0000020F4
:1002400070DE012064E0011070DE012028BA022077
:100250001CBC021000000420000004201CBC021082
:10026000001004200010042000000000704700006F
:100270000000000008ED00E0000000D028BA0220D5
:10028000B4DD02206DCD0020317700202DCD00207F
:10029000402102204C21022058210220642102200A
:1002A000702102207C21022088210220942102203A
:0402B0008024022084
:1002B400F8B5C0460448054B10B5834203D0044B3F
:1002C400002B00D0984710BD28BA022028BA02207B
:1002D4000000000006480749091A8B10C90FC91805
:1002E40010B5491003D0044B002B00D0984710BD23
:1002F40028BA022028BA02200000000010B5074CDA
:100304002378002B09D1FFF7D5FF054B002B02D032
:10031400044800E000BF0123237010BD18C602206A
:100324000000000070DE0120054B10B5002B03D047
:100334000449054800E000BFFFF7CCFF10BDC046EC
:10034400000000001CC6022070DE01207047C04679
:100354000023054A0549835001224250083942507E
:10036400034A83507047C04614040000040400008C
:100374000C040000044A835801338350FF230122F4
:100384009B00C2507047C04614040000054A8358BD
:10039400002B01DD013B8350FF2301229B00C2504F
:1003A4007047C0461404000000230121034A83500F
:1003B400083A8150024A83507047C0460404000042
:1003C4000C04000081230122DB00C25000230349F6
:1003D400435008394250024A8350704704040000D5
:1003E4000C0400000023054A8350054A835001335E
:1003F400083A8350034A83507047C04614040000EF
:10040400040400000C040000064A074B8258120141
:100414009B1800225B681A60FF2301329B00C250C4
:100424007047C04614040000F4960220054A064BA7
:10043400825812019B185A6801231360FF2292000C
:100444008350704714040000F4960220054BC258F0
:10045400002A01D10132C250FF2301229B00C25065
:100464007047C04614040000FF220121014B920092
:1004740099507047F0BC0220084B0948094918609C
:100484005960094809499860D960094809491861BF
:100494005961094807499861D9617047F0BC022045
:1004A4006303520356005610500553055205510577
:1004B4005405530551075106002400240A4AC82054
:1004C4001168B8224A43094B30B59B185969084C46
:1004D4000023400003E0E2500433834202D0CA58B0
:1004E400551CF8D130BDC046A8D80220F49702208C
:1004F400F0BC0220B8220A4B19680A4B4A4319601F
:10050400094B01219B18002219611A76074B1960C7
:10051400074B1960074B1A60074B1A707047C046A7
:10052400A8D8022014DD0220F49702201CDD02204A
:1005340020DD02206CDC022070DC0220FEE7C046D5
:1005440070B5094C0500210008480CF0A1FFF52303
:1005540001229B00EA5000220833EA50210004489B
:100564000CF096FF70BDC046241D0220C0EE012091
:1005740018EF012070B5074C0500210006480CF067
:1005840087FFF72301229B00EA50210003480CF067
:100594007FFF70BD141D0220C0EE012018EF012062
:1005A400D0220B4B0B480C49920010B59C182060CC
:1005B400616000210948203A9A1803C2084A094890
:1005C4001A600CF065FF0CCC07480CF061FF10BDFD
:1005D400F0BC0220325476083054760856341200A7
:1005E4001814101470EF012080EF012010B50E488C
:1005F4000CF0CCFE0D4B0E481A680E4B19680CF02B
:1006040047FF0D4B0D4819680CF042FF0C4B0D4889
:100614001A680D4B19680CF03BFF0C4B0C48196819
:100624000CF036FF10BDC04698EF012078D80220A8
:10063400A8EF012080D802207CD80220CCEF012032
:1006440088D80220E4EF012070D8022084D8022048
:10065400F8EF012010B5054C054821680CF018FF8F
:100664002068253807F0E6FB10BDC0468CD8022070
:1006740004F0012010B50A2007F0DCFB10BDC046D1
:1006840010B5092007F0D6FB10BDC04610B51520E3
:1006940007F0D0FB10BDC04610B5162007F0CAFB0A
:1006A40010BDC04610B5172007F0C4FB10BDC046EE
:1006B40010B5072007F0BEFB10BDC04610B51A20C8
:1006C40007F0B8FB10BDC04610B5022007F0B2FB1E
:1006D40010BDC04610B5062007F0ACFB10BDC046E7
:1006E40010B5052007F0A6FB10BDC04610B50320C9
:1006F40007F0A0FB10BDC04610B5042007F09AFB1C
:1007040010BDC046FF22002110B5034B92001820F3
:10071400995007F08FFB10BDF0BC0220FF2200218E
:1007240010B5034B92001920995007F083FB10BDBC
:10073400F0BC0220F0B50022C646114B114C00B5A6
:1007440025001A600023012798460F4E183504E04F
:1007540043462B7027610135B8343100206819F005
:100764007BFA0028F4D10122084B1860084B1A6068
:10077400084B1860084B187080BCB846F0BDC046E2
:1007840014DD0220F497022008F001201CDD022071
:1007940020DD02206CDC022070DC022030B583B046
:1007A40005000A49100001AA19F05AF804000128AA
:1007B40003D00024200003B030BDDB2301999B004B
:1007C400E95003480CF064FEF4E7C04610F0012041
:1007D40020F0012030B583B005000A49100001AAB9
:1007E40019F03EF80400012803D00024200003B0CF
:1007F40030BDDC2301999B00E95003480CF048FE0E
:10080400F4E7C04638F0012048F00120002330B559
:1008140083B005000A49100001AA019319F020F8D9
:100824000400012803D00024200003B030BDD423E9
:1008340001999B00E95003480CF02AFEF4E7C046F6
:1008440060F0012070F0012010B582B001AB04000B
:10085400114910006A4619F003F80023022802D057
:10086400180002B010BD0099019A01290BD0022989
:100874000DD0002902D1D7239B00E25007480CF089
:1008840007FE0123ECE7D8239B00E250F6E7D923C7
:100894009B00E250F2E7C0468CF00120A4F0012056
:1008A40030B583B005000A49100001AA18F0D8FF3A
:1008B4000400012803D00024200003B030BDDA2353
:1008C40001999B00E95003480CF0E2FDF4E7C046AF
:1008D400C4F00120E0F0012030B583B005000A49DE
:1008E400100001AA18F0BCFF0400012803D0002462
:1008F400200003B030BDDF2301999B00E950034879
:100904000CF0C6FDF4E7C04600F1012014F101200B
:1009140030B5284C0500236810008FB0002B02D19D
:1009240000200FB030BD0DAB05930CAB04930BABA3
:1009340003930AAB029309AB019308AB00931E49DE
:1009440007AB06AA18F08CFF082804D000231B4A22
:1009540023601360E4E7194C22689300EB185907ED
:1009640017D10698079918605960089809999860F2
:10097400D9600A980B99186159610C980D9998617E
:10098400D961130007320833920023600120A95073
:10099400C7E70699196007995960089999600999F8
:1009A400D9600A9919610B9959610C9999610D994A
:1009B400D961E6E7BCD802202CF10120C0D802207E
:1009C40010B582B01000094901AA18F049FF0400CB
:1009D400012803D00024200002B010BD0199044B6B
:1009E400044819600CF054FDF5E7C04648F10120B5
:1009F40050DC022060F1012010B582B010000A49D9
:100A040001AA18F02DFF0400012803D000242000BF
:100A140002B010BD054B019A05481A60054B1968D0
:100A24000CF036FDF3E7C04680F1012050DC0220D3
:100A340094F1012038DA022081220023D20010B57B
:100A44008350064A8350064A8350FF2301229B00A9
:100A5400C250044807F0ACFB10BDC04604040000BB
:100A64000C04000090AE022010B5084904000848A8
:100A740007F0D4FE81220023D200A35001220549AD
:100A8400625008396250044AA35010BD08C10220C4
:100A9400B0F10120040400000C040000F0B5D646B7
:100AA4004F464646C0B5174882B00CF06FFC164B53
:100AB40000259946154B164C9846164B164F9A46E8
:100AC40026683900300019F0C7F800280CD02269D4
:100AD4004346002A00D053462200183200922900CF
:100AE400320048460CF0D4FC0135B8341E2DE7D151
:100AF4000A200CF001FC02B0E0BCBA46B146A8469C
:100B0400F0BDC046C8F10120D8F10120C0F1012098
:100B1400F4970220B8F1012008F0012070B50A20F2
:100B24000CF0EAFB8123094C9B00094EE51862682E
:100B340013782A2B03D0300021780CF0A9FC0C3454
:100B4400AC42F4D103480CF0A3FC70BDC0360220C3
:100B5400F0F10120FCF10120F0B5DE4657464E4687
:100B64004546E0B5DDB0802200211CA80AF06CFDEA
:100B7400802200213CA80AF067FD2D480CF006FCF9
:100B84002C4B01932C4B9A462C4B9B46FA2080000D
:100B94000CF066FB023044D1019B03AF1B680026B6
:100BA4001B011B09984600233B70013399463CAD59
:100BB4001CAC18E02368002B07DD013B2360002BED
:100BC40003D12A68002A00D02B60380019F090F86D
:100BD4000222514638180AF03DFD04355CAB01365B
:100BE4000434AB42D2D04B464246B3401A42E1D021
:100BF400380019F07DF80222594638180AF02AFD07
:100C04002368132BE9DC05332360072BE5DD2B6810
:100C1400002BE2D14B4631002B6009480CF038FC24
:100C2400DBE75DB0F0BCBB46B246A946A046F0BDCA
:100C340018F201208CDD0220ACF30120BC14022048
:100C440028F2012070B527480CF022FC264D274CD1
:100C54003DE0D023012202211B069A6199610231F1
:100C6400996180000431996141598A405A61D023C5
:100C74001B0659685B68C906C90F9B0601D5022388
:100C84001943D0231B065B685B0601D50423194373
:100C9400D0231B065B681B0601D508231943D02308
:100CA4001B065B68DB0501D510231943D0231B0603
:100CB4005B689B0501D520231943D0231B065B6881
:100CC4005B0501D54023194320000CF0E1FBFA2019
:100CD40080000CF0C5FA831CC9D030380328B8D979
:100CE40070BDC04630F20120181F022004F001201C
:100CF4000021002010B509F0AFFBC046100010B56C
:100D04000722084918F0E4FE0023002801D0180047
:100D140010BD0122044B05481A600CF0B9FB0123F5
:100D2400F5E7C0463CF20120BCD8022044F2012081
:100D34007047C04608B4F0B5C64600B5E7B06DAB21
:100D440020CB804614000193062A07DD11002848B1
:100D54000CF09EFB27480CF019FBFEE7C8212A0083
:100D6400490002A80CF040F802A818F0C1FF1028AE
:100D740032D8013C0122204920480CF089FBE300D1
:100D84001B195B001C191E4B2A00E4181021019B3F
:100D940020000CF029F8200018F0AAFF0F26361ABC
:100DA400002E0DDD0025174F02E0200018F0A0FFF3
:100DB40002223900201801350AF04CFCAE42F4D16D
:100DC400FF23012241469B00CA5067B080BCB8464D
:100DD400F0BC08BC01B0184729000B480CF058FBC4
:100DE40002A90A480CF054FB02480CF0CFFAC0E701
:100DF40058F2012070F20120F01C02209CF2012024
:100E040000D00220ACF301207CF2012088F2012002
:100E1400054A8358002B01DD013B8350FF23012247
:100E24009B00C2507047C04614040000F0B5C6468B
:100E340000B5254886B00CF02BFB0023234C244F2F
:100E44002360244B9846FA2080000CF009FA831C96
:100E540037D03928F7DC2F2809DC1B28F3D81E4BA0
:100E64000341DB07EFD406B080BCB846F0BD22686E
:100E7400303893009B185B001B18390040462360F0
:100E84000CF006FB1548164B06681B68704270414F
:100E94005A4253412025134A4042216812685B425A
:100EA400A8434130AB4341330290019200920E4873
:100EB4000A000CF0EDFAFA2080000CF0D1F9831C42
:100EC400C7D10CF0B9F9BEE7B4F20120A8D80220CA
:100ED4002CDD0220E0F20120FFDBFFF798CE022098
:100EE4009CCE022094CE0220F8F20120F0B5C64632
:100EF400D422002300B5920082B083500432835080
:100F0400DB23FB2604009B00C5580433C2581C4F46
:100F1400B6009046EA053B688159D20F19480CF097
:100F2400B7FAA359002B20D1DB239B00E358DB0540
:100F34001BD443465A4253412022134E5B429343EF
:100F440030002A00114941330BF026FF0122012110
:100F540020000F4B0096FFF7EDFEFF2301229B00BC
:100F6400E25002B080BCB846F0BD3B68002BE0D133
:100F7400084B054E1A6832601B793371E6E7C046A8
:100F840038DA022044F3012044D9022084F30120FA
:100F94008CF30120F4FA012082232022F0B5DB0037
:100FA40083B0C254D422002301219200835004321E
:100FB400835030328150A022D7211206890042503A
:100FC4000431425004314250EA2292000400821853
:100FD40001204042C11703C2EC2201219200494280
:100FE400A150383AA350083AA350DB23FB279B00B7
:100FF400E658274DBF00F2052B68E1592548D20F6A
:101004000CF046FAE359002B37D1DB239B00E3585D
:10101400DB0532D4204D2023320028001F490BF079
:10102400BBFE20000095012201211D4BFFF782FE2B
:101034002000022201211B4BFFF77CFE1A4D2000E9
:101044002B0003220121FFF775FE2B002000042250
:101054000121FFF76FFE2B00200005220121FFF77D
:1010640069FE2B00062201212000FFF763FEFF2307
:1010740001229B00E25003B0F0BD2B68002BC9D1C4
:101084000A4B054D1A682A601B792B71C9E7C046C3
:1010940038DA022044F3012044D9022084F30120E9
:1010A4009CF30120B0F30120C0F30120F4FA0120E5
:1010B400F0B54F464646D646D422C0B5DC21DB26E1
:1010C4000023FB270400920085588900B60084B0F1
:1010D40085514350835004328350BF002C4BC15977
:1010E400EA052C489846D20F1B6881460CF0D0F9CB
:1010F400E359002B3ED1A359DB053BD4264E2749A7
:1011040020232A0030008A460BF046FE244F20009C
:101114003B00012201210096FFF70CFEDB239B001C
:10112400E258FB210433E558434603928900D20573
:101134001B6861584846D20F0CF0AAF96B425D4116
:1011440020226B4293435146039A300041330BF003
:1011540023FE3B000122012120000096FFF7EAFD57
:10116400FF2301229B00E25004B0E0BCBA46B14622
:10117400A846F0BD43461B68002BBFD1094B064E61
:101184001A6832601B793371044B9A46BEE7C04635
:1011940038DA022044F3012044D9022084F30120E8
:1011A4008CF30120F4FA0120F0B5DE464E464546A4
:1011B400574682232022E0B5DB0083B0C254D422F8
:1011C400002392008350DB2604328350DC23FB2768
:1011D4000400B60082599B00C558BF00504BC1594A
:1011E40093465048D2059846D20F1B6881460CF0AE
:1011F4004FF9E359002B00D084E0A359DB0500D557
:1012040080E06B425D412022474E6B429343474945
:101214005A46300041338A460BF0BEFD20000122BD
:101224000121434B0096FFF785FDFA23002100209E
:101234009B00E318E12203C300239200A3505C3215
:10124400A350A023843A1B06A3500432A3500432B3
:10125400A350384806F0ACFFDB239B00E758FB2182
:101264000433E5584346FA0589001B68615848462B
:10127400D20F0CF00DF96B425D4120226B42934377
:1012840051463A00300041330BF086FD2000012224
:101294000121294B0096FFF74DFD284D20002B001E
:1012A40002220121FFF746FD2B0020000322012129
:1012B400FFF740FD2B00200004220121FFF73AFD37
:1012C4002B00200005220121FFF734FD2B00200014
:1012D40006220121FFF72EFDEA2301204042C11717
:1012E4009B00E31803C30122EC2352429B00E2500B
:1012F4004C330232E25003B0F0BCBB46B246A946BE
:10130400A046F0BD43461B68002B00D079E70C4B88
:10131400054E1A6832601B793371044B9A467DE797
:1013240038DA022044F3012044D9022084F3012056
:101334008CF3012090AE02209CF30120C0F3012025
:10134400F4FA01200FB400B5B5B036AB04CBC82114
:1013540001A800930BF048FD35B008BC04B0184751
:101364000FB400B5B5B036AB04CBC82101A80093C7
:101374000BF03AFD01A903480CF08AF835B008BC1B
:1013840004B01847D8F301200FB470B5AAB02EAB3F
:1013940004CBA02101A800930BF026FD01A9194854
:1013A4000CF076F8184D9E24280018F0A1FC241A9D
:1013B400060001A818F09CFC320003002100134829
:1013C4000CF066F8631C15D0280018F091FC02227A
:1013D4000F4928180AF03EF901A92200280018F044
:1013E40043FB29000B480CF053F82AB070BC08BC2E
:1013F40004B0184721232200290007482B700CF061
:1014040047F8F2E7F0F3012070DC022004F4012035
:10141400ACF301203CF401202CF4012010B5002091
:10142400D02407F047FC012324066362012007F05F
:1014340041FC02230220636207F03CFC04230320E6
:10144400636207F037FC08230420636207F032FC70
:1014540010230122A3620021042007F019FC0520B7
:1014640007F028FC20230122A3620021052007F0B5
:101474000FFC062007F01EFC40230122A36200217A
:10148400062007F005FC072007F014FC8023012246
:10149400A3620021072007F0FBFB082007F00AFCE9
:1014A40080235B00A36201220021082007F0F0FBE7
:1014B400092007F0FFFB80239B00A3620122002187
:1014C400092007F0E5FB0A2007F0F4FB8023DB008A
:1014D400012200210A20A36207F0DAFB10BDC046F6
:1014E40010B515290FD018291CD0162910D017298A
:1014F40022D007291BD90B00083B012B0DD9114819
:10150400FFF720FF03E0DB2300219B00C05810BD40
:10151400D6239B000021C058F9E76031C900411867
:1015240003C9F4E7D4239B000021C058EFE7C83176
:10153400890040580021EAE7E0239B00C058C11706
:10154400E5E7C0465CF40120F0B5DE4657464E465A
:101554004546E0B599B01693704B8B460B93704B90
:10156400002113936F4B129014936F4B0020179329
:101574000F231592002400229A460C900D91250009
:10158400203D74D45346AB4099465346A340129829
:101594009846494618405B460B40002D00DA8FE020
:1015A4001900E9400491E3400593434649461598E0
:1015B4001840169B0B40002D00DA77E01900E94033
:1015C4000691E340049E059F07930023069807991C
:1015D40036184F41099308920899099A7618574189
:1015E40006980799049A059B009001910296039727
:1015F4000B9913980BF04CFF434602934B4603930D
:101604005346A34058461299DA1702400B40009300
:1016140001925B460A0014980BF03AFF0A225242E8
:10162400D31792197B41002B27D1092A25D80023EF
:101634000622B6185F4153461E40002D56DB330088
:10164400AB401193A6400C9A0D9B109610981199DB
:1016540012184B4104340B9917980C920D930BF00C
:1016640017FF402C48D025000122203D8AD5202395
:1016740051461B1BD940894687E7002D2ADB3300DE
:10168400AB400F933300A3400E930E980F990C9A1E
:101694000D9B12184B4104340B9917980C920D931F
:1016A4000BF0F6FE402C27D0002268E720211E0014
:1016B400E040091B8E408446B4446146069180E7AD
:1016C40020211E00E040091B8E408446B44461463C
:1016D400049168E7202332001B1BDA4013003A0010
:1016E400A24094469C4463460F93CBE720233200E8
:1016F4001B1BDA401192A5E70C9D0D9E34040B9937
:101704002A00230C09480BF0C3FE2800210C19B051
:10171400F0BCBB46B246A946A046F0BDD81E022086
:101724003CF5012064F501200CF501208CF5012025
:10173400F0B5DE4657464E464546E0B589B00790BB
:10174400CC480C0016000BF0A3FECB4B22009946AC
:10175400CA4B49469A46270F330050460BF098FE71
:101764003B000A3B350F012B00D90A272B000A3B0B
:10177400012B00D90A252A003900C14824010BF0A5
:1017840087FE36012309984636090595B34200D9E8
:10179400059732004146BB48059B0BF079FE0B2FA1
:1017A40000D10FE10A2D00D11FE1B74D28000BF045
:1017B4006FFEB64B9E1B33004946424650460BF023
:1017C40067FE28000BF064FE00239946B04B00210D
:1017D4000393B04B00249A460F239B464B46B146D5
:1017E4001E00AD4D5B464846A34042461A400340A6
:1017F400E340E240D7187F180398290000970BF0C4
:1018040047FE3B000A3B092B0ED85B4606371F40B8
:10181400A740F61932002900504604340BF038FE74
:10182400202C0DD00121DDE7A740F6193200290054
:10183400504604340BF02CFE202C01D00021D1E7BB
:10184400964B3602360A29003200180007930BF033
:101854001FFE934B3100180006930BF019FE914BB9
:10186400002798460F2399468F4B9B462B004546ED
:10187400984602E00437202F14D04C46BC40344034
:10188400FC40280021000A3C0BF002FE052CF1D894
:101894000623BB40F6183100584604370BF0F8FD18
:1018A400202FEAD1434631000698A8461D000BF0CC
:1018B400EFFD31007D480BF0EBFDF0231B051E42CC
:1018C40000D18AE07A4B00211E400F23B346002743
:1018D400002699464A465B46BA401A407B427B4101
:1018E400FA40FB40D41864180398290000940BF0C4
:1018F400CFFD23000A3B092B0ED84B4606341C406F
:10190400BC40361932002900504604370BF0C0FDA4
:10191400202F0DD00121DDE7BC403619320029000B
:10192400504604370BF0B4FD202F01D00021D1E73D
:101934003602360A2900320007980BF0A9FD31005F
:1019440006980BF0A5FD0F239946574B00279B469D
:101954002B004546984602E00437202F14D04C460D
:10196400BC403440FC40280021000A3C0BF090FDB0
:10197400052CF1D80623BB40F6183100584604372D
:101984000BF086FD202FEAD1434631000698A84685
:101994001D000BF07DFD059B0B2B00D1DDE0059BAD
:1019A40036013A4A36091C07344321004148121BC8
:1019B4000BF06EFD200009B0F0BCBB46B246A94650
:1019C400A046F0BD0B2D10D02F4D28000BF060FD6C
:1019D40042462E4B9B1A9846EDE637480BF058FDCD
:1019E40031003648FFF7AEFC6CE735480BF050FD8C
:1019F40000230493264BB1460393264B00219A46B9
:101A04000F2300269B46244D5B464846B34042467E
:101A14001A400340F340F240D41864180398290094
:101A240000940BF035FD23000A3B092B12D85B46CA
:101A340006341C40049BB4409C46A44463462900DD
:101A44001A005046043604930BF022FD202E39D0A0
:101A54000121D9E7049BB4409C46A4446346290071
:101A64001A005046043604930BF012FD202E29D0A0
:101A74000021C9E7A4F50120C81E0220C8F50120F1
:101A8400DCF50120F0F5012018F601209999990060
:101A9400F0F401200CF50120EC1E022028F50120B1
:101AA40078F4012084F4012094F4012040F601200C
:101AB400FFFFFFF06CF6012048F601205CF60120E0
:101AC4002CF60120049B29001C02240A22005D48F4
:101AD4000BF0DEFC5C4B2100180003930BF0D8FCE8
:101AE4005A4B2100180006930BF0D2FC584B0026E9
:101AF40098460F239946093B9B46564B9A464346C4
:101B0400B8461F0002E00436202E14D04D46B540DE
:101B14002540F540380029000A3D0BF0B9FC052D9D
:101B2400F1D85B46B340E4182100504604360BF06C
:101B3400AFFC202EEAD1210006980BF0A9FC21006D
:101B440003980BF0A5FCF0231B0547461C4269D102
:101B5400240124093F073C432CE73F4B00219B1BF6
:101B64009B460F230026002799464A465B46BA4007
:101B74001A407B427B41FA40FB40D4186418039816
:101B8400290000940BF084FC23000A3B092B0ED897
:101B94004B4606341C40BC403619320029005046DE
:101BA40004370BF075FC202F0DD00121DDE7BC407C
:101BB400361932002900504604370BF069FC202FF7
:101BC40001D00021D1E73602360A290032000798F5
:101BD4000BF05EFC310006980BF05AFC06239A4683
:101BE4001C4B00250F27994602E00435202D14D004
:101BF4003C00AC403440EC40404621000A3C0BF031
:101C040047FC052CF1D85346AB40F6183100484642
:101C140004350BF03DFC202DEAD1310006980BF081
:101C240037FCBCE60D480BF033FC21000C48FFF7F1
:101C340089FBF8220123079992008B50043A8B50B8
:101C440086E7C04628F5012040F6012078F40120FB
:101C540084F4012094F401209999990048F6012014
:101C64005CF60120F0B5DE46454657464E469046A2
:101C7400E0B5040099B0D4480D00994693460BF0A2
:101C840007FC434600934B46D049D14801932200B8
:101C94002B00109111900BF0FBFB2B0F9A464B4637
:101CA4001B0F984653460A3B012B01D90A239A4637
:101CB40043460A3B012B01D90A23984642462D018B
:101CC4005146C4480BF0E4FB2B0909934B46089496
:101CD4001B011D095C46089A099BAB4200D90EE121
:101CE40000D109E143460B93029300940195089AAD
:101CF400099BB9480BF0CCFB53460B2B00D101E1F7
:101D040043460A2B00D116E1B4480B990BF0C0FBF3
:101D1400B34AB44B121BAB4114001D00089A099B33
:101D240000940195109911980BF0B2FBAE480BF09A
:101D3400AFFB0898099922002B00FFF705FC0890D7
:101D44000991AA48AA49089A099B10910C900BF092
:101D54009FFBA84B002498460F239A46A64BA14606
:101D6400089C099D9B4615E01A00CA4016004A4685
:101D7400D340404632001F000BF08AFB0A22524235
:101D8400D31792197B41002B17D0042399444B4657
:101D9400402B28D04B4652469A404946D3172B40F5
:101DA40022402039E0D548462021091A18008840ED
:101DB40001004846C2408E18D9E7052AE5D84A46AC
:101DC400063393400493DB170593049A059BA418E8
:101DD4005D4158462B0022000BF05AFB0423994422
:101DE4004B46402BD6D1854822002B0008940995F8
:101DF40004900BF04DFB2B00220081480BF048FBB4
:101E0400F0231B032B4200D18CE0089C099D7D49E3
:101E14000122002320002940FFF796FB0B0002005B
:101E240006000F000C9810990BF032FB0F230024CE
:101E34009A46714BA1469B4615E01A00CA4014000D
:101E44004A46D340404622001D000BF021FB0A22E3
:101E54005242D31712196B41002B17D00423994413
:101E64004B46402B28D04B4652469A404946D317FE
:101E74003B4032402039E0D548462021091A180059
:101E8400884001004846C2408C18D9E7052AE5D8A5
:101E94004A46063393400693DB170793069A079B3B
:101EA400B6185F4158463B0032000BF0F1FA0423A8
:101EB40099444B46402BD6D13B00320004980BF09A
:101EC400E7FA0B9B0B2B00D1DCE00B9A3B011B09BF
:101ED40015071D434C4B32009B1B00934B482B00B2
:101EE40034000BF0D5FA2000290019B0F0BCBB4631
:101EF400B246A946A046F0BD5A4500D8F2E653467C
:101F04000B93F1E643460B2B15D00B9933480BF09A
:101F1400BFFA08980999324A324B121A8B41089237
:101F24000993FBE63A480BF0B3FA089A099B39483F
:101F3400FFF708FA69E738480BF0AAFA08980999F4
:101F440022002B00FFF700FB0D00040000262C4F9D
:101F540002000B0038000BF09BFA2B0022002449EE
:101F640022480BF095FA234BB1469846224B04972E
:101F74009B4615E01A00CA4016004A46D340404624
:101F840032001F000BF084FA0A225242D31792192E
:101F94007B41002B42D0042399444B46402B53D021
:101FA4004B460F229A404946D3172B4022402039F2
:101FB400E0D548462021091A180088400100484607
:101FC400C2408E18D9E7C046A4F50120B81E0220ED
:101FD40080F60120DCF501209CF60120D8F60120D2
:101FE400999999999999000018F60120A4F401206F
:101FF400001F022084F40120B8F40120CCF4012055
:10200400CCF60120FFFF00F09999990010F7012008
:1020140048F601205CF601202CF60120052ABAD8E6
:102024004A46063393400C93DB170D930C9A0D9B91
:10203400A4185D4158462B0022000BF029FA042312
:1020440099444B46402BABD1049F22002B003D48C2
:102054000BF01EFA2B00220038000BF019FAF023C3
:102064001B032B4205D153462D012D091B071D438C
:1020740039E735480BF00CFA22002B003348FFF700
:1020840061F9F0E732480BF003FA32483249012291
:10209400801BB9410023FFF757FA0B00020006002A
:1020A4000F000C9810990BF0F3F90F2300249A46B3
:1020B4002A4BA1469B4615E01A00CA4014004A4622
:1020C400D340404622001D000BF0E2F90A2252429E
:1020D400D31712196B41002B17D0042399444B4694
:1020E400402B28D04B4652469A404946D3173B4092
:1020F40032402039E0D548462021091A180088408A
:1021040001004846C2408C18D9E7052AE5D84A465A
:10211400063393400E93DB170F930E9A0F9BB6185A
:102124005F4158463B0032000BF0B2F90423994456
:102134004B46402BD6D132003B0004980BF0A8F953
:10214400C3E6C046CCF4012048F601205CF6012029
:10215400F8F601209999999999990000B8F4012009
:10216400F0B5DE4657464E464546E0B534488DB098
:102174000BF00CF99C239B46324B334C9A46334B61
:10218400A3449946324B9846324B099325686668B6
:10219400290032005046A768FFF7CAFA42460300F6
:1021A400874200D1099A00922900320048460197DB
:1021B4000C340BF06DF95C45E8D127480BF0E6F8D8
:1021C400264B98469C235B0043449B46244B09932F
:1021D4001F4B0A931F4B0B9343461C685D689E6814
:1021E400DF681B693200994643465B6920009A46C2
:1021F40029003B00FFF736FD81451CD00A9B4A4667
:1022040006925246049307922B00029022000096F5
:102214000197099803910BF03BF918239844D8458A
:10222400DAD10A200BF068F80DB0F0BCBB46B24618
:10223400A946A046F0BD8A45E0D10B9BDFE7C04626
:1022440038F70120F0BC0220889102204CF70120CD
:1022540030F7012028F7012070F701205090022068
:1022640084F7012030B50A008FB00C010500154930
:1022740015480BF00DF91549220915480BF008F91A
:102284001449220901A80AF087FD6A46124901A8E7
:1022940017F0E6FA009911480BF0FAF800990029B2
:1022A4000CDBC72902DDC723C72100930C480BF0C0
:1022B400EFF8009B9B00E8580FB030BD00230021CD
:1022C4000093F3E7981E0220D8F70120A81E0220ED
:1022D400B4F7012090F1012008130220C0F7012077
:1022E400CCF70120F8B5334F0D000600140013009D
:1022F40031480A0039000BF0CBF8072D06D8072C1B
:1023040026D92300083B012B2CD9F8BD2B00083B10
:10231400012BFAD82300083B012B3DD9072CF4D814
:1023240026480BF0B5F82B00C834A40032596033AA
:10233400110FDB001202F3180907120A1A60596020
:10234400C835A90072581E4839000BF0A1F8DCE723
:10235400C8341C48A4000BF09BF8C8353359A900B5
:102364007350D2E76034E400341914480BF090F849
:10237400236862681901120F090912070A431249F6
:102384001B020A401B0AC835A9001A4372500C48A4
:1023940039000BF07DF8B8E70C480BF079F82B0006
:1023A40060346033E400DB003419F31803CC03C356
:1023B400C6E7C0467C1E0220ECF7012040F801204D
:1023C4002CF8012000F80120FFFFFFF010F8012095
:1023D400F0B5C6460C0000B5244982B007001500CC
:1023E4001E00009322481300220088460BF050F888
:1023F400072C28D92300083B012B03D902B080BC49
:10240400B846F0BD1B480BF043F8A022F3171B019C
:102414001B0912061A4313006035ED007D193200C2
:1024240003CD1D00FFF71EFC22006032D300C83428
:10243400FB18A40003C33A594146009601950E487F
:102444000BF026F8DAE70D480BF022F8A02236014B
:10245400C83536091206AD00380079593243FFF702
:1024640067F9C834A4003851C8E7C046541E022096
:102474005CF801208CF80120A0F8012078F80120F4
:1024840070B505000C001000072918D8C8339B004C
:10249400EA58130F0A2B2CD00B2B04D11201130969
:1024A400A02212061A43A0210001000909060143D3
:1024B4002800FFF73DF9C834A400285170BD0A0074
:1024C400083A012AFAD86033DB00EB180CCB190F59
:1024D4000A2914D00B2904D11B011909A0231B06B6
:1024E4000B43C117FFF7BEFB6034E4002D1903C58D
:1024F400E4E712011309B02212061A43D3E71B01C1
:102504001909B0231B060B43C117FFF7ABFB60345B
:10251400E4002D1903C5D1E7F0B5C6460C0000B59B
:1025240007291ED8072A05D92F48FEF70BFF80BCC0
:10253400B846F0BD072B36D9190008390129F3D85C
:102544006033DB00C3181968050058680B01000FDD
:102554001B0900071843254B09021840090A0843C0
:1025640025E008390129DFD8110008390129DBD811
:1025740019000839012925D9072BD5D8C8339B0060
:10258400C15860320B0F0902090A8C46D200821826
:10259400050003CA1B076246FFF764FB6034E300CF
:1025A400EB1803C3C3E7C8339B000500C058C83207
:1025B4009300E95802002800FFF7BAF8C834A400D1
:1025C4002851B4E76033DB00C318603260CBD3001A
:1025D400C318070003CB2A003300FFF743FB603422
:1025E400E300FB1803C3A2E7C0F80120FFFFFFF0DC
:1025F400F8B507000C0016001D0007292FD8072A7C
:1026040003D94B48FEF79EFEF8BD072B55D9083B6E
:10261400012BF6D847480AF03BFF3300C8339B0030
:10262400F9582B006033DB00FB180CCB10011B0F97
:1026340000091B070343404812020340120A1A43CD
:102644001B0F0A2B47D112011309B02212061A4399
:102654003800FFF76DF8C834A4003851D4E70B00F4
:10266400083B012BCDD81300083B012BC9D82B0004
:10267400083B012B37D9072DC3D830480AF008FF8F
:1026840033006033DB00FB1803CB2B00C8339B0003
:10269400FB581A0F94461B021A0A654663461B0729
:1026A4000A2D3BD00B2D01D1A0231B06FFF7DAFA2C
:1026B4006034E300FB1803C3A6E721480AF0E8FEF0
:1026C4003300C8339B00F9582B00C8339B00FA58D9
:1026D400130F0A2BB7D00B2BBAD112011309A02266
:1026E40012061A43B4E717480AF0D2FE33006033E7
:1026F400DB00FB1803CB2B006033DB00FB181A68EC
:102704005B6894461A0F0A2A0BD00B2A04D11B01CA
:102714001A09A0231B0613436246C7E7B0231B060E
:10272400C4E71B011A09B0231B0613436246BDE725
:10273400C0F8012004F90120FFFFFFF0F8F80120A0
:10274400E0F80120ECF80120F0B5C646F52300229C
:102754000D0000B59B0082B0C25008330132C25054
:102764007E32214B012100927D3A0400FEF7E2FA09
:1027740029001E480AF08CFEDB23FB269B00E5584B
:102784000433E2581A4FB6009046EA053B68A15953
:102794001848D20F0AF07CFEA359002B19D1DB2371
:1027A4009B00E358DB0514D443465A42534120228C
:1027B400114C5B42934320002A00104941330AF034
:1027C400EBFA21000E480AF063FE02B080BCB84662
:1027D400F0BD3B68002BE7D10A4B074C1A68226016
:1027E4001B792371EDE7C04648F901205CF901200B
:1027F40038DA022044F3012044D9022084F3012072
:1028040078F90120F4FA0120F0B5D6464F46464641
:102814000023C0B588B005AD04002B72002905D192
:1028240008B0E0BCBA46B146A846F0BDDD239B0023
:10283400C158FFF717FDFB270600BF003200E1591E
:10284400A3480AF025FEE359002B7BD1DB239B0030
:10285400E15880230A005B000F001A40194200D09F
:102864009FE0E2239B00E358073B022B00D9A2E040
:10287400DA239B00E1580B0F30332B700F23080E23
:10288400184030306870080D18403030A870080CBB
:1028940018403030E870080B184030302871080AAE
:1028A400184030306871080918400B403033EB7120
:1028B400E1239B00E3583030A871002B00D0D4E012
:1028C400844E3168002A00D1DDE0002900D0DAE02E
:1028D400802200235200DD2080002058D20507000A
:1028E400DE2080002058D20F80467B480AF0D0FDBD
:1028F400FB239B00E358002B04D1DB239B00E3580C
:10290400DB0503D53368002B00D1C6E0464673428D
:102914005E4120227342714E934330003A00704965
:1029240041330AF039FA202203928222D200A25CB7
:1029340001210292200002226A4B01950096FEF7C3
:10294400F9F96DE7E227310FBF006748E151884686
:102954000AF09EFDE359073B022B2CD8FB239B0076
:10296400E358002B00D1A1E030210F208C464346D0
:10297400320E02409444320D024030329046310A05
:10298400320C024001403032303191468A46320BDB
:102994003109024001403040303330323031303080
:1029A40024E04C4A1268002ACCD0E2229200A258B9
:1029B400073A022A78D9DA239B00E0581033E35807
:1029C400002B3FD130210F228C46060E1640030FF8
:1029D400B444060D000C1640024030323036103933
:1029E4009146B04620228A462020303366463F4F27
:1029F40036023B40334346463D4F36043B40334367
:102A04004E461B0236061B0A3343059353461B02EC
:102A14001A43E12309049B0000060A43E3580243D6
:102A24000692002B21D1FB2380229B00E158803B9E
:102A3400E35852001F001A40002900D140E7254EF8
:102A4400336848E70F232026010A19403031020B6E
:102A54008A4601091A4019401840B446B046B146A6
:102A64003032303130301133C0E7202202928222DA
:102A7400D200A25C01210192200002221D4B00958C
:102A8400FEF758F9CCE6DC239B00E358D2059846C0
:102A940011480B00D20F002128E7174B0F4E1A687C
:102AA40032601B7933713EE71A00E1E6DB239B00B9
:102AB400E35880211A0049001F000A400B4200D14C
:102AC400D6E6044B1B68002B00D14DE70A00CFE685
:102AD40088F9012038DA022044F3012044D9022085
:102AE40084F30120D8F90120B4F90120FF00FFFF8D
:102AF400FFFF00FFCCF90120F4FA0120F0B5C6462F
:102B0400D422002300B5920082B083500432835053
:102B1400DB23FB2604009B00C5580433C2581A4F1C
:102B2400B6009046EA053B688159D20F17480AF06F
:102B3400AFFCA359002B1CD1DB239B00E358DB051E
:102B440017D443465A4253412022114E5B429343C9
:102B540030002A000F4941330AF01EF901220121F5
:102B640020000D4B0096FEF7E5F802B080BCB84695
:102B7400F0BD3B68002BE4D1084B054E1A68326067
:102B84001B793371EAE7C04638DA022044F30120A6
:102B940044D9022084F301208CF30120F4FA0120AB
:102BA400F0B5E12704002B4E8FB03100BF002A4856
:102BB4000AF06EFC3100E25928480AF069FCDB2374
:102BC4009B00E558E359002B07D0EB0505D4D4232B
:102BD4009B00E2581833E25031E02A0020492D01CD
:102BE40020480AF055FC20492A0920480AF050FCE4
:102BF4001F492A0901A80AF0CFF86A461D4901A80D
:102C040016F02EFE00991C480AF042FC0099002997
:102C14001BDBC72902DDC723C7210093DA25174828
:102C24000AF036FC009BAD009B00E3583100635171
:102C3400DB239B00E25812480AF02AFC6259310057
:102C440010480AF025FC0FB0F0BD002300210093CA
:102C5400E4E7C046D81D0220E8F90120ECF9012080
:102C6400981E0220D8F70120A81E0220B4F70120E4
:102C740090F1012008130220C0F70120CCF70120B5
:102C8400FCF901200CFA0120F0B5C646DB23FB2138
:102C940000B5634C9B00E5580433E658614B9AB089
:102CA4006148EA05890061580393D20F1B68804686
:102CB4000AF0EEFB73425E4120225C4F73425C4E8D
:102CC400934341332A00390030000AF065F8594D26
:102CD4003200594928000AF05FF8DD23DB20FB218C
:102CE4009B00E25804330492E258800005922218B3
:102CF4005278039BD2078900D20F1B686158404663
:102D04000AF0C6FB059B20215A4253415B428B4388
:102D1400413339003000049A0AF03EF83200474942
:102D240006A80AF039F806A9280016F077FED4237D
:102D3400434E9B00E2584349002330000AF02CF82C
:102D44003200414906A80AF027F806A9280016F01F
:102D540065FEDA239B00E2583C4906A80AF01CF8F9
:102D640006A9280016F05AFEF720F523E022800079
:102D740020589B009200E358A2583549009006A8B9
:102D84000AF00AF8280006A916F048FED7239B008B
:102D9400E258531C3ED02F4ED205D20D30002E499E
:102DA40009F0FAFF32002D4906A809F0F5FF2800C2
:102DB40006A916F033FED8239B00E258531C2DD0ED
:102DC400244ED205D20D3000234909F0E5FF32002C
:102DD400234906A809F0E0FF280006A916F01EFE04
:102DE400D9239B00E258531C16D01A4CD205D20D9D
:102DF4002000194909F0D0FF22001A4906A809F059
:102E0400CBFF280006A916F009FE28001AB080BCE2
:102E1400B846F0BD144AC6E7134AEEE7124AD7E7AC
:102E2400F0BC022038DA022044F3012084F30120AC
:102E340044D902204CDA022030FA012044FA01205D
:102E440014D9022058FA012060FA012074FA0120F2
:102E54008CFA0120C4D80220CC060220B4FA012046
:102E6400C8FA0120DCFA01202CFA0120F8B5DE466C
:102E74004E46454657466E48E0B50AF009FB6D4894
:102E84000AF006FBFFF700FF01006B480AF000FBA5
:102E9400C8236A4E9B00F518694B00249946694B78
:102EA400694F9B46694B98462B684A46591C0ED07D
:102EB4001A0F1B011B090A2A00D1B7E00B2A00D103
:102EC400ADE062486249824609F066FF524621003D
:102ED400380001340AF0DCFA0435082CE4D1D0239C
:102EE4009B00F4185B4B226899465B4B0825984677
:102EF4006368511C10D04946404609F04DFF4246D4
:102F0400290038000AF0C4FA092D0ED0A26808344A
:102F140009256368511CEED1591CECD129003800F5
:102F2400474A0AF0B5FA092DF0D10A200AF0E4F96B
:102F34004A480AF0ADFA4A480AF0AAFA8223DB00AA
:102F4400F15C48480AF0A4FAEA239B00F158464889
:102F54000AF09EFAEB239B00F15844480AF098FAD1
:102F6400EC239B00F15842480AF092FAEE239B00AE
:102F7400F258043BF1583F480AF08AFAF123F02250
:102F8400EF219B0092008900F358B25871583A48D7
:102F94000AF07EFAF423F322F2219B0092008900C6
:102FA400B258F358715835480AF072FAE1239B007D
:102FB400F15833480AF06CFAF8239B00F158314871
:102FC4000AF066FADB239B00F31859782E48C907E8
:102FD400C90F0AF05DFAFB239B00F1582B480AF055
:102FE40057FA0A200AF088F929480AF051FA2948C0
:102FF4000AF04EFA284B294819680AF049FA284B76
:10300400284819680AF044FA274B284819680AF036
:103014003FFAF0BCBB46B246A946A046F8BD2D22F5
:1030240059464046C24609F0B7FE4FE72B22F7E760
:10303400FCFA012004FB0120E8F90120F0BC022085
:10304400F0FA012018FB012020FB012024D90220E2
:103054000CFB012058FA012014D9022030FB012076
:103064003CFB012048FB012064FB01207CFB012088
:1030740094FB0120ACFB0120D4FB0120F8FB0120D0
:103084001CFC012034FC01204CFC012064FC0120C8
:103094007CFC012084FC012020DD02208CFC01202A
:1030A40010DD0220A8FC012028DD0220C4FC012040
:1030B400F0B54E46DE4657464546E0B5CB4E814612
:1030C40032688FB0002A01D1C94B1A60D021090699
:1030D4004B684968DB06DB0F890601D502210B43E7
:1030E400D02109064968490601D504210B43D021A2
:1030F40009064968090601D508210B43D0210906B0
:103104004968C90501D510210B43D0200006416848
:10311400890519D520210B434168490511D4B549C6
:103124000B60B348B44904680C60D1010B430360DD
:10313400032A55D00FB0F0BCBB46B246A946A04600
:10314400F0BD40210B43EAE7406880210500C90037
:103154000D400842F5D1A7490B60002BE1D1A749E6
:103164008A4609680029E3D1A548016801310A2982
:1031740042DD0360A34B9B461B68002BD8D0A24BB7
:1031840005931B680493002B63D0A04BA0491A68D5
:103194000393B82353439F4CCB1822680291996838
:1031A400920053581D000493FFF760FE29009A48CB
:1031B4000AF06EF91E2D00D1CEE01F2D00D1BBE028
:1031C400002D00D1C8E0049D944829000AF060F95C
:1031D400280004F02FFE2368326801332360A7E738
:1031E400834B8F4C19688F4D23682960994201D015
:1031F400002903D121609DE7016099E78A480AF01C
:1032040047F98A4B29689C461A00002303E00133DE
:1032140008321C2BEED010688142F8D1DE006644DF
:10322400706804F007FE824B70689C461A1D0023E8
:1032340003E0013308321C2B73D011688842F8D1A3
:103244006246DB00D1587B480AF022F929682160E4
:1032540070E7794B180098460AF01AF9B8226B4FB8
:103264006B4C3B6875485343E158029403970AF04A
:103274000FF940460AF00CF9714B39681D60B82308
:103284004B43E3185A69C8235B009C464C4603E051
:1032940063510435654502D05359581CF8D1B823FD
:1032A4004B43029A0025D3185A68664B34009A4659
:1032B400049E2B01D018D35C0B2B1ED00E2B14D0E4
:1032C4000A2B02D186680135F3E72A0050460AF03A
:1032D400DFF85B4600221A60039B029A1968B82340
:1032E4004B43D3185A680135E3E70123059A136069
:1032F4000022484B1A6022681AE78368C0689C461B
:103304003300072E06D9083B012B0CD94E48FEF793
:1033140019F8E1E748466746C8339B00C7500135B2
:10332400C7E74A498FE74F466833DB00FB18674617
:1033340058601F600135BCE7012352461360F52233
:10334400494692008B502368012101334048236091
:103354000AF09EF83268EBE60023524600213D480D
:1033640013600AF095F8B823039F3B483A68534327
:10337400029AD1580AF08CF81E2308931F3B0D942F
:103384000B961C003E00354A2D4D0692344A29689E
:103394000792049A06980AF07BF82B6831689C46D9
:1033A400B8234B43029AD3186246DB6810011A18FB
:1033B4001B5C18001438C0B20A2800D9F6E007993B
:1033C400800009588F461A00264804991C000AF008
:1033D4005FF8296801312960DBE7946822482100FD
:1033E4000AF056F814230893F3E7C04670D8022075
:1033F40080D8022084D8022078D8022028DD022038
:1034040010DD022020DD02206CDC022014DD02200D
:10341400F497022024DD0220E0FC0120D8FF0120E3
:1034240074D802207CD80220600002201497022065
:10343400B0AD022050F40120ECFF01202000022056
:1034440018DD02203800022010F90120D0F30120F9
:10345400ECFC012020FD012050FD012070FD012025
:10346400A01B0220B4FD0120A4FD0120D0480B9E26
:1034740009F08CFF00235A4613605246136001334F
:103484002B60039BCB4D1A68B8235343029A2968D7
:10349400D2181269002900D0DBE0C74C002A00D101
:1034A40056E1C64809F0F4FF039A00271368C4499B
:1034B40001331360B8225343029A2770D05816F090
:1034C400CBFB002800D1D0E001235A461360059BB2
:1034D40032682F601F602BE60D9CBA480B9E09F0E2
:1034E400D7FF2368013323602B6801332B605B46CD
:1034F4001B68002BC5D0B44809F0CAFF326817E630
:10350400F5234F469B00FA580833F958AF4809F0A1
:10351400BFFFF7239B00FB58002B00D159E7AC48B1
:10352400FDF732FFB82332685343029AD3180022BE
:103534001A614EE7F5234F469B00FA580833F958B1
:10354400A44809F0A5FFF7239B00FB581F1E00D0D9
:103554003FE7A148FDF718FFB82332685343029AA6
:10356400D3181F6135E7089F9C4A3B00143B9B001E
:10357400D1589B480C9209F08BFF192F22D0631C61
:1035840009D01E2C00D985E0964BE340DB0773D5A8
:10359400954809F07DFF1E2308931AE79468934821
:1035A400210009F075FF1923089312E76246904839
:1035B4000B9E09F06DFF00235A4613602B680133FC
:1035C4002B605EE721004846FEF74CFEB8223368C4
:1035D4005343029AD3182A68DB6812019B189A682D
:1035E400824200D1BBE021004846FEF73BFEB827EB
:1035F40084463368029A7B43D3182A68DB68120135
:103604009B189A68DB68210000920193794862460E
:1036140009F03EFF21004846FEF724FE8446336845
:10362400029A7B43D3182A68DB6812019B189A68B4
:10363400DB682100009201936F486246FDF7A4FE07
:103644003368029A7B43D31800221A611E2308931D
:10365400BFE6002A01D032686AE5029A1833D0180E
:10366400554916F03DFB326862E55B4618606348D5
:1036740009F00EFF32685BE5DB23152C49D0D42317
:10368400182C46D0162C43D0172C00D1EEE0072C72
:1036940000D8BFE02300083B012B00D8F3E0210051
:1036A4005748FDF74FFEB82332680A995343029AEC
:1036B400D3182A68DB6812019B189A68DB688A426F
:1036C40000D1DBE021004F4809F0E2FEE3B2132B06
:1036D40000D8BFE0E3B20C9A143B9B00D358984641
:1036E400B82721004846FDF7FBFE3368029A7B4366
:1036F400D3182A68DB6812019B189A68DB68009269
:10370400019302000B0040484146FDF73DFE97E758
:10371400D6234A469B00D3581F0000239846B8235B
:1037240032685343029AD3182A68DB6812019B1843
:103734009A68DB680A92099397422CD0099B21006E
:1037440030480A9A09F0A4FE43460A970993C1E750
:10375400029A18332100D01816F0C2FAA1E6DB68E9
:10376400002B00D03FE721004846FEF77BFDB8223E
:103774008446336821005343029A2448D3182A68A4
:10378400DB6812019B189A68DB6800920193624619
:1037940009F07EFEFFE6099A9045CFD1099B2100EE
:1037A4001B480A9A09F074FE1E23089311E6C046CA
:1037B4002CFF01201CDD022070DC022094FF01207C
:1037C40008F001201CFF012070FF012000FE0120F1
:1037D4002CFE0120CCFD0120F4FD012084AD02204B
:1037E40038FE012000001046A8FE01208CFD0120B7
:1037F40040FF012068FE012088FE0120ACFF01206B
:103804005CF40120ECFE012000FF012048FE0120B1
:10381400D8FE012023004A46C8339B00D3581F001A
:1038240000239846B82332685343029AD3182A686F
:10383400DB6812019B189A68DB680A920993974225
:1038440011D0099B210014480A9A09F021FE43462D
:103854000A970993114814210700114AE3B209F0A9
:10386400AFFAB8463CE79845EBD197E7E0234A46E0
:103874009B00D3581F00DB17984650E709998B42E9
:1038840000D01FE78AE76833DB004B441A685B68A3
:1038940017009846C6E7C046ECFE012054DC02201F
:1038A4000813022030B5B3B0050004F057FD1648E4
:1038B40004F07EFF002822D02900144809F06CFA95
:1038C4002800134914F0B8FE041E14D0114D03E06F
:1038D4006946280009F0DCFD2200C721684614F07F
:1038E4003DFF0028F4D1200014F01AFF04F054FD29
:1038F400012033B030BD2900074809F0C9FD04F0A8
:103904004BFD0020F5E7C046B0F101208C000220F9
:10391400E414022044FE01209C000220F0B5C646B7
:1039240000B5B2B0040004F019FD214804F040FFD2
:10393400002838D021001F4809F02EFA20001E4923
:1039440014F07AFE6D468046002828D01B4F42466C
:10395400C721280014F002FF002816D02B782A2B48
:10396400F5D1174C260060362A0021003800636820
:1039740098470028EBD10834B442F5D14246C72118
:10398400280014F0EBFE0028E8D1404614F0C8FEED
:1039940004F002FD012032B080BCB846F0BD210025
:1039A400084809F075FD04F0F7FC0020F3E7C04671
:1039B400B0F101208C000220E4140220F0BC0220AB
:1039C400C43802209C00022010B5040021000948DC
:1039D400FFF7A4FF084804F0EBFB81220023012138
:1039E400D200A350054AA350083AA150044AA35058
:1039F40010BDC04608C1022090AE0220040400009D
:103A04000C04000010B502490248FFF787FF10BDFF
:103A1400F0BC0220B0000220F0B5D6464F46464620
:103A2400C0B5924C0500A54403A816F059F903A9A2
:103A34008F4809F02DFD04F091FC8E4804F0B8FE87
:103A4400002800D1DBE00A2203A908A811F050F9EC
:103A5400002800D0D0E0884908A813F0C7FADB2377
:103A64009B00EA58854908A813F0C0FADC239B00A0
:103A7400EA58834908A813F0B9FAD4239B00EA58FA
:103A8400804908A813F0B2FAD7239B00EA587E496C
:103A940008A813F0ABFAD8239B00EA587B4908A87E
:103AA40013F0A4FAD9239B00EA58794908A813F023
:103AB4009DFADA239B00EA58764908A813F096FA8F
:103AC400DF239B00EA58744908A813F08FFA734B5C
:103AD40073491A6808A813F089FA724B72491A6874
:103AE40008A813F083FAC8239B009946A944A84662
:103AF4004E4600246D4F2200390008CE08A8013438
:103B040013F074FA082CF6D1C823694C9B002100E9
:103B14000822EB5808A813F069FAC9239B00210076
:103B2400EB58092208A813F061FA624908A813F0B7
:103B34005DFA614B002407269A46604F264269D0FD
:103B4400A3003900EA5808A8013413F04FFAC82C2E
:103B5400F4D15B4E08A8310013F048FA28002A007B
:103B640000239130FF3002CA5B188242FBD1554CCE
:103B7400A268934269D0A269934200D173E052498A
:103B8400524F0091524A390008A813F02FFA00232B
:103B9400A535FF3504CD9B184D45FBD1A268934252
:103BA40058D0A26993425AD047490091494A3900F2
:103BB40008A813F01BFA0023414604C988469B1841
:103BC4004945F9D1A2689A423AD0A269934248D0B1
:103BD4003D49414A009108A8390013F007FA310021
:103BE40008A813F003FA08A812F010FA041E1DD155
:103BF40004F0D2FB012005E0384809F049FC04F048
:103C0400CBFB0020A0239B009D44E0BCBA46B146F8
:103C1400A846F0BD514608A813F0E8F9A3003900FE
:103C2400EA5808A813F0E2F9013487E714F0F8FC25
:103C3400220001002A4809F02BFC04F0ADFBE0E768
:103C440000221201A4186168C3E700221201A2181D
:103C5400516895E700221201A2185168A5E70122D4
:103C6400F9E70122EDE70122F0E7C04680FDFFFFFE
:103C7400D4000220B0F10120EC000220180102203F
:103C84002C01022040010220540102207001022074
:103C94008C010220A8010220C401022050DC022071
:103CA400DC01022038DA0220F8010220100202208E
:103CB4001C0202202C020220380202203C020220B4
:103CC400ECF301209CAE0220FC110220BC00022077
:103CD40044020220500202205C020220E000022082
:103CE4006802022030B505000C4C85B022000C4B54
:103CF4000C490D4804F0F2FD0C4B21001A6868468B
:103D0400013209F049F869462800FFF785FE694643
:103D1400074809F0BDFB05B030BDC0468C02022047
:103D2400800202209C020220B0F1012098D80220D7
:103D3400A802022010B5094804F038FB002808D076
:103D4400074C08482100FFF767FE2000FFF7AAFD93
:103D540010BD0549054809F09BFBF1E7B0F10120CE
:103D6400B0000220F0BC02206CD90220C002022064
:103D7400002370B5204D82B00C002B700B00072976
:103D840016D9083B012B02D9280002B070BDD033EC
:103D94009B00C258194800230600194908F0FCFF8B
:103DA400230010212800174A009609F009F8EBE7D0
:103DB400C8339B00C3585A1C1BD01A0F1B011B0984
:103DC4000A2A0DD00B2A12D00F481049060008F019
:103DD400E3FF3300220028000A4908F0DDFFD3E79F
:103DE4002B2209480A49060008F0D6FFF1E72D22E4
:103DF400F7E7084BEEE7C046F4D8022014D90220B6
:103E040058FA0120E002022024D902200CFB0120F0
:103E140018FB0120F0FA0120F0B5C646564E010009
:103E2400804600B5300015F05BFF3378002B5CD082
:103E34002B2B01D10B3B33707378002B55D02B2BDC
:103E440001D10B3B7370B378002B4ED02B2B00D1D8
:103E54007BE0F378002B48D02B2B00D178E033792A
:103E6400002B42D02B2B00D175E07379002B3CD072
:103E74002B2B01D10B3B7371B379002B35D02B2B3A
:103E840001D10B3BB371F379002B2ED02B2B01D135
:103E94000B3BF371337A002B27D02B2B01D10B3B37
:103EA4003372737A002B20D02B2B01D10B3B73720E
:103EB400B37A002B19D02B2B54D0F37A002B14D0C7
:103EC4002B2B52D0337B002B0FD02B2B50D0737B5A
:103ED400002B0AD02B2B01D10B3B7373B37B002B2C
:103EE40003D02B2B01D10B3BB373340000252027C7
:103EF400300015F0FDFE854206D223782D2B0FD01D
:103F0400202B0DD0302B0ED0431EF25C2E2A16D05F
:103F14003100404615F0E4FE80BCB846F0BD277081
:103F240001350134E4E76378302BF8D020233000E6
:103F3400735515F0DDFE431EF25C2E2AE8D1325C87
:103F4400002AE5D12032F254E2E70B3BB37080E75C
:103F54000B3BF37083E70B3B33717379002B00D079
:103F640086E7C2E70B3BB372A7E70B3BF372A9E703
:103F74000B3B3373ABE7C04640DC0220F8B50023AB
:103F8400234C2380030F0A2B3FD00B2B2CD12D273E
:103F9400204D03003A0020490601280008F0FCFEE9
:103FA4003A001E49200008F0F7FE0622360F921B45
:103FB400E91C200015F058FD200015F099FE02229E
:103FC4001749201807F046FBA91B320009312000CD
:103FD40015F04AFD2100280015F082FE114B1B68E4
:103FE400002B0ED12800F8BD2027092BD0D8094D6D
:103FF40002000D49280008F0CFFE0A4B1B68002B75
:10400400F0D02800FFF708FFECE72B27C0E7C046F5
:1040140054D9022034D90220E802022088F3012076
:104024009407022050DC022020F50120F0B5C6469A
:10403400484B002498461D0000B5474F0DE02E68FC
:104044003000FFF79BFF21000300320038000134E9
:1040540009F01EFAC82C0AD004350521200006F008
:104064003FFB0029EBD10A2009F046F9E7E7444673
:104074000A2009F041F9434600229134FF3402CB6F
:104084005218A342FBD1354EB3689A4246D0B36965
:104094009A4259D0324B334FC8253800324909F07F
:1040A400F7F90022AD00454408CCD218AC42FBD14C
:1040B400B3689A4237D0B3699A4249D0284B380042
:1040C4002A4909F0E5F943460022A533FF3302CB20
:1040D4005218AB42FBD1B3689A4229D0B3699A42D1
:1040E40034D01F4B3800224909F0D2F9002241464E
:1040F40008C98846D218A942F9D1B36893421CD0A2
:10410400B3699A421ED0164B38001A4909F0C0F917
:104114000A2009F0F1F880BCB846F0BD00231B0169
:10412400F3185B68B7E700231B01F3185B68C6E765
:1041340000231B01F3185B68D4E700231B01F61866
:104144007368E1E70123F9E70123E8E70123F0E7D6
:104154000123E9E7F0BC0220F00202209CAE022019
:10416400FC110220740002204402022050020220AA
:10417400040302205C020220F0B5C6460E000027AC
:1041840000B51E4D8EB032001D49340180461D48D5
:104194002F7009F07DF91C4922091C4809F078F9AF
:1041A4001B49220901A808F0F7FD6A46194901A82C
:1041B40015F056FB0099184809F06AF9009900298E
:1041C40018DBC72902DDC723C7210093134809F070
:1041D4005FF94246009B9B00D058FFF7CFFE3200A8
:1041E40003000F49280008F0D7FD28000EB080BC5A
:1041F400B846F0BD00210097E8E7C046D4D80220B5
:10420400981E0220D8F70120A81E0220B4F701202E
:1042140090F1012008130220C0F70120CCF70120FF
:1042240010030220DB23F0B59B00C35804000D00EB
:1042340083B0DB0504D4DB239B00E55003B0F0BD61
:104244002F4809F025F9F0231B011D4204D0FB235C
:1042540000229B00E250EEE72A4809F019F9FB23FB
:1042640001229B00E250284B1B68002BE3D0274817
:1042740009F00EF9F72301229B00E25020000121EE
:10428400FEF7C2FAF2239B00E358200019001E0037
:10429400FDF7E8FFFFF772FE1D4B0190009620002A
:1042A400022201211E00FCF745FDF3239B00E25886
:1042B400200011001700FDF7D5FFFFF75FFE330064
:1042C40001900097200003220121FCF733FDF42321
:1042D4009B00E258200011001700FDF7C3FFFFF711
:1042E4004DFE330001900422200001210097FCF7C9
:1042F40021FD052201212000064BFCF71BFD9AE756
:10430400180302204003022038DA0220640302204A
:1043140080030220C0F30120F0B5DE46454657462F
:104324004E46E0B5DB25984B040087B01900AD007C
:104334009648059309F0ACF8AC46A4446346944807
:104344005A686159049309F0A3F8E1239B00E358E8
:10435400002B02D06359DB054CD5DA239B00E358CC
:104364001B0F062B4DD9073B022B34D8DC239B00B3
:10437400E358002B00D0C6E0DB239B00E358002564
:104384009B46844B00219846834B00279946834BD8
:104394009A460F225B46BA401A407B427B41FA4060
:1043A400FB40D618761848464146009609F070F846
:1043B40033000A3B092B2CD80F2306361E40BE407F
:1043C400AD192A0041465046043709F061F8202F00
:1043D4002BD00121DDE77248FCF7B4FFDB239B00FF
:1043E400E158049B6F485A6809F052F86E480599E1
:1043F40009F04EF807B0F0BCBB46B246A946A04649
:10440400F0BDDC239B00E258002A4ED10122E25089
:10441400E4E7BE40AD192A0041465046043709F08E
:1044240037F8202F01D00021B3E72D022D0A414691
:104434002A005E4809F02CF85D4B290018009946C3
:1044440009F026F85B4F5C4BA24698463C000027D7
:1044540002E00437202F14D00F26BE402E40FE4029
:10446400200031000A3E09F013F8052EF1D8062386
:10447400BB40ED1829004046043709F009F8202F05
:10448400EAD12900484609F003F8544629002000DF
:10449400FFF7C8FEDB229200A3581B051B0DA35097
:1044A400DC2300229B00E25098E7043BE3580026FB
:1044B4009B46384B00219846374B00279946374B8B
:1044C4009A460F225B46BA401A407B427B41FA402F
:1044D400FB40D5186D1848464146009508F0D8FFB2
:1044E4002B000A3B092B12D80F2306351D40BD4073
:1044F4007619320041465046043708F0C9FF202F90
:1045040011D00121DDE72D48FCF72AFF34E7BD4037
:104514007619320041465046043708F0B9FF202F7F
:1045240001D00021CDE73602350A41462A001F4852
:1045340008F0AEFF1E482900814608F0A9FF1D4F70
:104544001D4BA24600263C0098462F0002E004368C
:10455400202E12D00F25B5403D40F5402000290003
:104564000A3D08F095FF052DF1D80623B340FF1846
:104574003900404608F08CFFE9E73900484608F066
:1045840087FF5446390082E71C1E0220C0EE01203A
:104594008C030220EC1E0220F0F401200CF5012013
:1045A400C4030220D403022018EF012028F50120BF
:1045B40078F4012084F4012094F40120A003022063
:1045C40070B5D625AD0041592F4A90B00400FDF7CF
:1045D400AFF8CD230002000A5B00984246D39A222A
:1045E4002A4BFF32D6252A4EAD00635129493000AB
:1045F40008F0D2FB655928492A0028482D0108F003
:1046040047FF27492A09274808F042FF26492A0973
:1046140003A808F0C1FB254902AA03A815F020F954
:104624000299234808F034FF029900291ADBC729AC
:1046340002DDC723C72102931E4808F029FF029B0D
:104644009B00E058FFF79AFC06220190012120000C
:10465400194B0096FCF76EFBFF2301229B00E250EE
:1046640010B070BD002300210293E5E7064A200044
:104674006159FDF75DF8A023020112091B061343DB
:10468400C205D20DAEE7C046010000A0990100A00A
:10469400C4D80220CC060220981E0220D8F701209C
:1046A400A81E0220B4F7012090F101200813022073
:1046B400C0F70120CCF70120E803022070B5D6250D
:1046C400AD0041592F4A90B00400FDF731F8CD23D5
:1046D4000002000A5B00984246D39A222A4BFF321A
:1046E400D6252A4EAD0063512949300008F054FB09
:1046F400655928492A0028482D0108F0C9FE274990
:104704002A09274808F0C4FE26492A0903A808F004
:1047140043FB254902AA03A815F0A2F802992348ED
:1047240008F0B6FE029900291ADBC72902DDC72367
:10473400C72102931E4808F0ABFE029B9B00E05881
:10474400FFF71CFC0622019001212000194B009662
:10475400FCF7F0FAFF2301229B00E25010B070BD79
:10476400002300210293E5E7064A20006159FCF783
:10477400DFFFA023020112091B061343C205D20D59
:10478400AEE7C046010000B0990100A0C4D80220E1
:10479400CC060220981E0220D8F70120A81E022071
:1047A400B4F7012090F1012008130220C0F7012082
:1047B400CCF70120E8030220F0B5C646D423CD216E
:1047C40000B59B00C35804001A0290B0120A4900B5
:1047D4008A4200D388E0A0221B011B09120613435E
:1047E400D6229200A3500023083AA3500432A350C7
:1047F400DB23FB279B00E6580433E2583E4DBF0001
:104804009046F2052B68E1593C48D20F08F040FE6F
:10481400E359002B5ED1DB239B00E358DB0559D41D
:1048240045466B425D4120226B42354D934328003F
:1048340032003449413308F0AFFAD62700950122FB
:1048440001212000304BBF00FCF774FAE5596B1CC2
:1048540050D02E4EEA0530002D49D20D08F09CFAB6
:10486400E5592A002B492D012B4808F011FE2B494C
:104874002A092B4808F00CFE2A492A0903A808F043
:104884008BFA294902AA03A814F0EAFF02992748DF
:1048940008F0FEFD0299002928DBC72902DDC723A1
:1048A400C7210293224808F0F3FD029B9B00E058C5
:1048B400FFF764FB06220190012120001D4B0096A6
:1048C400FCF738FAFF2301229B00E25010B080BCB1
:1048D400B846F0BD2B68002BA2D1174B084D1A68BF
:1048E4002A601B792B71A8E7144B79E70023002178
:1048F4000293D7E7124EB4E738DA022044F30120DA
:1049040044D9022084F301208CF30120C4D802206E
:10491400CC060220981E0220D8F70120A81E0220EF
:10492400B4F7012090F1012008130220C0F7012000
:10493400CCF70120E8030220F4FA0120990100A039
:104944002CFA0120F0B5D423DE46454657464E46A0
:104954009B00E0B5C5580833C658604B6049360122
:1049640095B03209040018008A469B4608F090FD71
:104974005C4B3209190007A8039308F00DFA5A4B4F
:1049840006AA190007A8049314F06AFF574B069966
:104994001800984608F07CFD0699002900DA96E094
:1049A400C72902DDC723C7210693514BFB271800F3
:1049B400994608F06DFD069BD4229B00E550002328
:1049C4009200A3500432A350DB239B00E658043327
:1049D400E258484D0592BF00F2052B68E15946485C
:1049E400D20F08F055FDE359002B62D1DB239B0065
:1049F400E358DB055DD4059B404D5A4253412022C8
:104A04005B429343280032003D49413308F0C4F926
:104A1400D62600950122012120003A4BB600FCF76E
:104A240089F9A5596B1C56D0374FEA053800374928
:104A3400D20D08F0B1F9A5593E002A0034492D01E0
:104A4400344808F025FD51462A09584608F020FD4F
:104A540003992A0907A808F09FF9049906AA07A848
:104A640014F0FEFE0699404608F012FD069900294E
:104A740029DBC72902DDC723C7210693484608F06E
:104A840007FD069B9B00E058FFF778FA0622019089
:104A940001212000204B0096FCF74CF9FF23012252
:104AA4009B00E25015B0F0BCBB46B246A946A046F6
:104AB400F0BD2B68002B9ED1184B104D1A682A604C
:104AC4001B792B71A4E7002300210693D6E700236A
:104AD4000021069369E7124EAFE7C046B4F7012000
:104AE400A81E022090F1012008130220C0F7012023
:104AF400CCF7012038DA022044F3012044D9022003
:104B040084F301208CF30120C4D80220CC060220B7
:104B1400981E0220D8F70120E8030220F4FA0120AD
:104B24002CFA0120F0B5D423C6469B0000B5C55825
:104B340004002B0F0A3B82B00B39012B45D9D52336
:104B44009B00C358002B40D12D016918D423FB26A8
:104B54009B00E1501C33E5580433E258344FB6004F
:104B64009046EA053B68A1593248D20F08F090FC00
:104B7400A359002B04D1DB239B00E358DB0502D5AA
:104B84003B68002B44D043465A42534120222A4ECC
:104B94005B42934330002A002849413308F0FCF873
:104BA400D4239B00E058FFF7E9F901220190012189
:104BB4002000234B0096FCF7BDF8FF2301229B0045
:104BC400E25002B080BCB846F0BD2B021F0A1B099C
:104BD4005B182E0119001B48360F984608F058FC44
:104BE400002E0FD1D5239B00E3585A1E9341424611
:104BF40017021B063F0A144929401943090E0906E6
:104C04003943A3E7731C062E09D1C023DB04F2E762
:104C14000E4B094E1A6832601B793371C0E7F022DB
:104C24001B0612051340424617023F0AE3E7C0463B
:104C340038DA022044F3012044D9022084F301200D
:104C440000040220F0030220FFFFFFF0F4FA012029
:104C5400F0B5C646D523012200B5D4219B0086B009
:104C6400C250A0228900435812061B021B0A134398
:104C74004350DB23FB2604009B00C5580433C25871
:104C8400204FB6009046EA053B688159D20F1E4872
:104C940008F0FEFBA359002B2AD1DB239B00E35829
:104CA400DB0525D443465A4253412022174E5B422A
:104CB400934330002A001649413308F06DF8D42399
:104CC4009B00E058FFF75AF932000300114901A88C
:104CD40008F062F801AB012201212000FCF72AF858
:104CE400FF2301229B00E25006B080BCB846F0BD11
:104CF4003B68002BD6D1084B044E1A6832601B79EE
:104D04003371DCE738DA022044F3012044D902206D
:104D140084F3012000040220F4FA0120D421F0B528
:104D2400C646B0228900435800B51B0112061B0970
:104D3400134386B04350DB23FB2604009B00C55875
:104D44000433C258204FB6009046EA053B688159A7
:104D5400D20F1E4808F09CFBA359002B2AD1DB2359
:104D64009B00E358DB0525D443465A425341202295
:104D7400174E5B42934330002A001649413308F032
:104D84000BF8D4239B00E058FFF7F8F83200030037
:104D9400114901A808F000F801AB0122012120000B
:104DA400FBF7C8FFFF2301229B00E25006B080BC42
:104DB400B846F0BD3B68002BD6D1084B044E1A68A8
:104DC40032601B793371DCE738DA022044F30120C6
:104DD40044D9022084F3012000040220F4FA0120C3
:104DE40008B4F0B5CE46474680B5E6B06DAB20CBEF
:104DF40081460F0014000193002938D0062A3EDCB6
:104E0400C8212A00490002A807F0EEFF02A814F006
:104E14006FFF10283BD8013C3A002349234808F08F
:104E240037FBE3001B195B001C19214B2A00E41813
:104E34001021019B200007F0D7FF200014F058FF39
:104E44000F26361A002E0EDD1A4B0025984602E076
:104E5400200014F04DFF022241462018013506F0CF
:104E6400F9FBAE42F4D1FF234A469B00D75066B00B
:104E7400C0BCB946B046F0BC08BC01B0184711002C
:104E84000D4808F005FB0D4808F080FAFEE72900FC
:104E94000B4808F0FDFA02A90A4808F0F9FA074895
:104EA40008F074FAB7E7C046F01C02209CF2012017
:104EB40000D00220ACF3012058F2012070F201204E
:104EC4007CF2012088F20120F0B5CE46474680B539
:104ED40004000D00160083B0002900D0E3E0B24FB7
:104EE40001223B0029002000FFF77AFF290020005F
:104EF400FDF78AFC3B00032229002000FFF770FF26
:104F0400DD239B00E1582000FDF7ACF9FB239B0057
:104F1400E358002B08D1DB239B00E358DB054AD57B
:104F2400A24B1B68002B46D1030F1900A0481E009A
:104F340008F0AEFA062E44D8012E00D995E02900D7
:104F44002000FDF761FC3B00032229002000FFF74D
:104F540047FF3B00042229002000FFF741FF3B00EC
:104F6400052229002000FFF73BFF3B000622290011
:104F74002000FFF735FFEA239B00E658072E00D8F0
:104F8400F0E03300083B012B6AD82900200000968A
:104F94000322884BFFF724FF87483200F3170600EB
:104FA400864907F0F9FE042229002000844B00966C
:104FB400FFF716FF54E0062E03DC012E55DC4FD814
:104FC400BDE7073E022E4BD8802120004900FDF7A3
:104FD40049F98021070049002000FDF743F9010049
:104FE4002000FDF73FF9FEF7C9FF764E0422330097
:104FF4002900019000972000FFF7F2FE0221200013
:10500400FF31FDF72FF902210700FF312000FDF7E2
:1050140029F901002000FDF725F9FEF7AFFF330061
:1050240005222900019000972000FFF7D9FE812175
:1050340020004900FDF716F98121070049002000EE
:10504400FDF710F901002000FDF70CF9FEF796FFBB
:10505400330001900622290020000097FFF7C0FECC
:1050640003B0C0BCB946B046F0BDE3239B00E3588F
:10507400022B1CDD043B052BF2D829002000FDF790
:10508400C3FBED239B00E65820003100FDF7EAF84E
:10509400FEF774FF0322019029002000494B00967B
:1050A400FFF79EFEDCE7484803F082F817E7002B81
:1050B400D6DB29002000FDF7A7FBED239B00E65873
:1050C40020003100FDF7CEF8FEF758FF3D4B01906C
:1050D4000096032229002000FFF782FE00233B4EA6
:1050E4003370C8239B00E3585A1C5BD01A0F1B0172
:1050F4001B090A2A42D00B2A50D0354F35493800B3
:1051040007F04AFE3B00344900223000894607F08C
:1051140043FE2B4B04222900200000969846FFF7FB
:105124005FFE00233370C9239B00E3585A1C37D019
:105134001A0F1B011B090A2A2ED00B2A25D0244F33
:105144002449380007F028FE3B004946012230007C
:1051540007F022FE43460522290020000096FFF7AF
:105164003FFE7DE731002000FEF702FE032200909F
:1051740029002000124BFFF733FE71E72B22144F56
:105184001649380007F008FEBCE72D22104F1349DA
:10519400380007F001FED7E72B22F7E72D22EEE7D0
:1051A4000F4BD2E70E4BAEE7C0F3012038DA0220F2
:1051B400B4F901201C04022014D9022058FA012059
:1051C40044FE01202004022090AE0220F4D80220E4
:1051D40024D902200CFB0120E002022018FB01204C
:1051E400F0FA0120F0B54746CE4680B504000D0024
:1051F400170083B000296DD1954E01223300290098
:105204002000FFF7EDFD29002000FDF7FDFA330033
:10521400032229002000FFF7E3FD092F35DC062FC8
:1052240038DDF2239B00E75820003900FDF71AF817
:10523400FEF7A4FE874E0422330029000190009754
:105244002000FFF7CDFDF3239B00E7582000390031
:10525400FDF708F8FEF792FE0522330029000190BD
:1052640000972000FFF7BCFDF4239B00E7582000C3
:105274003900FCF7F7FFFEF781FE330001900622A8
:10528400290020000097FFF7ABFD03B0C0BCB9466E
:10529400B046F0BD012F21DDE3239B00E358022B30
:1052A40059DD043B052BF0D829002000FDF7ACFAAA
:1052B400ED239B00E65820003100FCF7D3FFFEF7F6
:1052C4005DFE0322019029002000624B0096FFF747
:1052D40087FDDAE7604802F06BFF8DE7002FD4DB2F
:1052E40029002000FDF790FA330003222900200052
:1052F400FFF776FD3300042229002000FFF770FD3C
:105304003300052229002000FFF76AFD330006223E
:1053140029002000FFF764FDEA239B00E658072ECE
:1053240074D93300083B012BAFD829002000009624
:1053340003224A4BFFF754FD49483200F317060095
:10534400484907F029FD042229002000464B009615
:10535400FFF746FD99E7002B97DB29002000FDF7B6
:1053640053FAED239B00E65820003100FCF77AFF46
:10537400FEF704FE374B019000960322290020001B
:10538400FFF72EFD0023394E3370C8239B00E358EA
:105394005A1C47D01A0F1B011B090A2A54D00B2A86
:1053A4004BD0334F3349380007F0F6FC3B00324909
:1053B40000223000894607F0EFFC2B4B0422290021
:1053C400200000969846FFF70BFD00233370C92395
:1053D4009B00E3585A1C39D01A0F1B011B090A2AD7
:1053E40029D00B2A20D0224F2249380007F0D4FCC0
:1053F4003B0049460122300007F0CEFC434605221B
:10540400290020000096FFF7EBFC3EE73100200066
:10541400FEF7AEFC0322009029002000124BFFF798
:10542400DFFC32E7154BC2E72D22114F1449380037
:1054340007F0B2FCDCE72B22F7E72D220C4F1049D2
:10544400380007F0A9FCB1E72B22F7E70B4BD0E7B4
:10545400C0F301202004022090AE02201C0402208C
:1054640014D9022058FA012044FE0120F4D8022065
:1054740024D902200CFB0120E0020220F0FA0120D2
:1054840018FB0120F0B5CE46474680B504000D0058
:10549400160083B0002900D077E0DF4F01223B00E3
:1054A40029002000FFF79CFC29002000FDF7ACF93F
:1054B4003B00032229002000FFF792FC092E16D896
:1054C400D64BB6009B599F462B22D54FD549380061
:1054D40007F062FC3B0005224146300007F05CFC0B
:1054E4004B460622290020000096FFF779FC03B002
:1054F400C0BCB946B046F0BDE3239B00E358032B80
:1055040000DD4AE1002B00DB4BE129002000FDF720
:105514007BF93B00032229002000FFF761FC3B00DC
:10552400042229002000FFF75BFC3B000522290030
:105534002000FFF755FC3B00062229002000FFF75E
:105544004FFCEA239B00E2580433E658072A00D8AC
:10555400F7E01300083B012B00D873E10423032276
:105564009846072E00D8F7E03300083B012BBED83D
:1055740029002000AC4B0096FFF732FC3B0042466A
:1055840029002000FFF72CFCB1E7A84802F010FE28
:1055940083E7E3239B00E358022B00DDE3E0002BC9
:1055A400A5DB29002000FDF72FF9EE239B00E65828
:1055B40020003100FCF756FEFEF7E0FC29000190C4
:1055C4000096200003229A4BFFF70AFC0023964E14
:1055D40029002000009304223300FFF701FC01237B
:1055E40005220093290033002000FFF7F9FB7EE732
:1055F4003B00290020000422FFF7F2FB3B002900B6
:1056040020000522FFF7ECFB3B00062229002000C6
:10561400FFF7E6FB6BE70023864E3370CB239B003A
:10562400E3585A1C00D12DE11A0F1B011B090A2A49
:1056340000D118E10B2A00D0E7E02D22784F7949F8
:10564400380007F0A9FB3B007B4903223000884661
:1056540007F0A2FB794B042229002000009699460A
:10566400FFF7BEFB00233370CC239B00E3585A1C86
:1056740000D109E11A0F1B011B090A2A00D1FDE020
:105684000B2A00D1F3E0664F6D49380007F084FB24
:105694003B0004224146300007F07EFB4B460522C6
:1056A400290020000096FFF79BFB00233370CD23D5
:1056B4009B00E3585A1C00D1E2E01A0F1B011B099E
:1056C4000A2A00D100E70B2A00D1CEE0544F5C49EE
:1056D400380007F061FBFDE6EF239B00E75820004C
:1056E4003900FCF7BFFDFEF749FC514E042233009C
:1056F4002900019000972000FFF772FBF0239B0024
:10570400E75820003900FCF7ADFDFEF737FC052211
:1057140033002900019000972000FFF761FBF1237B
:105724009B00E75820003900FCF79CFDFEF726FC9F
:10573400330001900622290020000097FFF750FB58
:10574400D5E6394B0092290003222000FFF748FBDD
:1057540005230422984604E729002000324B0096D2
:10576400FFF73EFBC3E6043B052B00D9BFE6290047
:105774002000FDF749F8EE239B00E6582000310095
:10578400FCF770FDFEF7FAFB0322019029002000CC
:10579400274B0096FFF724FBA9E6053B022B00D913
:1057A400B3E629002000FDF72FF83B00032229006F
:1057B4002000FFF715FB3B00042229002000FFF71F
:1057C4000FFB3B00052229002000FFF709FB3B00EB
:1057D400062229002000FFF703FBEA239B00E2587E
:1057E400072A53D91300083B012B00D98DE6290061
:1057F400200000920C4B0322FFF7F2FA3B00042234
:1058040029002000FFF7ECFA7FE6054F0C49380029
:1058140007F0C2FA17E7C046C0F30120CC1B0220F0
:1058240024D9022018FB01201C04022090AE02207F
:1058340020040220F4D80220E002022044FE0120C9
:105844000CFB012029002000144B00920322FFF7D7
:10585400C7FA3B00042229002000FFF7C1FA0623FF
:10586400052298467DE62B22E8E62D222DE62D2200
:105874000B4F0C49380007F08FFA09E72B22F7E7A2
:10588400094B28E6084BDFE6074B02E700922900A4
:1058940003222000014BFFF7A3FA36E61C04022082
:1058A40024D9022018FB0120F0FA0120F0B5454666
:1058B4004E46DE465746E0B58846060014001D00F5
:1058C40085B0072B12D9083B012B26D90E9B072B39
:1058D40058D9083B1700012B00D888E0380005B0E0
:1058E400F0BCBB46B246A946A046F0BD0F9B571C70
:1058F400002B39D02900FEF73BFA594D00902B00BC
:10590400220041463000FFF76BFA0E9B072B4AD961
:10591400083B012BE2D83C006DE00F99531C039324
:10592400971C00294DD04F4900950B0089464146EC
:10593400FFF756FA4C484D4C2A000100EB178346FA
:10594400200007F029FA464D41462B003000039A07
:105954000094FFF745FA0E9BA246072B23D9083B78
:10596400012BBBD83C004CE03E4B00959946FFF719
:1059740037FA0E9B072B14D9083B012BAED83C00F9
:105984003B4D5CE00F9B002B54D1364B99460E9B4C
:105994002200009341464B463000FFF721FA671C72
:1059A4009CE73C00F3E73C000E993000FEF7E0F979
:1059B4002B000090220041463000FFF711FA671CCB
:1059C4008CE7284B414600959946FFF709FA284D84
:1059D40041462B003000039AFFF702FA0E9B072B77
:1059E400DFD9083B012B00D978E73C0027E00F9B67
:1059F400002B21D01A4D1B4B99461B4B9B461B4B2E
:105A04009A4657460E9B22004146300000934B466F
:105A1400FFF7E6F90E9B594638000E9ADB1707F09C
:105A2400BBF900972B0041463000621CFFF7D8F900
:105A3400A71C53E70A4DB7E70A4B0D4D9946474655
:105A44000E9B39002200300000934B46FFF7C8F943
:105A540039002B003000621CFFF7C2F9A71C3DE798
:105A640044FE01201C04022058FA012014D902200B
:105A7400C0F30120F0B54546DE4657464E46E0B534
:105A8400C94B04000A000D00C848190097B0984695
:105A940007F0FEFCDD239B00E1580433E358002BA0
:105AA4005DD0C34ADC20DB23800020589B00E358F0
:105AB400002852D0BE48BF4F0090380007F0E8FCE1
:105AC400FC239B00E358002B00D0FBE0FD239B004C
