:020000041000EA
:1000000000B5324B212058609868022188439860DF
:10001000D860186158612E4B002199600221596106
:100020000121F02299502B49196001219960352056
:1000300000F044F80222904214D00621196600F024
:1000400034F8196E01211966002018661A6600F04E
:100050002CF8196E196E196E052000F02FF8012189
:100060000842F9D1002199601B49196000215960AB
:100070001A491B48016001219960EB211966A021F2
:10008000196600F012F800219960164914480160C1
:100090000121996001BC002800D000471248134993
:1000A000086003C880F30888084703B5996A0420EC
:1000B0000142FBD001200142F8D103BD02B5186610
:1000C0001866FFF7F2FF186E186E02BD00000240BE
:1000D000000000180000070000035F00212200005C
:1000E000F4000018222000A00001001008ED00E03C
:1000F00000000000000000000000000074B24E7A12
:1001000000200420F7010010C3010010C5010010F9
:10011000C1010010C1010010C1010010C101001097
:10012000C1010010C1010010C1010010C701001081
:10013000C1010010C1010010C9010010CB01001065
:10014000CD010010CD010010CD010010CD01001037
:10015000CD010010CD010010CD010010CD01001027
:10016000CD010010CD010010CD010010CD01001017
:10017000CD010010CD010010CD010010CD01001007
:10018000CD010010CD010010CD010010CD010010F7
:10019000CD010010CD010010CD010010CD010010E7
:1001A000CD010010CD010010CD010010CD010010D7
:1001B000CD010010CD010010CD010010CD010010C7
:1001C00000BE00BE00BE00BE00BE00BE00F051F882
:1001D000103800BEF2EB8871E0020010040300103A
:1001E0003402001090A31AE700202449086006C8D2
:1001F00081F30888104722480068002835D10DA4F3
:100200000ECC002902D000F012F8F9E71D491E4A71
:10021000002000E001C19142FCD11C4988471C49E3
:1002200088471C49884700BEFDE701C901C29A42C0
:10023000FBD3704704030010C000002090EA0120A7
:10024000D4EC011090EA0120B0A30220F4A5021022
:100250000000042000000420F4A502100010042077
:10026000001004200000000070470B4800F018F850
:100270000047EFF30580C0B27047000008ED00E0D2
:10028000000000D0B0A30220B0C2022039A200209A
:10029000A97700209DA30020575600000000000011
:1002A00001B40248844601BC604700BF9DC00020E5
:1002B00006005250ABB36053A40A0220060052500D
:1002C000861C0302B40A0220060052505422A29D4A
:1002D000D40A022005005250DE65F468F4A502102D
:1002E000D4020010C8020010BC020010E00A022074
:1002F000B0020010EC0A0220F80A0220040B0220CF
:04030000400B02208C
:10030400F8B5C0460448054B10B5834203D0044BEE
:10031400002B00D0984710BDB0A30220B0A3022048
:100324000000000006480749091A8B10C90FC918B4
:1003340010B5491003D0044B002B00D0984710BDD2
:10034400B0A30220B0A302200000000010B5074CA7
:100354002378002B09D1FFF7D5FF054B002B02D0E2
:10036400044800E000BF0123237010BDB8A402209C
:100374000000000090EA0120054B10B5002B03D0CB
:100384000449054800E000BFFFF7CCFF10BDC0469C
:1003940000000000BCA4022090EA01207047C0467F
:1003A400F52301229B00C2507047C046F723012267
:1003B4009B00C2507047C0460022044BC250FE222C
:1003C400012392008350083A8350704704040000CC
:1003D400044A835801338350FC2301229B00C250FA
:1003E4007047C04604040000054A8358002B01DD11
:1003F400013B8350FC2301229B00C2507047C0463E
:1004040004040000FE2300229B00C250083B01327A
:10041400C2507047FE2330B5012500249B00C31849
:100424001C605D60FC2301229B00C25030BDC046AD
:10043400FC230121014A9B00D1507047D0B2022015
:10044400084B0948094918605960094809499860E6
:10045400D9600948094918615961094807499861EF
:10046400D9617047D0B2022063035203560056107C
:1004740050055305520551055405530551075106BE
:10048400002400240A4BC8201A68B8235A43094B95
:1004940030B59B185969084C0023400003E0E25032
:1004A4000433834202D0CA58551CF8D130BDC0462B
:1004B40070AF0220B8830220D0B202200A4B01217F
:1004C4001A680A4B1A60B8235A43094B9B18002236
:1004D40019611A76074B1960074B1960074B1A60AC
:1004E400074B1A707047C04670AF022060B00220FC
:1004F400B883022064B0022068B0022058B0022001
:10050400D8B60220FEE7C046D0220C4B0C480D4959
:10051400920010B59C182060616000210A48203ABE
:100524009A1810605160094A09481A600CF074FE68
:100534002268636807480CF06FFE10BDD0B2022039
:1005440032547608305476085634120018141014B5
:10055400C0EE0120D0EE012030B583B005000A4979
:10056400100001AA19F04AFC0400012803D0002459
:10057400200003B030BDDB23019A9B001100EA5038
:1005840002480CF049FEF3E7E8EE0120F8EE012002
:1005940030B583B005000A49100001AA19F02EFCF9
:1005A4000400012803D00024200003B030BDDC2364
:1005B400019A9B001100EA5002480CF02DFEF3E76B
:1005C40010EF012020EF0120002330B583B0050097
:1005D4000A49100001AA019319F010FC0400012833
:1005E40003D00024200003B030BDD423019A9B0023
:1005F4001100EA5002480CF00FFEF3E738EF012037
:1006040048EF012010B582B001AB0400114910007D
:100614006A4619F0F3FB0023022802D0180002B046
:1006240010BD0099019A012910D002290AD000298D
:1006340004D009480CF0F0FD0123EFE7D7239B0019
:10064400E250F6E7D9239B00E250F2E7D8239B005F
:10065400E250EEE764EF01207CEF012030B583B077
:1006640005000A49100001AA19F0C8FB040001287A
:1006740003D00024200003B030BDDA23019A9B008C
:100684001100EA5002480CF0C7FDF3E79CEF01208B
:10069400B8EF012030B583B005000A49100001AA63
:1006A40019F0ACFB0400012803D00024200003B09F
:1006B40030BDDF23019A9B001100EA5002480CF080
:1006C400ABFDF3E7D8EF0120ECEF012010B50849AA
:1006D4000400084808F0A6F8FE23012000219B002E
:1006E400E31818605960FC2301229B00E25010BDFE
:1006F400E0BC022004F0012070B50A200CF0E4FBF9
:10070400094C0A4E2500ED35FF35626813782A2B13
:1007140003D0300021780CF07FFD0C34AC42F4D1CE
:1007240003480CF079FD70BD302B02200CF0012041
:1007340018F00120F0B5DE4657464E464546E0B572
:10074400C3488BB00CF068FD0A200CF0BDFBC14817
:100754000CF062FDC0480CF05FFDC0480CF05CFD7D
:10076400BF480CF059FDBF480CF056FDBE480CF0D4
:1007740053FDBE480CF050FDBD480CF04DFD0A2061
:100784000CF0A2FB002300249B46BA488369DB06D5
:1007940000D4A5E0FA2080000CF04AFD431C53D09D
:1007A4004F2800DDC4E0292832DD2A3825282FD837
:1007B400B14B80001B589F46B0480CF02DFDB04B48
:1007C40000229B5E062B00D139E12021A94A9369BE
:1007D4001942FCD10623136036E0AA480CF01CFD34
:1007E400A74B0020185E022800D193E12021A14AE2
:1007F40093691942FCD102231360022800D171E1EC
:1008040020219C4A93691942FCD1022313601BE006
:100814000BB03CBC90469946A246AB46F0BD9A4804
:100824000CF0FAFC964B00229B5E0F2B00D169E181
:100834002021904A93691942FCD10F23136003E0ED
:100844005A4601235A4093465B46002B9DD00134FF
:10085400652C9AD18A4B00229B5E072B00D190E035
:100864002021844A93691942FCD10723136002AB07
:100874009A460AAB9946FF235746102498467D4D65
:10088400AB691C42FCD12600AB691E401C42FAD164
:1008940042462B680120134008C709F039F9B945CD
:1008A400EED1029B0093039B0193019A009B944613
:1008B400049A63449446059A63449446069A6344AE
:1008C40094460092079A63449B18002B72DC3220F2
:1008D40009F01EF9674800248369DB0600D559E74F
:1008E400010010228B691A42FCD1FF21026867487B
:1008F40011400A000CF090FC4CE765480CF08CFCAD
:100904005F4B0020185E032800D1F3E02021594AF0
:1009140093691942FCD103231360032800D1D9E061
:100924002021544A93691942FCD1032313608BE7B5
:1009340072282ED0732810D156480CF06DFC504B01
:1009440000229B5E0E2B00D1BCE02021494A936912
:100954001942FCD10E23136076E7642800D057E7D0
:100964004D480CF059FC464B00229B5E0D2B00D1E8
:10097400A0E020213F4A93691942FCD10D23136062
:1009840062E720213B4A93691942FCD10D2313608D
:1009940066E742480CF040FC394B00229B5E072B73
:1009A40000D17FE02021334A93691942FCD1072307
:1009B400136049E70A200CF087FA394D12E0A307C7
:1009C4001AD463071ED4230722D4E30626D4A3062D
:1009D4002AD463062ED404239C460836E244302EDF
:1009E40000D174E753461C68E307E8D531002800BA
:1009F4000CF012FCA307E4D52948711C0CF00CFC84
:100A04006307E0D52648B11C0CF006FC2307DCD5AF
:100A14002348F11C0CF000FCE306D8D52048311D16
:100A24000CF0FAFBA306D4D51D48711D0CF0F4FBA1
:100A34006306D0D5B11D1A480CF0EEFBCBE720219C
:100A44000C4A93691942FCD10D231360BDE6C046DC
:100A540034F0012040F001204CF001206CF0012022
:100A64007CF0012090F00120A8F00120C0F00120CA
:100A7400D8F001200040034094F1012038F1012016
:100A8400E8BF02201CF1012044F10120FCF0012008
:100A940010F1012058F101206CF1012080F10120B6
:100AA400F4F0012020211F4A93691942FCD10D233F
:100AB400136077E720211B4A93691942FCD10D2367
:100AC400136056E72021174A93691942FCD10D237C
:100AD40013603AE72021134A93691942FCD10D238C
:100AE40013601DE720210F4A93691942FCD10D239D
:100AF400136085E620210B4A93691942FCD10D232A
:100B0400136003E72021074A93691942FCD10D239E
:100B140013608DE62021034A93691942FCD10D2309
:100B2400136063E60040034010B5054C0548216896
:100B34000CF072FB2068253807F074F910BDC0462C
:100B44005CAF02202CF2012010B50A2007F06AF9EC
:100B540010BDC04610B5092007F064F910BDC046A9
:100B640010B5152007F05EF910BDC04610B516206B
:100B740007F058F910BDC04610B5172007F052F918
:100B840010BDC04610B5072007F04CF910BDC04693
:100B940010B51A2007F046F910BDC04610B5022062
:100BA40007F040F910BDC04610B5062007F03AF929
:100BB40010BDC04610B5052007F034F910BDC0467D
:100BC40010B5032007F02EF910BDC04610B504205F
:100BD40007F028F910BDC046FC23002110B5034AD4
:100BE4009B001820D15007F01DF910BDD0B202208F
:100BF400FC23002110B5034A9B001920D15007F0B3
:100C040011F910BDD0B20220F0B5DE465746454674
:100C14004E46E0B5DBB0802200211AA80CF044F85F
:100C24003AAB18008022002198460CF03DF82D487C
:100C34000CF09CF92C4B9A462C4B9B46FA208000D6
:100C44000CF0F6FA431C46D1294B01AE1B68002573
:100C54001B011B09994600234F4633701AAC19E057
:100C64002368002B0ADD013B2360002B06D141469B
:100C7400AA008958002901D041468B50300019F050
:100C8400D1F90222514630180CF014F8043401351D
:100C9400A045D3D001239946AB401F42E0D0300099
:100CA40019F0C0F90222594630180CF003F82368F1
:100CB400132BEBDC05332360072BE7DD4246AB0047
:100CC400D258002AE2D1494642460A48D150290066
:100CD4000CF0A2FADAE75BB03CBC90469946A24617
:100CE400AB46F0BD30F2012010FB012040F20120A0
:100CF400A8B0022044F20120F0B5D6464F4646463D
:100D0400C0B5174882B00CF031F9164B002599464E
:100D1400154B164C9846164B164F9A4626683900C2
:100D2400300019F033F900280CD022694346002A18
:100D340000D153462200183200922900320048465E
:100D44000CF06AFA0135B8341D2DE7D10A200CF0F5
:100D5400BBF802B01CBC90469946A246F0BDC04602
:100D64005CF2012074F201204CF20120B8830220CD
:100D740054F201206CF20120F0B50022C646114B5A
:100D8400114C00B525001A600023012798460F4E28
:100D9400183504E043462B7027610135B83431001F
:100DA400206819F0F3F80028F4D10122084B1860E8
:100DB400084B1A60084B1860084B187004BC904626
:100DC400F0BDC04660B00220B88302206CF201205E
:100DD40064B0022068B0022058B00220D8B60220C5
:100DE40070B5274D0600286814008EB0002801D184
:100DF4000EB070BD0DAB05930CAB04930BAB03931A
:100E04000AAB029309AB019308AB009320001D4980
:100E140007AB06AA18F0F2FF082805D000231A4AE7
:100E240000202B601360E3E7174A1368980030181A
:100E3400410713D1069C079D04604560089C099DE9
:100E44008460C5600A9C0B9D046145610C9C0D9DEA
:100E54008461C561083301201360C9E70699016004
:100E640007994160089981600999C1600A990161F3
:100E74000B9941610C9981610D99C161EAE7C04602
:100E840084AF02208CF2012088AF0220100010B53C
:100E94000722084919F02EF90023002801D0180070
:100EA40010BD0122044B05481A600CF0B5F901236A
:100EB400F5E7C046A8F2012084AF0220B0F2012079
:100EC4007047C04608B4F0B5C646C82100B5E7B0BF
:100ED4006DAB10CB06002200490002A801930BF071
:100EE4009FF902A819F09EF8102827D8194D22005E
:100EF4001021019B28000BF093F9280019F092F8B7
:100F04000F24241A002C0EDD134B0027984602E010
:100F1400280019F087F802224146281801370BF0FF
:100F2400C9FEBC42F4D1FC2301229B00F25067B0FD
:100F340004BC9046F0BC08BC01B018472100074827
:100F44000CF06AF902A906480CF066F905480CF0A1
:100F54000DF8CBE778BB022010FB0120C4F201207E
:100F6400D0F20120E4F20120D421DB23890042588D
:100F74009B0030B50400C250DC2000230C4D8000DF
:100F840023506350043183B063502800094920334F
:100F94000BF01EF9012201212000074B0095FFF7F9
:100FA40091FFFC2301229B00E25003B030BDC046F8
:100FB4001CB00220F0F20120F8F2012008B4F0B5D0
:100FC400CE46474680B50F00C821E6B06DAB10CBC6
:100FD40006002200490002A801930BF021F902A89F
:100FE40019F020F810282AD81B4D22001021019B4B
:100FF40028000BF015F9280019F014F80F24241A0E
:10100400002C11DD00239846144B994602E0280079
:1010140019F008F80222494628180BF04BFE012368
:101024009C46E0444445F2D1FC239B00F75066B053
:101034000CBC90469946F0BC08BC01B0184721008E
:1010440007480CF0E9F802A906480CF0E5F8064850
:101054000BF08CFFC8E7C046D7BB022010FB012071
:10106400C4F20120D0F20120E4F2012010B50348BB
:101074000BF034F90021030000209847554200008A
:10108400F0B5244885B00CF0C7F80023224C234E59
:10109400234D2360FA2080000CF0CAF8431C35D09D
:1010A4003928F7DC2F2807DC1B28F3D81D4BC34055
:1010B400DB07EFD505B0F0BD2268303893009B18EC
:1010C4005B0018183100206028000CF0A5F81649C0
:1010D400164B086816491B6809685A1E93414F1E2F
:1010E400B941212249425B4213400A402032019017
:1010F400009002922268203311000E480CF08CF804
:10110400FA2080000CF094F8431CC9D10CF004F8C8
:10111400C0E7C04608F3012070AF022070B002207F
:1011240034F3012000240008A0A90220B8A9022059
:10113400B4A902204CF301200FB400B5B5B036AB0E
:1011440004CBC82101A800930BF06AF835B008BCA1
:1011540004B018470FB400B5B5B036AB04CBC82102
:1011640001A800930BF05CF801A903480CF054F8B3
:1011740035B008BC04B0184798F3012010B51A2004
:1011840007F096FDD02480232406DB04A3621120FB
:1011940007F08EFD80239B026362022163610C20B1
:1011A40007F056FD02210D2007F052FD9621084C50
:1011B4008901200009F0D2F8010006480CF02CF84F
:1011C4006022E36A5A406E231340034A136010BD41
:1011D40000400340B0F301202C500340F0B5DE463C
:1011E40057464E464546E0B583B00190BF480E00D1
:1011F40090460CF011F8BE4B32009A46BD4B514656
:101204009B46434658460CF007F84346370F1B0FDE
:1012140000933B000A3B012B00D90A27009A1300D4
:101224000A3B9146012B02D90A23994600934A4668
:101234003900B1480BF0F0FF434635011C012D097C
:101244002409A54200D9B94622002900AB480BF075
:10125400E3FF009B0B2F00D13DE10A2B00D15EE29E
:10126400A74E30000BF0D8FFA64B1C1B23002A000E
:10127400514658460BF0D0FF30000BF0CDFF0F2144
:101284000E000B002E402340F3181A000A3A0020E7
:10129400092A02D806330B4001300F212A092609F6
:1012A4000E400A409219121816000A3E0020092E18
:1012B40002D806320A4001300F211201D3182E0A37
:1012C400220A0A400E40B618361830000A380022A6
:1012D400092802D806360E4001320F213602F618CC
:1012E400280B230B0B400840C018801803000A3B4E
:1012F4000027092B02D806300840013703039B1945
:101304000F26290C220C324031408918C9190A00D1
:101314000A3A0020092A02D80631314001300F264A
:101324000904CB182A0D210D3140324052181218ED
:1013340011000A390020092902D80632324001304E
:101344000F261205D218210E2B0E334031405B18A4
:101354001B1818000A38092801D8063333401B0625
:101364009B180F221C0213400A3B240A052B00D8A9
:1013740083E123061B0F0A3B052B00D877E12305E5
:101384001B0F0A3B052B00D868E123041B0F0A3B03
:10139400052B00D859E123031B0F0A3B052B00D86A
:1013A4004AE10F23250D2B400A3B052B00D839E1D8
:1013B400210055480BF030FFF0231B051C4200D1DF
:1013C40028E10F21080020400600093E0022431CAA
:1013D400092E03D80B000730034001320F202109E6
:1013E400014089180A000A3A0026092A02D806315F
:1013F400014001360901CB180F21220A0A40921933
:1014040016000A3E0020092E02D806320A40013096
:101414000F211202D218230B0B401B181E000A3E88
:101424000020092E02D806330B4001300F21240C72
:101434000C40241820001B030A389B18002209289A
:1014440002D806340C4001322404E4180F231D4052
:10145400AD182A000A3A092A01D806351D402D057F
:101464002C190F2526022C400A3C360A052C00D8DC
:1014740033E133061B0F0A3B052B00D827E1330564
:101484001B0F0A3B052B00D818E133041B0F0A3B42
:10149400052B00D809E133031B0F0A3B052B00D8A9
:1014A400FAE033021B0F0A3B052B00D8EBE04B4656
:1014B4000B2B2DD04B46134A1F073E4331001348D4
:1014C400921B0BF0A9FE300003B03CBC9046994639
:1014D400A246AB46F0BD0B2B00D120E1084E3000F4
:1014E4000BF09AFE074B5D1BC0E6C0461CF40120BE
:1014F400B803022040F4012054F4012068F40120D0
:10150400C0F401209999990094F40120D4F40120A5
:101514000F221000DA4B9E1B30400400093C0023CC
:10152400411C092C00D8F5E00F2032090240D218E2
:1015340014000A3C0023092C00D8E7E00F20120114
:101544005218310A0140C9180B000A3B0024092B28
:1015540000D8D7E009028A180F21300B084000197F
:1015640003000A3B0024092B00D8C7E003030F2023
:10157400310C014009199B180A000A3A0024092A6F
:1015840000D8B7E00F20320D0240121914000904EC
:101594000A3CCB180021092C00D8A7E00F20120523
:1015A400D218330E03405B181C000A3C092C00D8E7
:1015B40099E01B069B180F221E0213400A3B360AB1
:1015C400052B00D889E133061B0F0A3B052B00D8F5
:1015D4007DE133051B0F0A3B052B00D86EE1330474
:1015E4001B0F0A3B052B00D85FE133031B0F0A3B9B
:1015F400052B00D850E133021B0F0A3B052B00D901
:1016040058E7C023DB039C46664431009D480BF039
:1016140003FE4FE79C480BF0FFFD21009B48FFF7BA
:101624008BFDCEE6C023DB039C4664442100954831
:101634000BF0F2FD250DBBE6C023DB029C4664449F
:10164400210090480BF0E8FDABE6C023DB019C468B
:10165400644421008B480BF0DFFD9CE6C023DB00D3
:101664009C466444210087480BF0D6FD8DE6603427
:10167400210084480BF0D0FD81E606342100814826
:101684000BF0CAFD75E6C023DB039C4666443100BB
:101694007C480BF0C1FD0AE7C023DB029C4666448C
:1016A400310078480BF0B8FDFBE6C023DB019C4613
:1016B4006644310073480BF0AFFDECE6C023DB0059
:1016C4009C46664431006F480BF0A6FDDDE66036AB
:1016D40031006C480BF0A0FDD1E6063631006948B4
:1016E4000BF09AFDC5E60633034062E7063202407A
:1016F400013153E706310140013443E70630084025
:10170400013433E706310140013423E70632024055
:10171400013313E7073002401100013304E75C484A
:101724000BF07AFD0F204446020004403240A21818
:1017340013000A3B0025092B02D80632024001356A
:10174400434619090F23340919401C400919491942
:1017540008000A380025092802D806311940013545
:1017640043460F200C01A4181B0A320A024003400E
:101774009B185B191A000A3A0021092A02D8063379
:10178400034001311B021C1943461A0B0F23300B73
:1017940018401A401218521810000A38002109285B
:1017A40002D806321A40013143460F20120312199F
:1017B4001B0C340C044003401B195B181C000A3C2E
:1017C4000021092C02D806330340013140461C0491
:1017D4000F23A418000D320D18401A401218521885
:1017E40010000A380021092802D806321A400131B3
:1017F4001205141942460F20330E120E0240034004
:101804009B185B1819000A390022092902D80633EB
:10181400034001321B061E19120795193602340AB9
:101824001C4E210030000BF0F7FC0F2215400A3D3E
:10183400052D00D890E023061B0F0A3B052B00D88A
:1018440084E023051B0F0A3B052B76D923041B0FC9
:101854000A3B052B68D923031B0F0A3B052B5AD9D6
:1018640023021B0F0A3B052B4CD9210030000BF03F
:10187400D3FCF0231B051C4235D13E07264322E648
:1018840099999900E4F301209CF40120B0F401201B
:1018940080F4012094F40120C023DB029C466644BA
:1018A400310030480BF0B8FCA5E6C023DB019C46B0
:1018B400664431002B480BF0AFFC96E6C023DB00F6
:1018C4009C466644310027480BF0A6FC87E6603648
:1018D400310024480BF0A0FC7BE606363100214899
:1018E4000BF09AFC6FE620480BF096FC21001F4891
:1018F400FFF722FCF8220123019992008B50043A4D
:101904008B50BAE7C023DB039C466444210015488E
:101914000BF082FCA9E7C023DB029C46644421004F
:1019240010480BF079FC9BE7C023DB019C46644420
:1019340021000C480BF070FC8DE7C023DB009C46B3
:101944006444210007480BF067FC7FE76034210002
:1019540004480BF061FC74E70634210001480BF0E5
:101964005BFC68E7E4F301209CF40120B0F401205F
:10197400F0B5DE4657464E4645469946E0B587B033
:10198400140004920A010B0F8A4611094A469B4629
:101994008C464B461201120900940192804600992C
:1019A400019A1B0F944501D900F04DFD01D100F0BF
:1019B40046FD5A4603930B2A01D100F04BFD0A2A37
:1019C40001D100F05FFD0B2B07D1009801990D4A5E
:1019D4000D4B121A8B41009201930F244346009D34
:1019E4002340254018002A00002300218018594173
:1019F4000A225242D31712184B41002B01D100F096
:101A040032FD03E099999999999900000023994628
:101A1400634642460F271B0712091A433A40140033
:101A2400019B009A1B0716091E433E400025320005
:101A3400002312196B414C46002512196B410A24EC
:101A44006442E517A4185D41002D01D001F059F856
:101A5400092C01D901F055F8941D3C4022000124C1
:101A64000023A146160F1D011401634642460F27A9
:101A74001B06120A1A4335433A4024184D41019B70
:101A84001000009A1B06160A1E433E400021320035
:101A9400002312184B414846002112184B410A20DA
:101AA4004042C11780185941002901D001F025F89E
:101AB400092801D901F021F8911D39400A000121BA
:101AC40000238946160E10021902424663460F2768
:101AD4001B05120B1A4331433A4024184D41019B14
:101AE4001000009A1B05160B1E433E4000213200D5
:101AF400002312184B414846002112184B410A207A
:101B04004042C11780185941002901D000F0F1FF6B
:101B1400092801D900F0EDFF911D39400A00012187
:101B240000238946160D19031003634642463143C8
:101B3400001969410F251B04120C1A432A400600A0
:101B4400019B1000009A1B04140C1C432C400F0032
:101B540022000021002312184B414846002112188C
:101B64004B410A204042C11780185941002901D035
:101B740000F0BBFF092801D900F0B7FF911D2940EF
:101B84000A00012100238946110C14041D04424655
:101B940063460D4336196F410F251B03120D1A437B
:101BA4002A401000019B009A1B03140D1C432C4077
:101BB40000212200002312184B414846002112182C
:101BC4004B410A204042C11780185941002901D0D5
:101BD40000F087FF092801D900F083FF911D2940F7
:101BE4000A00012100238946110B14051D054246F4
:101BF40063460D4336196F410F251B02120E1A431B
:101C04002A401000019B009A1B02140E1C432C4016
:101C140000212200002312184B41484600211218CB
:101C24004B410A204042C11780185941002901D074
:101C340000F053FF092801D900F04FFF911D2940FE
:101C44000A000121002389461D064346110A180F84
:101C54000D43002300211406A4197D41009E320F78
:101C640012184B414846002112184B410A204042A9
:101C7400C11780185941002901D000F02BFF092811
:101C840001D900F027FF901D0F3108400200002306
:101C940001271609190731431007001969410F2656
:101CA4006346049005910199334031401C0000259E
:101CB4000A00002312196B413C00002512196B41E4
:101CC4000A246442E517A4185D41002D01D000F0F8
:101CD400FDFE092C01D900F0F9FE0121941D3440C8
:101CE40022008846049805991500002463460F27AE
:101CF400001969411C093C402200019C0025260969
:101D04003E403400002312196B4144460025121949
:101D14006B410A246442E517A4185D41002D01D0EB
:101D240000F0D0FE092C01D900F0CCFE941D3C40FB
:101D340022000124A046634600240F27150124181D
:101D44004D41190A39400A00019900230E0A3E4008
:101D54003000002112184B414046002112184B411B
:101D64000A204042C11780185941002901D000F0CF
:101D7400A5FE092801D900F0A1FE911D39400A00F1
:101D840001218846002063460F27110224184D4183
:101D9400190B39400A00019900230E0B3E40300014
:101DA400002112184B414046002112184B410A20D1
:101DB4004042C11780185941002901D000F07AFE31
:101DC400092801D900F076FE911D39400A0001214D
:101DD400884663460F2700201B0C11033B40241840
:101DE4004D411800019B00211E0C3E40320000238F
:101DF4008018594142460023801859410A22524210
:101E0400D31712184B41002B01D000F04FFE092AC2
:101E140001D900F04BFE831D3B4018000123984676
:101E240000220304A4185D4163460F271B0D3B40A9
:101E34001800019B00211E0D3E4032000023801833
:101E4400594142460023801859410A225242D3176D
:101E540012184B41002B01D000F024FE092A01D9AD
:101E640000F020FE831D3B40180001239846002209
:101E74000305A4185D4163460F27180E019B00213A
:101E84001E0E3E4032000023801859414246002372
:101E9400801859410A225242D31712184B41002B81
:101EA40001D000F0FCFD092A01D900F0F8FD831DE2
:101EB4003B401800012600220199030612196B41C8
:101EC40030000C0F0025002124184D410A20404207
:101ED400C11700196941002903D1092801D800F06C
:101EE400D8FD0020210712184B411B0416001D0CBD
:101EF4000F2333401800140000210A225242D31742
:101F040080185941002901D100F0A9FF21060A0FC8
:101F140000230A204042C11712184B41002B01D163
:101F240000F0F2FF21050A0F00230A204042C117E6
:101F340012184B41002B01D100F0F5FF21040A0FC8
:101F440000230A204042C11712184B41002B01D133
:101F540001F078F821030A0F00230A204042C11738
:101F640012184B41002B01D100F09EFF21020A0FF1
:101F740000230A204042C11712184B41002B01D103
:101F840000F0A2FF21010A0F00230A204042C117DA
:101F940012184B41002B01D100F0A6FF2901220F9A
:101FA4000A430A204042C1172B0F12184B41002B41
:101FB40001D100F0C8FFF0231B032B4201D100F034
:101FC40002FF0F23190021400A009C46012600232A
:101FD400002709204042C117B6185F4180185941B3
:101FE40000960197002901D000F04FFD092801D97E
:101FF40000F04BFD63460732134000930023019326
:10200400013398462A07230913430F2294461A40A2
:10201400100000214246002312184B410A2040427E
:10202400C11780185941002901D000F02AFD092860
:1020340001D900F026FD6046911D084001210200EF
:1020440000238846110F8C4666461901100131435E
:10205400009A019B12184B41009201932A06230A0D
:1020640013430F2294461A401000002142460023D5
:1020740012184B410A204042C117801859410029C7
:1020840001D000F0FAFC092801D900F0F6FC604602
:10209400911D08400121020000238846110E8C4640
:1020A4006646190210023143009A019B12184B41F3
:1020B400009201932A05230B13430F2294461A40DE
:1020C400100000214246002312184B410A204042CE
:1020D400C11780185941002901D000F0CAFC092811
:1020E40001D900F0C6FC6046911D084001210200A0
:1020F40000238846110D8C466646190310033143AC
:10210400009A019B12184B41009201932A04230C5C
:1021140013430F2294461A40100000214246002324
:1021240012184B410A204042C11780185941002916
:1021340001D000F09AFC092801D900F096FC604611
:10214400911D08400121020000238846110C8C4691
:102154006646190410043143009A019B12184B413E
:10216400009201932A03230D13430F2294461A402D
:10217400100000214246002312184B410A2040421D
:10218400C11780185941002901D000F06AFC0928C0
:1021940001D900F066FC6046911D0840012102004F
:1021A40000238846110B8C466646190510053143F9
:1021B400009A019B12184B41009201932A02230EAC
:1021C40013430F2294461A40100000214246002374
:1021D40012184B410A204042C11780185941002966
:1021E40001D000F03AFC092801D900F036FC604621
:1021F400911D08400121020000238C46110A8846E3
:102204004646190610063143009A019B12184B41A9
:1022140000210092019362460023200F12184B41C3
:102224000A204042C11780185941002901D000F00A
:1022340010FC092801D900F00CFC901D0F31084056
:102244000E3902000023884611098C461907664698
:102254000F23314310079C46009E019F2B403618E4
:102264004F41424618000021002312184B410A2016
:102274004042C11780185941002900D0E6E30928DB
:1022840000D9E3E36046911D08400121020088461D
:1022940011000F2200202B0994461A4036184F4192
:1022A400002310000021424612184B410A204042EC
:1022B400C11780185941002900D0C4E3092800D966
:1022C400C1E36046911D08400121020088461101C6
:1022D4000F2200202B0A94461A4036184F4100233F
:1022E40010000021424612184B410A204042C117F7
:1022F40080185941002900D0A2E3092800D99FE39E
:102304006046911D0840012102008C460020110204
:10231400801979410F262B0B33401C00002562469F
:10232400002312196B410A246442E517A4185D4185
:10233400002D00D082E3092C00D97FE3941D3440A2
:102344002200012400261703801979410022230466
:10235400801859410B0406000F2131400A00040083
:102364001D0C0A204042C117002312184B41002BB8
:1023740001D100F083FD21060A0F00230A20404208
:10238400C11712184B41002B01D100F0ECFD2105BF
:102394000A0F00230A204042C11712184B41002B98
:1023A40001D100F0EFFD21040A0F00230A2040426E
:1023B400C11712184B41002B01D100F0F3FD21038A
:1023C4000A0F00230A204042C11712184B41002B68
:1023D40001D100F0F7FD21020A0F00230A20404238
:1023E400C11712184B41002B01D100F0FBFD210154
:1023F4000A0F00230A204042C11712184B41002B38
:1024040001D100F0FFFD2901220F0A430A204042B6
:10241400C1172B0F12184B41002B01D100F002FE03
:10242400039B0B2B00D170E32000039B1907294366
:1024340007B03CBC90469946A246AB46F0BD8842E4
:1024440001D8FFF7B6FA5A4603925A460B2A01D02E
:10245400FFF7B5FA0B2B19D0094B1B1A984600232A
:102464009C46FFF7BAFA092A01D9FFF7CFFA831D70
:1024740023401800012300219946FFF7C9FAC046FA
:10248400999999000A2B01D0FFF79DFA0F210400B6
:102494000C402200049C00230C4026000027B618A0
:1024A4005F410A225242D31792197B41002B01D07B
:1024B40000F0D1FC092A01D900F0CDFCB31D0B407A
:1024C4001E00012300279C46534602091B071A439A
:1024D40000230F2101934B460A400092049A1B07E4
:1024E40012091A4314000C402200009C019D002391
:1024F40012196B416446002512196B410A24644287
:10250400E517A4185D41002D01D000F0A0FC092CB2
:1025140001D900F09CFC941D0C400E3922000023CC
:102524008C461D015346110F0D4314010F21A419AC
:102534007D411B06020A1A434B460A40009401954A
:102544001400049A1B06160A1E430E40002532008E
:10255400002312196B416446002512196B410A24A9
:102564006442E517A4185D41002D01D000F06CFC15
:10257400092C01D900F068FC941D0C4022000023B2
:102584000126110E1D020D431402009A019B12191B
:102594006B410092019353460F211B05020B1A4312
:1025A4004B460A401400049A1B05170B1F430F40A7
:1025B40000253A00002312196B413400002512193A
:1025C4006B410A246442E517A4185D41002D01D033
:1025D40000F037FC092C01D900F033FC941D0C40A9
:1025E400220000230126110D1D030D431403009A3C
:1025F400019B12196B410092019353460F211B0456
:10260400020C1A434B460A401400049A1B04170C8C
:102614001F430F4000253A00002312196B41340078
:10262400002512196B410A246442E517A4185D4180
:10263400002D01D000F003FC092C01D900F0FFFBB0
:10264400941D0C40220000230126110C1D040D438F
:102654001404009A019B12196B4100920193534692
:102664000F211B03020D1A434B460A401400049A1F
:102674001B03170D1F430F4000253A0000231219B6
:102684006B413400002512196B410A246442E5179A
:10269400A4185D41002D00D0CFE3092C00D9CCE370
:1026A400941D0C40220000230126110B1D050D432F
:1026B4001405009A019B12196B4100920193534631
:1026C4000F211B02020E1A434B460A401400049ABF
:1026D4001B02170E1F430F4000253A000023121956
:1026E4006B413400002512196B410A246442E5173A
:1026F400A4185D41002D00D09CE3092C00D999E376
:10270400941D0C400E39220000238C46110A1D062C
:102714000D4314060027009A019BA4185D41002371
:102724000499060F0A0F6046002192197B41121882
:102734004B410A204042C11780185941002900D05A
:1027440075E3092800D972E3901D0F3108400E3952
:10275400020000238C461609190731431007241878
:102764004D410F2651464F46314037400A00002361
:1027740038000021801859416246002380185941CD
:102784000A225242D31712184B41002B00D04BE3BC
:10279400092A00D948E3831D3340180001239C46CD
:1027A40003000022A4185D4153460F27190939403C
:1027B4000A0049460E093E400023300000218018DB
:1027C400594162460023801859410A225242D317C4
:1027D40012184B41002B00D023E3092A00D920E32F
:1027E400831D3B40180001239C4600220301A418CA
:1027F4005D4153460F27190A39400A0049460E0A1B
:102804003E400023300000218018594162460023D5
:10281400801859410A225242D31712184B41002BF7
:1028240000D0FBE2092A00D9F8E2831D3B401800DE
:1028340001239C4651460F270022090B030239400D
:1028440012196B410C0049460E0B3E400025300026
:1028540000210019694164460025001969410A24D0
:102864006442E51724184D41002D00D0D3E2092C11
:1028740000D9D0E2841D3C4020000124A4465146E6
:102884000F270024090C0503394012196B410C0071
:1028940049460E0C3E4000253000002100196941D4
:1028A40064460025001969410A246442E517241886
:1028B4004D41002D00D0ABE2092C00D9A8E2841DC3
:1028C4003C4020000124A44600240504A4185D41D2
:1028D40053460F27190D39400A0049460E0D3E4054
:1028E40000233000002180185941624600238018DB
:1028F40059410A225242D31712184B41002B00D0DF
:1029040083E2092A00D980E2831D3B401800012399
:10291400984651460022030512196B410C0E0F21F3
:102924000D008C4625404C466746260E374028004D
:102934003C00002500210019694144460025001986
:1029440069410A246442E51724184D41002D00D042
:1029540059E2092C00D956E26546841D2540280019
:1029640001260024050612196B41002031071218B4
:102974004B411B0416001D0C0F2333401800140098
:1029840000210A225242D31780185941002900D14C
:10299400C8E321060A0F00230A204042C117121877
:1029A4004B41002B01D100F020FC21050A0F00232C
:1029B4000A204042C11712184B41002B01D100F0EC
:1029C40004FC21040A0F00230A204042C1171218F4
:1029D4004B41002B00D1EAE321030A0F00230A2014
:1029E4004042C11712184B41002B00D1D1E3210200
:1029F4000A0F00230A204042C11712184B41002B32
:102A040000D1B8E321010A0F00230A204042C11774
:102A140012184B41002B00D19FE32901220F0A43D6
:102A24000A204042C1172B0F12184B41002B00D132
:102A340085E35B46190720002943F9E4002481E477
:102A440000218C4662E40021884640E40021884647
:102A54001EE400218846FFF7F7FB00218C46FFF7B0
:102A6400CDFB00218846FFF79DFB00218846FFF738
:102A74006DFB00218846FFF73DFB00218846FFF7E8
:102A84000DFB00218846FFF7DDFA00239846FFF787
:102A9400B9FAA01D0F3108400400FFF722FA0026FE
:102AA400FFF709FA00239846FFF7E1F90023984657
:102AB400FFF7B6F900218846FFF78BF90021884615
:102AC400FFF760F90024A046FFF735F90021884696
:102AD400FFF708F90027FFF7DCF800218946FFF724
:102AE400B3F800218946FFF77FF800218946FFF7F4
:102AF4004BF800218946FFF715F800218946FEF7B7
:102B0400E1FF0024A146FEF7ADFFE44B092676421F
:102B1400F7171B1B19000F2421400A009C460023B1
:102B240001200021B6185F4180185941002F00D1BF
:102B340050E1002463461B061E0F002722000023D9
:102B440092197B410A267642F717B6185F41002F87
:102B540000D056E1092E00D953E10F24951D2540DC
:102B64002A00002301261D016346170F14011B05CB
:102B74003D4324184D413200180F00210023121840
:102B84004B410A204042C11780185941002900D006
:102B940035E1092800D932E1901D0F3108400200C7
:102BA4000023012619026346170E100239431B0441
:102BB40024184D413200180F0021002312184B41F4
:102BC4000A204042C11780185941002900D014E15D
:102BD400092800D911E1901D0F310840020000239B
:102BE400012619036346170D100339431B032418E8
:102BF4004D413200180F0021002312184B410A20C6
:102C04004042C11780185941002900D0F3E0092837
:102C140000D9F0E0901D0F31084002000023012686
:102C240019046346170C100439431B0224184D4140
:102C34003200180F0021002312184B410A20404291
:102C4400C11780185941002900D0D1E0092800D9C2
:102C5400CEE0901D0F3108400E3902000023884653
:102C640019056346160B1B010027314310051E0F7F
:102C74004246002392197B410A267642F717B6187A
:102C84005F4100196941002F00D0AEE0092E00D940
:102C9400ABE00F24951D25400E3C2A000023A046DE
:102CA4001D066346160A354314061E0F00274246C6
:102CB40000230019694192197B410A246442E517F3
:102CC400A4185D41002D00D08DE0092C00D98AE0C4
:102CD4000F24951D25402A000023012617091D07EE
:102CE40014073D4324184D41002233000F21A4183A
:102CF4005D4121400A0000230A204042C1171218F6
:102D04004B41002B00D100E221060A0F00230A20C8
:102D14004042C11712184B41002B00D1E8E12105B4
:102D24000A0F00230A204042C11712184B41002BFE
:102D340000D1CFE121040A0F00230A204042C11729
:102D440012184B41002B00D1B6E121030A0F0023D6
:102D54000A204042C11712184B41002B00D19DE1BB
:102D640021020A0F00230A204042C11712184B41C6
:102D7400002B00D184E121010A0F00230A204042E4
:102D8400C11712184B41002B00D16BE12901220F0E
:102D94000A430A204042C1172B0F12184B41002B43
:102DA40001D0FFF741FB052A01D9FFF73DFBC02203
:102DB4000023D205A4185D41394822002B000AF0F3
:102DC4002BFAFFF731FB22002B003648FEF7B4F94B
:102DD400FFF7F7F8092E00D9ABE6073222401000BE
:102DE40000210E3CA6E6002678E70024A04657E71B
:102DF4000021884634E7002612E70026F1E6002683
:102E0400D0E60026AFE60026ABE50023984680E531
:102E14000024A44658E50024A44630E500239C463B
:102E240008E500239C46E0E400239C46B8E4002126
:102E34008C4690E400218C4668E4002635E40026A4
:102E440003E40026FFF7CFFB0026FFF79AFB0021DF
:102E54008C46FFF766FB00239C46FFF735FB0528ED
:102E640001D9FFF753F806220023A4185D410C484A
:102E740022002B000AF0D0F9FFF748F8052A01D9FF
:102E8400FFF779FA06220023A4185D4104482200C2
:102E94002B000AF0C1F9FFF76EFAC0469999990020
:102EA400F4F30120B0F40120052A01D9FFF75EF8FC
:102EB400C0220023D202A4185D41D34822002B0073
:102EC4000AF0AAF9FFF752F8052A01D9FFF75AF8D0
:102ED400C0220023D203A4185D41CB4822002B005A
:102EE4000AF09AF9FFF74EF8052A01D9FFF756F8C8
:102EF400C0220023D204A4185D41C34822002B0041
:102F04000AF08AF9FFF74AF8052A01D9FFF70AF807
:102F140060220023A4185D41BB4822002B000AF064
:102F24007BF9FEF7FFFF052A01D9FFF707F8C02256
:102F34000023D200A4185D41B34822002B000AF0FC
:102F44006BF9FEF7FBFF052A01D9FFF734F8C0221D
:102F54000023D205A4185D41AB4822002B000AF0DF
:102F64005BF9FFF728F8052A01D9FFF710FA602268
:102F74000023A4185D41A44822002B000AF04CF958
:102F8400FFF705FA052A01D9FFF70DFAC02200233D
:102F9400D200A4185D419C4822002B000AF03CF9A1
:102FA400FFF701FA052A01D9FFF709FAC022002325
:102FB400D201A4185D41944822002B000AF02CF998
:102FC400FFF7FDF9052A01D9FFF705FAC02200230E
:102FD400D202A4185D418C4822002B000AF01CF98F
:102FE400FFF7F9F9052A01D9FFF701FAC0220023F6
:102FF400D203A4185D41844822002B000AF00CF986
:10300400FFF7F5F9052A01D9FFF7FDF9C0220023DE
:10301400D204A4185D417C4822002B000AF0FCF87D
:10302400FFF7F1F9052A01D9FFF7FAF9C0220023C5
:10303400D205A4185D41744822002B000AF0ECF874
:10304400FFF7EEF9052A01D9FEF784FFC022002319
:10305400D201A4185D416C4822002B000AF0DCF870
:10306400FEF778FF052A00D990E6C0220023D20497
:10307400A4185D41644822002B000AF0CDF885E6CF
:10308400052A00D977E6C0220023D203A4185D41A3
:103094005D4822002B000AF0BFF86CE6052A00D92F
:1030A4005EE6C0220023D202A4185D4156482200E5
:1030B4002B000AF0B1F853E6052A00D945E6C022F0
:1030C4000023D201A4185D414F4822002B000AF0CE
:1030D400A3F83AE6052A00D92CE6C0220023D20040
:1030E400A4185D41484822002B000AF095F821E617
:1030F400052A00D913E660220023A4185D41424842
:1031040022002B000AF088F809E6052A00D9FBE51D
:1031140006220023A4185D413B4822002B000AF03C
:103124007BF8F1E5052800D933E406220023A4182E
:103134005D41354822002B000AF06EF829E4052A87
:1031440000D976E4C0220023D205A4185D412E489C
:1031540022002B000AF060F86BE4052A00D95CE435
:10316400C0220023D204A4185D41274822002B006A
:103174000AF052F851E4052A00D943E4C02200239E
:10318400D203A4185D41204822002B000AF044F821
:1031940038E4052A00D92AE4C0220023D202A41864
:1031A4005D41194822002B000AF036F81FE4052A75
:1031B40000D911E4C0220023D201A4185D411248B1
:1031C40022002B000AF028F806E4052A01D9FFF7AB
:1031D400F8FBC0220023D200A4185D410A48220053
:1031E4002B000AF019F8FFF7ECFB052A01D9FFF7C9
:1031F400DCFB60220023A4185D41034822002B005D
:103204000AF00AF8FFF7D1FBF4F30120F0B5DE462B
:1032140057464E464546E0B5384889B009F0A6FE03
:103224009C239A46364B374C9846374BA2449946D2
:10323400364B9B4609E05A463100009248463A0014
:103244000C3409F0E9FF544516D02668676831004C
:103254003A004046A568FDF7C1FF01950300854289
:10326400E9D12B4B3A00009331002B0048460C3433
:1032740009F0D2FF5445E8D1264809F077FE264BE1
:103284009846264B9B4610E0204B029004930391F2
:103294002B00220058460096019709F0BDFF182321
:1032A4009C461F4BE04498451ED043461C685D680D
:1032B4009E68DF681B693200994643465B692000BB
:1032C4009A4629003B00FEF753FB4B4606935346B0
:1032D40007938145D8D18A45D6D10D4B04934B46EB
:1032E400029353460393D3E70A2009F0EDFD09B096
:1032F4003CBC90469946A246AB46F0BDE8F401209A
:10330400D0B202201C2D0220FCF4012020F5012063
:1033140028F5012030F501209826022044F50120EB
:10332400D027022010B5072918D8072A2DD9130051
:10333400083B012B11D86032D200821814685368FC
:1033440022011B0F12091B071343194A2402C83117
:103354001340240A890023430B5010BD0B00083B83
:10336400012BFAD81300083B012B15D9072AF4D8EE
:10337400C8329200135860311A0FC9001B0240185A
:1033840012071B0A03604260E7E7C8329200135831
:10339400C83189000B50E0E760326031D200C900C7
:1033A400821840185368126802604360D5E7C0462B
:1033B400FFFFFFF070B506000C001500072905D8C3
:1033C400072A21D91748FDF7B7FE70BD0A00083A4D
:1033D400012AF7D82A00083A012AF3D81A00083A31
:1033E400012AEFD860336035DB00ED00C3184519BE
:1033F4001A685B6828686968FEF7BAFA6034E40002
:10340400341920606160E0E7072BDBD8C833C83586
:103414009B00AD001A582958FDF7E0FEC834A400FB
:103424003051D2E774F5012070B505000C0007296E
:1034340005D8072A26D91D48FDF77EFE70BD083938
:103444000129F8D8110008390129F4D819000839DC
:103454000129F0D8B0216033DB00C3181E685B6813
:1034640009061B0160321B090B43D10041183200CD
:1034740008684968FEF77CFA6034E4002C1920607F
:103484006160DBE7072BD6D8B021C8339B001B58FB
:1034940009061B011B09C8320B43920011581A007C
:1034A400FDF79CFEC834A4002851C7E774F5012039
:1034B400F8B5CE4647460C0280B5260A002C49D002
:1034C400170242D0002B00D070E00F25130F0E0F0F
:1034D400120E090E29409C46240A3F0A1540A942AF
:1034E4003ADD4B1B002B24DD2211012B00D1EBE034
:1034F4002212022B00D1E7E02213032B00D1E3E0D8
:103504002214042B00D1DFE02415052B11D09C1FBD
:10351400062B0ED0DC1F072B0BD0013C082B08D048
:10352400013C092B05D0013C23005A4253415B4224
:103534001C40634631071A0721433A43FDF74EFE08
:103544006B492D060840284300E008000CBC904657
:103554009946F8BD1000F9E76B1A002B24DD3A11E7
:10356400012B00D1ADE03A12022B00D1A9E03A13AD
:10357400032B00D1A5E03A14042B00D1A1E03F15A0
:10358400052B11D09F1F062B0ED0DF1F072B0BD04E
:10359400013F082B08D0013F092B05D0013F3B0018
:1035A4005A4253415B421F400D00C2E70B0F0D010D
:1035B40098460C0033002D0F062D2ED0F024240441
:1035C40021421ED1042D1CDC3301691C234200D08E
:1035D40084E005297AD03302A91C23427ED105292F
:1035E40074D0F02133030904EC1C0B4278D1052C70
:1035F4006CD0330404350B4203D1042D66D133055A
:103604000135414609070C00090F88462D072D098D
:103614001B022C431B0A2D0E1C4313019446160F48
:103624001B0F3F0A062B37D0002F35D0F021090499
:1036340089460A4225D1042B23DC591C8C46494671
:103644003A010A4247D16146052941D0991C8C466A
:1036540049463A020A423ED16146052938D0D91C6E
:103664008C4649463A030A4235D1614605292FD092
:1036740049463A0404330A4237D1042B32D13F0578
:103684000133360732001B071B093F021A433F0A66
:103694001743BC46360F1B0E424611076246013BD8
:1036A400013D1B072D071B09360712022D092402B1
:1036B4003343120B240B29431A43214317022402D8
:1036C40003E717000D0034E7140032E7052598E7F7
:1036D40005231700D5E763461700D2E70D0090E7EE
:1036E40025008EE717000523CBE71700C9E7C0467E
:1036F400FFFFFFF0F8B5CE464746050080B5160F2C
:103704000A2E57D010000B2E05D11001A02200095B
:1037140012061043013E0C02220A9446002C43D0A8
:10372400020245D0002B00D075E0230A0F24170AAB
:10373400000E0A0F090E214094460440A14240DDC8
:10374400091B002924DD1A11012900D1FAE01A12FB
:10375400022900D1F6E01A13032900D1F2E01A1469
:10376400042900D1EEE01B15052911D08B1F062971
:103774000ED0CB1F07290BD0013B082908D0013BF1
:10378400092905D0013B19004A42514149420B40E5
:103794006146320709073A4328001943FDF71EFD25
:1037A400724A0240200610430CBC90469946F8BD6C
:1037B4000800F9E7B020120112090006104301368F
:1037C400A9E7641A002C24DD3A11012C00D1B6E0DB
:1037D4003A12022C00D1B2E03A13032C00D1AEE02D
:1037E4003A14042C00D1AAE03F15052C11D0A71FD0
:1037F400062C0ED0E71F072C0BD0013F082C08D055
:10380400013F092C05D0013F3C006242544164420F
:1038140027400C00BCE70B0F0F0199460C006346D0
:103824003F0F062F34D0F0242404214224D1042F46
:1038340022DC1B01791C234200D08DE0052900D134
:1038440082E063461B02B91C234200D084E00529B0
:103854007AD06346F0211B030904FC1C0B427DD182
:10386400052C71D063461B0404370B4204D1042F8A
:103874006AD1634601371B05494609070C00090F45
:1038840089463F073F091B023C431B0A3F0E1C436A
:103894000301B44680461B0F120A062B38D0002AB7
:1038A40036D0F02109048846084225D1042B23DCB4
:1038B400591C8C464146100108424AD161460529EB
:1038C40044D0991C8C4641461002084241D16146BD
:1038D40005293BD0D91C8C4641461003084238D1F7
:1038E4006146052932D0404611040433014237D1E0
:1038F400042B37D112050133360731001B071B098E
:1039040010021943000A320F0843944680461B0EE6
:103914004A4611076246013B1B071B0912071A435B
:103924004346013F3F0718023F092402000B240BC2
:10393400394310432143160F24020202F5E617000F
:103944000C0025E7130023E7052795E7052302006C
:10395400D2E763460200CFE70F008DE727008BE72D
:103964000A00C9E70A000523C6E7C046FFFFFFF0C7
:10397400F0B54546DE4657464E46E0B5080F85B0DD
:103984000090100F01900F200D021302090E120E69
:10399400014010402D0A1B0A02910390814200DC71
:1039A40080E02F00EC171D000623A021994609068C
:1039B400093300209B468A460C430D4311E03B0F1C
:1039C40024011C4353462D0124012D0A24091C43C0
:1039D4001D4301235B429C46E1444B463F01002BBF
:1039E40014D05B462B4098465B462B42E7D023001D
:1039F40000264446A8461D003A002B000136FDF778
:103A0400B7FFA642F8D12C004546D8E7039C029B99
:103A1400A446F024634424021A0021420CD00FE08F
:103A2400050F0B012B431B01090F1B090907194340
:103A340000010132214203D10B041B0C0343EFD1DB
:103A44000B07000918430B011B0A19070009084357
:103A54001B091907000908431B0919070009084332
:103A64001B091907000908431B091B070009184310
:103A74000E4B063A18401206009B1043019A0001AF
:103A84009B1A5A425341B022120694465B421B07CA
:103A940063440009184305B03CBC90469946A246CD
:103AA400AB46F0BD1F00DC177EE7C046FFFFFFF00A
:103AB400F0B54546DE4657464E46E0B50B0F93B08B
:103AC4000F930B0180461D0F08020D95000A062D69
:103AD40033D0002831D0F0231B04194227D1042D00
:103AE40025DC01016C1C194200D044E2052C00D1F4
:103AF40048E20102AC1C194200D03CE2052C00D182
:103B040040E20103EC1C194200D034E2052C00D140
:103B140038E2F0210435030409040D950B4200D06A
:103B24003CE2042D00D035E2052300050D930D9BE6
:103B340000021B071B0F000A0D93130F10931301B0
:103B44001D0F13020E951B0A062D32D0002B00D137
:103B540045E1F0242404224225D1042D23DC1A015A
:103B6400691C224200D003E2052900D106E21A02B0
:103B7400A91C224200D0FBE1052900D1FEE11A0371
:103B8400E91C224200D0F3E1052900D1F6E1043515
:103B94001A040E95224200D002E2042D00D0F5E171
:103BA40005221B050E920E9A1B021207120F1B0A06
:103BB4000E92A024240622001A4393460443002BA9
:103BC40000D10CE1F0221204134200D0CDE1002117
:103BD4005B461B0101311342FBD0A0221B011B09D0
:103BE40012061A439346119106230793874BA02686
:103BF4009A465A465546360623010492049A1201FF
:103C040011098946934200D2E7E0002900D1E4E09B
:103C14002B021A0AB02349461B060B430593049B47
:103C240003921B021B0A02930B0E9A460B02190AFB
:103C34000691190B0891190C0991190D0A91190E85
:103C44001B0F0C93A0231B0613439B460B9101955A
:103C540033023700180A002B00D18EE0039B002B9F
:103C640009D0310F090701435A464046FDF7B6FA19
:103C7400674E064037002302190A002B00D175E075
:103C8400029B002B3CD0230F24015246240F5445A1
:103C940000DC75E0A41A002C24DD0A11012C00D1EB
:103CA4008DE00A12022C00D189E00A13032C00D102
:103CB40085E00A14042C00D181E00915052C11D0EB
:103CC400A11F062C0ED0E11F072C0BD00139082CA4
:103CD40008D00139092C05D001390C006242544145
:103CE400644221405446069AB0201B070006024352
:103CF40019434046FDF772FA454B24061840044325
:103D040023011A099145A3D9019DA021049A09060A
:103D14001201120A1143A0222D0212062D0B154383
:103D2400079A0491013A0792002A00D066E70E9A96
:103D34000D9B9B1A119A05339B1A062B51DC0F9A83
:103D44001806109B38439B1A5A425341B02212065C
:103D540094465B421B07000163440009184313B0F7
:103D64003CBC90469946A246AB46F0BD33023700B0
:103D7400059C180A002B00D070E7019E37007AE7F3
:103D8400101B00281DDD01281DD002281DD003288A
:103D94001DD004281DD005281DD0821F0628A3D0BD
:103DA400C21F0728A0D0013A08289DD0013A09284B
:103DB4009AD0013A504250414042024094E71100E7
:103DC40090E7069A90E7089A8EE7099A8CE70A9A90
:103DD4008AE70B9A88E70C9A86E7370095E70D483F
:103DE400BDE70F20F024390E0140013909073A0FCD
:103DF4001207090911433A02120B24050A43072B3F
:103E04000AD1034F0623174099E7C046000010A0CB
:103E1400FFFFFFF0999999A0110E01400139150F88
:103E2400090621402D0712032943120C0A43082BCB
:103E3400E7D0110E01400139150F090621402D0765
:103E440012042943120D0A43092BDAD0110E014042
:103E54000139150F090621402D0712052943120EB9
:103E64000A430A2BCDD0110E01400139150F090662
:103E740021402D0712062943120F0A430B2BC0D0F1
:103E8400110E014001390906120F214012070A439D
:103E94000C2BB6D0110E01400139150F0906214033
:103EA4002D0712022943120B0A430D2BA9D0110E20
:103EB4000140013909060C40110F090712030C4394
:103EC400120C22430E2B9CD0110E01400400F02052
:103ED4000139150F090709092D0712042943120D89
:103EE40000050A43A3428CD0110E21400139150F5D
:103EF400090601402D0712052943120E0A43102B0F
:103F040000D17EE7110E21400139150F0906014049
:103F14002D0712062943120F0A43112B00D170E713
:103F2400110E214001390906120F014012070A43FC
:103F3400122B00D165E7110E21400139150F090636
:103F440001402D0712022943120B0A43142B00D0FF
:103F540057E7130E2340013B110F1B0603400907CB
:103F640012030B43120C1A434BE7002311933BE655
:103F740013000E9117E608000D94D8E505230E935F
:103F8400130010E6052308000D93D0E51300052265
:103F94000E9208E6180005230D93C8E51800C6E53F
:103FA400130000E6F8B5E1239B00C5580400002D7A
:103FB40000D091E01C3BC3581B0F062B00D88CE0AB
:103FC400073B022B00D9D6E0DC239B00C358002B0F
:103FD40000D0EFE00F21DB2308009B00E25800270C
:103FE40010400600093E431C092E00D8DAE00F20D9
:103FF40011090140C9190F000A3F0026092F00D8F2
:10400400CCE00F20170A0740BF193E0009010A3E01
:10401400CB180021092E00D8BCE00F20160B064057
:1040240076183F02FF1833000A3B0021092B00D801
:10403400ACE03303DB190F27100C384040180100A3
:104044000A390026092900D891E00004C3180F207A
:10405400110D014089190F000A3F0026092F00D8CD
:1040640090E00F200905C918130E03409B191E0088
:104074000A3E092E00D882E00F221B065B181D029F
:1040840013400A3B2D0A052B00D8C1E02B061B0F59
:104094000A3B052B00D8B5E02B051B0F0A3B052B6B
:1040A40000D8A6E02B041B0F0A3B052B00D897E091
:1040B4002B031B0F0A3B052B00D888E02B021B0F98
:1040C4000A3B052B00D879E0FF231D40DB230022A7
:1040D4009B00E5500433E250F8BDDC239B00C2583A
:1040E400002A64D0043BC2580F231F0017403E002F
:1040F400093E0021781C092E03D807373B401800DD
:1041040001310F2716093E40761831000A39002381
:10411400092902D806363E40013331010F26091819
:10412400100A3040C01803000A3B0027092B02D8AC
:10413400063030400137000241180F20160B0640AC
:10414400F619330000270A3BBC46092B03D8012388
:104154009C46063606400F27100C38403303604453
:104164005B1801000A390026092900D96DE70630D9
:104174003840013669E72948FCF7DEFFACE706332F
:10418400034079E70631014001366AE70636064006
:1041940001314EE70637074001313EE70631014061
:1041A40001362EE70B000730034001371FE70122D9
:1041B400C25091E71A48FCF7CDFF0BE7C023DB039D
:1041C4009C4665442900174809F026F87CE7C0237B
:1041D400DB029C4665442900124809F01DF86DE78E
:1041E400C023DB019C46654429000E4809F014F8FD
:1041F4005EE7C023DB009C4665442900094809F0BA
:104204000BF84FE760352900064809F005F843E745
:1042140006352900034808F0FFFF37E7D4F50120ED
:10422400B0F50120E4F30120DB23F0B5544C9B00EE
:10423400C646E2580433E3582126591E8B4100B583
:10424400504F5B425049334096B020333800884683
:1042540007F0BEFF4D4D4E493A00280007F0B8FF65
:10426400DD239B00E2580433E3583800591E8B4188
:104274005B4233402033414607F0AAFF3A004549E8
:1042840002A807F0A5FF02A9280015F057FED423C1
:10429400414E9B00E25841490023300007F098FF4B
:1042A40032003F4902A807F093FF02A9280015F045
:1042B40045FEDA239B00E2583A4902A807F088FF3A
:1042C40002A9280015F03AFEF721F523E02289001F
:1042D40061589B009200E358A25802A80091324909
:1042E40007F076FF280002A915F028FED7239B00CB
:1042F400E258531C3ED0FF232C4E1A4030002C4968
:1043040007F066FF32002B4902A807F061FF28007E
:1043140002A915F013FED8239B00E258531C2DD09C
:10432400FF23224E1A403000214907F051FF32008A
:10433400214902A807F04CFF280002A915F0FEFD50
:10434400D9239B00E258531C16D0FF23174C1A4064
:104354002000174907F03CFF2200184902A807F083
:1043640037FF280002A915F0E9FD280016B004BCA7
:104374009046F0BD124AC6E7114AEEE7104AD7E765
:10438400D0B202201CB00220F0F20120D8B00220EA
:1043940028F601203CF601209CAF022050F60120B3
:1043A40058F601206CF6012084F60120ECAF0220BF
:1043B40008F10120ACF60120C0F60120D4F601205A
:1043C40024F60120F0B5D6464F4646465F48C0B5B0
:1043D40008F022FF5E4808F01FFFFFF725FF0100E9
:1043E4005C4808F019FF5C4B002499465B4B5C4D1C
:1043F40098465C4E5C4F0DE022324146380007F08F
:10440400E7FE3A0021003000013408F005FF0435CE
:10441400082C1AD02B685A1C00D18CE01A0F1B01EF
:104424001B090A2A00D184E00B2AE5D04E49043541
:104434008A464E49504607F0CBFE210052463000D2
:10444400013408F0E9FE082CE4D1D023484C9B0049
:10445400E3180CCB511C00D16FE0464D46492800AF
:1044640007F0B6FE2A000821300008F0D5FED2235A
:104474009B00E3180CCB511C64D03E4D3E492800F0
:1044840007F0A6FE2A000921300008F0C5FE0A2024
:1044940008F01AFD394808F0BFFE394808F0BCFEA0
:1044A4008023DB00E15C374808F0B6FEEA239B007A
:1044B400E158354808F0B0FEEB239B00E15833483F
:1044C40008F0AAFEEC239B00E158314808F0A4FE52
:1044D400EE239B00E258043BE1582E4808F09CFE72
:1044E400E1239B00E1582C4808F096FEF8239B003A
:1044F400E1582A4808F090FE0A2008F0E5FC284814
:1045040008F08AFE274808F087FE274B27481968D9
:1045140008F082FE264B2748196808F07DFE264BDA
:104524002648196808F078FE1CBC90469946A246B5
:10453400F0BD2B2261E74A4664E7591C00D08CE7A2
:10454400054A90E7591C98D1034A9CE7F4F60120E8
:10455400FCF6012004F70120E8F6012014F70120FD
:10456400F0B502201CF701208CAF022008F70120CF
:10457400D0B202209CAF022050F601202CF701207B
:1045840038F7012044F701205CF7012070F701207F
:1045940084F7012098F70120BCF70120D0F701200F
:1045A400E4F70120ECF7012068B00220F4F70120C1
:1045B4005CB0022010F801206CB002202CF801201D
:1045C40030B5B3B0050003F0C5FE184804F0F2F8A6
:1045D400041E1FD02900164807F0FAFD28001549CB
:1045E40014F0F6F9041E18D0134D03E069462800B0
:1045F40008F012FE2200C721684614F07BFA002856
:10460400F4D1200014F058FA012403F0C1FE200074
:1046140033B030BD03F0BCFEF9E72900074808F0C9
:10462400FBFD002403F0B4FEF1E7C04604F00120D2
:1046340048F80120D00A022058FA012058F8012035
:10464400F0B5B3B0050003F085FE214804F0B2F8DC
:10465400041E32D029001F4807F0BAFD28001E4965
:1046640014F0B6F9061E2BD01C4F3200C721684641
:1046740014F040FA002817D06B461B782A2BF4D18B
:10468400174C250050356A46210038006368984766
:104694000028EAD10834AC42F5D13200C72168467B
:1046A40014F028FA0028E7D1300014F005FA0124A8
:1046B40003F06EFE200033B0F0BD03F069FEF9E7AD
:1046C4002900084808F0A8FD002403F061FEF1E782
:1046D40004F0012048F80120D00A0220D0B20220C0
:1046E400E02A022058F8012010B501000400074810
:1046F400FFF7A6FFFE23002000219B00E3181860AB
:104704005960FC2301229B00E25010BDE0BC022052
:1047140010B502490248FFF793FF10BDD0B2022042
:104724006CF80120F0B5C64600B55B4C0500A54405
:1047340001A815F06FFC01A9584808F06DFD03F0BD
:1047440009FE574804F036F8041E00D195E00A2209
:1047540001A906A810F074FA002874D1514906A8DA
:1047640012F016FFDB239B00EA584F4906A812F00B
:104774000FFFDC239B00EA584C4906A812F008FFFF
:10478400D4239B00EA584A4906A812F001FFD72314
:104794009B00EA58474906A812F0FAFED8239B006A
:1047A400EA58454906A812F0F3FED9239B00EA58BB
:1047B400424906A812F0ECFEDA239B00EA5840496D
:1047C40006A812F0E5FEDF239B00EA583D4906A83F
:1047D40012F0DEFEC82300249B003B4FEE1822009B
:1047E400390008CE06A8013412F0D2FE082CF6D106
:1047F400C823364C9B0021000822EB5806A812F06F
:10480400C7FEC9239B002100EB58092206A812F019
:10481400BFFE2F4906A812F0BBFE2E4B002407262C
:1048240098462D4F08E0A3003900EA5806A8013441
:1048340012F0AEFEC82C13D02642F4D1414606A88D
:1048440012F0A6FEEFE7254808F0E6FC002403F08A
:104854009FFD20009E239B009D4404BC9046F0BD18
:104864001F4906A812F094FE06A811F051FE041E7A
:1048740006D103F08DFD0124EBE703F089FDE8E7A1
:1048840014F09AF822000100164808F0C5FC002430
:1048940003F07EFDDDE7C04688FDFFFF78F80120C8
:1048A40004F0012090F80120BCF80120D0F8012088
:1048B400E4F80120F8F8012014F9012030F901206E
:1048C4004CF9012068F9012080F901208CF90120BC
:1048D4009CF90120A8F90120ACF9012084F80120F9
:1048E400ACF30120B4F9012030B504000C4D85B0BF
:1048F4002A000C4B0C490D4803F0D0FF0C4B290047
:104904001A686846013207F063FC69462000FFF725
:1049140009FF6946074808F07FFC05B030BDC04672
:10492400D8F90120CCF90120E8F9012004F0012094
:1049340068AF0220F4F9012010B5094803F032FDF4
:10494400002808D0074C08482100FFF7EBFE2000A0
:10495400FFF736FE10BD0549054808F05DFCF1E798
:1049640004F001206CF80120D0B2022018BC02200F
:104974000CFA0120002370B5204D0C002B7082B07E
:104984000B00072916D9083B012B02D9280002B0D5
:1049940070BD1B4ED0339B001A581A4900233000B7
:1049A40007F016FC230010212800174A009607F090
:1049B40023FCEBE7C8339B001B585A1C1CD01A0F6E
:1049C4001B011B090A2A15D00B2A0CD122320F4EC7
:1049D4000F49300007F0FCFB3300220028000A498D
:1049E40007F0F6FBD2E7094E0A49300007F0F0FB66
:1049F4003300F2E72B22EAE7074BEEE7ACAF0220E5
:104A04009CAF022050F601202CFA01208CAF02202A
:104A140014F7012008F70120E8F601200022F8B578
:104A24001E4C03002280020F0A2A32D00B2A08D01F
:104A3400092A30D81A4D02001A49280007F0C8FB89
:104A440025E02D27164D3A00174928001E0107F0CE
:104A5400BFFB3A001549200007F0BAFB0622360FC7
:104A6400921BE91C200015F011FB200015F0DAFA66
:104A740002220F49201808F01DF9A91B0931320040
:104A8400200015F003FB2100280015F0C3FA2800CC
:104A9400F8BD2B27D6E72027D4E7C0460CB0022068
:104AA400FCAF022078F9012034FA0120F4F201204D
:104AB4003CFA0120F8B500240E4E0F4F0CE020CE36
:104AC4002800FFF7ABFF210003002A00380001345F
:104AD40008F0A2FBC82C09D00521200007F02CFC0B
:104AE4000029ECD10A2008F0EFF9E8E70A2008F0E1
:104AF400EBF9F8BDD0B2022040FA0120D423CD2135
:104B040070B59B00C35804001A0290B0120A490001
:104B14008A4253D2A0221B011B0912061343D62634
:104B2400D422B600A35100239200A3500432A35010
:104B3400DB239B00E2580433E358224D591E8B417A
:104B4400594221230B4020331F49280007F040FB22
:104B54000122012120001D4B0095FCF7B3F9A25955
:104B6400531C2DD0FF231A4D1A402800194907F071
:104B74002FFBA25912011849120903A807F028FBB8
:104B840002AA164903A815F039F9C723029A9342D9
:104B940002DDD343DB1713409B001859FFF73EFF98
:104BA40006220190012120000D4B0095FCF706FA26
:104BB400FC2301229B00E25010B070BD094BAEE70C
:104BC400094DD7E71CB00220F0F20120F8F20120D1
:104BD400ECAF022008F101201CEF01205007022055
:104BE4005CFA0120990100A024F60120F0B5C64624
:104BF400D42300B59B00C5580833C258354F90B034
:104C0400120139001209040003A807F0E1FA324E38
:104C140002AA310003A815F0F1F8C723029A9342BF
:104C240002DDD343DB1713409B00D4221D51002324
:104C34009200A3500432A350DB239B00E2580433B8
:104C4400E358264D591E8B41594221230B4028001D
:104C54002349203307F0BCFA0095D625012201210F
:104C64002000204BAD00FCF72DF96259531C2FD0C6
:104C7400FF231A401C4B1D499846180007F0A8FA58
:104C84006259454612013900120903A807F0A0FA37
:104C940002AA310003A815F0B1F8C723029A93427F
:104CA40002DDD343DB1713409B001859FFF7B6FE10
:104CB40006220190012120000D4B0095FCF77EF99E
:104CC400FC2301229B00E25010B004BC9046F0BDCE
:104CD400084DD7E71CEF0120500702201CB002202A
:104CE400F0F20120F8F20120ECAF022008F10120DB
:104CF4005CFA012024F6012070B5D625AD00244AC3
:104D0400415990B00400FCF769FACD230002000A6F
:104D14005B0098422ED399221E4BD6261E4DB60018
:104D2400A3511E49280007F053FAA2591C49120145
:104D3400120903A807F04CFA02AA1A4903A815F0AD
:104D44005DF8C723029A934202DDD343DB17134075
:104D54009B001859FFF762FE0622019001212000F2
:104D6400114B0095FCF72AF9FC2301229B00E25029
:104D740010B070BD064A20006159FCF72FFAA02339
:104D8400020112091B061343FF220240C5E7C04675
:104D9400010000A0990100A0ECAF022008F101205D
:104DA4001CEF0120500702205CFA012070B5D625C3
:104DB400AD00244A415990B00400FCF70FFACD230A
:104DC4000002000A5B0098422ED399221E4BD6267D
:104DD4001E4DB600A3511E49280007F0F9F9A25947
:104DE4001C491201120903A807F0F2F902AA1A4990
:104DF40003A815F003F8C723029A934202DDD343B4
:104E0400DB1713409B001859FFF708FE0622019098
:104E140001212000114B0095FCF7D0F8FC2301225E
:104E24009B00E25010B070BD064A20006159FCF7A7
:104E3400D5F9A023020112091B061343FF220240E5
:104E4400C5E7C046010000B0990100A0ECAF022004
:104E540008F101201CEF0120500702205CFA012018
:104E6400D423F0B54746CE469B00C65880B5370FCD
:104E74003B000A3B050083B00B39012B2DD9D52308
:104E84009B00C358002B28D136018919D424DB2375
:104E9400A40029519B00EA580433EB582A4E591EAA
:104EA4008B41594221230B4020332849300007F01D
:104EB4008FF92859FFF7B2FD012201900121280042
:104EC400234B0096FBF7FEFFFC2301229B00EA50D4
:104ED40003B00CBC90469946F0BD33021A0A9046C2
:104EE4003201120F91461B09CC182100194808F011
:104EF40093F94B46002B10D0591C062B1CD1C02211
:104F0400D20433011B0939071943134B1940434693
:104F14001143090E09061943B8E7D5239B00EB5842
:104F24002402002B04D08022230A98465204E8E786
:104F3400230A98460022E4E7F02224020906120517
:104F4400230A98460A40DCE71CB00220F0F2012054
:104F540074FA012064FA0120FFFFFFF0F0B5D523B5
:104F6400D4250126A022AD009B00C6504359120649
:104F74001B021B0A13434351DB239B00C258043317
:104F8400C3580400591E8B41594221230D4F0B4035
:104F940087B00D492033380007F01AF96059FFF73C
:104FA4003DFD3A000300094901A807F011F901ABDE
:104FB400012201212000FBF785FFFC239B00E65022
:104FC40007B0F0BD1CB00220F0F2012074FA0120F9
:104FD40070B5D425B022AD00435912061B011B093C
:104FE40013434351DB239B00C2580433C3580400CA
:104FF400591E8B41594221230E4E0B4086B00E4957
:105004002033300007F0E4F86059FFF707FD320061
:1050140003000A4901A807F0DBF801AB01220121D2
:105024002000FBF74FFFFC2301229B00E25006B057
:1050340070BDC0461CB00220F0F2012074FA0120B9
:1050440008B4F0B54746CE4680B5E6B06DAB20CB8C
:1050540006000F0014000193062A07DD11002748FB
:1050640008F0DAF8264807F081FFFEE7C8212A0095
:10507400490002A807F0D4F802A814F0D3FF1028BE
:1050840030D8013CE3001B195B001C191D4B2A009E
:10509400E4181021019B200007F0C2F8200014F04E
:1050A400C1FF0F252D1A002D11DD00239846164B44
:1050B400994602E0200014F0B5FF02224946201868
:1050C40007F0F8FD01239C46E0444545F2D1FC235A
:1050D4009B00F75066B00CBC90469946F0BC08BCE7
:1050E40001B018472900094808F096F802A90848B1
:1050F40008F092F8024807F039FFC2E780FA01206D
:10510400E4F2012078BB022010FB0120C4F201204C
:10511400D0F20120F0B5CE464746002380B589B0D1
:1051240005AD04002B7200296CD0E2239B00C35808
:10513400073B022B6BD8DA239B00C258130F303382
:105144002B700F23110E194030316970110D194065
:105154003031A970110C19403031E970110B19402C
:1051640030312971110A194030316971110919401E
:10517400134030313033A971EB71F7239B00E358AE
:1051840033265A1E93415B421E40E1239B00E358A1
:105194002036002B56D1DB239B00E2580433E3581E
:1051A4002127591E8B4139495B42894638493B4086
:1051B400884620334946404607F00AF84346012111
:1051C400012220000093334BFBF77CFEDD239B0080
:1051D400E2580433E3584046591E8B415B423B403E
:1051E4004946203306F0F4FF8023DB00E35C02220F
:1051F40002934346012100932000274B0396019517
:10520400FFF71EFF09B00CBC90469946F0BDDE23A3
:105214009B00C358002B22D0204B0593DA239B001C
:10522400C1580F230A0B1A4030322A710A0A1A4055
:1052340030326A710A091A400B4030323033AA7195
:10524400EB719AE78023DB00E35C022201930121E6
:105254002000134B02960095FFF7F2FED2E7DA2303
:105264009B00C258130F30332B700F23110E1940BB
:1052740030316970110D120C194013403033EB704A
:10528400064B3031A970069377E7C046F0F201204F
:105294001CB00220A4FA0120ACFA01202020202016
:1052A40098FA0120F0B54546DE4657464E46E223BD
:1052B400E0B59B00C35804000D0093B0062B0FDC2F
:1052C400012B19DC05D8FEF76DFE29002000FFF73D
:1052D40021FF13B03CBC90469946A246AB46F0BDB4
:1052E400073B022BF5D8E3239B00C358092BF0D8C6
:1052F400CB4A9B00D3589F46E3239B00C658022EFB
:1053040004D052DC002E7BD0012EE2D12000FEF727
:1053140049FE29002000FFF7FDFE0322290020009A
:10532400C04BFFF78DFEED239B00E6580023BE4FD4
:105334003201BE49120905A83B7006F049FF04AAD0
:10534400BB4905A814F05AFDC723049A93427FDC95
:105354009B001859FFF762FB320003003800B5497F
:1053640006F036FFB44E04223300290020000097D3
:10537400FFF766FEEA239B00E1582000FFF7FAFAE4
:1053840033000522290000902000FFF759FEEB238B
:105394009B00E1582000FFF7EDFA3300009006224D
:1053A40029002000FBF70AFE93E7042E91D1FFF7B2
:1053B400B1FEED239B00E65800239B4F32019B492D
:1053C400120905A83B7006F003FF04AA984905A832
:1053D40014F014FDC723049A934241DC9B0018592E
:1053E400FFF71CFB320003009249380006F0F0FE80
:1053F400032229002000904B0097FFF721FE68E765
:10540400FEF7D0FD29002000FFF784FE03222900C7
:105414002000844BFFF714FEED239B00E358824FDA
:105424001A018249120905A898463E7006F0D0FE7A
:1054340004AA7F4905A814F0E1FCC723049A934207
:105444000ADC9B001859FFF7E9FA4246030085E796
:10545400D343DB1713407BE7D343DB171340F0E759
:10546400D343DB171340B9E7F3239B00C2586F4BB8
:1054740005AE12011900120930009A4606F0A8FE82
:1054840004AB99466A4B4A4619003000984614F01A
:10549400B5FCC723049A934202DDD343DB171340C0
:1054A4009B001F59F4239B00E25851461201120934
:1054B400300006F08DFE4A464146300014F09EFC52
:1054C400C723049A934202DDD343DB1713409B00A6
:1054D400390020001A59FEF7EBFAF2239B00E25838
:1054E4005146120112090700300006F071FE4A46C7
:1054F4004146300014F082FCC723049A934202DD33
:10550400D343DB1713409B001F512000FEF74AFDD5
:1055140029002000FFF7FEFDF2239B00E358424FD1
:105524009B4600233B705B461A015146120930002A
:1055340006F04EFE4A464146300014F05FFCC72395
:10554400049A934202DDD343DB1713409B0018599E
:10555400FFF764FA374A03001100029238005A46F2
:1055640006F036FE344B03222900200000970393F3
:10557400FFF766FDF3239B00E35851469B46002347
:105584003B705B461A011209300006F021FE4A46C0
:105594004146300014F032FCC723049A934202DDE2
:1055A400D343DB1713409B001859FFF737FA5A46C9
:1055B40003000299380006F00BFE042229002000A3
:1055C400039B0097FFF73CFDF4239B00E3585146EF
:1055D4009B4600233B705B461A011209300006F01B
:1055E400F7FD4A464146300014F008FCC723049AEC
:1055F400934202DDD343DB1713409B001859FFF796
:105604000DFA5A4603000299380006F0E1FD05221E
:1056140029002000039B0097FFF712FD59E6C046BE
:10562400D8FA0120BCFA0120CCAF02201CEF0120E3
:105634005007022054FA012058FA0120EF239B005E
:10564400C35805AE0293F3239B00C258CE4B1201FC
:105654001900120930009A4606F0BAFD04AB9946C7
:10566400CA4B4A4619003000984614F0C7FBC723BA
:10567400049A934202DDD343DB1713409B001F5966
:10568400F4239B00E258514612011209300006F03F
:105694009FFD4A464146300014F0B0FBC723049AEC
:1056A400934202DDD343DB1713409B001B592000B8
:1056B4009B46FEF777FC01235A4639002000FEF78B
:1056C40019F80002030A002805D1DB22029992008E
:1056D400A1500432A35029002000FFF71BFDEF2343
:1056E4009B00E35851469B46F2239B00E25830004E
:1056F4001201120906F06CFD4A464146300014F0CE
:105704007DFBC723049A934202DDD343DB17134086
:105714009B001859FFF782F95B469D4F032229002D
:105724000190009320003B00FFF78AFCF0239B00CC
:10573400E35851469B46F3239B00E2583000120184
:10574400120906F045FD4A464146300014F056FB66
:10575400C723049A934202DDD343DB1713409B0013
:105764001859FFF75BF95B46042229000190009366
:1057740020003B00FFF764FCF1239B00E3585146F3
:105784009B46F4239B00E25830001201120906F0F4
:105794001FFD4A464146300014F030FBC723049AEB
:1057A400934202DDD343DB1713409B001859FFF7E4
:1057B40035F95B460190009305223B002900200047
:1057C400FFF73EFC85E5EF239B00C35805AE02932B
:1057D400F3239B00C2586C4B1201190012093000CC
:1057E4009A4606F0F5FC04AB9946684B4A46190004
:1057F4003000984614F002FBC723049A934202DD5A
:10580400D343DB1713409B001F59F4239B00E2583A
:10581400514612011209300006F0DAFC4A464146AC
:10582400300014F0EBFAC723049A934202DDD34309
:10583400DB1713409B001B5920009B46FEF7B2FB6D
:1058440001235A4639002000FDF754FF030200D11A
:1058540041E7000F0A2800D03DE7DB23029A9B00B2
:10586400E25004330022E25035E7EF239B00C35893
:1058740005AE0293F3239B00C258434B1201190057
:10588400120930009A4606F0A3FC04AB99463F4B3C
:105894004A4619003000984614F0B0FAC723049A17
:1058A400934202DDD343DB1713409B001F59F423BB
:1058B4009B00E258514612011209300006F088FCA0
:1058C4004A464146300014F099FAC723049A934299
:1058D40002DDD343DB1713409B001B5920009B467A
:1058E400FEF760FB5B461A01A02339011B0612096F
:1058F40009091A4319439B4620000123FDF7FAFEC8
:10590400030200D1E7E6000F0007584500D0E2E6A5
:10591400A3E7F3239B00C2581B4B05AE12011900E9
:10592400120930009A4606F053FC04AB9946174B13
:105934004A4619003000984614F060FAC723049AC6
:10594400934202DDD343DB1713409B001F59F4231A
:105954009B00E258514612011209300006F038FC4F
:105964004A464146300014F049FAC723049A934248
:1059740002DDD343DB1713409B001A59390001237E
:105984002000FDF7B7FEA8E51CEF01205007022018
:10599400CCFA0120F3239B00C2585B4B05AE1201E5
:1059A4001900120930009A4606F012FC04AB99461D
:1059B400564B4A4619003000984614F01FFAC72384
:1059C400049A934202DDD343DB1713409B001F5913
:1059D400F4239B00E258514612011209300006F0EC
:1059E400F7FB4A464146300014F008FAC723049AEC
:1059F400934202DDD343DB1713409B0039002000A0
:105A04001A59FDF7B5FF68E5D4239B00C7587833CE
:105A1400C2583D4B05AE12011900120930009A46D6
:105A240006F0D6FB04AB9946384B4A4619003000C1
:105A3400984614F0E3F9C723049A934202DDD34352
:105A4400DB1713409B001F51F7239B000AE7F72243
:105A540001239200835018328350FEF7A3FA2900E1
:105A64002000FFF757FBEF239B00E35805AE9B464E
:105A7400F2239B00E258244B120119003000120952
:105A84009A4606F0A5FB04AB9946204B984633E6AC
:105A9400F3239B00C2581C4B05AE120119001209D6
:105AA40030009A4606F094FB04AB9946174B4A46DD
:105AB40019003000984614F0A1F9C723049A9342C0
:105AC40002DDD343DB1713409B001F59F4239B00D3
