:020000041000EA
:1000000000B5324B212058609868022188439860DF
:10001000D860186158612E4B002199600221596106
:100020000121F02299502B49196001219960352056
:1000300000F044F80222904214D00621196600F024
:1000400034F8196E01211966002018661A6600F04E
:100050002CF8196E196E196E052000F02FF8012189
:100060000842F9D1002199601B49196000215960AB
:100070001A491B48016001219960EB211966A021F2
:10008000196600F012F800219960164914480160C1
:100090000121996001BC002800D000471248134993
:1000A000086003C880F30888084703B5996A0420EC
:1000B0000142FBD001200142F8D103BD02B5186610
:1000C0001866FFF7F2FF186E186E02BD00000240BE
:1000D000000000180000070000035F00212200005C
:1000E000F4000018222000A00001001008ED00E03C
:1000F00000000000000000000000000074B24E7A12
:1001000000200420F7010010C3010010C5010010F9
:10011000C1010010C1010010C1010010C101001097
:10012000C1010010C1010010C1010010C701001081
:10013000C1010010C1010010C9010010CB01001065
:10014000CD010010CD010010CD010010CD01001037
:10015000CD010010CD010010CD010010CD01001027
:10016000CD010010CD010010CD010010CD01001017
:10017000CD010010CD010010CD010010CD01001007
:10018000CD010010CD010010CD010010CD010010F7
:10019000CD010010CD010010CD010010CD010010E7
:1001A000CD010010CD010010CD010010CD010010D7
:1001B000CD010010CD010010CD010010CD010010C7
:1001C00000BE00BE00BE00BE00BE00BEEFF3058054
:1001D000103800BEF2EB887190020010B4020010DB
:1001E0003802001090A31AE721482249086006C887
:1001F00081F30888104720480068002801D01C4877
:10020000F3E70DA40ECC002902D000F012F8F9E7B4
:100210001A491B4A002000E001C19142FCD1194952
:100220008847194988471949884700BEFDE701C931
:1002300001C29A42FBD37047B4020010C0000020F4
:1002400090E5012084E7011090E50120A8B3022089
:100250009CB5021000000420000004209CB5021090
:10026000001004200010042000000000704700006F
:100270000000000008ED00E0000000D0A8B302205C
:1002800054D702208DD40020817F00204DD400203F
:10029000501C02205C1C0220681C0220741C0220DE
:1002A000801C02208C1C0220981C0220A41C02200E
:0402B000901F022079
:1002B400F8B5C0460448054B10B5834203D0044B3F
:1002C400002B00D0984710BDA8B30220A8B3022089
:1002D4000000000006480749091A8B10C90FC91805
:1002E40010B5491003D0044B002B00D0984710BD23
:1002F400A8B30220A8B302200000000010B5074CE8
:100304002378002B09D1FFF7D5FF054B002B02D032
:10031400044800E000BF0123237010BD98BF0220F1
:100324000000000090E50120054B10B5002B03D020
:100334000449054800E000BFFFF7CCFF10BDC046EC
:10034400000000009CBF022090E501207047C046D9
:10035400F52301229B00C2507047C046F7230122B7
:100364009B00C2507047C04682220023D2008021E5
:1003740083500122C9004250083942508122D200E0
:10038400835070478222D200835801338350FE2366
:1003940001229B00C25070478222D2008358002B56
:1003A40001DD013B8350FE2301229B00C2507047B4
:1003B400802200230121D2008350083A8150103258
:1003C40083507047802300210122DB00C31806C339
:1003D400FE2301229B00C25000221033C2507047FA
:1003E40082220023D2008350103A83500133083A0A
:1003F40083501032835070478222D2008258054BBA
:1004040012019B1800225B681A60FE2301329B00D4
:10041400C25070474C9102208222D2008258054B70
:1004240012019B185A6801231360FE229200835024
:100434007047C0464C9102208223DB00C258002A38
:1004440001D10132C250FE2301229B00C2507047E9
:10045400FE220121014B92009950704770B6022090
:10046400084B0948094918605960094809499860C6
:10047400D9600948094918615961094807499861CF
:10048400D961704770B602206303520356005610B8
:10049400500553055205510554055305510751069E
:1004A400002400240A4AC8201168B8224A43094B90
:1004B40030B59B185969084C0023400003E0E25012
:1004C4000433834202D0CA58551CF8D130BDC0460B
:1004D40028D202204C92022070B60220B8220A4B85
:1004E40019680A4B4A431960094B01219B180022E1
:1004F40019611A76074B1960074B1960074B1A608C
:10050400074B1A707047C04628D20220B4D6022086
:100514004C920220BCD60220C0D602200CD6022067
:1005240010D60220FEE7C046D0220B4B0B480C49E4
:10053400920010B59C182060616000210948203A9F
:100544009A1803C2084A09481A600DF031FB0CCC12
:1005540007480DF02DFB10BD70B60220325476080A
:10056400305476085634120018141014E0F50120A3
:10057400F0F5012010B50E480DF098FA0D4B0E4819
:100584001A680E4B19680DF013FB0D4B0D481968D2
:100594000DF00EFB0C4B0D481A680D4B19680DF04D
:1005A40007FB0C4B0C4819680DF002FB10BDC0464C
:1005B40008F60120F8D1022018F6012000D202200A
:1005C400FCD102203CF6012008D2022054F601207E
:1005D400F0D1022004D2022068F6012010B5054CA7
:1005E400054821680DF0E4FA2068253808F03CF845
:1005F40010BDC0460CD2022074F6012010B50A20AA
:1006040008F032F810BDC04610B5092008F02CF8E7
:1006140010BDC04610B5152008F026F810BDC04620
:1006240010B5162008F020F810BDC04610B51720EC
:1006340008F01AF810BDC04610B5072008F014F8E9
:1006440010BDC04610B51A2008F00EF810BDC04603
:1006540010B5022008F008F810BDC04610B50620F9
:1006640008F002F810BDC04610B5052007F0FCFFE5
:1006740010BDC04610B5032007F0F6FF10BDC046FC
:1006840010B5042007F0F0FF10BDC046FE22002183
:1006940010B5034B92001820995007F0E5FF10BDE8
:1006A40070B60220FE22002110B5034B92001920DF
:1006B400995007F0D9FF10BD70B60220F0B50022A2
:1006C400C646114B114C00B525001A6000230127C2
:1006D40098460F4E183504E043462B7027610135C8
:1006E400B8343100206819F047FE0028F4D1012203
:1006F400084B1860084B1A60084B1860084B1870B8
:1007040080BCB846F0BDC046B4D602204C9202204C
:1007140078F60120BCD60220C0D602200CD60220D6
:1007240010D6022030B583B005000A49100001AA92
:1007340019F026FC0400012803D00024200003B093
:1007440030BDDB2301999B00E95003480DF030FADA
:10075400F4E7C04680F6012090F6012030B583B05E
:1007640005000A49100001AA19F00AFC0400012836
:1007740003D00024200003B030BDDC2301999B008A
:10078400E95003480DF014FAF4E7C046A8F6012036
:10079400B8F60120002330B583B005000A491000E3
:1007A40001AA019319F0ECFB0400012803D00024F2
:1007B400200003B030BDD42301999B00E9500348C5
:1007C4000DF0F6F9F4E7C046D0F60120E0F601207A
:1007D40010B582B001AB0400114910006A4619F04B
:1007E400CFFB0023022802D0180002B010BD0099EC
:1007F400019A01290BD002290DD0002902D1D72357
:100804009B00E25007480DF0D3F90123ECE7D8230D
:100814009B00E250F6E7D9239B00E250F2E7C04682
:10082400FCF6012014F7012030B583B005000A4915
:10083400100001AA19F0A4FB0400012803D000242D
:10084400200003B030BDDA2301999B00E95003482E
:100854000DF0AEF9F4E7C04634F7012050F701205B
:1008640030B583B005000A49100001AA19F088FBCD
:100874000400012803D00024200003B030BDDF238E
:1008840001999B00E95003480DF092F9F4E7C04642
:1008940070F7012084F7012030B5284C0500236847
:1008A40010008FB0002B02D100200FB030BD0DAB73
:1008B40005930CAB04930BAB03930AAB029309AB04
:1008C400019308AB00931E4907AB06AA19F058FB25
:1008D400082804D000231B4A23601360E4E7194C62
:1008E40022689300EB18590717D1069807991860E6
:1008F4005960089809999860D9600A980B99186109
:1009040059610C980D999861D96113000732083325
:10091400920023600120A950C7E70699196007993E
:100924005960089999600999D9600A9919610B99D4
:1009340059610C9999610D99D961E6E73CD202207D
:100944009CF7012040D2022010B582B01000094962
:1009540001AA19F015FB0400012803D0002420008B
:1009640002B010BD0199044B044819600DF020F940
:10097400F5E7C046B8F70120F0D50220D0F70120F2
:1009840010B582B010000A4901AA19F0F9FA04005E
:10099400012803D00024200002B010BD054B019AA9
:1009A40005481A60054B19680DF002F9F3E7C046D3
:1009B400F0F70120F0D5022004F80120D8D302205A
:1009C40010B509490400094808F042FB80230120BE
:1009D4000021DB00E31803C3FE2301229B00E25045
:1009E40000221033E25010BD88BA022020F8012002
:1009F400802300210022DB00C31810B506C3812325
:100A04000022DB00C250103B0132C250014807F003
:100A1400E9FF10BD08A80220F0B5D6464F46464669
:100A2400C0B5174882B00DF041F8164B0025994621
:100A3400154B164C9846164B164F9A4626683900A5
:100A4400300019F099FC00280CD022694346002A92
:100A540000D0534622001832009229003200484642
:100A64000DF0A6F80135B8341E2DE7D10A200CF09C
:100A7400D3FF02B0E0BCBA46B146A846F0BDC046BA
:100A840038F8012048F8012030F801204C92022067
:100A940028F8012078F6012070B50A200CF0BCFF7C
:100AA400094C0A4E2500F935FF35626813782A2B64
:100AB40003D0300021780DF07BF80C34AC42F4D133
:100AC40003480DF075F870BDD031022060F80120A4
:100AD4006CF80120F0B5DE4657464E464546E0B573
:100AE400DDB0802200211CA80BF03EF980220021F9
:100AF4003CA80BF039F92D480CF0D8FF2C4B01938E
:100B04002C4B9A462C4B9B46FA2080000CF038FF65
:100B1400023044D1019B03AF1B6800261B011B0953
:100B2400984600233B70013399463CAD1CAC18E059
:100B34002368002B07DD013B2360002B03D12A68C7
:100B4400002A00D02B60380019F062FC02225146C2
:100B540038180BF00FF904355CAB01360434AB42A2
:100B6400D2D04B464246B3401A42E1D0380019F085
:100B74004FFC0222594638180BF0FCF82368132B5B
:100B8400E9DC05332360072BE5DD2B68002BE2D17C
:100B94004B4631002B6009480DF00AF8DBE75DB0E5
:100BA400F0BCBB46B246A946A046F0BD88F8012079
:100BB4002CD702201CF901200812022098F80120E9
:100BC40070B527480CF0F4FF264D274C3DE0D023A8
:100BD400012202211B069A61996102319961800008
:100BE4000431996141598A405A61D0231B065968DE
:100BF4005B68C906C90F9B0601D502231943D0239C
:100C04001B065B685B0601D504231943D0231B062E
:100C14005B681B0601D508231943D0231B065B68B8
:100C2400DB0501D510231943D0231B065B689B0504
:100C340001D520231943D0231B065B685B0501D52E
:100C44004023194320000CF0B3FFFA2080000CF07D
:100C540097FE831CC9D030380328B8D970BDC0466C
:100C6400A0F80120341A022074F60120002100208B
:100C740010B509F081FFC046100010B507220849DD
:100C840019F0B6FA0023002801D0180010BD012283
:100C9400044B05481A600CF08BFF0123F5E7C046AE
:100CA400ACF801203CD20220B4F801207047C046C1
:100CB40008B4F0B5C646C82100B5E7B06DAB20CB8B
:100CC4008046140049002A0002A801930CF01CFC81
:100CD40002A819F09DFB10282DD8621ED400A41878
:100CE4001B4B6400A418E4182A001021019B200067
:100CF4000CF00AFC200019F08BFB0F26361A002E8C
:100D04000DDD0025134F02E0200019F081FB0222C3
:100D14003900201801350BF02DF8AE42F4D1FE2332
:100D2400012241469B00CA5067B080BCB846F0BC63
:100D340008BC01B01847290007480CF039FF02A984
:100D440006480CF035FF06480CF0B0FEC5E7C04677
:100D540080C902201CF90120C8F80120D4F8012020
:100D6400E8F80120D421DB2330B5890042589B00E8
:100D740083B00400C250DC2000230C4D80002350BB
:100D84006350043163502800094920330CF094FB6C
:100D9400012201212000074B0095FFF789FFFE2364
:100DA40001229B00E25003B030BDC046E4D20220D1
:100DB400F4F80120FCF80120202130B52D4BD42279
:100DC40083B0C154002392008350043283503032E4
:100DD40083505C328350A023843A1B068350043230
:100DE400835004328350DB239B00C2580433C3581E
:100DF400040058424341204D5B428B4328001F4965
:100E040041330CF059FB20000095012201211C4BB9
:100E1400FFF74EFF1B4D20002B0002220121FFF79C
:100E240047FF2B00200003220121FFF741FF2B0085
:100E3400200004220121FFF73BFF2B0020000522A4
:100E44000121FFF735FF2B00200006220121FFF7C7
:100E54002FFFEA2301204042C1179B00E31803C37C
:100E64000122EC2352429B00E25048330232E2500A
:100E740003B030BD0C040000E4D20220F4F80120D9
:100E84000CF9012020F90120202270B52C4B82B0EE
:100E9400C254D4220023012692008350043283508A
:100EA40030328650D721A0228900120642500431E4
:100EB400425004314250EA22920004008218012078
:100EC4004042C11703C2EC22012192004942A150C1
:100ED400383AA350083AA350DB231A4D9B00E2583A
:100EE4002800202318490CF0E7FA2000009501227D
:100EF4000121164BFFF7DCFE200002220121144BD6
:100F0400FFF7D6FE134D20002B0003220121FFF72B
:100F1400CFFE2B00200004220121FFF7C9FE2B0085
:100F2400200005220121FFF7C3FE2B000622012128
:100F34002000FFF7BDFEFE239B00E65002B070BD0B
:100F44000C040000E4D20220F4F801200CF9012082
:100F540030F9012020F901208222D2008358002B8D
:100F640001DD013B8350FE2301229B00C2507047E8
:100F7400F0B5C64600B5254886B00CF019FE00232E
:100F8400234C244F2360244B9846FA2080000CF015
:100F9400F7FC831C37D03928F7DC2F2809DC1B2801
:100FA400F3D81E4B0341DB07EFD406B080BCB84630
:100FB400F0BD2268303893009B185B001B18390081
:100FC400404623600CF0F4FD1548164B06681B6878
:100FD400704270415A4253412025134A40422168CD
:100FE40012685B42A8434130AB4341330290019203
:100FF40000920E480A000CF0DBFDFA2080000CF091
:10100400BFFC831CC7D10CF0A7FCBEE740F901204C
:1010140028D20220CCD602206CF90120FFDBFFF796
:1010240018C802201CC8022014C8022084F9012018
:101034000FB400B5B5B036AB04CBC82101A80093FA
:101044000CF062FA35B008BC04B018470FB400B510
:10105400B5B036AB04CBC82101A800930CF054FA08
:1010640001A903480CF0A4FD35B008BC04B018472E
:10107400D0F901200FB470B5AAB02EAB04CBA021D7
:1010840001A800930CF040FA01A919480CF090FD56
:10109400184D9E24280019F0BBF9241A060001A853
:1010A40019F0B6F932000300210013480CF080FD5A
:1010B400631C15D0280019F0ABF902220F49281837
:1010C4000AF058FE01A92200280019F05DF8290051
:1010D4000B480CF06DFD2AB070BC08BC04B0184776
:1010E40021232200290007482B700CF061FDF2E750
:1010F400E8F9012010D60220FCF901201CF9012096
:1011040034FA012024FA012010B50020D02408F07C
:1011140061F9012324066362012008F05BF90223CC
:101124000220636208F056F904230320636208F086
:1011340051F908230420636208F04CF910230122BA
:10114400A3620021042008F033F9052008F042F9D5
:1011540020230122A3620021052008F029F906209A
:1011640008F038F940230122A3620021062008F088
:101174001FF9072008F02EF980230122A362002121
:10118400072008F015F9082008F024F980235B00F3
:10119400A36201220021082008F00AF9092008F0BE
:1011A40019F980239B00A36201220021092008F081
:1011B400FFF80A2008F00EF98023DB000122002149
:1011C4000A20A36208F0F4F810BDC04610B5152932
:1011D4000FD018291CD0162910D0172922D007297E
:1011E4001BD90B00083B012B0DD91148FFF720FF39
:1011F40003E0DB2300219B00C05810BDD6239B00D5
:101204000021C058F9E76031C900411803C9F4E767
:10121400D4239B000021C058EFE7C831890040580F
:101224000021EAE7E0239B00C058C117E5E7C04668
:1012340048FA0120F0B54E46DE4657464546E0B52D
:10124400BD4E814632689DB0002A01D1BB4B1A6065
:10125400D02109064B684968DB06DB0F890601D5F6
:1012640002210B43D02109064968490601D504210E
:101274000B43D02109064968090601D508210B430F
:10128400D02109064968C90501D510210B43D02096
:1012940000064168890519D520210B434168490599
:1012A40011D4A7490B60A548A64904680C60D10174
:1012B4000B430360032A53D01DB0F0BCBB46B246B7
:1012C400A946A046F0BD40210B43EAE740688021CF
:1012D4000500C9000D400842F5D199490B60002B67
:1012E400E1D199498A4609680029E3D19748016800
:1012F40001310A2940DD0360954B9B461B68002B96
:10130400D8D0944B05931B680493002B4AD0924B7E
:1013140092491A680393B8235343914CCB1822681B
:1013240002919968920053588E4819001D00049345
:101334000CF03EFC1E2D00D1B5E01F2D00D1A2E023
:10134400002D00D1AFE0049D874829000CF030FC4B
:10135400280007F089F92368326801332360A9E77C
:10136400764B824C1A68824D23682A609A4201D0D7
:10137400002A03D122609FE701609BE77D4B9C46D6
:101384001900002303E0013308311C2BF2D0086854
:101394008242F8D1DB006344586807F065F92A6893
:1013A400226089E7744B180098460CF001FCB822BF
:1013B400694F6A4C3B6871485343E1580294039760
:1013C4000CF0F6FB40460CF0F3FB6D4B39681D60E6
:1013D400B8234B43E3185A69C8235B009C464C4628
:1013E40003E063510435654502D05359581CF8D1C4
:1013F400B8234B43029A0025D3185A68614B340032
:101404009A46049E2B01D018D35C0B2B1ED00E2BB6
:1014140014D00A2B02D186680135F3E72A0050461E
:101424000CF0C6FB5B4600221A60039B029A196803
:10143400B8234B43D3185A680135E3E70123059ACF
:1014440013600022464B1A60226833E78368C06841
:101454009C463300072E06D9083B012B0AD94A487B
:10146400FFF7E6FDE1E748466746C8339B00C750EF
:101474000135C7E74F466833DB00FB186746586001
:101484001F600135BEE7012352461360F522494629
:1014940092008B502368012101333C4823600CF0F7
:1014A40087FB326806E70023524600213848136060
:1014B4000CF07EFBB823039F36483A685343029AE4
:1014C400D1580CF075FB1E2308931F3B0C960D940A
:1014D4003E001C00304A2A4D0692304A2968079281
:1014E400049A06980CF064FB2B6831689C46B82378
:1014F4004B43029AD3186246DB6810011A181B5C2E
:1015040018001438C0B20A2800D9EEE00799800008
:1015140009588F461A00224804991C000CF048FB15
:10152400296801312960DBE794681E4821000CF02A
:101534003FFB14230893F3E7F0D1022000D20220EA
:1015440004D20220F8D10220C8D60220B0D602204C
:10155400C0D602200CD60220B4D602204C9202201F
:10156400C4D6022064FA01205CFD0120F4D10220DB
:10157400FCD102206C91022070FD0120A4FD012009
:10158400B8D60220D8FD0120BCFD012070FA01204C
:10159400A4FA0120D4FA0120F4FA0120EC18022064
:1015A40038FB012028FB0120BA480C9E0CF07EFA7F
:1015B40000235A4613605246136001332B60039B89
:1015C400B54D1A68B8235343029A2968D218126990
:1015D400002900D007E1B14C002A00D152E1B04803
:1015E4000CF0E6FA039A00271368AE49013313603E
:1015F400B8225343029A2770D05818F0BDFE002831
:1016040000D138E101235A461360059B32682F60EC
:101614001F604FE60D9CA4480C9E0CF0C9FA236889
:10162400013323602B6801332B605B461B68002B5E
:10163400C5D09E480CF0BCFA32683BE6F5234F4611
:101644009B00FA580833F95899480CF0B1FAF7237B
:101654009B00FB58002B00D162E79648FFF70AFD78
:10166400B82332685343029AD31800221A6157E709
:10167400F5234F469B00FA580833F9588E480CF06E
:1016840097FAF7239B00FB581F1E00D048E78B48AE
:10169400FFF7F0FCB82332685343029AD3181F6152
:1016A4003EE7089F864A3B00143B9B00D15885487F
:1016B4000B920CF07DFA192F23D0631C0AD01E2C38
:1016C40000D922E1804BE340DB0700D410E17F48DE
:1016D4000CF06EFA1E23089322E794687C482100DC
:1016E4000CF066FA192308931AE7624679480C9EAF
:1016F4000CF05EFA00235A4613602B6801332B600A
:101704005DE723011A09744B0FA819001700089309
:101714000BF0D2FE714B0EAA19000FA80B9318F010
:101724002FFC0E9BC72B6ADDC7234A469B00D25869
:10173400B82331684B430299CB182968DB68090147
:101744005B189968914266D03A0008990FA80BF08B
:10175400B3FE0B990EAA0FA818F012FC0E9BC72B10
:1017640055DDC7234A469B00D35832689C46B823AC
:101774005343029A2100D3182A68DB6812019B188C
:101784009A68DB6856480092019362460CF010FA9E
:101794003A0008990FA80BF08FFE0B990EAA0FA818
:1017A40018F0EEFB0E9BC72B2DDDC7234A46B82746
:1017B4009B00D358029A9C46336821007B43D3187C
:1017C4002A68DB6812019B189A68DB684548009216
:1017D40001936246FFF74EFC3368029A7B43D318A9
:1017E40000221A6176E7002A01D0326862E5029A83
:1017F4001833D018294918F003FE32685AE5DA4341
:10180400D217134091E7DA43D2171340CEE7DA43F5
:10181400D2171340A6E7DB689846002B94D13A0010
:1018240008990FA80BF048FE0B990EAA0FA818F000
:10183400A7FB0E9B002B1ADBC72B01DDC7230E93DE
:101844004A469B00D35832689C46B8235343029AB5
:101854002100D3182A68DB6812019B189A68DB6898
:1018640021480092019362460CF0A2F932E7434604
:101874000E930023E4E75B4618601C480CF098F9CB
:10188400326817E5029A18332100D01818F0B8FD11
:10189400A5E6C046B0FC0120BCD6022010D602202A
:1018A40018FD012078F60120A0FC0120F4FC0120A1
:1018B40084FB0120B0FB012050FB012078FB0120B8
:1018C400DCA70220BCFB0120000010462CFC0120F8
:1018D40010FB0120C4FC012000F80120301102207B
:1018E400ECFB01200CFC0120CCFB012030FD01208D
:1018F400DB23152C47D0D423182C44D0162C41D0EC
:10190400172C00D18DE0072C5CD92300083B012B58
:1019140000D897E021004F48FFF78AFBB8233268CC
:101924000A995343029AD3182A68DB6812019B1858
:101934009A68DB688A4200D17FE0210046480CF0B7
:1019440037F9E3B2132B57D9E3B20B9A143B9B003C
:10195400D3589846B82721004846FFF737FC336828
:10196400029A7B43D3182A68DB6812019B189A6891
:10197400DB680092019302000B0038484146FFF7F0
:1019840079FB29E7D6234A469B00D3581F0000233E
:101994009846B82332685343029AD3182A68DB68FE
:1019A40012019B189A68DB680A920993974240D007
:1019B400099B210028480A9A0CF0FAF843460A9732
:1019C4000993C1E723004A46C8339B00D3580A93BE
:1019D40000230993B82332680A995343029AD3180F
:1019E4002A68DB6812019B189A68DB688A420CD06B
:1019F400210019480CF0DCF8194814210700194A91
:101A0400E3B20BF06DFDB846A4E709998B42EFD120
:101A1400099B210014480A9A0CF0CAF81E23089363
:101A24007EE5E0234A469B00D3581F00DB17984607
:101A3400AFE7099A9045BBD1EAE709998B4200D0F8
:101A44007BE7E5E76833DB004B441A685B680A927E
:101A54000993BFE748FA012070FC012084FC0120AF
:101A6400F4D50220301102205CFC0120F0B50A27D5
:101A74007F42BC460C0F150FA444C6462E00674691
:101A84000B011001A84600B50A3E1B090009012FED
:101A940000D8B6E0012E00D8A5E0A0252D060F231E
:101AA40018001C00084014400019040000260A3CD9
:101AB400B446092C00D8E5E10F2613090C0934407B
:101AC40033401B1963441C0000270A3CBC46092C04
:101AD40003D80124A446063333400F261B011818EB
:101AE4000C0A130A344033401B1963441C000027BA
:101AF4000A3CBC46092C03D80124A44606333340CF
:101B04000F261B0218180C0B130B344033401B19FF
:101B140063441C0000270A3CBC46092C03D801245A
:101B2400A446063333400F261B0318180C0C130C61
:101B3400344033401B1963441C0000270A3CBC4654
:101B4400092C03D80124A446063333400F261B0472
:101B540018180C0D130D344033401B190A24644229
:101B64006344A4469C4467460024092F02D80633E4
:101B7400334001341B0518180F23120E090E1940A7
:101B84001340CB181B191A000A3A092A00D8ABE2F1
:101B94001B061B180F221C0213400A3B240A052BA8
:101BA40000D8A8E223061B0F0A3B052B00D8C8E285
:101BB40023051B0F0A3B052B00D8BAE223041B0F95
:101BC4000A3B052B00D8ACE223031B0F0A3B052B71
:101BD40000D89EE223021B0F0A3B052B00D890E29B
:101BE4002000284343E12E00834201D90A260A2516
:101BF40044460A2C00D150E7A74A101A32079046EF
:101C04000EE0012E00D83EE2834200D932E10B2CD3
:101C140000D042E7A022120690460A259E4AD31A13
:101C24000F22110014001940044009190C000A3C49
:101C34000026092C02D80631114001360F24A4468F
:101C440067461A09224004093C40121992191400EB
:101C54000A3C0026092C04D86446063214402200AB
:101C640001360F2412015118070A1A0A274022408C
:101C7400D21992190A267642B4469444674600263D
:101C8400092F02D80632224001360F2412025118BD
:101C9400070B1A0B27402240D21992190A267642C2
:101CA400B446944467460026092F02D806322240DF
:101CB40001360F2412035118070C1A0C2740224036
:101CC400D2199219160000270A3EBC46092E03D8E1
:101CD400063222400E3CA4460F26120454181A0D54
:101CE400010D3140324052180A21494262448C4667
:101CF400944467460021092F02D80632324001314C
:101D0400120512190F241B0E000E234020401B182D
:101D14005B1819000A39092901D8063323401B0628
:101D24009B180F221C0213400A3B240A052B00D8DF
:101D3400A3E123061B0F0A3B052B00D897E12305DB
:101D44001B0F0A3B052B00D889E123041B0F0A3B18
:101D5400052B00D86EE123031B0F0A3B052B00D88B
:101D640075E10F23260D33400A3B052B00D858E1BB
:101D7400F0231B051C4203D121004848FFF758F902
:101D84000F221300234019000939092900D87EE0E5
:101D94000020591C0F22230913401B180A2040421B
:101DA40084469C4467460020092F02D8063313401A
:101DB40001301B015A180F21230A0B401B180A205B
:101DC400404284469C4467460020092F02D80633CB
:101DD4000B4001300F211B029A18230B0B401B18D8
:101DE4000A20404284469C4467460020092F02D8BA
:101DF40006330B4001301B039B180F22240C1440A4
:101E0400241820000A380021092802D80634144076
:101E140001310F22324024045218E41813000A3B03
:101E2400092B3DD8F02306321B0412051A400F2358
:101E3400141926021C400A3C360A052C39D93306EB
:101E44001B0F0A3B052B3ED933051B0F0A3B052B01
:101E540043D933041B0F0A3B052B4AD933031B0F09
:101E64000A3B052B51D90B2D58D04046304380BC3A
:101E7400B846F0BD0B2C00D00FE6B02212069046F7
:101E84000B25CBE6063018400E3B9C4614E6073380
:101E94001A40110001207DE79999990038FE01202C
:101EA4000F231205141926021C400A3C360A052C7D
:101EB400C5D806363100A7480BF07AFE33061B0F4F
:101EC4000A3B052BC0D860363100A2480BF070FEE7
:101ED40033051B0F0A3B052BBBD8C023DB00F618C8
:101EE40031009C480BF064FE33041B0F0A3B052BA6
:101EF400B4D8C023DB01F618310096480BF058FE25
:101F040033031B0F0A3B052BADD8C023DB02F618A5
:101F1400310090480BF04CFE0B2DA6D10F2211007E
:101F24008D4B9B1B194008000938092800D8B8E0DC
:101F3400002001310F241A092240121815000A3D0D
:101F44000020092D02D80632224001300F2412014C
:101F540051181A0A2240121815000A3D0020092DB2
:101F640002D80632224001300F24120251181A0BF3
:101F74002240121815000A3D0020092D02D806320D
:101F8400224001300F24120351181A0C2240121857
:101F940015000A3D0020092D02D8063222400130E6
:101FA4000F24120451181A0D2240121815000A3D6C
:101FB4000020092D02D80632224001301B011B0FDC
:101FC40012051B18521819000A3909296DD8F02175
:101FD40006331B0609050B409A180F2316021A40F4
:101FE4000A3A360A052A63D933061B0F0A3B052B26
:101FF40074D933051B0F0A3B052B67D933041B0F18
:102004000A3B052B5AD933031B0F0A3B052B00D976
:102014002BE7C023DB02F61831004E480BF0C8FD55
:1020240023E7C023DB03E41821004A480BF0C0FD7A
:10203400260DA5E6C023DB01E418210045480BF07A
:10204400B7FD23031B0F0A3B052B00D989E6C023E8
:10205400DB02E41821003F480BF0AAFD81E6C0230F
:10206400DB00E41821003B480BF0A2FD6DE6603470
:10207400210038480BF09CFD61E606342100354808
:102084000BF096FD55E62E00834201D9250026006B
:102094000B2C00D0ACE544460B2C58D1B0252D06B2
:1020A400FDE407310120114044E71B069A1894E728
:1020B4000636310027480BF07BFD95E7C023DB0192
:1020C400F618310023480BF073FD9CE7C023DB00B6
:1020D400F61831001F480BF06BFD8FE760363100B6
:1020E4001C480BF065FD84E7F02206331B0612053D
:1020F40013401B184EE50634210016480BF058FD1A
:1021040050E5C023DB03E418210012480BF050FD16
:1021140066E5C023DB02E41821000E480BF048FDFD
:1021240058E5C023DB01E41821000A480BF040FD08
:102134004AE5C023DB00E418210006480BF038FD13
:102144003CE56034210003480BF032FD30E53207F2
:10215400904663E500FE012099999900F0B54E463A
:102164005746DE4645469C46E0B5894616009246EB
:102174000A0F090187B00909039161460901090998
:102184001B0F019111001C000A39029000960A3CB1
:10219400012901D900F05CFD012C01D900F048FDB2
:1021A400009C019D0399A94201D801F045F893468A
:1021B4000B2A01D000F057FD0B2B01D101F0C3FC19
:1021C4005B461B07994602980399EE4AEE4B121A96
:1021D4008B41029203930F21029B00980B4008400D
:1021E4001C00020000230025A4185D410A2252426B
:1021F400D31712196B41002B01D001F0B2F8092A50
:1022040001D901F0AEF8A31D0B401C0001230025E9
:102214009C460299039A0F2713070A099A183A4011
:102224001000019B009A1B0716099E193E400021CD
:102234003200002312184B416046002112184B4112
:102244000A204042C11780185941002901D001F0E9
:1022540084F8092801D901F080F8911D39400A0059
:10226400012100238C460F27160F19017118100144
:1022740000196941029C039D2B06220A9A183A40D0
:102284001400019B009A1B06160A9E193E40002565
:102294003200002312196B416446002512196B4168
:1022A4000A246442E517A4185D41002D01D001F011
:1022B40050F8092C01D901F04CF8941D3C4022003F
:1022C40001240023A4460F27160E1D0275191402BB
:1022D40024184D410299039A13050A0B9A183A409F
:1022E4001000019B009A1B05160B9E193E4000210D
:1022F4003200002312184B416046002112184B4152
:102304000A204042C11780185941002901D001F028
:102314001CF8092801D901F018F8911D39400A0068
:10232400012100238C460F27160D19037118100381
:1023340000196941029C039D2B04220C9A183A400F
:102344001400019B009A1B04160C9E193E400025A4
:102354003200002312196B416446002512196B41A7
:102364000A246442E517A4185D41002D01D000F051
:10237400E8FF092C01D900F0E4FF941D3C40220041
:1023840001240023A4460F27160C1D0475191404F8
:1023940024184D410299039A13030A0D9A183A40DE
:1023A4001000019B009A1B03160D9E193E4000214C
:1023B4003200002312184B416046002112184B4191
:1023C4000A204042C11780185941002901D000F069
:1023D400B4FF092801D900F0B0FF911D39400A006B
:1023E400012100238C460F27160B190571181005BF
:1023F40000196941029C039D2B02220E9A183A404F
:102404001400019B009A1B02160E9E193E400025E3
:102414003200002312196B416446002512196B41E6
:102424000A246442E517A4185D41002D01D000F090
:1024340081FF092C01D900F07DFF941D3C4022004E
:1024440000230126170A1D06029B7D191406241871
:102454004D41180F00210023009F3A0F12184B41E1
:102464003000002112184B410A204042C117801845
:102474005941002901D000F05AFF092801D900F080
:1024840056FF901D0F310840020000230127160952
:10249400190771181007001969410F260490059156
:1024A400039B0199334031401C0000250A0000239E
:1024B40012196B413C00002512196B410A24644235
:1024C400E517A4185D41002D01D000F02CFF092C64
:1024D40001D900F028FF0121941D344022008C46CC
:1024E4001500049A059B00240F27A4185D41039B43
:1024F400190939400A00019900230E093E403000B1
:10250400002112184B416046002112184B410A2049
:102514004042C11780185941002901D000F0FFFE44
:10252400092801D900F0FBFE911D39400A00012160
:102534008C4600200F27039B1101001969411C0AD6
:102544003C402200019C0025260A3E403400002322
:1025540012196B416446002512196B410A24644226
:10256400E517A4185D41002D01D000F0D4FE092C1C
:1025740001D900F0D0FE941D3C4022000124A44661
:1025840004E0C046999999999999000000240F276D
:10259400039B150224184D41190B39400A00019977
:1025A40000230E0B3E403000002112184B416046C0
:1025B400002112184B410A204042C117801859418A
:1025C400002901D000F0A3FE092801D900F09FFEE4
:1025D400911D39400A0001218C4600200F27039BDE
:1025E4001103001969411C0C3C402200019C002588
:1025F400260C3E403400002312196B41644600252A
:1026040012196B410A246442E517A4185D41002D98
:1026140001D000F078FE092C01D900F074FE941D5D
:102624003C4022000124A44600240F27039B1504E8
:1026340024184D41190D39400A00019900230E0D4B
:102644003E403000002112184B4160460021121810
:102654004B410A204042C11780185941002901D03A
:1026640000F04DFE092801D900F049FE911D3940C2
:102674000A0001218C4600200F27039B1105001935
:1026840069411C0E3C402200019C0025260E3E4060
:102694003400002312196B4164460025A4185D41DF
:1026A4000A225242D31712196B41002B01D000F0B9
:1026B40023FE092A01D900F01FFEA31D3B401C0084
:1026C4000126002223068018594100250023019C7D
:1026D400039F220F3C0F12196B413400002512197D
:1026E4006B410A246442E517A4185D41002D05D10D
:1026F400092C03D80F24951D25402A000024150712
:102704002B00220012184B411B0416001D0C0F2332
:1027140033401800140000210A225242D3178018B3
:102724005941002901D101F0A0F921060A0F002323
:102734000A204042C11712184B41002B01D101F06D
:10274400B3F921050A0F00230A204042C1171218C9
:102754004B41002B01D101F097F921040A0F00230A
:102764000A204042C11712184B41002B01D101F03D
:10277400DAF921030A0F00230A204042C117121874
:102784004B41002B01D101F0BEF921020A0F0023B5
:102794000A204042C11712184B41002B01D101F00D
:1027A400A2F921010A0F00230A204042C11712187E
:1027B4004B41002B01D101F086F92901220F8A181F
:1027C4000A204042C1172B0F12184B41002B01D194
:1027D40001F0B8F8F0231B032B4201D101F0C0F83B
:1027E4000F23190021400A009C4609204042C117CA
:1027F400002380185941002903D1092801D800F089
:1028040072FD01260027B6185F41002398462B0766
:10281400210959180F2318000840020000214046DE
:102824009C46002312184B410A204042C1178018CD
:102834005941002901D000F0C3FD092801D900F055
:10284400BFFD6046911D0840012102000023884617
:10285400110F8C4619016144100136184F412B06A3
:10286400210A59180F23180008400200002140468D
:102874009C46002312184B410A204042C11780187D
:102884005941002901D000F097FD092801D900F031
:1028940093FD6046911D08400121020000238846F3
:1028A400110E8C4619026144100236184F412B0553
:1028B400210B59180F23180008400200002140463C
:1028C4009C46002312184B410A204042C11780182D
:1028D4005941002901D000F06BFD092801D900F00D
:1028E40067FD6046911D08400121020000238846CF
:1028F400110D8C4619036144100336184F412B0403
:10290400210C59180F2318000840020000214046EA
:102914009C46002312184B410A204042C1178018DC
:102924005941002901D000F03FFD092801D900F0E8
:102934003BFD6046911D08400121020000238846AA
:10294400110C8C4619046144100436184F412B03B2
:10295400210D59180F231800084002000021404699
:102964009C46002312184B410A204042C11780188C
:102974005941002901D000F013FD092801D900F0C4
:102984000FFD6046911D0840012102000023884686
:10299400110B8C4619056144100536184F412B0262
:1029A400210E59180F231800084002000021404648
:1029B4009C46002312184B410A204042C11780183C
:1029C400594100960197002901D000F0E5FC09283F
:1029D40001D900F0E1FC6046911D0840012102008C
:1029E40000238C46160A1906891910060023009E36
:1029F400019F36184F4160460021220F12184B41A7
:102A04000A204042C11780185941002901D000F022
:102A1400BFFC092801D900F0BBFC901D0F31084010
:102A24000E3902000023884611098C4619070F232A
:102A34006144100736184F41190029400A004046E6
:102A440000219C46002312184B410A204042C11722
:102A540080185941002901D000F096FC092801D9B9
:102A640000F092FC6046911D084001210200884656
:102A740011000F23002036184F411800290908407F
:102A84000200002140469C46002312184B410A20B4
:102A94004042C11780185941002901D000F070FC50
:102AA400092801D900F06CFC6046911D0840012101
:102AB400020088460F230020110136184F411800E8
:102AC400290A08400200002140469C4600231218AF
:102AD4004B410A204042C11780185941002901D0B6
:102AE40000F04AFC092801D900F046FC6046911D1B
:102AF4000840012102008C462C0411020025220FFB
:102B04000023644612196B410A246442E51700202D
:102B1400A4185D4180197941002D01D000F025FCF5
:102B2400092C01D900F021FCC0231203DB01D218C7
:102B3400F0231B021A4000241500012324184D41E0
:102B440000201904001969410B0406000F213140CB
:102B54000A0004001D0C0A204042C1170023121869
:102B64004B41002B01D100F022FF21060A0F002364
:102B74000A204042C11712184B41002B01D100F02A
:102B840055FF21050A0F00230A204042C1171218DD
:102B94004B41002B01D100F039FF21040A0F00231F
:102BA4000A204042C11712184B41002B01D100F0FA
:102BB4001DFF21030A0F00230A204042C1171218E7
:102BC4004B41002B01D100F001FF21020A0F002329
:102BD4000A204042C11712184B41002B01D100F0CA
:102BE400D6FE21010A0F00230A204042C117121801
:102BF4004B41002B01D100F0BAFE2901220F8A18A3
:102C04000A204042C1172B0F12184B41002B01D14F
:102C140000F01BFF5B460B2B00D1D5E34946200097
:102C2400294307B0F0BCBB46B246A946A046F0BD56
:102C3400029D039E009B019CA64200D80CE30B2A34
:102C440024D10B239B46B0231B069946FFF7BBFAFE
:102C5400012C1BD8029C039D0099019A954200D82F
:102C6400F3E20A2293460A2B10D000980199054AF0
:102C7400054B121A8B41009201935B461B07994640
:102C8400FFF7A9FA9999999999990000A0231B062D
:102C94009B460F2302001A40160052461A401400A5
:102CA4000025002736196F410A246442E517A41948
:102CB4007D41002D00D1DFE2002302934B460F2417
:102CC4001B07010959180C40009454466146240915
:102CD400A046090700238844414601930F33194055
:102CE4000C00009A019B002512196B410025029CDF
:102CF400A4185D410A225242D31712196B41002BCA
:102D040000D0EDE2092A00D9EAE20F22A31D1A40FD
:102D14000123140000259846210F2B01CB18220112
:102D240092197B41009201934B46040A1B061C191D
:102D3400514663460F221B06090A591814401140D4
:102D4400260000270C000025A4197D4146460027D3
:102D5400A4197D410A267642F71736196F41002FD0
:102D640000D0BAE2092E00D9B7E2A31D13401C001B
:102D7400012300259846230E2F02DF192602009B0B
:102D8400019C9B197C41009301944B46040B1B0549
:102D94001C19514663460F221B05090B5918144090
:102DA4001140260000270C000025A4197D41464649
:102DB4000027A4197D410A267642F71736196F4178
:102DC400002F00D086E2092E00D983E2A31D134010
:102DD4001C00012300259846230D2F03DF19260329
:102DE400009B019C9B197C41009301944B46040C6D
:102DF4001B041C19514663460F221B04090C591865
:102E040014401140260000270C000025A4197D4120
:102E140046460027A4197D410A267642F71736193B
:102E24006F41002F00D052E2092E00D94FE2A31DBA
:102E340013401C00012300259846230C2F04DF199E
:102E44002604009B019C9B197C41009301944B46F2
:102E5400040D1B031C19514663460F221B03090D65
:102E6400591814401140260000270C000025A4190D
:102E74007D4146460027A4197D410A267642F7176C
:102E840036196F41002F00D01EE2092E00D91BE233
:102E9400A31D13401C00012300259846230B2F0576
:102EA400DF192605009B019C9B197C41009301942A
:102EB4004B46060E1B029E19514663460F221B0207
:102EC400090E591816401140340000250E00002741
:102ED40036196F414446002536196F410A2464426D
:102EE400E517A4197D41002D00D0EAE1092C00D991
:102EF400E7E1B31D13401E00012300279846330A5F
:102F04003D0651465D193406009A019B0027A4181A
:102F14005D410023060F0A0F92197B4146460027A4
:102F24000A204042C11792197B4180185941002957
:102F340000D0C3E1092800D9C0E1901D0F31084039
:102F44000E390200002388461609190771184B46EA
:102F54000F26674610073340374024184D413A0086
:102F640018000021002312184B414046002112187A
:102F74004B410A204042C11780185941002900D012
:102F840099E1092800D996E1911D31400A000121F7
:102F940088464B460F27110000201B093B400019AF
:102FA40069411C0063461E093E400025320000238F
:102FB40012196B414446002512196B410A246442DC
:102FC400E517A4185D41002D00D071E1092C00D94A
:102FD4006EE1941D3C4022000124A0464B460F277D
:102FE40000241B0A15013B4024184D411800634678
:102FF4001E0A3E4000213200002312184B41404675
:10300400002112184B410A204042C117801859412F
:10301400002900D049E1092800D946E1911D394031
:103024000A00012188464B460F2700201B0B110282
:103034003B40001969411C0063461E0B3E400025BD
:103044003200002312196B414446002512196B41CA
:103054000A246442E517A4185D41002D00D021E143
:10306400092C00D91EE1941D3C4022000124A046F5
:103074004B460F2700241B0C15033B4024184D41DD
:10308400180063461E0C3E40002132000023121833
:103094004B414046002112184B410A204042C117BF
:1030A40080185941002900D0F9E0092800D9F6E038
:1030B400911D39400A00012188464B460F27002004
:1030C4001B0D11043B40001969411C0063461E0D91
:1030D4003E4000253200002312196B41444600256E
:1030E40012196B410A246442E517A4185D41002DAE
:1030F40000D0D1E0092C00D9CEE0941D3C40220040
:103104000124A0464B4600240F27150524184D41E1
:10311400190E39400A0061460E0E3E40002330006D
:1031240000218018594142460023801859410A223F
:103134005242D31712184B41002B00D0A6E0092AA3
:1031440000D9A3E0C023F021DB040006C018090560
:1031540008400022030012196B41012400202107BA
:1031640012184B411B0416001D0C0F23334018008A
:10317400140000210A225242D31780185941002911
:1031840001D100F055FD21060A0F00230A20404218
:10319400C11712184B41002B01D100F058FD210535
:1031A4000A0F00230A204042C11712184B41002B7A
:1031B40001D100F05FFD21040A0F00230A204042E0
:1031C400C11712184B41002B01D100F063FD2103FC
:1031D4000A0F00230A204042C11712184B41002B4A
:1031E40001D100F067FD21020A0F00230A204042AA
:1031F400C11712184B41002B01D100F06BFD2101C6
:103204000A0F00230A204042C11712184B41002B19
:1032140001D100F06FFD2901220F8A180A204042D3
:10322400C1172B0F12184B41002B01D100F0F0FCF9
:10323400594620002943F4E4A94203D1A04201D90C
:10324400FEF7B5FF9B46FEF7B3FF954202D18C42D1
:1032540000D906E59B4606E5A64202D19D4200D967
:10326400EDE4A0231B060B2A01D000F06EFC994666
:103274000A239B46FEF7A7FF092C00D91CE5B21DC3
:103284001A400E3B16000027029317E5002203069E
:1032940012196B41002461E70024A04632E70021A3
:1032A40088460AE70024A046E2E600218846BAE6FA
:1032B4000024A04692E6002188466AE6002188465A
:1032C40042E6002398461AE600239846E6E50023E2
:1032D4009846B2E5002398467EE5002398464AE5E1
:1032E4000023984618E56346073213401E00012365
:1032F40000279846FFF78BFA0026FFF7E2F9002132
:103304008C46FFF7B8F90024A446FFF78DF9002195
:103314008C46FFF762F90024A446FFF737F9002131
:103324008C46FFF706F900218C46FFF7D9F80027F1
:10333400FFF7ADF80026FFF785F800218C46FFF76C
:1033440052F80024A446FFF71EF800218C46FEF72D
:10335400EAFF0024A446FEF7B6FF00218C46FEF7E0
:1033640082FF00239C46FEF754FF00241503241813
:103374004D410023FFF7E4FB00218C46FFF7BCFB23
:1033840000218846FFF796FB00218846FFF770FB73
:1033940000218846FFF748FB00218C46FFF722FBFB
:1033A40000218846FFF7F4FA00218846FFF7C8FA9F
:1033B40000218846FFF79CFA00218846FFF770FA3F
:1033C40000218846FFF744FAE24EE34F0433361BEC
:1033D400AF419C4633401800002109225242D317C2
:1033E40012184B41002B00D0A3E2092A00D9A0E215
:1033F400634607300340009300230193013398464A
:103404003B0732099A180F239C4613401800424682
:1034140000230021801859410A225242D31712185E
:103424004B41002B00D081E2092A00D97EE262469A
:10343400831D1A400123100000219846030F9C4667
:103444000B016344020100980199801859413B061D
:10345400320A9A180F239C46134000900191424669
:10346400180000210023801859410A225242D31720
:1034740012184B41002B00D055E2092A00D952E220
:103484006246831D1A400123100000219846030E52
:103494009C460B026344020200980199801859412A
:1034A4003B05320B9A180F239C4613400090019160
:1034B4004246180000210023801859410A22524232
:1034C400D31712184B41002B00D029E2092A00D946
:1034D40026E26246831D1A4001231000002198460B
:1034E400030D9C460B036344020300980199801862
:1034F40059413B04320C9A180F239C461340009008
:1035040001914246180000210023801859410A22E3
:103514005242D31712184B41002B00D0FDE1092A67
:1035240000D9FAE16246831D1A40012310000021EC
:103534009846030C9C460B046344020400980199CA
:10354400801859413B03320D9A180F239C461340AF
:10355400009001914246180000210023801859412F
:103564000A225242D31712184B41002B00D0D1E14A
:10357400092A00D9CEE16246831D1A4001231000B6
:1035840000219846030B9C460B05634402050098F2
:103594000199801859413B02320E9A180F239C4618
:1035A4001340029003914246180000210023801822
:1035B40059410A225242D31712184B41002B00D012
:1035C400A5E1092A00D9A2E16246831D1A4001231C
:1035D400100000219C46030A002204930023009259
:1035E40001930B060193049B9846019B434401936A
:1035F40003060093009A019B02980399801859418D
:1036040062460023009001910021300F8018594137
:103614000A225242D31712184B41002B00D073E1F7
:10362400092A00D970E1821D0F331A400E3B1000A5
:103634000021984603099C460B076344020700983F
:103644000199801859410F239C463B404246009003
:103654000191180000210023801859410A22524286
:10366400D31712184B41002B00D04AE1092A00D984
:1036740047E16246831D1A40012310009846030067
:10368400009801990022801859413B090F32944651
:103694001A40009001910023100000214246801836
:1036A40059410A225242D31712184B41002B00D021
:1036B40024E1092A00D921E16246831D1A4001232D
:1036C400100098460022030100980199801859417E
:1036D4003B0A0F3294461A400090019100231000D7
:1036E40000214246801859410A225242D317121827
:1036F4004B41002B00D0FEE0092A00D9FBE06246D2
:10370400831D1A40012310009846002203020098EA
:103714000199801859413B0B0F3294461A4000908E
:1037240001910023100000214246801859410A22C9
:103734005242D31712184B41002B00D0D8E0092A6B
:1037440000D9D5E06246831D1A40012310009C462F
:1037540004E0C046999999999999000000220303BD
:1037640000980199801859413B03624600900191E9
:10377400180F00210023801859410A225242D317FE
:1037840012184B41002B00D09EE0092A00D99BE07F
:10379400C0230104F020DB02C918000301400B0020
:1037A400009801990022801859411023C022F02763
:1037B4001B05D2039E183F043E40330000228018AC
:1037C40059411023C022F0271B06D2049E183F053E
:1037D4003E40330000221026801859410F2306363C
:1037E4001E400022330712184B411B0416001D0C07
:1037F4000F2333401800140000210A225242D31729
:1038040080185941002900D1F5E121060A0F00234F
:103814000A204042C11712184B41002B00D1DDE1B0
:1038240021050A0F00230A204042C11712184B41F8
:10383400002B00D1C4E121040A0F00230A204042D6
:10384400C11712184B41002B00D1ABE121030A0F21
:1038540000230A204042C11712184B41002B00D10B
:1038640092E121020A0F00230A204042C1171218D4
:103874004B41002B00D179E121010A0F00230A20DA
:103884004042C11712184B41002B00D160E12901BD
:10389400220F8A180A204042C1172B0F12184B41DD
:1038A400002B01D0FFF7BAF9052A01D9FFF7B6F9C1
:1038B400C0220023D205A4185D41EC4822002B004D
:1038C4000AF076F9FFF7AAF9002203040098019997
:1038D400801859413B0D0F32134200D01AE23B0EBF
:1038E400134200D018E23E0F00D17AE70F2675E7A5
:1038F40000239C4632E70023984606E700239846B7
:10390400E0E600239846BAE60023984692E60023B0
:103914009C4660E60023984634E60023984608E671
:1039240000239846DCE500239846B0E5002398463A
:1039340084E500230122801859410023009001915D
:1039440098465DE5052A01D9FEF744FFC02200230D
:10395400D205A4185D41C54822002B000AF028F9BD
:1039640022002B00C248FDF763FBFEF739FF052A4E
:1039740001D9FFF742F9C0220023D204A4185D4103
:10398400BA4822002B000AF013F9FFF736F9052A8A
:1039940001D9FFF726F9C0220023D203A4185D4100
:1039A400B24822002B000AF003F9FFF71AF9052A9E
:1039B40001D9FFF7DAF806220023A4185D41AB48C9
:1039C40022002B000AF0F4F8FFF7CFF8052A01D9FA
:1039D400FFF7FBF8C0220023D202A4185D41A348DC
:1039E40022002B000AF0E4F8FFF7EFF8052A01D9CA
:1039F400FFF7DFF8C0220023D201A4185D419B48E1
:103A040022002B000AF0D4F8FFF7D3F8052A01D9D5
:103A1400FFF7C3F8C0220023D200A4185D419348E5
:103A240022002B000AF0C4F8FFF7B7F8052A01D9E1
:103A3400FFF7A7F860220023A4185D418B482200F9
:103A44002B000AF0B5F8FFF79CF8052A01D9FFF717
:103A5400E1F8C0220023D205A4185D418348220066
:103A64002B000AF0A5F8FFF7D5F8052801D9FEF7D1
:103A74005CFE06220023A4185D417C4822002B0032
:103A84000AF096F8FEF751FE052A01D9FEF765FE05
:103A9400C0220023D200A4185D41744822002B00E8
:103AA4000AF086F8FEF759FE052A01D9FEF749FE09
:103AB40060220023A4185D416C4822002B000AF008
:103AC40077F8FEF73EFE052A01D9FEF776FEC022FE
:103AD4000023D204A4185D41644822002B000AF09C
:103AE40067F8FEF76AFE052A01D9FEF75AFEC022DE
:103AF4000023D203A4185D415C4822002B000AF085
:103B040057F8FEF74EFE052A01D9FEF73EFEC02205
:103B14000023D202A4185D41544822002B000AF06D
:103B240047F8FEF732FE052A01D9FEF722FEC0222D
:103B34000023D201A4185D414C4822002B000AF056
:103B440037F8FEF716FEB0231B069B46FFF7A1F8D5
:103B5400052A00D99BE6C0220023D204A4185D41A3
:103B6400424822002B000AF023F890E6052A00D9E7
:103B740082E6C0220023D203A4185D413B48220000
:103B84002B000AF015F877E6052A00D969E6C02269
:103B94000023D202A4185D41344822002B000AF00D
:103BA40007F85EE6052A00D950E6C0220023D201B8
:103BB400A4185D412D4822002B0009F0F9FF45E6C9
:103BC400052A00D937E6C0220023D200A4185D419B
:103BD400264822002B0009F0EBFF2CE6052A00D929
:103BE4001EE660220023A4185D41204822002B0019
:103BF40009F0DEFF14E6052800D906E606220023B4
:103C0400A4185D41194822002B0009F0D1FFFCE5FE
:103C1400052A01D9FFF70CFBC0220023D205A41802
:103C24005D41124822002B0009F0C2FFFFF700FBA0
:103C3400052801D9FFF7A7FA06220023A4185D413D
:103C44000A4822002B0009F0B3FFFFF79CFA052A6B
:103C540001D9FFF7A4FA60220023A4185D410348A8
:103C640022002B0009F0A4FFFFF799FA10FE0120AF
:103C740038FE0120052A01D9FFF79DFAC02200234E
:103C8400D200A4185D41254822002B0009F090FFC2
:103C9400FFF791FA052A01D9FFF799FAC022002308
:103CA400D201A4185D411D4822002B0009F080FFB9
:103CB400FFF78DFA052A01D9FFF795FAC0220023F0
:103CC400D202A4185D41154822002B0009F070FFB0
:103CD400FFF789FA052A01D9FFF791FAC0220023D8
:103CE400D203A4185D410D4822002B0009F060FFA7
:103CF400FFF785FA052A01D9FFF78DFAC0220023C0
:103D0400D204A4185D41054822002B0009F050FF9D
:103D1400FFF781FA130049E50F2353E510FE012054
:103D2400F0B5DE4657464E464546E0B534488DB0BC
:103D340009F0BCFE9C239B46324B334C9A46334BD2
:103D4400A3449946324B9846324B099325686668DA
:103D5400290032005046A768FDF788FE424603005A
:103D6400874200D1099A00922900320048460197FF
:103D74000C3409F01DFF5C45E8D1274809F096FE94
:103D8400264B98469C235B0043449B46244B099353
:103D94001F4B0A931F4B0B9343461C685D689E6838
:103DA400DF681B693200994643465B6920009A46E6
:103DB40029003B00FEF7D2F981451CD00A9B4A46F4
:103DC40006925246049307922B000290220000961A
:103DD40001970998039109F0EBFE18239844D845FC
:103DE400DAD10A2009F018FE0DB0F0BCBB46B24689
:103DF400A946A046F0BD8A45E0D10B9BDFE7C0464B
:103E040058FE012070B60220E08B02206CFE0120D7
:103E140050FE012048FE012090FE0120A88A0220C5
:103E2400A4FE012010B50A018EB00B49120904004A
:103E340001A809F041FB6A46084901A816F0A0F858
:103E4400009BC72B04DDC7239B00E0580EB010BDB8
:103E5400DA43D2171340F7E700F8012030110220AB
:103E6400072908D8072A17D8C83292008358C831BE
:103E74008900435070470B00083B012BFAD813000C
:103E8400083B012B22D860326031D200C90082186D
:103E940041180CCA0CC1EDE71300083B012BE9D80B
:103EA4006032D20082181368C8319C465368624657
:103EB4001B0F120112091B0713430C4A89001340FC
:103EC40062461202120A13434350D3E7072AD1D899
:103ED400C8329200835860311A0FC9001B0240187F
:103EE40012071B0A03604260C4E7C046FFFFFFF0ED
:103EF40070B505000C001000072918D8C8339B00C2
:103F0400EA58130F0A2B2CD00B2B04D112011309DE
:103F1400A02212061A43A021000100090906014348
:103F24002800FDF7A3FDC834A400285170BD0A0081
:103F3400083A012AFAD86033DB00EB180CCB190FCE
:103F44000A2914D00B2904D11B011909A0231B062B
:103F54000B43C117FEF702F96034E4002D1903C5C1
:103F6400E4E712011309B02212061A43D3E71B0136
:103F74001909B0231B060B43C117FEF7EFF8603491
:103F8400E4002D1903C5D1E7F0B5C6460C0000B511
:103F940007291ED8072A05D92F48FDF749F880BC00
:103FA400B846F0BD072B36D9190008390129F3D8D2
:103FB4006033DB00C3181968050058680B01000F53
:103FC4001B0900071843254B09021840090A084336
:103FD40025E008390129DFD8110008390129DBD887
:103FE40019000839012925D9072BD5D8C8339B00D6
:103FF400C15860320B0F0902090A8C46D20082189C
:10400400050003CA1B076246FEF7A8F86034E30004
:10401400EB1803C3C3E7C8339B000500C058C8327C
:104024009300E95802002800FDF720FDC834A400DD
:104034002851B4E76033DB00C318603260CBD3008F
:10404400C318070003CB2A003300FEF787F8603457
:10405400E300FB1803C3A2E7D4FE0120FFFFFFF037
:1040640070B506000C00072925D8072A03D9424851
:10407400FCF7DEFF70BD072B45D91900083901296B
:10408400F5D86033C832DB009200C31881580CCBDA
:1040940010011B0F00091B07034338481202034099
:1040A400120A1A431B0F0A2B36D112011309B0222C
:1040B40012061A4337E008390129D8D81100083903
:1040C4000129D4D819000839012933D9072BCED8AE
:1040D4006032D200C83382189B0003CAF258130F0F
:1040E4001D071202AC46120A0A2B39D00B2B02D13F
:1040F400A0231B069C466346FEF730F86034E400B8
:10410400341903C4B6E7C832C83392009B008158FF
:10411400C258130F0A2BC8D00B2B04D11201130958
:10412400A02212061A433000FDF7A0FCC834A400F4
:1041340030519FE760326033D200DB008218F318FD
:1041440003CA1A685B6894461A0F0A2A0CD00B2A11
:1041540004D11B011A09A0231B0613436246CBE7B3
:10416400B0231B069C46C6E71B011A09B0231B0695
:1041740013436246C0E7C046D4FE0120FFFFFFF0B0
:10418400F0B5CE46474680B597B06A460023203244
:1041940004001370002904D117B0C0BCB946B0465E
:1041A400F0BDDD239B00C25881491201120909A800
:1041B40009F082F97F4905AA09A815F0E1FE059BDB
:1041C400C72B7EDDC723FA259B00E258AD00615959
:1041D4007948160009F0ECFC6359002B00D096E0F6
:1041E400E2239B00E358073B022B00D8C0E0DA230C
:1041F4009B00E2581033E358002B66D10F21100EB8
:1042040008403030130F0700100D120C0840114005
:1042140020223030303180468946944620212020A7
:104224003033664E3D0233402B434546644E2D04E5
:1042340033402B434D461B022D061B0A2B4306938A
:1042440063461B0200040B43120603431343079304
:10425400E1239B00E358002B4BD1DB239B00E25866
:104264000433E358202559424B4156485B4206002B
:104274005549AB4341330F0009F01EF901212000D9
:104284000122524B0096FCF713FDDD239B00E258FC
:104294000433E358300059424B415B42AB4339008D
:1042A400413309F009F94A4A0395A25C01210292BB
:1042B40006AA019220000222464B0096FCF7F8FC65
:1042C4006AE7DA43D21713407DE730250F23AC4663
:1042D400100A1840110B84441009103D194018406D
:1042E4001A402F00A846A9463031303030321133FD
:1042F40097E720220292364A0121A25C2000019213
:1043040006AA0092344B0222FCF7D2FC44E7330F96
:104314003500E226B6001900A35130481F0009F009
:1043240047FCA359073B022B00D960E7FA2292000D
:10433400A358002B1CD030260F22B4463B00290E74
:10434400114030310F00290D114030318846290CBD
:104354001140280A1040303189468444290B280929
:10436400114010402A40303330313030303258E779
:104374003026DA230F25B4469B00E258110E29405B
:1043840030310F00110D294030318846110C100ACC
:1043940029403031284089468444110B1009130FF9
:1043A400294028402A40303330313030303238E729
:1043B40000F801203011022010FF0120FF00FFFF50
:1043C400FFFF00FFE4D20220F4F8012060FF012087
:1043D4000C04000068FF012054FF01203CFF012071
:1043E400DB23F0B5534C9B00E2580433E358524EA0
:1043F40059424B412021514F5B428B4397B041338B
:104404003900300009F058F84D4D32004D4928006C
:1044140009F052F8DD239B00E2580433E3583000DE
:1044240059424B4120215B428B434133390009F00F
:1044340043F83200444902A809F03EF802A92800D2
:1044440015F07CFED423414E9B00E25840490023E2
:10445400300009F031F832003E4902A809F02CF886
:1044640002A9280015F06AFEDA239B00E2583A49B3
:1044740002A809F021F802A9280015F05FFEF72030
:10448400F523E022800020589B009200E358A258B4
:104494003249009002A809F00FF8280002A915F08B
:1044A4004DFED7239B00E258531C3CD02C4ED20522
:1044B400D20D30002B4908F0FFFF32002A4902A830
:1044C40008F0FAFF280002A915F038FED8239B0053
:1044D400E258531C2BD0224ED205D20D3000214974
:1044E40008F0EAFF3200214902A808F0E5FF28009D
:1044F40002A915F023FED9239B00E258531C14D0C3
:10450400174CD205D20D2000164908F0D5FF220021
:10451400174902A808F0D0FF280002A915F00EFEE2
:10452400280017B0F0BD134AC8E7124AF0E7114A51
:10453400D9E7C04670B60220E4D20220F4F8012084
:10454400ECD302207CFF012090FF0120A4D20220A2
:10455400A4FF0120ACFF0120C0FF0120D8FF0120EF
:10456400D4D2022000000220080002201C000220F5
:104574003000022078FF0120F8B5DE464E4645465D
:1045840057466B48E0B509F013FB6A4809F010FB85
:10459400FFF726FF0100684809F00AFBC823674EAD
:1045A4009B00F518664B00249946664B664F9B4664
:1045B400664B98462B684A46591C0ED01A0F1B01AD
:1045C4001B090A2A00D1B0E00B2A00D1A6E05F48FB
:1045D4005F49824608F070FF5246210038000134DA
:1045E40009F0E6FA0435082CE4D1D0239B00F41832
:1045F400584B22689946584B082598466368511CC5
:1046040010D04946404608F057FF4246290038007A
:1046140009F0CEFA092D0ED0A26808340925636882
:10462400511CEED1591CECD129003800444A09F040
:10463400BFFA092DF0D10A2009F0EEF9474809F034
:10464400B7FA474809F0B4FA464B4748F15C09F019
:10465400AFFAEA239B00F158444809F0A9FAEB2386
:104664009B00F158424809F0A3FAEC239B00F1584F
:10467400404809F09DFAEE239B00F258043BF158A0
:104684003D4809F095FAF123F022EF219B009200B6
:104694008900F358B2587158384809F089FAF4235C
:1046A400F322F2219B0092008900B258F35871580A
:1046B400334809F07DFAE1239B00F158314809F0B1
:1046C40077FAF8239B00F1582F4809F071FADB239D
:1046D4009B00F61871782D48C907C90F09F068FACC
:1046E4000A2009F099F92A4809F062FA294809F0E0
:1046F4005FFA294B2948196809F05AFA284B2948C6
:10470400196809F055FA284B2848196809F050FA35
:10471400F0BCBB46B246A946A046F8BD2D22594678
:104724004046C24608F0C8FE56E72B22F7E7C046CB
:1047340050000220580002206000022070B60220BF
:10474400440002207000022078000220B4D202202B
:1047540064000220A4FF0120A4D2022088000220C9
:10476400940002200C040000A0000220B8000220E3
:10477400CC000220E0000220F400022018010220F4
:1047840038010220580102206C010220800102201D
:10479400940102209C010220C0D60220A401022020
:1047A400B0D60220C0010220C8D60220DC010220BB
:1047B40030B5B3B0050004F0EBF9164804F012FC70
:1047C400002822D02900144808F076FE2800134956
:1047D40014F0C2FA041E14D0114D03E069462800F7
:1047E40009F0E6F92200C721684614F047FB0028C7
:1047F400F4D1200014F024FB04F0E8F9012033B0D4
:1048040030BD2900074809F0D3F904F0DFF900208E
:10481400F5E7C04620F801201002022030120220E1
:10482400C8FB012020020220F0B5C64600B5B2B094
:10483400040004F0ADF9214804F0D4FB002838D07A
:1048440021001F4808F038FE20001E4914F084FAA5
:104854006D468046002828D01B4F4246C7212800B9
:1048640014F00CFB002816D02B782A2BF5D1174C0A
:10487400260060362A002100380063689847002823
:10488400EBD10834B442F5D14246C721280014F0D4
:10489400F5FA0028E8D1404614F0D2FA04F096F96B
:1048A400012032B080BCB846F0BD2100084809F0B0
:1048B4007FF904F08BF90020F3E7C04620F80120CB
:1048C400100202203012022070B60220C8330220E7
:1048D4002002022010B5040021000848FFF7A4FFBD
:1048E400802300200021DB00E31803C3FE23012200
:1048F4009B00E25000221033E25010BD88BA02201F
:1049040010B502490248FFF78FFF10BD70B60220B0
:1049140034020220F0B5D6464F464646C0B5904C08
:104924000500A54403A815F06BFD03A98D4809F003
:104934003FF904F02DF98C4804F054FB002800D111
:10494400D8E00A2203A908A810F062FD002800D0CC
:10495400CDE0864908A812F0D9FEDB239B00EA5873
:10496400834908A812F0D2FEDC239B00EA5881494F
:1049740008A812F0CBFED4239B00EA587E4908A86D
:1049840012F0C4FED7239B00EA587C4908A812F011
:10499400BDFED8239B00EA58794908A812F0B6FE58
:1049A400D9239B00EA58774908A812F0AFFEDA230E
:1049B4009B00EA58744908A812F0A8FEDF239B0064
:1049C400EA58724908A812F0A1FE714B71491A689D
:1049D40008A812F09BFE704B70491A6808A812F0E0
:1049E40095FEC8239B009946A944A8464E46002438
:1049F4006B4F2200390008CE08A8013412F086FE5D
:104A0400082CF6D1C823674C9B0021000822EB58E0
:104A140008A812F07BFEC9239B002100EB58092251
:104A240008A812F073FE604908A812F06FFE5F4BED
:104A3400002407269A465E4F264266D0A30039001A
:104A4400EA5808A8013412F061FEC82CF4D1594E7A
:104A54002C00310008A812F059FE00239134FF34D1
:104A640004CD9B18A542FBD1534DAA68934267D04D
:104A7400AA69934200D171E05049514F0091514AC3
:104A8400390008A812F042FE002304CC9B184C45C0
:104A9400FBD1AA68934258D0AA6993425AD0474995
:104AA4000091494A390008A812F030FE002341461B
:104AB40004C988469B184945F9D1AA689A423AD054
:104AC400AA69934248D03D49404A009108A8390058
:104AD40012F01CFE310008A812F018FE08A811F00C
:104AE40025FE041E1DD104F071F8012005E03848AC
:104AF40009F05EF804F06AF80020A0239B009D44AE
:104B0400E0BCBA46B146A846F0BD514608A812F02A
:104B1400FDFDA3003900EA5808A812F0F7FD01349E
:104B24008AE714F00DF9220001002A4809F040F840
:104B340004F04CF8E0E700221201AD186968C3E7FD
:104B440000221201AA18516897E700221201AA183C
:104B54005168A5E70122F9E70122EDE70122F0E718
:104B640080FDFFFF5802022020F80120700202207D
:104B74009C020220B0020220C4020220D8020220B9
:104B8400F4020220100302202C0302204803022016
:104B9400F0D5022060030220D8D302207C03022037
:104BA40094030220A0030220B0030220BC030220CD
:104BB400C0030220E4F9012014A8022024100220DA
:104BC40040020220C8030220D4030220E003022092
:104BD40064020220EC03022030B505000C4C85B0C1
:104BE40022000C4B0C490D4804F092FA0C4B2100A6
:104BF4001A686846013208F05FFC69462800FFF72E
:104C040089FE6946074808F0D3FF05B030BDC046A9
:104C140010040220040402202004022020F80120B1
:104C240018D202202C04022010B5094803F0D8FF42
:104C3400002808D0074C08482100FFF76BFE20002D
:104C4400FFF7B6FD10BD0549054808F0B1FFF1E7CF
:104C540020F801203402022070B602200CD3022076
:104C640044040220002370B5204D82B00C002B7048
:104C74000B00072916D9083B012B02D9280002B0E2
:104C840070BDD0339B00C25819480023060019494F
:104C940008F012FC230010212800174A009608F09F
:104CA4001FFCEBE7C8339B00C3585A1C1BD01A0FD8
:104CB4001B011B090A2A0DD00B2A12D00F481049D8
:104CC400060008F0F9FB3300220028000A4908F026
:104CD400F3FBD3E72B2209480A49060008F0ECFB52
:104CE400F1E72D22F7E7084BEEE7C04684D2022015
:104CF400A4D20220A4FF012050040220B4D2022036
:104D0400640002207000022044000220F0B5D64660
:104D14004F464646604D0100C0B58246280015F056
:104D24006FFB5E4B5E4F18002A003900994608F06D
:104D34003FFF2B78002B5CD02B2B01D10B3B2B702E
:104D44006B78002B55D02B2B01D10B3B6B70AB78C0
:104D5400002B4ED02B2B00D181E0EB78002B48D0D8
:104D64002B2B00D17EE02B79002B42D02B2B00D1B2
:104D740081E06B79002B3CD02B2B01D10B3B6B7169
:104D8400AB79002B35D02B2B01D10B3BAB71EB79DD
:104D9400002B2ED02B2B01D10B3BEB712B7A002B4C
:104DA40027D02B2B01D10B3B2B726B7A002B20D0FD
:104DB4002B2B01D10B3B6B72AB7A002B19D02B2B15
:104DC40060D0EB7A002B14D02B2B5ED02B7B002BE6
:104DD4000FD02B2B5CD06B7B002B0AD02B2B01D15B
:104DE4000B3B6B73AB7B002B03D02B2B01D10B3B09
:104DF400AB732C4B2E0000249846280015F008FBBA
:104E040084420FD22B0022003900404608F0D0FE25
:104E140033782D2B1AD0202B18D0302B19D0280002
:104E240015F0F6FA431EEA5C2E2A1ED02A00390039
:104E3400484608F0BDFE2900504615F0E1FAE0BCF2
:104E4400BA46B146A846F0BD20233370013401367A
:104E5400D3E77378302BF7D020232B55DFE70B3BB8
:104E6400AB707AE70B3BEB707DE72A5C002ADDD15F
:104E74002032EA54DAE70B3B2B716B79002B00D01C
:104E84007AE7B6E70B3BAB729BE70B3BEB729DE714
:104E94000B3B2B739FE7C046E0D502205804022049
:104EA400C419022064040220F8B50023234C238093
:104EB400030F0A2B3FD00B2B2CD12D27204D0300A1
:104EC4003A0020490601280008F0F6FA3A001E4983
:104ED400200008F0F1FA0622360F921BE91C20008C
:104EE40015F052F9200015F093FA02221749201800
:104EF40006F040FFA91B32000931200015F044F9E7
:104F04002100280015F07CFA114B1B68002B0ED1F0
:104F14002800F8BD2027092BD0D8094D02000D49DF
:104F2400280008F0C9FA0A4B1B68002BF0D02800AF
:104F3400FFF7ECFEECE72B27C0E7C046F4D20220D3
:104F4400C4D2022074040220F8F8012058FD012084
:104F5400F0D5022058030220F0B5C6463B4B00248E
:104F640098461D0000B53A4F0DE02E683000FFF75B
:104F74009BFF2100030032003800013408F018FEC2
:104F8400C82C0AD004350521200005F039FF00297A
:104F9400EBD10A2008F040FDE7E744460A2008F078
:104FA4003BFD434600229134FF3402CB5218A34206
:104FB400FBD1284EB3689A4233D0B3699A4243D0A6
:104FC400254B264FC8253800254908F0F1FD00225D
:104FD400AD00454408CCD218AC42FBD1B3689A4228
:104FE40024D0B3699A422BD01B4B38001D4908F0DA
:104FF400DFFD0022414608C98846D218A942F9D1EA
:10500400B368934217D0B3699A421BD0124B38004D
:10501400154908F0CDFD0A2008F0FEFC80BCB84616
:10502400F0BD00231B01F3185B68CAE700231B01D2
:10503400F3185B68D9E700231B01F6187368E6E7E9
:105044000123F4E70123F7E70123EBE770B602201D
:105054007C04022014A8022024100220F80102205B
:1050640090040220D4030220E0030220F0B5CE46CF
:105074004746DB2380B59B00C35804000D0091B064
:10508400DB0507D4DB239B00E55011B0C0BCB94657
:10509400B046F0BD514808F08BFDF0231B011D42C2
:1050A40000D08BE04E4808F083FDFA2301229B00D8
:1050B400E25001214B4808F07BFD4B4B1B68002B51
:1050C400E0D04A4808F074FDF72301229B00E25027
:1050D40001212000FFF754F8F2239B00E35803A8B2
:1050E4001A019946424B120919001E0008F0E4F90E
:1050F400404B02AA190003A81F0014F041FF029BB1
:10510400C72B68DCDA43D21713409B00E058FFF743
:10511400CBFE4A46384B0121019000922000022226
:105124009846FBF7C5FDF3239B00E35831001A01B1
:10513400120903A8994608F0BFF9390002AA03A886
:1051440014F01EFF029BC72B43DCDA43D217134033
:105154009B00E058FFF7A8FE4B4603220121019073
:10516400009320004346FBF7A3FDF4239B00E35880
:1051740031001A01120903A8994608F09DF9390073
:1051840002AA03A814F0FCFE029BC72B1FDCDA431F
:10519400D21713409B00E058FFF786FE4B46019060
:1051A40000932000434604220121FBF781FD0522E0
:1051B40001212000114BFBF77BFD63E7FA2300225A
:1051C4009B000021E250074808F0F2FC5AE7C7238D
:1051D400E0E7C723BCE7C72397E7C046A40402203F
:1051E400CC040220F0040220D8D3022008050220B7
:1051F40000F80120301102202405022020F90120AA
:10520400E1239B00C35870B50400002B05D0DB23B9
:105214009B00C358DB0500D4ADE0DA239B00E358C0
:105224001B0F062B00D8A7E0073B022B00D9B6E0E2
:10523400DC239B00E358002B00D0B7E00F22DB23D4
:1052440011009B00E358194008000938092800D8C8
:10525400A1E0002001310F251A092A4012180A2062
:1052640040428446944466460020092E02D8063201
:105274002A4001300F25120151181A0A2A40121827
:105284000A2040428446944466460020092E02D8EF
:1052940006322A4001300F25120251181A0B2A40F7
:1052A40012180A2040428446944466460020092E7F
:1052B40002D806322A4001300F25120351181A0C65
:1052C4002A4012180A20404284469444664600202C
:1052D400092E02D806322A4001300F251204511833
:1052E4001A0D2A4012180A20404284469444664605
:1052F4000020092E02D806322A4001301205521825
:105304000F211B0E0B401B1818000A38092801D85E
:1053140006330B401B069B180F221D0213400A3B49
:105324002D0A052B00D86BE02B061B0F0A3B052B1F
:1053340060D92B051B0F0A3B052B53D92B041B0FDC
:105344000A3B052B46D92B031B0F0A3B052B39D9E6
:105354002B021B0F0A3B052B2CD929002000FFF739
:1053640085FEDB229200A3581B051B0DA350DC23F2
:1053740000229B00E25070BDDC239B00E258002A0F
:1053840011D00F221100043BE358194008000938DA
:10539400092800D95DE70731012011405BE71B486C
:1053A400FBF746FEE7E70122E250E4E71848FBF783
:1053B4004DFE43E7C023DB03ED182900154808F030
:1053C400F7FBCAE7C023DB02ED182900114808F0F7
:1053D400EFFBBDE7C023DB01ED1829000D4808F001
:1053E400E7FBB0E7C023DB00ED182900094808F00B
:1053F400DFFBA3E760352900064808F0D9FB98E7EE
:1054040006352900034808F0D3FB8DE75405022034
:105414003005022000FE0120D423CD2170B59B006D
:10542400C35804001A0290B0120A49008A4254D2A6
:10543400A0221B011B0912061343D625D422AD005A
:10544400635100239200A3500432A350DB239B003A
:10545400E2580433E358234E59424B4120215B4226
:105464008B4341332049300008F026F80122012102
:1054740020001E4B0096FBF71BFC6259531C2ED0D8
:105484001B4ED205D20D30001A4908F015F86259A6
:1054940012011949120903A808F00EF8174902AAC3
:1054A40003A814F06DFD029BC72B12DDC7239B00DC
:1054B400E058FFF7F9FC0622019001212000104B6F
:1054C4000096FBF7F5FBFE2301229B00E25010B08F
:1054D40070BDDA43D2171340E9E70A4BADE70A4E31
:1054E400D6E7C046E4D20220F4F80120FCF80120FB
:1054F400D4D202200000022000F801203011022042
:1055040064050220990100A078FF0120F0B5C64689
:10551400D42300B59B00C7580833C258364E90B008
:10552400120131001209040003A807F0C5FF334B30
:1055340002AA190003A8984614F022FD029BC72B67
:105544004FDDC7239B00D422E75000239200A350D1
:105554000432A350DB239B00E2580433E358D625DE
:1055640059424B412021264F5B428B43413325490D
:10557400380007F0A1FFAD00012201212000224BD9
:105584000097FBF795FB6259531C32D01F4FD2058D
:10559400D20D38001E4907F08FFF62591201310005
:1055A400120903A807F088FF414602AA03A814F0D1
:1055B400E7FC029BC72B18DDC7239B00E058FFF7CD
:1055C40073FC0622019001212000124B0097FBF787
:1055D4006FFBFE2301229B00E25010B080BCB84652
:1055E400F0BDDA43D2171340ACE7DA43D2171340C5
:1055F400E3E7094FD2E7C04600F80120301102204A
:10560400E4D20220F4F80120FCF80120D4D20220D4
:10561400000002206405022078FF012070B5D62521
:10562400AD004159244A90B00400FCF71FFACD2381
:105634000002000A5B00984230D39A221F4BFF32CB
:10564400D6261F4DB600A3511E49280007F034FF8B
:10565400A2591D491201120903A807F02DFF1B4985
:1056640002AA03A814F08CFC029BC72B12DDC723EB
:105674009B00E058FFF718FC06220190012120004E
:10568400134B0095FBF714FBFE2301229B00E25011
:1056940010B070BDDA43D2171340E9E7064A200080
:1056A4006159FCF7E3F9A023020112091B06134315
:1056B400C205D20DC4E7C046010000A0990100A0B4
:1056C400D4D202200000022000F801203011022070
:1056D4006405022070B5D625AD004159244A90B026
:1056E4000400FCF7C3F9CD230002000A5B009842D2
:1056F40030D39A221F4BFF32D6261F4DB600A3513A
:105704001E49280007F0D8FEA2591D4912011209AA
:1057140003A807F0D1FE1B4902AA03A814F030FC29
:10572400029BC72B12DDC7239B00E058FFF7BCFB8D
:105734000622019001212000134B0095FBF7B8FAD3
:10574400FE2301229B00E25010B070BDDA43D21751
:105754001340E9E7064A20006159FCF787F9A023C2
:10576400020112091B061343C205D20DC4E7C04649
:10577400010000B0990100A0D4D202200000022050
:1057840000F801203011022064050220F0B5D42372
:10579400C6469B0000B5C55804002B0F0A3B82B0D7
:1057A4000B39012B2CD9D5239B00C358002B27D1AF
:1057B4002D016918DB23D4269B00E2580433E358F7
:1057C400B600A15159424B412021234D5B428B43EA
:1057D40041332249280007F06FFEA059FFF764FB0C
:1057E40001220190012120001D4B0095FBF760FA76
:1057F400FE2301229B00E25002B080BCB846F0BDFB
:105804002B021A0A1B095F182E0139001548360F9E
:10581400904608F0CDF9002E10D1D5239B00E35813
:1058240039025A1E93410A0A90461B060E49294022
:1058340019434346090E09061943BBE7731C062E98
:1058440002D1C023DB04F1E7F0221B061205390262
:1058540013400A0A9046E9E7E4D20220F4F8012052
:105864007C0502206C050220FFFFFFF0F0B5D52374
:10587400D4250126A022AD009B0087B0C650435911
:1058840012061B021B0A13434351DB239B00C2581D
:105894000433C358040059424B4120210D4F5B424D
:1058A4008B4341330C49380007F006FE6059FFF77B
:1058B400FBFA3A000300094901A807F0FDFD01AB1A
:1058C400012201212000FBF7F3F9FE239B00E6509F
:1058D40007B0F0BDE4D20220F4F801207C050220D8
:1058E40070B5D425B022AD00435912061B011B0923
:1058F400134386B04351DB239B00C2580433C3587F
:10590400040059424B4120210E4E5B428B434133EC
:105914000D49300007F0D0FD6059FFF7C5FA320099
:1059240003000A4901A807F0C7FD01AB01220121C8
:105934002000FBF7BDF9FE2301229B00E25006B0D4
:1059440070BDC046E4D20220F4F801207C05022098
:1059540070B5D522D4260023B600920082B08351BC
:105964008350DB239B00C2580433C35804005942BC
:105974004B4120210C4D5B428B4341330B492800A2
:1059840007F09AFDA059FFF78FFA01220190012137
:105994002000074B0095FBF78BF9FE2301229B00A7
:1059A400E25002B070BDC046E4D20220F4F80120F7
:1059B4007C05022008B4F0B5CE4647468946C82186
:1059C40080B5E6B06DAB20CB8046140049002A00B8
:1059D40002A8019307F098FD02A814F019FD1028FD
:1059E4002ED8621ED400A4181B4B6400A418E4181B
:1059F4002A001021019B200007F086FD200014F0EE
:105A040007FD0F26361A002E0DDD0025134F02E088
:105A1400200014F0FDFC022239002018013506F0A4
:105A2400A9F9AE42F4D1FE23424649469B00D15027
:105A340066B0C0BCB946B046F0BC08BC01B018475B
:105A44002900074808F0B4F802A9064808F0B0F89D
:105A5400054808F02BF8C4E780C902201CF901208E
:105A6400C8F80120D4F80120E8F80120F0B5DE469A
:105A7400574645464E46E0B58A460500C549C648E0
:105A840093B008F095F8FA239B00EB58002B00D153
:105A940003E10023C14A05AC137002928022C04B7B
:105AA400520019002000994607F006FDBD4E04AFD0
:105AB4003A003100200014F063FA049BC72B00DD88
:105AC40065E1DA43D217134080229B00EB58494624
