:020000041000EA
:1000000000B5324B212058609868022188439860DF
:10001000D860186158612E4B002199600221596106
:100020000121F02299502B49196001219960352056
:1000300000F044F80222904214D00621196600F024
:1000400034F8196E01211966002018661A6600F04E
:100050002CF8196E196E196E052000F02FF8012189
:100060000842F9D1002199601B49196000215960AB
:100070001A491B48016001219960EB211966A021F2
:10008000196600F012F800219960164914480160C1
:100090000121996001BC002800D000471248134993
:1000A000086003C880F30888084703B5996A0420EC
:1000B0000142FBD001200142F8D103BD02B5186610
:1000C0001866FFF7F2FF186E186E02BD00000240BE
:1000D000000000180000070000035F00212200005C
:1000E000F4000018222000A00001001008ED00E03C
:1000F00000000000000000000000000074B24E7A12
:1001000000200420F7010010C3010010C5010010F9
:10011000C1010010C1010010C1010010C101001097
:10012000C1010010C1010010C1010010C701001081
:10013000C1010010C1010010C9010010CB01001065
:10014000CD010010CD010010CD010010CD01001037
:10015000CD010010CD010010CD010010CD01001027
:10016000CD010010CD010010CD010010CD01001017
:10017000CD010010CD010010CD010010CD01001007
:10018000CD010010CD010010CD010010CD010010F7
:10019000CD010010CD010010CD010010CD010010E7
:1001A000CD010010CD010010CD010010CD010010D7
:1001B000CD010010CD010010CD010010CD010010C7
:1001C00000BE00BE00BE00BE00BE00BE00F051F882
:1001D000103800BEF2EB8871E00200100C03001032
:1001E0003402001090A31AE700202449086006C8D2
:1001F00081F30888104722480068002835D10DA4F3
:100200000ECC002902D000F012F8F9E71D491E4A71
:10021000002000E001C19142FCD11C4988471C49E3
:1002200088471C49884700BEFDE701C901C29A42C0
:10023000FBD370470C030010C000002048D1012000
:1002400094D3011050D1012078850220BC87021080
:100250000000042000000420BC87021000100420CD
:10026000001004200000000070470B4800F018F850
:100270000047EFF30580C0B27047000008ED00E0D2
:10028000000000D07885022060A1022005890020AE
:10029000555E0020698A00205756000000000000CB
:1002A00001B40248844601BC604700BF69A7002032
:1002B00006005250ABB360537CFA01200600525046
:1002C000861C03028CFA0120060052505422A29D83
:1002D000ACFA012005005250DE65F468BC870210BC
:1002E000D4020010C8020010BC020010B8FA0120AD
:1002F000B0020010C4FA0120D0FA0120DCFA01207B
:0C03000018FB012024FB012058FB012009
:10030C00F8B5C0460448054B10B5834203D0044BE6
:10031C00002B00D0984710BD7885022078850220EC
:10032C000000000006480749091A8B10C90FC918AC
:10033C0010B5491003D0044B002B00D0984710BDCA
:10034C0078850220788502200000000010B5074C4B
:10035C002378002B09D1FFF7D5FF054B002B02D0DA
:10036C00044800E000BF0123237010BD80860220EA
:10037C000000000048D10120054B10B5002B03D024
:10038C000449054800E000BFFFF7CCFF10BDC04694
:10039C00000000008486022048D101207047C0462E
:1003AC00D423CD219B00C35849001A02120A8A4259
:1003BC0010D2A0221B011B0912061343D822920053
:1003CC008350D423A0229B001206C25001229833E2
:1003DC00C2507047004BF1E7990100A0D4239B0059
:1003EC00C2581833C25000220433C2507C3301323D
:1003FC00C250704710B5D523D4240121A022A400EB
:10040C009B00C150035912061B021B0A13430351D4
:10041C00FA239B00C15010BDD421B022890043584F
:10042C0012061B011B0913434350FA2301229B00A4
:10043C00C2507047FE2320229B00C254D4220023BA
:10044C009200835004328350E023012230B5A02463
:10045C00A0259B00C250283BC3182D0624061C6007
:10046C005D60A021D82309069B00C1500123E9211E
:10047C005B42890043500431435004314350FA230A
:10048C009B00C25030BDC046F42301229B00C250D9
:10049C007047C046F62301229B00C2507047C046ED
:1004AC00FF2300229B00C250FC22012392008350A8
:1004BC00083A83507047C046FF229200835801339C
:1004CC008350FA2301229B00C2507047FF229200F6
:1004DC008358002B01DD013B8350FA2301229B0042
:1004EC00C2507047FC2300229B00C250083B0132D3
:1004FC00C2507047FC2330B5012500249B00C31863
:10050C001C605D60FA2301229B00C25030BDC046C6
:10051C00FA230121014A9B00D1507047C894022054
:10052C00084B0948094918605960094809499860FD
:10053C00D960094809491861596109480749986106
:10054C00D9617047C89402206303520356005610B9
:10055C0050055305520551055405530551075106D5
:10056C00002400240A4B01211A680A4B1A60B82394
:10057C005A43094B9B18002219611A76074B1960D4
:10058C00074B1960074B1A60074B1A707047C0462F
:10059C005491022054920220B06902205C920220F5
:1005AC00609202204C920220C8980220F8B5D42305
:1005BC004746CE469B00C65880B5370F3B000A3BDA
:1005CC0005000B39012B10D9D5239B00C358002BE8
:1005DC000BD136018919D42301229B00E9509833A1
:1005EC00EA500CBC90469946F8BD33021A0A904664
:1005FC003201120F91461B09CC18210016480BF042
:10060C0071F94B46002B10D0591C062B1CD1C02263
:10061C00D20433011B0939071943104B19404346C7
:10062C001143090E09061943D5E7D5239B00EB5856
:10063C002402002B04D08022230A98465204E8E7B7
:10064C00230A98460022E4E7F02224020906120548
:10065C00230A98460A40DCE780D50120FFFFFFF013
:10066C00D0220C4B0C480D49920010B59C18206000
:10067C00616000210A48203A9A1810605160094ABA
:10068C0009481A600BF02EF92268636807480BF0D2
:10069C0029F910BDC89402203254760830547608DB
:1006AC00563412001814101490D50120A0D5012036
:1006BC0010B50E480AF0C0FF0D4B0E481A680E4BD1
:1006CC0019680BF00FF90D4B0D4819680BF00AF96E
:1006DC000C4B0D481A680D4B19680BF003F90C4BB9
:1006EC000C4819680BF0FEF810BDC046B8D50120B7
:1006FC002C910220C8D50120349102203091022087
:10070C00ECD501203C91022004D60120249102203A
:10071C003891022018D6012010B5054C05482168E7
:10072C000BF0E0F82068253805F00AFF10BDC04634
:10073C004091022024D6012010B50A2005F000FFBC
:10074C0010BDC04610B5092005F0FAFE10BDC0461C
:10075C0010B5152005F0F4FE10BDC04610B51620DE
:10076C0005F0EEFE10BDC04610B5172005F0E8FEF2
:10077C0010BDC04610B5072005F0E2FE10BDC04606
:10078C0010B51A2005F0DCFE10BDC04610B50220D5
:10079C0005F0D6FE10BDC04610B5062005F0D0FE03
:1007AC0010BDC04610B5052005F0CAFE10BDC046F0
:1007BC0010B5032005F0C4FE10BDC04610B50420D2
:1007CC0005F0BEFE10BDC046FA23002110B5034A49
:1007DC009B001820D15005F0B3FE10BDC894022028
:1007EC00FA23002110B5034A9B001920D15005F0C3
:1007FC00A7FE10BDC8940220F0B50022C646114BCE
:10080C00114C00B525001A600023012798460F4EA5
:10081C00183504E043462B7027610135B83431009C
:10082C00206817F00FFF0028F4D10122084B186044
:10083C00084B1A60084B1860084B187004BC9046A3
:10084C00F0BDC04654920220B069022028D6012087
:10085C005C920220609202204C920220C8980220E6
:10086C0030B583B005000A49100001AA17F022FE2A
:10087C000400012803D00024200003B030BDDA238B
:10088C00019A9B001100EA5002480BF02BF8F3E799
:10089C0030D6012040D6012030B583B005000A497E
:1008AC00100001AA17F006FE0400012803D0002452
:1008BC00200003B030BDDB23019A9B001100EA50ED
:1008CC0002480BF00FF8F3E758D6012068D6012048
:1008DC00002330B583B005000A49100001AA01932A
:1008EC0017F0E8FD0400012803D00024200003B019
:1008FC0030BDD423019A9B001100EA5002480AF043
:10090C00F1FFF3E780D6012090D6012010B582B01C
:10091C0001AB0400114910006A4617F0CBFD00230F
:10092C00022802D0180002B010BD0099019A0129CA
:10093C0010D002290AD0002904D009480AF0D2FFAD
:10094C000123EFE7D6239B00E250F6E7D8239B0068
:10095C00E250F2E7D7239B00E250EEE7ACD6012041
:10096C00C4D6012030B583B005000A49100001AA95
:10097C0017F0A0FD0400012803D00024200003B0D0
:10098C0030BDD923019A9B001100EA5002480AF0AD
:10099C00A9FFF3E7E4D6012000D7012030B583B0DE
:1009AC0005000A49100001AA17F084FD0400012873
:1009BC0003D00024200003B030BDDE23019A9B003D
:1009CC001100EA5002480AF08DFFF3E720D701200E
:1009DC0034D7012010B508490400084806F0B0FAD5
:1009EC00FC23012000219B00E31818605960FA23B6
:1009FC0001229B00E25010BD909B02204CD701209D
:100A0C00F0B5D6464F464646C0B5174882B00AF0F8
:100A1C0013FE164B00259946154B164C9846164B53
:100A2C00164F9A4626683900300017F00BFE002846
:100A3C000CD022694346002A00D1534622001832BA
:100A4C0000922900320048460AF04CFF0135B834B8
:100A5C00172DE7D10A200AF09DFD02B01CBC904670
:100A6C009946A246F0BDC04664D7012074D7012038
:100A7C0054D70120B06902205CD7012028D6012070
:100A8C0070B50A200AF086FD094C0A4E2500E135A6
:100A9C00FF35626813782A2B03D0300021780AF0D6
:100AAC0021FF0C34AC42F4D103480AF01BFF70BD9B
:100ABC00201C02208CD7012098D7012070B5284823
:100ACC000AF010FF274D284C3FE0D02301220221D1
:100ADC001B069A6199610231996180000431996118
:100AEC0041598A405A61D02301221B0659685B6820
:100AFC0009095B0911401A4201D002231943D02382
:100B0C001B065B685B0601D504231943D0231B0627
:100B1C005B681B0601D508231943D0231B065B68B1
:100B2C00DB0501D510231943D0231B065B689B05FD
:100B3C0001D520231943D0231B065B685B0501D527
:100B4C004023194320000AF0CDFEFA2080000AF061
:100B5C00DBFE431CC7D030380328B6D970BDC04665
:100B6C00B4D70120B0F3012024D6012070B5274D55
:100B7C000600286814008EB0002801D10EB070BD9C
:100B8C000DAB05930CAB04930BAB03930AAB029325
:100B9C0009AB019308AB009320001D4907AB06AAD3
:100BAC0017F088FC082805D000231A4A00202B6077
:100BBC001360E3E7174A136898003018410713D104
:100BCC00069C079D04604560089C099D8460C56077
:100BDC000A9C0B9D046145610C9C0D9D8461C56153
:100BEC00083301201360C9E7069901600799416039
:100BFC00089981600999C1600A9901610B99416159
:100C0C000C9981610D99C161EAE7C0466891022097
:100C1C00C0D701206C910220100010B507220849A2
:100C2C0017F0C4FD0023002801D0180010BD0122CC
:100C3C00044B05481A600AF055FE0123F5E7C0463F
:100C4C00DCD7012068910220E4D701207047C04610
:100C5C0008B4F0B582B007AC80CC05000E00094892
:100C6C0009490AF03FFE23003A001021074801947D
:100C7C0009F03CFEFA239B00EE5002B0F0BC08BC1D
:100C8C0001B01847F8D7012078F20120289A0220E9
:100C9C00FE2320229B0070B5C254D4220023920064
:100CAC008350043283502C328350D6239B00040093
:100CBC00C318A021A0200906000618605960A022C4
:100CCC00D8231B4D9B001206E25020002B00012262
:100CDC000121FFF7BDFF2B00200001220221FFF7AD
:100CEC00B7FF2B00200001220321FFF7B1FF2B00DF
:100CFC00200001220421FFF7ABFF2B002000012272
:100D0C000521FFF7A5FF2B00012206212000FFF78C
:100D1C009FFF0123E9225B429200A3500432A350AF
:100D2C000432A350FA2301229B00E25070BDC0464E
:100D3C0014F6012010B5034809F036FE002103001B
:100D4C000020984755420000F0B5244885B00AF0C1
:100D5C00C9FD0023224C234E234D2360FA20800032
:100D6C000AF0D2FD431C35D03928F7DC2F2807DCDC
:100D7C001B28F3D81D4BC340DB07EFD505B0F0BDE6
:100D8C002268303893009B185B00181831002060E3
:100D9C0028000AF0A7FD1649164B086816491B686F
:100DAC0009685A1E93414F1EB941212249425B42A8
:100DBC0013400A40203201900090029222682033A6
:100DCC0011000E480AF08EFDFA2080000AF09CFDFE
:100DDC00431CC9D10AF006FDC0E7C04604D8012067
:100DEC00549102206892022030D80120002400087F
:100DFC00688B0220808B02207C8B022048D801203B
:100E0C00D42330B504009B00C5581033C25887B0AA
:100E1C0012010949120901A809F040FD6A46074967
:100E2C0001A817F047FB009B01229B001D51FA23E0
:100E3C009B00E25007B030BD64D6012028F701209A
:100E4C000FB400B5B5B036AB04CBC82102A80193E2
:100E5C0009F04CFD35B008BC04B018470FB400B510
:100E6C00B5B036AB04CBC82102A8019309F03EFD06
:100E7C0002A903480AF036FD35B008BC04B0184787
:100E8C0094D801200FB470B5AAB02EAB04CBA0211E
:100E9C0002A8019309F02AFD02A919480AF022FDC3
:100EAC00184D9E24280017F019FC241A060002A8DD
:100EBC0017F014FC32000300210013480AF012FD55
:100ECC00631C15D0280017F009FC02220F492818C2
:100EDC000AF056FA02A92200280017F033FC290068
:100EEC000B480AF0FFFC2AB070BC08BC04B01847D1
:100EFC0021232200290007482B700AF0F3FCF2E7AB
:100F0C00ACD80120C8980220C0D80120E8E101200B
:100F1C00F8D80120E8D8012010B50020D02406F024
:100F2C0055FA012324066362012006F04FFA0223CE
:100F3C000220636206F04AFA04230320636206F07F
:100F4C0045FA08230420636206F040FA10230122BC
:100F5C00A3620021042006F021FA052006F036FADF
:100F6C0020230122A3620021042006F017FA062098
:100F7C0006F02CFA40230122A3620021042006F083
:100F8C000DFA072006F022FA80230122A362002129
:100F9C00042006F003FA082006F018FA80235B0000
:100FAC00A36201220021042006F0F8F9092006F0C2
:100FBC000DFA80239B00A36201220021042006F07D
:100FCC00EDF90A2006F002FA8023DB000122002151
:100FDC000420A36206F0E2F910BDC046F0B55746F6
:100FEC004E46DE464546E0B5CC4E0700316895B01E
:100FFC00002901D1CA4B1960D02201201206536876
:10100C0052681B0952090340104201D002221343BB
:10101C00D02212065268520601D504221343D02264
:10102C0012065268120601D508221343D02212066A
:10103C005268D20501D510221343D02212065068F3
:10104C00012480051BD5202052680343920A1442C8
:10105C0001D100F018FD40221343B24A1360B0488E
:10106C00B14A04681460CA0113430360032949D0D0
:10107C0015B03CBC90469946A246AB46F0BD5268B2
:10108C00920A1442E7D1A74A1360002BE7D1A74874
:10109C00026801320A2A41DD0360A54B99461B68A0
:1010AC00002BE3D0A34BA44A1D68002D4FD0A34BBB
:1010BC0094469A465146B823096803924B43A04A7A
:1010CC00634412689F4804929A68049B9B009B5847
:1010DC00984619000AF006FC4346002B00D1A1E00B
:1010EC001E2B00D19EE0414697480AF0FBFB404680
:1010FC0005F026FA924B924A1B6831680393013330
:10110C001360B3E7864B914C1968914D23682960A5
:10111C00994201D0002903D12160A9E70260A5E71B
:10112C008C480AF0DFFB8C4800230200296803E09E
:10113C00013308321C2BEFD01668B142F8D1DB001A
:10114C00C318586805F0FCF92968216090E7B824A9
:10115C007A4B82489A461B6803926343D1580AF033
:10116C00C1FB5346039A196894464C436444606926
:10117C00C82400238C46640003E0FA500433A342D5
:10118C0002D0C258511CF8D16146B823039A4B4384
:10119C00944663445A68724B00249B46714B9846A4
:1011AC00534604932301D018D35CBA460B2B18D0AA
:1011BC000E2B27D00A2B22D0220040460AF092FB9D
:1011CC0000234A461360049B039A1968B82394467B
:1011DC004B4363445A6801342301D018D35C0B2B66
:1011EC00E6D18368C0689C462B00072D00D821E30C
:1011FC00083B012B0ED95846FFF722FEE3E7856822
:10120C000134E9E701234B4A3168136000224C4B4F
:10121C001A602BE767466833DB0053441F60586045
:10122C000134D9E75246B82312684F485343039A06
:10123C000124D1580AF056FB4C4B64429B4619686A
:10124C001E2304935346BA461F00424648480AF0F0
:10125C0049FB5B461A68B8230398396884464B43AC
:10126C006344DB68150158195D5D2B00143BDBB240
:10127C000A2B00D9E6E33F4A9B00D3589F46AA4667
:10128C0005001E23049341462A003B480AF02AFB22
:10129C005B461B682C00591C5B461960D5E7604601
:1012AC00AA468468354821000AF01CFB5B461B6883
:1012BC004246591C5B462E4819600AF013FB5B46EC
:1012CC001A68B8230398396884464B436344DB6837
:1012DC00150158195D5D2B00143BDBB20A2B00D9AC
:1012EC00B0E3274A9B00D3589F4614230493F4235E
:1012FC0052469B00F625D2585346AD005959214809
:10130C000AF0F0FA53465B59002B00D0AEE25B4674
:10131C001B68591C5B46196097E7C0462491022054
:10132C0034910220389102202C91022050920220FC
:10133C00609202204C920220B0690220549202204A
:10134C00649202200CD90120BCDB012028910220E0
:10135C00309102202CDC0120401B0220D0DB01202C
:10136C00E8DB012004DC012018D90120589202206E
:10137C0048D9012038DC01209CD901208CD90120CE
:10138C0064DC0120E8D9012014230493F423524691
:10139C009B00F625D2585346AD005959B9480AF06E
:1013AC00A1FA53465D59002DB1D1B748FFF76AFD3C
:1013BC00B8233A685343039A944663441D61A6E7E5
:1013CC006046AA468468B14821000AF08BFA5B4655
:1013DC001B684246591C5B46AD4819600AF082FAFC
:1013EC005B461A68B8230398396884464B436344B8
:1013FC00DB68150158195D5D2B00143BDBB20A2B21
:10140C0000D91FE3A34A9B00D3589F46A2480AF079
:10141C0013F900234A4613605A46BA460133136047
:10142C009E4C2368002B00D00BE25246B823126866
:10143C009B4D5343039AD2181269002A00D187E2BC
:10144C0098480AF04FFA534652461B68002701335E
:10145C001360B8225343039A9349D0582F7017F056
:10146C00F1F8002800D17AE201234A4613608F4B31
:10147C00316827601F60F9E58D480AF033FA8D4B0F
:10148C008C4A1B68BA460493013313605B465A4678
:10149C001B68013313604B461B68002BC0D0864879
:1014AC000AF020FA3168E1E5049D844A2B00143BD4
:1014BC009B00D158824B0592180004930AF012FA43
:1014CC00192D00D114E11E2D30D0142D2ED05B46D9
:1014DC001B684246591C5B466D4819600AF002FABB
:1014EC005B461A68B8230398396884464B436344B7
:1014FC00DB68150158195D5D2B00143BDBB20A2B20
:10150C0000D99FE26F4A9B00D3589F46192304933E
:10151C00B9E614230493B6E6684B05931B680A934B
:10152C00674B0A99180004930AF0DCF908235B4214
:10153C009C46A44463460B93E3B20D93230055469B
:10154C006033DB0053440C93631C00D10FE21E2C60
:10155C0005D80123A3405C4A134200D0D5E1DA231D
:10156C00152C00D12AE2182C00D126E2D823162CF7
:10157C0000D123E2172C00D17EE2072C00D823E205
:10158C000B9B012B00D86BE221005048FFF758FC55
:10159C00B8239A4652463B6806995343039A94469D
:1015AC005A4663441268DB6812019B189A68DB6820
:1015BC008A4200D111E2210045480AF093F90D9BB3
:1015CC00132B00D833E2FF232340059A143B9B00D6
:1015DC00D3589A46DA23152C00D1E8E1182C00D107
:1015EC00E4E1D823162C00D1E1E1172C00D182E2E2
:1015FC00072C00D87CE20B9B012B00D872E2210057
:10160C003248FFF71DFCB8233A6859465343039AF6
:10161C00096894466344DB680A019B189A68DB6886
:10162C005146009201932B48089A099BFFF72AFC1C
:10163C00B823039A3968944600224B4363441A61D9
:10164C005B461B684246591C5B46114819600AF000
:10165C0049F95B461A68B8230398396884464B43AA
:10166C006344DB6810010A921A18185C9446030054
:10167C00143BDBB20A2B00D9E2E1174A9B00D3588A
:10168C009F46C046B4D90120DCD9012074D9012071
:10169C0048D9012090DC012010DB01205C92022053
:1016AC00C898022078DB012028D601204C92022019
:1016BC0064D901206492022054DB01209C1E02207C
:1016CC0038D90120BCDC012000001046B0DA012022
:1016DC00E0DA0120F4DA0120E8DC0120EC4B059380
:1016EC005B690A93EB4B0A99180004930AF0FAF819
:1016FC0025012D092A00E8490FA809F0CFF8E74980
:10170C000EAA0FA816F0D6FE52460E9B39689B0007
:10171C009A58B8234B4303998C465946634409683D
:10172C00DB6809015B189968914200D1AAE02A0094
:10173C00D9490FA809F0B2F8D8490EAA0FA816F08B
:10174C00B9FE52460E9B39689B009A58B8234B43FE
:10175C0003998C46594663440968DB6809015B1898
:10176C009868D968009001912100CD480AF0BAF828
:10177C002A00C9490FA809F091F8C8490EAA0FA868
:10178C0016F098FE52460E9B039D9B009A58B82368
:10179C003968AC464B43594663440968DB68090118
:1017AC005B189868D968009001912100BD48FFF73B
:1017BC0069FBB8233A68AC465343002263441A6170
:1017CC005B461B684246591C5B46B74819600AF0D9
:1017DC0089F85B461A68B823AC46396815014B4347
:1017EC006344DB6858195D5D2B00143BDBB20A2B9C
:1017FC0000D927E1AD4A9B00D3589F461923049387
:10180C0075E519230493C1E5AA461E2304936EE5DE
:10181C00AA461E230493B9E5059B0498996A0AF01D
:10182C0061F883E6059B04989B6A19000A930AF0F9
:10183C0059F87BE650466746C8339B001F5001346D
:10184C00CAE453461A68B8235343039AD218126950
:10185C00002A02D03168FFF709FC039A1833944927
:10186C00D01816F033FF3168FFF700FC9148FFF7F2
:10187C0009FBB8233A685343039A94460022634405
:10188C001A6144E5DB68002B00D050E72A0082493E
:10189C000FA809F003F881490EAA0FA816F00AFE4A
:1018AC0052460E9B39689B009A58B823039D4B43B4
:1018BC00AC46594663440968DB6809015B189868B3
:1018CC00D9680090019121007B480AF00BF85B4627
:1018DC001B684246591C5B46734819600AF002F8B3
:1018EC005B461A68B823AC46396815014B43634410
:1018FC00DB6858195D5D2B00143BDBB20A2B00D959
:10190C00A0E06E4A9B00D3589F466D4809F0EAFF51
:10191C005B461B684246591C5B466348196009F0DC
:10192C00E1FF5B461A68B8230398396884464B4339
:10193C006344DB6810010A921A18185C9446030081
:10194C00143BDBB20A2B7BD85E4A9B00D3589F46D4
:10195C00039A18332900D01816F0B8FE70E54B46E0
:10196C001860594809F0BEFF3168FFF77FFBAA46A3
:10197C005B461B684246591C5B464B48196009F094
:10198C00B1FF5B461A68B8230398396884464B4309
:10199C006344DB68150158195D5D2B00143BDBB209
:1019AC000A2B4FD8494A9B00D3589F46D4239B00FF
:1019BC00EB5808930023099325E6D4239B00EB589E
:1019CC00069300230793E3E52300C833F6E7059B52
:1019DC000498996A09F086FFB6E507998B4200D006
:1019EC00E9E50B00069A2100394809F07BFF5B46BC
:1019FC001B684246591C5B462B48196009F072FF64
:101A0C005B4618685346039A396894464B436344C3
:101A1C00DB680A9000011A18185C94460300143B0A
:101A2C00DBB20A2B0CD82B4A9B00D3589F462A4A70
:101A3C0014219246E3B25046184A08F043FFC9E518
:101A4C0005000A9A2B00254809F04CFF00234A4652
:101A5C0013605B465A461B68BA4601331360DFE4D9
:101A6C000C9B1A685B680692079391E5059B04989A
:101A7C00996A09F037FF7BE7DF239B00EB5806934D
:101A8C00DB17079384E5164A1360FFF7E8FAC046A4
:101A9C009C1E022038D9012064D6012028F7012091
:101AAC0040DA01205CDA012048D9012014DD012044
:101ABC00C898022014DA012020DA012040DD012030
:101ACC0080DA01206CDD012090DB012098DD012003
:101ADC00CCDA0120C4DD01206899022024DB01202E
:101AEC00389102200C9B1A685B68089209938AE56E
:101AFC002300C8335BE7DF239B00EB580893DB170D
:101B0C00099380E5F0B5DE4657464E464546E0B5AE
:101B1C00814695B08A46002000211393694B12929E
:101B2C00002400229B460C900D9120235B42E5186B
:101B3C0075D42F33AB40190009930F234846A340AB
:101B4C009846184053460B40002D00DA8EE01900E1
:101B5C00E9400491E34005934346129809991840D3
:101B6C00139B0B40002D00DA78E01900E940069138
:101B7C00E340049E059F07930023069807993618A7
:101B8C004F410B930A920A990B9A76185741069873
:101B9C000799049A059B0090019102960397594668
:101BAC00494809F09FFE43460293099B494603931B
:101BBC000F23A340DA170B4051460A4000930192C1
:101BCC0053464A46414809F08DFE0A225242D31729
:101BDC0092197B41002B28D1092A26D806220023F2
:101BEC000F2192197B410A40002D51DB1300AB40B1
:101BFC001193A2401092109811990C9A0D9B1218E7
:101C0C004B410434594632480C920D9309F06AFE4C
:101C1C00402C43D020235B420122E51889D5202398
:101C2C000F211B1BD940099187E7002D26DB3300C0
:101C3C00AB400F933300A3400E930E980F990C9A60
:101C4C000D9B12184B410434594621480C920D93AC
:101C5C0009F048FE402C21D0002266E720211E000E
:101C6C00091B8E40E0403043069081E720211E0086
:101C7C00091B8E40E040304304906BE72023320078
:101C8C001B1BDA4013003A00A2401A430F92D1E713
:101C9C00202311001B1BD9401191AAE70C9D0D9E0E
:101CAC003404240C59462A0023000A4809F01AFE71
:101CBC002800210015B03CBC90469946A246AB4684
:101CCC00F0BDC046DCF20120B4DE0120DCDE0120D8
:101CDC0084DE012004DF0120F0B5DE465746454680
:101CEC004E46E0B5050087B0D4480E0009F0FAFD69
:101CFC00D34BD44F98462A0033003900404609F0A4
:101D0C00F1FD340F2B0F22001900CF482D013601A5
:101D1C009A4604942D0909F0E5FD3609B54201D91E
:101D2C005346049332002900C84809F0DBFD5346A2
:101D3C000B2B00D103E10A2B02D10A2C00D110E1AC
:101D4C00C34B1800994609F0CDFD0B2C01D1C14BAA
:101D5C009E1B33002A003900404609F0C3FD48465B
:101D6C0009F0C0FD00239946BB4B00219846BB4BA4
:101D7C0000240293BA4B9B460F239A464B46A94626
:101D8C001D0053464A46A3401A403340E340E2400C
:101D9C00D7187F1802984146009709F0A3FD3B0025
:101DAC000A3B092B0ED8534606371F40A740ED19A6
:101DBC002A0041465846043409F094FD202C0DD0DD
:101DCC000121DEE7A740ED192A00414658460434AC
:101DDC0009F088FD202C01D00021D2E72C02240A26
:101DEC00220041469F4809F07DFD9F4B21001800C1
:101DFC00039309F077FD9D4B002699460F239C4FCA
:101E0C009A4602E00436202E14D05546B5402540A3
:101E1C00F540484629000A3D09F064FD052DF1D82E
:101E2C000623B340E41821003800043609F05AFDAB
:101E3C00202EEAD12100039809F054FD21008D4891
:101E4C0009F050FDF0231B051C4200D181E08A4BA8
:101E5C0000211C4001230594002600240F279A46DC
:101E6C003B005046B340059A1A400340F340F24001
:101E7C00D5186D1802984146009509F033FD2B00DA
:101E8C000A3B092B0DD806353D40B540641922009C
:101E9C0041465846043609F025FD202E0DD001216F
:101EAC00DEE7B5406419220041465846043609F075
:101EBC0019FD202E01D00021D2E72402240A220091
:101ECC004146684809F00EFD2100039809F00AFD0F
:101EDC000F2300269A46664F02E00436202E14D0BB
:101EEC005546B5402540F540484629000A3D09F0C5
:101EFC00F9FC052DF1D80623B340E4182100380075
:101F0C00043609F0EFFC202EEAD12100039809F0E9
:101F1C00E9FC049B0B2B67D0049B24014D4A24093C
:101F2C001B071C4321005548121B09F0DBFC200049
:101F3C0007B03CBC90469946A246AB46F0BD0B2C74
:101F4C000FD0434B1800994609F0CCFC414B5D1B5C
:101F5C00FFE64B4809F0C6FC21004A48FEF770FF2B
:101F6C0075E7494809F0BEFC002399463A4B00241A
:101F7C0098463A4B42460293394BB0469B464B46E9
:101F8C000021A94616001D000F234046AB404A46CF
:101F9C001A400340EB40EA40D7187F1802983100F2
:101FAC00009709F09FFC3B000A3B092B0FD80F232D
:101FBC0006371F40AF40E419220031005846043563
:101FCC0009F090FC202D00D19BE00121DCE7AF4013
:101FDC00E419220031005846043509F083FC202D09
:101FEC0000D18EE00021CFE71A4B00211B1B05937B
:101FFC000123002400260F279A463B005046B3408D
:10200C00059A1A400340F340F240D5186D18029817
:10201C004146009509F066FC2B000A3B092B35D88C
:10202C0006353D40B54064192200414658460436F9
:10203C0009F058FC202E35D00121DEE71CDF0120F1
:10204C0040DF0120F0F2012054DF012068DF012085
:10205C00C0DF012099999900C8F2012068DE0120A7
:10206C0084DE0120A0DE0120F0DD0120FCDD01205A
:10207C000CDE012094DF0120FFFFFFF0D4DF0120F4
:10208C009CDF0120B0DF012080DF0120B540641906
:10209C00220041465846043609F024FC202E01D07B
:1020AC000021AAE72402240A414622003B4809F0F9
:1020BC0019FC2100039809F015FC06239A46384BAD
:1020CC0000260F27984602E00436202E14D03D003F
:1020DC00B5402540F540484629000A3D09F002FC70
:1020EC00052DF1D85346B340E41821004046043680
:1020FC0009F0F8FB202EEAD12100039809F0F2FB3D
:10210C000AE72402240A22003100244809F0EAFBE1
:10211C00244B210018009B4609F0E4FB224B2100C4
:10212C001800039309F0DEFB204B002699461C4B4C
:10213C000F27984602E00436202E14D03D00B540FF
:10214C002540F540484629000A3D09F0CBFB052DFA
:10215C00F1D80623B340E41821004046043609F0B8
:10216C00C1FB202EEAD12100039809F0BBFB210012
:10217C00584609F0B7FBF0231B051C4205D153460A
:10218C00240124091B071C43D1E6094809F0AAFBCA
:10219C0021000848FEF754FEF1E7C046A0DE0120FE
:1021AC000CDE012094DF0120F0DD0120FCDD01209C
:1021BC009CDF0120B0DF012070B5D825AD000400F4
:1021CC000D494059FFF788FDCD230002000A5B0042
:1021DC00984207D30948D82301229B00E05088334A
:1021EC00E25070BD60590449FFF776FD0001030908
:1021FC00A02000061843EEE7010000A0990100A002
:10220C0070B5D825AD0004000D494059FFF764FDA9
:10221C00CD230002000A5B00984207D30948D8235B
:10222C0001229B00E0508833E25070BD6059044994
:10223C00FFF752FD00010309A02000061843EEE74A
:10224C00010000B0990100A0F0B5DE4657464E469D
:10225C0045460C00E0B5814616001D0095B0C548FA
:10226C0009F040FBC44923004A4600960195C34837
:10227C008A460E9609F036FB220F9346C0482A0F69
:10228C005946904609F02EFB4A4624012D010E9E1C
:10229C000F9224092F09BC4200D902E100D1FDE0C4
:1022AC0043460E9323004A4600960197B54809F021
:1022BC0019FB5B460B2B00D1F6E00A2B03D14346EE
:1022CC000A2B00D106E1B04D280009F00BFB434668
:1022DC000B2B05D1AD4AAE4B921BBB4116001F0018
:1022EC000F9B514698461A00009601972300A3486D
:1022FC0009F0F8FA280009F0F5FA32003B004046E4
:10230C002100FFF7FFFBA34B02009B46A24B0400EE
:10231C0099460D000B004846594609F0E3FA0F2385
:10232C009A469E4B002698469D4F15E01900D140C9
:10233C000291F3400393029A039B380009F0D2FAFE
:10234C00029A039B0A204042C11712184B41002BE2
:10235C0013D00436402E23D051462022B140524295
:10236C00CB172B402140B218E0D520221800921B2D
:10237C009040F14001430291DBE7052AE9D806338E
:10238C00B3400693DB170793069A079BA4185D418D
:10239C00404622002B00043609F0A4FA402EDBD173
:1023AC00804B220098462B00404609F09BFA2B00EC
:1023BC0022007D4809F096FAF0231B032B4200D132
:1023CC007FE07A490122002320002940FFF79AFB85
:1023DC000B00020004000D004846594609F082FA31
:1023EC006E4B00269A4615E01900D1400491F3403B
:1023FC000593049A059B380009F074FA049A059B1E
:10240C000A204042C11712184B41002B13D004363E
:10241C00402E23D00F212022B1405242CB172B400B
:10242C002140B218E0D520221800921B9040F140B8
:10243C0001430491DBE7052AE9D80633B34008933E
:10244C00DB170993089A099BA4185D41504622009A
:10245C002B00043609F046FA402EDBD12B0022006B
:10246C00404609F03FFA0E9B0B2B00D1D8E00E9A98
:10247C002B011B0915071D434D4B22001B1B009301
:10248C004C482B00260009F02DFA3000290015B01D
:10249C003CBC90469946A246AB46F0BDB14500D82F
:1024AC00FEE65B460E93FDE643460B2B12D0364DF3
:1024BC000024280009F016FA4A463D4B9B1A0F934C
:1024CC000EE73D4809F00EFA22002B003B48FEF7C0
:1024DC00B7FC76E73A4809F005FA32003B0048466B
:1024EC002100FFF70FFB304B0D009A460400020051
:1024FC000B00504609F0F6F92B002200254926481E
:10250C0009F0F0F90F239846244B002699465B46B8
:10251C00234FB3460493029716E01900D1400E00E6
:10252C005A46D340029832001F0009F0DBF90A2208
:10253C005242D31792197B41002B43D004239C4663
:10254C00E3445B46402B54D05B46414620209940E7
:10255C005A46CB17404221402B401218DDD5584625
:10256C002022121A1800904002005846C1400E005A
:10257C001643D5E71CDF012000F30120E8DF012022
:10258C0054DF012004E00120C0DF012099999999C2
:10259C0099990000B0F201201CDE012030DE0120F0
:1025AC00FCDD012044DE012024E00120FFFF00F0CF
:1025BC009999990030E001209CDF0120B0DF0120C7
:1025CC0080DF0120052AB9D85A46063393400A9376
:1025DC00DB170B930A9A0B9BA4185D4148462B0002
:1025EC00220009F07FF904239C46E3445B46402B10
:1025FC00AAD1049B22009B463E482B0009F072F99D
:10260C002B002200504609F06DF9F0231B032B42DE
:10261C0067D15B462D012D091B0726001D4334E7AE
:10262C00354801220023001B0021FFF76BFA0B0039
:10263C00020004000D004846594609F053F90F23D7
:10264C00002699462D4BB3469A46029716E0190080
:10265C00D1400E005A46D340029832001F0009F0B8
:10266C0041F90A225242D31792197B41002B1BD0FD
:10267C0004239C46E3445B46402B2CD05B464946E6
:10268C00202099405A46CB17404221402B4012182B
:10269C00DDD558462022121A1800904002005846E8
:1026AC00C1400E001643D5E7052AE1D85A46063339
:1026BC0093400C93DB170D930C9A0D9BA4185D4162
:1026CC0050462B00220009F00DF904239C46E344EC
:1026DC005B46402BD2D122002B00404609F002F978
:1026EC00C5E6074809F0FEF822002B000548FEF766
:1026FC00A7FB8EE744DE01209999990030DE01207A
:10270C009CDF0120B0DF0120F0B5DE4657464E4677
:10271C004546E0B5384889B008F08EFF9C239946B1
:10272C00364B374C9846374BA1449B46364B9A4612
:10273C0009E052463100009240463A000C3409F050
:10274C00D1F84C4515D02668676830003900A5686B
:10275C00FFF7C2FA019503008542EAD15B463A00C5
:10276C00009331002B0040460C3409F0BBF84C456B
:10277C00E9D1264808F060FF254B9846254B9B462F
:10278C0010E0214B0290049303912B002200584639
:10279C000096019709F0A6F818239C461E4BE044BE
:1027AC0098451ED043461C685D689E68DF681B69AF
:1027BC003200994643465B6920009A4629003B004B
:1027CC00FFF742FD4B460693534607938145D8D1FC
:1027DC008A45D6D10B4B04934B4602935346039335
:1027EC00D3E70A2008F0D6FE09B03CBC90469946C7
:1027FC00A246AB46F0BDC04648E001205CE001209B
:10280C00001E022088E0012080E0012090E00120E1
:10281C00A8160220A4E00120E0170220F8B5334FDF
:10282C000D0006001400130031480A00390009F0AD
:10283C0059F8072D1FD8072C3FD92300083B012B33
:10284C0018D86034E40034192A4809F04BF823688E
:10285C0062681901120F090912070A4326491B0263
:10286C000A401B0AC8351A43AD0039002348AA5147
:10287C0009F038F8F8BD2B00083B012BFAD82300DF
:10288C00083B012B23D9072CF4D81A4809F02AF855
:10289C002B00C834A400A2596033110FDB001202C4
:1028AC00F3180907120A1A605960C835AD003900CF
:1028BC00AA59124809F016F8DCE7C8341048A400ED
:1028CC0009F010F8C835A359AD00AB51D2E70D484B
:1028DC0009F008F82B0060346033E400DB00341995
:1028EC00F3182068616818605960DEE710F3012066
:1028FC00D4E0012028E10120FFFFFFF014E10120CA
:10290C00E8E00120F8E00120F0B54746CE461E0075
:10291C00264B80B5984683B00C00070015001300B9
:10292C0023480A000096414608F0DCFF072C2CD9FE
:10293C002300083B012B04D903B00CBC90469946EC
:10294C00F0BD1C4808F0CEFFA022F3171B011B0999
:10295C0012061A4391466035ED007D193200286845
:10296C0069684B46FFF770FC23006033DB00FB18F3
:10297C00186059604B46C834A4004146E259009691
:10298C0001930D4808F0AEFFD6E70C4808F0AAFFFB
:10299C00A0213601C83536090906AD00E859314386
:1029AC00FFF79AF9C834A4003851C5E72CF301207D
:1029BC0044E1012074E1012088E1012060E1012063
:1029CC0070B506000C001500072905D8072A21D977
:1029DC001748FEF735FA70BD0A00083A012AF7D8F5
:1029EC002A00083A012AF3D81A00083A012AEFD82B
:1029FC0060336035DB00ED00C31845191A685B685D
:102A0C0028686968FFF720FC6034E4003419206002
:102A1C006160E0E7072BDBD8C833C8359B00AD00FD
:102A2C0019582858FFF758F9C834A4003051D2E788
:102A3C00A8E1012070B505000C00072905D8072A6C
:102A4C0026D91D48FEF7FCF970BD08390129F8D8C4
:102A5C00110008390129F4D8190008390129F0D8D6
:102A6C00B0216033DB00C3181E685B6809061B01CC
:102A7C0060321B090B43D1004118320008684968C9
:102A8C00FFF7E2FB6034E4002C1920606160DBE7A7
:102A9C00072BD6D8C8339B001958B0230901C8326C
:102AAC001B069200090910581943FFF715F9C83491
:102ABC00A4002851C8E7C046A8E10120F0B5DE46C5
:102ACC0057464E464546D923E0B59B00C35883462E
:102ADC0085B01B0F062B00D88BE0073B022B00D9CF
:102AEC0083E0DB239B00C358002B00D089E0DA2362
:102AFC005A469B00D358002403937E4B00219A46E0
:102B0C007D4B002698460F2399467C4F4B4601205F
:102B1C00B340039A1A400340F340F240D5186D18A5
:102B2C0050463900009508F0DDFE2B000A3B092BBE
:102B3C000ED84B4606351D40B540641922003900AD
:102B4C004046043608F0CEFE202E0DD00121DDE7E4
:102B5C00B5406419220039004046043608F0C2FE24
:102B6C00202E01D00021D1E72402240A39002200B2
:102B7C00634808F0B7FE634B21001800994608F033
:102B8C00B1FE0F239846604B00269A465F4F02E039
:102B9C000436202E14D04546B5402540F54038006B
:102BAC0029000A3D08F09EFE052DF1D80623B340FE
:102BBC00E41821005046043608F094FE202EEAD189
:102BCC002100484608F08EFEFF231C40DA235A46AB
:102BDC009B00D450594600220433CA5005B03CBC6B
:102BEC0090469946A246AB46F0BD4948FEF728F9F7
:102BFC00F4E7DB239B00C258002A06D10122C25005
:102C0C00ECE74448FEF72AF971E7043BC35800256A
:102C1C000393384B00219A46374B002698460F23D6
:102C2C009946364F4B460120B340039A1A40034055
:102C3C00F340F240D418641850463900009408F060
:102C4C0051FE23000A3B092B0ED84B4606341C4080
:102C5C00B4402D192A0039004046043608F042FED3
:102C6C00202E0DD00121DDE7B4402D192A003900AA
:102C7C004046043608F036FE202E01D00021D1E764
:102C8C002D022D0A39002A001D4808F02BFE1D4B81
:102C9C0029001800994608F025FE0F2398461A4B78
:102CAC0000269A46194F02E00436202E12D04446D4
:102CBC00B4402C40F440380021000A3C08F012FECD
:102CCC00052CF1D80623B340ED182900504608F026
:102CDC0009FEE9E72900484608F004FEFF231D40E1
:102CEC00DA235A469B00D550594600220433CA5069
:102CFC0074E7C04668DE012084DE0120C8F20120A2
:102D0C00A0DE0120F0DD01200CDE0120FCDD012025
:102D1C0020E20120FCE10120DA23F0B5514C9B00AC
:102D2C00C646E2580433E3582126591E8B4100B5A0
:102D3C004D4F5B424D49334096B0203338008846A6
:102D4C0007F0ACFD4A4D4B493A00280007F0A6FDB0
:102D5C00DC239B00E2580433E3583800591E8B41A6
:102D6C005B4233402033414607F098FD3A0042491C
:102D7C0002A807F093FD02A9280015F03BFCD42310
:102D8C003E4E9B00E2583E490023300007F086FD82
:102D9C0032003C4902A807F081FD02A9280015F079
:102DAC0029FCD9239B00E258374902A807F076FD8D
:102DBC0002A9280015F01EFCF621F423DF2289005D
:102DCC0061589B009200E358A25802A800912F4929
:102DDC0007F064FD280002A915F00CFCD6239B001B
:102DEC00E258531C38D02A4E2A49300007F056FDC1
:102DFC003200294902A807F051FD280002A915F05C
:102E0C00F9FBD7239B00E258531C29D0204E2149B3
:102E1C00300007F043FD3200204902A807F03EFDC8
:102E2C00280002A915F0E6FBD8239B00E258531C9E
:102E3C0014D0174C1749200007F030FD2200184918
:102E4C0002A807F02BFD280002A915F0D3FB2800DF
:102E5C0016B004BC9046F0BD124ACAE7114AEEE720
:102E6C00104AD9E7C89402201092022034E20120C3
:102E7C00D09202203CE2012050E2012080910220FD
:102E8C0064E201206CE2012080E2012098E2012042
:102E9C00D0910220B8EA0120C0E20120D4E2012046
:102EAC00E8E2012030E20120F0B5D6464F46464616
:102EBC004A48C0B508F016FD494808F013FDFFF765
:102ECC002BFF0100474808F00DFD474B00249946A5
:102EDC00464B474D9846474E474F0DE022324146F0
:102EEC00380007F0DBFC3A0021003000013408F018
:102EFC00F9FC0435082C18D02B685A1C63D01A0F17
:102F0C001B011B090A2A5CD00B2AE7D03A4904356D
:102F1C008A463A49504607F0C1FC2100524630001F
:102F2C00013408F0DFFC082CE6D1D023344C9B0094
:102F3C00E3180CCB511C48D0324D3349280007F014
:102F4C00ADFC2A000821300008F0CCFCD2239B00F9
:102F5C00E3180CCB511C3CD02A4D2B49280007F010
:102F6C009DFC2A000921300008F0BCFC0A2008F066
:102F7C0011FB264808F0B6FC254808F0B3FCE92301
:102F8C009B00E158234808F0ADFCEA239B00E15874
:102F9C00214808F0A7FCEB239B00E1581F4808F0E0
:102FAC00A1FCED239B00E258043BE1581C4808F0BF
:102FBC0099FC0A2008F0EEFA1CBC90469946A246F1
:102FCC00F0BD2B228BE74A468EE7591CB4D1064A3A
:102FDC00B8E7591CC0D1044AC4E7C04608E3012035
:102FEC0010E3012018E30120FCE2012028E301207A
:102FFC00E897022030E30120709102201CE30120AD
:10300C00C89402208091022064E2012040E3012058
:10301C004CE3012058E301206CE3012080E3012004
:10302C0094E3012030B5B3B0050003F021FD18483E
:10303C0003F04EFF041E1FD02900164807F02EFC8B
:10304C002800154914F020F8041E18D0134D03E085
:10305C006946280008F046FC2200C721684614F097
:10306C00A5F80028F4D1200014F082F8012403F014
:10307C001DFD200033B030BD03F018FDF9E7290029
:10308C00074808F02FFC002403F010FDF1E7C046C0
:10309C004CD70120B8E30120A8FA012044D9012023
:1030AC00C8E30120F0B5B3B0050003F0E1FC214802
:1030BC0003F00EFF041E32D029001F4807F0EEFB70
:1030CC0028001E4913F0E0FF061E2BD01C4F3200C7
:1030DC00C721684614F06AF8002817D06B461B7895
:1030EC002A2BF4D1174C250050356A4621003800A4
:1030FC00636898470028EAD10834AC42F5D1320015
:10310C00C721684614F052F80028E7D1300014F0BB
:10311C002FF8012403F0CAFC200033B0F0BD03F0FB
:10312C00C5FCF9E72900084808F0DCFB002403F093
:10313C00BDFCF1E74CD70120B8E30120A8FA01202F
:10314C00C8940220F01A0220C8E3012010B5010037
:10315C0004000748FFF7A6FFFC23002000219B007A
:10316C00E31818605960FA2301229B00E25010BD4D
:10317C00909B022010B502490248FFF793FF10BD47
:10318C00C8940220DCE30120F0B5C64600B55B4CC8
:10319C000500A54401A815F099FA01A9584808F0B2
:1031AC00A1FB03F065FC574803F092FE041E00D10E
:1031BC0095E00A2201A906A810F09EF8002874D107
:1031CC00514906A812F040FDDA239B00EA584F49FA
:1031DC0006A812F039FDDB239B00EA584C4906A8DF
:1031EC0012F032FDD4239B00EA584A4906A812F08B
:1031FC002BFDD6239B00EA58474906A812F024FD64
:10320C00D7239B00EA58454906A812F01DFDD82388
:10321C009B00EA58424906A812F016FDD9239B00E0
:10322C00EA58404906A812F00FFDDE239B00EA582D
:10323C003D4906A812F008FDC82300249B003B4F13
:10324C00EE182200390008CE06A8013412F0FCFC5E
:10325C00082CF6D1C823364C9B0021000822EB58D1
:10326C0006A812F0F1FCC9239B002100EB5809229F
:10327C0006A812F0E9FC2F4906A812F0E5FC2E4B2B
:10328C000024072698462D4F08E0A3003900EA5881
:10329C0006A8013412F0D8FCC82C13D02642F4D165
:1032AC00414606A812F0D0FCEFE7254808F01AFBBF
:1032BC00002403F0FBFB20009E239B009D4404BCD8
:1032CC009046F0BD1F4906A812F0BEFC06A811F0EE
:1032DC007BFC041E06D103F0E9FB0124EBE703F0B1
:1032EC00E5FBE8E713F0C4FE22000100164808F0E5
:1032FC00F9FA002403F0DAFBDDE7C04688FDFFFF96
:10330C00E8E301204CD7012000E401202CE401204B
:10331C0040E4012054E4012068E4012084E401200D
:10332C00A0E40120BCE40120D8E40120F0E4012059
:10333C00FCE401200CE5012018E501201CE501202E
:10334C00F4E30120A8D8012024E5012030B50400C5
:10335C000C4D85B02A000C4B0C490D4803F02CFE8B
:10336C000C4B29001A686846013207F097FA694637
:10337C002000FFF709FF6946074808F0B3FA05B0CB
:10338C0030BDC04648E501203CE5012058E5012050
:10339C004CD701204C91022064E5012010B509485E
:1033AC0003F08EFB002808D0074C08482100FFF7DB
:1033BC00EBFE2000FFF736FE10BD0549054808F06E
:1033CC0091FAF1E74CD70120DCE30120C8940220EC
:1033DC00C89A02207CE50120002370B5204D0C001A
:1033EC002B7082B00B00072916D9083B012B02D990
:1033FC00280002B070BD1B4ED0339B001A581A49DE
:10340C000023300007F04AFA230010212800174A45
:10341C00009607F057FAEBE7C8339B001B585A1C71
:10342C001CD01A0F1B011B090A2A15D00B2A0CD110
:10343C0022320F4E0F49300007F030FA33002200D1
:10344C0028000A4907F02AFAD2E7094E0A49300047
:10345C0007F024FA3300F2E72B22EAE7074BEEE7FA
:10346C00909102208091022064E201209CE50120D1
:10347C007091022028E301201CE30120FCE20120D2
:10348C000022F8B51E4C03002280020F0A2A32D00B
:10349C000B2A08D0092A30D81A4D02001A492800E4
:1034AC0007F0FCF925E02D27164D3A0017492800A6
:1034BC001E0107F0F3F93A001549200007F0EEF968
:1034CC000622360F921BE91C200015F03BF9200058
:1034DC0015F004F902220F49201807F051FFA91B1F
:1034EC0009313200200015F02DF92100280015F0CB
:1034FC00EDF82800F8BD2B27D6E72027D4E7C046E7
:10350C0000920220F091022098DE0120B0E501200B
:10351C0088EC0120B8DB0120F0B5DE4657464E465C
:10352C004546E0B5030F83B001930B0F9A460F236A
:10353C00020E1A4091460A0E134005000C009846E4
:10354C005B4B06020F025B4819009B4608F0CAF958
:10355C00220029005848360A3F0A08F0C3F9C14531
:10356C0000DC75E04B4642469B1A002B24DD3211E1
:10357C00012B00D195E03212022B00D191E03213D5
:10358C00032B00D18DE03214042B00D189E03615C9
:10359C00052B11D09E1F062B0ED0DE1F072B0BD038
:1035AC00013E082B08D0013E092B05D0013E33000B
:1035BC005A4253415B421E404346019342464946A0
:1035CC003E4808F08FF93A0031003D4808F08AF97E
:1035DC00534619072B0F180739433043FEF77CFB72
:1035EC00384E019B30401E0606432800FFF748FF6B
:1035FC000100354808F076F92000FFF741FF010083
:10360C00324808F06FF93000FFF73AFF01003048FC
:10361C0008F068F92800FFF733FF594602002D48DF
:10362C0008F060F92000FFF72BFF01002A4808F092
:10363C0059F93000FFF724FF0100284808F052F92F
:10364C00300003B03CBC90469946A246AB46F0BD58
:10365C0043464A469B1A002B20DD3A11012B22D0FF
:10366C003A12022B1FD03A13032B1CD03A14042B02
:10367C0019D03F15052B11D09F1F062B0ED0DF1F25
:10368C00072B0BD0013F082B08D0013F092B05D08D
:10369C00013F3B005A4253415B421F404B46019352
:1036AC008CE7160088E74B461700019386E7C04667
:1036BC0090F30120E4E10120B8E50120CCE50120E4
:1036CC00E8E50120FFFFFFF008E6012010E60120ED
:1036DC0018E6012024E6012030E6012044D901201F
:1036EC00F0B55746DE464E464546E0B503021C0A89
:1036FC000B028BB01F0A030F02930B0F03930F23C4
:10370C00020E1A400490089210000A0E1340059104
:10371C00069407970993984200DC0BE12300E61707
:10372C00864987489946A02408F0DCF8059A049944
:10373C00844808F0D7F8062324069B460025264328
:10374C00274315E04B4636011B0F1E434B461B010E
:10375C009946A0233F0136011B063F0A36091E433A
:10376C001F4301235B429C46E3445B46002B20D065
:10377C0033004A463900744808F0B4F80F233B4034
:10378C009A460F233B42DDD000232800B846210087
:10379C001D0034004F4656463A0023000135FEF713
:1037AC0053FDB542F8D1B9462600050047460C003A
:1037BC00C8E7099F089E3A003100644808F092F867
:1037CC00039A0299624808F08DF8079A06996148A5
:1037DC000095019408F086F8BC46330063441E0043
:1037EC005D4808F07FF85D4F2A00230038000096F2
:1037FC0008F078F8F022120214421CD123041B0C9E
:10380C002B4318D0904603E023041B0C2B4312D0FF
:10381C002A0F230113431B01240F1B0924072D011D
:10382C001C43013623002A003800009608F05AF891
:10383C0043461C42E8D04A4808F054F82A002300BA
:10384C000096380008F04EF8464808F04BF82A006D
:10385C0023000096380008F045F82D0923071D4376
:10386C0023011B0A1A072D0915431B091A072D09D9
:10387C0015431B091A072D0915431B091A072D0996
:10388C0015431B091A072D09240F15432407063E5F
:10389C001B092A0023430096380008F023F8324B0A
:1038AC00039A1D40029B36069B1A5A425341B02282
:1038BC001206944635435B42049E1B072D0163445C
:1038CC0030002D091D43FFF7DBFD0100274808F0F0
:1038DC0009F8059C2000FFF7D3FD0100244808F0EF
:1038EC0001F82800FFF7CCFD0100224807F0FAFF91
:1038FC001249214807F0F6FF3000FFF7C1FD0F49D0
:10390C0002001E4807F0EEFF2000FFF7B9FD010092
:10391C001B4807F0E7FF2800FFF7B2FD010019482C
:10392C0007F0E0FF28000BB03CBC90469946A2463D
:10393C00AB46F0BD3B00FE17069FF1E698F3012065
:10394C00E4E10120B8E5012038E6012058E6012029
:10395C0074E6012090E60120C0E60120DCE601209F
:10396C00F8E6012008E70120FFFFFFF008E6012040
:10397C0010E6012018E6012024E701202CE70120A5
:10398C0030E6012044D90120F0B5DE4657464E46BC
:10399C004546E0B5030F91B0099303011B0F089343
:1039AC0003021A0A0C0007900692002B00D103E2C6
:1039BC00F023079A1B041A4207D1069A08991201A0
:1039CC0001311A42FBD006920891099A089B1607FE
:1039DC001B07069A1B093343DE4D1602360A1E439B
:1039EC00DD49280007F07EFF32000799DB4807F01D
:1039FC0079FF31020B0A0693330F099333011B0F26
:103A0C002201210208930796200F120F0B0A00299E
:103A1C0000D1DAE1F02109040C4203D11B0101327F
:103A2C000B42FBD01207000712091B0202431B0AB0
:103A3C0013431E00C849280007F054FF3200210030
:103A4C00C64807F04FFF320033021E0AA02437008D
:103A5C00130F0E9313011B0F0F93069B2406274382
:103A6C001C43BF4B280019000C930A920D9607F0CB
:103A7C0039FF0A9A0799BB4807F034FFBA4B01216A
:103A8C0018009A4607F02EFFB84B210018009846F4
:103A9C0007F028FFB64B390018009B4607F022FFB1
:103AAC00002E00D1C6E1F022002312040B93012555
:103ABC001300164206D100223F012D0101321F4294
:103ACC00FAD00B92AB4807F00DFFA021AA4B0906C8
:103ADC001800994607F006FF2900504607F002FF30
:103AEC002100404607F0FEFE3900584607F0FAFE6A
:103AFC0006238026A0250593230176032D06029329
:103B0C009E4807F0EFFE2900484607F0EBFE310017
:103B1C00504607F0E7FE2100404607F0E3FE39006F
:103B2C00584607F0DFFE3B0102991A0901929942AF
:103B3C0032D3002A30D03B0F0A2B00D1DBE00B2B09
:103B4C0000D1AEE08E4B02938E4B0393029807F09C
:103B5C00C9FE31002800FFF7DFFC3900050020000A
:103B6C00FFF7DAFC0400039807F0BCFE2900484676
:103B7C0007F0B8FE3100504607F0B4FE2100404675
:103B8C0007F0B0FE3900584607F0ACFE019923014E
:103B9C001A099142DAD902933B01A0271B0A3F066E
:103BAC001F43A02336021B06360B1E43059B013B0D
:103BBC000593002BA4D1744807F094FE29004846C5
:103BCC0007F090FE3100504607F08CFE2100404675
:103BDC0007F088FE3900584607F084FE0F9B089CBE
:103BEC0098461A002100694807F07CFE0E9F099E3A
:103BFC003A003100664807F075FE2B000D9A0699C5
:103C0C00644807F06FFE4046231A0B9C624805334C
:103C1C001B1B1B0605401D43F31B5A425341B0228C
:103C2C0012069446079F5B421B072D016344380024
:103C3C002D091D43FFF724FC0100584807F052FEE4
:103C4C000A9E3000FFF71CFC0100554807F04AFEA5
:103C5C002100544807F046FE2800FFF711FC010034
:103C6C00514807F03FFE3800FFF70AFC0C990200A0
:103C7C004E4807F037FE3000FFF702FC01004C48BD
:103C8C0007F030FE2800FFF7FBFB0100494807F066
:103C9C0029FE280011B03CBC90469946A246AB4682
:103CAC00F0BDA0231B0613430293354807F01AFE00
:103CBC0031002800FFF730FC029905002000FFF7C7
:103CCC002BFC04002F4807F00DFE2900484607F096
:103CDC0009FE3100504607F005FE2100404607F072
:103CEC0001FE3900584607F0FDFD019923011A0920
:103CFC009142DAD94FE7224B0293224B0393B02324
:103D0C001B061A430492029807F0ECFD31002800C0
:103D1C00FFF702FC049905002000FFF7FDFB0400EF
:103D2C00039807F0DFFD2900484607F0DBFD310062
:103D3C00504607F0D7FD2100404607F0D3FD39006F
:103D4C00584607F0CFFD019923011A098A42DAD2AD
:103D5C0021E7C046E4E1012080F30120ECE10120E1
:103D6C00A4F30120B8E5012038E7012050E7012039
:103D7C0068E701209CE70120BCE70120D4E7012083
:103D8C00E8E70120FCE701200CE8012058E60120BF
:103D9C0074E6012090E60120FFFFFFF008E6012009
:103DAC0010E6012020E8012018E6012080E7012020
:103DBC0030E6012044D90120220121021E4D200FA2
:103DCC00120F0B0A002900D024E62800A0251B4B5B
:103DDC002D0619000C9307F085FD22000799184851
:103DEC0007F080FD0121174807F07CFD0699164865
:103DFC00294307F077FD2900144807F073FD079855
:103E0C00FFF73EFB0C990200114807F06BFD2000F8
:103E1C00FFF736FB01000F4807F064FD0020FFF7A9
:103E2C002FFB01000C4807F05DFD0C4807F05AFD14
:103E3C000B4D2EE70A9CE2E7E4E10120A4F30120FC
:103E4C00B8E5012038E7012050E7012068E70120A0
:103E5C0080E7012030E6012044D901208CE70120C5
:103E6C00999999A0F8B500240E4E0F4F0CE020CE76
:103E7C002800FFF705FB210003002A00380001345D
:103E8C0007F030FDC82C09D00521200006F0BAFD42
:103E9C000029ECD10A2007F07DFBE8E70A2007F0A7
:103EAC0079FBF8BDC894022034E8012008B4F0B5C1
:103EBC00C646904600B583B009AC05000E000E480E
:103ECC000E4980CC07F00EFD4246013AD000801816
:103EDC00400080180A4A2300102180183A000194EF
:103EEC0006F004FDFA239B00EE5003B004BC904690
:103EFC00F0BC08BC01B01847F8D7012078F20120BB
:103F0C00289A0220F0B54546DE4657464E46E22337
:103F1C00E0B59B00C35804000D008DB0092B76D87A
:103F2C00F04A9B00D3589F46F622012392008350FF
:103F3C0014328350EE239B00C3589946F1239B0007
:103F4C00C258E94B12011900120907A8984606F04D
:103F5C00A5FCE64F06AA390007A814F0ABFA069B9D
:103F6C009B001859FFF78CFA4B46E14E03222900AF
:103F7C000190009320003300FFF798FFEF239B0084
:103F8C00E35841469946F2239B00E25807A81201D8
:103F9C00120906F083FC390006AA07A814F08AFA65
:103FAC00069B9B001859FFF76BFA4B46042229001D
:103FBC000190009320003300FFF778FFF0239B0063
:103FCC00E35841469946F3239B00E25807A8120197
:103FDC00120906F063FC390006AA07A814F06AFA65
:103FEC00069B9B001859FFF74BFA4B460093330086
:103FFC000190052229002000FFF758FFBD4B20003F
:10400C0006222900FFF752FF2000FEF757FD0DB0E6
:10401C003CBC90469946A246AB46F0BDB64807F06C
:10402C0061FCF3239B009A46043B9B46043B984659
:10403C005A4641465346A258E3586158AF4807F0D8
:10404C0051FC5B46E358A84F1A013900120907A826
:10405C0006F024FCA54E06AA310007A814F02AFA93
:10406C00069B39009B001B5907A899465346E358F9
:10407C001A01120906F012FC06AA310007A814F066
:10408C0019FA069B48469B001959FFF745FA434617
:10409C008146E35839001A01120907A806F0FEFB05
:1040AC00310006AA07A814F005FA4A46069B390007
:1040BC009B001A51EE239B00E35807A899464346F0
:1040CC00E2581201120906F0E9FB310006AA07A812
:1040DC0014F0F0F9069B9B001859FFF7D1F9844BAB
:1040EC00032298464B46290001900093200043463A
:1040FC00FFF7DCFEEF239B00E358390099465B4643
:10410C00E25807A81201120906F0C8FB310006AAF2
:10411C0007A814F0CFF9069B9B001859FFF7B0F9CC
:10412C004B46042229000190009320004346FFF7E0
:10413C00BDFEF0239B00E358390099465346E258E4
:10414C0007A81201120906F0A9FB310006AA07A85C
:10415C0014F0B0F9069B9B001859FFF791F94B46E8
:10416C0001900093434644E7654807F0BBFBF323FB
:10417C009B009A46F226083BE1585346B600A259DA
:10418C00E3585E4807F0AEFBA259574B07AE12013D
:10419C00190012093000994606F080FB534F06AB0C
:1041AC001A0039003000984614F084F9069B4946F1
:1041BC009B001B5930009B465346E25812011209D2
:1041CC0006F06CFB42463900300014F073F9069B84
:1041DC004C489B001B599A46190007F083FB534629
:1041EC001B0F0A2B00D1CAE30B2B06D15346A0227E
:1041FC001B011B0912061A43924651465846FFF7FB
:10420C008BF9F12383469B009A46E35849461A01E1
:10421C001209300006F042FB42463900300014F01F
:10422C0049F95A46069B49469B001A51EE239B00BE
:10423C00E35830009B465346E2581201120906F02F
:10424C002DFB42463900300014F034F9069B9B00DC
:10425C001859FFF715F9264B03229A465B4629009D
:10426C000190009320005346FFF720FEEF239B00A4
:10427C00E35849469B46F2239B00E258300012015A
:10428C00120906F00BFB42463900300014F012F90B
:10429C00069B9B001859FFF7F3F85B460422290094
:1042AC000190009320005346FFF700FEF0239B0083
:1042BC00E35849469B46F3239B00E2583000120119
:1042CC00120906F0EBFA42463900300014F0F2F80D
:1042DC00069B9B001859FFF7D3F85B46019000939F
:1042EC00534686E640E9012064D6012028F70120D8
:1042FC0070E8012014F6012048E8012058E801205C
:10430C007CE801208CE80120B74807F0EBFAF32396
:10431C009B009846043B9946043B9A464A464346C2
:10432C005146E358A2586158B04807F0DBFA4B46A7
:10433C00E358AF4F1A013900120907A806F0AEFA7C
:10434C00AC4E06AA310007A814F0B4F84246069BFE
:10435C00A2589B001B5912013900120907A803939C
:10436C0006F09CFA310006AA07A814F0A3F8069AE6
:10437C00A14893001A599346110007F0B3FA594615
:10438C000398FFF7ADF953468346E35839001A01F9
:10439C00120907A806F082FA310006AA07A814F041
:1043AC0089F85A46069B39009B001A51EE239B0054
:1043BC00E35807A89B465346E2581201120906F02F
:1043CC006DFA310006AA07A814F074F8069B9B003E
:1043DC001859FFF755F8894B03229A465B4629007A
:1043EC000190009320005346FFF760FDEF239B00E4
:1043FC00E35839009B464B46E25807A812011209B4
:10440C0006F04CFA310006AA07A814F053F8069BE4
:10441C009B001859FFF734F85B46042229000190E1
:10442C00009320005346FFF741FDF0239B00E35817
:10443C00390099464346E25807A81201120906F0C2
:10444C002DFA310006AA07A814F034F8069B9B003D
:10445C001859FFF715F84B46019000935346C8E5E1
:10446C00674807F03FFAF3239B009846043B9946B4
:10447C00043B9A464A4643465146E358A258615873
:10448C005A4807F02FFA4B46E358594F1A01390096
:10449C00120907A806F002FA564E06AA310007A820
:1044AC0014F008F84246069BA2589B001B591201B7
:1044BC003900120907A8039306F0F0F9310006AA97
:1044CC0007A813F0F7FF069A4B4893001A59934626
:1044DC00110007F007FA59460398FFF755FA52E70F
:1044EC00484807F0FFF9F3239B009A46043B9B4690
:1044FC00F12653465A46B600A159E358A2583B48F8
:10450C0007F0F0F9A2593A4B07AE12011900120943
:10451C003000994606F0C2F9364F06AB1A00390046
:10452C003000984613F0C6FF5A46069BA2589B00D3
:10453C001B591201494612093000049306F0AEF9DA
:10454C0042463900300013F0B5FF069A49469300F5
:10455C001A59300093465246A2581201120906F01D
:10456C009DF942463900300013F0A4FF069A0499D5
:10457C0093001A599246244A5346100003925A4605
:10458C0007F0B0F92000FEF799FA53461B0F0A2BDF
:10459C0000D103E251460B2B04D10B01A0211B09C6
:1045AC00090619435846FEF7B7FF01000590174856
:1045BC0007F098F9059B5A461802030A05930499CB
:1045CC005346002800D099E08A46039807F08AF9F0
:1045DC000F4807F087F9DA2351469B00059AE15002
:1045EC000433E25090E0C04694E8012058E80120E2
:1045FC0064D6012028F701208CE8012070E8012006
:10460C00A4E80120B0E80120D0E80120E8E801206E
:10461C00F4E80120EF4807F065F9F3239B009A4674
:10462C00043B9B46F12653465A46B600A159E35823
:10463C00A258E94807F056F9A259E84B07AE120107
:10464C00190012093000994606F028F9E44F06AB20
:10465C001A0039003000984613F02CFF5A46069B7E
:10466C00A2589B001B5912014946120930000493B1
:10467C0006F014F942463900300013F01BFF069A7D
:10468C00494693001A59300093465246A2581201DB
:10469C00120906F003F942463900300013F00AFF04
:1046AC00069A049993001A599246CE4A5346100022
:1046BC0003925A4607F016F92000FEF7FFF953460D
:1046CC001B0F0A2B00D162E151460B2B04D10B01BD
:1046DC00A0211B09090619435846FEF71DFF0100CE
:1046EC000590C14807F0FEF8059A130203D0100F8D
:1046FC000A2800D159E153465A460499039807F009
:10470C00F1F8BA4807F0EEF8EE239B00E35849465F
:10471C009B46F1239B00E25830001201120906F06F
:10472C00BDF842463900300013F0C4FE069B9B00D6
:10473C001859FEF7A5FEAE4B29009A465B46019030
:10474C000093200053460322FFF7B0FBEF239B009E
:10475C00E35849469B46F2239B00E2583000120175
:10476C00120906F09BF842463900300013F0A2FE05
:10477C00069B9B001859FEF783FE5B4629000190AF
:10478C000093200053460422FFF790FBF0239B007C
:10479C00E35849469B46F3239B00E2583000120134
:1047AC00120906F07BF842463900300013F082FE05
:1047BC00069B9B001859FEF763FE5B46290001908F
:1047CC000093200053460522FFF770FB06222900B8
:1047DC002000884BFFF76AFB19E47E4807F082F84B
:1047EC00F3239B009B46043B9A46F1265B465246BC
:1047FC00B600A159E358A258774807F073F8A259AC
:10480C00764B07AE1201190012093000994606F0DA
:10481C0045F8734F06AB1A0039003000984613F078
:10482C0049FE5246069BA2589B001B591201494651
:10483C0012093000049306F031F84246390030007A
:10484C0013F038FE069A494693001A5930009246E6
:10485C005A46A2581201120906F020F842463900B5
:10486C00300013F027FE069A049993001A599346C8
:10487C005C4A5B4610000392524607F033F8200066
:10488C00FEF71CF95346A0221B011B0912061A4302
:10489C005B461901A02309091B060B430593B023A2
:1048AC001B06194310009246FEF736FE83460100A4
:1048BC004D4807F017F85B461B0207D05B46180FF4
:1048CC00A02300071B06984200D180E05246059BAE
:1048DC0013E7F622012392008350083283500C32E6
:1048EC008350EF239B00C3589946F2239B00C25878
:1048FC003A4B12011900120907A8984605F0CEFF91
:10490C00374F06AA390007A813F0D4FD069B9B006D
:10491C001859FEF7B5FD4B46354E03222900019080
:10492C00009320003300FFF7C1FAF0239B00E358FB
:10493C0041469946F3239B00E25807A8120112093D
:10494C0005F0ACFF390006AA07A813F0B3FD069BCF
:10495C009B001859FEF794FD4B4604222900019048
:10496C00009320003300FFF7A1FA224E05223300FA
:10497C0029002000FFF79AFA3300FFF740FB53465B
:10498C00B0221B011B0912061A43924635E453460A
:10499C00B0211B011B09090619439DE65346B021A2
:1049AC001B011B0909061943FCE553465A46049999
:1049BC0003988A4606F096FF0F4806F093FFDA2319
:1049CC0052469B00E25000220433E2509CE65246D1
:1049DC00059BECE720E9012058E8012064D6012072
:1049EC0028F70120D0E80120E8E8012008E901209F
:1049FC0070E8012014F60120F4E80120F0B54546DA
:104A0C00DE4657464E46E123E0B59B00C3580400F2
:104A1C000D008BB0092B3ED8E24A9B00D3589F4621
:104A2C00E926EB23B60081599B00C058072901D811
:104A3C0000F077FC0B00083B012B01D800F029FD9E
:104A4C000A00D948D949FCF7FBF9A1592000FEF717
:104A5C00C3FCD74E29003300009003222000FFF73F
:104A6C0025FAEA239B00E1582000FEF7B5FC330041
:104A7C000090042229002000FFF718FACD4E3300D5
:104A8C00052229002000FFF711FA33000622290025
:104A9C002000FFF70BFA0BB03CBC90469946A2469F
:104AAC00AB46F0BDE2239B00C358092BF3D8C24A96
:104ABC009B00D3589F46EE239B009A46C358BF4F8A
:104ACC001A013900120905A805F0E8FEBC4E04AA2B
:104ADC00310005A813F0EEFCF1239B009B465A46CF
:104AEC00049B39009B001B5905A8A350EF239B0086
:104AFC009946E3581A01120905F0D0FE310004AAB8
:104B0C0005A813F0D7FC049B39009B001B59F32715
:104B1C000393F223039A9B00E250F02292009046FA
:104B2C00A25805A81201120905F0B8FE310004AA1A
:104B3C0005A813F0BFFC049ABF0093001A59A14EAC
:104B4C00E2515A46A258330001925246A25829000B
:104B5C00200000920322FFF7A9F9F2239B00E358EF
:104B6C00042201934B46E3582900200000933300A4
:104B7C00FFF79CF9E359052201934346E3582900BA
:104B8C00009320003300FFF791F906222900200042
:104B9C00884BFFF78BF97EE7EE23F1229B00C3587D
:104BAC00920083500432904641460C3A8258F327C7
:104BBC004250F02292008258834EBF00C25129000D
:104BCC00009303223300FFF771F94346E3582900A1
:104BDC002000009304223300FFF768F9E359052203
:104BEC000093290033002000FFF760F9CDE7E223A2
:104BFC009B00C358072B00D94DE7744A9B00D35830
:104C0C009F46E2239B00C358092B00D943E7704A07
:104C1C009B00D3589F46E926EB23B60081599B0095
:104C2C00C758072900D88DE30B00083B012B01D88E
:104C3C0000F010FC0A005C486649FCF701F9A15928
:104C4C0004E7E9239B00C1580B00C8339B001A589A
:104C5C00614806F047FEE4239B00E358042B00D97F
:104C6C00EBE25E4A9B00D3589F46E9239B00C15858
:104C7C0008330A00C358072900D947E3A0201B01B9
:104C8C00C8321B0900069200034313512000FEF7A3
:104C9C00A3FB474B0090290020000322FFF706F9E5
:104CAC00444E0422330029002000FFF7FFF8E6E60B
:104CBC00E927EB23BF00C1599B00C058072900D836
:104CCC0050E30B00083B012BE0D8C023B022C900F5
:104CDC0061189B00CE18736812061B011B09134345
:104CEC00C1173268FDF7B0FA30607160E159CDE759
:104CFC00E926EB23B60082599B001100C358FDF73F
:104D0C0003FEA159C2E7E927EB23BF00C1599B0061
:104D1C00C058072900D83AE30B00083B012BB5D843
:104D2C00C023C90061189B00CE18B023C11709011C
:104D3C001B060909194332687368FDF785FA306060
:104D4C007160E159A2E7F6220123920083501432DC
:104D5C008350E9239B00C158FEF73EFB144D032200
:104D6C002B00009001212000FFF7A0F8EA239B0004
:104D7C00E1582000FEF730FB2B00009004222000AD
:104D8C000121FFF793F80B4D20002B000522012188
:104D9C00FFF78CF82B00062201212000FFF786F884
:104DAC0079E6C046E8EA0120C8E1012068F3012059
:104DBC0044D9012014F6012010EB012064D6012007
:104DCC0028F70120D8EA0120D4EA012038EB012091
:104DDC0058EB012054F3012068E9012080EB0120FD
:104DEC00EA27E926BF00B600C2598159FDF716FD26
:104DFC00A1592000FEF7F0FAE14E29000090330093
:104E0C0003222000FFF752F8E1592DE6E926EA27A4
:104E1C00B6008359BF001900C2592000FDF70AFEE5
:104E2C00E6E7E926EA27B6008259BF001100C3590C
:104E3C00F3E7E926EA27B6008259BF001100C359EF
:104E4C00FDF7BEFDD4E7E9239B00C6580433C158D7
:104E5C00072900D8C5E20B00083B012B00D8C0E3A2
:104E6C00C848FBF7EDFF072E00D8A9E23300083B3A
:104E7C00012B00D89AE33200C349C448FBF7E0FF8A
:104E8C00E9239B00E158E1E5EA239B00C15807297F
:104E9C0000D8D3E20B00083B012B00D847E3B948FC
:104EAC00FBF7CEFFE9273100B948BF0006F01AFD29
:104EBC00E159072900D8B6E20B00083B012B00D8BA
:104ECC0025E3B048FBF7BCFFE359C8339B001959E5
:104EDC00B04F380006F006FDEA239B00E1580B00AA
:104EEC00072900D882E3083B012B00D8ABE2A54888
:104EFC00FBF7A6FFE926B600A159072900D887E2DF
:104F0C000B00083B012B00D8F2E29E48FBF798FF00
:104F1C00A359C8339B001959380006F0E3FCAFE7DE
:104F2C00E9239B00C6580433C158072900D869E20D
:104F3C000B00083B012B00D834E39248FBF780FFB1
:104F4C00072E00D854E23300083B012B00D80FE3A6
:104F5C00320091498D48FBF773FF91E7EC239B00DE
:104F6C00C25800238D4E8E49337093001B5830006D
:104F7C0005F094FC032229002000814B0096FEF7DB
:104F8C0095FF884E0422330029002000FEF78EFF87
:104F9C003300052229002000FEF788FF330006228B
:104FAC0029002000FEF782FFF62301229B00E2502D
:104FBC0071E5F6239B00C31801210120186059608C
:104FCC00EC239B00E3580093774B64E6DE23EC263E
:104FDC009B00B600C758835974491A01120905A8D9
:104FEC0005F05CFC724904AA05A813F063FA049B53
:104FFC00A2599B001F510023684E694933709300DE
:10500C001B59300005F04AFC5D4B009643E6DF234C
:10501C009B00C658002E31D1FDF750FDDA22DE235D
:10502C009200A1589B00E1503833E358A35004324E
:10503C00A65000935C4B290020000322FEF736FF9C
:10504C00584E2900330020000422FEF72FFF3300B6
:10505C00290020000522FEF729FFDF239B00E358DF
:10506C000622009329002000524BFEF71FFF12E589
:10507C00DF239B00C358012B00D12AE2FDF71EFD54
:10508C00EC239B00E358D4E7FDF718FDDA23DE226E
:10509C009B00E1589200A1503832A258E2500022F5
:1050AC000433E250F7E4C823EC279B00C6580433C2
:1050BC00C35A3604BF001E43C3593C491A01120996
:1050CC0005A805F0EBFB3A4904AA05A813F0F2F980
:1050DC00049B39489B001E5106F004FCE259310038
:1050EC00364806F0FFFBE25900232C4E2C49337056
:1050FC0093001B59300005F0D1FB214F03223B00DC
:10510C00290020000096FEF7D1FEE9239B00E15810
:10511C002000FEF761F93B000422290000902000DA
:10512C00FEF7C4FEEA239B00E1582000FEF754F979
:10513C003B000090052229002000FEF7B7FE24E575
:10514C00C8239B00C658F02336061B051E40C923F6
:10515C00EC279B00C3581A4ABF0013401E43C35987
:10516C0012491A01120905A805F098FB104904AA66
:10517C0005A813F09FF9049B12489B001E51ABE746
:10518C0044D90120B0DA012054F30120C8E10120F8
:10519C0070EA012080EA012068F30120B09102201E
:1051AC00A4E5012014F60120CCEA012064D60120EC
:1051BC0028F701205CEA0120C0EA012098EA0120CE
:1051CC00FFFFFFF08CEA0120EC239B00C258DB4967
:1051DC001201120905A805F061FB04AAD84905A81B
:1051EC0013F068F9049B9B001B591A0F0A3A012A09
:1051FC0000D8DDE0A022190C1B0412061B0C114375
:10520C001343C9229200A350C8239B00E150903352
:10521C00E25869E7E9239B00E358072B00D828E202
:10522C001A00083A012A00D83DE20021C54806F0D0
:10523C0059FBDF2301229B00E250E9239B00E1583C
:10524C002000FEF7C9F8C04B0090F4E6E9239B0060
:10525C00E358072B49D8C8339B001B591B0F0B2B4A
:10526C004ED0BA480CE0E9239B00E358072B00D939
:10527C00DAE1C8339B001B591A0F0A2A42D0B448F2
:10528C0006F030FBDF2300229B00E250D5E7E92338
:10529C009B00E358072B00D8F8E11A00083A012AC2
:1052AC0000D807E20021AB4806F01CFBC1E7AA4876
:1052BC0006F018FBE9239B00E358072B08D8C833EA
:1052CC009B001B591B020ED1A44806F00BFBB0E748
:1052DC001A00083A012A06D86033DB00E3181A6872
:1052EC009B881343F0D09E48CAE71A00083A012A5B
:1052FC00B7D86033DB00E3185B681B0F0B2BB0D106
:10530C009848E2E71B02BAD09748DEE7083A012A30
:10531C0000D9BBE46832D20082181360DB175360EB
:10532C00B4E4C8278E00A619BF00F25980001301FF
:10533C001B09C340120F1B021B0A12071343F35124
:10534C00FFF784FB88002018843E8259BF001301AC
:10535C001B09BB40120F1B021B0A1207134383517C
:10536C00FFF774FB890066188C3B9846F3580001D4
:10537C001901B02309091B0619430309A0200006D3
:10538C001843FCF7A9FC4346F050E1597EE48C3BF2
:10539C00000198460309B0200006184343468900D3
:1053AC006618F158FCF798FC4346F050E1596DE44F
:1053BC00A0211A01120F090611436C4A134020E771
:1053CC00C8214046B600A619890072588000130106
:1053DC001B0983401B02120F1B0A12071343735045
:1053EC004EE5C83189000B581B011B0998463AE55C
:1053FC00C821B600A61989007258BF0013011B09F9
:10540C00FB40E7E7C83189000F583F013F0997E59A
:10541C00C82248468900631892009958090F090759
:10542C000143995078E5C822890063189200995875
:10543C003607090109093143995049E5C8318900FA
:10544C000E58360F2EE56031C900615809020B0A5F
:10545C0099464FE5C0239B009C46BA002027C80004
:10546C002018604443687F429C461B011B099846E8
:10547C000668D71900D5CEE03300BB409640624693
:10548C001B04120F1B0C1207134306604360FFF73B
:10549C00DDFAC0239B009C4680000600CA00A218BF
:1054AC0062441368576899463B011B099846203E95
:1054BC00B44600D5A5E01E006346DE404346C3401B
:1054CC00380F1B041B0C0007034316605360FFF7D7
:1054DC00BDFAFDF7F3FADA22DE239200A1589B0005
:1054EC00E15000213833E358A3500432A150A0E519
:1054FC00C022920094464846CB00E31863441A68D5
:10550C00C831D217120705C38900095904E5C02315
:10551C009B009C46CA00A2186244536836071B01C4
:10552C001B091E43C831566089000959D0E460310B
:10553C00C90041184E68360FB4E4C04664D6012049
:10554C0028F701202CEA012044D9012018EA012077
:10555C00E4E9012044EA012080E901208CE90120E2
:10556C00A8E9012004EA0120C8E90120FFFFFFF0AF
:10557C00C023F600A6199B00F21820261368516868
:10558C009C46BF000B0176421B09BE195FD4180064
:10559C00F040FB40090F1B041B0C09070B43106068
:1055AC0053606DE46031C9004758C9E4C0234246DA
:1055BC002027F600A6199B00F1184E6892003301C3
:1055CC001B097F429C460868D71949D40300BB408D
:1055DC0090401B04320F1B0C1207134308604B60E6
:1055EC004EE46031C900435898463CE4C8339B00F4
:1055FC001E5933483602360A320006F073F9B146AA
:10560C0078E420231B1A9C4643466646B3404E461C
:10561C00C6401E4352E720273300BF1AFB401F0031
:10562C00434693403B4329E71A00083A012A00D924
:10563C0025E66033DB00E3180CCB190F0A2900D0E8
:10564C001DE69BB2134300D119E61E483DE6202609
:10565C001800F61BB04006006046F840304398E74F
:10566C0020270300BF1AFB401F00634693403B43B7
:10567C00AEE7C8339B001E593602360F3100124874
:10568C0006F030F9002E00D0FCE5D2E5C8339B00C3
:10569C001E590F231E4031000C4806F023F9002E32
:1056AC0000D0EFE5C5E56033DB00E3185E68360437
:1056BC00360FE3E76033DB00E6580F231E40EAE7C2
:1056CC0054DE0120C8E901202CEA012044EA012023
:1056DC00F0B5C646DB2300B59B00C35804000D0093
:1056EC0088B0002B50D0D9239B00C6580F20310B0B
:1056FC0001402033320AE15002400433E2503309B6
:10570C000340E3273040E426BF00B600E351A0512C
:10571C000090724806F0E6F8E3239B00E05804334F
:10572C00E658020124339219E250303BE358092B1E
:10573C0026D86B499B00CB589F46E923EA279B0050
:10574C00BF00E050E651674E032233002900009061
:10575C002000FEF7ABFBE359042200932900330031
:10576C002000FEF7A3FB604E330005222900200029
:10577C00FEF79CFB3300062229002000FEF796FB67
:10578C0008B004BC9046F0BDD9239B00C65820330A
:10579C00310FC1500F20320E02400433E250330D52
:1057AC00360C0340E3273040E426BF00B600E3513B
:1057BC00A051ADE7D9239B00E158EE20FF230A0C42
:1057CC001A4080002250043080464646F027080AD2
:1057DC001840A051454EBF000B4020002900E3515A
:1057EC00009233000322FEF761FB4346E358290085
:1057FC002000009304223300FEF758FBE3592900E4
:10580C002000009305223300FEF750FB06222900EE
:10581C002000354BFEF74AFBB2E7E2239B00E3582E
:10582C00052B55D047DC032BAAD8E9239B00E0506D
:10583C000833E65000902B4B04E0EC239B00E25025
:10584C0000922B4B290020000322FEF72FFB264E43
:10585C000422330029002000FEF728FB84E7CB2329
:10586C00A02012019B0012090006E1581043FCF71E
:10587C0033FAEC23000100099B00E0500090E0E7B4
:10588C00CC23EDE7CD23EBE7EC26120119491209E5
:10589C0003A805F003F8184902AA03A812F00AFE9F
:1058AC00029BB6009B0019591448A15106F01AF836
:1058BC00A3590093C5E7063B012B00D960E7E92308
:1058CC00EA279B00E050BF000833E651E6503AE768
:1058DC00E9239B00E0500090024BB3E794EB0120CE
:1058EC00BCEB0120ACEB012014F60120D4EA012022
:1058FC00CCEA012064D6012028F70120B0EB01206E
:10590C00FE2210B59200835C040086B0202B25D0BB
:10591C00432B21D141238354DC2308229B00C01844
:10592C00083BE11805F02CFDDC239B00E2581549DF
:10593C001201120901A804F0B1FF6A46124901A82C
:10594C0012F0B8FD009B01219B001A59D9239B0032
:10595C002000E250FFF7BCFE06B010BDE0239B0018
:10596C00C358002B04D0D4239B00C2581433C2500C
:10597C00FE2341229B00E254883BE018083BE118CF
:10598C00393ACFE764D6012028F70120FE2230B542
:10599C009200835C040087B0202B08D0412B04D1EB
:1059AC00422301218354FFF729F807B030BDE023CF
:1059BC009B00C358002B04D0D4239B00C258143333
:1059CC00C250FE254123AD006355DC239B00E0183B
:1059DC00083BE118082205F0D3FCDC239B00E258BD
:1059EC000D491201120901A804F058FF6A460B492F
:1059FC0001A812F05FFD009B20009B001A59D923CF
:105A0C009B00E2500121FFF763FE4223012120009D
:105A1C006355FEF7F3FFC8E764D6012028F7012091
:105A2C00F0B5FE27BF00C55D0400160087B0422DFF
:105A3C0009D05CD8202D17D0412D13D14223110051
:105A4C00C355FEF7DBFF4323E355E1239B00E358EB
:105A5C00062B44DC012B00DD7CE0012B02D820005E
:105A6C00FDF72CF807B0F0BDE0239B00C358002BCA
:105A7C0004D0D4239B00C2581433C250FE254123BA
:105A8C00AD006355DA239B00E11808330822E018B7
:105A9C0005F076FCDC239B00E25832491201120916
:105AAC0001A804F0FBFE6A462F4901A812F002FD82
:105ABC00009B31009B001A59D9239B00E250200017
:105ACC00FFF706FE4223310063552000FEF796FFD8
