:020000041000EA
:1000000000B5324B212058609868022188439860DF
:10001000D860186158612E4B002199600221596106
:100020000121F02299502B49196001219960352056
:1000300000F044F80222904214D00621196600F024
:1000400034F8196E01211966002018661A6600F04E
:100050002CF8196E196E196E052000F02FF8012189
:100060000842F9D1002199601B49196000215960AB
:100070001A491B48016001219960EB211966A021F2
:10008000196600F012F800219960164914480160C1
:100090000121996001BC002800D000471248134993
:1000A000086003C880F30888084703B5996A0420EC
:1000B0000142FBD001200142F8D103BD02B5186610
:1000C0001866FFF7F2FF186E186E02BD00000240BE
:1000D000000000180000070000035F00212200005C
:1000E000F4000018222000A00001001008ED00E03C
:1000F00000000000000000000000000074B24E7A12
:1001000000200420F7010010C3010010C5010010F9
:10011000C1010010C1010010C1010010C101001097
:10012000C1010010C1010010C1010010C701001081
:10013000C1010010C1010010C9010010CB01001065
:10014000CD010010CD010010CD010010CD01001037
:10015000CD010010CD010010CD010010CD01001027
:10016000CD010010CD010010CD010010CD01001017
:10017000CD010010CD010010CD010010CD01001007
:10018000CD010010CD010010CD010010CD010010F7
:10019000CD010010CD010010CD010010CD010010E7
:1001A000CD010010CD010010CD010010CD010010D7
:1001B000CD010010CD010010CD010010CD010010C7
:1001C00000BE00BE00BE00BE00BE00BEEFF3058054
:1001D000103800BEF2EB887190020010B4020010DB
:1001E0003802001090A31AE721482249086006C887
:1001F00081F30888104720480068002801D01C4877
:10020000F3E70DA40ECC002902D000F012F8F9E7B4
:100210001A491B4A002000E001C19142FCD1194952
:100220008847194988471949884700BEFDE701C931
:1002300001C29A42FBD37047B4020010C0000020F4
:1002400028DE01201CE0011030DE0120A8BC0220C5
:1002500094BE0210000004200000042094BE02108E
:10026000001004200010042000000000704700006F
:100270000000000008ED00E0000000D0A8BC022053
:1002800064E0022025CD0020F1760020E5CC00209E
:1002900098200220A4200220B0200220BC200220AE
:1002A000C8200220D4200220E0200220EC200220DE
:0402B000D82302202D
:1002B400F8B5C0460448054B10B5834203D0044B3F
:1002C400002B00D0984710BDA8BC0220A8BC022077
:1002D4000000000006480749091A8B10C90FC91805
:1002E40010B5491003D0044B002B00D0984710BD23
:1002F400A8BC0220A8BC02200000000010B5074CD6
:100304002378002B09D1FFF7D5FF054B002B02D032
:10031400044800E000BF0123237010BD98C80220E8
:100324000000000028DE0120054B10B5002B03D08F
:100334000449054800E000BFFFF7CCFF10BDC046EC
:10034400000000009CC8022028DE01207047C0463F
:100354000023054A0549835001224250083942507E
:10036400034A83507047C04614040000040400008C
:100374000C040000044A835801338350FF230122F4
:100384009B00C2507047C04614040000054A8358BD
:10039400002B01DD013B8350FF2301229B00C2504F
:1003A4007047C0461404000000230121034A83500F
:1003B400083A8150024A83507047C0460404000042
:1003C4000C04000081230122DB00C25000230349F6
:1003D400435008394250024A8350704704040000D5
:1003E4000C0400000023054A8350054A835001335E
:1003F400083A8350034A83507047C04614040000EF
:10040400040400000C040000064A074B8258120141
:100414009B1800225B681A60FF2301329B00C250C4
:100424007047C04614040000BC980220054A064BDD
:10043400825812019B185A6801231360FF2292000C
:100444008350704714040000BC980220054BC25826
:10045400002A01D10132C250FF2301229B00C25065
:100464007047C04614040000FF220121014B920092
:100474009950704770BF0220084B09480949186019
:100484005960094809499860D960094809491861BF
:100494005961094807499861D961704770BF0220C2
:1004A4006303520356005610500553055205510577
:1004B4005405530551075106002400240A4AC82054
:1004C4001168B8224A43094B30B59B185969084C46
:1004D4000023400003E0E2500433834202D0CA58B0
:1004E400551CF8D130BDC04634DB0220BC99022033
:1004F40070BF0220B8220A4B19680A4B4A4319609C
:10050400094B01219B18002219611A76074B1960C7
:10051400074B1960074B1A60074B1A707047C046A7
:1005240034DB0220C4DF0220BC990220CCDF02208D
:10053400D0DF02201CDF022020DF0220FEE7C046BD
:1005440070B5094C0500210008480CF07DFFF52327
:1005540001229B00EA5000220833EA50210004489B
:100564000CF072FF70BDC046781C022080EE0120A2
:10057400D8EE012070B5074C0500210006480CF0A8
:1005840063FFF72301229B00EA50210003480CF08B
:100594005BFF70BD681C022080EE0120D8EE0120B4
:1005A400D0220B4B0B480C49920010B59C182060CC
:1005B400616000210948203A9A1803C2084A094890
:1005C4001A600CF041FF0CCC07480CF03DFF10BD45
:1005D40070BF022032547608305476085634120024
:1005E4001814101430EF012040EF012010B50E480C
:1005F4000CF0A8FE0D4B0E481A680E4B19680CF04F
:1006040023FF0D4B0D4819680CF01EFF0C4B0D48D1
:100614001A680D4B19680CF017FF0C4B0C4819683D
:100624000CF012FF10BDC04658EF012004DB02207D
:1006340068EF01200CDB022008DB02208CEF012094
:1006440014DB0220A4EF0120FCDA022010DB0220DC
:10065400B8EF012010B5054C054821680CF0F4FEF4
:100664002068253807F0C6FB10BDC04618DB022001
:10067400C4EF012010B50A2007F0BCFB10BDC04632
:1006840010B5092007F0B6FB10BDC04610B5152003
:1006940007F0B0FB10BDC04610B5162007F0AAFB4A
:1006A40010BDC04610B5172007F0A4FB10BDC0460E
:1006B40010B5072007F09EFB10BDC04610B51A20E8
:1006C40007F098FB10BDC04610B5022007F092FB5E
:1006D40010BDC04610B5062007F08CFB10BDC04607
:1006E40010B5052007F086FB10BDC04610B50320E9
:1006F40007F080FB10BDC04610B5042007F07AFB5C
:1007040010BDC046FF22002110B5034B92001820F3
:10071400995007F06FFB10BD70BF0220FF2200212B
:1007240010B5034B92001920995007F063FB10BDDC
:1007340070BF0220F0B50022C646114B114C00B523
:1007440025001A600023012798460F4E183504E04F
:1007540043462B7027610135B8343100206819F005
:1007640057FA0028F4D10122084B1860084B1A608C
:10077400084B1860084B187080BCB846F0BDC046E2
:10078400C4DF0220BC990220C8EF0120CCDF022084
:10079400D0DF02201CDF022020DF022030B583B02E
:1007A40005000A49100001AA19F036F804000128CE
:1007B40003D00024200003B030BDDB2301999B004B
:1007C400E95003480CF040FEF4E7C046D0EF0120A6
:1007D400E0EF012030B583B005000A49100001AAFA
:1007E40019F01AF80400012803D00024200003B0F3
:1007F40030BDDC2301999B00E95003480CF024FE32
:10080400F4E7C046F8EF012008F00120002330B5DA
:1008140083B005000A49100001AA019318F0FCFFF7
:100824000400012803D00024200003B030BDD423E9
:1008340001999B00E95003480CF006FEF4E7C0461A
:1008440020F0012030F0012010B582B001AB04008B
:10085400114910006A4618F0DFFF0023022802D075
:10086400180002B010BD0099019A01290BD0022989
:100874000DD0002902D1D7239B00E25007480CF089
:10088400E3FD0123ECE7D8239B00E250F6E7D923EC
:100894009B00E250F2E7C0464CF0012064F00120D6
:1008A40030B583B005000A49100001AA18F0B4FF5E
:1008B4000400012803D00024200003B030BDDA2353
:1008C40001999B00E95003480CF0BEFDF4E7C046D3
:1008D40084F00120A0F0012030B583B005000A495E
:1008E400100001AA18F098FF0400012803D0002486
:1008F400200003B030BDDF2301999B00E950034879
:100904000CF0A2FDF4E7C046C0F00120D4F00120B1
:1009140030B5284C0500236810008FB0002B02D19D
:1009240000200FB030BD0DAB05930CAB04930BABA3
:1009340003930AAB029309AB019308AB00931E49DE
:1009440007AB06AA18F068FF082804D000231B4A46
:1009540023601360E4E7194C22689300EB185907ED
:1009640017D10698079918605960089809999860F2
:10097400D9600A980B99186159610C980D9998617E
:10098400D961130007320833920023600120A95073
:10099400C7E70699196007995960089999600999F8
:1009A400D9600A9919610B9959610C9999610D994A
:1009B400D961E6E748DB0220ECF001204CDB0220A1
:1009C40010B582B01000094901AA18F025FF0400EF
:1009D400012803D00024200002B010BD0199044B6B
:1009E400044819600CF030FDF5E7C04608F1012019
:1009F40000DF022020F1012010B582B010000A4966
:100A040001AA18F009FF0400012803D000242000E3
:100A140002B010BD054B019A05481A60054B1968D0
:100A24000CF012FDF3E7C04640F1012000DF022084
:100A340054F10120E4DC022081220023D20010B50D
:100A44008350064A8350064A8350FF2301229B00A9
:100A5400C250044807F08CFB10BDC04604040000DB
:100A64000C04000010B1022010B508490400084825
:100A740007F0B4FE81220023D200A35001220549CD
:100A8400625008396250044AA35010BD88C3022042
:100A940070F10120040400000C040000F0B5D646F7
:100AA4004F464646C0B50A2082B00CF001FC2048EF
:100AB4000CF0CAFC1F480CF045FC1F4B1B68002BB4
:100AC40031D01E4B1E4819680CF0BEFC0A200CF0F5
:100AD400EFFB1C4B002599461B4B1C4C98461C4BAA
:100AE4001C4F9A4626683900300019F091F8002806
:100AF4000CD022694346002A00D053462200183203
:100B040000922900320048460CF09EFC0135B834AE
:100B14001F2DE7D10A200CF0CBFB02B0E0BCBA4693
:100B2400B146A846F0BD0C480CF08EFCCEE7C0469A
:100B340088F1012098F10120D0DF0220C4DF0220D7
:100B4400A8F10120D0F1012080F10120BC990220FC
:100B540078F10120C8EF0120BCF1012070B50A2012
:100B64000CF0A6FB8123094C9B00094EE518626832
:100B740013782A2B03D0300021780CF065FC0C3458
:100B8400AC42F4D103480CF05FFC70BD183602206F
:100B9400E8F10120F4F10120F0B5DE4657464E4657
:100BA4004546E0B5DDB0802200211CA80AF028FDEE
:100BB400802200213CA80AF023FD2D480CF0C2FB42
:100BC4002C4B01932C4B9A462C4B9B46FA208000CD
:100BD4000CF022FB023044D1019B03AF1B680026BA
:100BE4001B011B09984600233B70013399463CAD19
:100BF4001CAC18E02368002B07DD013B2360002BAD
:100C040003D12A68002A00D02B60380019F04CF870
:100C14000222514638180AF0F9FC04355CAB01365F
:100C24000434AB42D2D04B464246B3401A42E1D0E0
:100C3400380019F039F80222594638180AF0E6FC4F
:100C44002368132BE9DC05332360072BE5DD2B68D0
:100C5400002BE2D14B4631002B6009480CF0F4FB29
:100C6400DBE75DB0F0BCBB46B246A946A046F0BD8A
:100C740010F201203CE00220A4F301201014022011
:100C840020F2012070B527480CF0DEFB264D274CDE
:100C94003DE0D023012202211B069A6199610231B1
:100CA400996180000431996141598A405A61D02385
:100CB4001B0659685B68C906C90F9B0601D5022348
:100CC4001943D0231B065B685B0601D50423194333
:100CD400D0231B065B681B0601D508231943D023C8
:100CE4001B065B68DB0501D510231943D0231B06C3
:100CF4005B689B0501D520231943D0231B065B6841
:100D04005B0501D54023194320000CF09DFBFA201C
:100D140080000CF081FA831CC9D030380328B8D97C
:100D240070BDC04628F201206C1E0220C4EF0120D1
:100D34000021002010B509F06BFBC046100010B56F
:100D44000722084918F0A0FE0023002801D018004B
:100D540010BD0122044B05481A600CF075FB0123F9
:100D6400F5E7C04634F2012048DB02203CF20120C2
:100D74007047C04608B4F0B5C64600B5E7B06DABE1
:100D840040CB804614000193062A07DD1100284851
:100D94000CF05AFB27480CF0D5FAFEE7C8213200C4
:100DA400490002A80BF0FCFF02A818F07DFF1228EE
:100DB40032D801222049013C20480CF045FB630055
:100DC4001B19DD00ED1A1E4B3200ED181221019B98
:100DD40028000BF0E5FF280018F066FF0F26361AEE
:100DE400002E0DDD0024174F02E0280018F05CFFF0
:100DF40002223900281801340AF008FCA642F4D172
:100E0400FF23012241469B00CA5067B080BCB8460C
:100E1400F0BC08BC01B0184731000B480CF014FBBF
:100E240002A90A480CF010FB02480CF08BFAC0E748
:100E340050F2012068F20120441C022094F20120A7
:100E440080D20220A4F3012074F2012080F2012058
:100E5400054A8358002B01DD013B8350FF23012207
:100E64009B00C2507047C04614040000F0B5C6464B
:100E740000B5254886B00CF0E7FA0023234C244F34
:100E84002360244B9846FA2080000CF0C5F9831C9B
:100E940037D03928F7DC2F2809DC1B28F3D81E4B60
:100EA4000341DB07EFD406B080BCB846F0BD22682E
:100EB400303893009B185B001B18390040462360B0
:100EC4000CF0C2FA1548164B06681B687042704154
:100ED4005A4253412025134A4042216812685B421A
:100EE400A8434130AB4341330290019200920E4833
:100EF4000A000CF0A9FAFA2080000CF08DF9831C8A
:100F0400C7D10CF075F9BEE7ACF2012034DB022046
:100F1400DCDF0220D8F20120FFDBFFF718D102202A
:100F24001CD1022014D10220F0F20120F0B5C646F3
:100F3400D422002300B5920082B08350043283503F
:100F4400DB23FB2604009B00C5580433C2581C4F06
:100F5400B6009046EA053B688159D20F19480CF057
:100F640073FAA359002B20D1DB239B00E358DB0544
:100F74001BD443465A4253412022134E5B429343AF
:100F840030002A00114941330BF0E2FE0122012115
:100F940020000F4B0096FFF7EDFEFF2301229B007C
:100FA400E25002B080BCB846F0BD3B68002BE0D1F3
:100FB400084B054E1A6832601B793371E6E7C04668
:100FC400E4DC02203CF30120E8DB02207CF3012076
:100FD40084F30120DCFA012082232022F0B5DB0017
:100FE40083B0C254D42200230121920083500432DE
:100FF400835030328150A022D721120689004250FA
:101004000431425004314250EA2292000400821812
:1010140001204042C11703C2EC220121920049423F
:10102400A150383AA350083AA350DB23FB279B0076
:10103400E658274DBF00F2052B68E1592548D20F29
:101044000CF002FAE359002B37D1DB239B00E35861
:10105400DB0532D4204D2023320028001F490BF039
:1010640077FE20000095012201211D4BFFF782FE2F
:101074002000022201211B4BFFF77CFE1A4D2000A9
:101084002B0003220121FFF775FE2B002000042210
:101094000121FFF76FFE2B00200005220121FFF73D
:1010A40069FE2B00062201212000FFF763FEFF23C7
:1010B40001229B00E25003B0F0BD2B68002BC9D184
:1010C4000A4B054D1A682A601B792B71C9E7C04683
:1010D400E4DC02203CF30120E8DB02207CF3012065
:1010E40094F30120A8F30120B8F30120DCFA0120D5
:1010F400F0B54F464646D646D422C0B5DC21DB26A1
:101104000023FB270400920085588900B60084B0B0
:1011140085514350835004328350BF002C4BC15936
:10112400EA052C489846D20F1B6881460CF08CF9CE
:10113400E359002B3ED1A359DB053BD4264E274966
:1011440020232A0030008A460BF002FE244F2000A0
:101154003B00012201210096FFF70CFEDB239B00DC
:10116400E258FB210433E558434603928900D20533
:101174001B6861584846D20F0CF066F96B425D411A
:1011840020226B4293435146039A300041330BF0C3
:10119400DFFD3B000122012120000096FFF7EAFD5C
:1011A400FF2301229B00E25004B0E0BCBA46B146E2
:1011B400A846F0BD43461B68002BBFD1094B064E21
:1011C4001A6832601B793371044B9A46BEE7C046F5
:1011D400E4DC02203CF30120E8DB02207CF3012064
:1011E40084F30120DCFA0120F0B5DE464E46454684
:1011F400574682232022E0B5DB0083B0C254D422B8
:10120400002392008350DB2604328350DC23FB2727
:101214000400B60082599B00C558BF00504BC15909
:1012240093465048D2059846D20F1B6881460CF06D
:101234000BF9E359002B00D084E0A359DB0500D55A
:1012440080E06B425D412022474E6B429343474905
:101254005A46300041338A460BF07AFD20000122C1
:101264000121434B0096FFF785FDFA23002100205E
:101274009B00E318E12203C300239200A3505C32D5
:10128400A350A023843A1B06A3500432A350043273
:10129400A350384806F06CFFDB239B00E758FB2182
:1012A4000433E5584346FA0589001B6861584846EB
:1012B400D20F0CF0C9F86B425D4120226B4293437C
:1012C40051463A00300041330BF042FD2000012228
:1012D4000121294B0096FFF74DFD284D20002B00DE
:1012E40002220121FFF746FD2B00200003220121E9
:1012F400FFF740FD2B00200004220121FFF73AFDF7
:101304002B00200005220121FFF734FD2B002000D3
:1013140006220121FFF72EFDEA2301204042C117D6
:101324009B00E31803C30122EC2352429B00E250CA
:101334004C330232E25003B0F0BCBB46B246A9467D
:10134400A046F0BD43461B68002B00D079E70C4B48
:10135400054E1A6832601B793371044B9A467DE757
:10136400E4DC02203CF30120E8DB02207CF30120D2
:1013740084F3012010B1022094F30120B8F301207A
:10138400DCFA01200FB400B5B5B036AB04CBC821EC
:1013940001A800930BF004FD35B008BC04B0184755
:1013A4000FB400B5B5B036AB04CBC82101A8009387
:1013B4000BF0F6FC01A903480CF046F835B008BC64
:1013C40004B01847D0F301200FB470B5AAB02EAB07
:1013D40004CBA02101A800930BF0E2FC01A9194859
:1013E4000CF032F8184D9E24280018F05DFC241AE5
:1013F400060001A818F058FC32000300210013482D
:101404000CF022F8631C15D0280018F04DFC0222C1
:101414000F4928180AF0FAF801A92200280018F048
:10142400FFFA29000B480CF00FF82AB070BC08BC76
:1014340004B0184721232200290007482B700CF020
:1014440003F8F2E7E8F3012020DF0220FCF3012097
:10145400A4F3012034F4012024F4012010B5002069
:10146400D02407F003FC012324066362012007F063
:10147400FDFB02230220636207F0F8FB0423032030
:10148400636207F0F3FB08230420636207F0EEFBBA
:1014940010230122A3620021042007F0D5FB0520BC
:1014A40007F0E4FB20230122A3620021052007F0BA
:1014B400CBFB062007F0DAFB40230122A3620021C4
:1014C400062007F0C1FB072007F0D0FB8023012290
:1014D400A3620021072007F0B7FB082007F0C6FB32
:1014E40080235B00A36201220021082007F0ACFBEB
:1014F400092007F0BBFB80239B00A362012200218B
:10150400092007F0A1FB0A2007F0B0FB8023DB00D1
:10151400012200210A20A36207F096FB10BDC046F9
:1015240010B515290FD018291CD0162910D0172949
:1015340022D007291BD90B00083B012B0DD91148D8
:10154400FFF720FF03E0DB2300219B00C05810BD00
:10155400D6239B000021C058F9E76031C900411827
:1015640003C9F4E7D4239B000021C058EFE7C83136
:10157400890040580021EAE7E0239B00C058C117C6
:10158400E5E7C04654F40120F0B5DE4657464E4622
:101594004546E0B599B01693704B8B460B93704B50
:1015A400002113936F4B129014936F4B00201793E9
:1015B4000F231592002400229A460C900D912500C9
:1015C400203D74D45346AB4099465346A3401298E9
:1015D4009846494618405B460B40002D00DA8FE0E0
:1015E4001900E9400491E3400593434649461598A0
:1015F4001840169B0B40002D00DA77E01900E940F3
:101604000691E340049E059F0793002306980799DB
:1016140036184F41099308920899099A7618574148
:1016240006980799049A059B0090019102960397E6
:101634000B9913980BF008FF434602934B46039310
:101644005346A34058461299DA1702400B400093C0
:1016540001925B460A0014980BF0F6FE0A225242ED
:10166400D31792197B41002B27D1092A25D80023AF
:101674000622B6185F4153461E40002D56DB330048
:10168400AB401193A6400C9A0D9B1096109811999B
:1016940012184B4104340B9917980C920D930BF0CC
:1016A400D3FE402C48D025000122203D8AD520239A
:1016B40051461B1BD940894687E7002D2ADB33009E
:1016C400AB400F933300A3400E930E980F990C9ADE
:1016D4000D9B12184B4104340B9917980C920D93DF
:1016E4000BF0B2FE402C27D0002268E720211E0018
:1016F400E040091B8E408446B4446146069180E76D
:1017040020211E00E040091B8E408446B4446146FB
:10171400049168E7202332001B1BDA4013003A00CF
:10172400A24094469C4463460F93CBE720233200A7
:101734001B1BDA401192A5E70C9D0D9E34040B99F6
:101744002A00230C09480BF07FFE2800210C19B055
:10175400F0BCBB46B246A946A046F0BD2C1E0220F2
:1017640020F5012048F50120F0F4012070F5012056
:10177400F0B5DE4657464E464546E0B589B007907B
:10178400CC480C0016000BF05FFECB4B22009946B0
:10179400CA4B49469A46270F330050460BF054FE75
:1017A4003B000A3B350F012B00D90A272B000A3BCB
:1017B400012B00D90A252A003900C14824010BF065
:1017C40043FE36012309984636090595B34200D9EC
:1017D400059732004146BB48059B0BF035FE0B2FA5
:1017E40000D10FE10A2D00D11FE1B74D28000BF005
:1017F4002BFEB64B9E1B33004946424650460BF027
:1018040023FE28000BF020FE00239946B04B002154
:101814000393B04B00249A460F239B464B46B14694
:101824001E00AD4D5B464846A34042461A40034065
:10183400E340E240D7187F180398290000970BF083
:1018440003FE3B000A3B092B0ED85B4606371F40BC
:10185400A740F61932002900504604340BF0F4FD79
:10186400202C0DD00121DDE7A740F6193200290014
:10187400504604340BF0E8FD202C01D00021D1E7C0
:10188400964B3602360A29003200180007930BF0F3
:10189400DBFD934B3100180006930BF0D5FD914B03
:1018A400002798460F2399468F4B9B464346A846EC
:1018B4001D0002E00437202F14D04C46BC403440B5
:1018C400FC40280021000A3C0BF0BEFD052CF1D899
:1018D4000623BB40F6183100584604370BF0B4FD1C
:1018E400202FEAD12B0031000698454698460BF08C
:1018F400ABFD31007D480BF0A7FDF0231B051E4214
:1019040000D18AE07A4B00211E400F23B346002702
:10191400002699464A465B46BA401A407B427B41C0
:10192400FA40FB40D41864180398290000940BF083
:101934008BFD23000A3B092B0ED84B4606341C4072
:10194400BC40361932002900504604370BF07CFDA8
:10195400202F0DD00121DDE7BC40361932002900CB
:10196400504604370BF070FD202F01D00021D1E741
:101974003602360A2900320007980BF065FD310063
:1019840006980BF061FD0F239946574B00279B46A1
:101994004346A8461D0002E00437202F14D04C46CD
:1019A400BC403440FC40280021000A3C0BF04CFDB4
:1019B400052CF1D80623BB40F618310058460437ED
:1019C4000BF042FD202FEAD12B003100069845464A
:1019D40098460BF039FD059B0B2B00D1DDE0059BF0
:1019E40036013A4A36091C07344321004148121B88
:1019F4000BF02AFD200009B0F0BCBB46B246A94654
:101A0400A046F0BD0B2D10D02F4D28000BF01CFD6F
:101A140042462E4B9B1A9846EDE637480BF014FDD0
:101A240031003648FFF7AEFC6CE735480BF00CFD8F
:101A340000230493264BB1460393264B00219A4678
:101A44000F2300269B46244D5B464846B34042463E
:101A54001A400340F340F240D41864180398290054
:101A640000940BF0F1FC23000A3B092B12D85B46CF
:101A740006341C40049BB4409C46A444634629009D
:101A84001A005046043604930BF0DEFC202E39D0A5
:101A94000121D9E7049BB4409C46A4446346290031
:101AA4001A005046043604930BF0CEFC202E29D0A5
:101AB4000021C9E788F501201C1E0220ACF5012095
:101AC400C0F50120D4F50120FCF501209999990075
:101AD400D4F40120F0F40120401E02200CF5012072
:101AE40070F401207CF401208CF4012024F6012000
:101AF400FFFFFFF050F601202CF6012040F60120F4
:101B040010F60120049B29001C02240A22005D48CF
:101B14000BF09AFC5C4B2100180003930BF094FC2F
:101B24005A4B2100180006930BF08EFC584B0026EC
:101B340098460F239946093B9B46564B9A46434683
:101B4400B8461F0002E00436202E14D04D46B5409E
:101B54002540F540380029000A3D0BF075FC052DA1
:101B6400F1D85B46B340E4182100504604360BF02C
:101B74006BFC202EEAD1210006980BF065FC2100B5
:101B840003980BF061FCF0231B0547461C4269D106
:101B9400240124093F073C432CE73F4B00219B1BB6
:101BA4009B460F230026002799464A465B46BA40C7
:101BB4001A407B427B41FA40FB40D41864180398D6
:101BC400290000940BF040FC23000A3B092B0ED89B
:101BD4004B4606341C40BC4036193200290050469E
:101BE40004370BF031FC202F0DD00121DDE7BC4080
:101BF400361932002900504604370BF025FC202FFB
:101C040001D00021D1E73602360A290032000798B4
:101C14000BF01AFC310006980BF016FC06239A46CA
:101C24001C4B00250F27994602E00435202D14D0C3
:101C34003C00AC403440EC40404621000A3C0BF0F0
:101C440003FC052CF1D85346AB40F6183100484646
:101C540004350BF0F9FB202DEAD1310006980BF086
:101C6400F3FBBCE60D480BF0EFFB21000C48FFF73B
:101C740089FBF8220123079992008B50043A8B5078
:101C840086E7C0460CF5012024F6012070F40120FB
:101C94007CF401208CF40120999999002CF6012000
:101CA40040F60120F0B5DE46454657464E4690467E
:101CB400E0B5040099B0D4480D00994693460BF062
:101CC400C3FB434600934B46D049D14801932200BD
:101CD4002B00109111900BF0B7FB2B0F9A464B463B
:101CE4001B0F984653460A3B012B01D90A239A46F7
:101CF40043460A3B012B01D90A23984642462D014B
:101D04005146C4480BF0A0FB2B0909934B46089499
:101D14001B011D095C46089A099BAB4200D90EE1E0
:101D240000D109E143460B93029300940195089A6C
:101D3400099BB9480BF088FB53460B2B00D101E1FA
:101D440043460A2B00D116E1B4480B990BF07CFBF7
:101D5400B34AB44B121BAB4114001D00089A099BF3
:101D640000940195109911980BF06EFBAE480BF09E
:101D74006BFB0898099922002B00FFF705FC0890DB
:101D84000991AA48AA49089A099B0C9110900BF052
:101D94005BFBA84B002498460F239A46A64BA1460A
:101DA400089C099D9B4615E01A00CA4016004A4645
:101DB400D340404632001F000BF046FB0A22524239
:101DC400D31792197B41002B17D0042399444B4617
:101DD400402B28D04B4652469A404946D3172B40B5
:101DE40022402039E0D548462021091A18008840AD
:101DF40001004846C2408E18D9E7052AE5D84A466C
:101E0400063393400493DB170593049A059BA418A7
:101E14005D4158462B0022000BF016FB0423994425
:101E24004B46402BD6D1854822002B0008940995B7
:101E340004900BF009FB2B00220081480BF004FBFB
:101E4400F0231B032B4200D18CE0089C099D7D49A3
:101E54000122002320002940FFF796FB0B0002001B
:101E640006000F0010980C990BF0EEFA0F230024D3
:101E74009A46714BA1469B4615E01A00CA401400CD
:101E84004A46D340404622001D000BF0DDFA0A22E8
:101E94005242D31712196B41002B17D004239944D3
:101EA4004B46402B28D04B4652469A404946D317BE
:101EB4003B4032402039E0D548462021091A180019
:101EC400884001004846C2408C18D9E7052AE5D865
:101ED4004A46063393400693DB170793069A079BFB
:101EE400B6185F4158463B0032000BF0ADFA0423AC
:101EF40099444B46402BD6D13B00320004980BF05A
:101F0400A3FA0B9B0B2B00D1DCE00B9A3B011B09C2
:101F140015071D434C4B32009B1B00934B482B0071
:101F240034000BF091FA2000290019B0F0BCBB4634
:101F3400B246A946A046F0BD5A4500D8F2E653463B
:101F44000B93F1E643460B2B15D00B9933480BF05A
:101F54007BFA08980999324A324B121A8B4108923B
:101F64000993FBE63A480BF06FFA089A099B394843
:101F7400FFF708FA69E738480BF066FA08980999F8
:101F840022002B00FFF700FB0D00040000262C4F5D
:101F940002000B0038000BF057FA2B0022002449F2
:101FA40022480BF051FA234BB1469846224B049732
:101FB4009B4615E01A00CA4016004A46D3404046E4
:101FC40032001F000BF040FA0A225242D317921932
:101FD4007B41002B42D0042399444B46402B53D0E1
:101FE4004B460F229A404946D3172B4022402039B2
:101FF400E0D548462021091A1800884001004846C7
:10200400C2408E18D9E7C04688F501200C1E022074
:1020140064F60120C0F5012080F60120BCF6012001
:102024009999999999990000FCF501209CF4012053
:10203400541E02207CF40120B0F40120C4F40120D9
:10204400B0F60120FFFF00F099999900F4F6012001
:102054002CF6012040F6012010F60120052ABAD8FA
:102064004A46063393400C93DB170D930C9A0D9B51
:10207400A4185D4158462B0022000BF0E5F9042317
:1020840099444B46402BABD1049F22002B003D4882
:102094000BF0DAF92B00220038000BF0D5F9F0230D
:1020A4001B032B4205D153462D012D091B071D434C
:1020B40039E735480BF0C8F922002B003348FFF705
:1020C40061F9F0E732480BF0BFF932483249012296
:1020D400801BB9410023FFF757FA0B0002000600EA
:1020E4000F0010980C990BF0AFF90F2300249A46B7
:1020F4002A4BA1469B4615E01A00CA4014004A46E2
:10210400D340404622001D000BF09EF90A225242A1
:10211400D31712196B41002B17D0042399444B4653
:10212400402B28D04B4652469A404946D3173B4051
:1021340032402039E0D548462021091A1800884049
:1021440001004846C2408C18D9E7052AE5D84A461A
:10215400063393400E93DB170F930E9A0F9BB6181A
:102164005F4158463B0032000BF06EF9042399445A
:102174004B46402BD6D132003B0004980BF064F957
:10218400C3E6C046C4F401202CF6012040F6012029
:10219400DCF601209999999999990000B0F40120ED
:1021A400F0B5DE4657464E464546E0B534488DB058
:1021B4000BF0C8F89C239B46324B334C9A46334B66
:1021C400A3449946324B9846324B09932568666876
:1021D400290032005046A768FFF7CAFA42460300B6
:1021E400874200D1099A009229003200484601979B
:1021F4000C340BF029F95C45E8D127480BF0A2F820
:10220400264B98469C235B0043449B46244B0993EE
:102214001F4B0A931F4B0B9343461C685D689E68D3
:10222400DF681B693200994643465B6920009A4681
:1022340029003B00FFF736FD81451CD00A9B4A4626
:1022440006925246049307922B00029022000096B5
:102254000197099803910BF0F7F818239844D8458F
:10226400DAD10A200BF024F80DB0F0BCBB46B2461C
:10227400A946A046F0BD8A45E0D10B9BDFE7C046E6
:102284001CF7012070BF02205093022030F7012078
:1022940014F701200CF7012054F7012018920220B2
:1022A40068F7012030B50A008FB00C01050015490C
:1022B40015480BF0C9F81549220915480BF0C4F864
:1022C4001449220901A80AF043FD6A46124901A8EB
:1022D40017F0A2FA009911480BF0B6F800990029FA
:1022E4000CDBC72902DDC723C72100930C480BF080
:1022F400ABF8009B9B00E8580FB030BD00230021D1
:102304000093F3E7EC1D0220BCF70120FC1D022022
:1023140098F7012050F10120C0120220A4F70120F7
:10232400B0F70120F8B5334F0D0006001400130078
:1023340031480A0039000BF087F8072D06D8072C1E
:1023440026D92300083B012B2CD9F8BD2B00083BD0
:10235400012BFAD82300083B012B3DD9072CF4D8D4
:1023640026480BF071F82B00C834A40032596033AE
:10237400110FDB001202F3180907120A1A605960E0
:10238400C835A90072581E4839000BF05DF8DCE727
:10239400C8341C48A4000BF057F8C8353359A900B9
:1023A4007350D2E76034E400341914480BF04CF84D
:1023B400236862681901120F090912070A431249B6
:1023C4001B020A401B0AC835A9001A4372500C4864
:1023D40039000BF039F8B8E70C480BF035F82B004E
:1023E40060346033E400DB003419F31803CC03C316
:1023F400C6E7C046D01D0220D0F7012024F80120F2
:1024040010F80120E4F70120FFFFFFF0F4F70120AA
:10241400F0B5C6460C0000B5244982B0070015008B
:102424001E00009322481300220088460BF00CF88B
:10243400072C28D92300083B012B03D902B080BC08
:10244400B846F0BD1B480AF0FFFFA022F3171B019A
:102454001B0912061A4313006035ED007D19320082
:1024640003CD1D00FFF71EFC22006032D300C834E8
:10247400FB18A40003C33A594146009601950E483F
:102484000AF0E2FFDAE70D480AF0DEFFA022360187
:10249400C83536091206AD00380079593243FFF7C2
:1024A40067F9C834A4003851C8E7C046A81D022003
:1024B40040F8012070F8012084F801205CF8012024
:1024C40070B505000C001000072918D8C8339B000C
:1024D400EA58130F0A2B2CD00B2B04D11201130929
:1024E400A02212061A43A021000100090906014393
:1024F4002800FFF73DF9C834A400285170BD0A0034
:10250400083A012AFAD86033DB00EB180CCB190F18
:102514000A2914D00B2904D11B011909A0231B0675
:102524000B43C117FFF7BEFB6034E4002D1903C54C
:10253400E4E712011309B02212061A43D3E71B0180
:102544001909B0231B060B43C117FFF7ABFB60341B
:10255400E4002D1903C5D1E7F0B5C6460C0000B55B
:1025640007291ED8072A05D92F48FEF70BFF80BC80
:10257400B846F0BD072B36D9190008390129F3D81C
:102584006033DB00C3181968050058680B01000F9D
:102594001B0900071843254B09021840090A084380
:1025A40025E008390129DFD8110008390129DBD8D1
:1025B40019000839012925D9072BD5D8C8339B0020
:1025C400C15860320B0F0902090A8C46D2008218E6
:1025D400050003CA1B076246FFF764FB6034E3008F
:1025E400EB1803C3C3E7C8339B000500C058C832C7
:1025F4009300E95802002800FFF7BAF8C834A40091
:102604002851B4E76033DB00C318603260CBD300D9
:10261400C318070003CB2A003300FFF743FB6034E1
:10262400E300FB1803C3A2E7A4F80120FFFFFFF0B7
:10263400F8B507000C0016001D0007292FD8072A3B
:1026440003D94B48FEF79EFEF8BD072B55D9083B2E
:10265400012BF6D847480AF0F7FE3300C8339B0035
:10266400F9582B006033DB00FB180CCB10011B0F57
:1026740000091B070343404812020340120A1A438D
:102684001B0F0A2B47D112011309B02212061A4359
:102694003800FFF76DF8C834A4003851D4E70B00B4
:1026A400083B012BCDD81300083B012BC9D82B00C4
:1026B400083B012B37D9072DC3D830480AF0C4FE94
:1026C40033006033DB00FB1803CB2B00C8339B00C3
:1026D400FB581A0F94461B021A0A654663461B07E9
:1026E4000A2D3BD00B2D01D1A0231B06FFF7DAFAEC
:1026F4006034E300FB1803C3A6E721480AF0A4FEF4
:102704003300C8339B00F9582B00C8339B00FA5898
:10271400130F0A2BB7D00B2BBAD112011309A02225
:1027240012061A43B4E717480AF08EFE33006033EA
:10273400DB00FB1803CB2B006033DB00FB181A68AB
:102744005B6894461A0F0A2A0BD00B2A04D11B018A
:102754001A09A0231B0613436246C7E7B0231B06CE
:10276400C4E71B011A09B0231B0613436246BDE7E5
:10277400A4F80120E8F80120FFFFFFF0DCF80120B5
:10278400C4F80120D0F80120F0B5C646F523002294
:102794000D0000B59B0082B0C25008330132C25014
:1027A4007E32214B012100927D3A0400FEF7E2FAC9
:1027B40029001E480AF048FEDB23FB269B00E5584F
:1027C4000433E2581A4FB6009046EA053B68A15913
:1027D4001848D20F0AF038FEA359002B19D1DB2375
:1027E4009B00E358DB0514D443465A42534120224C
:1027F400114C5B42934320002A00104941330AF0F4
:10280400A7FA21000E480AF01FFE02B080BCB846A9
:10281400F0BD3B68002BE7D10A4B074C1A682260D5
:102824001B792371EDE7C0462CF9012040F9012002
:10283400E4DC02203CF30120E8DB02207CF30120ED
:102844005CF90120DCFA0120F0B5D6464F46464635
:102854000023C0B588B005AD04002B72002905D152
:1028640008B0E0BCBA46B146A846F0BDDD239B00E3
:10287400C158FFF717FDFB270600BF003200E159DE
:10288400A2480AF0E1FDE359002B7BD1DB239B0036
:10289400E15880230A005B000F001A40194200D05F
:1028A4009CE0E2239B00E358073B022B00D99FE006
:1028B400DA239B00E1580B0F30332B700F23080EE3
:1028C400184030306870080D18403030A870080C7B
:1028D40018403030E870080B184030302871080A6E
:1028E400184030306871080918400B403033EB71E0
:1028F400E1239B00E3583030A871002B00D0D1E0D5
:10290400834E3168002A00D1DAE0002900D0D7E0F4
:10291400802200235200DD2080002058D2050700C9
:10292400DE2080002058D20F80467A480AF08CFDC1
:10293400FB239B00E358002B04D1DB239B00E358CB
:10294400DB0503D53368002B00D1C3E04646734250
:102954005E4120227342704E934330003A006F4927
:1029640041330AF0F5F9202203928222D200A25CBC
:102974000121029220000222694B01950096FEF784
:10298400F9F96DE7370F390066480AF05DFDFB1F62
:10299400B846022B2CD8FB239B00E358002B00D114
:1029A400A1E030210F208C464346320E024094446D
:1029B400320D024030329046310A320C024001405E
:1029C4003032303191468A46320B3109024001409F
:1029D4003040303330323031303024E04C4A1268E9
:1029E400002ACFD0E2229200A258073A022A78D9CC
:1029F400DA239B00E0581033E358002B3FD13021F9
:102A04000F228C46060E1640030FB444060D000C2C
:102A1400164002403032303610399146B0462022FA
:102A24008A462020303366463F4F36023B403343CC
:102A340046463E4F36043B4033434E461B02360661
:102A44001B0A3343059353461B021A43E12309042B
:102A54009B0000060A43E35802430692002B21D14F
:102A6400FB2380229B00E158803BE35852001F0067
:102A74001A40002900D143E7254E33684BE70F2362
:102A84002026010A19403031020B8A4601091A40F6
:102A940019401840B446B046B14630323031303077
:102AA4001133C0E7202202928222D200A25C0121CB
:102AB4000192200002221E4B0095FEF75BF9CFE63F
:102AC400DC239B00E358D205984612480B00D20F32
:102AD40000212BE7174B104E1A6832601B793371B3
:102AE40041E71A00E4E6DB239B00E35880211A0047
:102AF40049001F000A400B4200D1D9E6044B1B6871
:102B0400002B00D14DE70A00D2E6C0466CF9012043
:102B1400E4DC02203CF30120E8DB02207CF301200A
:102B2400C0F9012098F90120FF00FFFFFFFF00FF1B
:102B3400B4F90120DCFA0120F0B5C646D422002302
:102B440000B5920082B0835004328350DB23FB260D
:102B540004009B00C5580433C2581A4FB60090466F
:102B6400EA053B688159D20F17480AF06DFCA35956
:102B7400002B1CD1DB239B00E358DB0517D4434611
:102B84005A4253412022114E5B42934330002A00A3
:102B94000F4941330AF0DCF80122012120000D4BDA
:102BA4000096FEF7E7F802B080BCB846F0BD3B687B
:102BB400002BE4D1084B054E1A6832601B7933713F
:102BC400EAE7C046E4DC02203CF30120E8DB022013
:102BD4007CF3012084F30120DCFA0120F0B5E12725
:102BE40004002B4E8FB03100BF002A480AF02CFCA1
:102BF4003100E25928480AF027FCDB239B00E55802
:102C0400E359002B07D0EB0505D4D4239B00E258ED
:102C14001833E25031E02A0020492D0120480AF0FF
:102C240013FC20492A0920480AF00EFC1F492A09EE
:102C340001A80AF08DF86A461D4901A816F0ECFDBA
:102C440000991C480AF000FC009900291BDBC729E5
:102C540002DDC723C7210093DA2517480AF0F4FBE5
:102C6400009BAD009B00E35831006351DB239B00C4
:102C7400E25812480AF0E8FB6259310010480AF0A1
:102C8400E3FB0FB0F0BD002300210093E4E7C0464E
:102C94002C1D0220D0F90120D4F90120EC1D0220C2
:102CA400BCF70120FC1D022098F7012050F10120FF
:102CB400C0120220A4F70120B0F70120E4F901209A
:102CC400F4F90120F0B5C646DB23FB2100B5634CC3
:102CD4009B00E5580433E658614B9AB06148EA0515
:102CE400890061580393D20F1B6880460AF0ACFB3D
:102CF40073425E4120225C4F73425C4E93434133E6
:102D04002A00390030000AF023F8594D320059499D
:102D140028000AF01DF8DD23DB20FB219B00E2588C
:102D240004330492E2588000059222185278039BDF
:102D3400D2078900D20F1B68615840460AF084FB11
:102D4400059B20215A4253415B428B434133390056
:102D54003000049A09F0FCFF3200474906A809F044
:102D6400F7FF06A9280016F035FED423434E9B0036
:102D7400E25843490023300009F0EAFF3200414998
:102D840006A809F0E5FF06A9280016F023FEDA23B9
:102D94009B00E2583C4906A809F0DAFF06A928007E
:102DA40016F018FEF720F523E022800020589B003F
:102DB4009200E358A2583549009006A809F0C8FFCC
:102DC400280006A916F006FED7239B00E258531CE0
:102DD4003ED02F4ED205D20D30002E4909F0B8FF57
:102DE40032002D4906A809F0B3FF280006A916F001
:102DF400F1FDD8239B00E258531C2DD0244ED2055C
:102E0400D20D3000234909F0A3FF3200234906A85C
:102E140009F09EFF280006A916F0DCFDD9239B00CB
:102E2400E258531C16D01A4CD205D20D2000194971
:102E340009F08EFF22001A4906A809F089FF28002C
:102E440006A916F0C7FD28001AB080BCB846F0BD2C
:102E5400144AC6E7134AEEE7124AD7E770BF0220C6
:102E6400E4DC02203CF301207CF30120E8DB0220B7
:102E7400F8DC022018FA01202CFA0120ACDB022035
:102E840040FA012048FA01205CFA012074FA01207A
:102E940050DB0220A00602209CFA0120B0FA012097
:102EA400C4FA012014FA0120F8B5DE464E46454620
:102EB40057466E48E0B50AF0C7FA6D480AF0C4FAFE
:102EC400FFF700FF01006B480AF0BEFAC8236A4E00
:102ED4009B00F518694B00249946694B694F9B4642
:102EE400694B98462B684A46591C0ED01A0F1B0191
:102EF4001B090A2A00D1B7E00B2A00D1ADE06248D1
:102F04006249824609F024FF524621003800013408
:102F14000AF09AFA0435082CE4D1D0239B00F41863
:102F24005B4B226899465B4B082598466368511CA5
:102F340010D04946404609F00BFF424629003800AC
:102F44000AF082FA092D0ED0A268083409256368B4
:102F5400511CEED1591CECD129003800474A0AF023
:102F640073FA092DF0D10A200AF0A2F94A480AF0AE
:102F74006BFA4A480AF068FA8223DB00F15C48489D
:102F84000AF062FAEA239B00F15846480AF05CFA18
:102F9400EB239B00F15844480AF056FAEC239B00BB
:102FA400F15842480AF050FAEE239B00F258043BD1
:102FB400F1583F480AF048FAF123F022EF219B0030
:102FC40092008900F358B25871583A480AF03CFA12
:102FD400F423F322F2219B0092008900B258F358A3
:102FE400715835480AF030FAE1239B00F158334810
:102FF4000AF02AFAF8239B00F15831480AF024FA1F
:10300400DB239B00F31859782E48C907C90F0AF02F
:103014001BFAFB239B00F1582B480AF015FA0A20EF
:103024000AF046F929480AF00FFA29480AF00CFA7E
:10303400284B294819680AF007FA284B28481968C8
:103044000AF002FA274B284819680AF0FDF9F0BC87
:10305400BB46B246A946A046F8BD2D225946404675
:10306400C24609F075FE4FE72B22F7E7E4FA012088
:10307400ECFA0120D0F9012070BF0220D8FA012017
:1030840000FB012008FB0120C0DB0220F4FA012030
:1030940040FA0120ACDB022018FB012024FB0120B4
:1030A40030FB01204CFB012064FB01207CFB012050
:1030B40094FB0120BCFB0120E0FB012004FC012067
:1030C4001CFC012034FC01204CFC012064FC012088
:1030D4006CFC0120D0DF022074FC0120C0DF022040
:1030E40090FC0120D8DF0220ACFC0120F0B54E4654
:1030F400DE4657464546E0B5CB4E814632688FB032
:10310400002A01D1C94B1A60D02109064B684968CD
:10311400DB06DB0F890601D502210B43D02109060A
:103124004968490601D504210B43D02109064968A1
:10313400090601D508210B43D02109064968C905B0
:1031440001D510210B43D02000064168890519D50B
:1031540020210B434168490511D4B5490B60B3489C
:10316400B44904680C60D1010B430360032A55D0B1
:103174000FB0F0BCBB46B246A946A046F0BD402104
:103184000B43EAE7406880210500C9000D4008426E
:10319400F5D1A7490B60002BE1D1A7498A460968FC
:1031A4000029E3D1A548016801310A2942DD036001
:1031B400A34B9B461B68002BD8D0A24B05931B68DE
:1031C4000493002B63D0A04BA0491A680393B8233F
:1031D40053439F4CCB18226802919968920053582C
:1031E4001D000493FFF760FE29009A480AF02CF9A9
:1031F4001E2D00D1CEE01F2D00D1BBE0002D00D14B
:10320400C8E0049D944829000AF01EF9280004F03F
:10321400F1FD2368326801332360A7E7834B8F4CA9
:1032240019688F4D23682960994201D0002903D180
:1032340021609DE7016099E78A480AF005F98A4B05
:1032440029689C461A00002303E0013308321C2B32
:10325400EED010688142F8D1DE006644706804F054
:10326400C9FD824B70689C461A1D002303E001339C
:1032740008321C2B73D011688842F8D16246DB00F7
:10328400D1587B480AF0E0F82968216070E7794B4F
:10329400180098460AF0D8F8B8226B4F6B4C3B687C
:1032A40075485343E158029403970AF0CDF8404619
:1032B4000AF0CAF8714B39681D60B8234B43E31810
:1032C4005A69C8235B009C464C4603E063510435AD
:1032D400654502D05359581CF8D1B8234B43029A80
:1032E4000025D3185A68664B34009A46049E2B0175
:1032F400D018D35C0B2B1ED00E2B14D00A2B02D16A
:1033040086680135F3E72A0050460AF09DF85B46CB
:1033140000221A60039B029A1968B8234B43D318FE
:103324005A680135E3E70123059A13600022484BEC
:103334001A6022681AE78368C0689C463300072E27
:1033440006D9083B012B0CD94E48FEF71BF8E1E7E0
:1033540048466746C8339B00C7500135C7E74A490A
:103364008FE74F466833DB00FB18674658601F60E1
:103374000135BCE7012352461360F5224946920009
:103384008B50236801210133404823600AF05CF824
:103394003268EBE60023524600213D4813600AF0F0
:1033A40053F8B823039F3B483A685343029AD158D1
:1033B4000AF04AF81E2308931F3B0D940B961C0039
:1033C4003E00354A2D4D0692344A29680792049AE4
:1033D40006980AF039F82B6831689C46B8234B43A9
:1033E400029AD3186246DB6810011A181B5C180095
:1033F4001438C0B20A2800D9F6E0079980000958A9
:103404008F461A00264804991C000AF01DF8296802
:1034140001312960DBE79468224821000AF014F89E
:1034240014230893F3E7C046FCDA02200CDB0220E5
:1034340010DB022004DB0220D8DF0220C0DF0220E0
:10344400D0DF02201CDF0220C4DF0220BC9902204E
:10345400D4DF0220C8FC0120C0FF012000DB0220D1
:1034640008DB022048000220DC98022030B0022051
:1034740048F40120D4FF012008000220C8DF022004
:1034840020000220F4F80120C8F30120D4FC01201C
:1034940008FD012038FD012058FD0120F41A022006
:1034A4009CFD01208CFD0120D0480B9E09F04AFFB1
:1034B40000235A4613605246136001332B60039B6A
:1034C400CB4D1A68B8235343029A2968D21812695B
:1034D400002900D0DBE0C74C002A00D156E1C648E1
:1034E40009F0B2FF039A00271368C449013313603B
:1034F400B8225343029A2770D05816F089FB00284B
:1035040000D1D0E001235A461360059B32682F6036
:103514001F602BE60D9CBA480B9E09F095FF2368AB
:10352400013323602B6801332B605B461B68002B3F
:10353400C5D0B44809F088FF326817E6F5234F4632
:103544009B00FA580833F958AF4809F07DFFF72378
:103554009B00FB58002B00D159E7AC48FDF734FF22
:10356400B82332685343029AD31800221A614EE7F3
:10357400F5234F469B00FA580833F958A44809F03C
:1035840063FFF7239B00FB581F1E00D03FE7A148B1
:10359400FDF71AFFB82332685343029AD3181F6108
:1035A40035E7089F9C4A3B00143B9B00D1589B483D
:1035B4000C9209F049FF192F22D0631C09D01E2C4C
:1035C40000D985E0964BE340DB0773D5954809F0B5
:1035D4003BFF1E2308931AE794689348210009F0DF
:1035E40033FF1923089312E7624690480B9E09F0B3
:1035F4002BFF00235A4613602B6801332B605EE7D0
:1036040021004846FEF74EFEB82233685343029A1F
:10361400D3182A68DB6812019B189A68824200D189
:10362400BBE021004846FEF73DFEB82784463368D8
:10363400029A7B43D3182A68DB6812019B189A68A4
:10364400DB682100009201937948624609F0FCFE90
:1036540021004846FEF726FE84463368029A7B43DF
:10366400D3182A68DB6812019B189A68DB6821006A
:10367400009201936F486246FDF7A6FE3368029AF2
:103684007B43D31800221A611E230893BFE6002A45
:1036940001D032686AE5029A1833D018554916F0F9
:1036A400FBFA326862E55B461860634809F0CCFEB9
:1036B40032685BE5DB23152C49D0D423182C46D083
:1036C400162C43D0172C00D1EEE0072C00D8BFE015
:1036D4002300083B012B00D8F3E021005748FDF7F5
:1036E40051FEB82332680A995343029AD3182A68C0
:1036F400DB6812019B189A68DB688A4200D1DBE020
:1037040021004F4809F0A0FEE3B2132B00D8BFE01C
:10371400E3B20C9A143B9B00D3589846B827210077
:103724004846FDF7FDFE3368029A7B43D3182A68A6
:10373400DB6812019B189A68DB680092019302000F
:103744000B0040484146FDF73FFE97E7D6234A4623
:103754009B00D3581F0000239846B8233268534374
:10376400029AD3182A68DB6812019B189A68DB68EE
:103774000A92099397422CD0099B210030480A9A57
:1037840009F062FE43460A970993C1E7029A183387
:103794002100D01816F080FAA1E6DB68002B00D0D7
:1037A4003FE721004846FEF77DFDB8228446336892
:1037B40021005343029A2448D3182A68DB68120173
:1037C4009B189A68DB6800920193624609F03CFEFC
:1037D400FFE6099A9045CFD1099B21001B480A9A1C
:1037E40009F032FE1E23089311E6C04614FF01209F
:1037F400CCDF022020DF02207CFF0120C8EF012063
:1038040004FF012058FF0120E8FD012014FE0120DF
:10381400B4FD0120DCFD012004B0022020FE0120C3
:103824000000104690FE012074FD012028FF0120B5
:1038340050FE012070FE012094FF012054F4012069
:10384400D4FE0120E8FE012030FE0120C0FE01204C
:1038540023004A46C8339B00D3581F0000239846D0
:10386400B82332685343029AD3182A68DB681201DA
:103874009B189A68DB680A920993974211D0099BB6
:10388400210014480A9A09F0DFFD43460A97099378
:10389400114814210700114AE3B209F06DFAB84641
:1038A4003CE79845EBD197E7E0234A469B00D35881
:1038B4001F00DB17984650E709998B4200D01FE799
:1038C4008AE76833DB004B441A685B681700984644
:1038D400C6E7C046D4FE012004DF0220C012022045
:1038E40030B5B3B0050004F019FD164804F040FFEC
:1038F400002822D02900144809F02AFA2800134984
:1039040014F076FE041E14D0114D03E0694628001D
:1039140009F09AFD2200C721684614F0FBFE002836
:10392400F4D1200014F0D8FE04F016FD012033B0C9
:1039340030BD2900074809F087FD04F00DFD002083
:10394400F5E7C04670F1012074000220381402200B
:103954002CFE012084000220F0B5C64600B5B2B0AA
:10396400040004F0DBFC214804F002FF002838D0F6
:1039740021001F4809F0ECF920001E4914F038FE1C
:103984006D468046002828D01B4F4246C721280098
:1039940014F0C0FE002816D02B782A2BF5D1174C32
:1039A400260060362A002100380063689847002802
:1039B400EBD10834B442F5D14246C721280014F0B3
:1039C400A9FE0028E8D1404614F086FE04F0C4FCA9
:1039D400012032B080BCB846F0BD2100084809F08F
:1039E40033FD04F0B9FC0020F3E7C04670F1012078
:1039F400740002203814022070BF02201C380220F8
:103A04008400022010B5040021000948FFF7A4FF38
:103A1400084804F0ADFB812200230121D200A35009
:103A2400054AA350083AA150044AA35010BDC04609
:103A340088C3022010B10220040400000C0400001A
:103A440010B502490248FFF787FF10BD70BF02207E
:103A540098000220F0B5D6464F464646C0B5924C73
:103A64000500A54403A816F017F903A98F4809F027
:103A7400EBFC04F053FC8E4804F07AFE002800D1DD
:103A8400DBE00A2203A908A811F00EF9002800D0EF
:103A9400D0E0884908A813F085FADB239B00EA5894
:103AA400854908A813F07EFADC239B00EA58834971
:103AB40008A813F077FAD4239B00EA58804908A891
:103AC40013F070FAD7239B00EA587E4908A813F034
:103AD40069FAD8239B00EA587B4908A813F062FAD4
:103AE400D9239B00EA58794908A813F05BFADA2332
:103AF4009B00EA58764908A813F054FADF239B0088
:103B0400EA58744908A813F04DFA734B73491A68BC
:103B140008A813F047FA724B72491A6808A813F000
:103B240041FAC8239B009946A944A8464E4600245E
:103B34006D4F2200390008CE08A8013413F032FA80
:103B4400082CF6D1C823694C9B0021000822EB58AD
:103B540008A813F027FAC9239B002100EB58092277
:103B640008A813F01FFA624908A813F01BFA614B66
:103B7400002407269A46604F264269D0A3003900E4
:103B8400EA5808A8013413F00DFAC82CF4D15B4E9E
:103B940008A8310013F006FA28002A000023913007
:103BA400FF3002CA5B188242FBD1554CA268934293
:103BB40069D0A269934200D173E05249524F0091F7
:103BC400524A390008A813F0EDF90023A535FF3552
:103BD40004CD9B184D45FBD1A268934258D0A269ED
:103BE40093425AD047490091494A390008A813F032
:103BF400D9F90023414604C988469B184945F9D19F
:103C0400A2689A423AD0A269934248D03D49414AB7
:103C1400009108A8390013F0C5F9310008A813F081
:103C2400C1F908A812F0CEF9041E1DD104F094FBCA
:103C3400012005E0384809F007FC04F08DFB002062
:103C4400A0239B009D44E0BCBA46B146A846F0BD03
:103C5400514608A813F0A6F9A3003900EA5808A8A9
:103C640013F0A0F9013487E714F0B6FC2200010038
:103C74002A4809F0E9FB04F06FFBE0E70022120197
:103C8400A4186168C3E700221201A218516895E7DD
:103C940000221201A2185168A5E70122F9E70122C6
:103CA400EDE70122F0E7C04680FDFFFFBC000220E3
:103CB40070F10120D400022000010220140102202E
:103CC400280102203C010220580102207401022034
:103CD40090010220AC01022000DF0220C401022076
:103CE400E4DC0220E0010220F801022004020220A8
:103CF400140202202002022024020220E4F3012004
:103D04001CB10220B4110220A40002202C020220C3
:103D14003802022044020220C8000220500202207D
:103D240030B505000C4C87B022000C4B0C490D48F3
:103D340004F0B4FD0C4B21001A6801A8013209F00B
:103D440007F801A92800FFF785FE01A9074809F033
:103D54007BFB07B030BDC04674020220680202201B
:103D64008402022070F1012024DB02209002022050
:103D740010B5094804F0FAFA002808D0074C08489E
:103D84002100FFF767FE2000FFF7AAFD10BD0549DB
:103D9400054809F059FBF1E770F101209800022071
:103DA40070BF022018DC0220A8020220002370B594
:103DB400204D82B00C002B700B00072916D9083B4C
:103DC400012B02D9280002B070BDD0339B00C25829
:103DD400194800230600194908F0BAFF23001221EC
:103DE4002800174A009608F0C7FFEBE7C8339B008A
:103DF400C3585A1C1BD01A0F1B011B090A2A0DD0C9
:103E04000B2A12D00F481049060008F0A1FF330016
:103E1400220028000A4908F09BFFD3E72B22094817
:103E24000A49060008F094FFF1E72D22F7E7084B52
:103E3400EEE7C04688DB0220ACDB022040FA01201A
:103E4400C8020220C0DB0220F4FA012000FB01209A
:103E5400D8FA0120F0B5C6465D4E0100804600B593
:103E6400300015F019FF3378002B68D02B2B01D1CB
:103E74000B3B33707378002B61D02B2B01D10B3BA0
:103E84007370B378002B5AD02B2B00D187E0F378D2
:103E9400002B54D02B2B00D184E03379002B4ED04F
:103EA4002B2B00D181E07379002B48D02B2B01D12F
:103EB4000B3B7371B379002B41D02B2B01D10B3BFE
:103EC400B371F379002B3AD02B2B01D10B3BF37157
:103ED400337A002B33D02B2B01D10B3B3372737A03
:103EE400002B2CD02B2B01D10B3B7372B37A002BFC
:103EF40025D02B2B60D0F37A002B20D02B2B5ED037
:103F0400337B002B1BD02B2B5CD0737B002B16D068
:103F14002B2B01D10B3B7373B37B002B0FD02B2BBB
:103F240001D10B3BB373F37B002B08D02B2B01D1B6
:103F34000B3BF373337C002B01D02B2B45D0340087
:103F440000252027300015F0AFFE854206D22378E5
:103F54002D2B0FD0202B0DD0302B0ED0431EF25C16
:103F64002E2A16D03100404615F096FE80BCB84685
:103F7400F0BD277001350134E4E76378302BF8D0C5
:103F840020233000735515F08FFE431EF25C2E2A59
:103F9400E8D1325C002AE5D12032F254E2E70B3B4F
:103FA400B37074E70B3BF37077E70B3B33717379B2
:103FB400002B00D07AE7C2E70B3BB3729BE70B3BC5
:103FC400F3729DE70B3B33739FE70B3B3374B6E708
:103FD400ECDE0220F8B50023234C2380030F0A2BC8
:103FE4003FD00B2B2CD12D27204D03003A00204924
:103FF4000601280008F0ACFE3A001E49200008F033
:10400400A7FE0622360F921BE91C200015F008FDBE
:10401400200015F049FE02221749201807F0F6FA8D
:10402400A91B32000931200015F0FAFC21002800F8
:1040340015F032FE114B1B68002B0ED12800F8BD81
:104044002027092BD0D8094D02000D49280008F07B
:104054007FFE0A4B1B68002BF0D02800FFF7FAFE06
:10406400ECE72B27C0E7C046FCDB0220D4DB0220B0
:10407400D002022080F301204007022000DF02204A
:1040840004F50120F0B5C646484B002498461D00AF
:1040940000B5474F0DE02E683000FFF79BFF21006D
:1040A400030032003800013409F0CEF9C82C0AD0DC
:1040B40004350521200006F0EFFA0029EBD10A208F
:1040C40009F0F6F8E7E744460A2009F0F1F8434618
:1040D40000229134FF3402CB5218A342FBD1354E57
:1040E400B3689A4246D0B3699A4259D0324B334F9F
:1040F400C8253800324909F0A7F90022AD0045442B
:1041040008CCD218AC42FBD1B3689A4237D0B36919
:104114009A4249D0284B38002A4909F095F9434678
:104124000022A533FF3302CB5218AB42FBD1B36854
:104134009A4229D0B3699A4234D01F4B380022499D
:1041440009F082F90022414608C98846D218A942DA
:10415400F9D1B36893421CD0B3699A421ED0164B6E
:1041640038001A4909F070F90A2009F0A1F880BC56
:10417400B846F0BD00231B01F3185B68B7E70023C2
:104184001B01F3185B68C6E700231B01F3185B6887
:10419400D4E700231B01F6187368E1E70123F9E76C
:1041A4000123E8E70123F0E70123E9E770BF0220D8
:1041B400D80202201CB10220B41102205C000220AB
:1041C4002C02022038020220EC02022044020220C7
:1041D400F0B5C6460E00002700B51E4D8EB0320065
:1041E4001D49340180461D482F7009F02DF91C49E2
:1041F40022091C4809F028F91B49220901A808F0E2
:10420400A7FD6A46194901A815F006FB009918484C
:1042140009F01AF90099002918DBC72902DDC72320
:10422400C7210093134809F00FF94246009B9B00F5
:10423400D058FFF7CFFE320003000F49280008F0E2
:1042440087FD28000EB080BCB846F0BD0021009761
:10425400E8E7C04664DB0220EC1D0220BCF7012025
:10426400FC1D022098F7012050F10120C012022009
:10427400A4F70120B0F70120F8020220DB23F0B5F7
:104284009B00C35804000D0083B0DB0504D4DB237A
:104294009B00E55003B0F0BD334809F0D5F8F02396
:1042A4001B011D4257D1314809F0CEF8FB230122EE
:1042B4009B00E25001212E4809F0C6F82D4B1B68E3
:1042C400002BE4D02C4809F0BFF8F72301229B000F
:1042D400E25020000121FEF7B7FAF2239B00E358D5
:1042E400200019001E00FDF7DDFFFFF773FE234BCE
:1042F400019000962000022201211E00FCF73AFDE5
:10430400F3239B00E258200011001700FDF7CAFFB9
:10431400FFF760FE33000190009720000322012183
:10432400FCF728FDF4239B00E2582000110017003D
:10433400FDF7B8FFFFF74EFE330001900422200082
:1043440001210097FCF716FD0522012120000C4BEA
:10435400FCF710FD9BE7FB2300229B000021E250A9
:10436400034809F071F892E70003022028030220B1
:104374004C030220E4DC02206403022080030220B8
:10438400B8F30120F0B5DE46454657464E46E0B543
:10439400CE4B060089B01900CD48069309F054F8B5
:1043A400DB23FB259B00F7580433F258C94CCA4859
:1043B400AD009046FA0523687159D20F079009F0B1
:1043C40043F87359002B61D1DB239B00F358DB05C1
:1043D4005CD445466B425D4120226B429343BF4807
:1043E4003A00BF494133824608F0B2FC5146BD4809
:1043F40009F02AF8E1239B00F358002B04D0DB23B7
:104404009B00F358DB057FD5DA239B00F3581B0F81
:10441400062B00D87FE0073B022B42D8DC239B000D
:10442400F358002B00D00EE1DB239B00F35800214E
:104434000493002300259946AB4B9846AB4B9B460F
:10444400AB4B03930F22AA40049B58461A406B427D
:104454006B41EA40EB40D7187F180097414608F0BB
:10446400F3FF3B000A3B092B62D80F2306371F409A
:10447400AF40CC46BC446246414603980435E1460D
:1044840008F0E2FF202D61D00121DBE72368002B37
:104494009FD1984B91491A688A460A601B790B711F
:1044A400A4E79548FCF76EFFDB239B00F35899467D
:1044B400DC239B00F5584A46FB27D205BF0023683E
:1044C400F1590798D20F08F0BFFFF359002B04D11C
:1044D400DB239B00F358DB0503D52368002B00D1B5
:1044E4007AE06B425D4120226B42934350464A4638
:1044F4007B49413308F02CFC5146804808F0A4FF66
:104504007F48069908F0A0FF09B0F0BCBB46B2464C
:10451400A946A046F0BDDB239B00F3589946DC2353
:104524009B00F258002A5ED101220125F250C2E715
:10453400AF40CC46BC446246414603980435E1464C
:1045440008F082FF202D01D000217BE74B46002795
:104554001D022D0A41462A006A4808F075FF6A4B7D
:10456400290018009B4608F06FFF684B0396984695
:10457400674B260099463C0002E00434202C14D0FA
:104584000F27A7402F40E740404639000A3F08F074
:104594005BFF052FF1D80623A340ED1829004846F8
:1045A400043408F051FF202CEAD13400039E290082
:1045B400584608F049FF29003000FFF75FFEDB2270
:1045C4009200B35800251B051B0DB3509946DC23FC
:1045D40000229B00F2506EE75146464B1A680A606F
:1045E4001B790B7188E700230021002704933E4BBD
:1045F40098463E4B9B463E4B03930F224B46BA4094
:104604001A407B427B41FA40FB40D5186D1858464E
:104614004146009508F018FF2B000A3B092B16D8D9
:104624000F2306351D40049BBD409C46AC446346A5
:1046340041461A0003980437049308F005FF202F1D
:1046440015D00121D9E73348FCF7AAFEECE6049B18
:10465400BD409C46AC44634641461A000398043767
:10466400049308F0F1FE202F01D00021C5E7049B3C
:1046740041461F023D0A2A00224808F0E5FE22486E
:104684002900834608F0E0FE214AA146039600274C
:1046940090462C001D4E02E00437202F12D00F2527
:1046A400BD402540FD40300029000A3D08F0CCFE05
:1046B400052DF1D80623BB40E4182100404608F03C
:1046C400C3FEE9E725004C4670E7C046701D022092
:1046D40080EE0120E4DC02203CF30120E8DB022030
:1046E4007CF301208C030220401E0220D4F401201C
:1046F400F0F40120DCFA0120C0030220D0030220E0
:10470400D8EE01200CF5012070F401207CF4012086
:104714008CF401209C03022070B5D625AD004159CC
:104724002F4A90B00400FDF723F8CD230002000ABD
:104734005B00984246D39A222A4BFF32D6252A4E52
:10474400AD0063512949300008F002FB655928493E
:104754002A0028482D0108F077FE27492A0927480E
:1047640008F072FE26492A0903A808F0F1FA25493F
:1047740002AA03A815F050F80299234808F064FE31
:10478400029900291ADBC72902DDC723C721029336
:104794001E4808F059FE029B9B00E058FFF71AFCE4
:1047A4000622019001212000194B0096FCF7E2FA41
:1047B400FF2301229B00E25010B070BD00230021B2
:1047C4000293E5E7064A20006159FCF7D1FFA023D4
:1047D400020112091B061343C205D20DAEE7C046FF
:1047E400010000A0990100A050DB0220A0060220D5
:1047F400EC1D0220BCF70120FC1D022098F70120CB
:1048040050F10120C0120220A4F70120B0F70120CA
:10481400E003022070B5D625AD0041592F4A90B06F
:104824000400FCF7A5FFCD230002000A5B009842B8
:1048340046D39A222A4BFF32D6252A4EAD00635125
:104844002949300008F084FA655928492A00284883
:104854002D0108F0F9FD27492A09274808F0F4FD3D
:1048640026492A0903A808F073FA254902AA03A8CD
:1048740014F0D2FF0299234808F0E6FD02990029BA
:104884001ADBC72902DDC723C72102931E4808F09B
:10489400DBFD029B9B00E058FFF79CFB0622019086
:1048A40001212000194B0096FCF764FAFF23012232
:1048B4009B00E25010B070BD002300210293E5E795
:1048C400064A20006159FCF753FFA0230201120994
:1048D4001B061343C205D20DAEE7C046010000B06B
:1048E400990100A050DB0220A0060220EC1D02204A
:1048F400BCF70120FC1D022098F7012050F1012093
:10490400C0120220A4F70120B0F70120E003022026
:10491400F0B5C646D423CD2100B59B00C35804008E
:104924001A0290B0120A49008A4200D388E0A022F9
:104934001B011B0912061343D6229200A350002325
:10494400083AA3500432A350DB23FB279B00E6580C
:104954000433E2583E4DBF009046F2052B68E159FE
:104964003C48D20F08F070FDE359002B5ED1DB23E5
:104974009B00E358DB0559D445466B425D41202238
:104984006B42354D9343280032003449413308F0DB
:10499400DFF9D6270095012201212000304BBF000A
:1049A400FCF7E8F9E5596B1C50D02E4EEA053000AF
:1049B4002D49D20D08F0CCF9E5592A002B492D01D7
:1049C4002B4808F041FD2B492A092B4808F03CFDEF
:1049D4002A492A0903A808F0BBF9294902AA03A80D
:1049E40014F01AFF0299274808F02EFD02990029B5
:1049F40028DBC72902DDC723C7210293224808F018
:104A040023FD029B9B00E058FFF7E4FA0622019085
:104A1400012120001D4B0096FCF7ACF9FF23012275
:104A24009B00E25010B080BCB846F0BD2B68002B50
:104A3400A2D1174B084D1A682A601B792B71A8E77D
:104A4400144B79E7002300210293D7E7124EB4E711
:104A5400E4DC02203CF30120E8DB02207CF30120AB
:104A640084F3012050DB0220A0060220EC1D02206A
:104A7400BCF70120FC1D022098F7012050F1012011
:104A8400C0120220A4F70120B0F70120E0030220A5
:104A9400DCFA0120990100A014FA0120F0B5D42316
:104AA400DE464E46454657469B00E0B5C55808339A
:104AB400C658604B6049360195B0320904001800AD
:104AC4008846994608F0C0FC5C4B3209190007A8D7
:104AD4009B4608F03DF95A4B06AA190007A804930F
:104AE40014F09AFE574B069918009A4608F0ACFC4D
:104AF4000699002900DA96E0C72902DDC723C721F9
:104B04000693514BFB271800039308F09DFC069B6A
:104B1400D4229B00E55000239200A3500432A350FA
:104B2400DB239B00E6580433E258484D0592BF004E
:104B3400F2052B68E1594648D20F08F085FCE35989
:104B4400002B62D1DB239B00E358DB055DD4059B7E
:104B5400404D5A42534120225B4293432800320085
:104B64003D49413308F0F4F8D6260095012201218D
:104B740020003A4BB600FCF7FDF8A5596B1C56D043
:104B8400374FEA0538003749D20D08F0E1F8A55946
:104B94003E002A0034492D01344808F055FC4146B2
:104BA4002A09484608F050FC59462A0907A808F083
:104BB400CFF8049906AA07A814F02EFE06995046C9
:104BC40008F042FC0699002929DBC72902DDC72326
:104BD400C7210693039808F037FC069B9B00E05816
:104BE400FFF7F8F90622019001212000204B0096DE
:104BF400FCF7C0F8FF2301229B00E25015B0F0BC83
:104C0400BB46B246A946A046F0BD2B68002B9ED1F8
:104C1400184B104D1A682A601B792B71A4E70023E6
:104C240000210693D6E700230021069369E7124E7C
:104C3400AFE7C04698F70120FC1D022050F1012087
:104C4400C0120220A4F70120B0F70120E4DC022006
:104C54003CF30120E8DB02207CF3012084F30120F3
:104C640050DB0220A0060220EC1D0220BCF701202C
:104C7400E0030220DCFA012014FA0120F0B5D42369
:104C8400C6469B0000B5C2580400130F0A3B82B00D
:104C94000B39012B04D9D5239B00C358002B5AD0C0
:104CA40013021D0A16011B09360F5B18002E4CD186
:104CB400D521890060581B02411E88411D0A000647
:104CC4002D4911400143090E09062943D423FB262B
:104CD4009B00E1501C33E5580433E258274FB600DB
:104CE4009046EA053B68A1592548D20F08F0ACFB71
:104CF400A359002B04D1DB239B00E358DB0502D529
:104D04003B68002B2AD043465A42534120221D4E71
:104D14005B42934330002A001B49413308F018F8E2
:104D2400D4239B00E058FFF755F90122019001219B
:104D34002000164B0096FCF71DF8FF2301229B0070
:104D4400E25002B080BCB846F0BD701C062E0CD1F7
:104D5400C020C004B4E712015118B7E70C4B094E48
:104D64001A6832601B793371DAE7F021000609050D
:104D74001B0208401D0AA3E7FFFFFFF0E4DC02204A
:104D84003CF30120E8DB02207CF30120E80302204D
:104D9400DCFA0120F0B5C646D523012200B5D421A2
:104DA4009B0086B0C250A0228900435812061B0201
:104DB4001B0A13434350DB23FB2604009B00C55806
:104DC4000433C258204FB6009046EA053B68815927
:104DD400D20F1E4808F038FBA359002B2AD1DB233D
:104DE4009B00E358DB0525D443465A425341202215
:104DF400174E5B42934330002A001649413307F0B3
:104E0400A7FFD4239B00E058FFF7E4F83200030027
:104E1400114901A807F09CFF01AB012201212000E8
:104E2400FBF7A8FFFF2301229B00E25006B080BCE1
:104E3400B846F0BD3B68002BD6D1084B044E1A6827
:104E440032601B793371DCE7E4DC02203CF301209F
:104E5400E8DB02207CF30120E8030220DCFA0120D5
:104E6400D421F0B5C646B0228900435800B51B01D1
:104E740012061B09134386B04350DB23FB260400B0
:104E84009B00C5580433C258204FB6009046EA052B
:104E94003B688159D20F1E4808F0D6FAA359002B5B
:104EA4002AD1DB239B00E358DB0525D443465A4231
:104EB40053412022174E5B42934330002A00164987
:104EC400413307F045FFD4239B00E058FFF782F8F5
:104ED40032000300114901A807F03AFF01AB012297
:104EE40001212000FBF746FFFF2301229B00E25033
:104EF40006B080BCB846F0BD3B68002BD6D1084B49
:104F0400044E1A6832601B793371DCE7E4DC02205A
:104F14003CF30120E8DB02207CF30120E8030220BB
:104F2400DCFA012008B4F0B5CE46474680B5E6B0B9
:104F34006DAB40CB81460F0014000193002938D09B
:104F4400062A3EDCC8213200490002A807F028FFE7
:104F540002A814F0A9FE12283BD83A002349013CC8
:104F6400234808F071FA63001B19DD00ED1A214B88
:104F74003200ED181221019B280007F011FF2800D0
:104F840014F092FE0F26361A002E0EDD1A4B002462
:104F9400984602E0280014F087FE022241462818B1
:104FA400013406F033FBA642F4D1FF234A469B00AA
:104FB400D75066B0C0BCB946B046F0BC08BC01B01E
:104FC400184711000D4808F03FFA0D4808F0BAF9E7
:104FD400FEE731000B4808F037FA02A90A4808F046
:104FE40033FA074808F0AEF9B7E7C046441C02207C
:104FF40094F2012080D20220A4F3012050F2012077
:1050040068F2012074F2012080F20120F0B5CE464E
:10501400474680B504000D00160083B0002900D077
:10502400E3E0B24F01223B0029002000FFF77AFFA2
:1050340029002000FDF708FC3B0003222900200082
:10504400FFF770FFDD239B00E1582000FDF72AF9EC
:10505400FB239B00E358002B08D1DB239B00E35880
:10506400DB054AD5A24B1B68002B46D1030F190060
:10507400A0481E0008F0E8F9062E44D8012E00D9F5
:1050840095E029002000FDF7DFFB3B000322290007
:105094002000FFF747FF3B00042229002000FFF710
:1050A40041FF3B00052229002000FFF73BFF3B00A6
:1050B400062229002000FFF735FFEA239B00E6586B
:1050C400072E00D8F0E03300083B012B6AD82900F2
:1050D400200000960322884BFFF724FF8748320004
:1050E400F3170600864907F033FE04222900200046
:1050F400844B0096FFF716FF54E0062E03DC012EC6
:1051040055DC4FD8BDE7073E022E4BD88021200046
:105114004900FDF7C7F88021070049002000FDF78A
:10512400C1F801002000FDF7BDF8FEF753FF764EED
:10513400042233002900019000972000FFF7F2FEBB
:1051440002212000FF31FDF7ADF802210700FF31F5
:105154002000FDF7A7F801002000FDF7A3F8FEF7F3
:1051640039FF330005222900019000972000FFF742
:10517400D9FE812120004900FDF794F88121070020
:1051840049002000FDF78EF801002000FDF78AF8A1
:10519400FEF720FF3300019006222900200000972B
:1051A400FFF7C0FE03B0C0BCB946B046F0BDE32370
:1051B4009B00E358022B1CDD043B052BF2D829008D
:1051C4002000FDF741FBED239B00E6582000310051
:1051D400FDF768F8FEF7FEFE032201902900200087
:1051E400494B0096FFF79EFEDCE7484802F0C0FFFB
:1051F40017E7002BD6DB29002000FDF725FBED2364
:105204009B00E65820003100FDF74CF8FEF7E2FE63
:105214003D4B01900096032229002000FFF782FEF7
:1052240000233B4E3370C8239B00E3585A1C5BD0C9
:105234001A0F1B011B090A2A42D00B2A50D0354FE2
:105244003549380007F084FD3B0034490022300022
:10525400894607F07DFD2B4B04222900200000968F
:105264009846FFF75FFE00233370C9239B00E35881
:105274005A1C37D01A0F1B011B090A2A2ED00B2ADD
:1052840025D0244F2449380007F062FD3B004946ED
:105294000122300007F05CFD43460522290020006E
:1052A4000096FFF73FFE7DE731002000FEF77EFD0C
:1052B4000322009029002000124BFFF733FE71E710
:1052C4002B22144F1649380007F042FDBCE72D226B
:1052D400104F1349380007F03BFDD7E72B22F7E7BF
:1052E4002D22EEE70F4BD2E70E4BAEE7B8F30120C9
:1052F400E4DC0220040402201C040220ACDB0220B3
:1053040040FA01202CFE01202004022010B10220CA
:1053140088DB0220C0DB0220F4FA0120C80202204C
:1053240000FB0120D8FA0120F0B54746CE4680B5EF
:1053340004000D00170083B000296DD1954E0122A1
:10534400330029002000FFF7EDFD29002000FDF7C0
:105354007BFA3300032229002000FFF7E3FD092F25
:1053640035DC062F38DDF2239B00E7582000390096
:10537400FCF798FFFEF72EFE874E04223300290027
:10538400019000972000FFF7CDFDF3239B00E75821
:1053940020003900FCF786FFFEF71CFE05223300CF
:1053A4002900019000972000FFF7BCFDF4239B0027
:1053B400E75820003900FCF775FFFEF70BFE3300B9
:1053C40001900622290020000097FFF7ABFD03B0EF
:1053D400C0BCB946B046F0BD012F21DDE3239B00DC
:1053E400E358022B59DD043B052BF0D8290020009B
:1053F400FDF72AFAED239B00E65820003100FCF764
:1054040051FFFEF7E7FD0322019029002000624BC3
:105414000096FFF787FDDAE7604802F0A9FE8DE702
:10542400002FD4DB29002000FDF70EFA33000322FD
:1054340029002000FFF776FD330004222900200014
:10544400FFF770FD3300052229002000FFF76AFDF5
:105454003300062229002000FFF764FDEA239B00A5
:10546400E658072E74D93300083B012BAFD8290026
:105474002000009603224A4BFFF754FD49483200AE
:10548400F3170600484907F063FC042229002000B2
:10549400464B0096FFF746FD99E7002B97DB290062
:1054A4002000FDF7D1F9ED239B00E65820003100E0
:1054B400FCF7F8FEFEF78EFD374B019000960322B1
:1054C40029002000FFF72EFD0023394E3370C82336
:1054D4009B00E3585A1C47D01A0F1B011B090A2AC8
:1054E40054D00B2A4BD0334F3349380007F030FCEB
:1054F4003B00324900223000894607F029FC2B4B3F
:1055040004222900200000969846FFF70BFD002393
:105514003370C9239B00E3585A1C39D01A0F1B015E
:105524001B090A2A29D00B2A20D0224F22493800ED
:1055340007F00EFC3B0049460122300007F008FC4E
:1055440043460522290020000096FFF7EBFC3EE7C6
:1055540031002000FEF72AFC0322009029002000DD
:10556400124BFFF7DFFC32E7154BC2E72D22114F38
:105574001449380007F0ECFBDCE72B22F7E72D2277
:105584000C4F1049380007F0E3FBB1E72B22F7E793
:105594000B4BD0E7B8F301202004022010B1022005
:1055A4001C040220ACDB022040FA01202CFE012066
:1055B40088DB0220C0DB0220F4FA0120C8020220AA
:1055C400D8FA012000FB0120F0B5284E04000A009F
:1055D4000D002748310083B007F036FFDD239B0020
:1055E400E1580433E358002B26D0224ADC20DB2385
:1055F400800020589B00E35800281BD01D4F0097C3
:10560400E2271D48BF0007F01FFFE259931E042B39
:1056140006D8E3239B00E358082B19D0092B0DD09F
:1056240029002000FFF780FE3100144807F00CFF2A
:1056340003B0F0BD124FE2E7114AD7E72000FEF7AE
:10564400A1FEF72301229B00E2500125E259E7E77E
:10565400F72201239200A3501432A3500C32A3501A
:105664002000FEF78FFE0125E259D9E7501D0220E4
:10567400300402202C04022090040220D8EE0120E1
:10568400A4F30120F0B5CE46474680B504000D00D2
:10569400160083B0002900D077E0DF4F01223B00E1
:1056A40029002000FFF73EFC29002000FDF7CCF87C
:1056B4003B00032229002000FFF734FC092E16D8F2
:1056C400D64BB6009B599F462B22D54FD54938005F
:1056D40007F03EFB3B0005224146300007F038FB53
:1056E4004B460622290020000096FFF71BFC03B05E
:1056F400C0BCB946B046F0BDE3239B00E358032B7E
:1057040000DD4AE1002B00DB4BE129002000FDF71E
:105714009BF83B00032229002000FFF703FC3B0019
:10572400042229002000FFF7FDFB3B00052229008D
:105734002000FFF7F7FB3B00062229002000FFF7BB
:10574400F1FBEA239B00E2580433E658072A00D809
:10575400F7E01300083B012B00D873E10423032274
:105764009846072E00D8F7E03300083B012BBED83B
:1057740029002000AC4B0096FFF7D4FB3B004246C7
:1057840029002000FFF7CEFBB1E7A84802F0F0FCA7
:1057940083E7E3239B00E358022B00DDE3E0002BC7
:1057A400A5DB29002000FDF74FF8EE239B00E65807
:1057B40020003100FCF776FDFEF70CFC2900019077
:1057C4000096200003229A4BFFF7ACFB0023964E71
:1057D40029002000009304223300FFF7A3FB0123D8
:1057E40005220093290033002000FFF79BFB7EE78E
:1057F4003B00290020000422FFF794FB3B00290012
:1058040020000522FFF78EFB3B0006222900200022
:10581400FFF788FB6BE70023864E3370CB239B0096
:10582400E3585A1C00D12DE11A0F1B011B090A2A47
:1058340000D118E10B2A00D0E7E02D22784F7949F6
:10584400380007F085FA3B007B4903223000884684
:1058540007F07EFA794B042229002000009699462D
:10586400FFF760FB00233370CC239B00E3585A1CE2
:1058740000D109E11A0F1B011B090A2A00D1FDE01E
:105884000B2A00D1F3E0664F6D49380007F060FA47
:105894003B0004224146300007F05AFA4B460522E9
:1058A400290020000096FFF73DFB00233370CD2331
:1058B4009B00E3585A1C00D1E2E01A0F1B011B099C
:1058C4000A2A00D100E70B2A00D1CEE0544F5C49EC
:1058D400380007F03DFAFDE6EF239B00E75820006F
:1058E4003900FCF7DFFCFEF775FB514E0422330050
:1058F4002900019000972000FFF714FBF0239B0080
:10590400E75820003900FCF7CDFCFEF763FB0522C5
:1059140033002900019000972000FFF703FBF123D7
:105924009B00E75820003900FCF7BCFCFEF752FB53
:10593400330001900622290020000097FFF7F2FAB5
:10594400D5E6394B0092290003222000FFF7EAFA3A
:1059540005230422984604E729002000324B0096D0
:10596400FFF7E0FAC3E6043B052B00D9BFE62900A4
:105974002000FCF769FFEE239B00E658200031006D
:10598400FCF790FCFEF726FB03220190290020007F
:10599400274B0096FFF7C6FAA9E6053B022B00D970
:1059A400B3E629002000FCF74FFF3B000322290047
:1059B4002000FFF7B7FA3B00042229002000FFF77C
:1059C400B1FA3B00052229002000FFF7ABFA3B00A7
:1059D400062229002000FFF7A5FAEA239B00E258DB
:1059E400072A53D91300083B012B00D98DE629005F
:1059F400200000920C4B0322FFF794FA3B00042290
:105A040029002000FFF78EFA7FE6054F0C49380085
:105A140007F09EF917E7C046B8F30120201B0220C7
:105A2400C0DB022000FB01201C04022010B1022074
:105A34002004022088DB0220C80202202CFE012060
:105A4400F4FA012029002000144B00920322FFF7EE
:105A540069FA3B00042229002000FFF763FA0623B9
:105A6400052298467DE62B22E8E62D222DE62D22FE
:105A74000B4F0C49380007F06BF909E72B22F7E7C5
:105A8400094B28E6084BDFE6074B02E700922900A2
:105A940003222000014BFFF745FA36E61C040220DE
:105AA400C0DB022000FB0120D8FA0120F0B54546F6
:105AB4004E46DE465746E0B58846060014001D00F3
:105AC40085B0072B12D9083B012B26D90E9B072B37
