:020000041000EA
:1000000000B5324B212058609868022188439860DF
:10001000D860186158612E4B002199600221596106
:100020000121F02299502B49196001219960352056
:1000300000F044F80222904214D00621196600F024
:1000400034F8196E01211966002018661A6600F04E
:100050002CF8196E196E196E052000F02FF8012189
:100060000842F9D1002199601B49196000215960AB
:100070001A491B48016001219960EB211966A021F2
:10008000196600F012F800219960164914480160C1
:100090000121996001BC002800D000471248134993
:1000A000086003C880F30888084703B5996A0420EC
:1000B0000142FBD001200142F8D103BD02B5186610
:1000C0001866FFF7F2FF186E186E02BD00000240BE
:1000D000000000180000070000035F00212200005C
:1000E000F4000018222000A00001001008ED00E03C
:1000F00000000000000000000000000074B24E7A12
:1001000000200420F7010010C3010010C5010010F9
:10011000C1010010C1010010C1010010C101001097
:10012000C1010010C1010010C1010010C701001081
:10013000C1010010C1010010C9010010CB01001065
:10014000CD010010CD010010CD010010CD01001037
:10015000CD010010CD010010CD010010CD01001027
:10016000CD010010CD010010CD010010CD01001017
:10017000CD010010CD010010CD010010CD01001007
:10018000CD010010CD010010CD010010CD010010F7
:10019000CD010010CD010010CD010010CD010010E7
:1001A000CD010010CD010010CD010010CD010010D7
:1001B000CD010010CD010010CD010010CD010010C7
:1001C00000BE00BE00BE00BE00BE00BEEFF3058054
:1001D000103800BEF2EB887190020010B4020010DB
:1001E0003802001090A31AE721482249086006C887
:1001F00081F30888104720480068002801D01C4877
:10020000F3E70DA40ECC002902D000F012F8F9E7B4
:100210001A491B4A002000E001C19142FCD1194952
:100220008847194988471949884700BEFDE701C931
:1002300001C29A42FBD37047B4020010C0000020F4
:10024000A0E0012094E20110A0E0012098BA022071
:100250008CBC021000000420000004208CBC0210A2
:10026000001004200010042000000000704700006F
:100270000000000008ED00E0000000D098BA022065
:1002800044DE02209DCF0020ED7900205DCF0020CC
:10029000B8210220C4210220D0210220DC2102202A
:1002A000E8210220F4210220002202200C22022058
:0402B000F82402200C
:1002B400F8B5C0460448054B10B5834203D0044B3F
:1002C400002B00D0984710BD98BA022098BA02209B
:1002D4000000000006480749091A8B10C90FC91805
:1002E40010B5491003D0044B002B00D0984710BD23
:1002F40098BA022098BA02200000000010B5074CFA
:100304002378002B09D1FFF7D5FF054B002B02D032
:10031400044800E000BF0123237010BD88C60220FA
:1003240000000000A0E00120054B10B5002B03D015
:100334000449054800E000BFFFF7CCFF10BDC046EC
:10034400000000008CC60220A0E001207047C046D7
:1003540082220023D200802183500122C90042500E
:10036400083942508122D200835070478222D20041
:10037400835801338350FE2301229B00C2507047EF
:100384008222D2008358002B01DD013B8350FE23DF
:1003940001229B00C2507047802200230121D20019
:1003A4008350083A815010328350704780230021D3
:1003B4000122DB00C31806C3FE2301229B00C250A6
:1003C40000221033C250704782220023D20083508F
:1003D400103A83500133083A8350103283507047E7
:1003E4008222D2008258054B12019B1800225B68BE
:1003F4001A60FE2301329B00C25070475C970220B2
:100404008222D2008258054B12019B185A6801239C
:100414001360FE22920083507047C0465C9702200E
:100424008223DB00C258002A01D10132C250FE23CC
:1004340001229B00C2507047FE220121014B920011
:100444009950704760BD0220084B0948094918605B
:100454005960094809499860D960094809491861EF
:100464005961094807499861D961704760BD022004
:1004740063035203560056105005530552055105A7
:100484005405530551075106002400240A4AC82084
:100494001168B8224A43094B30B59B185969084C76
:1004A4000023400003E0E2500433834202D0CA58E0
:1004B400551CF8D130BDC04618D902205C980220E2
:1004C40060BD0220B8220A4B19680A4B4A431960DE
:1004D400094B01219B18002219611A76074B1960F8
:1004E400074B1960074B1A60074B1A707047C046D8
:1004F40018D90220A4DD02205C980220ACDD022081
:10050400B0DD0220FCDC022000DD0220FEE7C04654
:1005140070B5094C0500210008480DF0D1F8F52309
:1005240001229B00EA5000220833EA5021000448CB
:100534000DF0C6F870BDC046881D0220F0F0012001
:1005440048F1012070B5074C0500210006480DF064
:10055400B7F8F72301229B00EA50210003480DF06D
:10056400AFF870BD781D0220F0F0012048F10120A1
:10057400D0220B4B0B480C49920010B59C182060FC
:10058400616000210948203A9A1803C2084A0948C0
:100594001A600DF095F80CCC07480DF091F810BDD9
:1005A40060BD022032547608305476085634120066
:1005B40018141014A0F10120B0F1012010B50E4858
:1005C4000CF0FCFF0D4B0E481A680E4B19680DF029
:1005D40077F80D4B0D4819680DF072F80C4B0D4867
:1005E4001A680D4B19680DF06BF80C4B0C48196820
:1005F4000DF066F810BDC046C8F10120E8D802200D
:10060400D8F10120F0D80220ECD80220FCF101201E
:10061400F8D8022014F20120E0D80220F4D80220F5
:1006240028F2012010B5054C054821680DF048F862
:100634002068253807F05CFD10BDC046FCD80220B8
:1006440034F2012010B50A2007F052FD10BDC04657
:1006540010B5092007F04CFD10BDC04610B515209B
:1006640007F046FD10BDC04610B5162007F040FD4A
:1006740010BDC04610B5172007F03AFD10BDC046A6
:1006840010B5072007F034FD10BDC04610B51A2080
:1006940007F02EFD10BDC04610B5022007F028FD5E
:1006A40010BDC04610B5062007F022FD10BDC0469F
:1006B40010B5052007F01CFD10BDC04610B5032081
:1006C40007F016FD10BDC04610B5042007F010FD5C
:1006D40010BDC046FE22002110B5034B9200182025
:1006E400995007F005FD10BD60BD0220FE220021D7
:1006F40010B5034B92001920995007F0F9FC10BD76
:1007040060BD0220F0B50022C646114B114C00B565
:1007140025001A600023012798460F4E183504E07F
:1007240043462B7027610135B8343100206819F035
:10073400ABFB0028F4D10122084B1860084B1A6067
:10074400084B1860084B187080BCB846F0BDC04612
:10075400A4DD02205C98022038F20120ACDD0220E6
:10076400B0DD0220FCDC022000DD022030B583B0C5
:1007740005000A49100001AA19F08AF904000128A9
:1007840003D00024200003B030BDDB2301999B007B
:10079400E95003480CF094FFF4E7C04640F201200E
:1007A40050F2012030B583B005000A49100001AAB7
:1007B40019F06EF90400012803D00024200003B0CE
:1007C40030BDDC2301999B00E95003480CF078FF0D
:1007D400F4E7C04668F2012078F20120002330B526
:1007E40083B005000A49100001AA019319F050F9D9
:1007F4000400012803D00024200003B030BDD4231A
:1008040001999B00E95003480CF05AFFF4E7C046F5
:1008140090F20120A0F2012010B582B001AB0400D7
:10082400114910006A4619F033F90023022802D056
:10083400180002B010BD0099019A01290BD00229B9
:100844000DD0002902D1D7239B00E25007480CF0B9
:1008540037FF0123ECE7D8239B00E250F6E7D923C6
:100864009B00E250F2E7C046BCF20120D4F2012022
:1008740030B583B005000A49100001AA19F008F93F
:100884000400012803D00024200003B030BDDA2383
:1008940001999B00E95003480CF012FFF4E7C046AD
:1008A400F4F2012010F3012030B583B005000A49A9
:1008B400100001AA19F0ECF80400012803D0002468
:1008C400200003B030BDDF2301999B00E9500348A9
:1008D4000CF0F6FEF4E7C04630F3012044F30120A7
:1008E40030B5284C0500236810008FB0002B02D1CE
:1008F40000200FB030BD0DAB05930CAB04930BABD4
:1009040003930AAB029309AB019308AB00931E490E
:1009140007AB06AA19F0BCF8082804D000231B4A28
:1009240023601360E4E7194C22689300EB1859071D
:1009340017D1069807991860596008980999986022
:10094400D9600A980B99186159610C980D999861AE
:10095400D961130007320833920023600120A950A3
:10096400C7E7069919600799596008999960099928
:10097400D9600A9919610B9959610C9999610D997A
:10098400D961E6E72CD902205CF3012030D902209A
:1009940010B582B01000094901AA19F079F80400D1
:1009A400012803D00024200002B010BD0199044B9B
:1009B400044819600CF084FEF5E7C04678F3012082
:1009C400E0DC022090F3012010B582B010000A4947
:1009D40001AA19F05DF80400012803D000242000C6
:1009E40002B010BD054B019A05481A60054B196801
:1009F4000CF066FEF3E7C046B0F30120E0DC022011
:100A0400C4F30120C8DA022010B5094904000948DA
:100A140008F062F8802301200021DB00E31803C3FF
:100A2400FE2301229B00E25000221033E25010BD4D
:100A340078C10220E0F30120802300210022DB00A2
:100A4400C31810B506C381230022DB00C250103B3B
:100A54000132C250014807F009FD10BDF8AE022072
:100A6400F0B5D6464F464646C0B5174882B00CF09E
:100A7400A5FD164B00259946154B164C9846164B6A
:100A8400164F9A4626683900300019F0FDF90028FF
:100A94000CD022694346002A00D053462200183263
:100AA40000922900320048460CF00AFE0135B834A1
:100AB4001E2DE7D10A200CF037FD02B0E0BCBA4687
:100AC400B146A846F0BDC046F8F3012008F4012061
:100AD400F0F301205C980220E8F3012038F20120B1
:100AE40070B50A200CF020FD094C0A4E2500F9359A
:100AF400FF35626813782A2B03D0300021780CF07C
:100B0400DFFD0C34AC42F4D103480CF0D9FD70BDC8
:100B14003837022020F401202CF40120F0B5DE4601
:100B240057464E464546E0B5DDB0802200211CA85C
:100B34000AF0A2FE802200213CA80AF09DFE2D4866
:100B44000CF03CFD2C4B01932C4B9A462C4B9B46B2
:100B5400FA2080000CF09CFC023044D1019B03AFCE
:100B64001B6800261B011B09984600233B700133B8
:100B740099463CAD1CAC18E02368002B07DD013B13
:100B84002360002B03D12A68002A00D02B60380090
:100B940019F0C6F90222514638180AF073FE0435DA
:100BA4005CAB01360434AB42D2D04B464246B34030
:100BB4001A42E1D0380019F0B3F902225946381824
:100BC4000AF060FE2368132BE9DC05332360072B4E
:100BD400E5DD2B68002BE2D14B4631002B60094840
:100BE4000CF06EFDDBE75DB0F0BCBB46B246A94637
:100BF400A046F0BD48F401201CDE0220DCF50120F3
:100C04004815022058F4012070B527480CF058FD0F
:100C1400264D274C3DE0D023012202211B069A6178
:100C240099610231996180000431996141598A4086
:100C34005A61D0231B0659685B68C906C90F9B0615
:100C440001D502231943D0231B065B685B0601D53B
:100C540004231943D0231B065B681B0601D5082314
:100C64001943D0231B065B68DB0501D51023194308
:100C7400D0231B065B689B0501D520231943D02391
:100C84001B065B685B0501D54023194320000CF06B
:100C940017FDFA2080000CF0FBFB831CC9D0303810
:100CA4000328B8D970BDC04660F401208C1F02200F
:100CB40034F201200021002010B509F0E5FCC04603
:100CC400100010B50722084919F01AF8002300286B
:100CD40001D0180010BD0122044B05481A600CF025
:100CE400EFFC0123F5E7C0466CF401202CD9022067
:100CF40074F401207047C04608B4F0B5C64600B588
:100D0400E7B06DAB20CB804614000193062A07DDC3
:100D1400110028480CF0D4FC27480CF04FFCFEE7E7
:100D2400C8212A00490002A80CF076F902A819F09B
:100D3400F7F8102832D8013C0122204920480CF051
:100D4400BFFCE3001B195B001C191E4B2A00E418AE
:100D54001021019B20000CF05FF9200019F0E0F84D
:100D64000F26361A002E0DDD0025174F02E0200055
:100D740019F0D6F802223900201801350AF082FD54
:100D8400AE42F4D1FE23012241469B00CA5067B013
:100D940080BCB846F0BC08BC01B0184729000B4819
:100DA4000CF08EFC02A90A480CF08AFC02480CF0F4
:100DB40005FCC0E788F40120A0F40120541D0220A2
:100DC400CCF4012070D00220DCF50120ACF4012029
:100DD400B8F401208222D2008358002B01DD013BAC
:100DE4008350FE2301229B00C2507047F0B5C646D3
:100DF40000B5254886B00CF063FC0023234C244F37
:100E04002360244B9846FA2080000CF041FB831C9D
:100E140037D03928F7DC2F2809DC1B28F3D81E4BE0
:100E24000341DB07EFD406B080BCB846F0BD2268AE
:100E3400303893009B185B001B1839004046236030
:100E44000CF03EFC1548164B06681B687042704156
:100E54005A4253412025134A4042216812685B429A
:100E6400A8434130AB4341330290019200920E48B3
:100E74000A000CF025FCFA2080000CF009FB831C0E
:100E8400C7D10CF0F1FABEE7E4F4012018D902202E
:100E9400BCDD022010F50120FFDBFFF708CF0220A4
:100EA4000CCF022004CF022028F50120F0B5C6465D
:100EB400D422002300B5920082B0835004328350C0
:100EC400DB23FA2604009B00C5580433C2581C4F88
:100ED400B6009046EA053B688159D20F19480CF0D8
:100EE400EFFBA359002B20D1DB239B00E358DB0548
:100EF4001BD443465A4253412022134E5B42934330
:100F040030002A00114941330CF05EF8012201211E
:100F140020000F4B0096FFF7EFFEFE2301229B00FB
:100F2400E25002B080BCB846F0BD3B68002BE0D173
:100F3400084B054E1A6832601B793371E6E7C046E8
:100F4400C8DA022074F50120D4D90220B4F50120B6
:100F5400BCF50120ECFC01202022F0B53B4B83B012
:100F6400C254D422002301219200835004328350BE
:100F740030328150A022D721120689004250043118
:100F8400425004314250EA229200040082180120A7
:100F94004042C11703C2EC22012192004942A150F0
:100FA400383AA350083AA350DB23FA279B00E658AB
:100FB400274DBF00F2052B68E1592648D20F0CF0EB
:100FC4007FFBE359002B37D1DB239B00E358DB0580
:100FD40032D4214D20233200280020490BF0F4FFA5
:100FE40020000095012201211D4BFFF785FE200002
:100FF400022201211B4BFFF77FFE1B4D20002B001B
:1010040003220121FFF778FE2B0020000422012196
:10101400FFF772FE2B00200005220121FFF76CFE72
:101024002B00062201212000FFF766FEFE23012289
:101034009B00E25003B0F0BD2B68002BC9D10B4BD1
:10104400054D1A682A601B792B71C9E70C0400004E
:10105400C8DA022074F50120D4D90220B4F50120A5
:10106400CCF50120E0F50120F0F50120ECFC012095
:10107400F0B54F464646D646D422C0B5DC21DB2621
:101084000023FA270400920085588900B60084B032
:1010940085514350835004328350BF002C4BC159B7
:1010A400EA052C489846D20F1B6881460CF008FBD1
:1010B400E359002B3ED1A359DB053BD4264E2749E7
:1010C40020232A0030008A460BF07EFF244F2000A4
:1010D4003B00012201210096FFF70EFEDB239B005B
:1010E400E258FA210433E558434603928900D205B5
:1010F4001B6861584846D20F0CF0E2FA6B425D411E
:1011040020226B4293435146039A300041330BF043
:101114005BFF3B000122012120000096FFF7ECFD5C
:10112400FE2301229B00E25004B0E0BCBA46B14663
:10113400A846F0BD43461B68002BBFD1094B064EA1
:101144001A6832601B793371044B9A46BEE7C04675
:10115400C8DA022074F50120D4D90220B4F50120A4
:10116400BCF50120ECFC0120F0B5DE464E464546B8
:1011740057462022E0B5554B83B0C254D4220023F5
:1011840092008350DB2604328350DC23FA270400C8
:10119400B60082599B00C558BF004D4BC1599346B8
:1011A4004C48D2059846D20F1B6881460CF088FA49
:1011B400E359002B00D07BE0A359DB0500D577E091
:1011C4006B425D412022444E6B42934343495A464D
:1011D400300041338A460BF0F7FE20000122012142
:1011E4003F4B0096FFF788FDE12200239200A350B5
:1011F4005C32A350A023843A1B06A3500432A350AC
:101204000432A350DB239B00E758FA210433E5584A
:101214004346FA0589001B6861584846D20F0CF012
:101224004FFA6B425D4120226B42934351463A0090
:10123400300041330BF0C8FE200001220121294B6C
:101244000096FFF759FD284D20002B0002220121B2
:10125400FFF752FD2B00200003220121FFF74CFD74
:101264002B00200004220121FFF746FD2B00200063
:1012740005220121FFF740FD2B0020000622012159
:10128400FFF73AFDEA2301204042C1179B00E3180F
:1012940003C30122EC2352429B00E2504833023242
:1012A400E25003B0F0BCBB46B246A946A046F0BD2E
:1012B40043461B68002B00D082E70C4B064E1A688D
:1012C40032601B793371054B9A4686E70C040000A3
:1012D400C8DA022074F50120D4D90220B4F5012023
:1012E400BCF50120CCF50120F0F50120ECFC012037
:1012F4000FB400B5B5B036AB04CBC82101A8009338
:101304000BF08AFE35B008BC04B018470FB400B522
:10131400B5B036AB04CBC82101A800930BF07CFE1A
:1013240001A903480CF0CCF935B008BC04B0184747
:1013340008F601200FB470B5AAB02EAB04CBA021DF
:1013440001A800930BF068FE01A919480CF0B8F944
:10135400184D9E24280018F0E3FD241A060001A865
:1013640018F0DEFD32000300210013480CF0A8F948
:10137400631C15D0280018F0D3FD02220F49281849
:101384000AF080FA01A92200280018F085FC29003F
:101394000B480CF095F92AB070BC08BC04B018478F
:1013A40021232200290007482B700CF089F9F2E769
:1013B40020F6012000DD022034F60120DCF50120B6
:1013C4006CF601205CF6012010B50020D02407F053
:1013D40089FD012324066362012007F083FD0223B3
:1013E4000220636207F07EFD04230320636207F09A
:1013F40079FD08230420636207F074FD10230122A1
:10140400A3620021042007F05BFD052007F06AFDBC
:1014140020230122A3620021052007F051FD0620AC
:1014240007F060FD40230122A3620021062007F09B
:1014340047FD072007F056FD80230122A362002107
:10144400072007F03DFD082007F04CFD80235B00DA
:10145400A36201220021082007F032FD092007F0D1
:1014640041FD80239B00A36201220021092007F093
:1014740027FD0A2007F036FD8023DB00012200212E
:101484000A20A36207F01CFD10BDC04610B5152943
:101494000FD018291CD0162910D0172922D00729BB
:1014A4001BD90B00083B012B0DD91148FFF720FF76
:1014B40003E0DB2300219B00C05810BDD6239B0012
:1014C4000021C058F9E76031C900411803C9F4E7A5
:1014D400D4239B000021C058EFE7C831890040584D
:1014E4000021EAE7E0239B00C058C117E5E7C046A6
:1014F4008CF60120F0B5DE4657464E464546E0B52B
:1015040099B01693704B8B460B93704B0021139339
:101514006F4B129014936F4B002017930F23159267
:10152400002400229A460C900D912500203D74D48D
:101534005346AB4099465346A340129898464946B1
:1015440018405B460B40002D00DA8FE01900E9409B
:101554000491E34005934346494615981840169B69
:101564000B40002D00DA77E01900E9400691E340D2
:10157400049E059F079300230698079936184F4148
:10158400099308920899099A761857410698079979
:10159400049A059B00900191029603970B99139866
:1015A4000CF08EF8434602934B4603935346A340F4
:1015B40058461299DA1702400B40009301925B4699
:1015C4000A0014980CF07CF80A225242D31792199C
:1015D4007B41002B27D1092A25D800230622B618DF
:1015E4005F4153461E40002D56DB3300AB40119340
:1015F400A6400C9A0D9B10961098119912184B4105
:1016040004340B9917980C920D930CF059F8402C54
:1016140048D025000122203D8AD5202351461B1B9A
:10162400D940894687E7002D2ADB3300AB400F936E
:101634003300A3400E930E980F990C9A0D9B121829
:101644004B4104340B9917980C920D930CF038F815
:10165400402C27D0002268E720211E00E040091B0F
:101664008E408446B4446146069180E720211E00E2
:10167400E040091B8E408446B4446146049168E707
:10168400202332001B1BDA4013003A00A240944688
:101694009C4463460F93CBE7202332001B1BDA40A4
:1016A4001192A5E70C9D0D9E34040B992A00230C7E
:1016B40009480CF005F82800210C19B0F0BCBB4611
:1016C400B246A946A046F0BD4C1F02206CF701208B
:1016D40094F701203CF70120BCF70120F0B5DE4669
:1016E40057464E464546E0B589B00790CC480C00B5
:1016F40016000BF0E5FFCB4B22009946CA4B494636
:101704009A46270F330050460BF0DAFF3B000A3BA2
:10171400350F012B00D90A272B000A3B012B00D9D6
:101724000A252A003900C14824010BF0C9FF3601FB
:101734002309984636090595B34200D90597320026
:101744004146BB48059B0BF0BBFF0B2F00D10FE1BB
:101754000A2D00D11FE1B74D28000BF0B1FFB64BA5
:101764009E1B33004946424650460BF0A9FF280011
:101774000BF0A6FF00239946B04B00210393B04B16
:1017840000249A460F239B464B46B1461E00AD4D9E
:101794005B464846A34042461A400340E340E240C9
:1017A400D7187F180398290000970BF089FF3B0096
:1017B4000A3B092B0ED85B4606371F40A740F61993
:1017C40032002900504604340BF07AFF202C0DD04F
:1017D4000121DDE7A740F619320029005046043400
:1017E4000BF06EFF202C01D00021D1E7964B36027E
:1017F400360A29003200180007930BF061FF934B5F
:101804003100180006930BF05BFF914B00279846BC
:101814000F2399468F4B9B462B004546984602E082
:101824000437202F14D04C46BC403440FC402800E0
:1018340021000A3C0BF044FF052CF1D80623BB40E1
:10184400F6183100584604370BF03AFF202FEAD13E
:10185400434631000698A8461D000BF031FF3100C5
:101864007D480BF02DFFF0231B051E4200D18AE0BA
:101874007A4B00211E400F23B346002700269946C9
:101884004A465B46BA401A407B427B41FA40FB40E1
:10189400D41864180398290000940BF011FF230056
:1018A4000A3B092B0ED84B4606341C40BC40361963
:1018B40032002900504604370BF002FF202F0DD0D0
:1018C4000121DDE7BC4036193200290050460437B7
:1018D4000BF0F6FE202F01D00021D1E73602360AA4
:1018E4002900320007980BF0EBFE310006980BF04C
:1018F400E7FE0F239946574B00279B462B0045468E
:10190400984602E00437202F14D04C46BC403440A3
:10191400FC40280021000A3C0BF0D2FE052CF1D833
:101924000623BB40F6183100584604370BF0C8FEB6
:10193400202FEAD1434631000698A8461D000BF03B
:10194400BFFE059B0B2B00D1DDE0059B36013A4A17
:1019540036091C07344321004148121B0BF0B0FE2A
:10196400200009B0F0BCBB46B246A946A046F0BD73
:101974000B2D10D02F4D28000BF0A2FE42462E4B0B
:101984009B1A9846EDE637480BF09AFE310036482C
:10199400FFF7AEFC6CE735480BF092FE002304938E
:1019A400264BB1460393264B00219A460F2300266B
:1019B4009B46244D5B464846B34042461A4003408A
:1019C400F340F240D41864180398290000940BF0F3
:1019D40077FE23000A3B092B12D85B4606341C40D1
:1019E400049BB4409C46A444634629001A00504614
:1019F400043604930BF064FE202E39D00121D9E77C
:101A0400049BB4409C46A444634629001A005046F3
:101A1400043604930BF054FE202E29D00021C9E78C
:101A2400D4F701203C1F0220F8F701200CF8012014
:101A340020F8012048F801209999990020F7012005
:101A44003CF70120601F022058F70120A8F601206E
:101A5400B4F60120C4F6012070F80120FFFFFFF066
:101A64009CF8012078F801208CF801205CF8012012
:101A7400049B29001C02240A22005D480BF020FE6E
:101A84005C4B2100180003930BF01AFE5A4B210003
:101A9400180006930BF014FE584B002698460F23AB
:101AA4009946093B9B46564B9A464346B8461F0007
:101AB40002E00436202E14D04D46B5402540F540B2
:101AC400380029000A3D0BF0FBFD052DF1D85B46DB
:101AD400B340E4182100504604360BF0F1FD202EEB
:101AE400EAD1210006980BF0EBFD210003980BF0DE
:101AF400E7FDF0231B0547461C4269D12401240954
:101B04003F073C432CE73F4B00219B1B9B460F2385
:101B14000026002799464A465B46BA401A407B4253
:101B24007B41FA40FB40D4186418039829000094C0
:101B34000BF0C6FD23000A3B092B0ED84B46063496
:101B44001C40BC40361932002900504604370BF0C3
:101B5400B7FD202F0DD00121DDE7BC40361932003E
:101B64002900504604370BF0ABFD202F01D0002193
:101B7400D1E73602360A2900320007980BF0A0FD9F
:101B8400310006980BF09CFD06239A461C4B002559
:101B94000F27994602E00435202D14D03C00AC40B8
:101BA4003440EC40404621000A3C0BF089FD052CF2
:101BB400F1D85346AB40F6183100484604350BF0D3
:101BC4007FFD202DEAD1310006980BF079FDBCE6AB
:101BD4000D480BF075FD21000C48FFF789FBF82236
:101BE4000123079992008B50043A8B5086E7C04634
:101BF40058F7012070F80120A8F60120B4F601205E
:101C0400C4F601209999990078F801208CF80120F4
:101C1400F0B5DE46454657464E469046E0B50400CC
:101C240099B0D4480D00994693460BF049FD4346BC
:101C340000934B46D049D148019322002B001091C8
:101C440011900BF03DFD2B0F9A464B461B0F984607
:101C540053460A3B012B01D90A239A4643460A3BC1
:101C6400012B01D90A23984642462D015146C44806
:101C74000BF026FD2B0909934B4608941B011D0903
:101C84005C46089A099BAB4200D90EE100D109E1F8
:101C940043460B93029300940195089A099BB94813
:101CA4000BF00EFD53460B2B00D101E143460A2BEA
:101CB40000D116E1B4480B990BF002FDB34AB44BC2
:101CC400121BAB4114001D00089A099B0094019556
:101CD400109911980BF0F4FCAE480BF0F1FC089845
:101CE400099922002B00FFF705FC08900991AA48E6
:101CF400AA49089A099B0C9110900BF0E1FCA84B9F
:101D0400002498460F239A46A64BA146089C099D99
:101D14009B4615E01A00CA4016004A46D340404686
:101D240032001F000BF0CCFC0A225242D317921946
:101D34007B41002B17D0042399444B46402B28D0D9
:101D44004B4652469A404946D3172B4022402039ED
:101D5400E0D548462021091A180088400100484669
:101D6400C2408E18D9E7052AE5D84A46063393407F
:101D74000493DB170593049A059BA4185D41584608
:101D84002B0022000BF09CFC042399444B46402B6F
:101D9400D6D1854822002B000894099504900BF0B5
:101DA4008FFC2B00220081480BF08AFCF0231B03DC
:101DB4002B4200D18CE0089C099D7D49012200231F
:101DC40020002940FFF796FB0B00020006000F00DD
:101DD40010980C990BF074FC0F2300249A46714B55
:101DE400A1469B4615E01A00CA4014004A46D34057
:101DF400404622001D000BF063FC0A225242D31716
:101E040012196B41002B17D0042399444B46402BE5
:101E140028D04B4652469A404946D3173B4032405D
:101E24002039E0D548462021091A180088400100CD
:101E34004846C2408C18D9E7052AE5D84A460633F5
:101E440093400693DB170793069A079BB6185F41E6
:101E540058463B0032000BF033FC042399444B46B4
:101E6400402BD6D13B00320004980BF029FC0B9B8D
:101E74000B2B00D1DCE00B9A3B011B0915071D431A
:101E84004C4B32009B1B00934B482B0034000BF04F
:101E940017FC2000290019B0F0BCBB46B246A94685
:101EA400A046F0BD5A4500D8F2E653460B93F1E63E
:101EB40043460B2B15D00B9933480BF001FC0898C3
:101EC4000999324A324B121A8B4108920993FBE664
:101ED4003A480BF0F5FB089A099B3948FFF708FAD2
:101EE40069E738480BF0ECFB0898099922002B00AD
:101EF400FFF700FB0D00040000262C4F02000B002E
:101F040038000BF0DDFB2B002200244922480BF0A3
:101F1400D7FB234BB1469846224B04979B4615E0CA
:101F24001A00CA4016004A46D340404632001F00F9
:101F34000BF0C6FB0A225242D31792197B41002BA5
:101F440042D0042399444B46402B53D04B460F2296
:101F54009A404946D3172B4022402039E0D54846C1
:101F64002021091A1800884001004846C2408E18F2
:101F7400D9E7C046D4F701202C1F0220B0F8012075
:101F84000CF80120CCF8012008F9012099999999BD
:101F94009999000048F80120D4F60120741F02200A
:101FA400B4F60120E8F60120FCF60120FCF801203B
:101FB400FFFF00F09999990040F9012078F8012079
:101FC4008CF801205CF80120052ABAD84A46063369
:101FD40093400C93DB170D930C9A0D9BA4185D4151
:101FE40058462B0022000BF06BFB042399444B460C
:101FF400402BABD1049F22002B003D480BF060FB2B
:102004002B00220038000BF05BFBF0231B032B4258
:1020140005D153462D012D091B071D4339E73548CA
:102024000BF04EFB22002B003348FFF761F9F0E779
:1020340032480BF045FB324832490122801BB9413A
:102044000023FFF757FA0B00020006000F00109858
:102054000C990BF035FB0F2300249A462A4BA1461A
:102064009B4615E01A00CA4014004A46D340404635
:1020740022001D000BF024FB0A225242D31712192E
:102084006B41002B17D0042399444B46402B28D096
:102094004B4652469A404946D3173B40324020397A
:1020A400E0D548462021091A180088400100484616
:1020B400C2408C18D9E7052AE5D84A46063393402E
:1020C4000E93DB170F930E9A0F9BB6185F41584679
:1020D4003B0032000BF0F4FA042399444B46402BA6
:1020E400D6D132003B0004980BF0EAFAC3E6C046AE
:1020F400FCF6012078F801208CF8012028F9012051
:102104009999999999990000E8F60120F0B5DE466D
:1021140057464E464546E0B534488DB00BF04EFA6E
:102124009C239B46324B334C9A46334BA3449946EB
:10213400324B9846324B0993256866682900320071
:102144005046A768FFF7CAFA42460300874200D107
:10215400099A009229003200484601970C340BF08A
:10216400AFFA5C45E8D127480BF028FA264B98468D
:102174009C235B0043449B46244B09931F4B0A93C7
:102184001F4B0B9343461C685D689E68DF681B69A0
:102194003200994643465B6920009A4629003B0079
:1021A400FFF736FD81451CD00A9B4A4606925246EB
:1021B400049307922B00029022000096019709983D
:1021C40003910BF07DFA18239844D845DAD10A20FC
:1021D4000BF0AAF90DB0F0BCBB46B246A946A04626
:1021E400F0BD8A45E0D10B9BDFE7C04668F90120CA
:1021F40060BD0220F09102207CF9012060F90120E9
:1022040058F90120A0F90120B8900220B4F9012066
:1022140030B50C018FB014492209050013480BF0A6
:102224004FFA1349220901A80AF0CEFE6A46114961
:1022340001A817F02DFC00990F480BF041FA009902
:1022440000290CDBC72902DDC723C72100930B48F3
:102254000BF036FA009B9B00E8580FB030BD00230A
:1022640000210093F3E7C0461C1F0220E4F901207B
:10227400C0F30120A8130220F0F90120FCF9012089
:10228400F8B5334F0D0006001400130031480A005E
:1022940039000BF015FA072D06D8072C26D9230090
:1022A400083B012B2CD9F8BD2B00083B012BFAD895
:1022B4002300083B012B3DD9072CF4D826480BF00A
:1022C400FFF92B00C834A40032596033110FDB002E
:1022D4001202F3180907120A1A605960C835A900D6
:1022E40072581E4839000BF0EBF9DCE7C8341C487F
:1022F400A4000BF0E5F9C8353359A9007350D2E7AF
:102304006034E400341914480BF0DAF92368626885
:102314001901120F090912070A4312491B020A4044
:102324001B0AC835A9001A4372500C4839000BF037
:10233400C7F9B8E70C480BF0C3F92B0060346033DD
:10234400E400DB003419F31803CC03C3C6E7C0462A
:10235400001F022008FA01205CFA012048FA01203B
:102364001CFA0120FFFFFFF02CFA0120F0B5C6464D
:102374000C0000B5244982B0070015001E0000932C
:1023840022481300220088460BF09AF9072C28D91A
:102394002300083B012B03D902B080BCB846F0BD32
:1023A4001B480BF08DF9A022F3171B011B09120621
:1023B4001A4313006035ED007D19320003CD1D0072
:1023C400FFF726FC22006032D300C834FB18A400B7
:1023D40003C33A594146009601950E480BF070F933
:1023E400DAE70D480BF06CF9A0223601C83536093E
:1023F4001206AD00380079593243FFF76FF9C8343B
:10240400A4003851C8E7C046D81E022078FA01203B
:10241400A8FA0120BCFA012094FA012070B5050045
:102424000C001000072918D8C8339B00EA58130F72
:102434000A2B2CD00B2B04D112011309A022120653
:102444001A43A02100010009090601432800FFF7EF
:1024540045F9C834A400285170BD0A00083A012A7D
:10246400FAD86033DB00EB180CCB190F0A2914D00F
:102474000B2904D11B011909A0231B060B43C11707
:10248400FFF7C6FB6034E4002D1903C5E4E712012D
:102494001309B02212061A43D3E71B011909B0230A
:1024A4001B060B43C117FFF7B3FB6034E4002D197F
:1024B40003C5D1E7F0B5C6460C0000B507291ED800
:1024C400072A05D92F48FEF713FF80BCB846F0BD94
:1024D400072B36D9190008390129F3D86033DB00FA
:1024E400C3181968050058680B01000F1B09000781
:1024F4001843254B09021840090A084325E0083906
:102504000129DFD8110008390129DBD8190008395D
:10251400012925D9072BD5D8C8339B00C15860326F
:102524000B0F0902090A8C46D2008218050003CA5F
:102534001B076246FFF76CFB6034E300EB1803C330
:10254400C3E7C8339B000500C058C8329300E9585C
:1025540002002800FFF7C2F8C834A4002851B4E7E9
:102564006033DB00C318603260CBD300C3180700AC
:1025740003CB2A003300FFF74BFB6034E300FB1866
:1025840003C3A2E7DCFA0120FFFFFFF0F8B5070060
:102594000C0016001D0007292FD8072A03D94B4821
:1025A400FEF7A6FEF8BD072B55D9083B012BF6D83C
:1025B40047480BF085F83300C8339B00F9582B00CB
:1025C4006033DB00FB180CCB10011B0F00091B0749
:1025D4000343404812020340120A1A431B0F0A2BFA
:1025E40047D112011309B02212061A433800FFF72B
:1025F40075F8C834A4003851D4E70B00083B012B0C
:10260400CDD81300083B012BC9D82B00083B012B64
:1026140037D9072DC3D830480BF052F83300603354
:10262400DB00FB1803CB2B00C8339B00FB581A0FAD
:1026340094461B021A0A654663461B070A2D3BD0C3
:102644000B2D01D1A0231B06FFF7E2FA6034E3004F
:10265400FB1803C3A6E721480BF032F83300C83354
:102664009B00F9582B00C8339B00FA58130F0A2B10
:10267400B7D00B2BBAD112011309A02212061A43A8
:10268400B4E717480BF01CF833006033DB00FB1889
:1026940003CB2B006033DB00FB181A685B6894469D
:1026A4001A0F0A2A0BD00B2A04D11B011A09A023E2
:1026B4001B0613436246C7E7B0231B06C4E71B018E
:1026C4001A09B0231B0613436246BDE7DCFA012056
:1026D40020FB0120FFFFFFF014FB0120FCFA012086
:1026E40008FB0120F0B54F46D6464646C0B5002744
:1026F40096B006AD04002F72002905D116B0E0BCD7
:10270400BA46B146A846F0BDDD239B00C658E04951
:1027140036013209DF480AF0D3FFDF49320909A83C
:102724000AF052FCDD4905AA09A817F0B1F9059988
:10273400DB480AF0C5FF0599002900DA36E1C7290C
:1027440002DDC723C7210593FA26D6480AF0B8FF4D
:10275400059BB6009B00E758A1593A00D2480AF0FD
:10276400AFFFA359002B00D09FE0DB239B00E1586F
:1027740080230A005B0088461A40194200D0C4E056
:10278400E2239B00E358073B022B00D9C8E0DA237D
:102794009B00E1580B0F30332B700F23080E1840A9
:1027A40030306870080D18403030A870080C18409C
:1027B4003030E870080B184030302871080A18408F
:1027C40030306871080918400B403033EB71E12355
:1027D4009B00E3583030A871002B00D047E1B34E82
:1027E4003368002A02D0002B00D10CE1DC21B04870
:1027F4008900D2056758D20F002181460AF060FF94
:10280400FA239B00E358002B00D0F0E0DB239B006D
:10281400E358DB0500D5EAE07B425F4120227B429E
:10282400A44F934338004246A34941330AF0CCFBFA
:10283400012201212000A14B0097FEF75DFADB2362
:102844009B00E2580433E15890468A46FA21D205A7
:102854008900336861584846D20F0AF031FFFA21E3
:1028640089006358002B00D0B7E0DB239B00E358BA
:10287400DB0500D5B1E053465A42534120225B4266
:102884009343380042468C4941330AF09DFB202291
:1028940003928B4A0121A25C20000292894B0222FE
:1028A40001950097FEF728FA28E7E226390FB600CB
:1028B4008548A15189460AF003FFA359073B022B1F
:1028C4002ED8FA239B00E358002B00D108E13020D6
:1028D4000F228446390E11408C44390D1140303199
:1028E4008846390C114030314B46380B3E09894635
:1028F400390A1040114016403A403027BA46303366
:10290400303030313036924426E0684E3268002A46
:10291400CBD0E2229200A258073A022A00D8B5E0AE
:10292400DA239B00E2581033E358002B41D13020C6
:102934000F218446170E0F40130FBC44170D120CC1
:102944000A403032914620220F403037B8462026C4
:1029540092463033103811315C4A67461340424680
:102964003F023B4317045A4A090213404A463B4379
:102974001B0217061B0A3B43069353461A06E12320
:10298400360408439B003043E35810430790002B60
:102994006DD1FA239B00E358002B33D1DB23802233
:1029A4009B00E358520098461A4018E70021059707
:1029B400CAE60F23100B110A160918401A401940D1
:1029C4001E4021339A469244202230309446904649
:1029D400914630313036103BBEE73368002B00D0CF
:1029E40049E73C4B1A683A601B793B714FE73368FF
:1029F400002B00D010E7374B2E4F1A683A601B7932
:102A04003B7115E7294E012201212000324BFEF7CC
:102A140073F9DD239B00E358DB229846DE23FA2773
:102A24009200A21852789B00E358BF00D20799463F
:102A3400E15933681E48D20F0AF042FEE359002BD5
:102A440004D1DB239B00E358DB0502D53368002B5C
:102A54001AD04F467B425F4120227B42154F93435D
:102A640038004246144941330AF0AEFA0FE72022F7
:102A74000292134A0121A25C20000192174B022208
:102A84000095FEF739F939E60A4FAAE71A007EE6FF
:102A94001C1F0220E4F90120C0F30120A813022026
:102AA400F0F90120FCF9012078FB0120C8DA0220AA
:102AB40074F50120D4D90220B4F50120D8FB0120FB
:102AC4000C040000C8FB0120A4FB0120FF00FFFF51
:102AD400FFFF00FFECFC0120FCF50120BCFB012002
:102AE400DB239B00E35880211A00490098460A40E2
:102AF4000B4200D14BE6034E3368002B00D1E6E6CF
:102B04000A0044E6C8DA0220F0B5C646D4220023FF
:102B140000B5920082B0835004328350DB23FA263E
:102B240004009B00C5580433C2581A4FB60090469F
:102B3400EA053B688159D20F17480AF0C1FDA35931
:102B4400002B1CD1DB239B00E358DB0517D4434641
:102B54005A4253412022114E5B42934330002A00D3
:102B64000F4941330AF030FA0122012120000D4BB4
:102B74000096FEF7C1F802B080BCB846F0BD3B68D1
:102B8400002BE4D1084B054E1A6832601B7933716F
:102B9400EAE7C046C8DA022074F50120D4D902203D
:102BA400B4F50120BCF50120ECFC012070B5E12650
:102BB4000400294D8EB02900B60028480AF080FD93
:102BC400A259290026480AF07BFDDB239B00E2582A
:102BD400A359002B07D0D30505D4D4239B00E25876
:102BE4001833E2502DE01201160932001D491E4827
:102BF4000AF066FD32001D4901A80AF0E5F96A46AB
:102C04001B4901A816F044FF00991A480AF058FD20
:102C1400009900291BDBC72902DDC723C7210093C4
:102C2400DA2615480AF04CFD009BB6009B00E358D9
:102C34002900A351DB239B00E25810480AF040FD11
:102C4400A25929000E480AF03BFD0EB070BD0023C6
:102C540000210093E4E7C0463C1E0220E0FB012073
:102C6400E4FB01201C1F0220E4F90120C0F3012031
:102C7400A8130220F0F90120FCF90120F4FB012043
:102C840004FC0120F0B5C646DB23FA2100B5634CF1
:102C94009B00E5580433E658614B9AB06148EA0555
:102CA400890061580393D20F1B6880460AF008FD1F
:102CB40073425E4120225C4F73425C4E9343413326
:102CC4002A00390030000AF07FF9594D3200594981
:102CD40028000AF079F9DD23DB20FA219B00E25871
:102CE40004330492E2588000059222185278039B20
:102CF400D2078900D20F1B68615840460AF0E0FCF5
:102D0400059B20215A4253415B428B434133390096
:102D14003000049A0AF058F93200474906A80AF02C
:102D240053F906A9280016F091FFD423434E9B00C3
:102D3400E2584349002330000AF046F93200414981
:102D440006A80AF041F906A9280016F07FFFDA2345
:102D54009B00E2583C4906A80AF036F906A9280067
:102D640016F074FFF720F523E022800020589B0022
:102D74009200E358A2583549009006A80AF024F9B5
:102D8400280006A916F062FFD7239B00E258531CC3
:102D94003ED02F4ED205D20D30002E490AF014F940
:102DA40032002D4906A80AF00FF9280006A916F0EA
:102DB4004DFFD8239B00E258531C2DD0244ED2053E
:102DC400D20D300023490AF0FFF83200234906A847
:102DD4000AF0FAF8280006A916F038FFD9239B0058
:102DE400E258531C16D01A4CD205D20D20001949B2
:102DF4000AF0EAF822001A4906A80AF0E5F82800C1
:102E040006A916F023FF28001AB080BCB846F0BD0E
:102E1400144AC6E7134AEEE7124AD7E760BD022018
:102E2400C8DA022074F50120B4F50120D4D90220B7
:102E3400DCDA022028FC01203CFC0120A4D9022079
:102E440050FC012058FC01206CFC012084FC012072
:102E540034D9022074090220ACFC0120C0FC0120FA
:102E6400D4FC012024FC0120F8B5DE464E4645463C
:102E740057466B48E0B50AF023FC6A480AF020FC88
:102E8400FFF700FF010068480AF01AFCC823674EE8
:102E94009B00F518664B00249946664B664F9B468B
:102EA400664B98462B684A46591C0ED01A0F1B01D4
:102EB4001B090A2A00D1B0E00B2A00D1A6E05F4822
:102EC4005F4982460AF080F85246210038000134F6
:102ED4000AF0F6FB0435082CE4D1D0239B00F41847
:102EE400584B22689946584B082598466368511CEC
:102EF40010D0494640460AF067F842462900380097
:102F04000AF0DEFB092D0ED0A26808340925636897
:102F1400511CEED1591CECD129003800444A0AF066
:102F2400CFFB092DF0D10A200AF0FEFA47480AF037
:102F3400C7FB47480AF0C4FB464B4748F15C0AF01C
:102F4400BFFBEA239B00F15844480AF0B9FBEB238A
:102F54009B00F15842480AF0B3FBEC239B00F15864
:102F640040480AF0ADFBEE239B00F258043BF158B5
:102F74003D480AF0A5FBF123F022EF219B009200CB
:102F84008900F358B258715838480AF099FBF42371
:102F9400F322F2219B0092008900B258F358715831
:102FA40033480AF08DFBE1239B00F15831480AF0C5
:102FB40087FBF8239B00F1582F480AF081FBDB23A1
:102FC4009B00F61871782D48C907C90F0AF078FBE1
:102FD4000A200AF0A9FA2A480AF072FB29480AF0E2
:102FE4006FFB294B294819680AF06AFB284B2948CA
:102FF40019680AF065FB284B284819680AF060FB39
:10300400F0BCBB46B246A946A046F8BD2D2259469F
:103014004046C24609F0D8FF56E72B22F7E7C046E0
:10302400F4FC0120FCFC0120E0FB012060BD022037
:10303400E8FC012010FD012018FD0120B4D9022074
:1030440004FD012050FC0120A4D9022028FD012008
:1030540034FD01200C04000040FD012058FD012036
:103064006CFD012080FD012094FD0120B8FD0120AC
:10307400D8FD0120F8FD01200CFE012020FE0120D6
:1030840034FE01203CFE0120B0DD022044FE01207C
:10309400A0DD022060FE0120B8DD02207CFE0120BC
:1030A400F0B54E46DE4657464546E0B5CB4E814622
:1030B4003268A1B0002A01D1C94B1A60D021090697
:1030C4004B684968DB06DB0F890601D502210B43F7
:1030D400D02109064968490601D504210B43D021B2
:1030E40009064968090601D508210B43D0210906C0
:1030F4004968C90501D510210B43D0200006416859
:10310400890519D520210B434168490511D4B549D6
:103114000B60B348B44904680C60D1010B430360ED
:10312400032A55D021B0F0BCBB46B246A946A046FE
:10313400F0BD40210B43EAE7406880210500C90047
:103144000D400842F5D1A7490B60002BE1D1A749F6
:103154008A4609680029E3D1A548016801310A2992
:1031640042DD0360A34B9B461B68002BD8D0A24BC7
:1031740005931B680493002B63D0A04BA0491A68E5
:103184000393B82353439F4CCB1822680291996848
:10319400920053581D000493FFF766FE29009A48D5
:1031A4000AF08EFA1E2D00D1CEE01F2D00D1BBE017
:1031B400002D00D1C8E0049D944829000AF080FA4B
:1031C400280004F095FF2368326801332360A7E7E1
:1031D400834B8F4C19688F4D23682960994201D025
:1031E400002903D121609DE7016099E78A480AF02C
:1031F40067FA8A4B29689C461A00002303E00133CE
:1032040008321C2BEED010688142F8D1DE006644EF
:10321400706804F06DFF824B70689C461A1D002391
:1032240003E0013308321C2B73D011688842F8D1B3
:103234006246DB00D1587B480AF042FA29682160D3
:1032440070E7794B180098460AF03AFAB8226B4FA7
:103254006B4C3B6875485343E158029403970AF05A
:103264002FFA40460AF02CFA714B39681D60B823D6
:103274004B43E3185A69C8235B009C464C4603E061
:1032840063510435654502D05359581CF8D1B8230D
:103294004B43029A0025D3185A68664B34009A4669
:1032A400049E2B01D018D35C0B2B1ED00E2B14D0F4
:1032B4000A2B02D186680135F3E72A0050460AF04A
:1032C400FFF95B4600221A60039B029A1968B8232F
:1032D4004B43D3185A680135E3E70123059A136079
:1032E4000022484B1A6022681AE78368C0689C462B
:1032F4003300072E06D9083B012B0CD94E48FDF7A5
:10330400F7FFE1E748466746C8339B00C7500135DD
:10331400C7E74A498FE74F466833DB00FB18674627
:1033240058601F600135BCE7012352461360F52243
:10333400494692008B5023680121013340482360A1
:103344000AF0BEF93268EBE60023524600213D48FC
:1033540013600AF0B5F9B823039F3B483A68534316
:10336400029AD1580AF0ACF91E2308931F3B11941A
:1033740010961C003E00354A2D4D0692344A2968A9
:103384000792049A06980AF09BF92B6831689C46C8
:10339400B8234B43029AD3186246DB6810011A180B
:1033A4001B5C18001438C0B20A2800D9F7E007994A
:1033B400800009588F461A00264804991C000AF018
:1033C4007FF9296801312960DBE7946822482100EC
:1033D4000AF076F914230893F3E7C046E0D80220F4
:1033E400F0D80220F4D80220E8D80220B8DD022068
:1033F400A0DD0220B0DD0220FCDC0220A4DD0220DE
:103404005C980220B4DD022098FE01209001022085
:10341400E4D80220ECD80220180202207C97022073
:1034240018AE022080F60120A4010220D801022057
:10343400A8DD0220F00102202CFB012000F601206F
:10344400A4FE0120D8FE012008FF012028FF01204E
:103454002C1C02206CFF01205CFF0120DE48109E22
:103464000AF0ACF800235A46136052461360013345
:103474002B60039BD94D1A68B8235343029A2968D9
:10348400D2181269002900D044E1D54C002A00D199
:103494009BE1D4480AF014F9039A00271368D2492F
:1034A40001331360B8225343029A2770D05816F0A0
:1034B400EBFC002800D13DE101235A461360059B33
:1034C40032682F601F602BE6119CC848109E0AF0DA
:1034D400F7F82368013323602B6801332B605B46C4
:1034E4001B68002BC5D0C2480AF0EAF8326817E618
:1034F400F5234F469B00FA580833F958BD480AF0A3
:10350400DFF8F7239B00FB58002B00D159E7BA489A
:10351400FDF710FFB82332685343029AD3180022F0
:103524001A614EE7F5234F469B00FA580833F958C1
:10353400B2480AF0C5F8F7239B00FB581F1E00D0C1
:103544003FE7AF48FDF7F6FEB82332685343029ACB
:10355400D3181F6135E7089FAA4A3B00143B9B0020
:10356400D158A9480B920AF0ABF8192F23D0631C49
:103574000AD01E2C00D972E1A44BE340DB0700D42F
:1035840060E1A3480AF09CF81E23089319E79468A5
:10359400A04821000AF094F81923089311E7624621
:1035A4009D48109E0AF08CF800235A4613602B683D
:1035B40001332B605DE723011F09984998483A00BD
:1035C40008910B900AF07CF896493A0013A80C91E4
:1035D40009F0FAFC944B12AA190013A80D9316F0E3
:1035E40057FA924B129918000E930AF069F812993F
:1035F400002900DA9AE0C72902DDC723C721129304
:103604008B4B18000F930AF05BF84A46129B316803
:103614009B00D258B8234B430299CB182968DB6826
:1036240009015B189968914200D18DE03A0008992C
:103634000B980AF045F83A000C9913A809F0C4FC59
:103644000D9912AA13A816F023FA12990E980AF0EB
:1036540037F81299002974DBC72902DDC723C72173
:1036640012930F980AF02CF84A46129B21009B00F3
:10367400D35832689C46B8235343029A6D48D318F2
:103684002A68DB6812019B189A68DB680092019330
:1036940062460AF015F83A0008990B980AF010F8F7
:1036A4003A000C9913A809F08FFC0D9912AA13A8DB
:1036B40016F0EEF912990E980AF002F81299002900
:1036C40000DA7FE0C72902DDC723C72112930F98D0
:1036D40009F0F6FF4A46B827129B21009B00D358F5
:1036E400029A9C46336854487B43D3182A68DB68A3
:1036F40012019B189A68DB68009201936246FDF7F9
:1037040019FE3368029A7B43D31800221A611E23E0
:10371400089356E6002A01D0326801E5029A18336C
:10372400D0182F4916F0F4FB3268F9E40023002185
:10373400129365E75B461860404809F0C1FF3268A0
:10374400EEE4002112918CE7DB689846002B00D050
:103754006CE73A0008990B9809F0B2FF3A000C990B
:1037640013A809F031FC0D9912AA13A816F090F9C8
:1037740012990E9809F0A4FF129900291EDBC7299B
:1037840001DDC72112910F9809F09AFF4A46129B56
:1037940021009B00D35832689C46B8235343029AB5
:1037A4002748D3182A68DB6812019B189A68DB68DB
:1037B40000920193624609F083FFE5E64346002147
:1037C4001293E0E70021129181E7029A1833210055
:1037D400D01816F09DFB5CE6E4000220ACDD02206C
:1037E40000DD02204C01022038F20120D400022026
:1037F40028010220B8FF0120E4FF012084FF0120FA
:10380400ACFF0120ECAD0220F0FF012000001046C7
:103814006000022044FF0120F80002201C1F022047
:10382400E4F90120C0F30120A8130220F0F90120DB
:10383400FCF9012020000220400002206401022043
:1038440000000220DB23152C47D0D423182C44D0AD
:10385400162C41D0172C00D192E0072C5CD9230000
:10386400083B012B00D89CE021005248FDF740FDA5
:10387400B82332680A995343029AD3182A68DB683A
:1038840012019B189A68DB688A4200D184E0210007
:10389400494809F015FFE3B2132B5DD9E3B20B9A43
:1038A400143B9B00D3589846B82721004846FDF79F
:1038B400EDFD3368029A7B43D3182A68DB68120152
:1038C4009B189A68DB680092019302000B003B4846
:1038D4004146FDF72FFD14E7D6234A469B00D358F3
:1038E4001F0000239846B82332685343029AD31822
:1038F4002A68DB6812019B189A68DB680A920993AC
:10390400974245D0099B21002B480A9A09F0D8FE1A
:1039140043460A970993C1E723004A46C8339B00EC
:10392400D3581F0000239846B82332685343029AA1
:10393400D3182A68DB6812019B189A68DB680A921C
:103944000993974211D0099B21001B480A9A09F058
:10395400B7FE43460A970993194814210700194AE8
:10396400E3B209F045FBB8469EE79845EBD1099BC5
:10397400210015480A9A09F0A3FE1E23089320E5A6
:10398400E0234A469B00D3581F00DB179846AAE75A
:10399400099A9045B6D1EAE709998B4200D076E7B7
:1039A400E5E76833DB004B441A685B681700984608
:1039B400BAE7C0468CF60120A4000220B800022019
:1039C400E4DC0220A81302209000022030B5B3B03A
:1039D400050004F021FE164805F048F8002822D01E
:1039E4002900144809F0F0FA2800134914F03CFFA8
:1039F400041E14D0114D03E06946280009F060FE4E
:103A04002200C721684614F0C1FF0028F4D1200029
:103A140014F09EFF04F01EFE012033B030BD2900D7
:103A2400074809F04DFE04F015FE0020F5E7C046F6
:103A3400E0F301204402022070150220FCFF012063
:103A440054020220F0B5C64600B5B2B0040004F03A
:103A5400E3FD214805F00AF8002838D021001F486A
:103A640009F0B2FA20001E4914F0FEFE6D468046AD
:103A7400002828D01B4F4246C721280014F086FF97
:103A8400002816D02B782A2BF5D1174C2600603647
:103A94002A0021003800636898470028EBD10834D5
:103AA400B442F5D14246C721280014F06FFF002824
:103AB400E8D1404614F04CFF04F0CCFD012032B0B4
:103AC40080BCB846F0BD2100084809F0F9FD04F0B7
:103AD400C1FD0020F3E7C046E0F3012044020220C8
:103AE4007015022060BD02203039022054020220E9
:103AF40010B5040021000848FFF7A4FF802300202C
:103B04000021DB00E31803C3FE2301229B00E250E3
:103B140000221033E25010BD78C1022010B50249D2
:103B24000248FFF78FFF10BD60BD0220680202202B
:103B3400F0B5D6464F464646C0B5904C0500A54460
:103B440003A816F0E5F903A98D4809F0B9FD04F0BE
:103B540063FD8C4804F08AFF002800D1D8E00A22D3
:103B640003A908A811F0DCF9002800D0CDE08649AB
:103B740008A813F053FBDB239B00EA58834908A8E9
:103B840013F04CFBDC239B00EA58814908A813F08E
:103B940045FBD4239B00EA587E4908A813F03EFB5A
:103BA400D7239B00EA587C4908A813F037FBD82395
:103BB4009B00EA58794908A813F030FBD9239B00ED
:103BC400EA58774908A813F029FBDA239B00EA583E
:103BD400744908A813F022FBDF239B00EA587249BA
:103BE40008A813F01BFB714B71491A6808A813F05D
:103BF40015FB704B70491A6808A813F00FFBC82313
:103C04009B009946A944A8464E4600246B4F2200C7
:103C1400390008CE08A8013413F000FB082CF6D1B3
:103C2400C823674C9B0021000822EB5808A813F016
:103C3400F5FAC9239B002100EB58092208A813F0C8
:103C4400EDFA604908A813F0E9FA5F4B002407264F
:103C54009A465E4F264266D0A3003900EA5808A867
:103C6400013413F0DBFAC82CF4D1594E2C00310086
:103C740008A813F0D3FA00239134FF3404CD9B1821
:103C8400A542FBD1534DAA68934267D0AA699342D7
:103C940000D171E05049514F0091514A390008A8B0
:103CA40013F0BCFA002304CC9B184C45FBD1AA6842
:103CB400934258D0AA6993425AD047490091494A3D
:103CC400390008A813F0AAFA0023414604C988461B
:103CD4009B184945F9D1AA689A423AD0AA699342F5
:103CE40048D03D49404A009108A8390013F096FA9B
:103CF400310008A813F092FA08A812F09FFA041EE3
:103D04001DD104F0A7FC012005E0384809F0D8FCD7
:103D140004F0A0FC0020A0239B009D44E0BCBA4614
:103D2400B146A846F0BD514608A813F077FAA3009F
:103D34003900EA5808A813F071FA01348AE714F03C
:103D440087FD220001002A4809F0BAFC04F082FC35
:103D5400E0E700221201AD186968C3E700221201EE
:103D6400AA18516897E700221201AA185168A5E71A
:103D74000122F9E70122EDE70122F0E780FDFFFFD0
:103D84008C020220E0F30120A4020220D0020220CF
:103D9400E4020220F80202200C030220280302207D
:103DA40044030220600302207C030220E0DC0220A2
:103DB40094030220C8DA0220B0030220C8030220C0
:103DC400D4030220E4030220F0030220F4030220BF
:103DD4001CF6012004AF02209C120220740202206F
:103DE400FC0302200804022014040220980202208A
:103DF4002004022030B505000C4C85B022000C4B89
:103E04000C490D4804F0C8FE0C4B21001A686846A2
:103E1400013209F0D9F869462800FFF789FE69469E
:103E2400074809F04DFC05B030BDC04644040220EB
:103E34003804022054040220E0F3012008D90220AF
:103E44006004022010B5094804F00EFC002808D0D4
:103E5400074C08482100FFF76BFE2000FFF7B6FD72
:103E640010BD0549054809F02BFCF1E7E0F30120FA
:103E74006802022060BD0220FCD9022078040220DE
:103E8400002370B5204D82B00C002B700B00072965
:103E940016D9083B012B02D9280002B070BDD033DB
:103EA4009B00C258194800230600194909F08CF8F0
:103EB400230010212800174A009609F099F8EBE72F
:103EC400C8339B00C3585A1C1BD01A0F1B011B0973
:103ED4000A2A0DD00B2A12D00F481049060009F007
:103EE40073F83300220028000A4909F06DF8D3E77B
:103EF4002B2209480A49060009F066F8F1E72D2249
:103F0400F7E7084BEEE7C04684D90220A4D9022083
:103F140050FC012098040220B4D9022004FD0120A1
:103F240010FD0120E8FC0120F0B5C646564E010004
:103F3400804600B5300015F0EBFF3378002B5CD0E1
:103F44002B2B01D10B3B33707378002B55D02B2BCB
:103F540001D10B3B7370B378002B4ED02B2B00D1C7
:103F64007BE0F378002B48D02B2B00D178E0337919
:103F7400002B42D02B2B00D175E07379002B3CD061
:103F84002B2B01D10B3B7371B379002B35D02B2B29
:103F940001D10B3BB371F379002B2ED02B2B01D124
:103FA4000B3BF371337A002B27D02B2B01D10B3B26
:103FB4003372737A002B20D02B2B01D10B3B7372FD
:103FC400B37A002B19D02B2B54D0F37A002B14D0B6
:103FD4002B2B52D0337B002B0FD02B2B50D0737B49
:103FE400002B0AD02B2B01D10B3B7373B37B002B1B
:103FF40003D02B2B01D10B3BB373340000252027B6
:10400400300015F08DFF854206D223782D2B0FD07A
:10401400202B0DD0302B0ED0431EF25C2E2A16D04E
:104024003100404615F074FF80BCB846F0BD2770DF
:1040340001350134E4E76378302BF8D020233000D5
:10404400735515F06DFF431EF25C2E2AE8D1325CE5
:10405400002AE5D12032F254E2E70B3BB37080E74B
:104064000B3BF37083E70B3B33717379002B00D068
:1040740086E7C2E70B3BB372A7E70B3BF372A9E7F2
:104084000B3B3373ABE7C046D0DC0220F8B500230A
:10409400234C2380030F0A2B3FD00B2B2CD12D272D
:1040A400204D03003A0020490601280008F08CFF47
:1040B4003A001E49200008F087FF0622360F921BA3
:1040C400E91C200015F0E8FD200015F029FF02226C
:1040D4001749201807F0D6FBA91B3200093120002C
:1040E40015F0DAFD2100280015F012FF114B1B68B2
:1040F400002B0ED12800F8BD2027092BD0D8094D5C
:1041040002000D49280008F05FFF0A4B1B68002BD2
:10411400F0D02800FFF708FFECE72B27C0E7C046E4
:10412400E4D90220C4D90220A0040220B8F5012059
:104134008C010220E0DC022050F70120F0B5C646D5
:104144003B4B002498461D0000B53A4F0DE02E6805
:104154003000FFF79BFF21000300320038000134D8
:1041640009F0AEFAC82C0AD004350521200006F067
:10417400CFFB0029EBD10A2009F0D6F9E7E7444642
:104184000A2009F0D1F9434600229134FF3402CBCE
:104194005218A342FBD1284EB3689A4233D0B36974
:1041A4009A4243D0254B264FC8253800254909F0AB
:1041B40087FA0022AD00454408CCD218AC42FBD1AA
:1041C400B3689A4224D0B3699A422BD01B4B38006F
:1041D4001D4909F075FA0022414608C98846D218DB
:1041E400A942F9D1B368934217D0B3699A421BD05C
:1041F400124B3800154909F063FA0A2009F094F9C2
:1042040080BCB846F0BD00231B01F3185B68CAE705
:1042140000231B01F3185B68D9E700231B01F61880
:104224007368E6E70123F4E70123F7E70123EBE7EB
:1042340060BD0220A804022004AF02209C120220C8
:104244002C020220BC0402200804022014040220D0
:10425400F0B5C646002700B50C011B4D8EB02209EF
:1042640080460E0019481A492F7009F029FA194995
:10427400220901A808F0A8FE6A46174901A815F00A
:1042840007FC0099154809F01BFA0099002918DB6E
:10429400C72902DDC723C7210093114809F010FA8A
:1042A4004246009B9B00D058FFF7F0FE320003000B
:1042B4000C49280008F088FE28000EB080BCB846DF
:1042C400F0BD00210097E8E764D90220E4F9012059
:1042D4001C1F0220C0F30120A8130220F0F90120C2
:1042E400FCF90120C8040220F0B54546DE465746D5
:1042F4004E46DB23E0B59B00C35804000D0095B087
:10430400DB0509D4DB239B00E55015B0F0BCBB46AC
:10431400B246A946A046F0BD6C4809F0D1F9F02395
:104324002A001B011A4017001D4204D0FA23002260
:104334009B00E250E6E7664809F0C2F9FA2301223D
:104344009B00E250634B1B68002BDBD0624809F0F2
:10435400B7F9F72301229B00E25001212000FEF768
:10436400C1F9F2239B00E3585C4905931B011E0924
:104374005B4832008846814609F0A2F9594B320065
:10438400190007A89A4608F01FFE574B06AA190001
:1043940007A89B4615F07CFB544B06991800029322
:1043A40009F08EF90699002900DA8CE0C72902DDAC
:1043B400C723C72106934E4B1800039309F080F9D5
:1043C400069B9B00E058FFF761FE059A494B0121CB
:1043D40001900092200002220493FCF78DFCF32349
:1043E4009B00E358414605931B011E0932004846D1
:1043F40009F066F93200514607A808F0E5FD594670
:1044040006AA07A815F044FB0699029809F058F982
:104414000699002953DBC72902DDC723C721069368
:10442400039809F04DF9069B9B00E058FFF72EFE18
:10443400059B03220121019000932000049BFCF7BB
:104444005BFCF4239B00E358414605931B011E09C2
:104454003200484609F034F93200514607A808F002
:10446400B3FD594606AA07A815F012FB069902984F
:1044740009F026F9069B002B1EDB1F00C72B02DD6B
:10448400C7231F0006933900039809F019F9069B06
:104494009B00E058FFF7FAFD059B01900093200074
:1044A400049B04220121FCF727FC052201212000A2
:1044B400114BFCF721FC25E700230693E3E70023D7
:1044C40000210693ACE70021069774E7D00402208C
:1044D400F8040220C8DA02201C0502201C1F022056
:1044E400E4F90120C0F30120A8130220F0F901200F
:1044F400FCF9012038050220F0F50120F0B5DE4674
:1045040057464E464546E0B5934F04008146390070
:10451400924885B009F0D4F8E1239B00E358002BBE
:1045240004D0DB239B00E358DB0546D5DA234A4657
:104534009B00D3581B0F062B46D9073B022B35D8BB
:10454400DC239B00D358002B00D0C3E0DB234A4676
:1045540000269B00D35800250293814B34009A46D1
:10456400804BB8469B46804F0F22A240029B3900E5
:104574001A4063426341E240E340D0188619009632
:10458400504609F09DF833000A3B092B25D80F2229
:10459400B31D1340A340ED182A00390058460434D3
:1045A40009F08EF8202C24D00126DDE76F48FCF7B3
:1045B4009FFE39006E4809F083F805B0F0BCBB4695
:1045C400B246A946A046F0BDDC239B00D258002A7F
:1045D40051D101224946CA50EBE7A640AD192A0041
:1045E40039005846043409F06BF8202C01D0002619
:1045F400BAE73C0047462D022D0A2A0021005D48F7
:1046040009F05EF85C4B290018009A4609F058F846
:104614005A4BBB4600269846594F02E00436202EDA
:1046240014D00F24B4402C40F440380021000A3C3C
:1046340009F046F8052CF1D80623B340ED182900FB
:104644004046043609F03CF8202EEAD129005046B1
:1046540009F036F85F4629004846FFF745FEDB229D
:10466400494692008B581B051B0D8B50DC230022FE
:104674009B00CA509DE74A460025043BD3580026B8
:104684009846374B2C009A46364B03979B46364F39
:104694000F224346A2401A4063426341E240E34092
:1046A400D018451939005046009509F009F82B0037
:1046B4000A3B092B12D80F22AB1D1340A340F61856
:1046C400320039005846043408F0FAFF202C11D087
:1046D4000125DDE72B48FCF719FE37E7A5407619DD
:1046E400320039005846043408F0EAFF202C01D087
:1046F4000025CDE73C003602360A320021001D4871
:10470400039F08F0DDFF1C4B310018009A4608F0A7
:10471400D7FF1A4BBB4600259846194F02E00435D3
:10472400202D12D00F24AC403440EC40380021003E
:104734000A3C08F0C5FF052CF1D80623AB40F61857
:104744003100404608F0BCFFE9E73100504608F06C
:10475400B7FF5F4631007FE7A01E0220F0F0012082
:1047640020F701203CF70120601F02206805022089
:1047740048F1012058F70120A8F60120C4F60120D1
:10478400B4F601204405022070B5D625AD00415988
:104794002C4A90B00400FCF7A1FFCD230002000ACC
:1047A4005B00984241D39A22274BFF32D625274EED
:1047B400AD0063512649300008F006FC65592549CF
:1047C4002D012A09244808F07BFF24492A0903A85B
:1047D40008F0FAFB224902AA03A815F059F9029934
:1047E400204808F06DFF029900291ADBC72902DD71
:1047F400C723C72102931C4808F062FF029B9B0059
:10480400E058FFF743FC0622019001212000174BDA
:104814000096FCF771FAFE2301229B00E25010B0CF
:1048240070BD002300210293E5E7064A2000615988
:10483400FCF754FFA023020112091B061343C2050F
:10484400D20DB3E7010000A0990100A034D90220E1
:10485400740902201C1F0220E4F90120C0F3012086
:10486400A8130220F0F90120FCF9012078050220A8
:1048740070B5D625AD0041592C4A90B00400FCF720
:104884002DFFCD230002000A5B00984241D39A22F7
:10489400274BFF32D625274EAD0063512649300001
:1048A40008F092FB655925492D012A09244808F08E
:1048B40007FF24492A0903A808F086FB224902AA13
:1048C40003A815F0E5F80299204808F0F9FE0299CA
:1048D40000291ADBC72902DDC723C72102931C481C
:1048E40008F0EEFE029B9B00E058FFF7CFFB062288
:1048F400019001212000174B0096FCF7FDF9FE23DF
:1049040001229B00E25010B070BD002300210293ED
:10491400E5E7064A20006159FCF7E0FEA023020106
:1049240012091B061343C205D20DB3E7010000B000
:10493400990100A034D90220740902201C1F02200E
:10494400E4F90120C0F30120A8130220F0F90120AA
:10495400FCF9012078050220F0B5C646D423CD2108
:1049640000B59B00C35804001A0290B0120A490013
:104974008A4200D384E0A0221B011B0912061343C0
:10498400D6229200A3500023083AA3500432A35025
:10499400DB23FA279B00E6580433E2583C4DBF0062
:1049A4009046F2052B68E1593A48D20F08F088FE88
:1049B400E359002B5AD1DB239B00E358DB0555D484
:1049C40045466B425D4120226B42334D93432800A0
:1049D40032003249413308F0F7FA0095D625012216
:1049E400012120002E4BAD00FCF786F96259531CBF
:1049F4004CD02C4ED205D20D30002B4908F0E4FAED
:104A04006259120115092A002849294808F058FE5C
:104A14002A00284903A808F0D7FA274902AA03A8BC
:104A240015F036F80299254808F04AFE0299002943
:104A340028DBC72902DDC723C7210293204808F0D9
:104A44003FFE029B9B00E058FFF720FB06220190EB
:104A5400012120001B4B0096FCF74EF9FE23012296
:104A64009B00E25010B080BCB846F0BD2B68002B10
:104A7400A6D1154B084D1A682A601B792B71ACE737
:104A8400124B7DE7002300210293D7E7104EB8E7CD
:104A9400C8DA022074F50120D4D90220B4F501202B
:104AA400BCF5012034D90220740902201C1F022005
:104AB400E4F90120C0F30120A8130220F0F9012039
:104AC400FCF9012078050220ECFC0120990100A0EA
:104AD40024FC0120F0B5D423DE464E464546574615
:104AE4009B00E0B5C5580833C6585D4B5D49360197
:104AF40095B03209040018008846994608F0E0FD94
:104B0400594B3209190007A89A4608F05DFA574B29
:104B140006AA190007A89B4614F0BAFF544B06993D
:104B24001800039308F0CCFD0699002900DA90E000
:104B3400C72902DDC723C72106934E4BFA27180065
:104B4400049308F0BDFD069BD4229B00E55000238E
:104B54009200A3500432A350DB239B00E658043395
:104B6400E258454D0592BF00F2052B68E1594348D0
:104B7400D20F08F0A5FDE359002B5CD1DB239B0089
:104B8400E358DB0557D4059B3D4D5A42534120223F
:104B94005B429343280032003A49413308F014FA47
:104BA4000095D625012201212000374BAD00FCF7EA
:104BB400A3F86259531C50D0344ED205D20D3000A4
:104BC400334908F001FA6259150141462A09484659
:104BD40008F076FD51462A0907A808F0F5F9594668
:104BE40006AA07A814F054FF0699039808F068FD74
:104BF4000699002929DBC72902DDC723C7210693AB
:104C0400049808F05DFD069B9B00E058FFF73EFA10
:104C140006220190012120001E4B0096FCF76CF83F
:104C2400FE2301229B00E25015B0F0BCBB46B24605
:104C3400A946A046F0BD2B68002BA4D1164B104DFD
:104C44001A682A601B792B71AAE7002300210693B6
:104C5400D6E70023002106936FE7104EB4E7C04661
:104C6400E4F901201C1F0220C0F30120A813022034
:104C7400F0F90120FCF90120C8DA022074F50120C2
:104C8400D4D90220B4F50120BCF5012034D9022086
:104C94007409022078050220ECFC012024FC012088
:104CA400F0B5D423C6469B0000B5C55804002B0FAD
:104CB4000A3B82B00B39012B45D9D5239B00C3583D
:104CC400002B40D12D016918D423FA269B00E15012
:104CD4001C33E5580433E258344FB6009046EA05D5
:104CE4003B68A1593248D20F08F0EAFCA359002BC3
:104CF40004D1DB239B00E358DB0502D53B68002B82
:104D040044D043465A42534120222A4E5B429343A5
:104D140030002A002849413308F056F9D4239B0077
:104D2400E058FFF7B3F90122019001212000234B41
:104D34000096FBF7E1FFFE2301229B00E25002B044
:104D440080BCB846F0BD2B021F0A1B095B182E015C
:104D540019001B48360F984608F0B2FC002E0FD1FC
:104D6400D5239B00E3585A1E9341424617021B0663
:104D74003F0A144929401943090E09063943A3E798
:104D8400731C062E09D1C023DB04F2E70E4B094E37
:104D94001A6832601B793371C0E7F0221B061205D2
:104DA4001340424617023F0AE3E7C046C8DA02202E
:104DB40074F50120D4D90220B4F501209005022015
:104DC40080050220FFFFFFF0ECFC0120F0B5C64691
:104DD400D523012200B5D4219B0086B0C250A02265
:104DE4008900435812061B021B0A13434350DB235A
:104DF400FA2604009B00C5580433C258204FB6005D
:104E04009046EA053B688159D20F1E4808F058FCC9
:104E1400A359002B2AD1DB239B00E358DB0525D4BF
:104E240043465A4253412022174E5B42934330007B
:104E34002A001649413308F0C7F8D4239B00E058F0
:104E4400FFF724F932000300114901A808F0BCF867
:104E540001AB012201212000FBF74EFFFE230122BA
:104E64009B00E25006B080BCB846F0BD3B68002B06
:104E7400D6D1084B044E1A6832601B793371DCE7D3
:104E8400C8DA022074F50120D4D90220B4F5012037
:104E940090050220ECFC0120D421F0B5C646B022D6
:104EA4008900435800B51B0112061B09134386B041
:104EB4004350DB23FA2604009B00C5580433C25830
:104EC400204FB6009046EA053B688159D20F1E4830
:104ED40008F0F6FBA359002B2AD1DB239B00E358EF
:104EE400DB0525D443465A4253412022174E5B42E8
:104EF400934330002A001649413308F065F8D4235F
:104F04009B00E058FFF7C2F832000300114901A8E2
:104F140008F05AF801AB012201212000FBF7ECFE56
:104F2400FE2301229B00E25006B080BCB846F0BDCF
:104F34003B68002BD6D1084B044E1A6832601B79AB
:104F44003371DCE7C8DA022074F50120D4D90220D9
:104F5400B4F5012090050220ECFC012008B4F0B562
:104F6400CE46474680B5E6B06DAB20CB81460F00F8
:104F740014000193002938D0062A3EDCC8212A00F7
:104F8400490002A808F048F802A814F0C9FF102844
:104F94003BD8013C3A002349234808F091FBE30045
:104FA4001B195B001C19214B2A00E4181021019BDA
:104FB400200008F031F8200014F0B2FF0F26361A52
:104FC400002E0EDD1A4B0025984602E0200014F056
:104FD400A7FF022241462018013506F053FCAE42D9
:104FE400F4D1FE234A469B00D75066B0C0BCB946F4
:104FF400B046F0BC08BC01B0184711000D4808F0D9
:105004005FFB0D4808F0DAFAFEE729000B4808F0C8
:1050140057FB02A90A4808F053FB074808F0CEFAE8
:10502400B7E7C046541D0220CCF4012070D0022002
:10503400DCF5012088F40120A0F40120ACF4012067
:10504400B8F40120F0B54546DE4657464E46E0B575
:105054000D00040097B02A00E449E54808F030FB4D
:10506400002D00D18EE1FA239B00E358002B00D1E0
:105074008FE10022DF4EE04B32708022DF491800BE
:1050840052009A46894608F01BFB8022DC4F5200EE
:10509400390009A807F098FFDA4B08AA190009A8F3
:1050A4009B4614F0F5FCD84B08991800039308F0BC
:1050B40007FB0899002900DA94E1C72902DDC72318
:1050C400C7210893D14B1800049308F0F9FA802201
:1050D400089B49469B00E35852005046069308F04B
:1050E400EFFA80223900520009A807F06DFF5946F3
:1050F40008AA09A814F0CCFC0899039808F0E0FA6F
:105104000899002900DA8BE1C72902DDC723C721EA
:105114000893049808F0D4FA089B49469B00E35886
:1051240050461B011B0998461A0008F0C9FA42466A
:10513400390009A807F048FF594608AA09A814F03D
:10514400A7FC0899039808F0BBFA0899002900DA2B
:105154006EE1C72902DDC723C7210893049808F02C
:10516400AFFA089B9B00E058FEF790FFA8490300A4
:10517400069A3000059107F027FFA64B0322290069
:10518400200000960693FFF7E9FE00223270022207
:105194004946FF32504608F093FA02223900FF32A2
:1051A40009A807F011FF594608AA09A814F070FCD1
:1051B4000899039808F084FA0899002900DA33E181
:1051C400C72902DDC723C7210893049808F078FA99
:1051D4000222089B49469B00E358FF32504607933E
:1051E40008F06EFA02223900FF3209A807F0ECFE3B
:1051F400594608AA09A814F04BFC0899039808F02A
:105204005FFA0899002900DA22E1C72902DDC723E1
:10521400C7210893049808F053FA089B49469B0059
:10522400E35850461B011B0998461A0008F048FA37
:105234004246390009A807F0C7FE594608AA09A83A
:1052440014F026FC0899039808F03AFA0899002902
:1052540000DAF9E0C72902DDC723C72108930498BF
:1052640008F02EFA089B9B00E058FEF70FFF079A00
:1052740003000599300007F0A7FE069B04222900CD
:1052840020000096FFF76AFE002232708122494610
:105294005200504608F014FA81223900520009A83D
:1052A40007F092FE594608AA09A814F0F1FB0899E0
:1052B400039808F005FA0899002900DAC0E0C72924
:1052C40002DDC723C7210893049808F0F9F9812265
:1052D400089B49469B00E35852005046079308F048
:1052E400EFF981223900520009A807F06DFE5946F2
:1052F40008AA09A814F0CCFB0899039808F0E0F96F
:105304000899002900DA97E0C72902DDC723C721DD
:105314000893049808F0D4F9089B49469B00E35885
:1053240050461B011B0998461A0008F0C9F9424669
:10533400390009A807F048FE594608AA09A814F03C
:10534400A7FB0899039808F0BBF90899002963DBC7
:10535400C72902DDC723C7210893049808F0B0F9D0
:10536400089B9B00E058FEF791FE079A03000599FD
:10537400300007F029FE052229002000069B009634
:10538400FFF7ECFD17B0F0BCBB46B246A946A046F9
:10539400F0BDF2239B00E1582000FEF759FF1D4E9B
:1053A40003223300290000902000FFF7D7FDF323E8
:1053B4009B00E1582000FEF74BFF33000422290034
:1053C40000902000FFF7CAFDF4239B00E158200061
:1053D400FEF73EFF33000090052229002000FFF76E
:1053E400BDFDCFE70023002108936BE6801E022059
:1053F4009C05022044D90220E4F901201C1F02204C
:10540400C0F30120A8130220F0F90120FCF90120C7
:10541400C8040220FCFF01200023002108939CE71C
:1054240000230021089374E6002300210893CCE6AE
:1054340000230021089391E600230021089368E7E4
:105444000023002108933FE700230021089306E787
:10545400002300210893DDE6F0B5DE4657464E46AC
:105464004546E0B5BA4F04000A000E00B9483900B9
:1054740097B008F025F9DD239B00E1580433E35885
:10548400002B00D1ACE0B44ADC20DB2380002058A0
:105494009B00E358002800D1A0E0AF48AF4D009036
:1054A4002800069508F00CF9FB239B00E358002B19
:1054B40000D073E1AA4B09AD0493AA4B9946AA4BB9
:1054C4009A4608AB0593A94B9B46A94B0293A94B5B
:1054D4000393FC239B00E358002B00D0F5E0DD236D
:1054E4009B00E35804991B011B0998461A0048467F
:1054F40008F0E6F842465146280007F065FD594693
:10550400059A280014F0C4FA0899029808F0D8F80B
:105514000899002900DAB8E0C72902DDC723C721AA
:105524000893FA25039808F0CBF8089BAD009B007C
:10553400E35861591A009048984608F0C1F8635935
:10554400002B04D08D4B1B68002B00D172E1DD23AE
:105554009B00E1580433E358002B45D07E4ADC20FD
:10556400DB23800020589B00E35800283AD07A4877
:105574000090069808F0A4F8E2239B00E358062B59
:1055840000DD86E0012B31DC06D82000FEF7B6FFF3
:1055940031002000FDF7A6F8DD239B00E158043319
:1055A400E358002B66D0DC20DB23800020589B00CE
:1055B400694AE358002866D0674C0094704808F0A4
:1055C4007FF8FDF751FC39006E4808F079F817B000
:1055D400F0BCBB46B246A946A046F0BD6A485DE7AA
:1055E400694A51E76848C3E7674AB8E7E3239B0081
:1055F400E358022B00DD37E1002BCDDB2000FEF762
:105604007DFF31002000FDF76DF8032231002000FA
:105614005E4BFFF7A3FCED239B00E1582000FEF74F
:1056240017FE5B4D04222B00310000902000FFF791
:1056340095FCEA239B00E1582000FEF721FC05229B
:105644002B00310000902000FFF788FCEB239B0027
:10565400E1582000FEF714FC2B00310000900622D4
:105664002000FFF77BFCDD239B00E1580433E35863
:10567400002B98D1DC20DB23800020589B00424A79
:10568400E358002898D1404C97E700230021089361
:1056940047E7073B022B00D97EE7E325AD006159BC
:1056A4003C4808F00DF86359082B00D1F1E000DC08
:1056B400D6E0092B00D06FE731002000FDF712F887
:1056C40031002000FFF7BEFC66E7F2239B00E2589E
:1056D4000792D4229200A058FEF7D8FC0799020042
:1056E4002D4807F0EDFFF2239B00E358D4221B0161
:1056F4001B0998469200A2580499079248461A003A
:1057040007F0DEFF42465146280007F05DFC59468B
:10571400059A280014F0BCF90899029807F0D0FF04
:105724000899002900DA97E0C72902DDC723C721B9
:105734000893039807F0C4FF089B079A9B00E25064
:10574400FC2300229B002000E250FDF7DDF9C6E6B1
:10575400701E0220B0050220AC05022010060220B3
:105764001C1F0220E4F90120C0F30120A813022029
:10577400F0F90120FCF9012078FB0120C8DA0220AD
:105784007C06022048F10120DCF50120F0F501201F
:10579400FCFF01207006022054060220ED25AD0016
:1057A40063590293D4239B00E058FEF76FFC0299DF
:1057B40002003A4807F084FFD4239B00E358384999
:1057C4000793635937481B011B0998461A00049133
:1057D400814607F075FF344B09AD19004246280095
:1057E4009A4607F0F1FB314B08AA190028009B46A2
:1057F400059214F04DF92E4B08991800029307F006
:105804005FFF0899002923DBC72902DDC723C721CD
:105814000893284B1800039307F052FF089B079A3C
:105824009B00E250FB2300229B002000E250FDF786
:105834006BF94EE64246E223110F9B00E15013013F
:10584400E3221B0F9200A3501B4807F039FF7EE6AA
:10585400002300210893DCE700230021089368E774
:10586400062B00D828E797E6042B00D094E63100F5
:105874002000FCF737FFED239B00E1582000FEF7E2
:10588400E7FC03220090310020000C4BFFF766FB7D
:1058940082E6F72300229B00E2500DE7380602203F
:1058A4001C1F0220E4F90120C0F30120A8130220E8
:1058B400F0F90120FCF90120A4FB0120FCFF0120E8
:1058C400F0B545464E46DE465746E0B588460600E6
:1058D40014001D0085B0072B12D9083B012B26D9D3
:1058E4000E9B072B58D9083B1700012B00D888E0E2
:1058F400380005B0F0BCBB46B246A946A046F0BD90
:105904000F9B571C002B39D02900FEF7B9FA594DCB
:1059140000902B00220041463000FFF71FFB0E9B36
:10592400072B4AD9083B012BE2D83C006DE00F99C4
:10593400531C0393971C00294DD04F4900950B002D
:1059440089464146FFF70AFB4C484D4C2A000100AA
:10595400EB178246200007F037FB464D41462B00EB
:105964003000039A0094FFF7F9FA0E9BA346072B25
:1059740023D9083B012BBBD83C004CE03E4B00959F
:105984009946FFF7EBFA0E9B072B14D9083B012B22
:10599400AED83C003B4D5CE00F9B002B54D1364B02
:1059A40099460E9B2200009341464B463000FFF778
:1059B400D5FA671C9CE73C00F3E73C000E993000E5
:1059C400FEF75EFA2B000090220041463000FFF7FC
:1059D400C5FA671C8CE7284B414600959946FFF7AA
:1059E400BDFA284D41462B003000039AFFF7B6FA62
:1059F4000E9B072BDFD9083B012B00D978E73C002D
:105A040027E00F9B002B21D01A4D1B4B99461B4BB3
:105A14009A461B4B9B465F460E9B22004146300034
:105A240000934B46FFF79AFA0E9B514638000E9AA4
:105A3400DB1707F0C9FA00972B0041463000621CBF
:105A4400FFF78CFAA71C53E70A4DB7E70A4B0D4D35
:105A5400994647460E9B39002200300000934B467E
:105A6400FFF77CFA39002B003000621CFFF776FA4E
:105A7400A71C3DE7FCFF0120A806022050FC0120E2
:105A8400A4D90220F0F50120F0B5DE464E46454685
:105A94005746E0B50D00E24E04000A0093B0310011
:105AA400E04807F00DFE31002A00DF4807F008FE49
:105AB400DD239B00E1580433E358002B00D1B0E010
:105AC400DA4ADC20DB23800020589B00E3580028BE
