:020000041000EA
:1000000000B5324B212058609868022188439860DF
:10001000D860186158612E4B002199600221596106
:100020000121F02299502B49196001219960352056
:1000300000F044F80222904214D00621196600F024
:1000400034F8196E01211966002018661A6600F04E
:100050002CF8196E196E196E052000F02FF8012189
:100060000842F9D1002199601B49196000215960AB
:100070001A491B48016001219960EB211966A021F2
:10008000196600F012F800219960164914480160C1
:100090000121996001BC002800D000471248134993
:1000A000086003C880F30888084703B5996A0420EC
:1000B0000142FBD001200142F8D103BD02B5186610
:1000C0001866FFF7F2FF186E186E02BD00000240BE
:1000D000000000180000070000035F00212200005C
:1000E000F4000018222000A00001001008ED00E03C
:1000F00000000000000000000000000074B24E7A12
:1001000000200420F7010010C3010010C5010010F9
:10011000C1010010C1010010C1010010C101001097
:10012000C1010010C1010010C1010010C701001081
:10013000C1010010C1010010C9010010CB01001065
:10014000CD010010CD010010CD010010CD01001037
:10015000CD010010CD010010CD010010CD01001027
:10016000CD010010CD010010CD010010CD01001017
:10017000CD010010CD010010CD010010CD01001007
:10018000CD010010CD010010CD010010CD010010F7
:10019000CD010010CD010010CD010010CD010010E7
:1001A000CD010010CD010010CD010010CD010010D7
:1001B000CD010010CD010010CD010010CD010010C7
:1001C00000BE00BE00BE00BE00BE00BE00F051F882
:1001D000103800BEF2EB8871E00200100C03001032
:1001E0003402001090A31AE700202449086006C8D2
:1001F00081F30888104722480068002835D10DA4F3
:100200000ECC002902D000F012F8F9E71D491E4A71
:10021000002000E001C19142FCD11C4988471C49E3
:1002200088471C49884700BEFDE701C901C29A42C0
:10023000FBD370470C030010C000002028AF012042
:1002400074B1011030AF0120380602207C08021082
:1002500000000420000004207C080210001004208C
:10026000001004200000000070470B4800F018F850
:100270000047EFF30580C0B27047000008ED00E0D2
:10028000000000D038060220C8220220E9660020C3
:10029000813C00204D6800205756000000000000FF
:1002A00001B40248844601BC604700BF4D85002070
:1002B00006005250ABB360531CCC012006005250D4
:1002C000861C03022CCC0120060052505422A29D11
:1002D0004CCC012005005250DE65F4687C08021009
:1002E000D4020010C8020010BC02001058CC01203B
:1002F000B002001064CC012070CC01207CCC012025
:0C030000B8CC0120C4CC0120F8CC0120B6
:10030C00F8B5C0460448054B10B5834203D0044BE6
:10031C00002B00D0984710BD38060220380602206A
:10032C000000000006480749091A8B10C90FC918AC
:10033C0010B5491003D0044B002B00D0984710BDCA
:10034C0038060220380602200000000010B5074CC9
:10035C002378002B09D1FFF7D5FF054B002B02D0DA
:10036C00044800E000BF0123237010BD40070220A9
:10037C000000000028AF0120054B10B5002B03D066
:10038C000449054800E000BFFFF7CCFF10BDC04694
:10039C00000000004407022028AF01207047C0462F
:1003AC00D42310B5CD249B00C1180B6864001A022D
:1003BC00120AA24211D2A0221B011B0912061343DE
:1003CC00D82292008350A022002312060A604B60B0
:1003DC00F72301229B00C25010BD014BF0E7C04631
:1003EC00990100A0D823D4229B00C35892008218F4
:1003FC0012681B019B081A50F72301229B00C25064
:10040C007047C046D4239B00C3181A68DA239B009C
:10041C00C25000220433C25070330132C2507047B4
:10042C00D4239B00F0B5C61834680B39250F220174
:10043C000C0077683B012B43CD1712196B413260CE
:10044C007360F72301229B00C250F0BDD423A0217E
:10045C009B00C218136809061B011B090B43136090
:10046C0001235B425360F72301229B00C25070476B
:10047C00D423B0219B00C218136809061B011B0969
:10048C000B43136001235B425360F72301229B0053
:10049C00C2507047FA23202230B5002400259B005F
:1004AC00C254983BC3181C605D60E0230022A0245A
:1004BC00A0259B00C250283BC3182D0624061C60A7
:1004CC005D60A022D82312069B00C2500123E922B2
:1004DC005B42920083500432835004328350F723E2
:1004EC0001229B00C25030BDFA23202230B50024DB
:1004FC0000259B00C254983BC3181C605D60E02330
:10050C00A024A0251F3A9B00C250283BC3182D06DF
:10051C0024061C605D60A021D82309069B00C150F5
:10052C000123E9215B4289004350043143500431DB
:10053C004350F7239B00C25030BDC046F423012228
:10054C009B00C2507047C046F52301229B00C2504D
:10055C007047C046FB2300229B00C250F8220123A7
:10056C0092008350043A83507047C046FB2292009D
:10057C00835801338350F72301229B00C2507047EC
:10058C00FB2292008358002B01DD013B8350F723A3
:10059C0001229B00C2507047F82300229B00C250DE
:1005AC00043B0132C2507047F92201230021920012
:1005BC008350043A8150043A83507047F723012149
:1005CC00014A9B00D150704740160220084B094845
:1005DC00094918605960094809499860D960094867
:1005EC00094918615961094807499861D9617047EF
:1005FC004016022063035203560056105005530553
:10060C005205510554055305510751060024002489
:10061C000A4B01211A680A4B1A6068235A43094B8A
:10062C009B18002219611A76074B1960074B196049
:10063C00074B1A60074B1A707047C0461412022001
:10064C0004130220F8F801200C13022010130220CE
:10065C00FC120220301A0220D0220C4B0C480D49FF
:10066C00920010B59C182060616000210A48203A65
:10067C009A1810605160094A09481A6009F024F868
:10068C0022686368074809F01FF810BD4016022065
:10069C00325476083054760856341200181410145C
:1006AC0060B3012070B3012010B50E4808F0B6FEFF
:1006BC000D4B0E481A680E4B196809F005F80D4BD6
:1006CC000D48196809F000F80C4B0D481A680D4BD1
:1006DC00196808F0F9FF0C4B0C48196808F0F4FF86
:1006EC0010BDC04688B30120EC11022098B3012044
:1006FC00F4110220F0110220BCB30120FC110220E5
:10070C00D4B30120E4110220F8110220E8B3012037
:10071C0010B5054C0548216808F0D6FF206825382F
:10072C0003F000FE10BDC04600120220F4B30120FD
:10073C0010B50A2003F0F6FD10BDC04610B5092017
:10074C0003F0F0FD10BDC04610B5152003F0EAFD16
:10075C0010BDC04610B5162003F0E4FD10BDC04618
:10076C0010B5172003F0DEFD10BDC04610B50720F4
:10077C0003F0D8FD10BDC04610B51A2003F0D2FD11
:10078C0010BDC04610B5022003F0CCFD10BDC04614
:10079C0010B5062003F0C6FD10BDC04610B50520EF
:1007AC0003F0C0FD10BDC04610B5032003F0BAFD28
:1007BC0010BDC04610B5042003F0B4FD10BDC046FA
:1007CC00F723002110B5034A9B001820D15003F0E9
:1007DC00A9FD10BD40160220F723002110B5034AD5
:1007EC009B001920D15003F09DFD10BD4016022036
:1007FC00F8B500251A4E1B4C1B4B310020681D60B0
:10080C0015F012FE00281FD001273100A06E2576AE
:10081C00276115F009FE002816D0D0233100E058CE
:10082C006576A76715F000FE00280DD0E023E75091
:10083C0058333100E058A57615F0F6FD002803D0AA
:10084C00A4235B00E576E75000230121074A1360DF
:10085C00074A1160074A1360074A1370F8BDC04677
:10086C00F8B30120F8F80120041302200C13022025
:10087C0010130220FC120220301A022010B5084975
:10088C000400084804F04EFAF92300229B00E250C1
:10089C00F82201239200A350043AA35010BDC04685
:1008AC00F81C022000B4012070B500240F4D104E2E
:1008BC0007E02100300004CD013408F005FFC82CFE
:1008CC0010D00521200007F08FFF0029F1D10A205C
:1008DC0008F052FD2100300004CD013408F0F4FE84
:1008EC00C82CEED10A2008F047FD70BD401602203E
:1008FC0008B40120F0B5D6464F464646C0B5174859
:10090C0082B008F08BFD164B00259946154B164C02
:10091C009846164B164F9A4626683900300015F04B
:10092C0083FD00280CD022694346002A00D153468F
:10093C0022001832009229003200484608F0C4FE0A
:10094C0001356834052DE7D10A2008F015FD02B0F9
:10095C001CBC90469946A246F0BDC04630B401205E
:10096C0040B4012020B40120F8F8012028B4012063
:10097C00F8B3012070B50A2008F0FEFC094C0A4EB1
:10098C002500E135FF35626813782A2B03D030003F
:10099C00217808F099FE0C34AC42F4D1034808F0ED
:1009AC0093FE70BD84EC012058B4012064B4012086
:1009BC0070B5284808F088FE274D284C3FE0D0231E
:1009CC00012202211B069A61996102319961800012
:1009DC000431996141598A405A61D02301221B0686
:1009EC0059685B6809095B0911401A4201D002235E
:1009FC001943D0231B065B685B0601D504231943FE
:100A0C00D0231B065B681B0601D508231943D02392
:100A1C001B065B68DB0501D510231943D0231B068D
:100A2C005B689B0501D520231943D0231B065B680B
:100A3C005B0501D540231943200008F045FEFA2040
:100A4C00800008F053FE431CC7D030380328B6D9B9
:100A5C0070BDC04680B4012050C50120F4B3012004
:100A6C0030B583B005000A49100001AA15F014FC3A
:100A7C000400012803D00024200003B030BDDA2389
:100A8C00019A9B001100EA50024808F01DFEF3E7A2
:100A9C008CB401209CB4012030B583B005000A4908
:100AAC00100001AA15F0F8FB0400012803D0002463
:100ABC00200003B030BDDB23019A9B001100EA50EB
:100ACC00024808F001FEF3E7B4B40120C4B40120DD
:100ADC0070B5002682B005000C49100001AA0196E1
:100AEC0015F0DAFB0400012803D00024200002B02A
:100AFC0070BDD4239B009C46019B65441A0048C5DD
:100B0C000348002308F0E0FDF0E7C046DCB4012008
:100B1C00ECB4012010B582B001AB040011491000F7
:100B2C006A4615F0B9FB0023022802D0180002B067
:100B3C0010BD0099019A012910D002290AD0002970
:100B4C0004D0094808F0C0FD0123EFE7D6239B0031
:100B5C00E250F6E7D8239B00E250F2E7D7239B0044
:100B6C00E250EEE708B5012020B5012030B583B086
:100B7C0005000A49100001AA15F08EFB040001289B
:100B8C0003D00024200003B030BDD923019A9B0070
:100B9C001100EA50024808F097FDF3E740B5012038
:100BAC005CB5012030B583B005000A49100001AADC
:100BBC0015F072FB0400012803D00024200003B0C0
:100BCC0030BDDE23019A9B001100EA50024808F068
:100BDC007BFDF3E77CB5012090B5012070B5274D66
:100BEC000600286814008EB0002801D10EB070BD2C
:100BFC000DAB05930CAB04930BAB03930AAB0293B5
:100C0C0009AB019308AB009320001D4907AB06AA62
:100C1C0015F042FB082805D000231A4A00202B604F
:100C2C001360E3E7174A136898003018410713D193
:100C3C00069C079D04604560089C099D8460C56006
:100C4C000A9C0B9D046145610C9C0D9D8461C561E2
:100C5C00083301201360C9E70699016007994160C8
:100C6C00089981600999C1600A9901610B994161E8
:100C7C000C9981610D99C161EAE7C04628120220E6
:100C8C00A8B501202C120220100010B5072208492B
:100C9C0015F07EFC0023002801D0180010BD0122A5
:100CAC00044B05481A6008F00FFD0123F5E7C04618
:100CBC00C4B5012028120220CCB501207047C046D3
:100CCC0010B5034807F062FD00210300002098478F
:100CDC0055420000F0B5244885B008F0F5FC00231F
:100CEC00224C234E234D2360FA20800008F0FEFC9A
:100CFC00431C35D03928F7DC2F2807DC1B28F3D808
:100D0C001D4BC340DB07EFD505B0F0BD2268303872
:100D1C0093009B185B00181831002060280008F025
:100D2C00D3FC1649164B086816491B6809685A1EED
:100D3C0093414F1EB941212249425B4213400A4064
:100D4C0020320190009002922268203311000E484C
:100D5C0008F0BAFCFA20800008F0C8FC431CC9D18A
:100D6C0008F032FCC0E7C046E0B5012014120220A6
:100D7C00181302200CB6012000240008280C0220B5
:100D8C00400C02203C0C022024B60120FA22F8B5BB
:100D9C009200835C0400202B49D0432B42D1412389
:100DAC008354DA239B00C1180833C018082208F0BA
:100DBC00D9F9DC239B00E3581B019B081859D92354
:100DCC009B00E0500833E358002B00D177E00F2153
:100DDC00E123020B0A409B00060AE2500E4004334A
:100DEC000509E6500D400433E55001400433E15051
:100DFC00ED27AB005B195B005B18BF00E351092AC0
:100E0C0010D8504F9200BA589746032E00DC93E04E
:100E1C00063E012E06D8E9239B00E5500433E15031
:100E2C000433E150F72301229B00E250F8BD41232B
:100E3C008354DA239B00C1180833C018082208F029
:100E4C0091F9DC239B00E3581B019B081859D9230B
:100E5C009B00E0500833E358002B1ED1E1230F21F7
:100E6C009B00020F060EE2500E400433050DE650B7
:100E7C000D400433E550030C1940E4239B00E15072
:100E8C00ED27AB005B195B005B18BF00E351092A2F
:100E9C00C8D82D4F9200BA5897460F21E123020B68
:100EAC000A409B00060AE2500E4004330509E65046
:100EBC000D400433E55001400433E150E0E7E123F9
:100ECC000F219B00020F060EE2500E400433050D5D
:100EDC00E6500D400433E550030C1940E4239B000D
:100EEC00E15085E7FF23EE21020C1A408900625085
:100EFC00020A1A401840F02304319B006250E05063
:100F0C0090E7CD229200A258C83292001259D31801
:100F1C00EC229200A35085E79B001A59EC239B000E
:100F2C00E2507FE7E9239B00E5500433E15079E779
:100F3C00CC22E7E7CB22E5E7E9239B00E550083319
:100F4C00E1506FE770B6012098B601200FB470B570
:100F5C0096B01AAB04CB502102A8019307F0B8FB52
:100F6C0002A9194808F0B0FB184D4E24280015F0C2
:100F7C00A7FA241A060002A815F0A2FA3200030000
:100F8C002100134808F0A0FB631C15D0280015F0B5
:100F9C0097FA02220F49281808F0E4F802A9220057
:100FAC00280015F0C1FA29000B4808F08DFB16B08B
:100FBC0070BC08BC04B01847212322002900074844
:100FCC002B7008F081FBF2E7C0B60120301A02202A
:100FDC00D4B60120B8BF01200CB70120FCB601200B
:100FEC0010B50020D02404F0E3F80123240663623A
:100FFC00012004F0DDF802230220636204F0D8F82B
:10100C0004230320636204F0D3F8082304206362F2
:10101C0004F0CEF810230122A3620021042004F076
:10102C00AFF8052004F0C4F820230122A3620021AC
:10103C00042004F0A5F8062004F0BAF8402301229D
:10104C00A3620021042004F09BF8072004F0B0F800
:10105C0080230122A3620021042004F091F80820CF
:10106C0004F0A6F880235B00A36201220021042077
:10107C0004F086F8092004F09BF880239B00A362FF
:10108C0001220021042004F07BF80A2004F090F8DF
:10109C008023DB00012200210420A36204F070F8FD
:1010AC0010BDC046F0B54546DE4657464E46E0B547
:1010BC00C24D0400296887B0002901D1C04B1960CA
:1010CC00D02201201206536852681B0952090340B2
:1010DC00104201D002221343D0221206526852064B
:1010EC0001D504221343D02212065268120601D5F0
:1010FC0008221343D02212065268D20501D51022C1
:10110C001343D02212065068012680051AD52020E0
:10111C0052680343920A164200D19DE240221343C7
:10112C00A84A1360A648A84A04681460CA0113436D
:10113C000360032947D007B03CBC90469946A246B1
:10114C00AB46F0BD5268920A1642E7D19D4A136035
:10115C00002BE7D19D4802680132052A50DD03605F
:10116C009B4B98461B68002BE3D09A4B9A4A1B6802
:10117C009946002B46D0682394460192974A984F83
:10118C009246396897484B4363449A6853461B68A8
:10119C009B009B589B46190008F096FA5B46002B67
:1011AC0000D19EE01E2B00D19BE059468E4808F0E2
:1011BC008BFA584603F0B6F8534652461B6829681A
:1011CC0001331360B5E77E4B884C1968884D236852
:1011DC002960994212D0002910D0864800230200C1
:1011EC0003E0013308321C2B08D01668B142F8D149
:1011FC00DB00C318586803F095F8296821609AE75A
:10120C00026096E76826764F7B483B6801927343F1
:10121C00D15808F059FA019A396894464E436644FD
:10122C007069C82600238C46760003E0E250043334
:10123C00B34202D0C258511CF8D161466823019ABE
:10124C004B43944663445A686C4B00269B466C4B4C
:10125C0002979A4623004C4699463301D018D35C2A
:10126C000B2B18D00E2B2CD00A2B27D03200654814
:10127C0008F02AFA002342461360029B019A19686F
:10128C00682394464B4363445A6801363301D018A3
:10129C00D35C0B2BE6D18368C0689C462300072CDB
:1012AC0000D806E1083B012B13D95946504607F0EC
:1012BC00E7F95146544808F007FADEE7846801362E
:1012CC00E4E70123434A296813600022434B1A6068
:1012DC002FE767466833DB004B441F6058600136CC
:1012EC00D4E768233A6849485343019A0126D158F8
:1012FC0008F0EAF9464B5A469946BB4619687642BD
:10130C0005940292029A434808F0DEF95B4619688C
:10131C004B461A68682301984B4384466344DB6848
:10132C00140118191C5D2300143BDBB2072B00D9E8
:10133C00B1E0394F9B00FB589F460297029922005F
:10134C00364808F0C1F94B461B682600591C4B4621
:10135C001960D7E7029786683148310008F0B4F974
:10136C004B461B68591C4B461960CBE7731C00D1CC
:10137C00F9E01B2E00D9A3E00123B122B3401205E2
:10138C00134200D19CE0274808F09EF9E8E7264874
:10139C0008F09AF9534652461B685F4601331360B6
:1013AC004B464A461B680133136043461B68002BAF
:1013BC0048D01E4808F088F92968BAE6E4110220E2
:1013CC00F4110220F8110220EC110220001302206B
:1013DC0010130220FC120220F8F801201413022032
:1013EC000413022020B70120E4B80120E8110220E8
:1013FC00F0110220A4EB0120F8B8012010B9012053
:10140C00801A02202CB90120DCB701202CB7012056
:10141C00081302204CB7012054B9012078B70120E1
:10142C0068B7012090B7012028B801207CB80120B2
:10143C008D4807F0F3FF0023424613604A465F468F
:10144C0001331360894C2368002B00D0AFE0682374
:10145C003A68874E5343019AD2181269002A00D178
:10146C00B8E0844808F030F968223B6882490133BF
:10147C003B6000275343019A3770D05814F0D4FFC7
:10148C00002800D18EE00123424613607B4B296873
:10149C0027601F604DE62300794808F015F90023FA
:1014AC00424613604B464A461B685F460133136045
:1014BC00C8E748466746C8339B001F500136E5E62F
:1014CC00DA23152E76D0172E00D18AE0162E70D086
:1014DC003300072E00D898E0083B012B00D8B1E070
:1014EC00684C32006849200007F0CAF821006748B0
:1014FC0008F0EAF85A466823126803995343019A94
:10150C0094464A4663441268DB6812019B189A6839
:10151C00DB688A4200D1A2E031005D4808F0D4F8C3
:10152C00F3B2132B00D883E0FF233340594A143B0A
:10153C009B0099585B466824019F4A46BC461B6831
:10154C00126863436344DB6812019B189A68DB687A
:10155C005148FFF7FBFC5B461B68BC465C43002311
:10156C0064442361FCE6029F4B46511C4B483A00F5
:10157C00196008F0A9F85B4619684B461A6868238D
:10158C0001984B4384466344DB68140118191C5DB5
:10159C002300143BDBB2072B00D97CE7404E9B00A9
:1015AC00F3589F46434618603E4808F08DF829686A
:1015BC00BFE5D823059A9B00D358039300230493CB
:1015CC0082680399C3688A4215D03100304808F00C
:1015DC007BF8A9E7019A18333100D01814F068FF92
:1015EC003FE7D42292009446059B63441A685B68DB
:1015FC0003920493E4E704998B42E6D13100039AF9
:10160C00049B294808F060F8AAE6059AC8339B00A9
:10161C009B5803930023049382680399C3688A42FE
:10162C0002D104998B42E9D03100194808F04CF8EA
:10163C00FF231E4C142120001D4A334007F034F8C0
:10164C00210077E7059A68339446DB0063441A68F7
:10165C005B6803920493DFE7164A136062E5049912
:10166C008B4200D058E7C9E738B801200C13022090
:10167C00301A0220A0B80120F8B30120FC1202207D
:10168C004CB80120801A0220C0B70120DCB7012021
:10169C0000B8012000EF012014B801204CB7012044
:1016AC0074B90120B8B80120ECB70120481B022006
:1016BC00C8C80120F8110220F0B5DE465746454651
:1016CC004E46E0B5050087B0D7480E0007F0FCFF8A
:1016DC00D64BD74F98462A0033003900404607F0C6
:1016EC00F3FF340F2B0F22001900D2482D013601C5
:1016FC009A4604942D0907F0E7FF3609B54201D943
:10170C005346049332002900CB4807F0DDFF5346C3
:10171C000B2B00D103E10A2B02D10A2C00D116E1CC
:10172C00C64B1800994607F0CFFF0B2C01D1C44BC8
:10173C009E1B33002A003900404607F0C5FF48467F
:10174C0007F0C2FF00239946BE4B00219846BE4BC2
:10175C0000240293BD4B9B460F239A464B46A94649
:10176C001D0053464A46A3401A403340E340E24032
:10177C00D7187F1802984146009707F0A5FF3B0049
:10178C000A3B092B0ED8534606371F40A740ED19CC
:10179C002A0041465846043407F096FF202C0DD001
:1017AC000121DEE7A740ED192A00414658460434D2
:1017BC0007F08AFF202C01D00021D2E72C02240A4A
:1017CC0022004146A24807F07FFFA24B21001800DF
:1017DC00039307F079FFA04B002699460F239F4FE8
:1017EC009A4602E00436202E14D05546B5402540CA
:1017FC00F540484629000A3D07F066FF052DF1D853
:10180C000623B340E41821003800043607F05CFFCF
:10181C00202EEAD12100039807F056FF21009048B2
:10182C0007F052FFF0231B051C4200D181E08D4BC9
:10183C0000211C4001230594002600240F279A4602
:10184C003B005046B340059A1A400340F340F24027
:10185C00D5186D1802984146009507F035FF2B00FE
:10186C000A3B092B0DD806353D40B54064192200C2
:10187C0041465846043607F027FF202E0DD0012193
:10188C00DEE7B5406419220041465846043607F09D
:10189C001BFF202E01D00021D2E72402240A2200B3
:1018AC0041466B4807F010FF2100039807F00CFF2E
:1018BC000F2300269A46694F02E00436202E14D0DE
:1018CC005546B5402540F540484629000A3D07F0ED
:1018DC00FBFE052DF1D80623B340E4182100380097
:1018EC00043607F0F1FE202EEAD12100039807F010
:1018FC00EBFE049B0B2B6DD0049B2401504A240956
:10190C001B071C4321005848121B07F0DDFE20006A
:10191C0007B03CBC90469946A246AB46F0BD0B2C9A
:10192C0015D0464B1800994607F0CEFE444B5D1B74
:10193C00FFE64E4807F0C8FE4D4D220028004D49E9
:10194C0006F09EFE29004C4807F0BEFE6FE74B48A0
:10195C0007F0BAFE002399463A4B002498463A4BBE
:10196C0042460293394BB0469B464B460021A94652
:10197C0016001D000F234046AB404A461A40034058
:10198C00EB40EA40D7187F1802983100009707F017
:10199C009BFE3B000A3B092B0FD80F2306371F4039
:1019AC00AF40E419220031005846043507F08CFE94
:1019BC00202D00D19FE00121DCE7AF40E41922008B
:1019CC0031005846043507F07FFE202D00D192E0FF
:1019DC000021CFE71A4B00211B1B05930123002488
:1019EC0000260F279A463B005046B340059A1A40F2
:1019FC000340F340F240D5186D180298414600950B
:101A0C0007F062FE2B000A3B092B39D806353D4006
:101A1C00B5406419220041465846043607F054FE7E
:101A2C00202E39D00121DEE738BA01205CBA012022
:101A3C0040C5012070BA012084BA0120DCBA012013
:101A4C009999990030C50120ECB9012008BA012000
:101A5C0024BA0120ACB90120B8B90120C8B90120C1
:101A6C00B0BA0120FFFFFFF0F0BA0120B8BA012094
:101A7C00801A0220CCBA0120DCB701209CBA0120CC
:101A8C00B5406419220041465846043607F01CFE46
:101A9C00202E01D00021A6E72402240A4146220070
:101AAC003E4807F011FE2100039807F00DFE0623B7
:101ABC009A463B4B00260F27984602E00436202E10
:101ACC0014D03D00B5402540F540484629000A3D5C
:101ADC0007F0FAFD052DF1D85346B340E418210068
:101AEC004046043607F0F0FD202EEAD12100039881
:101AFC0007F0EAFD00E72402240A220031002748FF
:101B0C0007F0E2FD274B210018009B4607F0DCFD97
:101B1C00254B21001800039307F0D6FD234B00261C
:101B2C0099461F4B0F27984602E00436202E14D0FE
:101B3C003D00B5402540F540484629000A3D07F0D8
:101B4C00C3FD052DF1D80623B340E418210040460F
:101B5C00043607F0B9FD202EEAD12100039807F0D6
:101B6C00B3FD2100584607F0AFFDF0231B051C42C6
:101B7C0005D15346240124091B071C43C7E60C4816
:101B8C0007F0A2FD0B4D220028000B4906F078FD52
:101B9C0029000A4807F098FDEBE7C04624BA01205B
:101BAC00C8B90120B0BA0120ACB90120B8B90120E4
:101BBC00B8BA0120801A0220CCBA0120DCB701206F
:101BCC0070B5D825AD0004000D494059FFF774FDE0
:101BDC00CD230002000A5B00984207D30948D823A2
:101BEC0001229B00E0507C33E25070BD60590449E7
:101BFC00FFF762FD00010309A02000061843EEE781
:101C0C00010000A0990100A070B5D825AD0004001A
:101C1C000D494059FFF750FDCD230002000A5B002F
:101C2C00984207D30948D82301229B00E0507C330B
:101C3C00E25070BD60590449FFF73EFD00010309F5
:101C4C00A02000061843EEE7010000B0990100A0A7
:101C5C009C23F0B5DE4657464E46454699461A4BF0
:101C6C00E0B59846194B1A4C9B461A4B83B09A46D2
:101C7C00A14409E052463100009240463A000C342F
:101C8C0007F022FD4C4515D02668676830003900F6
:101C9C00A568FFF711FD019503008542EAD15B466B
:101CAC003A00009331002B0040460C3407F00CFD39
:101CBC004C45E9D10A2007F05FFB03B03CBC9046D1
:101CCC009946A246AB46F0BD04BB012030BB0120B7
:101CDC0064EE012028BB0120F8B5D9234546DE4629
:101CEC0057464E469B00C358E0B51B0F0500062B0C
:101CFC004ED9073B022B40D8DB239B00C358002B4B
:101D0C004ED1DA239B00EF583E4B013718003900B7
:101D1C009A4607F0D9FC3C4B002698460F2399466F
:101D2C003A4B9B4602E00436202E14D04C46B4406D
:101D3C003C40F440404621000A3C07F0C5FC052C11
:101D4C00F1D80623B340FF1839005846043607F083
:101D5C00BBFC202EEAD13900504607F0B5FCFF231E
:101D6C001F40DA2300229B00EF500433EA503CBCA6
:101D7C0090469946A246AB46F8BD254C1022200051
:101D8C00244907F0EFF92100234807F09DFCEEE70A
:101D9C00DB239B00C258002A0CD10122C250E6E77B
:101DAC0023221E491E4807F0DDF919491D4807F08A
:101DBC008BFCA6E7043BC758124B013718003900BF
:101DCC009A4607F081FC104B002698460F23994643
:101DDC000E4B9B4602E00436202EBCD04C46B44041
:101DEC003C40F440404621000A3C07F06DFC052CB9
:101DFC00F1D80623B340FF183900584607F064FCAD
:101E0C00E9E7C046ACB90120B8B90120C8B9012036
:101E1C00801A02207CBB0120DCB7012058BB0120BA
:101E2C008013022094B90120F8B5CE464746FA2219
:101E3C0080B59200835C0400202B00D18FE0412BF5
:101E4C0068D142238354E1239B00C358062B69DCE1
:101E5C00012B00DD0CE1002B00D1CBE0012B59D183
:101E6C00E2239B00C358072B54D8DE4A9B00D3585F
:101E7C009F46EA239B00C258092A08D9DA4DDB4950
:101E8C00280006F0FDFB2900D94807F01DFCE923CA
:101E9C009B00E258072A01D800F0DCFC1300083B39
:101EAC00012B01D800F042FDCF4DD049280006F09F
:101EBC00E7FB2900CE4807F007FCEA239B00E1581A
:101ECC000B00072901D800F0A2FD083B012B01D81B
:101EDC0000F0D1FCC44D0A002800C44906F0D0FB28
:101EEC002900C34807F0F0FBE9239B00E258072ABE
:101EFC0001D800F0A4FC1300083B012B01D800F022
:101F0C0008FDB94DB949280006F0BAFB2900B848BC
:101F1C0007F0DAFBF72301229B00E2500CBC904641
:101F2C009946F8BD073B022BF4D8EE239B00C3580F
:101F3C001B019B081A58F1239B00C250083BC35845
:101F4C001B019B081A58F2239B00C250083BC35834
:101F5C001B019B081A58F3239B00C250DAE741235C
:101F6C008354DA239B00C1180833C018082207F0E9
:101F7C00F9F8DC239B00E3581B019B081859D92363
:101F8C009B00E0500833E358002B21D1E1230F21B3
:101F9C009B00070F060EE7500E400433050DE6506C
:101FAC000D400433E550030C1940E4239B00E15031
:101FBC00AB005B195B009C46ED228C44634692009F
:101FCC00A350092F00D936E38A4BBA009A5897468A
:101FDC000F21E123070B0F409B00060AE7500E4030
:101FEC0004330509E6500D400433E5500140043339
:101FFC00E150DDE7E2239B00C358072B00D989E7AA
:10200C007D4A9B00D3589F46FF23EE22EF25010CFF
:10201C0019409200A150020A1A400340F020AD0072
:10202C0062514225800023502830255489000859DC
:10203C00F1219200890060501159F2229B0092000C
:10204C00A1501A59F3239B00E25063E7E9230122C4
:10205C009B00E5500433E1503433E2500C334132F1
:10206C00E254072E00D955E7644BB6009B599F46A6
:10207C00022B00D04EE7E2239B00C358062B00D165
:10208C0071E300DDE8E2042B00D15CE3052B00D00A
:10209C0040E7DF239B00C358012B00D03AE7200018
:1020AC00FFF71AFEDA23DE229B00E1589200A150C2
:1020BC003832A258E25000220433E2502AE7634639
:1020CC009B001A59EC239B00E250F72301229B0042
:1020DC00E2500C334132E254022F00D01AE7062EA4
:1020EC0000D148E300DDC4E2042E00D14BE3052E01
:1020FC0000D00FE7DF239B00E358012B00D009E74A
:10210C002000FFF7E9FDDA23DE229B00E158920064
:10211C00A1503832A258E25000220433E250F9E6C2
:10212C00CD229200A258C832920012591300EC2210
:10213C0063449200A350C8E7CB22F2E7EC2263463B
:10214C009200A350C1E7032E00DD79E2E9239B0046
:10215C00E5500833E150F72301229B00E2500C3389
:10216C004132E254072E00D9D4E6254BB6009B59D8
:10217C009F46CC22D5E7E923C8209B00E6580433C0
:10218C00E358B100C8339B001A59611892008000C3
:10219C0013000D58203BD540DB172B40072E00D9E0
:1021AC00C9E2A0221B011B09120613430B50B1E616
:1021BC00E923C8209B00E1580433E3588A00C83354
:1021CC009B001B59A218800015589B009D400729A5
:1021DC0000D998E2A0212B011B0909060B431350CF
:1021EC0098E6C046B0BB0120801A0220C0B701207F
:1021FC00DCB70120D0BB0120F8BB012018BC0120AA
:10220C0038BC0120EA239B00C258043BC358072B5F
:10221C0000D93BE2072A01D800F004FCD94D1D225D
:10222C002800D94906F09EFF2900D84807F04CFA3F
:10223C0070E6E9239B00C6580433B1004118C8204E
:10224C00E3588000C8339B001A590D5892001300B4
:10225C00D540203BDB172B40072E00D963E2A02290
:10226C001B011B09120613430B5053E6E9239B0079
:10227C00C15804338A008218C820E3588000C83340
:10228C009B001B5915589B009D40072900D942E221
:10229C00A0212B011B0909060B4313503AE6E92335
:1022AC009B00E5580433E358072D00D8EAE22A00D6
:1022BC00083A012A00D92DE6C8339B001B59C835B2
:1022CC00AD002B5126E6EA239B00E258092A08D9D7
:1022DC00AC4EAF49300006F0D3F93100AB4807F0F3
:1022EC00F3F9E9239B00E258072A00D89EE2130079
:1022FC00083B012B00D802E3A24EA549300006F0A2
:10230C00BFF93100A14807F0DFF9EA239B00E1583F
:10231C000B00072900D86FE3083B012B00D8A3E280
:10232C00984E0A0030009A4906F0AAF931009748F5
:10233C0007F0CAF9E9239B00E258072A00D869E2A2
:10234C001300083B012B00D8CCE28E4D904928009D
:10235C0006F096F929008D4807F0B6F9DAE5E9237D
:10236C009B00C5580433C358072D00D896E22A00A9
:10237C00083A012A00D9CDE5C8339B001B58C83553
:10238C00AD002B50C6E5EA239B00E258043BE35812
:10239C00072B00D99CE1072A00D93FE7C8269B00F0
:1023AC00C832E5189200B6001159A859FFF784F904
:1023BC00A851AFE5E923C8259B00E0580833E25843
:1023CC00810092006118AD0013004E59203BD6409D
:1023DC00DB173340072800D9F1E1A0221B011B09B0
:1023EC00120613434B5195E5E923EB229B00C3588E
:1023FC0092008258072B00D9E9E1A0211201C833C1
:10240C00120909069B000A431A5083E5E9239B0035
:10241C00E5580833E058072D00D892E22B00083B12
:10242C00012B00D976E5C823AD0065199B00EA584D
:10243C00801AE8506EE5E9239B00C15808338A00E6
:10244C008218C820E358800015589B009D4007292E
:10245C0000D9C7E1A0212B011B0909060B4313501E
:10246C0058E54C4D280007F02FF9E4239B00E35866
:10247C00022B00D11EE200DD41E1002B00D11FE256
:10248C00012B00D046E5E9239B00E358C8339B00A1
:10249C001B59002B00D11FE2DF2301229B00E250CD
:1024AC0038E5EB239B00C258083BC358072B00D8D8
:1024BC0076E219000839012900D92BE5C8219B00C7
:1024CC00C31889005858821A5A5023E5EB239B00F5
:1024DC00C258083BC358072B00D843E219000839EF
:1024EC00012900D916E5C8219B00C318890058584A
:1024FC00844662445A500DE5E9239B00C5580833C5
:10250C00C058072D00D85BE22B00083B012B00D9EB
:10251C0000E5C823AD0065199B00EA58801AE85005
:10252C00F8E4EB239B00E258083BE358072B00D858
:10253C0027E219000839012900D9EBE4C8219B00D6
:10254C00E31889005858844662445A50E2E4E9235F
:10255C00C8259B00C0580833E258810092006118CE
:10256C00AD0013004E59203BD640DB1733400728F3
:10257C0000D947E1A0221B011B09120613434B5142
:10258C00C8E4C046801A022038BB0120DCB7012009
:10259C00C0B701208CBB0120E923C8209B00E15867
:1025AC0008338A00E358A218800015589B009D4000
:1025BC00072900D91EE1A0212B011B0909060B4399
:1025CC001350A7E4E54D280007F07EF8E4239B00A8
:1025DC00E358022B00D16DE16EDC002B00D16FE1D2
:1025EC00012B00D14FE795E4EB239B00E258083B0D
:1025FC00E358072B00D8EFE119000839012900D95D
:10260C0088E4C8219B00E31889005858821A5A5054
:10261C0080E4E923EB229B00E3589200A258072B9D
:10262C0000D9C1E0A0211201C833120909069B0090
:10263C000A431A516EE4FA2342229B00E25469E4E5
:10264C00B31F012B00D986E5E9239B00E550043329
:10265C00E1500433E1507EE5072B00D05AE4EC2323
:10266C00DE229B00C358920082581B019B081A5013
:10267C0050E4072E00D04DE4EC23DE229B00E358FF
:10268C009200A2581B019B081A5143E41900083907
:10269C00012900D9C2E511000839012900D9BDE58D
:1026AC00C8219B00C832C318890092001258585890
:1026BC00844662445A502DE4032B00D02AE40021B6
:1026CC00A74807F001F8DF2301229B00E25021E428
:1026DC0019000839012900D9A0E511000839012990
:1026EC0000D99BE5C8219B00E31889005858C832D3
:1026FC0084469200125962445A50FFF70BFC032B8C
:10270C00DDD0FFF707FC0839012901D9FFF702FCDE
:10271C001550FFF7FFFB0839012901D9FFF7FAFB28
:10272C001550FFF7F7FB083E012E01D9FFF7F2FB1E
:10273C000B50FFF7EFFB083E012E01D9FFF7EAFB28
:10274C000B50FFF7E7FBFFF7C7FADA23DE229B00FB
:10275C00E1589200A1503832A258E25000220433C2
:10276C00E250FFF7D7FBDF239B00C358002B01D0AF
:10277C00FFF7D0FB93E4DF239B00E358002B01D041
:10278C00FFF7C8FBBCE42000FFF7A6FADA23DE2231
:10279C009B00E1589200A1503832A258E25000221E
:1027AC000433E250FFF7B6FB19000839012901D9AF
:1027BC00FFF7B0FBC8339B001A51FFF7ABFB08388F
:1027CC00012801D9FFF7A6FB4B51FFF7A3FB19001A
:1027DC000839012901D9FFF79DFBC8339B001A501A
:1027EC00FFF798FB0839012901D9FFF793FB155026
:1027FC00FFF790FB0839012901D9FFF78BFB155026
:10280C00FFF788FB0838012801D9FFF783FB4B51F0
:10281C00FFF780FBC8214D469200A218890053583F
:10282C001B0F1B071D435550FFF774FBC82192006B
:10283C00A218890053581B011B09535065E5C82188
:10284C009200A218890053581B0F1B071E435650A9
:10285C00FFF760FBC8219200A218890053581B0196
:10286C001B095350FFF729FB6031C90065582D0235
:10287C002B0A99465EE56031C90066583602360A65
:10288C00FFF732FBA021C8339B0018590906FEF74D
:10289C0013FFC835AD006051FFF73CFBA021C833D6
:1028AC009B0018580906FEF707FFC835AD006051AC
:1028BC00FFF730FBDF2300229B00E250FFF72AFBDF
:1028CC00280006F001FFE9239B00E358C8339B0066
:1028DC001B59002B00D1DFE5DF2300229B00E250C7
:1028EC00FFF718FBD300C022920094464946E31828
:1028FC0063441A68D217120706C3FFF70BFBD30009
:10290C00C02292009446E31863441A68D2175A60A6
:10291C00FBE4D300C02292009446E31863441A6887
:10292C001E60D21712075A60FFF7F4FAD300C022C8
:10293C0092009446E31863441A68D2175A60FFF762
:10294C00BCFAB02103011B0909061943FEF7B4FEBA
:10295C00C835AD006051FFF7DDFAC0468CBB0120D5
:10296C0098BB0120A021C8269B001201C518120992
:10297C00B6000906A8591143FEF79EFEA851FFF7B1
:10298C00C9FAA021C8269B001201E5181209B6004D
:10299C000906A8591143FEF78FFEA851FFF7BAFAA2
:1029AC009B00C518C826A023514209011B06B6007E
:1029BC000909A8591943FEF77FFEA851FFF7AAFA97
:1029CC00B02103011B0909061943FEF775FEC83532
:1029DC00AD006051FFF79EFA9B00E518C826A023B6
:1029EC00514209011B06B6000909A8591943FEF703
:1029FC0063FEA851FFF78EFAC8339B001D5910488F
:102A0C002D022D0A2A0006F05FFEA94692E4C83377
:102A1C009B001E590A483602360A320006F054FE54
:102A2C00FFF762FAC8269B00C832C5189200B600A0
:102A3C001158A859FEF740FEA851FFF76BFAC04693
:102A4C00D8B90120E1239B00C35870B50400062BB4
:102A5C005CDC012B00DD7FE0002B00D173E0012B4F
:102A6C0053D1E2239B00C358072B4ED8D04A9B006E
:102A7C00D3589F46EA239B00C258092A08D9CD4E49
:102A8C00CD49300005F0FCFD3100CC4806F01CFEB1
:102A9C00E9239B00E258072A00D8E6E11300083B23
:102AAC00012B00D807E2C34EC349300005F0E8FD06
:102ABC003100C24806F008FEEA239B00E1580B00E7
:102ACC00072900D822E2083B012B00D8D6E1B94EE9
:102ADC000A003000B84905F0D3FD3100B74806F0C4
:102AEC00F3FDE9239B00E258072A00D8B3E1130059
:102AFC00083B012B00D8D2E1AE4CAF49200005F0C9
:102B0C00BFFD2100AD4806F0DFFD70BD073B022B79
:102B1C00FBD8EE239B00C3581B019B081A58F123CA
:102B2C009B00C250083BC3581B019B081A58F22348
:102B3C009B00C250083BC3581B019B081A58F32337
:102B4C009B00C250E1E7E2239B00C358072BDCD863
:102B5C009B4A9B00D3589F46022BD6D1E2239B0065
:102B6C00C358062B00D15AE118DC042B06D0052BD8
:102B7C00CBD1DF239B00C358012BC6D12000FFF71C
:102B8C00ABF8DA23DE229B00E1589200A1503832D8
:102B9C00A258E25000220433E250B6E7072BB4D11E
:102BAC00EC23DE229B00C358920082581B019B0829
:102BBC001A50AAE7E9239B00C5580433A900411811
:102BCC00C820E3588000C8339B001A590C58920057
:102BDC001300D440203BDB172340072D00D8F5E031
:102BEC00083D012D00D990E70B508EE7E9239B009F
:102BFC00C258043391004118C820E3588000C833F0
:102C0C009B001B590C589B009C402300072A00D8A2
:102C1C00DCE0083A012A00D977E70B5075E7E92385
:102C2C009B00C5580433C358072D00D82CE12A004B
:102C3C00083A012A00D968E7C8339B001B58C835ED
:102C4C00AD002B5061E7EA239B00C258043BC358EC
:102C5C00072B00D9CDE0072A00D86EE1554C1D2278
:102C6C002000584906F07EFA2100544806F02CFD4D
:102C7C004BE7E923EB229B00C35892008258072BA9
:102C8C0000D9D3E0A0211201C833120909069B0018
:102C9C000A431A5039E7E9239B00C5580833C0583A
:102CAC00072D00D81FE12B00083B012B00D92CE786
:102CBC00C823AD0064199B00E258801AE05024E749
:102CCC00E9239B00C15808338A008218C820E358B6
:102CDC00800014589B009C40072900D9AFE0A0212C
:102CEC0023011B0909060B4313500EE7EB239B0032
:102CFC00C258083BC358072B00D8E5E01900083927
:102D0C00012900D901E79B00C418C8239B00E15896
:102D1C008A1AE250F9E6E923C8259B00C05808330B
:102D2C00E258810092006118AD0013004C59203B11
:102D3C00D440DB172340072800D986E0A0221B01D2
:102D4C001B09120613434B51DFE6EB239B00C258C1
:102D5C00083BC358072B00D8D0E0190008390129CB
:102D6C0000D9D2E69B00C418C8239B00E1588C46BE
:102D7C006244E250C9E6144D280006F0A5FCE42399
:102D8C009B00E358022B0ED027DC002B00D1C7E0B0
:102D9C00012B00D0B9E6E9239B00E358C8339B0014
:102DAC001B59002B20D1DF2300229B00E250ACE604
:102DBC0058BC0120801A0220C0B70120DCB70120CA
:102DCC0078BC012038BB01208CBB0120A0221B0148
:102DDC001B09120613430B5097E6032B00D094E605
:102DEC0000215C4806F070FCDF2301229B00E250BE
:102DFC008BE619000839012900D92FE71100083991
:102E0C00012900D92AE7C8219B00C832C3188900C0
:102E1C00920012585858844662445A5075E6DF2383
:102E2C009B00C358002B00D06FE6A7E619000839A9
:102E3C00012900D969E6C8339B001A5065E60839A8
:102E4C00012900D961E614505FE60838012800D941
:102E5C005BE64B5159E69200A418C8229200A35885
:102E6C001B0F1B071D43A5504FE6C8219200A2184B
:102E7C00890053581B011B0953501DE66031C900D2
:102E8C0065582D022D0A2CE6A021C8339B0018583A
:102E9C000906FEF711FCC835AD00605135E6C023BC
:102EAC009B009C46D200A418644423682560DB1761
:102EBC001B07636029E6C023D200A2189B00D3181D
:102ECC001A68D2175A60F7E59B00C418A023514228
:102EDC00090109091B061943C825AD006059FEF705
:102EEC00EBFB605111E6B02103011B0909061943E4
:102EFC00FEF7E2FBC835AD00605106E6A0211201D9
:102F0C009B0012090906C4181143E5E7C8339B005E
:102F1C001D5911482D022D0A2A0006F0D5FBE0E5BB
:102F2C00280006F0D1FBE9239B00E358C8339B0033
:102F3C001B59002B00D036E756E7C8249B00C8323B
:102F4C00C5189200A40011582859FEF7B5FB28515A
:102F5C00DBE5C04698BB0120D8B90120DB239B00E0
:102F6C00C358F0B5002B27D0D9230F219B00C45890
:102F7C002033220B0A40260AC2500E400433250986
:102F8C00C6500D400433C55021400433C150ED27C9
:102F9C00AB005B195B005B18BF00C351092A0AD850
:102FAC002A4F9200BA589746032E44DCE9239B0023
:102FBC00C5500833C150F0BDD9230F219B00C45814
:102FCC002033220F260EC2500E400433250DC6505E
:102FDC000D400433C550230C1940E4239B00C15011
:102FEC00D5E7CB2292008258C83292001258D318DF
:102FFC00EC2292008350DEE7FF23EE21220C1A40D4
:10300C0089004250220A1A401C40F02304319B00D4
:10301C004250C450CFE7E9239B00C5500433C15044
:10302C00C9E79B001A58EC239B00C250C3E7CC2283
:10303C00D8E7CD22D6E7063E012EBCD8E9239B006B
:10304C00C5500433C1500433C150B4E798BC0120BF
:10305C00F0B5C646FA2600B5B600855D0400422DD3
:10306C000CD019D8202D45D0412D0ED1422383559B
:10307C00FFF7E8FCF72301229B00E2504323A35502
:10308C00E1239B00E358012B30D9F72301229B004D
:10309C00E25004BC9046F0BD432DF6D1412383553C
:1030AC00DA239B00C11808330822C01806F05AF81E
:1030BC00DC239B00E35820001B019B081A59D923E1
:1030CC009B00E250FFF74AFF0123F7279846BF0009
:1030DC00E3514133A3552000FFF7B4FC4346E351C1
:1030EC00E123A5559B00E358012BCED82000FEF719
:1030FC00F3FDCAE741238355DA239B00C11808333B
:10310C000822C01806F02EF8DC239B00E3582000A0
:10311C001B019B081A59D9239B00E250F725FFF796
:10312C001DFF01274223AD0067512000A355FFF777
:10313C0089FC43236751A355E1239B00E358012BE2
:10314C00A3D8D3E7F423F0B5C6469B00C3580400BC
:10315C0000B5002B0BD0F5239B00C658002E09D0D0
:10316C00043B9C460022002364442260636004BC40
:10317C009046F0BDFA27BF00C55D422D0BD016D886
:10318C00202D40D0412D0DD14223C355FFF75AFCC1
:10319C00F7239B00E6504323E355E1239B00E358C0
:1031AC00012B2CD9F72300229B00E250DFE7432DA3
:1031BC00F8D14123C355DA239B00C11808330822E8
:1031CC00C01805F0CFFFDC239B00E35820001B0147
:1031DC009B081A59D9239B00E250FFF7BFFEF72337
:1031EC009B00E650984642232000E355FFF72AFC4B
:1031FC004346E650E555583BE358012BD2D8200006
:10320C00FEF76AFDCEE74123C355DA239B00C118B4
:10321C0008330822C01805F0A5FFDC239B00E358F7
:10322C0020001B019B081A59D9239B00E250F7255B
:10323C00FFF794FE4223AD0066512000E355FFF7E3
:10324C0001FC6651A7E7C046DA23F0B5544C9B004D
:10325C00C646E2580433E3582126591E8B4100B56B
:10326C00504F5B425049334096B02033380088466B
:10327C0005F006FA4D4D4E493A00280005F000FACB
:10328C00DC239B00E2580433E3583800591E8B4171
:10329C005B4233402033414605F0F2F93A00454990
:1032AC0002A805F0EDF9280002A913F095F8D42333
:1032BC009B00E3180CCB511C68D03F4E3F493000AB
:1032CC0005F0DEF932003E4902A805F0D9F902A951
:1032DC00280013F081F8D9239B00E258394902A841
:1032EC0005F0CEF902A9280013F076F8F521F423A5
:1032FC00DF22890061589B009200E358A25802A873
:10330C000091314905F0BCF9280002A913F064F8CA
:10331C00D6239B00E258531C40D02C4E2C49300035
:10332C0005F0AEF932002B4902A805F0A9F92800E6
:10333C0002A913F051F8D7239B00E258531C2BD051
:10334C00224E2349300005F09BF93200224902A895
:10335C0005F096F9280002A913F03EF8D8239B003B
:10336C00E258531C16D0194C1949200005F088F965
:10337C0022001A4902A805F083F9280002A913F0CB
:10338C002BF8280016B004BC9046F0BD591C94D103
:10339C00134A98E7134AECE7124AD7E7114AC2E7F7
:1033AC0040160220C0120220D0BC0120481402207A
:1033BC00D8BC0120ECBC01205012022000BD012021
:1033CC0008BD01201CBD012034BD0120801202204B
:1033DC005CBD012064BD012078BD01208CBD0120A5
:1033EC00C0BC0120CCBC0120F0B5D6464F464646A9
:1033FC004A48C0B506F068F9494806F065F9FFF788
:10340C0023FF0100474806F05FF9474B002499461B
:10341C00464B474D9846474E474F0DE022324146AA
:10342C00380005F02DF93A0021003000013406F087
:10343C004BF90435082C18D02B685A1C63D01A0F82
:10344C001B011B090A2A5CD00B2AE7D03A49043528
:10345C008A463A49504605F013F92100524630008D
:10346C00013406F031F9082CE6D1D023344C9B0002
:10347C00E3180CCB511C48D0324D3349280005F0D1
:10348C00FFF82A000821300006F01EF9D2239B0019
:10349C00E3180CCB511C3CD02A4D2B49280005F0CD
:1034AC00EFF82A000921300006F00EF90A2005F089
:1034BC0063FF264806F008F9254806F005F9E923CC
:1034CC009B00E158234806F0FFF8EA239B00E158E3
:1034DC00214806F0F9F8EB239B00E1581F4806F051
:1034EC00F3F8ED239B00E258043BE1581C4806F02E
:1034FC00EBF80A2005F040FF1CBC90469946A2460A
:10350C00F0BD2B228BE74A468EE7591CB4D1064AF4
:10351C00B8E7591CC0D1044AC4E7C046A0BD01207D
:10352C00A8BD0120B0BD0120C0BC0120C0BD012040
:10353C0060190220C8BD012040120220B4BD012038
:10354C00401602205012022000BD0120D8BD0120DF
:10355C00E4BD0120F0BD012004BE012018BE0120F5
:10356C002CBE012030B5B3B0050001F073F918483A
:10357C0001F0A0FB041E1FD02900164805F080F8AE
:10358C002800154911F072FC041E18D0134D03E0ED
:10359C006946280006F098F82200C721684611F009
:1035AC00F7FC0028F4D1200011F0D4FC012401F028
:1035BC006FF9200033B030BD01F06AF9F9E729004A
:1035CC00074806F081F8002401F062F9F1E7C046E3
:1035DC0000B4012050BE012048CC012090C0012035
:1035EC0060BE0120F0B5B3B0050001F033F92148FD
:1035FC0001F060FB041E32D029001F4805F040F892
:10360C0028001E4911F032FC061E2BD01C4F320034
:10361C00C721684611F0BCFC002817D06B461B78FC
:10362C002A2BF4D1174C250050356A46210038005E
:10363C00636898470028EAD10834AC42F5D13200CF
:10364C00C721684611F0A4FC0028E7D1300011F026
:10365C0081FC012401F01CF9200033B0F0BD01F015
:10366C0017F9F9E72900084806F02EF8002401F0B4
:10367C000FF9F1E700B4012050BE012048CC012025
:10368C004016022054EB012060BE012010B5010051
:10369C0004000748FFF7A6FFF92200239200A3506D
:1036AC00043AA350F72301229B00E25010BDC04600
:1036BC00F81C022010B502490248FFF793FF10BD19
:1036CC004016022074BE0120F0B5C64600B55C4C15
:1036DC000500A54401A812F0EBFE01A9594805F01C
:1036EC00F3FF01F0B7F8584801F0E4FA041E00D1DA
:1036FC0097E00A2201A906A80DF0F0FC002876D16B
:10370C00524906A810F092F9DA239B00EA58504966
:10371C0006A810F08BF9DB239B00EA584D4906A84C
:10372C0010F084F9D4239B00EB181A685B684A49A3
:10373C0006A810F07BF9D6239B00EA58474906A847
:10374C0010F074F9D7239B00EA58454906A810F0ED
:10375C006DF9D8239B00EA58424906A810F066F987
:10376C00D9239B00EA58404906A810F05FF9DE23E4
:10377C009B00EA583D4906A810F058F9C8230024CC
:10378C009B003B4FEE182200390008CE06A80134EE
:10379C0010F04CF9082CF6D1C823364C9B002100B4
:1037AC000822EB5806A810F041F9C9239B00210010
:1037BC00EB58092206A810F039F92F4906A810F089
:1037CC0035F92E4B0024072698462D4F08E0A30010
:1037DC003900EA5806A8013410F028F9C82C13D087
:1037EC002642F4D1414606A810F020F9EFE725480F
:1037FC0005F06AFF002401F04BF820009E239B008B
:10380C009D4404BC9046F0BD1F4906A810F00EF96B
:10381C0006A80FF0CBF8041E06D101F039F80124EC
:10382C00EBE701F035F8E8E711F014FB220001009A
:10383C00164805F049FF002401F02AF8DDE7C046E0
:10384C0088FDFFFF80BE012000B4012098BE01203E
:10385C00C4BE0120D8BE0120ECBE012000BF012057
:10386C001CBF012038BF012054BF012070BF0120B4
:10387C0088BF012094BF0120A4BF0120B0BF01204C
:10388C00B4BF01208CBE0120A8B90120BCBF01200F
:10389C0030B504000C4D85B02A000C4B0C490D487A
:1038AC0001F07CFA0C4B29001A686846013204F0CE
:1038BC00E7FE69462000FFF707FF6946074805F059
:1038CC0003FF05B030BDC046E0BF0120D4BF0120CE
:1038DC00F0BF012000B401200C120220FCBF01201B
:1038EC0010B5094800F0DEFF002808D0074C084846
:1038FC002100FFF7E9FE2000FFF734FE10BD05495B
:10390C00054805F0E1FEF1E700B4012074BE01208A
:10391C0040160220301C022014C00120F0B5DE46F7
:10392C0057464E464546E0B504009DB00A2005F0CA
:10393C0023FDD4239B009A46A24453460CCB511C26
:10394C0000D1B3E1E54DE649280004F099FEA84604
:10395C00DA23DB269B009B46B600A35921255A1E71
:10396C009341E04AE04F91465A465B422B4020334C
:10397C004946A258380004F083FE41463A00DB4821
:10398C0005F0A2FE0A2005F0F7FCD94BD949132209
:10399C001800984605F0E6FB5B46E258A359380040
:1039AC00591E8B415B422B402033494604F068FE84
:1039BC0053461B685A1C00D147E21A0F1B011B0906
:1039CC000A2A00D1CAE10B2A00D068E12232CA4D82
:1039DC00CA49280004F054FE2B0003AD3A00C84934
:1039EC00280004F04DFE2900404612F0F5FCC54EAF
:1039FC00300000F05DFEDA239B00E2580433E358FC
:103A0C003800591E8B41594221230B402033494623
:103A1C0004F036FE53461B685A1C00D113E21A0FF1
:103A2C001B011B090A2A00D1A2E10B2A00D097E145
:103A3C002232B1498A46B149504604F021FE534620
:103A4C003A00B149280004F01BFE0022002130008E
:103A5C0000F064FD2900300000F0B6FDE0239B006F
:103A6C00E358002B00D033E1DC239B00E2580433F5
:103A7C00E3583800591E8B41594221230B40203307
:103A8C00494604F0FDFDD9239B00E2589F4BA04909
:103A9C0018009A4604F0F4FDFA239B00E35C3A000C
:103AAC000093280053469B4904F0EAFDE0239B0059
:103ABC00E358002B00D005E1DC239B00E2580433D3
:103ACC00E3583800591E8B41594221230B402033B7
:103ADC00494604F0D5FDD9239B00E2588B4B8C4909
:103AEC001800994604F0CCFDFA239B00E35C3A00E5
:103AFC00009328004B46884904F0C2FD082200219F
:103B0C00300000F00BFD2900300000F05DFD2900B5
:103B1C00404612F061FCE9239B00E35899460133BF
:103B2C0000D1C9E04B46072B00D872E17B4F7C4B90
:103B3C0039001800994612F0BBFC4A467949280016
:103B4C0004F09EFD2900404612F046FCE9239B0040
:103B5C00E3589A46013308D05346072B00D809E1A5
:103B6C006E4F3900484612F0A3FC4946280012F06B
:103B7C009FFC10220021300000F0D0FC2900300006
:103B8C0000F022FDEA239B00E3589946013300D153
:103B9C0095E04B46072B00D821E1604F624B390072
:103BAC001800994612F084FC4A466049280004F03B
:103BBC0067FD2900404612F00FFCEA239B00E358F6
:103BCC009A46013308D05346072B00D8EDE0534FEB
:103BDC003900484612F06CFC4946280012F068FC8B
:103BEC0018220021300000F099FC2900300000F070
:103BFC00EBFC4F4B29001A68404603921B792B7142
:103C0C0012F0EAFBD8239B00E258531C15D0130189
:103C1C00484F9B081B59484938009A4604F030FD20
:103C2C00464B524699461800394904F029FD4B463B
:103C3C003A002800424904F023FD2900404612F0C6
:103C4C00CBFBD8239B00E258531C14D013019B08C8
:103C5C001B59384C99463849200004F011FD374F58
:103C6C004A462B49380004F00BFD3B00220028008B
:103C7C00344904F005FD20223000002100F04EFCF8
:103C8C002900300000F0A0FC41462F4805F01CFD37
:103C9C001DB03CBC90469946A246AB46F0BD164DB5
:103CAC002A49280004F0ECFC2B0096E6591C00D0A5
:103CBC0048E6274B98464BE6194B99463DE71A4B7D
:103CCC00994671E74B222800224904F0D9FC15E7EC
:103CDC004B222800204904F0D3FCE7E650120220C6
:103CEC0000BD0120D0BC0120C01202202CC001203C
:103CFC005C1B022050C0012040120220C0BD0120DC
:103D0C0064C0012004FB012068C001209012022035
:103D1C001CBA01207CC0012080C00120601202204E
:103D2C00A01202208CC00120B012022094C00120ED
:103D3C009CC00120801202205CBD012030120220A8
:103D4C00A4C00120A8C00120B4C00120B4BD012032
:103D5C00C0BC012078C0012074C001202B2236E6A3
:103D6C0051498A465149504604F08AFC534667E64D
:103D7C002B225EE6C8339B001B595A1C00D190E0E5
:103D8C001A0F1B011B090A2A68D00B2A5FD1223299
:103D9C00454F4749380004F073FC3B00454F5246F1
:103DAC003800454904F06CFCDBE6C8339B001B591A
:103DBC005A1C70D01A0F1B011B090A2A69D00B2A36
:103DCC0060D12232384F3A49380004F059FC3B009C
:103DDC00384F52463800384904F052FCF8E6C833E4
:103DEC009B001B595A1C58D01A0F1B011B090A2A7D
:103DFC0046D00B2A3DD122322B4F2D49380004F0EE
:103E0C003FFC3B002B4F4A4638002B4904F038FC52
:103E1C00C4E6C8339B001B595A1C40D01A0F1B0117
:103E2C001B090A2A23D00B2A1AD122321E4F2049F1
:103E3C00380004F025FC3B001E4F4A4638001E4952
:103E4C0004F01EFC73E61D4BFAE51C4BC5E5164F42
:103E5C001649380004F014FC3B009FE72B2297E72F
:103E6C00114F1249380004F00BFC3B00E4E72B2205
:103E7C00DCE70D4F0D49380004F002FC3B00C1E7B4
:103E8C002B22B9E7084F0949380004F0F9FB3B0035
:103E9C009EE72B2296E7094B9AE7084BB2E7074BB4
:103EAC00CAE7064B7AE7C04640120220B4BD012097
:103EBC00C0BD01206012022020C00120C0BC012026
:103ECC00F0B5DE4657464E464546E0B58FB0B04895
:103EDC0009AB08AA07A901F085F8002803D1AC4961
:103EEC00AC4802F0EFFD099A0899079801F03EF8EA
:103EFC0005F0F6FBFA20C00002F07EF80A2005F06F
:103F0C003BFAA54C200005F0DFFBA44805F0DCFBD8
:103F1C00200005F0D9FB0A2005F02EFAFDF760F819
:103F2C009F4800F0F3FA9F4B9846180000F03EFCB7
:103F3C009D4805F0C9FB10F085FE00F08BFC00F0ED
:103F4C00A7FC15220021404600F0E8FA974B1B68AD
:103F5C00002B00D113E14046954900F035FB954804
:103F6C0005F0B2FB00F076FC934800F0A3FE0028AD
:103F7C0000D000E1914805F0A7FB9149914805F06C
:103F8C00A3FB00F085FC904802F036F8404600F0A8
:103F9C008FFB00221421404600F0C0FA40468B49AA
:103FAC0000F012FB08221E21404600F0B7FA4046F2
:103FBC00874900F009FB10221E21404600F0AEFAA2
:103FCC004046844900F000FB834805F07DFB834BA1
:103FDC00834C9946834B844E9B46D0231B069A46B2
:103FEC004B461B680A21581C04F0FEFB4B4619601B
:103FFC00012971D009290AD12000FDF753F806E0F8
:10400C0000F0AEF921000200300000F07BF900F066
:10401C00BFF90028F4D0FA20800005F067FB431CA0
:10402C0072D00023714A03E001330C32282B2DD0BF
:10403C0011788842F8D16E4A10605A00D3186B4A36
:10404C009B00944663449B6898476A496A4805F00C
:10405C003BFB6A496A4B086859461B68096804931C
:10406C00684B4D1EA9411B68494205935A1E93414A
:10407C0021225B4213400A4020320292049A0190A2
:10408C00009011006048203305F01EFBF7239B00C5
:10409C00E258002AA4D00022E2500433E358002B4B
:1040AC003CD1F9239B00E358002B33D0404600F061
:1040BC00FFFA08224046002100F030FA40465349EE
:1040CC0000F082FA40461022002100F027FA404608
:1040DC004F4900F079FA83E75346022299619A61BD
:1040EC00524604239361043393614A4B1B685A1C58
:1040FC00049303231340474A1360474A9B00D35849
:10410C0099405346596182E7012000F00BF905F004
:10411C005BFABBE72000FFF701FC61E7404600F0CB
:10412C00C7FAFB239B000622E158234800F09CFCB5
:10413C000025374F0DE03949202209A804F0A0FAD8
:10414C00404609A900F040FA072D00D148E7013597
:10415C00143700214046EA0000F0E0F93B00002D46
:10416C00E9D13E222D4909A804F08AFA404609A952
:10417C0000F02AFAEBE72A4805F0A6FA01E74046D8
:10418C00284900F021FA284805F09EFAEAE6C046D4
:10419C00580F020094C10120D4C0012024C1012079
:1041AC0000FB012004FB012074C10120D812022065
:1041BC00C8C10120D4C1012000B4012000C20120DB
:1041CC00301C0220B0BD0120B80B000038C2012009
:1041DC0048C2012050C201205CC20120FC11022007
:1041EC00401602203C0C022044E8012084EC012003
:1041FC0000120220181302200CB60120280C0220F9
:10420C0014120220400C022024B60120C4C001204C
:10421C00F81C0220E411022050C50120BCC0012072
:10422C0020C20120E0C10120F0C10120F8B54746B1
:10423C00CE46856880B52B681700804689462C00D1
:10424C001E1E426805D124E00134FF342668002E7E
:10425C0023D0B242F8D104E00135FF352B68002B96
:10426C0001D09A42F8D1002C13D0390048462500D1
:10427C00E3689847002610356B68002B09D038008E
:10428C00296800F091F8002809D101360C35142E5C
:10429C00F2D10CBC90469946F8BD0024E1E77000C1
:1042AC0083199B00E318596943469A681368002BDD
:1042BC0025D1801980002418A369002B03D0390064
:1042CC0048469847616943465B688B42E1D0434658
:1042DC0059609B681A68002A05D1DAE70133FF336D
:1042EC001A68002AD5D09142F8D1390048469B680B
:1042FC009847CEE70132FF321368002BD9D0994290
:10430C00F8D1D6E770B51600C26804000D00002A7B
:10431C0005D1320029002000FFF788FF70BDFFF7A0
:10432C0085FFF6E770B50A4C050023680A21581C76
:10433C0004F05AFA074B1B688B4204D0064B8A00D8
:10434C00D550216070BD0122044B1A60FAE7C046BB
:10435C004413022048130220081C02204C13022094
:10436C0010B5084B084C1B682068834208D00A2102
:10437C00013004F039FA054B8A00D058216010BD89
:10438C000120FCE74413022048130220081C0220E1
:10439C00034B1868034B1B68C01A434258417047C3
:1043AC0044130220481302200300112906D00120D7
:1043BC00122902D0C91A4842484170470B3B1800D9
:1043CC0000210923834249410800F6E7F8B5D024BF
:1043DC00802780252406FF012D0201200021A762E1
:1043EC0001F0F2FD01200021A56201F0EDFD6562F6
:1043FC0001200021A56101F0E7FD07260120002125
:10440C006762A76101F0E0FD01200021A56201F0C7
:10441C00DBFD013E656201200021A56101F0D4FDA8
:10442C00002EEBD1D0248025802324061B02ED0125
:10443C00A5620120A362002101F0C6FD642302E005
:10444C00013B002B0FD062682A42F9D10124D02302
:10445C0080221B0612025A62012000219A6101F08F
:10446C00B3FD2000F8BD0024F1E7C0468023F0B571
:10447C00C646D0258026DB0104000827984600B5E7
:10448C002D06360216E043466B62AB61012000211B
:10449C0001F09AFD01200021AE6201F095FD64004F
:1044AC006E6201200021AE61013F01F08DFDE4B28E
:1044BC00002F05D063B2002BE5DA4346AB62E5E78B
:1044CC00D0248025802324061B02ED01A562012047
:1044DC00A362002101F078FD642302E0013B002B74
:1044EC0011D062682A42F9D10124D02380221B0604
:1044FC0012025A62012000219A6101F065FD200030
:10450C0004BC9046F0BD0024EFE7C04610B50E2069
:10451C0000F04EFE0F2000F04BFE10BD7F2370B557
:10452C000500C817400E09181940091AD017800E3B
:10453C0013183F2213401B1AD817383A0240D218CE
:10454C000F2382B0C817D210060F01AC503A22705C
:10455C008A191A4003405B181B111033921BA3706D
:10456C00D02680233606DB016270012073620021A5
:10457C00B36101F029FD80231B0273620120B3613A
:10458C00002101F021FD28794000C0B2FFF76EFF39
:10459C006B46DD1DFFF71AFF20780134FFF766FF2D
:1045AC00AC42F7D1D024802324061B02A362012045
:1045BC00002101F009FD8023DB0101200021A36211
:1045CC0001F002FD02B070BDF8B54E464546DE4620
:1045DC0057468046E0B508000E0011F071FF002828
:1045EC005ED080278346D024FF01BA46B34424060C
:1045FC0035780120203DAB005D192C4B00219C46E9
:10460C0053466362A361654401F0DEFC80231B0208
:10461C00002163620120A36101F0D6FC43461879A6
:10462C004000C0B2FFF722FF4020FFF71FFF6B1DB9
:10463C00994628780135FFF719FFA945F9D180254E
:10464C002D0201200021A56201F0BEFC01200021F9
:10465C00A76201F0B9FC012000216762A76101F09B
:10466C00B3FC002101206562A56101F0ADFC43465D
:10467C00187901364000C0B2FFF7F8FE4020FFF772
:10468C00F5FE0020FFF7F2FE01200021A56201F0EB
:10469C009BFC01200021A76201F096FCB345A7D139
:1046AC003CBC90469946A246AB46F8BD60C501207D
:1046BC000023F0B557464E464546DE4699468023C4
:1046CC00E0B5DB01D0248025824698469B464E46B9
:1046DC0083B001AF24062D02F310503B3B70002336
:1046EC007B701033BB705B46012063620021A361B9
:1046FC0001F06AFC012000216562A56101F064FCF7
:10470C00534618794000C0B2FFF7B0FE33003E00AC
:10471C009946FFF75BFE3078FFF7A8FE6B46013633
:10472C0007339E42F5D101200021A56201F04CFC1B
:10473C00434601200021A36201F046FC43460120C0
:10474C0063620021A36101F03FFC0021012065623E
:10475C00A56101F039FC534618794000C0B2FFF74F
:10476C0085FE4020FFF782FE80231E000E4B013E8B
:10477C001878FFF77BFE002EF8D101200021A562EE
:10478C0001F022FC4E46434601200021A36208366C
:10479C0001F01AFC402E9FD103B03CBC90469946C8
:1047AC00A246AB46F0BDC04678130220F8B5D02423
:1047BC0080268025070024062D02F6016662012062
:1047CC0065620021A661A5616662A66101F0FCFB31
:1047DC0065620120A561002101F0F6FBA5620120B4
:1047EC00002101F0F1FB01200021A66201F0ECFB9D
:1047FC00666201200021A66101F0E6FB65620120E2
:10480C00A561002101F0E0FB38794000C0B2FFF750
:10481C002DFE0F4C25001E35FFF7D8FD20780134F6
:10482C00FFF724FEAC42F7D1D024802324061B02D0
:10483C00A3620120002101F0C7FB8023DB010021D2
:10484C00A362012001F0C0FB3800FFF731FFF8BD77
:10485C0040C70120002310B5084C01220849094823
:10486C0023600CF069FB002802D10123236010BDEA
:10487C000C220549054804F075FCF8E7D812022013
:10488C0060C70120981D022064C70120301C022043
:10489C0010B50022002002490CF04EFB10BDC046A2
:1048AC0060C70120F0B5604CFB22A5440024002118
:1048BC00060035A8349404F04FFC5C4D5C4F01228B
:1048CC0029005C483C600CF037FB002800D09EE0CF
:1048DC0001233B6028000EF0A5F800230021FB22E9
:1048EC0075A8749374AC04F037FC28000EF09AF899
:1048FC00FF2120000EF038F9002800D081E03100B3
:10490C00200011F091FD002800D06EE0FF2134A8AA
:10491C000EF02AF9061E59D134A9474804F0D4FEEA
:10492C00582200211EA804F017FC902200215200EE
:10493C00200004F011FC2100404B34AA1EA80EF0FC
:10494C005DFD061E69D13E4E05E021001EA80EF04D
:10495C00E3FC00282AD1A37E002B27D010221100C3
:10496C00237B19401A42F0D16B461970F5235B007A
:10497C006B441900300004F0A7FEF52040006B4694
:10498C0030490AAA684411F087FC0028DDD068463B
:10499C002D4911F049FD0028D7D12C4804F094FE84
:1049AC0021001EA80EF0B8FC0028D4D01EA80EF0D2
:1049BC007BFC0A2004F0E0FC0022290000200CF013
:1049CC00BBFA0120BD239B009D44F0BD10F042FAC0
:1049DC00330002001E491F4803F052FE002229003A
:1049EC0000200CF0A9FA0020ECE730000EF038F8AB
:1049FC00002800D18AE702001749164803F040FE50
:104A0C0084E702001549134803F03AFE7EE70C22B6
:104A1C001349104804F0A6FB5CE710F01BFA3300B6
:104A2C0002001049D7E7C0460CFDFFFF60C701200C
:104A3C00D8120220981D0220B8C7012008B7012007
:104A4C00B0BD0120ECC70120F8BF0120F8C7012040
:104A5C009CC70120301C022080C7012070C7012098
:104A6C0064C70120D0C70120F0B5DE464546574645
:104A7C004E46E0B500257E4C8B46A5440021040033
:104A8C00904635A8FB22349504F066FB794E7A4F9C
:104A9C000122310079483D600CF04EFA002800D01C
:104AAC00CDE001233B6030000DF0BCFF0023002162
:104ABC00FB2275A8749374AD04F04EFB30000DF01E
:104ACC00B1FFFF2128000EF04FF8002800D0B0E015
:104ADC002100280011F0A8FC002800D09DE0FF2147
:104AEC0034A80EF041F8041E00D087E043465A4625
:104AFC0034A9634804F0E8FD582200211EA804F0F4
:104B0C002BFB902200215200280004F025FB2900E9
:104B1C005C4B34AA1EA80EF071FC071E00D094E06A
:104B2C002823594CE0541433E0541433E054143318
:104B3C00E0541433E0541433E05400231F009A461D
:104B4C00524B20709946207505E029001EA80EF0E6
:104B5C00E3FB00282FD1AB7E002B2CD010221100B0
:104B6C002B7B19401A42F0D16B461970F5235B0070
:104B7C006B441900484604F0A7FDF52040006B4635
:104B8C0043490AAA684411F087FB0228DDD1684624
:104B9C00404911F049FC0028D7D1D34502DC3B0039
:104BAC00B84558DC01239C4629001EA8E2440EF0AF
:104BBC00B3FB0028CFD000251EA80EF075FB0A20F1
:104BCC0004F0DAFB344F220029003800013504F0E0
:104BDC007BFD1434082DF6D10A2004F0CDFB002205
:104BEC00310000200CF0A8F90120BD239B009D444E
:104BFC003CBC90469946A246AB46F0BD10F02AF953
:104C0C00230002002549264803F03AFD002231001A
:104C1C0000200CF091F90020E7E720000DF020FFB8
:104C2C00002800D15BE702001E491D4803F028FD57
:104C3C0055E702001C491A4803F022FD4FE70C22ED
:104C4C001A49174804F08EFA2DE710F003F93B00CF
:104C5C0002001749D7E79C469800F52360445B0097
:104C6C006B44800019000019013711F021FC99E701
:104C7C000CFDFFFF60C70120D8120220981D0220F6
:104C8C0000C8012008B70120F81C0220B0BD01208B
:104C9C00ECC70120F8BF01203CC801209CC70120B3
:104CAC00301C022080C7012070C7012064C701207E
:104CBC00D0C70120002310B5C0B00021FB22040096
:104CCC0001A8009304F048FA12480DF0ABFEFF2146
:104CDC0068460DF049FF002814D12100684611F0F8
:104CEC00A3FB002802D1012040B010BD20000DF024
:104CFC00B7FE0028F7D002000749084803F0C0FCB3
:104D0C000020F1E702000649044803F0B9FC00203A
:104D1C00EAE7C04660C7012080C70120301C022092
:104D2C0070C70120F8B50023154D164E04000F0076
:104D3C0001222900144833600CF0FEF8002819D128
:104D4C00012333602000FFF7B5FF00280FD0380097
:104D5C000EF0CAFB002805D12900002200200CF01F
:104D6C00EBF8F8BD3900094804F0AEFCF4E721007B
:104D7C000748F9E70C220749074804F0F3F9E1E783
:104D8C0060C70120D8120220981D02205CC80120A7
:104D9C0044C8012064C70120301C0220F0B5CE4667
:104DAC00474680B5634CFB22A544002405000F0048
:104DBC0019A800219946189404F0CEF95E4E5F4B69
:104DCC00012231005E4898461C600CF0B5F80028B2
:104DDC0000D099E001234246136000230021FB22FE
:104DEC0059A8589358AC04F0B7F930000DF01AFEDE
:104DFC00FF2120000DF0B8FE002800D07AE0290039
:104E0C00200011F011FB002868D1FF2118A80DF02B
:104E1C00ABFE051E4ED118A94A4804F055FC582289
:104E2C00002102A804F098F99022002152002000E1
:104E3C0004F092F9444B21001D60984618AA4B4689
:104E4C0002A80EF0DBFA051E64D1103505E0210036
:104E5C0002A80EF061FA00281DD1A37E002B1AD0F7
:104E6C002A00237B1A401D42F1D1BD235B006B4409
:104E7C0018000192390001AA11F00EFA4246019B6A
:104E8C0012689342E3DD4246210002A813600EF043
:104E9C0043FA0028E1D002A80EF006FA00223100F5
:104EAC0000200CF049F843462848196804F00CFC23
:104EBC0001200CE00FF0CEFF2A000100244804F082
:104ECC0003FC0022310000200CF036F80020A12356
:104EDC009B009D440CBC90469946F0BD28000DF0FB
:104EEC00BFFD002800D190E702001A491A4803F0D0
:104EFC00C7FB04E002001949174803F0C1FB290065
:104F0C00174804F0E1FBDCE70C221649124804F0C8
:104F1C0029F962E70022310000200CF00DF828007E
:104F2C000FF098FF2A0001000F4804F0CDFB002081
:104F3C00CDE7C0467CFDFFFF60C70120D8120220E0
:104F4C00981D022078C801200C120220B0C8012044
:104F5C009CC7012080C70120301C022070C7012093
:104F6C0044C8012064C7012090C80120F0B583B06B
:104F7C0005000E00140000F0ABF9002801D003B0BE
:104F8C00F0BD154F01223B0001210097053001F0C7
:104F9C00B7FD33002A0000940121104801F09EFF58
:104FAC0021002800714303F047FC04000C4B002245
:104FBC0000930221042001F0A3FD23000022012113
:104FCC000094052001F09CFD3B000222002100977B
:104FDC00062001F095FDD2E7006CDC020080024057
:104FEC00001BB700F0B5DE4657464E464546E0B5C9
:104FFC00070083B004209B460091019201F068FFEA
:10500C00FA21890003F018FC32238246FF339946BB
:10501C0086005644B6014C4B4C4AF3180724934275
:10502C000BD901235B429C465346E144F61A4B468E
:10503C00002BF0D100205AE0012421003000614304
:10504C0003F0FAFB874259D0631E9846012CE8D036
:10505C001D0065433000290003F0EEFB874251D060
:10506C00A31E9846022CE7D02D1B2900300003F01C
:10507C00E3FB874249D0E31E9846032C4BD02D1BF3
:10508C002900300003F0D8FB874246D0231F9846F6
:10509C00042C48D02D1B2900300003F0CDFB874297
:1050AC0043D0631F9846052C45D02D1B290030009A
:1050BC0003F0C2FB874240D0062C42D03000E91FDF
:1050CC0003F0BAFB06248742B7D10029B5D10123DE
:1050DC000724984673019B1B9B009E19009BF600AE
:1050EC001E60019B42461C605B4601201A6003B0A7
:1050FC003CBC90469946A246AB46F0BD0029A3D1D4
:10510C00A046E7E70029ABD1E4E70029E2D0E31E93
:10511C009846032CB3D102248FE70029DAD0231F41
:10512C009846042CB6D1032487E70029D2D0631FFC
:10513C009846052CB9D104247FE70029CAD0062C47
:10514C00BCD1052479E7C046508EF4FF50F80C0012
:10515C00094A830094464022634410B51C68C00081
:10516C006240C02414408022520113431C60034B44
:10517C009C466044416010BD04C0014000400140A9
:10518C000A4B80009C4604236044002901D00C2368
:10519C000821002A00D10B00026853400C221A404F
:1051AC0080235B01184302607047C04604C0014075
:1051BC000123D0228340120693629361094A830033
:1051CC009446402263441968C0004A40C0211140F3
:1051DC008022520113431960034B9C460523604403
:1051EC004360704704C0014000400140F8B5EFF344
:1051FC00108772B60E4E3368002BFCD0BFF35F8F56
:10520C00CB08C4180725A446C45C01230D40AB4051
:10521C0018002040234208D1624623431370BFF389
:10522C005F8F306087F31088F8BD100001F04AFCE6
:10523C002C0100D0F8B5CE4647468C4680B5EFF32E
:10524C00108872B6214D2C68002CFCD0BFF35F8FF8
:10525C009A422CD8D4080721055D06190124114067
:10526C008C402C421FD007218946063909E0D4080E
:10527C00055D06194C460F001440A7403C002F4218
:10528C0011D001329342F2D201204042BFF35F8F22
:10529C0000220E4B1A6088F3108800280FDB0CBC20
:1052AC0090469946F8BD2C4310003470EEE7BFF3DE
:1052BC005F8F00232B6088F31088012040426346E7
:1052CC00002BECD0089801F0FDFBC0462C0100D05F
:1052DC00024B18688007C00F7047C04600C00640DC
:1052EC000021044B044ABFF35F8F02C39342FAD1EF
:1052FC007047C046000100D0800100D0044A1078ED
:10530C00431CDBB2172B00D9102313707047C04617
:10531C000CFB012000B5054B83B001000093182253
:10532C001F230348FFF786FF03B000BDCCC8012044
:10533C00440D022001238340002904D0034A13604A
:10534C00034A13607047034A1360FBE780E200E0F6
:10535C0000E100E080E100E001238340014A13609A
:10536C007047C04600E200E0084B10309B6880009C
:10537C00C358002B07D0064A00209B1A2F229A42B2
:10538C004041C0B270470020FCE7C04600ED00E091
:10539C0010FB0120024B10309B688000C0587047F6
:1053AC0000ED00E070B50D00EFF3108672B60F4AF9
:1053BC001368002BFCD0BFF35F8F0D4B10309B6834
:1053CC0084001B590B4A934203D09D4201D001F03B
:1053DC0091FB074B9B681D51BFF35F8FBFF35F8F32
:1053EC000022024B1A6086F3108870BD240100D095
:1053FC0000ED00E0CD010010F0B557464E46454695
:10540C00DE46E0B5894683B005001700EFF3108A3D
:10541C0072B65E4A1368002BFCD0BFF35F8F00207E
:10542C005B4B18569B4600286DDB5A464400594E80
:10543C002418A400331998469B7910351370564BD9
:10544C00AA009B6801929B589C469B1B2F2B29D82A
:10545C00012261469143CB79BB4208D86BE05300E3
:10546C009B189B00F318DD79BD4252D91900062216
:10547C008A56002AF3DABD260B1D9B46360243469C
:10548C005C46043B1B1B1B05444C5B0D23438B8070
:10549C00887141468A714A46414B8E800B60CF71B0
:1054AC008A601BE03F4B9C4542D142463E4B023446
:1054BC0013803E4B3619043B9E1B3605374B760D3D
:1054CC001E433B4B56809380FF23D7719371434609
:1054DC004A469A60012342461A43944661462E4B33
:1054EC00019A9B689950BFF35F8FBFF35F8F0022C7
:1054FC00264B1A608AF3108803B03CBC9046994640
:10550C00A246AB46F0BD01F0F5FA5B4600201856FA
:10551C008BE70B1D9B468B8804345B051B155B448A
:10552C0036199E1BE0233605760D1B021E43A6E79B
:10553C0001F0E0FAB9E745460B001E489B1B5B41A6
:10554C005843000D184B2B80A31C9C46B444654655
:10555C00164B0434043B5B1B1B05104D5B0DAC461A
:10556C002B43454636196B800B1F9E1B6346A87157
:10557C0048463605760D1E43094BAE80EF71A86088
:10558C000B60434613439C46A8E7C046240100D059
:10559C007413022010FB012000ED00E000E0FFFF7F
:1055AC0001488047CD01001000A1FFFF40FB012006
:1055BC0000BDFFFFAAAA0000F0B5DE4657464E46D6
:1055CC004546E0B50C0083B0EFF3108A72B65A4A28
:1055DC001368002BFCD0BFF35F8F102291468144DF
:1055EC004A46564B96009B689D59554B98469D4292
:1055FC0005D0A54216D0534FEB1B2F2B14D94F4B74
:10560C009B689D51BFF35F8FBFF35F8F00224A4BA6
:10561C001A608AF3108803B03CBC90469946A246A7
:10562C00AB46F0BD1D00EAE7012383409B465A467A
:10563C00454B1B681A4000925A46444B1A60BFF304
:10564C005F8F15F089FD0190002803D0814501D0B2
:10565C0001F050FA01232A009A4393689C4208D126
:10566C0060E04B005B189B00FB189968A14211D0BD
:10567C001A00062151560029F3DA009B002B05D0A5
:10568C005A46334B1A60304B1A60B8E75A462F4BC8
:10569C001A60B4E706215956002922DB4A0050183B
:1056AC0080003C188046A0689860E079D87106208C
:1056BC0020569871A0797F2824D8A488F81A6405FC
:1056CC00241544440019E0240005400D2402204315
:1056DC00988052181F4B9200BF181A781970BA7123
:1056EC00CBE70199002910D1FF3191711A499180B2
:1056FC0018490A789A71194ADB1B5B415A43120DFF
:10570C000A70BAE7BD200002E2E7154A1549D21A21
:10571C00083A5002400D01439980134952080A433C
:10572C00DA80AAE70621515613000029B6DA019A4D
:10573C00002AEAD14546DBE7240100D000ED00E069
:10574C00CD01001010FB012000E100E080E100E041
:10575C0080E200E07413022000BDFFFFAAAA000043
:10576C004AFB012000F0FFFF00F8FFFFF8B5012510
:10577C000400054315F0F0FC0300EFF3108672B63D
:10578C0021490A68002AFCD0BFF35F8F1F4A200012
:10579C001F49801A40414143090D1E489B008768F0
:1057AC0049B2FF58AF421CD00623D3568B421CD0B3
:1057BC001223D3568B4222D01E23D3568B4220D099
:1057CC002A23D35603208B4210D0134B1A7819700E
:1057DC00A271BFF35F8F00220B4B1A6086F3108807
:1057EC00F8BD82680D48D050EFE7002043001B182D
:1057FC009B00D218FF239371094B9380E5E701209E
:10580C00F4E70220F2E7C046240100D010FB01208F
:10581C00AAAA000000ED00E074130220CD010010D4
:10582C0000BDFFFF054B064A1360064A1360536028
:10583C009360D36013615361936170478080808063
:10584C0000E400E004E400E0D02300B51B061B6874
:10585C000100074883B0C018064B002200930523B3
:10586C00FFF7E8FC002801DB1F23181A03B000BD6A
:10587C0068130220E8C8012070B504000E00150062
:10588C00FFF73CFD0100200000F006F8A680E58043
:10589C00BFF35F8F70BDC046024B9C4661448900CC
:1058AC00016070474000003483680B4810B5844693
:1058BC0061446244090112019A18591854684B68E2
:1058CC0001209C4201D802D00020C0B210BD126849
:1058DC000B689A42F9D8F7E7FFFFFF0F0A4B1968DC
:1058EC00EFF3108072B60A68002AFCD0BFF35F8F0A
:1058FC001B68BFF35F8F00221A6080F3108840BFD3
:10590C00002000217047C046E0120220F8B557462F
:10591C004E464546DE46E0B5434D81468A466A68AA
:10592C00EFF3108872B61368002BFCD0BFF35F8FB7
:10593C002E68B47B002C3ED0670033683F19033FC0
:10594C00DA195378B373002B00D1F37300239370DF
:10595C0053701370A968354A8C464946A218120137
:10596C0062441160514651603149D3609160326894
:10597C00D219937053701370737B9B46002B35D0E8
:10598C0022001900B068736898473268002820D04C
:10599C005B4658465B005B44D719033BB870D11883
:1059AC00D35C002B00D07B705B460C7073735C4532
:1059BC001DD0002626E06B68BFF35F8F1C6088F358
:1059CC001088012040423CBC90469946A246AB460A
:1059DC00F8BD5B465B005B44033BD3189C70D1194C
:1059EC00D25D002A00D05A705B460B7074734A4625
:1059FC005346287D00F078FC061EDAD0210028687A
:105A0C0000F0B8FEEB686A681B19013B1B78BFF30A
:105A1C005F8F0021116088F310880020002ED2D1F6
:105A2C0018022043CFE7C04658FB0120FFFFFF0FB1
:105A3C009D560020F8B5574645464E46DE46E0B525
:105A4C0099460CAB19780DAB1B78050090469A461D
:105A5C000768002912D1BE7B002E45D074003B682C
:105A6C00A419033C1B195A783100BA73002A00D1CF
:105A7C00FA7300229A705A701A7003E00E004C00F0
:105A8C006418033C2C4B00229C46AB6861449C463A
:105A9C004346090161440B604B464B600A9B8B608B
:105AAC000B9BCB603B681B199A705A701A707B7BEE
:105ABC009B46002B2CD032005946B8687B6898471F
:105ACC003A68002817D05B4658465B005B441419B3
