:020000041000EA
:1000000000B5324B212058609868022188439860DF
:10001000D860186158612E4B002199600221596106
:100020000121F02299502B49196001219960352056
:1000300000F044F80222904214D00621196600F024
:1000400034F8196E01211966002018661A6600F04E
:100050002CF8196E196E196E052000F02FF8012189
:100060000842F9D1002199601B49196000215960AB
:100070001A491B48016001219960EB211966A021F2
:10008000196600F012F800219960164914480160C1
:100090000121996001BC002800D000471248134993
:1000A000086003C880F30888084703B5996A0420EC
:1000B0000142FBD001200142F8D103BD02B5186610
:1000C0001866FFF7F2FF186E186E02BD00000240BE
:1000D000000000180000070000035F00212200005C
:1000E000F4000018222000A00001001008ED00E03C
:1000F00000000000000000000000000074B24E7A12
:1001000000200420F7010010C3010010C5010010F9
:10011000C1010010C1010010C1010010C101001097
:10012000C1010010C1010010C1010010C701001081
:10013000C1010010C1010010C9010010CB01001065
:10014000CD010010CD010010CD010010CD01001037
:10015000CD010010CD010010CD010010CD01001027
:10016000CD010010CD010010CD010010CD01001017
:10017000CD010010CD010010CD010010CD01001007
:10018000CD010010CD010010CD010010CD010010F7
:10019000CD010010CD010010CD010010CD010010E7
:1001A000CD010010CD010010CD010010CD010010D7
:1001B000CD010010CD010010CD010010CD010010C7
:1001C00000BE00BE00BE00BE00BE00BE00F051F882
:1001D000103800BEF2EB8871E00200100C03001032
:1001E0003402001090A31AE700202449086006C8D2
:1001F00081F30888104722480068002835D10DA4F3
:100200000ECC002902D000F012F8F9E71D491E4A71
:10021000002000E001C19142FCD11C4988471C49E3
:1002200088471C49884700BEFDE701C901C29A42C0
:10023000FBD370470C030010C000002018A8012059
:1002400064AA011020A80120A8F80120ECFA0110EE
:100250000000042000000420ECFA0110001004202B
:10026000001004200000000070470B4800F018F850
:100270000047EFF30580C0B27047000008ED00E0D2
:10028000000000D0A8F80120B814022081600020EE
:1002900019360020E56100205756000000000000DC
:1002A00001B40248844601BC604700BFA17E002023
:1002B00006005250ABB36053E4C201200600525016
:1002C000861C0302F4C20120060052505422A29D53
:1002D00014C3012005005250DE65F468ECFA0110E9
:1002E000D4020010C8020010BC02001020C301207C
:1002F000B00200102CC3012038C3012044C30120E8
:0C03000080C301208CC30120C0C3012079
:10030C00F8B5C0460448054B10B5834203D0044BE6
:10031C00002B00D0984710BDA8F80120A8F80120A8
:10032C000000000006480749091A8B10C90FC918AC
:10033C0010B5491003D0044B002B00D0984710BDCA
:10034C00A8F80120A8F801200000000010B5074C07
:10035C002378002B09D1FFF7D5FF054B002B02D0DA
:10036C00044800E000BF0123237010BDB0F9012048
:10037C000000000018A80120054B10B5002B03D07D
:10038C000449054800E000BFFFF7CCFF10BDC04694
:10039C0000000000B4F9012018A801207047C046E5
:1003AC00D4239B00C3181A68024BC25401226A332F
:1003BC00C25070475A030000D422064B9200C35C13
:1003CC00821812689B001A50F12301229B00C25024
:1003DC007047C0465A030000044A835C01338354BF
:1003EC00F12301229B00C2507047C0465A03000003
:1003FC00044A835C013B8354F12301229B00C250CD
:10040C007047C0465A030000D4239B00C3181A68D7
:10041C00D8239B00C25400220433C25060330132F3
:10042C00C2507047D4239B00F0B5C61834680B3902
:10043C00250F22010C0077683B012B43CD171219B5
:10044C006B4132607360F12301229B00C250F0BDFE
:10045C00D423A0219B00C218136809061B011B0999
:10046C000B43136001235B425360F12301229B0079
:10047C00C2507047D423B0219B00C21813680906E0
:10048C001B011B090B43136001235B425360F123D7
:10049C0001229B00C2507047F42320229B00C254BF
:1004AC00002230B500250024583BC250283BC3180D
:1004BC001C605D60D622012392005B428352064A87
:1004CC008354423283500432835004328350F123DC
:1004DC0001229B00C25030BD5A030000F42320229D
:1004EC0030B5002500249B00C2541F3A583BC25023
:1004FC00283BC3181C605D60D621012389005B4238
:10050C004352064943544231435004314350043161
:10051C004350F1239B00C25030BDC0465A0300002B
:10052C00EE2301229B00C2507047C046EF230122EC
:10053C009B00C2507047C046F52300229B00C2505E
:10054C00F222012392008350043A83507047C04634
:10055C00F5229200835801338350F12301229B0032
:10056C00C2507047F52292008358002B01DD013BED
:10057C008350F12301229B00C2507047F2230022CA
:10058C009B00C250043B0132C2507047F32201233E
:10059C00002192008350043A8150043A83507047F2
:1005AC00F1230121014A9B00D1507047A808022079
:1005BC00084B09480949186059600948094998606D
:1005CC00D960094809491861596109480749986176
:1005DC00D9617047A80802206303520356005610D5
:1005EC005005530552055105540553055107510645
:1005FC0000240024064B1A68064B1A600123064A95
:10060C001360064A13600022054B1A607047C046FF
:10061C008404022074050220780502207C05022047
:10062C006C05022000230121044A1360044A136064
:10063C00044A1160044A13607047C04674050220D6
:10064C00780502207C0502206C05022010B50E48AE
:10065C0008F08EFB0D4B0E481A680E4B196808F00B
:10066C00DDFC0D4B0D48196808F0D8FC0C4B0D48FF
:10067C001A680D4B196808F0D1FC0C4B0C48196822
:10068C0008F0CCFC10BDC04650AC01205C0402202C
:10069C0060AC0120640402206004022084AC0120C0
:1006AC006C0402209CAC012054040220680402203B
:1006BC00B0AC0120D0220C4B0C480D49920010B567
:1006CC009C182060616000210A48203A9A1810603A
:1006DC005160094A09481A6008F0A0FC2268636856
:1006EC00074808F09BFC10BDA8080220325476087D
:1006FC00305476085634120018141014BCAC012077
:10070C00CCAC012010B5054C0548216808F086FCDE
:10071C002068253803F0D2FA10BDC04670040220C0
:10072C00E4AC012010B5152003F0C8FA10BDC0468A
:10073C0010B5162003F0C2FA10BDC04610B5172034
:10074C0003F0BCFA10BDC04610B5072003F0B6FA92
:10075C0010BDC04610B51A2003F0B0FA10BDC0464B
:10076C0010B5022003F0AAFA10BDC04610B5062041
:10077C0003F0A4FA10BDC04610B5052003F09EFA94
:10078C0010BDC04610B5032003F098FA10BDC0464A
:10079C0010B5042003F092FA10BDC046F1230021DD
:1007AC0010B5034A9B001820D15003F087FA10BDF6
:1007BC00A8080220F123002110B5034A9B00192040
:1007CC00D15003F07BFA10BDA808022010B50849DF
:1007DC000400084803F072FFF32300229B00E25050
:1007EC00F22201239200A350043AA35010BDC0463C
:1007FC00E80E0220E8AC012070B500240F4D104E1D
:10080C0007E02100300004CD013408F007FCC82CAF
:10081C0010D00521200007F091FC0029F1D10A200D
:10082C0008F054FA2100300004CD013408F0F6FB36
:10083C00C82CEED10A2008F049FA70BDA808022095
:10084C00F0AC0120F0B5D6464F4646461448C0B52C
:10085C0008F08EFA134B00249946134B134D98460F
:10086C00134B144F9A462E683900300015F086FA57
:10087C00002809D02A694346002A00D15346320089
:10088C002100484608F0CAFB01341835042CEAD183
:10089C000A2008F01BFA1CBC90469946A246F0BDF3
:1008AC0018AD012030AD012008AD01200CED012068
:1008BC0010AD012028AD012070B50A2008F006FA11
:1008CC00094C0A4E2500C935FF35626813782A2B6E
:1008DC0003D03000217808F0A1FB0C34AC42F4D1E9
:1008EC00034808F09BFB70BD4CE3012048AD012090
:1008FC0054AD012070B5284808F090FB274D284CCA
:10090C003FE0D023012202211B069A61996102313A
:10091C00996180000431996141598A405A61D02310
:10092C0001221B0659685B6809095B0911401A42D0
:10093C0001D002231943D0231B065B685B0601D54B
:10094C0004231943D0231B065B681B0601D508231F
:10095C001943D0231B065B68DB0501D51023194313
:10096C00D0231B065B689B0501D520231943D0239C
:10097C001B065B685B0501D540231943200008F07A
:10098C004DFBFA20800008F05BFB431CC7D03038CD
:10099C000328B6D970BDC04670AD012014BC01202F
:1009AC00E4AC012030B583B005000B49100001AA5E
:1009BC0015F01CF90400012803D00024200003B01A
:1009CC0030BDD822FF21019B9200AB541940034843
:1009DC0008F024FBF2E7C0467CAD01208CAD012071
:1009EC0030B583B005000A49100001AA15F0FEF8D5
:1009FC000400012803D00024200003B030BDD9230B
:100A0C00019A9B001100EA50024808F007FBF3E73B
:100A1C00A4AD0120B4AD012070B5002682B0050054
:100A2C000C49100001AA019615F0E0F80400012809
:100A3C0003D00024200002B070BDD4239B009C4640
:100A4C00019B65441A0048C50348002308F0E6FAE8
:100A5C00F0E7C046CCAD0120DCAD012010B582B072
:100A6C0001AB0400104910006A4615F0BFF80023D2
:100A7C00022802D0180002B010BD0099019A012979
:100A8C000FD002290AD0002904D0084808F0C6FA71
:100A9C000123EFE7D6239B00E254F6E7044BE25424
:100AAC00F3E7044BE254F0E7F8AD012010AE01205F
:100ABC005A0300005903000030B583B005000A4901
:100ACC00100001AA15F092F80400012803D00024AC
:100ADC00200003B030BDD723019A9B001100EA50CF
:100AEC00024808F09BFAF3E730AE01204CAE01202F
:100AFC0030B583B005000B49100001AA15F076F84B
:100B0C000400012803D00024200003B030BDDC22F7
:100B1C00FF21019B9200AB541940034808F07EFA68
:100B2C00F2E7C0466CAE012080AE012070B5274DB7
:100B3C000600286814008EB0002801D10EB070BDDC
:100B4C000DAB05930CAB04930BAB03930AAB029365
:100B5C0009AB019308AB009320001D4907AB06AA13
:100B6C0015F044F8082805D000231A4A00202B6001
:100B7C001360E3E7174A136898003018410713D144
:100B8C00069C079D04604560089C099D8460C560B7
:100B9C000A9C0B9D046145610C9C0D9D8461C56193
:100BAC00083301201360C9E7069901600799416079
:100BBC00089981600999C1600A9901610B99416199
:100BCC000C9981610D99C161EAE7C0469804022035
:100BDC0098AE01209C040220100010B50722084991
:100BEC0015F04CF90023002801D0180010BD01228B
:100BFC00044B05481A6008F011FA0123F5E7C046CA
:100C0C00B4AE012098040220BCAE01207047C0464F
:100C1C0010B5034807F064FA002103000020984740
:100C2C0055420000F0B5244885B008F0F7F90023D0
:100C3C00224C234E234D2360FA20800008F000FA4A
:100C4C00431C35D03928F7DC2F2807DC1B28F3D8B8
:100C5C001D4BC340DB07EFD505B0F0BD2268303823
:100C6C0093009B185B00181831002060280008F0D6
:100C7C00D5F91649164B086816491B6809685A1E9F
:100C8C0093414F1EB941212249425B4213400A4015
:100C9C0020320190009002922268203311000E48FD
:100CAC0008F0BCF9FA20800008F0CAF9431CC9D13D
:100CBC0008F034F9C0E7C046D0AE0120840402200D
:100CCC0084050220FCAE01200024000898FE0120BF
:100CDC00B0FE0120ACFE012014AF0120F422F8B5C7
:100CEC009200835C0400202B48D0432B41D141233C
:100CFC008354D8239B00C1180833C018082207F06E
:100D0C00DBFEDA239B00E35C9B001859D7239B0086
:100D1C00E0500833E358002B00D176E00F21DF239D
:100D2C00020B0A409B00060AE2500E4004330509F0
:100D3C00E6500D400433E55001400433E150EB27FD
:100D4C00AB005B195B005B18BF00E351092A10D89C
:100D5C004D4F9200BA589746032E00DC8DE0063EAC
:100D6C00012E06D8E7239B00E5500433E1500433F1
:100D7C00E150F12301229B00E250F8BD4123835442
:100D8C00D8239B00C1180833C018082207F094FE22
:100D9C00DA239B00E35C9B001859D7239B00E0509F
:100DAC000833E358002B1ED1DF230F219B00020FC9
:100DBC00060EE2500E400433050DE6500D40043390
:100DCC00E550030C1940E2239B00E150EB27AB00EC
:100DDC005B195B005B18BF00E351092AC9D82B4F84
:100DEC009200BA5897460F21DF23020B0A409B0052
:100DFC00060AE2500E4004330509E6500D40043358
:100E0C00E55001400433E150E0E7DF230F219B0064
:100E1C00020F060EE2500E400433050DE6500D4055
:100E2C000433E550030C1940E2239B00E15086E7A4
:100E3C00EC23020C9B00E254154B020AE254154BB6
:100E4C00E05496E7CD229200A258C8329200125973
:100E5C00D318EA229200A3508BE79B001A59EA237D
:100E6C009B00E25085E7E7239B00E5500433E150FB
:100E7C007FE7CC22E7E7CB22E5E7E7239B00E550B1
:100E8C000833E15075E7C04660AF012088AF012000
:100E9C00B1030000B203000010B50020D02403F011
:100EAC0053FE012324066362012003F04DFE02234E
:100EBC000220636203F048FE04230320636203F004
:100ECC0043FE08230420636203F03EFE102301223C
:100EDC00A3620021042003F01FFE052003F034FE62
:100EEC0020230122A3620021042003F015FE06201A
:100EFC0003F02AFE40230122A3620021042003F008
:100F0C000BFE072003F020FE80230122A3620021A8
:100F1C00042003F001FE082003F016FE80235B0082
:100F2C00A36201220021042003F0F6FD092003F046
:100F3C000BFE80239B00A36201220021042003F0FE
:100F4C00EBFD0A2003F000FE8023DB0001220021D0
:100F5C000420A36203F0E0FD10BDC046F0B5454689
:100F6C00DE4657464E46E0B5BE4D0400296885B0B6
:100F7C00002901D1BC4B1960D02201201206536804
:100F8C0052681B0952090340104201D0022213433C
:100F9C00D02212065268520601D504221343D022E5
:100FAC0012065268120601D508221343D0221206EB
:100FBC005268D20501D510221343D022120656686E
:100FCC000120B6051AD5202452682343920A1042F8
:100FDC0000D1E4E140221343A44A1360A248A44A7E
:100FEC0004681460CA011343036003296BD005B075
:100FFC003CBC90469946A246AB46F0BD5268920A5C
:10100C001042E7D1994A1360002BE7D1994E326810
:10101C000132052A74DD3360974B98461B68002B10
:10102C00E3D0964B1F689B46002F00D1AAE0944B4F
:10103C00944E1A689A46944B994653009B184A460C
:10104C00DB00D11832688F689200D759002F59D124
:10105C004A460861D1588D4807F0E0FF534619689D
:10106C004B005B18DB004B44DA6801235B420193B5
:10107C003E01935D9019182B0ED0182B4AD8142BC7
:10108C0079D01800153801286DD801373E0101932D
:10109C00935D9019182BF0D1019B013300D144E1E1
:1010AC00019B142B03D0173B022B00D90EE178487F
:1010BC0007F0B4FF5346196801374B005B18DB008F
:1010CC004B44DA68D4E7684B724C1968724D23684C
:1010DC002960994212D0002910D0704800230200D8
:1010EC0003E0013308321C2B08D01668B142F8D14A
:1010FC00DB00C318586802F0E1FD2968216076E72F
:10110C00326072E7380002F0D9FD33682968013388
:10111C0033606AE7192B26D1614807F029FE0023BA
:10112C00424613605F4E3468002C01D029685CE79E
:10113C005D4807F073FF53461B685C495A1C5346C5
:10114C001A6053009B184A46DB00D05814F016FE68
:10115C00002800D111E10123424613605B46296847
:10116C0034601C6041E73A00514807F057FF0023F8
:10117C0042461360D6E783684E481900019307F086
:10118C004DFF97E7404B4C4899463D4BC8261A6893
:10119C009A4653009B184A46DB00D15807F03EFF95
:1011AC005346196876004B009C465B18DB004B4499
:1011BC0058690191002303E0E2500433B34202D09A
:1011CC00C258511CF8D16346019900265B18DB000C
:1011DC004B445A685346A24601933301D018D35C52
:1011EC000B2B1ED00E2B14D00A2B0FD032003348F1
:1011FC0007F014FF002342461360019B0136196867
:10120C004B005B18DB004B445A68E6E787680136F5
:10121C00E3E701235A46136000221A4B29681A602F
:10122C00E3E68368C06884463800072F0BD908387A
:10123C0001280ED92249234806F0EEFE2149224806
:10124C0007F0ECFED9E75446C83080000351013654
:10125C00C3E76830C0005044036063460136436006
:10126C00BBE7C04654040220640402206804022038
:10127C005C040220700502207C0502206C05022013
:10128C0074050220800502200CED0120B0AF012076
:10129C00E0AF012058040220600402206CE201201F
:1012AC0060B0012078050220A4B0012028AD0120F7
:1012BC0074B00120D0AF0120E8B001201CB1012096
:1012CC0000B10120800C022028B00120019B152BBD
:1012DC004CD0162B60D0072B41D91A00083B012BA0
:1012EC0052D93049304806F097FE2F492F4807F065
:1012FC0095FE53461A6853009B18DB004B44D86884
:10130C00801982680299C3688A421ED001992848C4
:10131C0007F084FE53460022196801374B005B1816
:10132C00DB004B441A61DA68A2E610369619337862
:10133C0030000137182B00D09FE6337C103630007C
:10134C000137182B00D098E6F7E703998B42DDD1D3
:10135C000B00029A0199174807F060FEAAE6C83301
:10136C009B001B59029300230393CAE7D8239B00CD
:10137C00E35C029300230393C3E7434618600E48D3
:10138C0007F04CFE296830E66833DB00E3181A6876
:10139C005B6802920393B4E7D4239B00F6E7074AF9
:1013AC0013601BE60CB00120800C022028B0012039
:1013BC004CB0012038B00120BCB0012068040220E0
:1013CC00F0B5DE46574645464E46E0B5050083B0BF
:1013DC0090480F0007F022FE8F4B2A009A468F4B45
:1013EC0051469B463B00584607F018FE2B0F99467A
:1013FC003B0F1A0049468A482D013C01984601933F
:10140C002D0907F00BFE2409A54201D94B46019387
:10141C0022002900834807F001FE4B460B2B00D11C
:10142C0076E00A2B03D143460A2B00D188E07E4F8D
:10143C00380007F0F3FD43460B2B01D17B4B1C1BF3
:10144C0023002A005146584607F0E8FD380007F003
:10145C00E5FD774B641918002100984607F0DEFD76
:10146C000F239B46093B00269946724F5D46B540BB
:10147C002540F540380029000A3D07F0CFFD052D29
:10148C0002D84B46B340E4180436202EEED121008E
:10149C00404607F0C3FD2100674807F0BFFD230E4F
:1014AC0040D0664940460C400134210007F0B6FD9F
:1014BC000F239B46093B00269A465D46B5402540C6
:1014CC00F540380029000A3D07F0A8FD052D02D88B
:1014DC005346B340E4180436202EEED1210040468A
:1014EC0007F09CFD019B0B2B5FD0019B24014F4A05
:1014FC0024091E07344321005148121B07F08EFDAE
:10150C00200003B03CBC90469946A246AB46F0BDC9
:10151C0043460B2B14D0444F380007F07FFD434B50
:10152C005D1B8DE7474807F079FD474D22002800E9
:10153C00464906F071FD2900454807F06FFDB0E7FC
:10154C002C19444807F06AFD21003B4807F066FD62
:10155C00374B21001800984607F060FD0F239A4680
:10156C00093B00269B46334F5546B5402540F54078
:10157C00380029000A3D07F051FD052D02D85B46C5
:10158C00B340E4180436202EEED12100404607F07B
:10159C0045FD2100284807F041FD230E2CD14B4678
:1015AC00240124091E073443AAE72B4B40461C1B7D
:1015BC00210007F033FD002399460F339A46093B6F
:1015CC009B464B4655469D402540DD403800290042
:1015DC000A3D07F023FD052D03D85B464A46934090
:1015EC00E41804239C46E1444B46202BE9D121000E
:1015FC00404607F013FD78E7124807F00FFD124D37
:10160C0022002800114906F007FD2900104807F0B8
:10161C0005FDC4E78CB1012004BC0120B0B1012050
:10162C00C4B10120D8B1012030B2012099999900A0
:10163C005CB1012068B1012004B20120FFFFFFF072
:10164C0044B201200CB20120800C022020B20120F7
:10165C0028B00120F0B101209A9999009C23F0B593
:10166C00DE4657464E46454699461A4BE0B59846D7
:10167C00194B1A4C9B461A4B83B09A46A14409E06D
:10168C0052463100009240463A000C3407F0C6FC3A
:10169C004C4515D02668676830003900A568FFF7FF
:1016AC008FFE019503008542EAD15B463A00009318
:1016BC0031002B0040460C3407F0B0FC4C45E9D10E
:1016CC000A2007F003FB03B03CBC90469946A246A7
:1016DC00AB46F0BD58B2012084B2012014E50120C4
:1016EC007CB20120F8B5D7234E46DE465746454618
:1016FC009B00C358E0B51B0F0600062B44D9073BD3
:10170C00022B36D8D9239B00C358002B44D1D823A5
:10171C009B00F75C364B0137180039009B4607F0ED
:10172C007DFC344B002598460F239A46093B99467D
:10173C005446AC403C40EC40404621000A3C07F08B
:10174C006DFC052C02D84B46AB40FF180435202D00
:10175C00EED13900584607F061FCD82300229B00DB
:10176C00F7540433F2503CBC90469946A246AB4623
:10177C00F8BD214C10222000204907F09DF92100D2
:10178C001F4807F04BFCEEE7D9239B00C258002AF8
:10179C000CD10122C250E6E723221A491A4807F05D
:1017AC008BF91549194807F039FCB0E7043BC75CC5
:1017BC000F4B0137180039009B4607F02FFC0D4BDF
:1017CC00002598460F239946093B9A464C46AC4057
:1017DC003C40EC40404621000A3C07F01FFC052C25
:1017EC0002D85346AB40FF180435202DEED1B0E79C
:1017FC005CB1012068B10120800C0220D0B2012024
:10180C0028B00120ACB20120E805022044B101202F
:10181C00F8B5CE464746F42280B59200835C0400AE
:10182C00202B00D18AE0412B68D142238354DF2343
:10183C009B00C358062B69DC012B00DD02E1002B59
:10184C0000D1C5E0012B59D1E0239B00C358072BD5
:10185C0054D8D94A9B00D3589F46E8239B00C258C2
:10186C00092A08D9D54DD649280006F0D5FB290000
:10187C00D44807F0D3FBE7239B00E258072A01D892
:10188C0000F0D8FC1300083B012B01D800F03EFD02
:10189C00CA4DCB49280006F0BFFB2900C94807F008
:1018AC00BDFBE8239B00E1580B00072901D800F091
:1018BC009DFD083B012B01D800F0CDFCBF4D0A006B
:1018CC002800BF4906F0A8FB2900BE4807F0A6FB7C
:1018DC00E7239B00E258072A01D800F0A0FC130074
:1018EC00083B012B01D800F004FDB44DB44928008D
:1018FC0006F092FB2900B34807F090FBF12301227C
:10190C009B00E2500CBC90469946F8BD073B022B5D
:10191C00F4D8EC239B00C35C9B001A58AA4BC2540E
:10192C00AA4BC35C9B001A58ED239B00C254A84BD6
:10193C00C35C9B001A58A74BC254DFE74123835466
:10194C00D8239B00C1180833C018082207F0B4F83C
:10195C00DA239B00E35C9B001859D7239B00E050D3
:10196C000833E358002B21D1DF230F219B00070FF5
:10197C00060EE7500E400433050DE6500D400433BF
:10198C00E550030C1940E2239B00E150AB005B19BE
:10199C005B009C46EB228C4463469200A350092FBB
:1019AC0000D93AE38C4BBA009A5897460F21DF23A3
:1019BC00070B0F409B00060AE7500E400433050945
:1019CC00E6500D400433E55001400433E150DDE7AF
:1019DC00E0239B00C358072B00D98FE77F4A9B005D
:1019EC00D3589F46EC227949030C9200A354020A67
:1019FC006254774A4225A054F420DBB2800025546F
:101A0C009B001859704BE054635C9B001959ED23F3
:101A1C009B00E154A35C9B001A596E4BE2546DE79A
:101A2C00E72301229B00E5500433E1502433E250BC
:101A3C000C334132E254072E00D95FE7684BB600F5
:101A4C009B599F46022B00D058E7E0239B00C358BC
:101A5C00062B00D177E300DDF0E2042B00D162E32A
:101A6C00052B00D04AE7DD239B00C358012B00D087
:101A7C0044E72000FFF736FED823DC229B00E15C14
:101A8C009200A1543832A258E25400220433E2509E
:101A9C0034E763469B001A59EA239B00E250F1237A
:101AAC0001229B00E2500C334132E254022F00D051
:101ABC0024E7062E00D14EE300DDCBE2042E00D14C
:101ACC0051E3052E00D019E7DD239B00E358012BD1
:101ADC0000D013E72000FFF705FED823DC229B0083
:101AEC00E15C9200A1543832A258E2540022043333
:101AFC00E25003E7CD229200A258C832920012594C
:101B0C001300EA2263449200A350C8E7CB22F2E709
:101B1C00EA2263469200A350C1E7032E00DD81E266
:101B2C00E7239B00E5500833E150F12301229B0091
:101B3C00E2500C334132E254072E00D9DEE6294B39
:101B4C00B6009B599F46CC22D5E7E723C8209B00C3
:101B5C00E6580433E358B100C8339B001A59611896
:101B6C009200800013000D58203BD540DB172B4012
:101B7C00072E00D9CFE2A0221B011B09120613432A
:101B8C000B50BBE6E723C8209B00E1580433E35815
:101B9C008A00C8339B001B59A218800015589B0063
:101BAC009D40072900D99EE2A0212B011B090906A3
:101BBC000B431350A2E6C04604B30120800C022054
:101BCC000CB0012028B00120B3030000B1030000C9
:101BDC00B2030000B503000024B301204CB3012074
:101BEC006CB301208CB30120E8239B00C258043B4A
:101BFC00C358072B00D939E2072A01D800F001FCA1
:101C0C00D94D1D222800D94906F056FF2900D84885
:101C1C0007F004FA72E6E7239B00C6580433B100C0
:101C2C004118C820E3588000C8339B001A590D583E
:101C3C0092001300D540203BDB172B40072E00D918
:101C4C0061E2A0221B011B09120613430B5055E63F
:101C5C00E7239B00C15804338A008218C820E3583C
:101C6C008000C8339B001B5915589B009D400729C9
:101C7C0000D940E2A0212B011B0909060B4313508C
:101C8C003CE6E7239B00E5580433E358072D00D8C6
:101C9C00E8E22A00083A012A00D92FE6C8339B0053
:101CAC001B59C835AD002B5128E6E8239B00E258A0
:101CBC00092A08D9AC4EAF49300006F0ADF9310015
:101CCC00AB4807F0ABF9E7239B00E258072A00D892
:101CDC009CE21300083B012B00D800E3A24EA5495F
:101CEC00300006F099F93100A14807F097F9E82384
:101CFC009B00E1580B00072900D86CE3083B012B33
:101D0C0000D8A1E2984E0A0030009A4906F084F9F6
:101D1C003100974807F082F9E7239B00E258072A25
:101D2C0000D867E21300083B012B00D8CAE28E4DA5
:101D3C009049280006F070F929008D4807F06EF9DB
:101D4C00DCE5E7239B00C5580433C358072D00D8A6
:101D5C0094E22A00083A012A00D9CFE5C8339B0047
:101D6C001B58C835AD002B50C8E5E8239B00E25842
:101D7C00043BE358072B00D99AE1072A00D93FE727
:101D8C00C8269B00C832E5189200B6001159A85914
:101D9C00FFF716FBA851B1E5E723C8259B00E058D7
:101DAC000833E258810092006118AD0013004E59BF
:101DBC00203BD640DB173340072800D9EFE1A022A7
:101DCC001B011B09120613434B5197E5E723E9222C
:101DDC009B00C35892008258072B00D9E7E1A02141
:101DEC001201C833120909069B000A431A5085E5F3
:101DFC00E7239B00E5580833E058072D00D890E204
:101E0C002B00083B012B00D978E5C823AD006519E0
:101E1C009B00EA58801AE85070E5E7239B00C158F4
:101E2C0008338A008218C820E358800015589B009C
:101E3C009D40072900D9C5E1A0212B011B090906EA
:101E4C000B4313505AE54C4D280007F0E7F8E223FA
:101E5C009B00E358022B00D11CE200DD3FE1002B7C
:101E6C0000D11DE2012B00D048E5E7239B00E3588D
:101E7C00C8339B001B59002B00D11DE2DD2301222E
:101E8C009B00E2503AE5E9239B00C258083BC3583B
:101E9C00072B00D873E219000839012900D92DE568
:101EAC00C8219B00C31889005858821A5A5025E53E
:101EBC00E9239B00C258083BC358072B00D83CE2CF
:101ECC0019000839012900D918E5C8219B00C3184D
:101EDC0089005858844662445A500FE5E7239B000A
:101EEC00C5580833C058072D00D858E22B00083BC2
:101EFC00012B00D902E5C823AD0065199B00EA58F7
:101F0C00801AE850FAE4E9239B00E258083BE358B6
:101F1C00072B00D824E219000839012900D9EDE477
:101F2C00C8219B00E31889005858844662445A50D3
:101F3C00E4E4E723C8259B00C0580833E25881002D
:101F4C0092006118AD0013004E59203BD640DB17B0
:101F5C003340072800D945E1A0221B011B091206BA
:101F6C0013434B51CAE4C046800C02208CB20120B2
:101F7C0028B001200CB00120E0B20120E723C820DA
:101F8C009B00E15808338A00E358A21880001558CA
:101F9C009B009D40072900D91CE1A0212B011B09A6
:101FAC0009060B431350A9E4EB4D280007F036F853
:101FBC00E2239B00E358022B00D16BE16CDC002B7D
:101FCC0000D16DE1012B00D14FE797E4E9239B0091
:101FDC00E258083BE358072B00D8ECE1190008390C
:101FEC00012900D98AE4C8219B00E31889005858BC
:101FFC00821A5A5082E4E723E9229B00E3589200AC
:10200C00A258072B00D9BFE0A0211201C833120936
:10201C0009069B000A431A5170E4F42342229B00E8
:10202C00E2546BE4B31F012B00D97EE5E7239B0040
:10203C00E5500433E1500433E15076E5072B00D032
:10204C005CE4EA23DC229B00C3589200825C9B0078
:10205C001A5053E4072E00D050E4EA23DC229B00F4
:10206C00E3589200A25C9B001A5147E4190008390E
:10207C00012900D9C4E511000839012900D9BFE5AF
:10208C00C8219B00C832C3188900920012585858B6
:10209C00844662445A5031E4032B00D02EE40021D4
:1020AC00AE4806F0BBFFDD2301229B00E25025E485
:1020BC0019000839012900D9A2E5110008390129B4
:1020CC0000D99DE5C8219B00E31889005858C832F7
:1020DC0084469200125962445A50FFF70FFC032BAE
:1020EC00DDD0FFF70BFC0839012901D9FFF706FCFD
:1020FC001550FFF703FC0839012901D9FFF7FEFB46
:10210C001550FFF7FBFB083E012E01D9FFF7F6FB3C
:10211C000B50FFF7F3FB083E012E01D9FFF7EEFB46
:10212C000B50FFF7EBFBFFF7DDFAD823DC229B000B
:10213C00E15C9200A1543832A258E25400220433DC
:10214C00E250FFF7DBFBDD239B00C358002B01D0D3
:10215C00FFF7D4FB8DE4DD239B00E358002B01D06B
:10216C00FFF7CCFBB6E42000FFF7BCFAD823DC2247
:10217C009B00E15C9200A1543832A258E254002238
:10218C000433E250FFF7BAFB19000839012901D9D1
:10219C00FFF7B4FBC8339B001A51FFF7AFFB0838AD
:1021AC00012801D9FFF7AAFB4B51FFF7A7FB190038
:1021BC000839012901D9FFF7A1FBC8339B001A503C
:1021CC00FFF79CFB0839012901D9FFF797FB155044
:1021DC00FFF794FB0839012901D9FFF78FFB155044
:1021EC00FFF78CFB0838012801D9FFF787FB4B510F
:1021FC00FFF784FBC8214D469200A2188900535862
:10220C001B0F1B071D435550FFF778FBC82192008D
:10221C00A218890053581B011B09535067E5C821AC
:10222C009200A218890053581B0F1B071E435650CF
:10223C00FFF764FBC8219200A218890053581B01B8
:10224C001B095350FFF72DFB6031C90065582D0257
:10225C002B0A994660E56031C90066583602360A89
:10226C00FFF736FBA021C8339B0018590906FFF76E
:10227C00A7F8C835AD006051FFF740FBA021C8336B
:10228C009B0018580906FFF79BF8C835AD00605144
:10229C00FFF734FBDD2300229B00E250FFF72EFBFF
:1022AC00280006F0BBFEE7239B00E358C8339B00D5
:1022BC001B59002B00D1E1E5DD2300229B00E250ED
:1022CC00FFF71CFBD300C022920094464946E3184A
:1022DC0063441A68D217120706C3FFF70FFBD3002B
:1022EC00C02292009446E31863441A68D2175A60CD
:1022FC00FDE4D300C02292009446E31863441A68AC
:10230C001E60D21712075A60FFF7F8FAD300C022EA
:10231C0092009446E31863441A68D2175A60FFF788
:10232C00C0FAB02103011B0909061943FFF748F84D
:10233C00C835AD006051FFF7E1FAA021C8269B001B
:10234C001201C5181209B6000906A8591143FFF766
:10235C0037F8A851FFF7D2FAE0B20120ECB2012015
:10236C00A021C8269B001201E5181209B600090627
:10237C00A8591143FFF724F8A851FFF7BFFA9B00A7
:10238C00C518C826A023514209011B06B60009092D
:10239C00A8591943FFF714F8A851FFF7AFFAB02169
:1023AC0003011B0909061943FFF70AF8C835AD00EC
:1023BC006051FFF7A3FA9B00E518C826A0235142F1
:1023CC0009011B06B6000909A8591943FEF7F8FFC5
:1023DC00A851FFF793FAC8339B001D590F482D02E3
:1023EC002D0A2A0006F01AFEA94695E4C8339B0074
:1023FC001E590A483602360A320006F00FFEFFF765
:10240C0067FAC8269B00C832C5189200B60011584E
:10241C00A859FEF7D5FFA851FFF770FA78B1012043
:10242C00DF239B00C35870B50400062B5CDC012B2A
:10243C0000DD7AE0002B00D16EE0012B53D1E023BC
:10244C009B00C358072B4ED8D04A9B00D3589F46AD
:10245C00E8239B00C258092A08D9CD4ECD4930003B
:10246C0005F0DAFD3100CC4806F0D8FDE7239B00DF
:10247C00E258072A00D8E7E11300083B012B00D8EB
:10248C0008E2C34EC349300005F0C6FD3100C24816
:10249C0006F0C4FDE8239B00E1580B00072900D887
:1024AC0023E2083B012B00D8D7E1B94E0A003000DB
:1024BC00B84905F0B1FD3100B74806F0AFFDE72390
:1024CC009B00E258072A00D8B4E11300083B012B0B
:1024DC0000D8D3E1AE4CAF49200005F09DFD2100A2
:1024EC00AD4806F09BFD70BD073B022BFBD8EC23DF
:1024FC009B00C35C9B001A58A84BC254A84BC35CEE
:10250C009B001A58ED239B00C254A64BC35C9B0046
:10251C001A58A54BC254E6E7E0239B00C358072B7F
:10252C00E1D8A24A9B00D3589F46022BDBD1E02373
:10253C009B00C358062B00D160E118DC042B06D09D
:10254C00052BD0D1DD239B00C358012BCBD1200010
:10255C00FFF7C8F8D823DC229B00E15C9200A15461
:10256C003832A258E25400220433E250BBE7072B66
:10257C00B9D1EA23DC229B00C3589200825C9B00F9
:10258C001A50B0E7E7239B00C5580433A900411843
:10259C00C820E3588000C8339B001A590C5892008D
:1025AC001300D440203BDB172340072D00D8E6E076
:1025BC00083D012D97D80B5095E7E7239B00C25897
:1025CC00043391004118C820E3588000C8339B00A5
:1025DC001B590C589B009C402300072A00D8CEE0C6
:1025EC00083A012A00D97EE70B507CE7E7239B00D1
:1025FC00C5580433C358072D00D834E12A00083AD3
:10260C00012A00D96FE7C8339B001B58C835AD00B1
:10261C002B5068E7E8239B00C258043BC358072B98
:10262C0000D9D5E0072A00D876E1594C1D222000AC
:10263C005F4906F041FA2100574806F0EFFC52E7DB
:10264C00E723E9229B00C35892008258072B00D93C
:10265C00DBE0A0211201C833120909069B000A43D2
:10266C001A5040E7E7239B00C5580833C058072D84
:10267C0000D827E12B00083B012B00D933E7C823F6
:10268C00AD0064199B00E258801AE0502BE7E72359
:10269C009B00C15808338A008218C820E358800078
:1026AC0014589B009C40072900D9B7E0A0212301B6
:1026BC001B0909060B43135015E7E9239B00C2586D
:1026CC00083BC358072B00D8EDE019000839012945
:1026DC0000D908E79B00C418C8239B00E1588A1A4C
:1026EC00E25000E7E723C8259B00C0580833E258A6
:1026FC00810092006118AD0013004C59203BD4406E
:10270C00DB172340072800D98EE0A0221B011B09F0
:10271C00120613434B51E6E6E9239B00C258083BD3
:10272C00C358072B00D8D8E019000839012900D963
:10273C00D9E69B00C418C8239B00E1588C46624420
:10274C00E250D0E61B4D280006F068FCE2239B000B
:10275C00E358022B0ED02FDC002B00D1CFE0012B45
:10276C0000D0C0E6E7239B00E358C8339B001B59FD
:10277C00002B28D1DD2300229B00E250B3E6A022DF
:10278C001B011B09120613430B50ACE6ACB3012022
:10279C00800C02200CB0012028B00120B3030000F3
:1027AC00B1030000B2030000B5030000CCB301205C
:1027BC008CB20120E0B20120032B00D093E6002163
:1027CC005B4806F02BFCDD2301229B00E2508AE6DD
:1027DC0019000839012900D927E711000839012906
:1027EC0000D922E7C8219B00C832C3188900920087
:1027FC0012585858844662445A5074E6DD239B00A4
:10280C00C358002B00D06EE6A1E619000839012947
:10281C0000D968E6C8339B001A5064E608390129D0
:10282C0000D960E614505EE60838012800D95AE653
:10283C004B5158E69200A418C8229200A3581B0FC3
:10284C001B071D43A5504EE6C8219200A218890013
:10285C0053581B011B0953501CE66031C9006558C5
:10286C002D022D0A2BE6A021C8339B00185809060F
:10287C00FEF7A6FDC835AD00605134E6C0239B00C1
:10288C009C46D200A418644423682560DB171B0700
:10289C00636028E6C023D200A2189B00D3181A68E4
:1028AC00D2175A60F6E59B00C418A02351420901C7
:1028BC0009091B061943C825AD006059FEF780FDB8
:1028CC00605110E6B02103011B0909061943FEF7FC
:1028DC0077FDC835AD00605105E6A02112019B00C3
:1028EC0012090906C4181143E5E7C8339B001D59AA
:1028FC0010482D022D0A2A0006F090FBDFE5280077
:10290C0006F08CFBE7239B00E358C8339B001B5954
:10291C00002B00D02EE756E7C8249B00C832C51800
:10292C009200A40011582859FEF74AFD2851DAE507
:10293C00ECB2012078B10120D9239B00C358F0B52B
:10294C00002B27D0D7230F219B00C4582033220BF8
:10295C000A40260AC2500E4004332509C6500D40C9
:10296C000433C55021400433C150EB27AB005B1935
:10297C005B005B18BF00C351092A0AD8284F92008C
:10298C00BA589746032E3FDCE7239B00C55008330B
:10299C00C150F0BDD7230F219B00C4582033220F08
:1029AC00260EC2500E400433250DC6500D40043384
:1029BC00C550230C1940E2239B00C150D5E7CB2214
:1029CC0092008258C83292001258D318EA22920010
:1029DC008350DEE7EC23220C9B00C254114B220ADD
:1029EC00C254114BC454D4E7E7239B00C5500433A5
:1029FC00C150CEE79B001A58EA239B00C250C8E78F
:102A0C00CC22DDE7CD22DBE7063E012EC1D8E72341
:102A1C009B00C5500433C1500433C150B9E7C046C4
:102A2C00ECB30120B1030000B2030000F0B5C646C0
:102A3C00F42600B5B600855D0400422D0CD019D8E3
:102A4C00202D44D0412D0ED142238355FFF7E8FCB5
:102A5C00F12301229B00E2504323A355DF239B006B
:102A6C00E358012B2FD9F12301229B00E25004BC27
:102A7C009046F0BD432DF6D141238355D8239B00BE
:102A8C00C11808330822C01806F016F8DA239B0088
:102A9C00E35C20009B001A59D7239B00E250FFF700
:102AAC004BFF0123F1279846BF00E3514133A35557
:102ABC002000FFF7B5FC4346E351DF23A5559B00EF
:102ACC00E358012BCFD82000FEF70CFECBE74123B7
:102ADC008355D8239B00C11808330822C01805F071
:102AEC00EBFFDA239B00E35C20009B001A59D723F1
:102AFC009B00E250F125FFF71FFF01274223AD0099
:102B0C0067512000A355FFF78BFC43236751A35556
:102B1C00DF239B00E358012BA5D8D4E7EE23F0B5B7
:102B2C00C6469B00C358040000B5002B0BD0EF2306
:102B3C009B00C658002E09D0043B9C460022002363
:102B4C0064442260636004BC9046F0BDF427BF006F
:102B5C00C55D422D0BD016D8202D3FD0412D0DD167
:102B6C004223C355FFF75CFCF1239B00E650432343
:102B7C00E355DF239B00E358012B2BD9F1230022D3
:102B8C009B00E250DFE7432DF8D14123C355D823F6
:102B9C009B00C11808330822C01805F08DFFDA23FA
:102BAC009B00E35C20009B001A59D7239B00E2504A
:102BBC00FFF7C2FEF1239B00E6509846422320000B
:102BCC00E355FFF72DFC4346E650E555483BE358EB
:102BDC00012BD3D82000FEF785FDCFE74123C35549
:102BEC00D8239B00C11808330822C01805F064FFD5
:102BFC00DA239B00E35C20009B001A59D7239B002F
:102C0C00E250F125FFF798FE4223AD0066512000FB
:102C1C00E355FFF705FC6651A9E7C046D823F0B58C
:102C2C004D4C9B00C646E25C0433E3582126591EEA
:102C3C008B4100B5494F5B424949334096B0203334
:102C4C003800884605F0E8F9464D47493A00280017
:102C5C0005F0E2F9DA239B00E25C0433E358380018
:102C6C00591E8B415B4233402033414605F0D4F969
:102C7C003A003E4902A805F0CFF9280002A913F04A
:102C8C0055F8D4239B00E3180CCB511C5FD0384E65
:102C9C003849300005F0C0F93200374902A805F078
:102CAC00BBF902A9280013F041F8D7239B00E25886
:102CBC00324902A805F0B0F902A9280013F036F841
:102CCC00EF21EE23DD22890061589B009200E3582E
:102CDC00A25802A800912A4905F09EF902A92800E1
:102CEC0013F024F8D623274E274F9B00E25C3900C3
:102CFC00300005F091F93200244902A805F08CF956
:102D0C0002A9280013F012F8214B3900E25C3000C4
:102D1C0005F082F932001F4902A805F07DF902A9DD
:102D2C00280013F003F81C4B3900E25C300005F06E
:102D3C0073F93200194902A805F06EF9280002A9AE
:102D4C0012F0F4FF280016B004BC9046F0BD591CDC
:102D5C009DD1134AA1E7C046A808022030050220E5
:102D6C0020B40120B006022028B401203CB401207C
:102D7C00C004022050B4012058B401206CB40120CE
:102D8C0084B40120F0040220ACB40120B4B40120BE
:102D9C0059030000C8B401205A030000DCB4012020
:102DAC0014B40120F8B5CE464746484880B506F025
:102DBC0035F9474806F032F9FFF730FF0100454876
:102DCC0006F02CF9444B00249946444B444D98464C
:102DDC00444F454E15E00B3A51424A4111215242A3
:102DEC008A433F321B0141461B09300005F014F9A0
:102DFC00210032003800013406F010F90435082C9B
:102E0C0010D02B685A1C04D01A0F0A2AE3D12B229B
:102E1C00E8E721004A463800013406F0FFF8043593
:102E2C00082CEED1D023314C9B00E3180CCB511C59
:102E3C0043D02F4D2F49280005F0EEF82A00082129
:102E4C00380006F0EBF8D2239B00E3180CCB511C96
:102E5C0037D0274D2749280005F0DEF82A00092134
:102E6C00380006F0DBF80A2005F030FF224806F0A7
:102E7C00D5F8224806F0D2F8E7239B00E158204809
:102E8C0006F0CCF8E8239B00E1581E4806F0C6F883
:102E9C00E9239B00E1581C4806F0C0F8EB239B008B
:102EAC00E258043BE158194806F0B8F80A2005F03E
:102EBC000DFF0CBC90469946F8BD591CB9D1064A79
:102ECC00BDE7591CC5D1044AC9E7C046F0B401207E
:102EDC00F8B4012000B5012014B4012004B5012080
:102EEC00C80B02200CB50120B0040220A808022057
:102EFC00C004022050B401201CB5012028B50120CB
:102F0C0034B5012048B501205CB5012070B5012015
:102F1C0030B5B3B0050001F069F9184801F096FB23
:102F2C00041E1FD02900164805F076F82800154914
:102F3C0011F046FC041E18D0134D03E0694628001E
:102F4C0006F06CF82200C721684611F0CBFC002873
:102F5C00F4D1200011F0A8FC012401F065F9200047
:102F6C0033B030BD01F060F9F9E72900074806F0ED
:102F7C0055F8002401F058F9F1E7C046E8AC0120FF
:102F8C0094B5012010C30120D4B70120A4B50120B1
:102F9C00F0B5B3B0050001F029F9214801F056FB5A
:102FAC00041E32D029001F4805F036F828001E49AF
:102FBC0011F006FC061E2BD01C4F3200C7216846B0
:102FCC0011F090FC002817D06B461B782A2BF4D1FB
:102FDC00174C250050356A46210038006368984725
:102FEC000028EAD10834AC42F5D13200C72168463A
:102FFC0011F078FC0028E7D1300011F055FC0124C9
:10300C0001F012F9200033B0F0BD01F00DF9F9E731
:10301C002900084806F002F8002401F005F9F1E750
:10302C00E8AC012094B5012010C30120A8080220AF
:10303C001CE20120A4B5012010B5010004000748D2
:10304C00FFF7A6FFF32200239200A350043AA350EB
:10305C00F12301229B00E25010BDC046E80E022075
:10306C0010B502490248FFF793FF10BDA8080220D3
:10307C00B8B50120F0B5C64600B55B4C0500A544BB
:10308C0001A812F0BFFE01A9584805F0C7FF01F0D6
:10309C00ADF8574801F0DAFA041E00D195E00A2287
:1030AC0001A906A80DF0C4FC002874D1514906A84A
:1030BC0010F066F9D8239B00EA5C4F4906A810F083
:1030CC005FF9D9239B00EA584C4906A810F058F92F
:1030DC00D4239B00EB181A685B68494906A810F0CA
:1030EC004FF9D6239B00EA5C464906A810F048F934
:1030FC00454B4649EA5C06A810F042F9444B454959
:10310C00EA5C06A810F03CF9D7239B00EA58424928
:10311C0006A810F035F9DC239B00EA5C3F4906A8B1
:10312C0010F02EF9C82300249B003D4FEE1822000E
:10313C00390008CE06A8013410F022F9082CF6D17B
:10314C00C823384C9B0021000822EB5806A810F02D
:10315C0017F9C9239B002100EB58092206A810F08F
:10316C000FF9314906A810F00BF9304B0024072653
:10317C0098462F4F08E0A3003900EA5806A80134FE
:10318C0010F0FEF8C82C13D02642F4D1414606A804
:10319C0010F0F6F8EFE7274805F040FF002401F0A7
:1031AC0043F820009E239B009D4404BC9046F0BD38
:1031BC00214906A810F0E4F806A80FF0A1F8041EA7
:1031CC0006D101F031F80124EBE701F02DF8E8E726
:1031DC0011F0EAFA22000100184805F01FFF002444
:1031EC0001F022F8DDE7C04688FDFFFFC4B50120E1
:1031FC00E8AC0120DCB5012008B601201CB601208A
:10320C0030B6012044B601205903000060B60120FD
:10321C005A0300007CB6012098B60120B4B60120F8
:10322C00CCB60120D8B60120E8B60120F4B60120B6
:10323C00F8B60120D0B5012058B1012000B701200B
:10324C0030B504000C4D85B02A000C4B0C490D48D0
:10325C0001F070FA0C4B29001A686846013204F030
:10326C00DBFE69462000FFF705FF6946074805F0BD
:10327C00D5FE05B030BDC04624B7012018B70120DB
:10328C0034B70120E8AC01207C04022040B70120B7
:10329C0010B5094800F0D2FF002808D0074C0848A8
:1032AC002100FFF7E7FE2000FFF732FE10BD0549B5
:1032BC00054805F0B3FEF1E7E8AC0120B8B50120F4
:1032CC00A8080220200E022058B70120F0B5DE46D7
:1032DC0057464E464546E0B504009FB00A2005F01F
:1032EC00F5FCD4239B009A46A24453460CCB511CAC
:1032FC0000D1CEE1E94FEA49380004F08DFED82325
:10330C00D9269B00B600E25C9B46A3592125591E89
:10331C008B41E4495B428946E3492B408846203384
:10332C004946404604F078FE39004246DF4805F035
:10333C0075FE0A2005F0CAFCDD4FDE491322380069
:10334C0005F0BAFB5B46E25CA3594046591E8B4123
:10335C005B422B402033494604F05EFE53461B680B
:10336C005A1C00D152E21A0F0A2A00D1EAE10B3A98
:10337C0051424A41112152428A433F32CE4D1B01E8
:10338C001B092800CD4904F047FE2B0005AD424631
:10339C00CB49280004F040FE2900380012F0C6FC8E
:1033AC00C84E300000F050FED8239B00E25C043382
:1033BC00E3584046591E8B41594221230B40203380
:1033CC00494604F029FE53461B685A1C00D11BE2E7
:1033DC001A0F0A2A00D1B3E10B3A51424A4111218A
:1033EC0052428A433F32B4491B018A461B0950465C
:1033FC00B24904F011FE53464246B349280004F08A
:10340C000BFE00220021300000F054FD290030009A
:10341C0000F0A6FDDE239B00E358002B00D087E1D3
:10342C00DA239B00E25C0433E3584046591E8B417F
:10343C00594221230B402033494604F0EDFDD7239C
:10344C009B00E258A14B9A46A14B514618009B4653
:10345C0004F0E2FDF4239B00E35C42460093280059
:10346C005B469C4904F0D8FDDE239B00E358002BFF
:10347C0000D057E1DA239B00E25C0433E35840466A
:10348C00591E8B41594221230B402033494604F0ED
:10349C00C3FDD7239B00E2588D4B5146180099462B
:1034AC0004F0BAFDF4239B00E35C42460093280031
:1034BC004B46894904F0B0FD08220021300000F091
:1034CC00F9FC2900300000F04BFD2900380012F007
:1034DC002DFCE7239B00E3589946013300D11EE1F4
:1034EC004B46072B00D8B2E07C4B98467C4B4146B0
:1034FC001800994612F086FC4A467A49280004F0D6
:10350C008BFD2900380012F011FCE7239B00E358D7
:10351C009B46013309D05B46072B00D854E16F4B17
:10352C0098464146484612F06DFC4946280012F078
:10353C0069FC10220021300000F0BCFC2900300096
:10354C0000F00EFDE8239B00E3589946013300D1AF
:10355C00E2E04B46072B00D816E1604B9846624BD5
:10356C0041461800994612F04DFC4A465F49280026
:10357C0004F052FD2900380012F0D8FBE8239B0020
:10358C00E3589B46013309D05B46072B00D8DBE0A0
:10359C00524B98464146484612F034FC49462800A6
:1035AC0012F030FC18223000002100F083FC2900BE
:1035BC00300000F0D5FC4E4B29001A6838000592FB
:1035CC001B792B7112F0B2FB4A484B4B8346E25CE1
:1035DC004A489300195980460391594604F01CFD42
:1035EC00474851468146039A04F016FD4B46424625
:1035FC002800444904F010FD2900380012F096FB15
:10360C003D4B5946E25C404693001C5904F004FDC6
:10361C0022005146484604F0FFFC4B464246280027
:10362C00394904F0F9FC20223000002100F042FC62
:10363C002900300000F094FC3900344805F0EEFC11
:10364C001FB03CBC90469946A246AB46F0BDC83371
:10365C009B001B595A1C00D1E4E01A0F0A2A00D116
:10366C00DAE00B3A51424A41112152428A433F322D
:10367C0011491B0188461B094046104904F0CCFC3B
:10368C004346164A224990464A46404604F0C4FC3A
:10369C002CE7591C00D02DE61E4F30E6C00402204A
:1036AC0050B4012020B401203005022070B7012055
:1036BC00480D022094B70120B004022004B501206B
:1036CC00A8B7012070ED0120ACB70120C4B60120D1
:1036DC0000050220C0B70120C4B70120D00402208D
:1036EC0010050220D0B7012020050220D8B70120F8
:1036FC00E0B70120ACB401205A030000F004022012
:10370C00A0040220E8B70120ECB70120F8B7012093
:10371C0064B7012014B40120454B994625E7454B6D
:10372C009946E9E64B222800434904F075FCC3E6B0
:10373C004B222800414904F06FFC414B9A4693E61A
:10374C002B2250E62B2219E6C8339B001B595A1C1E
:10375C006AD01A0F0A2A5DD00B3A51424A41112104
:10376C0052428A433F3237491B0188461B09404667
:10377C00354904F051FC4346344A354990465A4683
:10378C00404604F049FC05E7C8339B001B595A1C02
:10379C004CD01A0F0A2A3BD00B3A51424A41112104
:1037AC0052428A433F3227491B0188461B09404637
:1037BC00254904F031FC4346244A254990464A46A3
:1037CC00404604F029FCCAE6C8339B001B595A1C1E
:1037DC0026D01A0F0A2A21D00B3A51424A41112104
:1037EC0052428A433F3217491B0188461B09404607
:1037FC00154904F011FC4346144A154990465A46A3
:10380C00404604F009FC8CE6124BF5E5114BBDE586
:10381C002B22C8E72B22A6E72B2229E72B22E2E753
:10382C000C4BE9E70B4B2CE70A4BA5E7094BC3E71D
:10383C002005022010050220BCB70120B8B70120DA
:10384C00C4B60120B004022004B50120D00402202B
:10385C0064B7012014B40120F0B5DE4657464E463D
:10386C004546E0B58FB0B04809AB08AA07A901F0EE
:10387C0085F8002803D1AC49AC4802F0EFFD099A59
:10388C000899079801F03EF805F0D4FBFA20C00027
:10389C0002F07EF80A2005F019FAA54C200005F07C
:1038AC00BDFBA44805F0BAFB200005F0B7FB0A20CD
:1038BC0005F00CFAFDF7F0FA9F4800F0F3FA9F4B75
:1038CC009846180000F03EFC9D4805F0A7FB10F050
:1038DC0063FE00F08BFC00F0A7FC15220021404693
:1038EC0000F0E8FA974B1B68002B00D113E140461F
:1038FC00954900F035FB954805F090FB00F076FCFF
:10390C00934800F0A3FE002800D000E1914805F098
:10391C0085FB9149914805F081FB00F085FC9048AE
:10392C0002F036F8404600F08FFB0022142140468E
:10393C0000F0C0FA40468B4900F012FB08221E2111
:10394C00404600F0B7FA4046874900F009FB1022C8
:10395C001E21404600F0AEFA4046844900F000FBC0
:10396C00834805F05BFB834B834C9946834B844E19
:10397C009B46D0231B069A464B461B680A21581CB3
:10398C0004F0DCFB4B461960012971D009290AD1DE
:10399C002000FDF7E3FA06E000F0AEF9210002008A
:1039AC00300000F07BF900F0BFF90028F4D0FA20C9
:1039BC00800005F045FB431C72D00023714A03E0E4
:1039CC0001330C32262B2DD011788842F8D16E4A57
:1039DC0010605A00D3186B4A9B00944663449B6852
:1039EC0098476A496A4805F019FB6A496A4B0868A6
:1039FC0059461B6809680493684B4D1EA9411B6806
:103A0C00494205935A1E934121225B4213400A40BE
:103A1C0020320292049A01900090110060482033E9
:103A2C0005F0FCFAF1239B00E258002AA4D00022F6
:103A3C00E2500433E358002B3CD1F3239B00E358B2
:103A4C00002B33D0404600F0FFFA082240460021FC
:103A5C0000F030FA4046534900F082FA40461022FA
:103A6C00002100F027FA40464F4900F079FA83E72D
:103A7C005346022299619A6152460423936104339E
:103A8C0093614A4B1B685A1C049303231340474A07
:103A9C001360474A9B00D35899405346596182E7BB
:103AAC00012000F00BF905F039FABBE72000FFF715
:103ABC000DFC61E7404600F0C7FAF5239B00062297
:103ACC00E158234800F09CFC0025374F0DE03949A4
:103ADC00202209A804F0A0FA404609A900F040FAF7
:103AEC00072D00D148E70135143700214046EA0084
:103AFC0000F0E0F93B00002DE9D13E222D4909A848
:103B0C0004F08AFA404609A900F02AFAEBE72A48A1
:103B1C0005F084FA01E74046284900F021FA2848CC
:103B2C0005F07CFAEAE6C046580F0200D8B801202E
:103B3C0018B8012068B801206CED012070ED01204F
:103B4C00B8B80120480502200CB9012018B9012091
:103B5C00E8AC012044B90120200E022000B5012060
:103B6C00B80B00007CB901208CB9012094B901205C
:103B7C00A0B901206C040220A8080220ACFE012090
:103B8C000CDF01204CE3012070040220840502208C
:103B9C00FCAE012098FE012084040220B0FE01201E
:103BAC0014AF012008B80120E80E022054040220B2
:103BBC0014BC012000B8012064B9012024B90120F3
:103BCC0034B90120F8B54746CE46856880B52B68D8
:103BDC001700804689462C001E1E426805D124E041
:103BEC000134FF342668002E23D0B242F8D104E011
:103BFC000135FF352B68002B01D09A42F8D1002CEF
:103C0C0013D0390048462500E36898470026103544
:103C1C006B68002B09D03800296800F091F8002857
:103C2C0009D101360C35142EF2D10CBC90469946B4
:103C3C00F8BD0024E1E7700083199B00E318596973
:103C4C0043469A681368002B25D1801980002418EC
:103C5C00A369002B03D03900484698476169434655
:103C6C005B688B42E1D0434659609B681A68002A16
:103C7C0005D1DAE70133FF331A68002AD5D0914217
:103C8C00F8D1390048469B689847CEE70132FF329D
:103C9C001368002BD9D09942F8D1D6E770B516002D
:103CAC00C26804000D00002A05D132002900200052
:103CBC00FFF788FF70BDFFF785FFF6E770B50A4C7C
:103CCC00050023680A21581C04F038FA074B1B68BE
:103CDC008B4204D0064B8A00D550216070BD012266
:103CEC00044B1A60FAE7C046B0050220B405022066
:103CFC00F40D0220B805022010B5084B084C1B68C7
:103D0C002068834208D00A21013004F017FA054BD1
:103D1C008A00D058216010BD0120FCE7B0050220BC
:103D2C00B4050220F40D0220034B1868034B1B68EA
:103D3C00C01A434258417047B0050220B405022016
:103D4C000300112906D00120122902D0C91A4842B9
:103D5C00484170470B3B180000210923834249411D
:103D6C000800F6E7F8B5D024802780252406FF014B
:103D7C002D0201200021A76201F0F2FD012000219B
:103D8C00A56201F0EDFD656201200021A56101F045
:103D9C00E7FD0726012000216762A76101F0E0FD25
:103DAC0001200021A56201F0DBFD013E65620120CE
:103DBC000021A56101F0D4FD002EEBD1D02480258B
:103DCC00802324061B02ED01A5620120A3620021C1
:103DDC0001F0C6FD642302E0013B002B0FD06268AA
:103DEC002A42F9D10124D02380221B0612025A62E6
:103DFC00012000219A6101F0B3FD2000F8BD0024E0
:103E0C00F1E7C0468023F0B5C646D0258026DB01FD
:103E1C0004000827984600B52D06360216E04346E6
:103E2C006B62AB610120002101F09AFD01200021A1
:103E3C00AE6201F095FD64006E6201200021AE615E
:103E4C00013F01F08DFDE4B2002F05D063B2002BD1
:103E5C00E5DA4346AB62E5E7D024802580232406CF
:103E6C001B02ED01A5620120A362002101F078FD87
:103E7C00642302E0013B002B11D062682A42F9D185
:103E8C000124D02380221B0612025A620120002139
:103E9C009A6101F065FD200004BC9046F0BD002441
:103EAC00EFE7C04610B50E2000F04EFE0F2000F0DC
:103EBC004BFE10BD7F2370B50500C817400E0918C6
:103ECC001940091AD017800E13183F2213401B1AE1
:103EDC00D817383A0240D2180F2382B0C817D21024
:103EEC00060F01AC503A22708A191A4003405B1835
:103EFC001B111033921BA370D02680233606DB01D6
:103F0C006270012073620021B36101F029FD8023EE
:103F1C001B0273620120B361002101F021FD28799D
:103F2C004000C0B2FFF76EFF6B46DD1DFFF71AFFB6
:103F3C0020780134FFF766FFAC42F7D1D024802300
:103F4C0024061B02A3620120002101F009FD80233D
:103F5C00DB0101200021A36201F002FD02B070BD63
:103F6C00F8B54E464546DE4657468046E0B5080055
:103F7C000E0011F04FFF00285ED080278346D0241E
:103F8C00FF01BA46B344240635780120203DAB002E
:103F9C005D192C4B00219C4653466362A36165441A
:103FAC0001F0DEFC80231B02002163620120A3616F
:103FBC0001F0D6FC434618794000C0B2FFF722FF4F
:103FCC004020FFF71FFF6B1D994628780135FFF73E
:103FDC0019FFA945F9D180252D0201200021A562E8
:103FEC0001F0BEFC01200021A76201F0B9FC012008
:103FFC0000216762A76101F0B3FC0021012065621A
:10400C00A56101F0ADFC4346187901364000C0B201
:10401C00FFF7F8FE4020FFF7F5FE0020FFF7F2FE59
:10402C0001200021A56201F09BFC01200021A76268
:10403C0001F096FCB345A7D13CBC90469946A246EC
:10404C00AB46F8BD24BC01200023F0B557464E46C4
:10405C004546DE4699468023E0B5DB01D024802519
:10406C00824698469B464E4683B001AF24062D02ED
:10407C00F310503B3B7000237B701033BB705B46DE
:10408C00012063620021A36101F06AFC0120002180
:10409C006562A56101F064FC534618794000C0B21A
:1040AC00FFF7B0FE33003E009946FFF75BFE307819
:1040BC00FFF7A8FE6B46013607339E42F5D101206F
:1040CC000021A56201F04CFC434601200021A362B3
:1040DC0001F046FC4346012063620021A36101F01C
:1040EC003FFC002101206562A56101F039FC5346BB
:1040FC0018794000C0B2FFF785FE4020FFF782FE22
:10410C0080231E000E4B013E1878FFF77BFE002E1D
:10411C00F8D101200021A56201F022FC4E46434655
:10412C0001200021A362083601F01AFC402E9FD119
:10413C0003B03CBC90469946A246AB46F0BDC04687
:10414C00E4050220F8B5D02480268025070024063B
:10415C002D02F6016662012065620021A661A5614F
:10416C006662A66101F0FCFB65620120A56100217D
:10417C0001F0F6FBA5620120002101F0F1FB01200A
:10418C000021A66201F0ECFB666201200021A66111
:10419C0001F0E6FB65620120A561002101F0E0FB66
:1041AC0038794000C0B2FFF72DFE0F4C25001E35AC
:1041BC00FFF7D8FD20780134FFF724FEAC42F7D18D
:1041CC00D024802324061B02A3620120002101F0CD
:1041DC00C7FB8023DB010021A362012001F0C0FB9F
:1041EC003800FFF731FFF8BD04BE0120002310B5E5
:1041FC00084C01220849094823600CF047FB0028B1
:10420C0002D10123236010BD0C220549054804F09E
:10421C0053FCF8E74805022024BE0120880F022039
:10422C0028BE0120200E022010B5002200200249D9
:10423C000CF02CFB10BDC04624BE0120F0B5604C28
:10424C00FB22A54400240021060035A8349404F078
:10425C002DFC5C4D5C4F012229005C483C600CF04D
:10426C0015FB002800D09EE001233B6028000EF0D7
:10427C0083F800230021FB2275A8749374AC04F01E
:10428C0015FC28000EF078F8FF2120000EF016F92E
:10429C00002800D081E03100200011F06FFD0028D3
:1042AC0000D06EE0FF2134A80EF008F9061E59D19B
:1042BC0034A9474804F0B2FE582200211EA804F08D
:1042CC00F5FB902200215200200004F0EFFB2100AE
:1042DC00404B34AA1EA80EF03BFD061E69D13E4E83
:1042EC0005E021001EA80EF0C1FC00282AD1A37EF7
:1042FC00002B27D010221100237B19401A42F0D139
:10430C006B461970F5235B006B441900300004F008
:10431C0085FEF52040006B4630490AAA684411F02E
:10432C0065FC0028DDD068462D4911F027FD0028DA
:10433C00D7D12C4804F072FE21001EA80EF096FC7A
:10434C000028D4D01EA80EF059FC0A2004F0BEFCA4
:10435C000022290000200CF099FA0120BD239B00BB
:10436C009D44F0BD10F020FA330002001E491F4896
:10437C0003F052FE0022290000200CF087FA0020E6
:10438C00ECE730000EF016F8002800D18AE70200A6
:10439C001749164803F040FE84E7020015491348FC
:1043AC0003F03AFE7EE70C221349104804F084FB1C
:1043BC005CE710F0F9F9330002001049D7E7C0466A
:1043CC000CFDFFFF24BE012048050220880F0220AF
:1043DC007CBE012094BE012000B50120B4BE01209A
:1043EC003CB70120C0BE012060BE0120200E02207F
:1043FC0044BE012034BE012028BE012098BE0120FD
:10440C00F0B5DE46454657464E46E0B500257E4C97
:10441C008B46A54400210400904635A8FB22349518
:10442C0004F044FB794E7A4F0122310079483D600B
:10443C000CF02CFA002800D0CDE001233B603000BA
:10444C000DF09AFF00230021FB2275A8749374AD24
:10445C0004F02CFB30000DF08FFFFF2128000EF034
:10446C002DF8002800D0B0E02100280011F086FCC7
:10447C00002800D09DE0FF2134A80EF01FF8041E88
:10448C0000D087E043465A4634A9634804F0C6FD81
:10449C00582200211EA804F009FB90220021520092
:1044AC00280004F003FB29005C4B34AA1EA80EF074
:1044BC004FFC071E00D094E02823594CE0541433D1
:1044CC00E0541433E0541433E0541433E0541433F4
:1044DC00E05400231F009A46524B207099462075D9
:1044EC0005E029001EA80EF0C1FB00282FD1AB7EE1
:1044FC00002B2CD0102211002B7B19401A42F0D12A
:10450C006B461970F5235B006B441900484604F0A8
:10451C0085FDF52040006B4643490AAA684411F01A
:10452C0065FB0228DDD16846404911F027FC0028C4
:10453C00D7D1D34502DC3B00B84558DC01239C465F
:10454C0029001EA8E2440EF091FB0028CFD00025D4
:10455C001EA80EF053FB0A2004F0B8FB344F2200C7
:10456C0029003800013504F059FD1434082DF6D11A
:10457C000A2004F0ABFB0022310000200CF086F97D
:10458C000120BD239B009D443CBC90469946A2460D
:10459C00AB46F0BD10F008F923000200254926486F
:1045AC0003F03AFD0022310000200CF06FF90020DE
:1045BC00E7E720000DF0FEFE002800D15BE70200CB
:1045CC001E491D4803F028FD55E702001C491A48F6
:1045DC0003F022FD4FE70C221A49174804F06CFA3D
:1045EC002DE710F0E1F83B0002001749D7E79C4695
:1045FC009800F52360445B006B448000190000199F
:10460C00013711F0FFFB99E70CFDFFFF24BE0120E1
:10461C0048050220880F0220C8BE012094BE01204C
:10462C00E80E022000B50120B4BE01203CB70120E9
:10463C0004BF012060BE0120200E022044BE0120D8
:10464C0034BE012028BE012098BE0120002310B5E5
:10465C00C0B00021FB22040001A8009304F026FA4C
:10466C0012480DF089FEFF2168460DF027FF002847
:10467C0014D12100684611F081FB002802D10120E1
:10468C0040B010BD20000DF095FE0028F7D00200C0
:10469C000749084803F0C0FC0020F1E70200064976
:1046AC00044803F0B9FC0020EAE7C04624BE012010
:1046BC0044BE0120200E022034BE0120F8B5002398
:1046CC00154D164E04000F000122290014483360CA
:1046DC000CF0DCF8002819D1012333602000FFF71F
:1046EC00B5FF00280FD038000EF0A8FB002805D12C
:1046FC002900002200200CF0C9F8F8BD3900094847
:10470C0004F08CFCF4E721000748F9E70C22074978
:10471C00074804F0D1F9E1E724BE01204805022046
:10472C00880F022024BF01200CBF012028BE0120CD
:10473C00200E0220F0B5CE46474680B5634CFB22D6
:10474C00A544002405000F0019A8002199461894CF
:10475C0004F0ACF95E4E5F4B012231005E48984686
:10476C001C600CF093F8002800D099E0012342461D
:10477C00136000230021FB2259A8589358AC04F075
:10478C0095F930000DF0F8FDFF2120000DF096FE9C
:10479C00002800D07AE02900200011F0EFFA002860
:1047AC0068D1FF2118A80DF089FE051E4ED118A95D
:1047BC004A4804F033FC5822002102A804F076F990
:1047CC00902200215200200004F070F9444B21008B
:1047DC001D60984618AA4B4602A80EF0B9FA051EA1
:1047EC0064D1103505E0210002A80EF03FFA002834
:1047FC001DD1A37E002B1AD02A00237B1A401D4208
:10480C00F1D1BD235B006B4418000192390001AA61
:10481C0011F0ECF94246019B12689342E3DD4246EB
:10482C00210002A813600EF021FA0028E1D002A8A2
:10483C000EF0E4F90022310000200CF027F843467A
:10484C002848196804F0EAFB01200CE00FF0ACFFDB
:10485C002A000100244804F0E1FB00223100002072
:10486C000CF014F80020A1239B009D440CBC904636
:10487C009946F0BD28000DF09DFD002800D190E771
:10488C0002001A491A4803F0C7FB04E00200194958
:10489C00174803F0C1FB2900174804F0BFFBDCE705
:1048AC000C221649124804F007F962E70022310085
:1048BC0000200BF0EBFF28000FF076FF2A00010020
:1048CC000F4804F0ABFB0020CDE7C0467CFDFFFF9A
:1048DC0024BE012048050220880F022040BF012081
:1048EC007C04022078BF012060BE012044BE012060
:1048FC00200E022034BE01200CBF012028BE012056
:10490C0058BF0120F0B583B005000E00140000F074
:10491C00ABF9002801D003B0F0BD154F01223B00CC
:10492C0001210097053001F0B7FD33002A000094F7
:10493C000121104801F09EFF21002800714303F073
:10494C0025FC04000C4B002200930221042001F0F2
:10495C00A3FD2300002201210094052001F09CFD01
:10496C003B00022200210097062001F095FDD2E7C2
:10497C00006CDC0200800240001BB700F0B5DE4684
:10498C0057464E464546E0B5070083B004209B468B
:10499C000091019201F068FFFA21890003F0F6FB07
:1049AC0032238246FF33994686005644B6014C4B5F
:1049BC004C4AF318072493420BD901235B429C46C3
:1049CC005346E144F61A4B46002BF0D100205AE036
:1049DC00012421003000614303F0D8FB874259D0F9
:1049EC00631E9846012CE8D01D0065433000290059
:1049FC0003F0CCFB874251D0A31E9846022CE7D083
:104A0C002D1B2900300003F0C1FB874249D0E31E67
:104A1C009846032C4BD02D1B2900300003F0B6FB1D
:104A2C00874246D0231F9846042C48D02D1B2900C2
:104A3C00300003F0ABFB874243D0631F9846052C34
:104A4C0045D02D1B2900300003F0A0FB874240D03D
:104A5C00062C42D03000E91F03F098FB0624874255
:104A6C00B7D10029B5D101230724984673019B1BAC
:104A7C009B009E19009BF6001E60019B42461C6029
:104A8C005B4601201A6003B03CBC90469946A24696
:104A9C00AB46F0BD0029A3D1A046E7E70029ABD176
:104AAC00E4E70029E2D0E31E9846032CB3D102249C
:104ABC008FE70029DAD0231F9846042CB6D10324A3
:104ACC0087E70029D2D0631F9846052CB9D104245E
:104ADC007FE70029CAD0062CBCD1052479E7C04653
:104AEC00508EF4FF50F80C00094A83009446402283
:104AFC00634410B51C68C0006240C024144080227E
:104B0C00520113431C60034B9C466044416010BD32
:104B1C0004C00140004001400A4B80009C46042325
:104B2C006044002901D00C230821002A00D10B007D
:104B3C00026853400C221A4080235B011843026028
:104B4C007047C04604C001400123D02283401206A6
:104B5C0093629361094A8300944640226344196826
:104B6C00C0004A40C02111408022520113431960F9
:104B7C00034B9C46052360444360704704C00140CE
:104B8C0000400140F8B5EFF3108772B60E4E336853
:104B9C00002BFCD0BFF35F8FCB08C4180725A446AD
:104BAC00C45C01230D40AB4018002040234208D1C7
:104BBC00624623431370BFF35F8F306087F3108816
:104BCC00F8BD100001F04AFC2C0100D0F8B5CE461F
:104BDC0047468C4680B5EFF3108872B6214D2C6891
:104BEC00002CFCD0BFF35F8F9A422CD8D40807213D
:104BFC00055D0619012411408C402C421FD0072161
:104C0C008946063909E0D408055D06194C460F00A3
:104C1C001440A7403C002F4211D001329342F2D2F3
:104C2C0001204042BFF35F8F00220E4B1A6088F3C5
:104C3C00108800280FDB0CBC90469946F8BD2C431D
:104C4C0010003470EEE7BFF35F8F00232B6088F306
:104C5C001088012040426346002BECD0089801F0EC
:104C6C00FDFBC0462C0100D0024B18688007C00F1A
:104C7C007047C04600C006400021044B044ABFF3F5
:104C8C005F8F02C39342FAD17047C046000100D037
:104C9C00800100D0044A1078431CDBB2172B00D9DA
:104CAC00102313707047C04678ED012000B5054BFA
:104CBC0083B00100009318221F230348FFF786FFDF
:104CCC0003B000BD94BF0120B4FF01200123834039
:104CDC00002904D0034A1360034A13607047034A47
:104CEC001360FBE780E200E000E100E080E100E01F
:104CFC0001238340014A13607047C04600E200E084
:104D0C00084B10309B688000C358002B07D0064A14
:104D1C0000209B1A2F229A424041C0B270470020BB
:104D2C00FCE7C04600ED00E07CED0120024B1030AA
:104D3C009B688000C058704700ED00E070B50D0016
:104D4C00EFF3108672B60F4A1368002BFCD0BFF33A
:104D5C005F8F0D4B10309B6884001B590B4A93429C
:104D6C0003D09D4201D001F091FB074B9B681D5174
:104D7C00BFF35F8FBFF35F8F0022024B1A6086F385
:104D8C00108870BD240100D000ED00E0CD010010B2
:104D9C00F0B557464E464546DE46E0B5894683B0EB
:104DAC0005001700EFF3108A72B65E4A1368002BE9
:104DBC00FCD0BFF35F8F00205B4B18569B4600283E
:104DCC006DDB5A464400594E2418A40033199846FA
:104DDC009B7910351370564BAA009B6801929B5817
:104DEC009C469B1B2F2B29D8012261469143CB79E2
:104DFC00BB4208D86BE053009B189B00F318DD797D
:104E0C00BD4252D9190006228A56002AF3DABD2671
:104E1C000B1D9B46360243465C46043B1B1B1B0585
:104E2C00444C5B0D23438B80887141468A714A4602
:104E3C00414B8E800B60CF718A601BE03F4B9C45D1
:104E4C0042D142463E4B023413803E4B3619043B52
:104E5C009E1B3605374B760D1E433B4B568093807D
:104E6C00FF23D771937143464A469A600123424609
:104E7C001A43944661462E4B019A9B689950BFF396
:104E8C005F8FBFF35F8F0022264B1A608AF3108866
:104E9C0003B03CBC90469946A246AB46F0BD01F02F
:104EAC00F5FA5B46002018568BE70B1D9B468B884A
:104EBC0004345B051B155B4436199E1BE023360539
:104ECC00760D1B021E43A6E701F0E0FAB9E7454652
:104EDC000B001E489B1B5B415843000D184B2B804D
:104EEC00A31C9C46B4446546164B0434043B5B1B24
:104EFC001B05104D5B0DAC462B43454636196B809C
:104F0C000B1F9E1B6346A87148463605760D1E4343
:104F1C00094BAE80EF71A8600B60434613439C466F
:104F2C00A8E7C046240100D0E00502207CED01205A
:104F3C0000ED00E000E0FFFF01488047CD010010CC
:104F4C0000A1FFFFACED012000BDFFFFAAAA0000ED
:104F5C00F0B5DE4657464E464546E0B50C0083B0EC
:104F6C00EFF3108A72B65A4A1368002BFCD0BFF3C9
:104F7C005F8F1022914681444A46564B96009B689F
:104F8C009D59554B98469D4205D0A54216D0534F7E
:104F9C00EB1B2F2B14D94F4B9B689D51BFF35F8F8D
:104FAC00BFF35F8F00224A4B1A608AF3108803B05C
:104FBC003CBC90469946A246AB46F0BD1D00EAE7C4
:104FCC00012383409B465A46454B1B681A4000926E
:104FDC005A46444B1A60BFF35F8F15F035FD0190B4
:104FEC00002803D0814501D001F050FA01232A009A
:104FFC009A4393689C4208D160E04B005B189B007D
:10500C00FB189968A14211D01A00062151560029AB
:10501C00F3DA009B002B05D05A46334B1A60304B09
:10502C001A60B8E75A462F4B1A60B4E70621595656
:10503C00002922DB4A00501880003C188046A068EA
:10504C009860E079D871062020569871A0797F2855
:10505C0024D8A488F81A6405241544440019E024C3
:10506C000005400D24022043988052181F4B9200DB
:10507C00BF181A781970BA71CBE70199002910D1B1
:10508C00FF3191711A49918018490A789A71194A1D
:10509C00DB1B5B415A43120D0A70BAE7BD200002BC
:1050AC00E2E7154A1549D21A083A5002400D01435D
:1050BC009980134952080A43DA80AAE7062151560F
:1050CC0013000029B6DA019A002AEAD14546DBE73B
:1050DC00240100D000ED00E0CD0100107CED01209A
:1050EC0000E100E080E100E080E200E0E005022069
:1050FC0000BDFFFFAAAA0000B6ED012000F0FFFFE3
:10510C0000F8FFFFF8B501250400054315F09CFCE1
:10511C000300EFF3108672B621490A68002AFCD00E
:10512C00BFF35F8F1F4A20001F49801A4041414343
:10513C00090D1E489B00876849B2FF58AF421CD02E
:10514C000623D3568B421CD01223D3568B4222D02B
:10515C001E23D3568B4220D02A23D35603208B42B6
:10516C0010D0134B1A781970A271BFF35F8F002205
:10517C000B4B1A6086F31088F8BD82680D48D0502E
:10518C00EFE7002043001B189B00D218FF239371FC
:10519C00094B9380E5E70120F4E70220F2E7C046D3
:1051AC00240100D07CED0120AAAA000000ED00E053
:1051BC00E0050220CD01001000BDFFFF054B064AA3
:1051CC001360064A136053609360D360136153619C
:1051DC00936170478080808000E400E004E400E08C
:1051EC00D02300B51B061B680100074883B0C0180C
:1051FC00064B002200930523FFF7E8FC002801DB97
:10520C001F23181A03B000BDD4050220B0BF012023
:10521C0070B504000E001500FFF73CFD01002000E6
:10522C0000F006F8A680E580BFF35F8F70BDC04626
:10523C00024B9C4661448900016070474000003479
:10524C0083680B4810B5844661446244090112011D
:10525C009A18591854684B6801209C4201D802D006
:10526C000020C0B210BD12680B689A42F9D8F7E75B
:10527C00FFFFFF0F0A4B1968EFF3108072B60A6834
:10528C00002AFCD0BFF35F8F1B68BFF35F8F002237
:10529C001A6080F3108840BF002000217047C04680
:1052AC0050050220F8B557464E464546DE46E0B559
:1052BC00434D81468A466A68EFF3108872B61368CC
:1052CC00002BFCD0BFF35F8F2E68B47B002C3ED03C
:1052DC00670033683F19033FDA195378B373002B17
:1052EC0000D1F3730023937053701370A968354A7F
:1052FC008C464946A2181201624411605146516015
:10530C003149D36091603268D21993705370137025
:10531C00737B9B46002B35D022001900B068736854
:10532C0098473268002820D05B4658465B005B44A7
:10533C00D719033BB870D118D35C002B00D07B700D
:10534C005B460C7073735C451DD0002626E06B68C1
:10535C00BFF35F8F1C6088F31088012040423CBC77
:10536C0090469946A246AB46F8BD5B465B005B4453
:10537C00033BD3189C70D119D25D002A00D05A700F
:10538C005B460B7074734A465346287D00F078FCDC
:10539C00061EDAD02100286800F0B8FEEB686A68B7
:1053AC001B19013B1B78BFF35F8F0021116088F341
:1053BC0010880020002ED2D118022043CFE7C0461F
:1053CC00C4ED0120FFFFFF0F35500020F8B5574604
:1053DC0045464E46DE46E0B599460CAB19780DAB0A
:1053EC001B78050090469A460768002912D1BE7BAF
:1053FC00002E45D074003B68A419033C1B195A7845
:10540C003100BA73002A00D1FA7300229A705A70D4
:10541C001A7003E00E004C006418033C2C4B002265
:10542C009C46AB6861449C464346090161440B6051
:10543C004B464B600A9B8B600B9BCB603B681B19EC
:10544C009A705A701A707B7B9B46002B2CD03200C2
:10545C005946B8687B6898473A68002817D05B466D
:10546C0058465B005B441419033BA070D118D35C05
:10547C00002B00D063705B460E707B73B34514D069
:10548C0030003CBC90469946A246AB46F8BD5B4604
:10549C005B005B44033BD3189E701119125D002A0C
:1054AC0000D05A705B460B707E7342464B46287D8B
:1054BC0000F0E6FB041E06D05346002B03D131004E
:1054CC00286800F023FE0E9B002BD9D01C70D7E768
:1054DC00FFFFFF0FF0B5DE464E465746454600230C
:1054EC00E0B58DB00A936B4B8200D3580B90994664
:1054FC0000239B464B46079300F038FB079C0600A5
:10550C000F006268EFF3108572B61368002BFCD0A5
:10551C0022000794BFF35F8F2468637B9946002BAE
:10552C0067D092685C4B90464B441B0198444346B1
:10553C001A685B6810001900801BB94100295FDDF7
:10554C000B9800F09DFB00230026984600279A46F6
:10555C00079C6368BFF35F8F5A461A6085F3108807
:10556C005346002B08D10028C6D10DB03CBC904648
:10557C009946A246AB46F0BD0A9B414618024B46E3
:10558C001843D047089009916268EFF3108572B602
:10559C001368002BFCD00794BFF35F8F0899099A0E
:1055AC00002A48DB114303D0079B1B69002B5DD1FC
:1055BC00079B1B68DA7B002A07D051008A181968F0
:1055CC008C4649466244033A51704A46DA734B465C
:1055DC00079A013BD168CA5C0132CA545B46079AF0
:1055EC0013615368BFF35F8F5A461A6085F31088B6
:1055FC0082E700230026984600279A460020A7E75A
:10560C00002901D100289BD10021200000F0E0FCF2
:10561C0043461E685F689B68079A9A464346DB6858
:10562C009846D3684B44013B1B780A931B020343F7
:10563C00136100208CE72369002BB9D033003C00A8
:10564C005B1A94411A002300A74219D89F421BD021
:10565C005946049101210391494602914146019119
:10566C00514607980091FFF7B1FEB7E700F07EFABC
:10567C00089A099B06000F0092197B419942E5D9C3
:10568C0001225242D317E3E79642E1D9012252425A
:10569C00D317DDE788040220FFFFFF0F10B5124C73
:1056AC006368002B04D00A211048FFF7C1FD10BD20
:1056BC0023000F4A1021206800F0A8FB032000F003
:1056CC0049FA032000F04EFB03200A4900F092FA3D
:1056DC00FFF7E0FA084B9C46032360442375074B05
:1056EC0080006060DC60DEE7C4ED01205005022024
:1056FC000150002095520020400000348804022004
:10570C0000487047C4ED0120F0B557464546DE46CB
:10571C004E46E0B585B0019310AB1B780027039380
:10572C00002380469A46009243465A68EFF310894C
:10573C0072B61368002BFCD0BFF35F8F43461D6815
:10574C00AC7B002C4FD066002B683619033E9B199E
:10575C005A78AA73002A00D1EA7342469F705F7090
:10576C001F709268524B94460099019AE3181B01E2
:10577C00634419605A600E9A9A600F9ADA602B682B
:10578C009B199F705F701F706B7B9B46002B46D0E4
:10579C0022001900A8686B6898472A68002831D045
:1057AC005B4658465B005B449619033BB070D118BE
:1057BC00D35C002B00D073705B460C706B735C4534
:1057CC002ED04346DB681B19013B187843465B68B7
:1057DC00BFF35F8F1F6089F310885346002B2ED1C7
:1057EC000002204307E05B68BFF35F8F1C6089F306
:1057FC0010880120404205B03CBC90469946A24618
:10580C00AB46F0BD5B465B005B44033BD3189C701E
:10581C009119925D002A00D05A705B460B706C7324
:10582C004346187D009A019B00F02AFA8246002814
:10583C00C7D043462100186800F068FCC1E7039B01
:10584C00002B32D00E9B00200F99984703000400C8
:10585C000D000B4329D000290DDA009801990200A4
:10586C000B00121BAB41994215D81AD00092019330
:10587C00039B9A4658E700F079F902000B00A41834
:10588C005D412000290000900191AB4203D8EFD17B
:10589C0000998A42ECD901235B42DC1700930194F6
:1058AC00E6E700999142E1D9F5E70020A3E7C0466D
:1058BC00FFFFFF0FF0B504000D0006267642F71728
:1058CC00C64636196F4100B58F4213D810D000F080
:1058DC004DF932003B00121A8B41002B14DC002BCB
:1058EC0037D02900200000F075F904BC9046F0BDBB
:1058FC008642ECD90026002700F038F932003B0034
:10590C00121A8B41002BEADD30003900FFF7CAFC7C
:10591C000028E6DB00239846BC460F4A0F4F7B6AF3
:10592C009C4504D8B96A8E42DBD99C45D9D1116803
:10593C00EFF3108072B60B68002BFCD0BFF35F8FB7
:10594C001368BFF35F8F4146196080F3108820BF46
:10595C00E5E7002AC5D0D7E75005022000400540F6
:10596C0070B504000D0000F001F902000B002000DE
:10597C002900801859418B4205D802D0FFF79AFFB5
:10598C0070BD8242FAD901204042C117F6E7C046E9
:10599C0070B5060000F0EAF8FA2204000D000023AE
:1059AC0030000021920002F0C1FF001969418D42C4
:1059BC0005D802D0FFF77EFF70BD8442FAD90120D2
:1059CC004042C117F6E7C046F8B5CE46474680B50B
:1059DC0006000C00FFF766FC00280CDC2D4B0020A9
:1059EC00596A8C4203D89B6A0130B34245D30CBC34
:1059FC0090469946F8BD20BF274D6A68EFF3108793
:105A0C0072B61368002BFCD0BFF35F8F2B68C1B24A
:105A1C009C465B7B8B4235D0FF2303405A0091465A
:105A2C0062461268994490464A464244033A927838
:105A3C00002A1DD0EA68000A90464344013B1B78BB
:105A4C00C0B2834221D06B68BFF35F8F00221A6013
:105A5C0087F310880F4A0020536A9C42C7D8926A79
:105A6C000130B242C3D2E41A601E8441E0B2BEE7F8
:105A7C002B699842E7D12A61E5E7641A601E8441DC
:105A8C00E0B2B4E7FF230340D4E7604600F03EFBEE
:105A9C00D9E7C04600400540C4ED0120F0B5D6461C
:105AAC004F464646C0B5EFF305833F22134018001E
:105ABC001038EFF3108C72B6204D2A68002AFCD0F7
:105ACC00BFF35F8F0122110081401D4C884661633A
